{
	"data": {
		"bytecode": {
			"linkReferences": {},
			"object": "608060405234801561001057600080fd5b50610c02806100206000396000f3fe608060405234801561001057600080fd5b50600436106100935760003560e01c8063a01f851811610066578063a01f851814610158578063a324ad2414610188578063b1999937146101b8578063cf1742c6146101e8578063fa93f8831461021857610093565b80633e239e1a1461009857806365c72840146100c85780638aa001fc146100f857806392d6631314610128575b600080fd5b6100b260048036038101906100ad919061086d565b610248565b6040516100bf91906108b9565b60405180910390f35b6100e260048036038101906100dd919061086d565b610275565b6040516100ef91906108b9565b60405180910390f35b610112600480360381019061010d919061086d565b61028b565b60405161011f91906108b9565b60405180910390f35b610142600480360381019061013d919061086d565b6102a1565b60405161014f91906108b9565b60405180910390f35b610172600480360381019061016d9190610900565b6103c0565b60405161017f9190610948565b60405180910390f35b6101a2600480360381019061019d919061086d565b610435565b6040516101af91906108b9565b60405180910390f35b6101d260048036038101906101cd919061086d565b61044b565b6040516101df9190610972565b60405180910390f35b61020260048036038101906101fd919061098d565b61049f565b60405161020f91906108b9565b60405180910390f35b610232600480360381019061022d919061086d565b61058c565b60405161023f91906108b9565b60405180910390f35b60006018603c808461025a9190610a2b565b6102649190610a2b565b61026e9190610a5c565b9050919050565b6000610280826105ad565b604001519050919050565b6000603c8261029a9190610a5c565b9050919050565b600080600090506000806301e13380856102bb9190610a2b565b6107b263ffffffff166102ce9190610a8d565b91506102e16107b263ffffffff1661044b565b6102f08363ffffffff1661044b565b6102fa9190610ac1565b9050806301e2850061030c9190610af5565b836103179190610a8d565b9250806107b2836103289190610b37565b63ffffffff166103389190610ac1565b6301e133806103479190610af5565b836103529190610a8d565b92505b848311156103b55761037260018361036d9190610b37565b6103c0565b1561038e576301e28500836103879190610ac1565b92506103a1565b6301e133808361039e9190610ac1565b92505b6001826103ae9190610b37565b9150610355565b819350505050919050565b6000806004836103d09190610b6f565b63ffffffff16146103e45760009050610430565b60006064836103f39190610b6f565b63ffffffff16146104075760019050610430565b6000610190836104179190610b6f565b63ffffffff161461042b5760009050610430565b600190505b919050565b6000610440826105ad565b602001519050919050565b600060018261045a9190610ac1565b91506101908261046a9190610a2b565b6064836104779190610a2b565b6004846104849190610a2b565b61048e9190610ac1565b6104989190610a8d565b9050919050565b600060018363ffffffff1614806104bc575060038363ffffffff16145b806104cd575060058363ffffffff16145b806104de575060078363ffffffff16145b806104ef575060088363ffffffff16145b806105005750600a8363ffffffff16145b806105115750600c8363ffffffff16145b1561051f57601f9050610586565b60048363ffffffff16148061053a575060068363ffffffff16145b8061054b575060098363ffffffff16145b8061055c5750600b8363ffffffff16145b1561056a57601e9050610586565b610573826103c0565b1561058157601d9050610586565b601c90505b92915050565b6000603c808361059c9190610a2b565b6105a69190610a5c565b9050919050565b6105b56107d8565b600080806105c2856102a1565b846000019063ffffffff16908163ffffffff16815250506105ea6107b263ffffffff1661044b565b6105fd856000015163ffffffff1661044b565b6106079190610ac1565b9150816301e285006106199190610af5565b836106249190610a8d565b9250816107b285600001516106399190610b37565b63ffffffff166106499190610ac1565b6301e133806106589190610af5565b836106639190610a8d565b92506000600191505b600c8263ffffffff16116106ef5761068882866000015161049f565b63ffffffff166201518061069c9190610af5565b90508584826106ab9190610a8d565b11156106ce5781856020019063ffffffff16908163ffffffff16815250506106ef565b80846106da9190610a8d565b935081806106e790610ba0565b92505061066c565b600191505b6107068560200151866000015161049f565b63ffffffff168263ffffffff161161076f578584620151806107289190610a8d565b111561074b5781856040019063ffffffff16908163ffffffff168152505061076f565b620151808461075a9190610a8d565b9350818061076790610ba0565b9250506106f4565b61077886610248565b856060019063ffffffff16908163ffffffff16815250506107988661058c565b856080019063ffffffff16908163ffffffff16815250506107b88661028b565b8560a0019063ffffffff16908163ffffffff168152505050505050919050565b6040518060c00160405280600063ffffffff168152602001600063ffffffff168152602001600063ffffffff168152602001600063ffffffff168152602001600063ffffffff168152602001600063ffffffff1681525090565b600080fd5b6000819050919050565b61084a81610837565b811461085557600080fd5b50565b60008135905061086781610841565b92915050565b60006020828403121561088357610882610832565b5b600061089184828501610858565b91505092915050565b600063ffffffff82169050919050565b6108b38161089a565b82525050565b60006020820190506108ce60008301846108aa565b92915050565b6108dd8161089a565b81146108e857600080fd5b50565b6000813590506108fa816108d4565b92915050565b60006020828403121561091657610915610832565b5b6000610924848285016108eb565b91505092915050565b60008115159050919050565b6109428161092d565b82525050565b600060208201905061095d6000830184610939565b92915050565b61096c81610837565b82525050565b60006020820190506109876000830184610963565b92915050565b600080604083850312156109a4576109a3610832565b5b60006109b2858286016108eb565b92505060206109c3858286016108eb565b9150509250929050565b7f4e487b7100000000000000000000000000000000000000000000000000000000600052601260045260246000fd5b7f4e487b7100000000000000000000000000000000000000000000000000000000600052601160045260246000fd5b6000610a3682610837565b9150610a4183610837565b925082610a5157610a506109cd565b5b828204905092915050565b6000610a6782610837565b9150610a7283610837565b925082610a8257610a816109cd565b5b828206905092915050565b6000610a9882610837565b9150610aa383610837565b9250828201905080821115610abb57610aba6109fc565b5b92915050565b6000610acc82610837565b9150610ad783610837565b9250828203905081811115610aef57610aee6109fc565b5b92915050565b6000610b0082610837565b9150610b0b83610837565b9250828202610b1981610837565b91508282048414831517610b3057610b2f6109fc565b5b5092915050565b6000610b428261089a565b9150610b4d8361089a565b9250828203905063ffffffff811115610b6957610b686109fc565b5b92915050565b6000610b7a8261089a565b9150610b858361089a565b925082610b9557610b946109cd565b5b828206905092915050565b6000610bab8261089a565b915063ffffffff8203610bc157610bc06109fc565b5b60018201905091905056fea264697066735822122007ee9d0a88356c4c1d36e683a9808eee0cc44cc0670635e633d940d0593e818464736f6c63430008110033",
			"opcodes": "PUSH1 0x80 PUSH1 0x40 MSTORE CALLVALUE DUP1 ISZERO PUSH2 0x10 JUMPI PUSH1 0x0 DUP1 REVERT JUMPDEST POP PUSH2 0xC02 DUP1 PUSH2 0x20 PUSH1 0x0 CODECOPY PUSH1 0x0 RETURN INVALID PUSH1 0x80 PUSH1 0x40 MSTORE CALLVALUE DUP1 ISZERO PUSH2 0x10 JUMPI PUSH1 0x0 DUP1 REVERT JUMPDEST POP PUSH1 0x4 CALLDATASIZE LT PUSH2 0x93 JUMPI PUSH1 0x0 CALLDATALOAD PUSH1 0xE0 SHR DUP1 PUSH4 0xA01F8518 GT PUSH2 0x66 JUMPI DUP1 PUSH4 0xA01F8518 EQ PUSH2 0x158 JUMPI DUP1 PUSH4 0xA324AD24 EQ PUSH2 0x188 JUMPI DUP1 PUSH4 0xB1999937 EQ PUSH2 0x1B8 JUMPI DUP1 PUSH4 0xCF1742C6 EQ PUSH2 0x1E8 JUMPI DUP1 PUSH4 0xFA93F883 EQ PUSH2 0x218 JUMPI PUSH2 0x93 JUMP JUMPDEST DUP1 PUSH4 0x3E239E1A EQ PUSH2 0x98 JUMPI DUP1 PUSH4 0x65C72840 EQ PUSH2 0xC8 JUMPI DUP1 PUSH4 0x8AA001FC EQ PUSH2 0xF8 JUMPI DUP1 PUSH4 0x92D66313 EQ PUSH2 0x128 JUMPI JUMPDEST PUSH1 0x0 DUP1 REVERT JUMPDEST PUSH2 0xB2 PUSH1 0x4 DUP1 CALLDATASIZE SUB DUP2 ADD SWAP1 PUSH2 0xAD SWAP2 SWAP1 PUSH2 0x86D JUMP JUMPDEST PUSH2 0x248 JUMP JUMPDEST PUSH1 0x40 MLOAD PUSH2 0xBF SWAP2 SWAP1 PUSH2 0x8B9 JUMP JUMPDEST PUSH1 0x40 MLOAD DUP1 SWAP2 SUB SWAP1 RETURN JUMPDEST PUSH2 0xE2 PUSH1 0x4 DUP1 CALLDATASIZE SUB DUP2 ADD SWAP1 PUSH2 0xDD SWAP2 SWAP1 PUSH2 0x86D JUMP JUMPDEST PUSH2 0x275 JUMP JUMPDEST PUSH1 0x40 MLOAD PUSH2 0xEF SWAP2 SWAP1 PUSH2 0x8B9 JUMP JUMPDEST PUSH1 0x40 MLOAD DUP1 SWAP2 SUB SWAP1 RETURN JUMPDEST PUSH2 0x112 PUSH1 0x4 DUP1 CALLDATASIZE SUB DUP2 ADD SWAP1 PUSH2 0x10D SWAP2 SWAP1 PUSH2 0x86D JUMP JUMPDEST PUSH2 0x28B JUMP JUMPDEST PUSH1 0x40 MLOAD PUSH2 0x11F SWAP2 SWAP1 PUSH2 0x8B9 JUMP JUMPDEST PUSH1 0x40 MLOAD DUP1 SWAP2 SUB SWAP1 RETURN JUMPDEST PUSH2 0x142 PUSH1 0x4 DUP1 CALLDATASIZE SUB DUP2 ADD SWAP1 PUSH2 0x13D SWAP2 SWAP1 PUSH2 0x86D JUMP JUMPDEST PUSH2 0x2A1 JUMP JUMPDEST PUSH1 0x40 MLOAD PUSH2 0x14F SWAP2 SWAP1 PUSH2 0x8B9 JUMP JUMPDEST PUSH1 0x40 MLOAD DUP1 SWAP2 SUB SWAP1 RETURN JUMPDEST PUSH2 0x172 PUSH1 0x4 DUP1 CALLDATASIZE SUB DUP2 ADD SWAP1 PUSH2 0x16D SWAP2 SWAP1 PUSH2 0x900 JUMP JUMPDEST PUSH2 0x3C0 JUMP JUMPDEST PUSH1 0x40 MLOAD PUSH2 0x17F SWAP2 SWAP1 PUSH2 0x948 JUMP JUMPDEST PUSH1 0x40 MLOAD DUP1 SWAP2 SUB SWAP1 RETURN JUMPDEST PUSH2 0x1A2 PUSH1 0x4 DUP1 CALLDATASIZE SUB DUP2 ADD SWAP1 PUSH2 0x19D SWAP2 SWAP1 PUSH2 0x86D JUMP JUMPDEST PUSH2 0x435 JUMP JUMPDEST PUSH1 0x40 MLOAD PUSH2 0x1AF SWAP2 SWAP1 PUSH2 0x8B9 JUMP JUMPDEST PUSH1 0x40 MLOAD DUP1 SWAP2 SUB SWAP1 RETURN JUMPDEST PUSH2 0x1D2 PUSH1 0x4 DUP1 CALLDATASIZE SUB DUP2 ADD SWAP1 PUSH2 0x1CD SWAP2 SWAP1 PUSH2 0x86D JUMP JUMPDEST PUSH2 0x44B JUMP JUMPDEST PUSH1 0x40 MLOAD PUSH2 0x1DF SWAP2 SWAP1 PUSH2 0x972 JUMP JUMPDEST PUSH1 0x40 MLOAD DUP1 SWAP2 SUB SWAP1 RETURN JUMPDEST PUSH2 0x202 PUSH1 0x4 DUP1 CALLDATASIZE SUB DUP2 ADD SWAP1 PUSH2 0x1FD SWAP2 SWAP1 PUSH2 0x98D JUMP JUMPDEST PUSH2 0x49F JUMP JUMPDEST PUSH1 0x40 MLOAD PUSH2 0x20F SWAP2 SWAP1 PUSH2 0x8B9 JUMP JUMPDEST PUSH1 0x40 MLOAD DUP1 SWAP2 SUB SWAP1 RETURN JUMPDEST PUSH2 0x232 PUSH1 0x4 DUP1 CALLDATASIZE SUB DUP2 ADD SWAP1 PUSH2 0x22D SWAP2 SWAP1 PUSH2 0x86D JUMP JUMPDEST PUSH2 0x58C JUMP JUMPDEST PUSH1 0x40 MLOAD PUSH2 0x23F SWAP2 SWAP1 PUSH2 0x8B9 JUMP JUMPDEST PUSH1 0x40 MLOAD DUP1 SWAP2 SUB SWAP1 RETURN JUMPDEST PUSH1 0x0 PUSH1 0x18 PUSH1 0x3C DUP1 DUP5 PUSH2 0x25A SWAP2 SWAP1 PUSH2 0xA2B JUMP JUMPDEST PUSH2 0x264 SWAP2 SWAP1 PUSH2 0xA2B JUMP JUMPDEST PUSH2 0x26E SWAP2 SWAP1 PUSH2 0xA5C JUMP JUMPDEST SWAP1 POP SWAP2 SWAP1 POP JUMP JUMPDEST PUSH1 0x0 PUSH2 0x280 DUP3 PUSH2 0x5AD JUMP JUMPDEST PUSH1 0x40 ADD MLOAD SWAP1 POP SWAP2 SWAP1 POP JUMP JUMPDEST PUSH1 0x0 PUSH1 0x3C DUP3 PUSH2 0x29A SWAP2 SWAP1 PUSH2 0xA5C JUMP JUMPDEST SWAP1 POP SWAP2 SWAP1 POP JUMP JUMPDEST PUSH1 0x0 DUP1 PUSH1 0x0 SWAP1 POP PUSH1 0x0 DUP1 PUSH4 0x1E13380 DUP6 PUSH2 0x2BB SWAP2 SWAP1 PUSH2 0xA2B JUMP JUMPDEST PUSH2 0x7B2 PUSH4 0xFFFFFFFF AND PUSH2 0x2CE SWAP2 SWAP1 PUSH2 0xA8D JUMP JUMPDEST SWAP2 POP PUSH2 0x2E1 PUSH2 0x7B2 PUSH4 0xFFFFFFFF AND PUSH2 0x44B JUMP JUMPDEST PUSH2 0x2F0 DUP4 PUSH4 0xFFFFFFFF AND PUSH2 0x44B JUMP JUMPDEST PUSH2 0x2FA SWAP2 SWAP1 PUSH2 0xAC1 JUMP JUMPDEST SWAP1 POP DUP1 PUSH4 0x1E28500 PUSH2 0x30C SWAP2 SWAP1 PUSH2 0xAF5 JUMP JUMPDEST DUP4 PUSH2 0x317 SWAP2 SWAP1 PUSH2 0xA8D JUMP JUMPDEST SWAP3 POP DUP1 PUSH2 0x7B2 DUP4 PUSH2 0x328 SWAP2 SWAP1 PUSH2 0xB37 JUMP JUMPDEST PUSH4 0xFFFFFFFF AND PUSH2 0x338 SWAP2 SWAP1 PUSH2 0xAC1 JUMP JUMPDEST PUSH4 0x1E13380 PUSH2 0x347 SWAP2 SWAP1 PUSH2 0xAF5 JUMP JUMPDEST DUP4 PUSH2 0x352 SWAP2 SWAP1 PUSH2 0xA8D JUMP JUMPDEST SWAP3 POP JUMPDEST DUP5 DUP4 GT ISZERO PUSH2 0x3B5 JUMPI PUSH2 0x372 PUSH1 0x1 DUP4 PUSH2 0x36D SWAP2 SWAP1 PUSH2 0xB37 JUMP JUMPDEST PUSH2 0x3C0 JUMP JUMPDEST ISZERO PUSH2 0x38E JUMPI PUSH4 0x1E28500 DUP4 PUSH2 0x387 SWAP2 SWAP1 PUSH2 0xAC1 JUMP JUMPDEST SWAP3 POP PUSH2 0x3A1 JUMP JUMPDEST PUSH4 0x1E13380 DUP4 PUSH2 0x39E SWAP2 SWAP1 PUSH2 0xAC1 JUMP JUMPDEST SWAP3 POP JUMPDEST PUSH1 0x1 DUP3 PUSH2 0x3AE SWAP2 SWAP1 PUSH2 0xB37 JUMP JUMPDEST SWAP2 POP PUSH2 0x355 JUMP JUMPDEST DUP2 SWAP4 POP POP POP POP SWAP2 SWAP1 POP JUMP JUMPDEST PUSH1 0x0 DUP1 PUSH1 0x4 DUP4 PUSH2 0x3D0 SWAP2 SWAP1 PUSH2 0xB6F JUMP JUMPDEST PUSH4 0xFFFFFFFF AND EQ PUSH2 0x3E4 JUMPI PUSH1 0x0 SWAP1 POP PUSH2 0x430 JUMP JUMPDEST PUSH1 0x0 PUSH1 0x64 DUP4 PUSH2 0x3F3 SWAP2 SWAP1 PUSH2 0xB6F JUMP JUMPDEST PUSH4 0xFFFFFFFF AND EQ PUSH2 0x407 JUMPI PUSH1 0x1 SWAP1 POP PUSH2 0x430 JUMP JUMPDEST PUSH1 0x0 PUSH2 0x190 DUP4 PUSH2 0x417 SWAP2 SWAP1 PUSH2 0xB6F JUMP JUMPDEST PUSH4 0xFFFFFFFF AND EQ PUSH2 0x42B JUMPI PUSH1 0x0 SWAP1 POP PUSH2 0x430 JUMP JUMPDEST PUSH1 0x1 SWAP1 POP JUMPDEST SWAP2 SWAP1 POP JUMP JUMPDEST PUSH1 0x0 PUSH2 0x440 DUP3 PUSH2 0x5AD JUMP JUMPDEST PUSH1 0x20 ADD MLOAD SWAP1 POP SWAP2 SWAP1 POP JUMP JUMPDEST PUSH1 0x0 PUSH1 0x1 DUP3 PUSH2 0x45A SWAP2 SWAP1 PUSH2 0xAC1 JUMP JUMPDEST SWAP2 POP PUSH2 0x190 DUP3 PUSH2 0x46A SWAP2 SWAP1 PUSH2 0xA2B JUMP JUMPDEST PUSH1 0x64 DUP4 PUSH2 0x477 SWAP2 SWAP1 PUSH2 0xA2B JUMP JUMPDEST PUSH1 0x4 DUP5 PUSH2 0x484 SWAP2 SWAP1 PUSH2 0xA2B JUMP JUMPDEST PUSH2 0x48E SWAP2 SWAP1 PUSH2 0xAC1 JUMP JUMPDEST PUSH2 0x498 SWAP2 SWAP1 PUSH2 0xA8D JUMP JUMPDEST SWAP1 POP SWAP2 SWAP1 POP JUMP JUMPDEST PUSH1 0x0 PUSH1 0x1 DUP4 PUSH4 0xFFFFFFFF AND EQ DUP1 PUSH2 0x4BC JUMPI POP PUSH1 0x3 DUP4 PUSH4 0xFFFFFFFF AND EQ JUMPDEST DUP1 PUSH2 0x4CD JUMPI POP PUSH1 0x5 DUP4 PUSH4 0xFFFFFFFF AND EQ JUMPDEST DUP1 PUSH2 0x4DE JUMPI POP PUSH1 0x7 DUP4 PUSH4 0xFFFFFFFF AND EQ JUMPDEST DUP1 PUSH2 0x4EF JUMPI POP PUSH1 0x8 DUP4 PUSH4 0xFFFFFFFF AND EQ JUMPDEST DUP1 PUSH2 0x500 JUMPI POP PUSH1 0xA DUP4 PUSH4 0xFFFFFFFF AND EQ JUMPDEST DUP1 PUSH2 0x511 JUMPI POP PUSH1 0xC DUP4 PUSH4 0xFFFFFFFF AND EQ JUMPDEST ISZERO PUSH2 0x51F JUMPI PUSH1 0x1F SWAP1 POP PUSH2 0x586 JUMP JUMPDEST PUSH1 0x4 DUP4 PUSH4 0xFFFFFFFF AND EQ DUP1 PUSH2 0x53A JUMPI POP PUSH1 0x6 DUP4 PUSH4 0xFFFFFFFF AND EQ JUMPDEST DUP1 PUSH2 0x54B JUMPI POP PUSH1 0x9 DUP4 PUSH4 0xFFFFFFFF AND EQ JUMPDEST DUP1 PUSH2 0x55C JUMPI POP PUSH1 0xB DUP4 PUSH4 0xFFFFFFFF AND EQ JUMPDEST ISZERO PUSH2 0x56A JUMPI PUSH1 0x1E SWAP1 POP PUSH2 0x586 JUMP JUMPDEST PUSH2 0x573 DUP3 PUSH2 0x3C0 JUMP JUMPDEST ISZERO PUSH2 0x581 JUMPI PUSH1 0x1D SWAP1 POP PUSH2 0x586 JUMP JUMPDEST PUSH1 0x1C SWAP1 POP JUMPDEST SWAP3 SWAP2 POP POP JUMP JUMPDEST PUSH1 0x0 PUSH1 0x3C DUP1 DUP4 PUSH2 0x59C SWAP2 SWAP1 PUSH2 0xA2B JUMP JUMPDEST PUSH2 0x5A6 SWAP2 SWAP1 PUSH2 0xA5C JUMP JUMPDEST SWAP1 POP SWAP2 SWAP1 POP JUMP JUMPDEST PUSH2 0x5B5 PUSH2 0x7D8 JUMP JUMPDEST PUSH1 0x0 DUP1 DUP1 PUSH2 0x5C2 DUP6 PUSH2 0x2A1 JUMP JUMPDEST DUP5 PUSH1 0x0 ADD SWAP1 PUSH4 0xFFFFFFFF AND SWAP1 DUP2 PUSH4 0xFFFFFFFF AND DUP2 MSTORE POP POP PUSH2 0x5EA PUSH2 0x7B2 PUSH4 0xFFFFFFFF AND PUSH2 0x44B JUMP JUMPDEST PUSH2 0x5FD DUP6 PUSH1 0x0 ADD MLOAD PUSH4 0xFFFFFFFF AND PUSH2 0x44B JUMP JUMPDEST PUSH2 0x607 SWAP2 SWAP1 PUSH2 0xAC1 JUMP JUMPDEST SWAP2 POP DUP2 PUSH4 0x1E28500 PUSH2 0x619 SWAP2 SWAP1 PUSH2 0xAF5 JUMP JUMPDEST DUP4 PUSH2 0x624 SWAP2 SWAP1 PUSH2 0xA8D JUMP JUMPDEST SWAP3 POP DUP2 PUSH2 0x7B2 DUP6 PUSH1 0x0 ADD MLOAD PUSH2 0x639 SWAP2 SWAP1 PUSH2 0xB37 JUMP JUMPDEST PUSH4 0xFFFFFFFF AND PUSH2 0x649 SWAP2 SWAP1 PUSH2 0xAC1 JUMP JUMPDEST PUSH4 0x1E13380 PUSH2 0x658 SWAP2 SWAP1 PUSH2 0xAF5 JUMP JUMPDEST DUP4 PUSH2 0x663 SWAP2 SWAP1 PUSH2 0xA8D JUMP JUMPDEST SWAP3 POP PUSH1 0x0 PUSH1 0x1 SWAP2 POP JUMPDEST PUSH1 0xC DUP3 PUSH4 0xFFFFFFFF AND GT PUSH2 0x6EF JUMPI PUSH2 0x688 DUP3 DUP7 PUSH1 0x0 ADD MLOAD PUSH2 0x49F JUMP JUMPDEST PUSH4 0xFFFFFFFF AND PUSH3 0x15180 PUSH2 0x69C SWAP2 SWAP1 PUSH2 0xAF5 JUMP JUMPDEST SWAP1 POP DUP6 DUP5 DUP3 PUSH2 0x6AB SWAP2 SWAP1 PUSH2 0xA8D JUMP JUMPDEST GT ISZERO PUSH2 0x6CE JUMPI DUP2 DUP6 PUSH1 0x20 ADD SWAP1 PUSH4 0xFFFFFFFF AND SWAP1 DUP2 PUSH4 0xFFFFFFFF AND DUP2 MSTORE POP POP PUSH2 0x6EF JUMP JUMPDEST DUP1 DUP5 PUSH2 0x6DA SWAP2 SWAP1 PUSH2 0xA8D JUMP JUMPDEST SWAP4 POP DUP2 DUP1 PUSH2 0x6E7 SWAP1 PUSH2 0xBA0 JUMP JUMPDEST SWAP3 POP POP PUSH2 0x66C JUMP JUMPDEST PUSH1 0x1 SWAP2 POP JUMPDEST PUSH2 0x706 DUP6 PUSH1 0x20 ADD MLOAD DUP7 PUSH1 0x0 ADD MLOAD PUSH2 0x49F JUMP JUMPDEST PUSH4 0xFFFFFFFF AND DUP3 PUSH4 0xFFFFFFFF AND GT PUSH2 0x76F JUMPI DUP6 DUP5 PUSH3 0x15180 PUSH2 0x728 SWAP2 SWAP1 PUSH2 0xA8D JUMP JUMPDEST GT ISZERO PUSH2 0x74B JUMPI DUP2 DUP6 PUSH1 0x40 ADD SWAP1 PUSH4 0xFFFFFFFF AND SWAP1 DUP2 PUSH4 0xFFFFFFFF AND DUP2 MSTORE POP POP PUSH2 0x76F JUMP JUMPDEST PUSH3 0x15180 DUP5 PUSH2 0x75A SWAP2 SWAP1 PUSH2 0xA8D JUMP JUMPDEST SWAP4 POP DUP2 DUP1 PUSH2 0x767 SWAP1 PUSH2 0xBA0 JUMP JUMPDEST SWAP3 POP POP PUSH2 0x6F4 JUMP JUMPDEST PUSH2 0x778 DUP7 PUSH2 0x248 JUMP JUMPDEST DUP6 PUSH1 0x60 ADD SWAP1 PUSH4 0xFFFFFFFF AND SWAP1 DUP2 PUSH4 0xFFFFFFFF AND DUP2 MSTORE POP POP PUSH2 0x798 DUP7 PUSH2 0x58C JUMP JUMPDEST DUP6 PUSH1 0x80 ADD SWAP1 PUSH4 0xFFFFFFFF AND SWAP1 DUP2 PUSH4 0xFFFFFFFF AND DUP2 MSTORE POP POP PUSH2 0x7B8 DUP7 PUSH2 0x28B JUMP JUMPDEST DUP6 PUSH1 0xA0 ADD SWAP1 PUSH4 0xFFFFFFFF AND SWAP1 DUP2 PUSH4 0xFFFFFFFF AND DUP2 MSTORE POP POP POP POP POP POP SWAP2 SWAP1 POP JUMP JUMPDEST PUSH1 0x40 MLOAD DUP1 PUSH1 0xC0 ADD PUSH1 0x40 MSTORE DUP1 PUSH1 0x0 PUSH4 0xFFFFFFFF AND DUP2 MSTORE PUSH1 0x20 ADD PUSH1 0x0 PUSH4 0xFFFFFFFF AND DUP2 MSTORE PUSH1 0x20 ADD PUSH1 0x0 PUSH4 0xFFFFFFFF AND DUP2 MSTORE PUSH1 0x20 ADD PUSH1 0x0 PUSH4 0xFFFFFFFF AND DUP2 MSTORE PUSH1 0x20 ADD PUSH1 0x0 PUSH4 0xFFFFFFFF AND DUP2 MSTORE PUSH1 0x20 ADD PUSH1 0x0 PUSH4 0xFFFFFFFF AND DUP2 MSTORE POP SWAP1 JUMP JUMPDEST PUSH1 0x0 DUP1 REVERT JUMPDEST PUSH1 0x0 DUP2 SWAP1 POP SWAP2 SWAP1 POP JUMP JUMPDEST PUSH2 0x84A DUP2 PUSH2 0x837 JUMP JUMPDEST DUP2 EQ PUSH2 0x855 JUMPI PUSH1 0x0 DUP1 REVERT JUMPDEST POP JUMP JUMPDEST PUSH1 0x0 DUP2 CALLDATALOAD SWAP1 POP PUSH2 0x867 DUP2 PUSH2 0x841 JUMP JUMPDEST SWAP3 SWAP2 POP POP JUMP JUMPDEST PUSH1 0x0 PUSH1 0x20 DUP3 DUP5 SUB SLT ISZERO PUSH2 0x883 JUMPI PUSH2 0x882 PUSH2 0x832 JUMP JUMPDEST JUMPDEST PUSH1 0x0 PUSH2 0x891 DUP5 DUP3 DUP6 ADD PUSH2 0x858 JUMP JUMPDEST SWAP2 POP POP SWAP3 SWAP2 POP POP JUMP JUMPDEST PUSH1 0x0 PUSH4 0xFFFFFFFF DUP3 AND SWAP1 POP SWAP2 SWAP1 POP JUMP JUMPDEST PUSH2 0x8B3 DUP2 PUSH2 0x89A JUMP JUMPDEST DUP3 MSTORE POP POP JUMP JUMPDEST PUSH1 0x0 PUSH1 0x20 DUP3 ADD SWAP1 POP PUSH2 0x8CE PUSH1 0x0 DUP4 ADD DUP5 PUSH2 0x8AA JUMP JUMPDEST SWAP3 SWAP2 POP POP JUMP JUMPDEST PUSH2 0x8DD DUP2 PUSH2 0x89A JUMP JUMPDEST DUP2 EQ PUSH2 0x8E8 JUMPI PUSH1 0x0 DUP1 REVERT JUMPDEST POP JUMP JUMPDEST PUSH1 0x0 DUP2 CALLDATALOAD SWAP1 POP PUSH2 0x8FA DUP2 PUSH2 0x8D4 JUMP JUMPDEST SWAP3 SWAP2 POP POP JUMP JUMPDEST PUSH1 0x0 PUSH1 0x20 DUP3 DUP5 SUB SLT ISZERO PUSH2 0x916 JUMPI PUSH2 0x915 PUSH2 0x832 JUMP JUMPDEST JUMPDEST PUSH1 0x0 PUSH2 0x924 DUP5 DUP3 DUP6 ADD PUSH2 0x8EB JUMP JUMPDEST SWAP2 POP POP SWAP3 SWAP2 POP POP JUMP JUMPDEST PUSH1 0x0 DUP2 ISZERO ISZERO SWAP1 POP SWAP2 SWAP1 POP JUMP JUMPDEST PUSH2 0x942 DUP2 PUSH2 0x92D JUMP JUMPDEST DUP3 MSTORE POP POP JUMP JUMPDEST PUSH1 0x0 PUSH1 0x20 DUP3 ADD SWAP1 POP PUSH2 0x95D PUSH1 0x0 DUP4 ADD DUP5 PUSH2 0x939 JUMP JUMPDEST SWAP3 SWAP2 POP POP JUMP JUMPDEST PUSH2 0x96C DUP2 PUSH2 0x837 JUMP JUMPDEST DUP3 MSTORE POP POP JUMP JUMPDEST PUSH1 0x0 PUSH1 0x20 DUP3 ADD SWAP1 POP PUSH2 0x987 PUSH1 0x0 DUP4 ADD DUP5 PUSH2 0x963 JUMP JUMPDEST SWAP3 SWAP2 POP POP JUMP JUMPDEST PUSH1 0x0 DUP1 PUSH1 0x40 DUP4 DUP6 SUB SLT ISZERO PUSH2 0x9A4 JUMPI PUSH2 0x9A3 PUSH2 0x832 JUMP JUMPDEST JUMPDEST PUSH1 0x0 PUSH2 0x9B2 DUP6 DUP3 DUP7 ADD PUSH2 0x8EB JUMP JUMPDEST SWAP3 POP POP PUSH1 0x20 PUSH2 0x9C3 DUP6 DUP3 DUP7 ADD PUSH2 0x8EB JUMP JUMPDEST SWAP2 POP POP SWAP3 POP SWAP3 SWAP1 POP JUMP JUMPDEST PUSH32 0x4E487B7100000000000000000000000000000000000000000000000000000000 PUSH1 0x0 MSTORE PUSH1 0x12 PUSH1 0x4 MSTORE PUSH1 0x24 PUSH1 0x0 REVERT JUMPDEST PUSH32 0x4E487B7100000000000000000000000000000000000000000000000000000000 PUSH1 0x0 MSTORE PUSH1 0x11 PUSH1 0x4 MSTORE PUSH1 0x24 PUSH1 0x0 REVERT JUMPDEST PUSH1 0x0 PUSH2 0xA36 DUP3 PUSH2 0x837 JUMP JUMPDEST SWAP2 POP PUSH2 0xA41 DUP4 PUSH2 0x837 JUMP JUMPDEST SWAP3 POP DUP3 PUSH2 0xA51 JUMPI PUSH2 0xA50 PUSH2 0x9CD JUMP JUMPDEST JUMPDEST DUP3 DUP3 DIV SWAP1 POP SWAP3 SWAP2 POP POP JUMP JUMPDEST PUSH1 0x0 PUSH2 0xA67 DUP3 PUSH2 0x837 JUMP JUMPDEST SWAP2 POP PUSH2 0xA72 DUP4 PUSH2 0x837 JUMP JUMPDEST SWAP3 POP DUP3 PUSH2 0xA82 JUMPI PUSH2 0xA81 PUSH2 0x9CD JUMP JUMPDEST JUMPDEST DUP3 DUP3 MOD SWAP1 POP SWAP3 SWAP2 POP POP JUMP JUMPDEST PUSH1 0x0 PUSH2 0xA98 DUP3 PUSH2 0x837 JUMP JUMPDEST SWAP2 POP PUSH2 0xAA3 DUP4 PUSH2 0x837 JUMP JUMPDEST SWAP3 POP DUP3 DUP3 ADD SWAP1 POP DUP1 DUP3 GT ISZERO PUSH2 0xABB JUMPI PUSH2 0xABA PUSH2 0x9FC JUMP JUMPDEST JUMPDEST SWAP3 SWAP2 POP POP JUMP JUMPDEST PUSH1 0x0 PUSH2 0xACC DUP3 PUSH2 0x837 JUMP JUMPDEST SWAP2 POP PUSH2 0xAD7 DUP4 PUSH2 0x837 JUMP JUMPDEST SWAP3 POP DUP3 DUP3 SUB SWAP1 POP DUP2 DUP2 GT ISZERO PUSH2 0xAEF JUMPI PUSH2 0xAEE PUSH2 0x9FC JUMP JUMPDEST JUMPDEST SWAP3 SWAP2 POP POP JUMP JUMPDEST PUSH1 0x0 PUSH2 0xB00 DUP3 PUSH2 0x837 JUMP JUMPDEST SWAP2 POP PUSH2 0xB0B DUP4 PUSH2 0x837 JUMP JUMPDEST SWAP3 POP DUP3 DUP3 MUL PUSH2 0xB19 DUP2 PUSH2 0x837 JUMP JUMPDEST SWAP2 POP DUP3 DUP3 DIV DUP5 EQ DUP4 ISZERO OR PUSH2 0xB30 JUMPI PUSH2 0xB2F PUSH2 0x9FC JUMP JUMPDEST JUMPDEST POP SWAP3 SWAP2 POP POP JUMP JUMPDEST PUSH1 0x0 PUSH2 0xB42 DUP3 PUSH2 0x89A JUMP JUMPDEST SWAP2 POP PUSH2 0xB4D DUP4 PUSH2 0x89A JUMP JUMPDEST SWAP3 POP DUP3 DUP3 SUB SWAP1 POP PUSH4 0xFFFFFFFF DUP2 GT ISZERO PUSH2 0xB69 JUMPI PUSH2 0xB68 PUSH2 0x9FC JUMP JUMPDEST JUMPDEST SWAP3 SWAP2 POP POP JUMP JUMPDEST PUSH1 0x0 PUSH2 0xB7A DUP3 PUSH2 0x89A JUMP JUMPDEST SWAP2 POP PUSH2 0xB85 DUP4 PUSH2 0x89A JUMP JUMPDEST SWAP3 POP DUP3 PUSH2 0xB95 JUMPI PUSH2 0xB94 PUSH2 0x9CD JUMP JUMPDEST JUMPDEST DUP3 DUP3 MOD SWAP1 POP SWAP3 SWAP2 POP POP JUMP JUMPDEST PUSH1 0x0 PUSH2 0xBAB DUP3 PUSH2 0x89A JUMP JUMPDEST SWAP2 POP PUSH4 0xFFFFFFFF DUP3 SUB PUSH2 0xBC1 JUMPI PUSH2 0xBC0 PUSH2 0x9FC JUMP JUMPDEST JUMPDEST PUSH1 0x1 DUP3 ADD SWAP1 POP SWAP2 SWAP1 POP JUMP INVALID LOG2 PUSH5 0x6970667358 0x22 SLT KECCAK256 SMOD 0xEE SWAP14 EXP DUP9 CALLDATALOAD PUSH13 0x4C1D36E683A9808EEE0CC44CC0 PUSH8 0x635E633D940D059 RETURNDATACOPY DUP2 DUP5 PUSH5 0x736F6C6343 STOP ADDMOD GT STOP CALLER "
		},
		"gasEstimates": {
			"creation": {
				"codeDepositCost": "614800",
				"executionCost": "651",
				"totalCost": "615451"
			},
			"external": {
				"getDay(uint256)": "infinite",
				"getDaysInMonth(uint32,uint32)": "infinite",
				"getHour(uint256)": "infinite",
				"getMinute(uint256)": "infinite",
				"getMonth(uint256)": "infinite",
				"getSecond(uint256)": "infinite",
				"getYear(uint256)": "infinite",
				"isLeapYear(uint32)": "infinite",
				"leapYearsBefore(uint256)": "infinite"
			},
			"internal": {
				"parseTimestamp(uint256)": "infinite"
			}
		},
		"methodIdentifiers": {
			"getDay(uint256)": "65c72840",
			"getDaysInMonth(uint32,uint32)": "cf1742c6",
			"getHour(uint256)": "3e239e1a",
			"getMinute(uint256)": "fa93f883",
			"getMonth(uint256)": "a324ad24",
			"getSecond(uint256)": "8aa001fc",
			"getYear(uint256)": "92d66313",
			"isLeapYear(uint32)": "a01f8518",
			"leapYearsBefore(uint256)": "b1999937"
		}
	},
	"abi": [
		{
			"inputs": [
				{
					"internalType": "uint256",
					"name": "timestamp",
					"type": "uint256"
				}
			],
			"name": "getDay",
			"outputs": [
				{
					"internalType": "uint32",
					"name": "",
					"type": "uint32"
				}
			],
			"stateMutability": "pure",
			"type": "function"
		},
		{
			"inputs": [
				{
					"internalType": "uint32",
					"name": "month",
					"type": "uint32"
				},
				{
					"internalType": "uint32",
					"name": "year",
					"type": "uint32"
				}
			],
			"name": "getDaysInMonth",
			"outputs": [
				{
					"internalType": "uint32",
					"name": "",
					"type": "uint32"
				}
			],
			"stateMutability": "pure",
			"type": "function"
		},
		{
			"inputs": [
				{
					"internalType": "uint256",
					"name": "timestamp",
					"type": "uint256"
				}
			],
			"name": "getHour",
			"outputs": [
				{
					"internalType": "uint32",
					"name": "",
					"type": "uint32"
				}
			],
			"stateMutability": "pure",
			"type": "function"
		},
		{
			"inputs": [
				{
					"internalType": "uint256",
					"name": "timestamp",
					"type": "uint256"
				}
			],
			"name": "getMinute",
			"outputs": [
				{
					"internalType": "uint32",
					"name": "",
					"type": "uint32"
				}
			],
			"stateMutability": "pure",
			"type": "function"
		},
		{
			"inputs": [
				{
					"internalType": "uint256",
					"name": "timestamp",
					"type": "uint256"
				}
			],
			"name": "getMonth",
			"outputs": [
				{
					"internalType": "uint32",
					"name": "",
					"type": "uint32"
				}
			],
			"stateMutability": "pure",
			"type": "function"
		},
		{
			"inputs": [
				{
					"internalType": "uint256",
					"name": "timestamp",
					"type": "uint256"
				}
			],
			"name": "getSecond",
			"outputs": [
				{
					"internalType": "uint32",
					"name": "",
					"type": "uint32"
				}
			],
			"stateMutability": "pure",
			"type": "function"
		},
		{
			"inputs": [
				{
					"internalType": "uint256",
					"name": "timestamp",
					"type": "uint256"
				}
			],
			"name": "getYear",
			"outputs": [
				{
					"internalType": "uint32",
					"name": "",
					"type": "uint32"
				}
			],
			"stateMutability": "pure",
			"type": "function"
		},
		{
			"inputs": [
				{
					"internalType": "uint32",
					"name": "year",
					"type": "uint32"
				}
			],
			"name": "isLeapYear",
			"outputs": [
				{
					"internalType": "bool",
					"name": "",
					"type": "bool"
				}
			],
			"stateMutability": "pure",
			"type": "function"
		},
		{
			"inputs": [
				{
					"internalType": "uint256",
					"name": "year",
					"type": "uint256"
				}
			],
			"name": "leapYearsBefore",
			"outputs": [
				{
					"internalType": "uint256",
					"name": "",
					"type": "uint256"
				}
			],
			"stateMutability": "pure",
			"type": "function"
		}
	]
}