{
  "contractName": "DateTime",
  "abi": [
    {
      "inputs": [
        {
          "internalType": "uint32",
          "name": "year",
          "type": "uint32"
        }
      ],
      "name": "isLeapYear",
      "outputs": [
        {
          "internalType": "bool",
          "name": "",
          "type": "bool"
        }
      ],
      "stateMutability": "pure",
      "type": "function"
    },
    {
      "inputs": [
        {
          "internalType": "uint256",
          "name": "year",
          "type": "uint256"
        }
      ],
      "name": "leapYearsBefore",
      "outputs": [
        {
          "internalType": "uint256",
          "name": "",
          "type": "uint256"
        }
      ],
      "stateMutability": "pure",
      "type": "function"
    },
    {
      "inputs": [
        {
          "internalType": "uint32",
          "name": "month",
          "type": "uint32"
        },
        {
          "internalType": "uint32",
          "name": "year",
          "type": "uint32"
        }
      ],
      "name": "getDaysInMonth",
      "outputs": [
        {
          "internalType": "uint32",
          "name": "",
          "type": "uint32"
        }
      ],
      "stateMutability": "pure",
      "type": "function"
    },
    {
      "inputs": [
        {
          "internalType": "uint256",
          "name": "timestamp",
          "type": "uint256"
        }
      ],
      "name": "getYear",
      "outputs": [
        {
          "internalType": "uint32",
          "name": "",
          "type": "uint32"
        }
      ],
      "stateMutability": "pure",
      "type": "function"
    },
    {
      "inputs": [
        {
          "internalType": "uint256",
          "name": "timestamp",
          "type": "uint256"
        }
      ],
      "name": "getMonth",
      "outputs": [
        {
          "internalType": "uint32",
          "name": "",
          "type": "uint32"
        }
      ],
      "stateMutability": "pure",
      "type": "function"
    },
    {
      "inputs": [
        {
          "internalType": "uint256",
          "name": "timestamp",
          "type": "uint256"
        }
      ],
      "name": "getDay",
      "outputs": [
        {
          "internalType": "uint32",
          "name": "",
          "type": "uint32"
        }
      ],
      "stateMutability": "pure",
      "type": "function"
    },
    {
      "inputs": [
        {
          "internalType": "uint256",
          "name": "timestamp",
          "type": "uint256"
        }
      ],
      "name": "getHour",
      "outputs": [
        {
          "internalType": "uint32",
          "name": "",
          "type": "uint32"
        }
      ],
      "stateMutability": "pure",
      "type": "function"
    },
    {
      "inputs": [
        {
          "internalType": "uint256",
          "name": "timestamp",
          "type": "uint256"
        }
      ],
      "name": "getMinute",
      "outputs": [
        {
          "internalType": "uint32",
          "name": "",
          "type": "uint32"
        }
      ],
      "stateMutability": "pure",
      "type": "function"
    },
    {
      "inputs": [
        {
          "internalType": "uint256",
          "name": "timestamp",
          "type": "uint256"
        }
      ],
      "name": "getSecond",
      "outputs": [
        {
          "internalType": "uint32",
          "name": "",
          "type": "uint32"
        }
      ],
      "stateMutability": "pure",
      "type": "function"
    }
  ],
  "bytecode": "0x608060405234801561001057600080fd5b50610c1a806100206000396000f3fe608060405234801561001057600080fd5b50600436106100935760003560e01c8063a01f851811610066578063a01f851814610158578063a324ad2414610188578063b1999937146101b8578063cf1742c6146101e8578063fa93f8831461021857610093565b80633e239e1a1461009857806365c72840146100c85780638aa001fc146100f857806392d6631314610128575b600080fd5b6100b260048036038101906100ad919061086d565b610248565b6040516100bf91906108b9565b60405180910390f35b6100e260048036038101906100dd919061086d565b610275565b6040516100ef91906108b9565b60405180910390f35b610112600480360381019061010d919061086d565b61028b565b60405161011f91906108b9565b60405180910390f35b610142600480360381019061013d919061086d565b6102a1565b60405161014f91906108b9565b60405180910390f35b610172600480360381019061016d9190610900565b6103c0565b60405161017f9190610948565b60405180910390f35b6101a2600480360381019061019d919061086d565b610435565b6040516101af91906108b9565b60405180910390f35b6101d260048036038101906101cd919061086d565b61044b565b6040516101df9190610972565b60405180910390f35b61020260048036038101906101fd919061098d565b61049f565b60405161020f91906108b9565b60405180910390f35b610232600480360381019061022d919061086d565b61058c565b60405161023f91906108b9565b60405180910390f35b60006018603c808461025a9190610a2b565b6102649190610a2b565b61026e9190610a5c565b9050919050565b6000610280826105ad565b604001519050919050565b6000603c8261029a9190610a5c565b9050919050565b600080600090506000806301e13380856102bb9190610a2b565b6107b263ffffffff166102ce9190610a8d565b91506102e16107b263ffffffff1661044b565b6102f08363ffffffff1661044b565b6102fa9190610ac1565b9050806301e2850061030c9190610af5565b836103179190610a8d565b9250806107b2836103289190610b4f565b63ffffffff166103389190610ac1565b6301e133806103479190610af5565b836103529190610a8d565b92505b848311156103b55761037260018361036d9190610b4f565b6103c0565b1561038e576301e28500836103879190610ac1565b92506103a1565b6301e133808361039e9190610ac1565b92505b6001826103ae9190610b4f565b9150610355565b819350505050919050565b6000806004836103d09190610b87565b63ffffffff16146103e45760009050610430565b60006064836103f39190610b87565b63ffffffff16146104075760019050610430565b6000610190836104179190610b87565b63ffffffff161461042b5760009050610430565b600190505b919050565b6000610440826105ad565b602001519050919050565b600060018261045a9190610ac1565b91506101908261046a9190610a2b565b6064836104779190610a2b565b6004846104849190610a2b565b61048e9190610ac1565b6104989190610a8d565b9050919050565b600060018363ffffffff1614806104bc575060038363ffffffff16145b806104cd575060058363ffffffff16145b806104de575060078363ffffffff16145b806104ef575060088363ffffffff16145b806105005750600a8363ffffffff16145b806105115750600c8363ffffffff16145b1561051f57601f9050610586565b60048363ffffffff16148061053a575060068363ffffffff16145b8061054b575060098363ffffffff16145b8061055c5750600b8363ffffffff16145b1561056a57601e9050610586565b610573826103c0565b1561058157601d9050610586565b601c90505b92915050565b6000603c808361059c9190610a2b565b6105a69190610a5c565b9050919050565b6105b56107d8565b600080806105c2856102a1565b846000019063ffffffff16908163ffffffff16815250506105ea6107b263ffffffff1661044b565b6105fd856000015163ffffffff1661044b565b6106079190610ac1565b9150816301e285006106199190610af5565b836106249190610a8d565b9250816107b285600001516106399190610b4f565b63ffffffff166106499190610ac1565b6301e133806106589190610af5565b836106639190610a8d565b92506000600191505b600c8263ffffffff16116106ef5761068882866000015161049f565b63ffffffff166201518061069c9190610af5565b90508584826106ab9190610a8d565b11156106ce5781856020019063ffffffff16908163ffffffff16815250506106ef565b80846106da9190610a8d565b935081806106e790610bb8565b92505061066c565b600191505b6107068560200151866000015161049f565b63ffffffff168263ffffffff161161076f578584620151806107289190610a8d565b111561074b5781856040019063ffffffff16908163ffffffff168152505061076f565b620151808461075a9190610a8d565b9350818061076790610bb8565b9250506106f4565b61077886610248565b856060019063ffffffff16908163ffffffff16815250506107988661058c565b856080019063ffffffff16908163ffffffff16815250506107b88661028b565b8560a0019063ffffffff16908163ffffffff168152505050505050919050565b6040518060c00160405280600063ffffffff168152602001600063ffffffff168152602001600063ffffffff168152602001600063ffffffff168152602001600063ffffffff168152602001600063ffffffff1681525090565b600080fd5b6000819050919050565b61084a81610837565b811461085557600080fd5b50565b60008135905061086781610841565b92915050565b60006020828403121561088357610882610832565b5b600061089184828501610858565b91505092915050565b600063ffffffff82169050919050565b6108b38161089a565b82525050565b60006020820190506108ce60008301846108aa565b92915050565b6108dd8161089a565b81146108e857600080fd5b50565b6000813590506108fa816108d4565b92915050565b60006020828403121561091657610915610832565b5b6000610924848285016108eb565b91505092915050565b60008115159050919050565b6109428161092d565b82525050565b600060208201905061095d6000830184610939565b92915050565b61096c81610837565b82525050565b60006020820190506109876000830184610963565b92915050565b600080604083850312156109a4576109a3610832565b5b60006109b2858286016108eb565b92505060206109c3858286016108eb565b9150509250929050565b7f4e487b7100000000000000000000000000000000000000000000000000000000600052601260045260246000fd5b7f4e487b7100000000000000000000000000000000000000000000000000000000600052601160045260246000fd5b6000610a3682610837565b9150610a4183610837565b925082610a5157610a506109cd565b5b828204905092915050565b6000610a6782610837565b9150610a7283610837565b925082610a8257610a816109cd565b5b828206905092915050565b6000610a9882610837565b9150610aa383610837565b9250828201905080821115610abb57610aba6109fc565b5b92915050565b6000610acc82610837565b9150610ad783610837565b9250828203905081811115610aef57610aee6109fc565b5b92915050565b6000610b0082610837565b9150610b0b83610837565b9250817fffffffffffffffffffffffffffffffffffffffffffffffffffffffffffffffff0483118215151615610b4457610b436109fc565b5b828202905092915050565b6000610b5a8261089a565b9150610b658361089a565b9250828203905063ffffffff811115610b8157610b806109fc565b5b92915050565b6000610b928261089a565b9150610b9d8361089a565b925082610bad57610bac6109cd565b5b828206905092915050565b6000610bc38261089a565b915063ffffffff8203610bd957610bd86109fc565b5b60018201905091905056fea2646970667358221220694951530e9d797f26e7f7a7cc11f810b5f4b35474c3ea2b5c58781dc3f1eb2d64736f6c63430008100033",
  "immutableReferences": {},
  "source": "// SPDX-License-Identifier: MIT\npragma solidity ^0.8.0;\n\ncontract DateTime {\n        struct _DateTime {\n                uint32 year;\n                uint32 month;\n                uint32 day;\n                uint32 hour;\n                uint32 minute;\n                uint32 second;\n        }\n\n        uint constant DAY_IN_SECONDS = 86400;\n        uint constant YEAR_IN_SECONDS = 31536000;\n        uint constant LEAP_YEAR_IN_SECONDS = 31622400;\n        uint constant HOUR_IN_SECONDS = 3600;\n        uint constant MINUTE_IN_SECONDS = 60;\n        uint32 constant ORIGIN_YEAR = 1970;\n\n        function isLeapYear(uint32 year) public pure returns (bool) {\n                if (year % 4 != 0) {\n                        return false;\n                }\n                if (year % 100 != 0) {\n                        return true;\n                }\n                if (year % 400 != 0) {\n                        return false;\n                }\n                return true;\n        }\n\n        function leapYearsBefore(uint year) public pure returns (uint) {\n                year -= 1;\n                return year / 4 - year / 100 + year / 400;\n        }\n\n        function getDaysInMonth(uint32 month, uint32 year) public pure returns (uint32) {\n                if (month == 1 || month == 3 || month == 5 || month == 7 || month == 8 || month == 10 || month == 12) {\n                        return 31;\n                }\n                else if (month == 4 || month == 6 || month == 9 || month == 11) {\n                        return 30;\n                }\n                else if (isLeapYear(year)) {\n                        return 29;\n                }\n                else {\n                        return 28;\n                }\n        }\n\n        function parseTimestamp(uint timestamp) internal pure returns (_DateTime memory dt) {\n                uint secondsAccountedFor = 0;\n                uint buf;\n                uint32 i;\n\n                // Year\n                dt.year = getYear(timestamp);\n                buf = leapYearsBefore(dt.year) - leapYearsBefore(ORIGIN_YEAR);\n\n                secondsAccountedFor += LEAP_YEAR_IN_SECONDS * buf;\n                secondsAccountedFor += YEAR_IN_SECONDS * (dt.year - ORIGIN_YEAR - buf);\n\n                // Month\n                uint secondsInMonth;\n                for (i = 1; i <= 12; i++) {\n                        secondsInMonth = DAY_IN_SECONDS * getDaysInMonth(i, dt.year);\n                        if (secondsInMonth + secondsAccountedFor > timestamp) {\n                                dt.month = i;\n                                break;\n                        }\n                        secondsAccountedFor += secondsInMonth;\n                }\n\n                // Day\n                for (i = 1; i <= getDaysInMonth(dt.month, dt.year); i++) {\n                        if (DAY_IN_SECONDS + secondsAccountedFor > timestamp) {\n                                dt.day = i;\n                                break;\n                        }\n                        secondsAccountedFor += DAY_IN_SECONDS;\n                }\n\n                // Hour\n                dt.hour = getHour(timestamp);\n\n                // Minute\n                dt.minute = getMinute(timestamp);\n\n                // Second\n                dt.second = getSecond(timestamp);\n        }\n\n        function getYear(uint timestamp) public pure returns (uint32) {\n                uint secondsAccountedFor = 0;\n                uint32 year;\n                uint numLeapYears;\n\n                // Year\n                year = uint32(ORIGIN_YEAR + timestamp / YEAR_IN_SECONDS);\n                numLeapYears = leapYearsBefore(year) - leapYearsBefore(ORIGIN_YEAR);\n\n                secondsAccountedFor += LEAP_YEAR_IN_SECONDS * numLeapYears;\n                secondsAccountedFor += YEAR_IN_SECONDS * (year - ORIGIN_YEAR - numLeapYears);\n\n                while (secondsAccountedFor > timestamp) {\n                        if (isLeapYear(uint32(year - 1))) {\n                                secondsAccountedFor -= LEAP_YEAR_IN_SECONDS;\n                        }\n                        else {\n                                secondsAccountedFor -= YEAR_IN_SECONDS;\n                        }\n                        year -= 1;\n                }\n                return year;\n        }\n\n        function getMonth(uint timestamp) public pure returns (uint32) {\n                return parseTimestamp(timestamp).month;\n        }\n\n        function getDay(uint timestamp) public pure returns (uint32) {\n                return parseTimestamp(timestamp).day;\n        }\n\n        function getHour(uint timestamp) public pure returns (uint32) {\n                return uint32((timestamp / 60 / 60) % 24);\n        }\n\n        function getMinute(uint timestamp) public pure returns (uint32) {\n                return uint32((timestamp / 60) % 60);\n        }\n\n        function getSecond(uint timestamp) public pure returns (uint32) {\n                return uint32(timestamp % 60);\n        }\n\n\n}",
  "sourcePath": "/home/kbi/blockChain_part/levels/levels/Contract/contracts/DateTime.sol",
  "compiler": {
    "name": "solc",
    "version": "0.8.16+commit.07a7930e.Emscripten.clang"
  },
  "schemaVersion": "3.4.9",
  "updatedAt": "2022-10-25T05:36:44.943Z",
  "devdoc": {
    "kind": "dev",
    "methods": {},
    "version": 1
  },
  "userdoc": {
    "kind": "user",
    "methods": {},
    "version": 1
  }
}