{
  "contractName": "DateTime",
  "abi": [
    {
      "inputs": [
        {
          "internalType": "uint16",
          "name": "year",
          "type": "uint16"
        }
      ],
      "name": "isLeapYear",
      "outputs": [
        {
          "internalType": "bool",
          "name": "",
          "type": "bool"
        }
      ],
      "stateMutability": "pure",
      "type": "function",
      "constant": true
    },
    {
      "inputs": [
        {
          "internalType": "uint256",
          "name": "year",
          "type": "uint256"
        }
      ],
      "name": "leapYearsBefore",
      "outputs": [
        {
          "internalType": "uint256",
          "name": "",
          "type": "uint256"
        }
      ],
      "stateMutability": "pure",
      "type": "function",
      "constant": true
    },
    {
      "inputs": [
        {
          "internalType": "uint8",
          "name": "month",
          "type": "uint8"
        },
        {
          "internalType": "uint16",
          "name": "year",
          "type": "uint16"
        }
      ],
      "name": "getDaysInMonth",
      "outputs": [
        {
          "internalType": "uint8",
          "name": "",
          "type": "uint8"
        }
      ],
      "stateMutability": "pure",
      "type": "function",
      "constant": true
    },
    {
      "inputs": [
        {
          "internalType": "uint256",
          "name": "timestamp",
          "type": "uint256"
        }
      ],
      "name": "getYear",
      "outputs": [
        {
          "internalType": "uint16",
          "name": "",
          "type": "uint16"
        }
      ],
      "stateMutability": "pure",
      "type": "function",
      "constant": true
    },
    {
      "inputs": [
        {
          "internalType": "uint256",
          "name": "timestamp",
          "type": "uint256"
        }
      ],
      "name": "getMonth",
      "outputs": [
        {
          "internalType": "uint8",
          "name": "",
          "type": "uint8"
        }
      ],
      "stateMutability": "pure",
      "type": "function",
      "constant": true
    },
    {
      "inputs": [
        {
          "internalType": "uint256",
          "name": "timestamp",
          "type": "uint256"
        }
      ],
      "name": "getDay",
      "outputs": [
        {
          "internalType": "uint8",
          "name": "",
          "type": "uint8"
        }
      ],
      "stateMutability": "pure",
      "type": "function",
      "constant": true
    },
    {
      "inputs": [
        {
          "internalType": "uint256",
          "name": "timestamp",
          "type": "uint256"
        }
      ],
      "name": "getHour",
      "outputs": [
        {
          "internalType": "uint8",
          "name": "",
          "type": "uint8"
        }
      ],
      "stateMutability": "pure",
      "type": "function",
      "constant": true
    },
    {
      "inputs": [
        {
          "internalType": "uint256",
          "name": "timestamp",
          "type": "uint256"
        }
      ],
      "name": "getMinute",
      "outputs": [
        {
          "internalType": "uint8",
          "name": "",
          "type": "uint8"
        }
      ],
      "stateMutability": "pure",
      "type": "function",
      "constant": true
    },
    {
      "inputs": [
        {
          "internalType": "uint256",
          "name": "timestamp",
          "type": "uint256"
        }
      ],
      "name": "getSecond",
      "outputs": [
        {
          "internalType": "uint8",
          "name": "",
          "type": "uint8"
        }
      ],
      "stateMutability": "pure",
      "type": "function",
      "constant": true
    },
    {
      "inputs": [
        {
          "internalType": "uint256",
          "name": "timestamp",
          "type": "uint256"
        }
      ],
      "name": "getWeekday",
      "outputs": [
        {
          "internalType": "uint8",
          "name": "",
          "type": "uint8"
        }
      ],
      "stateMutability": "pure",
      "type": "function",
      "constant": true
    }
  ],
  "bytecode": "0x608060405234801561001057600080fd5b50610c91806100206000396000f3fe608060405234801561001057600080fd5b506004361061009e5760003560e01c8063a324ad2411610066578063a324ad2414610193578063a6f0e577146101c3578063b1999937146101f3578063b238ad0e14610223578063fa93f883146102535761009e565b80633e239e1a146100a35780634ac1ad78146100d357806365c72840146101035780638aa001fc1461013357806392d6631314610163575b600080fd5b6100bd60048036038101906100b89190610888565b610283565b6040516100ca91906108d1565b60405180910390f35b6100ed60048036038101906100e89190610888565b6102b0565b6040516100fa91906108d1565b60405180910390f35b61011d60048036038101906101189190610888565b6102e0565b60405161012a91906108d1565b60405180910390f35b61014d60048036038101906101489190610888565b6102f6565b60405161015a91906108d1565b60405180910390f35b61017d60048036038101906101789190610888565b61030c565b60405161018a9190610909565b60405180910390f35b6101ad60048036038101906101a89190610888565b610423565b6040516101ba91906108d1565b60405180910390f35b6101dd60048036038101906101d89190610950565b610439565b6040516101ea9190610998565b60405180910390f35b61020d60048036038101906102089190610888565b6104a8565b60405161021a91906109c2565b60405180910390f35b61023d60048036038101906102389190610a09565b6104fc565b60405161024a91906108d1565b60405180910390f35b61026d60048036038101906102689190610888565b6105c8565b60405161027a91906108d1565b60405180910390f35b60006018603c80846102959190610aa7565b61029f9190610aa7565b6102a99190610ad8565b9050919050565b60006007600462015180846102c59190610aa7565b6102cf9190610b09565b6102d99190610ad8565b9050919050565b60006102eb826105e9565b604001519050919050565b6000603c826103059190610ad8565b9050919050565b600080600090506000806301e13380856103269190610aa7565b6107b261ffff166103379190610b09565b91506103486107b261ffff166104a8565b6103558361ffff166104a8565b61035f9190610b3d565b9050806301e285006103719190610b71565b8361037c9190610b09565b9250806107b28361038d9190610bcb565b61ffff1661039b9190610b3d565b6301e133806103aa9190610b71565b836103b59190610b09565b92505b84831115610418576103d56001836103d09190610bcb565b610439565b156103f1576301e28500836103ea9190610b3d565b9250610404565b6301e13380836104019190610b3d565b92505b6001826104119190610bcb565b91506103b8565b819350505050919050565b600061042e826105e9565b602001519050919050565b6000806004836104499190610c01565b61ffff161461045b57600090506104a3565b600060648361046a9190610c01565b61ffff161461047c57600190506104a3565b60006101908361048c9190610c01565b61ffff161461049e57600090506104a3565b600190505b919050565b60006001826104b79190610b3d565b9150610190826104c79190610aa7565b6064836104d49190610aa7565b6004846104e19190610aa7565b6104eb9190610b3d565b6104f59190610b09565b9050919050565b600060018360ff161480610513575060038360ff16145b80610521575060058360ff16145b8061052f575060078360ff16145b8061053d575060088360ff16145b8061054b5750600a8360ff16145b806105595750600c8360ff16145b1561056757601f90506105c2565b60048360ff16148061057c575060068360ff16145b8061058a575060098360ff16145b806105985750600b8360ff16145b156105a657601e90506105c2565b6105af82610439565b156105bd57601d90506105c2565b601c90505b92915050565b6000603c80836105d89190610aa7565b6105e29190610ad8565b9050919050565b6105f16107fa565b600080806105fe8561030c565b846000019061ffff16908161ffff16815250506106206107b261ffff166104a8565b610631856000015161ffff166104a8565b61063b9190610b3d565b9150816301e2850061064d9190610b71565b836106589190610b09565b9250816107b2856000015161066d9190610bcb565b61ffff1661067b9190610b3d565b6301e1338061068a9190610b71565b836106959190610b09565b92506000600191505b600c8260ff1611610715576106b78286600001516104fc565b60ff16620151806106c89190610b71565b90508584826106d79190610b09565b11156106f45781856020019060ff16908160ff1681525050610715565b80846107009190610b09565b9350818061070d90610c32565b92505061069e565b600191505b61072c856020015186600001516104fc565b60ff168260ff1611610789578584620151806107489190610b09565b11156107655781856040019060ff16908160ff1681525050610789565b62015180846107749190610b09565b9350818061078190610c32565b92505061071a565b61079286610283565b856060019060ff16908160ff16815250506107ac866105c8565b856080019060ff16908160ff16815250506107c6866102f6565b8560a0019060ff16908160ff16815250506107e0866102b0565b8560c0019060ff16908160ff168152505050505050919050565b6040518060e00160405280600061ffff168152602001600060ff168152602001600060ff168152602001600060ff168152602001600060ff168152602001600060ff168152602001600060ff1681525090565b600080fd5b6000819050919050565b61086581610852565b811461087057600080fd5b50565b6000813590506108828161085c565b92915050565b60006020828403121561089e5761089d61084d565b5b60006108ac84828501610873565b91505092915050565b600060ff82169050919050565b6108cb816108b5565b82525050565b60006020820190506108e660008301846108c2565b92915050565b600061ffff82169050919050565b610903816108ec565b82525050565b600060208201905061091e60008301846108fa565b92915050565b61092d816108ec565b811461093857600080fd5b50565b60008135905061094a81610924565b92915050565b6000602082840312156109665761096561084d565b5b60006109748482850161093b565b91505092915050565b60008115159050919050565b6109928161097d565b82525050565b60006020820190506109ad6000830184610989565b92915050565b6109bc81610852565b82525050565b60006020820190506109d760008301846109b3565b92915050565b6109e6816108b5565b81146109f157600080fd5b50565b600081359050610a03816109dd565b92915050565b60008060408385031215610a2057610a1f61084d565b5b6000610a2e858286016109f4565b9250506020610a3f8582860161093b565b9150509250929050565b7f4e487b7100000000000000000000000000000000000000000000000000000000600052601260045260246000fd5b7f4e487b7100000000000000000000000000000000000000000000000000000000600052601160045260246000fd5b6000610ab282610852565b9150610abd83610852565b925082610acd57610acc610a49565b5b828204905092915050565b6000610ae382610852565b9150610aee83610852565b925082610afe57610afd610a49565b5b828206905092915050565b6000610b1482610852565b9150610b1f83610852565b9250828201905080821115610b3757610b36610a78565b5b92915050565b6000610b4882610852565b9150610b5383610852565b9250828203905081811115610b6b57610b6a610a78565b5b92915050565b6000610b7c82610852565b9150610b8783610852565b9250817fffffffffffffffffffffffffffffffffffffffffffffffffffffffffffffffff0483118215151615610bc057610bbf610a78565b5b828202905092915050565b6000610bd6826108ec565b9150610be1836108ec565b9250828203905061ffff811115610bfb57610bfa610a78565b5b92915050565b6000610c0c826108ec565b9150610c17836108ec565b925082610c2757610c26610a49565b5b828206905092915050565b6000610c3d826108b5565b915060ff8203610c5057610c4f610a78565b5b60018201905091905056fea26469706673582212203c3e048efdc4ea2e2fd537391d454fd49b8335e84a058dcc904d6d396d42b25e64736f6c63430008100033",
  "immutableReferences": {},
  "source": "// SPDX-License-Identifier: MIT\npragma solidity ^0.8.0;\n\ncontract DateTime {\n        struct _DateTime {\n                uint16 year;\n                uint8 month;\n                uint8 day;\n                uint8 hour;\n                uint8 minute;\n                uint8 second;\n                uint8 weekday;\n        }\n\n        uint constant DAY_IN_SECONDS = 86400;\n        uint constant YEAR_IN_SECONDS = 31536000;\n        uint constant LEAP_YEAR_IN_SECONDS = 31622400;\n        uint constant HOUR_IN_SECONDS = 3600;\n        uint constant MINUTE_IN_SECONDS = 60;\n        uint16 constant ORIGIN_YEAR = 1970;\n\n        function isLeapYear(uint16 year) public pure returns (bool) {\n                if (year % 4 != 0) {\n                        return false;\n                }\n                if (year % 100 != 0) {\n                        return true;\n                }\n                if (year % 400 != 0) {\n                        return false;\n                }\n                return true;\n        }\n\n        function leapYearsBefore(uint year) public pure returns (uint) {\n                year -= 1;\n                return year / 4 - year / 100 + year / 400;\n        }\n\n        function getDaysInMonth(uint8 month, uint16 year) public pure returns (uint8) {\n                if (month == 1 || month == 3 || month == 5 || month == 7 || month == 8 || month == 10 || month == 12) {\n                        return 31;\n                }\n                else if (month == 4 || month == 6 || month == 9 || month == 11) {\n                        return 30;\n                }\n                else if (isLeapYear(year)) {\n                        return 29;\n                }\n                else {\n                        return 28;\n                }\n        }\n\n        function parseTimestamp(uint timestamp) internal pure returns (_DateTime memory dt) {\n                uint secondsAccountedFor = 0;\n                uint buf;\n                uint8 i;\n\n                // Year\n                dt.year = getYear(timestamp);\n                buf = leapYearsBefore(dt.year) - leapYearsBefore(ORIGIN_YEAR);\n\n                secondsAccountedFor += LEAP_YEAR_IN_SECONDS * buf;\n                secondsAccountedFor += YEAR_IN_SECONDS * (dt.year - ORIGIN_YEAR - buf);\n\n                // Month\n                uint secondsInMonth;\n                for (i = 1; i <= 12; i++) {\n                        secondsInMonth = DAY_IN_SECONDS * getDaysInMonth(i, dt.year);\n                        if (secondsInMonth + secondsAccountedFor > timestamp) {\n                                dt.month = i;\n                                break;\n                        }\n                        secondsAccountedFor += secondsInMonth;\n                }\n\n                // Day\n                for (i = 1; i <= getDaysInMonth(dt.month, dt.year); i++) {\n                        if (DAY_IN_SECONDS + secondsAccountedFor > timestamp) {\n                                dt.day = i;\n                                break;\n                        }\n                        secondsAccountedFor += DAY_IN_SECONDS;\n                }\n\n                // Hour\n                dt.hour = getHour(timestamp);\n\n                // Minute\n                dt.minute = getMinute(timestamp);\n\n                // Second\n                dt.second = getSecond(timestamp);\n\n                // Day of week.\n                dt.weekday = getWeekday(timestamp);\n        }\n\n        function getYear(uint timestamp) public pure returns (uint16) {\n                uint secondsAccountedFor = 0;\n                uint16 year;\n                uint numLeapYears;\n\n                // Year\n                year = uint16(ORIGIN_YEAR + timestamp / YEAR_IN_SECONDS);\n                numLeapYears = leapYearsBefore(year) - leapYearsBefore(ORIGIN_YEAR);\n\n                secondsAccountedFor += LEAP_YEAR_IN_SECONDS * numLeapYears;\n                secondsAccountedFor += YEAR_IN_SECONDS * (year - ORIGIN_YEAR - numLeapYears);\n\n                while (secondsAccountedFor > timestamp) {\n                        if (isLeapYear(uint16(year - 1))) {\n                                secondsAccountedFor -= LEAP_YEAR_IN_SECONDS;\n                        }\n                        else {\n                                secondsAccountedFor -= YEAR_IN_SECONDS;\n                        }\n                        year -= 1;\n                }\n                return year;\n        }\n\n        function getMonth(uint timestamp) public pure returns (uint8) {\n                return parseTimestamp(timestamp).month;\n        }\n\n        function getDay(uint timestamp) public pure returns (uint8) {\n                return parseTimestamp(timestamp).day;\n        }\n\n        function getHour(uint timestamp) public pure returns (uint8) {\n                return uint8((timestamp / 60 / 60) % 24);\n        }\n\n        function getMinute(uint timestamp) public pure returns (uint8) {\n                return uint8((timestamp / 60) % 60);\n        }\n\n        function getSecond(uint timestamp) public pure returns (uint8) {\n                return uint8(timestamp % 60);\n        }\n\n        function getWeekday(uint timestamp) public pure returns (uint8) {\n                return uint8((timestamp / DAY_IN_SECONDS + 4) % 7);\n        }\n\n}",
  "sourcePath": "/home/kbi/blockChain_part/levels/levels/Contract/contracts/DateTime.sol",
  "compiler": {
    "name": "solc",
    "version": "0.8.16+commit.07a7930e.Emscripten.clang"
  },
  "schemaVersion": "3.4.9",
  "updatedAt": "2022-10-20T17:15:41.518Z",
  "networkType": "ethereum",
  "devdoc": {
    "kind": "dev",
    "methods": {},
    "version": 1
  },
  "userdoc": {
    "kind": "user",
    "methods": {},
    "version": 1
  }
}