{
  "contractName": "LevelsNFT",
  "abi": [
    {
      "inputs": [
        {
          "internalType": "string",
          "name": "_TOKENURI",
          "type": "string"
        },
        {
          "internalType": "uint256",
          "name": "_TOKENPRICE",
          "type": "uint256"
        }
      ],
      "stateMutability": "nonpayable",
      "type": "constructor"
    },
    {
      "anonymous": false,
      "inputs": [
        {
          "indexed": true,
          "internalType": "address",
          "name": "previousOwner",
          "type": "address"
        },
        {
          "indexed": true,
          "internalType": "address",
          "name": "newOwner",
          "type": "address"
        }
      ],
      "name": "OwnershipTransferred",
      "type": "event"
    },
    {
      "inputs": [],
      "name": "DECIMALS",
      "outputs": [
        {
          "internalType": "uint256",
          "name": "",
          "type": "uint256"
        }
      ],
      "stateMutability": "view",
      "type": "function",
      "constant": true
    },
    {
      "inputs": [],
      "name": "TOKENPRICE",
      "outputs": [
        {
          "internalType": "uint256",
          "name": "",
          "type": "uint256"
        }
      ],
      "stateMutability": "view",
      "type": "function",
      "constant": true
    },
    {
      "inputs": [],
      "name": "TOKENURI",
      "outputs": [
        {
          "internalType": "string",
          "name": "",
          "type": "string"
        }
      ],
      "stateMutability": "view",
      "type": "function",
      "constant": true
    },
    {
      "inputs": [],
      "name": "owner",
      "outputs": [
        {
          "internalType": "address",
          "name": "",
          "type": "address"
        }
      ],
      "stateMutability": "view",
      "type": "function",
      "constant": true
    },
    {
      "inputs": [],
      "name": "renounceOwnership",
      "outputs": [],
      "stateMutability": "nonpayable",
      "type": "function"
    },
    {
      "inputs": [],
      "name": "tokenId",
      "outputs": [
        {
          "internalType": "uint256",
          "name": "",
          "type": "uint256"
        }
      ],
      "stateMutability": "view",
      "type": "function",
      "constant": true
    },
    {
      "inputs": [
        {
          "internalType": "address",
          "name": "newOwner",
          "type": "address"
        }
      ],
      "name": "transferOwnership",
      "outputs": [],
      "stateMutability": "nonpayable",
      "type": "function"
    },
    {
      "inputs": [],
      "name": "getDate",
      "outputs": [
        {
          "internalType": "uint256",
          "name": "",
          "type": "uint256"
        }
      ],
      "stateMutability": "view",
      "type": "function",
      "constant": true
    }
  ],
  "bytecode": "0x60a06040523480156200001157600080fd5b5060405162000e2f38038062000e2f83398181016040528101906200003791906200031b565b620000576200004b6200008160201b60201c565b6200008960201b60201c565b8160019081620000689190620005c2565b50806080818152505060006002819055505050620006a9565b600033905090565b60008060009054906101000a900473ffffffffffffffffffffffffffffffffffffffff169050816000806101000a81548173ffffffffffffffffffffffffffffffffffffffff021916908373ffffffffffffffffffffffffffffffffffffffff1602179055508173ffffffffffffffffffffffffffffffffffffffff168173ffffffffffffffffffffffffffffffffffffffff167f8be0079c531659141344cd1fd0a4f28419497f9722a3daafe3b4186f6b6457e060405160405180910390a35050565b6000604051905090565b600080fd5b600080fd5b600080fd5b600080fd5b6000601f19601f8301169050919050565b7f4e487b7100000000000000000000000000000000000000000000000000000000600052604160045260246000fd5b620001b6826200016b565b810181811067ffffffffffffffff82111715620001d857620001d76200017c565b5b80604052505050565b6000620001ed6200014d565b9050620001fb8282620001ab565b919050565b600067ffffffffffffffff8211156200021e576200021d6200017c565b5b62000229826200016b565b9050602081019050919050565b60005b838110156200025657808201518184015260208101905062000239565b60008484015250505050565b600062000279620002738462000200565b620001e1565b90508281526020810184848401111562000298576200029762000166565b5b620002a584828562000236565b509392505050565b600082601f830112620002c557620002c462000161565b5b8151620002d784826020860162000262565b91505092915050565b6000819050919050565b620002f581620002e0565b81146200030157600080fd5b50565b6000815190506200031581620002ea565b92915050565b6000806040838503121562000335576200033462000157565b5b600083015167ffffffffffffffff8111156200035657620003556200015c565b5b6200036485828601620002ad565b9250506020620003778582860162000304565b9150509250929050565b600081519050919050565b7f4e487b7100000000000000000000000000000000000000000000000000000000600052602260045260246000fd5b60006002820490506001821680620003d457607f821691505b602082108103620003ea57620003e96200038c565b5b50919050565b60008190508160005260206000209050919050565b60006020601f8301049050919050565b600082821b905092915050565b600060088302620004547fffffffffffffffffffffffffffffffffffffffffffffffffffffffffffffffff8262000415565b62000460868362000415565b95508019841693508086168417925050509392505050565b6000819050919050565b6000620004a36200049d6200049784620002e0565b62000478565b620002e0565b9050919050565b6000819050919050565b620004bf8362000482565b620004d7620004ce82620004aa565b84845462000422565b825550505050565b600090565b620004ee620004df565b620004fb818484620004b4565b505050565b5b81811015620005235762000517600082620004e4565b60018101905062000501565b5050565b601f82111562000572576200053c81620003f0565b620005478462000405565b8101602085101562000557578190505b6200056f620005668562000405565b83018262000500565b50505b505050565b600082821c905092915050565b6000620005976000198460080262000577565b1980831691505092915050565b6000620005b2838362000584565b9150826002028217905092915050565b620005cd8262000381565b67ffffffffffffffff811115620005e957620005e86200017c565b5b620005f58254620003bb565b6200060282828562000527565b600060209050601f8311600181146200063a576000841562000625578287015190505b620006318582620005a4565b865550620006a1565b601f1984166200064a86620003f0565b60005b8281101562000674578489015182556001820191506020850194506020810190506200064d565b8683101562000694578489015162000690601f89168262000584565b8355505b6001600288020188555050505b505050505050565b60805161076a620006c560003960006102ca015261076a6000f3fe608060405234801561001057600080fd5b50600436106100885760003560e01c80638da5cb5b1161005b5780638da5cb5b146100f1578063bfc345c41461010f578063f2fde38b1461012d578063fa6f59581461014957610088565b806317d70f7c1461008d5780632e0f2625146100ab578063430fe9c1146100c9578063715018a6146100e7575b600080fd5b610095610167565b6040516100a2919061044f565b60405180910390f35b6100b361016d565b6040516100c0919061044f565b60405180910390f35b6100d1610172565b6040516100de919061044f565b60405180910390f35b6100ef61017a565b005b6100f961018e565b60405161010691906104ab565b60405180910390f35b6101176101b7565b6040516101249190610556565b60405180910390f35b610147600480360381019061014291906105a9565b610245565b005b6101516102c8565b60405161015e919061044f565b60405180910390f35b60025481565b601281565b600042905090565b6101826102ec565b61018c600061036a565b565b60008060009054906101000a900473ffffffffffffffffffffffffffffffffffffffff16905090565b600180546101c490610605565b80601f01602080910402602001604051908101604052809291908181526020018280546101f090610605565b801561023d5780601f106102125761010080835404028352916020019161023d565b820191906000526020600020905b81548152906001019060200180831161022057829003601f168201915b505050505081565b61024d6102ec565b600073ffffffffffffffffffffffffffffffffffffffff168173ffffffffffffffffffffffffffffffffffffffff16036102bc576040517f08c379a00000000000000000000000000000000000000000000000000000000081526004016102b3906106a8565b60405180910390fd5b6102c58161036a565b50565b7f000000000000000000000000000000000000000000000000000000000000000081565b6102f461042e565b73ffffffffffffffffffffffffffffffffffffffff1661031261018e565b73ffffffffffffffffffffffffffffffffffffffff1614610368576040517f08c379a000000000000000000000000000000000000000000000000000000000815260040161035f90610714565b60405180910390fd5b565b60008060009054906101000a900473ffffffffffffffffffffffffffffffffffffffff169050816000806101000a81548173ffffffffffffffffffffffffffffffffffffffff021916908373ffffffffffffffffffffffffffffffffffffffff1602179055508173ffffffffffffffffffffffffffffffffffffffff168173ffffffffffffffffffffffffffffffffffffffff167f8be0079c531659141344cd1fd0a4f28419497f9722a3daafe3b4186f6b6457e060405160405180910390a35050565b600033905090565b6000819050919050565b61044981610436565b82525050565b60006020820190506104646000830184610440565b92915050565b600073ffffffffffffffffffffffffffffffffffffffff82169050919050565b60006104958261046a565b9050919050565b6104a58161048a565b82525050565b60006020820190506104c0600083018461049c565b92915050565b600081519050919050565b600082825260208201905092915050565b60005b838110156105005780820151818401526020810190506104e5565b60008484015250505050565b6000601f19601f8301169050919050565b6000610528826104c6565b61053281856104d1565b93506105428185602086016104e2565b61054b8161050c565b840191505092915050565b60006020820190508181036000830152610570818461051d565b905092915050565b600080fd5b6105868161048a565b811461059157600080fd5b50565b6000813590506105a38161057d565b92915050565b6000602082840312156105bf576105be610578565b5b60006105cd84828501610594565b91505092915050565b7f4e487b7100000000000000000000000000000000000000000000000000000000600052602260045260246000fd5b6000600282049050600182168061061d57607f821691505b6020821081036106305761062f6105d6565b5b50919050565b7f4f776e61626c653a206e6577206f776e657220697320746865207a65726f206160008201527f6464726573730000000000000000000000000000000000000000000000000000602082015250565b60006106926026836104d1565b915061069d82610636565b604082019050919050565b600060208201905081810360008301526106c181610685565b9050919050565b7f4f776e61626c653a2063616c6c6572206973206e6f7420746865206f776e6572600082015250565b60006106fe6020836104d1565b9150610709826106c8565b602082019050919050565b6000602082019050818103600083015261072d816106f1565b905091905056fea26469706673582212205381c3e3b99f44fff8e97de846995b2720230055e0b4f12a1673e71d4891d92a64736f6c63430008100033",
  "immutableReferences": {
    "4855": [
      {
        "length": 32,
        "start": 714
      }
    ]
  },
  "source": "// SPDX-License-Identifier: MIT\npragma solidity ^0.8.0;\nimport \"@openzeppelin/contracts/token/ERC721/ERC721.sol\";\nimport \"@openzeppelin/contracts/utils/Counters.sol\";\nimport \"@openzeppelin/contracts/access/Ownable.sol\";\nimport \"@openzeppelin/contracts/token/ERC721/extensions/ERC721Enumerable.sol\";\n// import \"./interfaces/ERC20Interface.sol\";\n// import \"./JMToken.sol\";\n\ncontract LevelsNFT is Ownable {\n    string public TOKENURI; //  URI \n    uint256 public immutable TOKENPRICE; //   \n    uint256 public tokenId; // TOKEN id \n    uint256 public constant DECIMALS = 18; \n\n    constructor(string memory _TOKENURI, uint256 _TOKENPRICE){\n        TOKENURI = _TOKENURI;\n        TOKENPRICE = _TOKENPRICE;\n        tokenId = 0;\n    }\n\n    function getDate() public view returns(uint256){\n        return block.timestamp;\n    }\n    // function getTest() public view returns(uint256){\n    //     return test;\n    // }\n\n    // function setTest(uint256 _test) public {\n    //     test = _test;\n    // }\n}\n",
  "sourcePath": "/home/kbi/blockChain_part/levels/levels/Contract/contracts/LevelsNFT.sol",
  "compiler": {
    "name": "solc",
    "version": "0.8.16+commit.07a7930e.Emscripten.clang"
  },
  "schemaVersion": "3.4.9",
  "updatedAt": "2022-10-20T17:15:41.499Z",
  "networkType": "ethereum",
  "devdoc": {
    "kind": "dev",
    "methods": {
      "owner()": {
        "details": "Returns the address of the current owner."
      },
      "renounceOwnership()": {
        "details": "Leaves the contract without owner. It will not be possible to call `onlyOwner` functions anymore. Can only be called by the current owner. NOTE: Renouncing ownership will leave the contract without an owner, thereby removing any functionality that is only available to the owner."
      },
      "transferOwnership(address)": {
        "details": "Transfers ownership of the contract to a new account (`newOwner`). Can only be called by the current owner."
      }
    },
    "version": 1
  },
  "userdoc": {
    "kind": "user",
    "methods": {},
    "version": 1
  }
}