{
  "contractName": "Router",
  "abi": [
    {
      "inputs": [],
      "stateMutability": "nonpayable",
      "type": "constructor"
    },
    {
      "anonymous": false,
      "inputs": [
        {
          "indexed": false,
          "internalType": "uint256",
          "name": "APIndex",
          "type": "uint256"
        },
        {
          "indexed": false,
          "internalType": "address",
          "name": "contAddr",
          "type": "address"
        }
      ],
      "name": "CreateNFT",
      "type": "event"
    },
    {
      "anonymous": false,
      "inputs": [
        {
          "indexed": true,
          "internalType": "address",
          "name": "previousOwner",
          "type": "address"
        },
        {
          "indexed": true,
          "internalType": "address",
          "name": "newOwner",
          "type": "address"
        }
      ],
      "name": "OwnershipTransferred",
      "type": "event"
    },
    {
      "inputs": [
        {
          "internalType": "uint256",
          "name": "",
          "type": "uint256"
        }
      ],
      "name": "createdNFT",
      "outputs": [
        {
          "internalType": "contract LevelsNFTFacotry",
          "name": "",
          "type": "address"
        }
      ],
      "stateMutability": "view",
      "type": "function"
    },
    {
      "inputs": [],
      "name": "owner",
      "outputs": [
        {
          "internalType": "address",
          "name": "",
          "type": "address"
        }
      ],
      "stateMutability": "view",
      "type": "function"
    },
    {
      "inputs": [],
      "name": "renounceOwnership",
      "outputs": [],
      "stateMutability": "nonpayable",
      "type": "function"
    },
    {
      "inputs": [
        {
          "internalType": "address",
          "name": "newOwner",
          "type": "address"
        }
      ],
      "name": "transferOwnership",
      "outputs": [],
      "stateMutability": "nonpayable",
      "type": "function"
    },
    {
      "inputs": [
        {
          "internalType": "string",
          "name": "_tokenName",
          "type": "string"
        },
        {
          "internalType": "string",
          "name": "_tokenSymbol",
          "type": "string"
        },
        {
          "internalType": "string",
          "name": "_baseUri",
          "type": "string"
        },
        {
          "internalType": "uint32",
          "name": "_maxSupply",
          "type": "uint32"
        },
        {
          "internalType": "uint256",
          "name": "_mintPrice",
          "type": "uint256"
        },
        {
          "internalType": "uint32",
          "name": "_openTime",
          "type": "uint32"
        },
        {
          "internalType": "uint32",
          "name": "_closeTime",
          "type": "uint32"
        },
        {
          "internalType": "address[]",
          "name": "_withdrawWallet",
          "type": "address[]"
        }
      ],
      "name": "CreateLevelsNFT",
      "outputs": [],
      "stateMutability": "nonpayable",
      "type": "function"
    },
    {
      "inputs": [
        {
          "internalType": "uint256",
          "name": "APIndex",
          "type": "uint256"
        }
      ],
      "name": "_buyNFT",
      "outputs": [],
      "stateMutability": "payable",
      "type": "function"
    },
    {
      "inputs": [
        {
          "internalType": "uint256",
          "name": "APIndex",
          "type": "uint256"
        }
      ],
      "name": "_withdraw",
      "outputs": [],
      "stateMutability": "payable",
      "type": "function"
    },
    {
      "inputs": [
        {
          "internalType": "uint256",
          "name": "APIndex",
          "type": "uint256"
        }
      ],
      "name": "_getWithdraw",
      "outputs": [
        {
          "internalType": "uint256",
          "name": "",
          "type": "uint256"
        }
      ],
      "stateMutability": "view",
      "type": "function"
    },
    {
      "inputs": [
        {
          "internalType": "uint256",
          "name": "APIndex",
          "type": "uint256"
        },
        {
          "internalType": "uint256",
          "name": "tokenId",
          "type": "uint256"
        }
      ],
      "name": "_tokenURI",
      "outputs": [
        {
          "internalType": "string",
          "name": "",
          "type": "string"
        }
      ],
      "stateMutability": "view",
      "type": "function"
    }
  ],
  "bytecode": "0x608060405234801561001057600080fd5b5061002d61002261003260201b60201c565b61003a60201b60201c565b6100fe565b600033905090565b60008060009054906101000a900473ffffffffffffffffffffffffffffffffffffffff169050816000806101000a81548173ffffffffffffffffffffffffffffffffffffffff021916908373ffffffffffffffffffffffffffffffffffffffff1602179055508173ffffffffffffffffffffffffffffffffffffffff168173ffffffffffffffffffffffffffffffffffffffff167f8be0079c531659141344cd1fd0a4f28419497f9722a3daafe3b4186f6b6457e060405160405180910390a35050565b616481806200010e6000396000f3fe608060405260043610620000925760003560e01c8063ac6a2b5d1162000061578063ac6a2b5d1462000169578063c5d65c1b1462000189578063c845ef9614620001cd578063e8a6865d14620001fb578063f2fde38b146200021b5762000092565b806321d3a5ad1462000097578063715018a614620000db57806388fb10d214620000f55780638da5cb5b1462000139575b600080fd5b348015620000a457600080fd5b50620000c36004803603810190620000bd919062000a4e565b62000249565b604051620000d2919062000b2f565b60405180910390f35b348015620000e857600080fd5b50620000f36200031e565b005b3480156200010257600080fd5b506200012160048036038101906200011b919062000b53565b62000336565b60405162000130919062000b96565b60405180910390f35b3480156200014657600080fd5b506200015162000404565b60405162000160919062000bf8565b60405180910390f35b62000187600480360381019062000181919062000b53565b6200042d565b005b3480156200019657600080fd5b50620001b56004803603810190620001af919062000b53565b620004e0565b604051620001c4919062000c80565b60405180910390f35b348015620001da57600080fd5b50620001f96004803603810190620001f3919062000f3b565b62000520565b005b62000219600480360381019062000213919062000b53565b62000762565b005b3480156200022857600080fd5b5062000247600480360381019062000241919062001080565b62000816565b005b6060600060018481548110620002645762000263620010b2565b5b9060005260206000200160009054906101000a900473ffffffffffffffffffffffffffffffffffffffff1673ffffffffffffffffffffffffffffffffffffffff1663c87b56dd846040518263ffffffff1660e01b8152600401620002c9919062000b96565b600060405180830381865afa158015620002e7573d6000803e3d6000fd5b505050506040513d6000823e3d601f19601f820116820180604052508101906200031291906200115f565b90508091505092915050565b62000328620008a0565b62000334600062000925565b565b6000806001838154811062000350576200034f620010b2565b5b9060005260206000200160009054906101000a900473ffffffffffffffffffffffffffffffffffffffff1673ffffffffffffffffffffffffffffffffffffffff16633eca264e336040518263ffffffff1660e01b8152600401620003b5919062000bf8565b602060405180830381865afa158015620003d3573d6000803e3d6000fd5b505050506040513d601f19601f82011682018060405250810190620003f99190620011c7565b905080915050919050565b60008060009054906101000a900473ffffffffffffffffffffffffffffffffffffffff16905090565b60018181548110620004445762000443620010b2565b5b9060005260206000200160009054906101000a900473ffffffffffffffffffffffffffffffffffffffff1673ffffffffffffffffffffffffffffffffffffffff166351cff8d9336040518263ffffffff1660e01b8152600401620004a9919062000bf8565b600060405180830381600087803b158015620004c457600080fd5b505af1158015620004d9573d6000803e3d6000fd5b5050505050565b60018181548110620004f157600080fd5b906000526020600020016000915054906101000a900473ffffffffffffffffffffffffffffffffffffffff1681565b6200052a620008a0565b60006002896040516200053e91906200123b565b908152602001604051809103902060009054906101000a900463ffffffff1663ffffffff1614620005a6576040517f08c379a00000000000000000000000000000000000000000000000000000000081526004016200059d90620012a4565b60405180910390fd5b60008888888888888888604051620005be90620009f1565b620005d1989796959493929190620013a5565b604051809103906000f080158015620005ee573d6000803e3d6000fd5b5090508073ffffffffffffffffffffffffffffffffffffffff166320cfd87c603c6040518263ffffffff1660e01b81526004016200062d919062001492565b600060405180830381600087803b1580156200064857600080fd5b505af11580156200065d573d6000803e3d6000fd5b50505050600160028a6040516200067591906200123b565b908152602001604051809103902060006101000a81548163ffffffff021916908363ffffffff1602179055506001819080600181540180825580915050600190039060005260206000200160009091909190916101000a81548173ffffffffffffffffffffffffffffffffffffffff021916908373ffffffffffffffffffffffffffffffffffffffff160217905550600060018080549050620007199190620014de565b90507f3315f5aac89541740c6ac6ea6718201437e5130485f90f36ad574735dc7f5e2081836040516200074e92919062001519565b60405180910390a150505050505050505050565b60018181548110620007795762000778620010b2565b5b9060005260206000200160009054906101000a900473ffffffffffffffffffffffffffffffffffffffff1673ffffffffffffffffffffffffffffffffffffffff1663ba79b56434336040518363ffffffff1660e01b8152600401620007df919062000bf8565b6000604051808303818588803b158015620007f957600080fd5b505af11580156200080e573d6000803e3d6000fd5b505050505050565b62000820620008a0565b600073ffffffffffffffffffffffffffffffffffffffff168173ffffffffffffffffffffffffffffffffffffffff160362000892576040517f08c379a00000000000000000000000000000000000000000000000000000000081526004016200088990620015bc565b60405180910390fd5b6200089d8162000925565b50565b620008aa620009e9565b73ffffffffffffffffffffffffffffffffffffffff16620008ca62000404565b73ffffffffffffffffffffffffffffffffffffffff161462000923576040517f08c379a00000000000000000000000000000000000000000000000000000000081526004016200091a906200162e565b60405180910390fd5b565b60008060009054906101000a900473ffffffffffffffffffffffffffffffffffffffff169050816000806101000a81548173ffffffffffffffffffffffffffffffffffffffff021916908373ffffffffffffffffffffffffffffffffffffffff1602179055508173ffffffffffffffffffffffffffffffffffffffff168173ffffffffffffffffffffffffffffffffffffffff167f8be0079c531659141344cd1fd0a4f28419497f9722a3daafe3b4186f6b6457e060405160405180910390a35050565b600033905090565b614dfb806200165183390190565b6000604051905090565b600080fd5b600080fd5b6000819050919050565b62000a288162000a13565b811462000a3457600080fd5b50565b60008135905062000a488162000a1d565b92915050565b6000806040838503121562000a685762000a6762000a09565b5b600062000a788582860162000a37565b925050602062000a8b8582860162000a37565b9150509250929050565b600081519050919050565b600082825260208201905092915050565b60005b8381101562000ad157808201518184015260208101905062000ab4565b60008484015250505050565b6000601f19601f8301169050919050565b600062000afb8262000a95565b62000b07818562000aa0565b935062000b1981856020860162000ab1565b62000b248162000add565b840191505092915050565b6000602082019050818103600083015262000b4b818462000aee565b905092915050565b60006020828403121562000b6c5762000b6b62000a09565b5b600062000b7c8482850162000a37565b91505092915050565b62000b908162000a13565b82525050565b600060208201905062000bad600083018462000b85565b92915050565b600073ffffffffffffffffffffffffffffffffffffffff82169050919050565b600062000be08262000bb3565b9050919050565b62000bf28162000bd3565b82525050565b600060208201905062000c0f600083018462000be7565b92915050565b6000819050919050565b600062000c4062000c3a62000c348462000bb3565b62000c15565b62000bb3565b9050919050565b600062000c548262000c1f565b9050919050565b600062000c688262000c47565b9050919050565b62000c7a8162000c5b565b82525050565b600060208201905062000c97600083018462000c6f565b92915050565b600080fd5b600080fd5b7f4e487b7100000000000000000000000000000000000000000000000000000000600052604160045260246000fd5b62000ce18262000add565b810181811067ffffffffffffffff8211171562000d035762000d0262000ca7565b5b80604052505050565b600062000d18620009ff565b905062000d26828262000cd6565b919050565b600067ffffffffffffffff82111562000d495762000d4862000ca7565b5b62000d548262000add565b9050602081019050919050565b82818337600083830152505050565b600062000d8762000d818462000d2b565b62000d0c565b90508281526020810184848401111562000da65762000da562000ca2565b5b62000db384828562000d61565b509392505050565b600082601f83011262000dd35762000dd262000c9d565b5b813562000de584826020860162000d70565b91505092915050565b600063ffffffff82169050919050565b62000e098162000dee565b811462000e1557600080fd5b50565b60008135905062000e298162000dfe565b92915050565b600067ffffffffffffffff82111562000e4d5762000e4c62000ca7565b5b602082029050602081019050919050565b600080fd5b62000e6e8162000bd3565b811462000e7a57600080fd5b50565b60008135905062000e8e8162000e63565b92915050565b600062000eab62000ea58462000e2f565b62000d0c565b9050808382526020820190506020840283018581111562000ed15762000ed062000e5e565b5b835b8181101562000efe578062000ee9888262000e7d565b84526020840193505060208101905062000ed3565b5050509392505050565b600082601f83011262000f205762000f1f62000c9d565b5b813562000f3284826020860162000e94565b91505092915050565b600080600080600080600080610100898b03121562000f5f5762000f5e62000a09565b5b600089013567ffffffffffffffff81111562000f805762000f7f62000a0e565b5b62000f8e8b828c0162000dbb565b985050602089013567ffffffffffffffff81111562000fb25762000fb162000a0e565b5b62000fc08b828c0162000dbb565b975050604089013567ffffffffffffffff81111562000fe45762000fe362000a0e565b5b62000ff28b828c0162000dbb565b9650506060620010058b828c0162000e18565b9550506080620010188b828c0162000a37565b94505060a06200102b8b828c0162000e18565b93505060c06200103e8b828c0162000e18565b92505060e089013567ffffffffffffffff81111562001062576200106162000a0e565b5b620010708b828c0162000f08565b9150509295985092959890939650565b60006020828403121562001099576200109862000a09565b5b6000620010a98482850162000e7d565b91505092915050565b7f4e487b7100000000000000000000000000000000000000000000000000000000600052603260045260246000fd5b6000620010f8620010f28462000d2b565b62000d0c565b90508281526020810184848401111562001117576200111662000ca2565b5b6200112484828562000ab1565b509392505050565b600082601f83011262001144576200114362000c9d565b5b815162001156848260208601620010e1565b91505092915050565b60006020828403121562001178576200117762000a09565b5b600082015167ffffffffffffffff81111562001199576200119862000a0e565b5b620011a7848285016200112c565b91505092915050565b600081519050620011c18162000a1d565b92915050565b600060208284031215620011e057620011df62000a09565b5b6000620011f084828501620011b0565b91505092915050565b600081905092915050565b6000620012118262000a95565b6200121d8185620011f9565b93506200122f81856020860162000ab1565b80840191505092915050565b600062001249828462001204565b915081905092915050565b7f416c726561647920546f6b656e204e616d650000000000000000000000000000600082015250565b60006200128c60128362000aa0565b9150620012998262001254565b602082019050919050565b60006020820190508181036000830152620012bf816200127d565b9050919050565b620012d18162000dee565b82525050565b600081519050919050565b600082825260208201905092915050565b6000819050602082019050919050565b6200130e8162000bd3565b82525050565b600062001322838362001303565b60208301905092915050565b6000602082019050919050565b60006200134882620012d7565b620013548185620012e2565b93506200136183620012f3565b8060005b83811015620013985781516200137c888262001314565b975062001389836200132e565b92505060018101905062001365565b5085935050505092915050565b6000610100820190508181036000830152620013c2818b62000aee565b90508181036020830152620013d8818a62000aee565b90508181036040830152620013ee818962000aee565b9050620013ff6060830188620012c6565b6200140e608083018762000b85565b6200141d60a0830186620012c6565b6200142c60c0830185620012c6565b81810360e08301526200144081846200133b565b90509998505050505050505050565b6000819050919050565b60006200147a620014746200146e846200144f565b62000c15565b62000dee565b9050919050565b6200148c8162001459565b82525050565b6000602082019050620014a9600083018462001481565b92915050565b7f4e487b7100000000000000000000000000000000000000000000000000000000600052601160045260246000fd5b6000620014eb8262000a13565b9150620014f88362000a13565b9250828203905081811115620015135762001512620014af565b5b92915050565b600060408201905062001530600083018562000b85565b6200153f602083018462000be7565b9392505050565b7f4f776e61626c653a206e6577206f776e657220697320746865207a65726f206160008201527f6464726573730000000000000000000000000000000000000000000000000000602082015250565b6000620015a460268362000aa0565b9150620015b18262001546565b604082019050919050565b60006020820190508181036000830152620015d78162001595565b9050919050565b7f4f776e61626c653a2063616c6c6572206973206e6f7420746865206f776e6572600082015250565b60006200161660208362000aa0565b91506200162382620015de565b602082019050919050565b60006020820190508181036000830152620016498162001607565b905091905056fe60e06040523480156200001157600080fd5b5060405162004dfb38038062004dfb833981810160405281019062000037919062000653565b8787620000596200004d6200023860201b60201c565b6200024060201b60201c565b81600190816200006a9190620009d9565b5080600290816200007c9190620009d9565b50505060008563ffffffff1660a08163ffffffff168152505086600c9081620000a69190620009d9565b50846080818152505083600e60000160006101000a81548163ffffffff021916908363ffffffff16021790555082600e60000160046101000a81548163ffffffff021916908363ffffffff16021790555060005b82518163ffffffff1610156200021457828163ffffffff168151811062000126576200012562000ac0565b5b6020026020010151600f60008363ffffffff16815260200190815260200160002060006101000a81548173ffffffffffffffffffffffffffffffffffffffff021916908373ffffffffffffffffffffffffffffffffffffffff160217905550600060106000858463ffffffff1681518110620001a757620001a662000ac0565b5b602002602001015173ffffffffffffffffffffffffffffffffffffffff1673ffffffffffffffffffffffffffffffffffffffff16815260200190815260200160002081905550600182620001fc919062000b1e565b915080806200020b9062000b5d565b915050620000fa565b508063ffffffff1660c08163ffffffff168152505050505050505050505062000b8e565b600033905090565b60008060009054906101000a900473ffffffffffffffffffffffffffffffffffffffff169050816000806101000a81548173ffffffffffffffffffffffffffffffffffffffff021916908373ffffffffffffffffffffffffffffffffffffffff1602179055508173ffffffffffffffffffffffffffffffffffffffff168173ffffffffffffffffffffffffffffffffffffffff167f8be0079c531659141344cd1fd0a4f28419497f9722a3daafe3b4186f6b6457e060405160405180910390a35050565b6000604051905090565b600080fd5b600080fd5b600080fd5b600080fd5b6000601f19601f8301169050919050565b7f4e487b7100000000000000000000000000000000000000000000000000000000600052604160045260246000fd5b6200036d8262000322565b810181811067ffffffffffffffff821117156200038f576200038e62000333565b5b80604052505050565b6000620003a462000304565b9050620003b2828262000362565b919050565b600067ffffffffffffffff821115620003d557620003d462000333565b5b620003e08262000322565b9050602081019050919050565b60005b838110156200040d578082015181840152602081019050620003f0565b60008484015250505050565b6000620004306200042a84620003b7565b62000398565b9050828152602081018484840111156200044f576200044e6200031d565b5b6200045c848285620003ed565b509392505050565b600082601f8301126200047c576200047b62000318565b5b81516200048e84826020860162000419565b91505092915050565b600063ffffffff82169050919050565b620004b28162000497565b8114620004be57600080fd5b50565b600081519050620004d281620004a7565b92915050565b6000819050919050565b620004ed81620004d8565b8114620004f957600080fd5b50565b6000815190506200050d81620004e2565b92915050565b600067ffffffffffffffff82111562000531576200053062000333565b5b602082029050602081019050919050565b600080fd5b600073ffffffffffffffffffffffffffffffffffffffff82169050919050565b6000620005748262000547565b9050919050565b620005868162000567565b81146200059257600080fd5b50565b600081519050620005a6816200057b565b92915050565b6000620005c3620005bd8462000513565b62000398565b90508083825260208201905060208402830185811115620005e957620005e862000542565b5b835b8181101562000616578062000601888262000595565b845260208401935050602081019050620005eb565b5050509392505050565b600082601f83011262000638576200063762000318565b5b81516200064a848260208601620005ac565b91505092915050565b600080600080600080600080610100898b0312156200067757620006766200030e565b5b600089015167ffffffffffffffff81111562000698576200069762000313565b5b620006a68b828c0162000464565b985050602089015167ffffffffffffffff811115620006ca57620006c962000313565b5b620006d88b828c0162000464565b975050604089015167ffffffffffffffff811115620006fc57620006fb62000313565b5b6200070a8b828c0162000464565b96505060606200071d8b828c01620004c1565b9550506080620007308b828c01620004fc565b94505060a0620007438b828c01620004c1565b93505060c0620007568b828c01620004c1565b92505060e089015167ffffffffffffffff8111156200077a576200077962000313565b5b620007888b828c0162000620565b9150509295985092959890939650565b600081519050919050565b7f4e487b7100000000000000000000000000000000000000000000000000000000600052602260045260246000fd5b60006002820490506001821680620007eb57607f821691505b602082108103620008015762000800620007a3565b5b50919050565b60008190508160005260206000209050919050565b60006020601f8301049050919050565b600082821b905092915050565b6000600883026200086b7fffffffffffffffffffffffffffffffffffffffffffffffffffffffffffffffff826200082c565b6200087786836200082c565b95508019841693508086168417925050509392505050565b6000819050919050565b6000620008ba620008b4620008ae84620004d8565b6200088f565b620004d8565b9050919050565b6000819050919050565b620008d68362000899565b620008ee620008e582620008c1565b84845462000839565b825550505050565b600090565b62000905620008f6565b62000912818484620008cb565b505050565b5b818110156200093a576200092e600082620008fb565b60018101905062000918565b5050565b601f8211156200098957620009538162000807565b6200095e846200081c565b810160208510156200096e578190505b620009866200097d856200081c565b83018262000917565b50505b505050565b600082821c905092915050565b6000620009ae600019846008026200098e565b1980831691505092915050565b6000620009c983836200099b565b9150826002028217905092915050565b620009e48262000798565b67ffffffffffffffff81111562000a0057620009ff62000333565b5b62000a0c8254620007d2565b62000a198282856200093e565b600060209050601f83116001811462000a51576000841562000a3c578287015190505b62000a488582620009bb565b86555062000ab8565b601f19841662000a618662000807565b60005b8281101562000a8b5784890151825560018201915060208501945060208101905062000a64565b8683101562000aab578489015162000aa7601f8916826200099b565b8355505b6001600288020188555050505b505050505050565b7f4e487b7100000000000000000000000000000000000000000000000000000000600052603260045260246000fd5b7f4e487b7100000000000000000000000000000000000000000000000000000000600052601160045260246000fd5b600062000b2b8262000497565b915062000b388362000497565b9250828201905063ffffffff81111562000b575762000b5662000aef565b5b92915050565b600062000b6a8262000497565b915063ffffffff820362000b835762000b8262000aef565b5b600182019050919050565b60805160a05160c05161420c62000bef600039600081816111280152818161177d01526117d40152600081816114390152611972015260008181611039015281816113ce015281816116260152818161165001526117a4015261420c6000f3fe6080604052600436106101d85760003560e01c806370a0823111610102578063b8158d6011610095578063d5abeb0111610064578063d5abeb01146106d8578063e985e9c514610703578063f2fde38b14610740578063f864e1d414610769576101d8565b8063b8158d601461062a578063b88d4fde14610656578063ba79b5641461067f578063c87b56dd1461069b576101d8565b80638da5cb5b116100d15780638da5cb5b1461058057806395d89b41146105ab5780639abc8320146105d6578063a22cb46514610601576101d8565b806370a08231146104c4578063715018a6146105015780638628993f146105185780638cca5a3f14610543576101d8565b806323b872dd1161017a5780634f6ccce7116101495780634f6ccce7146103f657806351cff8d9146104335780636352211e1461045c5780636817c76c14610499576101d8565b806323b872dd1461032a5780632f745c59146103535780633eca264e1461039057806342842e0e146103cd576101d8565b8063095ea7b3116101b6578063095ea7b31461028257806311ad67be146102ab57806318160ddd146102d657806320cfd87c14610301576101d8565b806301ffc9a7146101dd57806306fdde031461021a578063081812fc14610245575b600080fd5b3480156101e957600080fd5b5061020460048036038101906101ff9190612c6e565b6107a6565b6040516102119190612cb6565b60405180910390f35b34801561022657600080fd5b5061022f610820565b60405161023c9190612d61565b60405180910390f35b34801561025157600080fd5b5061026c60048036038101906102679190612db9565b6108b2565b6040516102799190612e27565b60405180910390f35b34801561028e57600080fd5b506102a960048036038101906102a49190612e6e565b6108f8565b005b3480156102b757600080fd5b506102c0610a0f565b6040516102cd9190612ecd565b60405180910390f35b3480156102e257600080fd5b506102eb610a25565b6040516102f89190612ef7565b60405180910390f35b34801561030d57600080fd5b5061032860048036038101906103239190612f3e565b610a32565b005b34801561033657600080fd5b50610351600480360381019061034c9190612f6b565b610ab1565b005b34801561035f57600080fd5b5061037a60048036038101906103759190612e6e565b610b11565b6040516103879190612ef7565b60405180910390f35b34801561039c57600080fd5b506103b760048036038101906103b29190612fbe565b610bb6565b6040516103c49190612ef7565b60405180910390f35b3480156103d957600080fd5b506103f460048036038101906103ef9190612f6b565b610c76565b005b34801561040257600080fd5b5061041d60048036038101906104189190612db9565b610c96565b60405161042a9190612ef7565b60405180910390f35b34801561043f57600080fd5b5061045a60048036038101906104559190612fbe565b610d07565b005b34801561046857600080fd5b50610483600480360381019061047e9190612db9565b610f86565b6040516104909190612e27565b60405180910390f35b3480156104a557600080fd5b506104ae611037565b6040516104bb9190612ef7565b60405180910390f35b3480156104d057600080fd5b506104eb60048036038101906104e69190612fbe565b61105b565b6040516104f89190612ef7565b60405180910390f35b34801561050d57600080fd5b50610516611112565b005b34801561052457600080fd5b5061052d611126565b60405161053a9190612ecd565b60405180910390f35b34801561054f57600080fd5b5061056a60048036038101906105659190612fbe565b61114a565b6040516105779190612ef7565b60405180910390f35b34801561058c57600080fd5b50610595611162565b6040516105a29190612e27565b60405180910390f35b3480156105b757600080fd5b506105c061118b565b6040516105cd9190612d61565b60405180910390f35b3480156105e257600080fd5b506105eb61121d565b6040516105f89190612d61565b60405180910390f35b34801561060d57600080fd5b5061062860048036038101906106239190613017565b6112ab565b005b34801561063657600080fd5b5061063f6112c1565b60405161064d929190613057565b60405180910390f35b34801561066257600080fd5b5061067d600480360381019061067891906131b5565b6112f3565b005b61069960048036038101906106949190612fbe565b611355565b005b3480156106a757600080fd5b506106c260048036038101906106bd9190612db9565b611950565b6040516106cf9190612d61565b60405180910390f35b3480156106e457600080fd5b506106ed611970565b6040516106fa9190612ecd565b60405180910390f35b34801561070f57600080fd5b5061072a60048036038101906107259190613238565b611994565b6040516107379190612cb6565b60405180910390f35b34801561074c57600080fd5b5061076760048036038101906107629190612fbe565b611a28565b005b34801561077557600080fd5b50610790600480360381019061078b9190612db9565b611aab565b60405161079d9190612e27565b60405180910390f35b60007f780e9d63000000000000000000000000000000000000000000000000000000007bffffffffffffffffffffffffffffffffffffffffffffffffffffffff1916827bffffffffffffffffffffffffffffffffffffffffffffffffffffffff19161480610819575061081882611ade565b5b9050919050565b60606001805461082f906132a7565b80601f016020809104026020016040519081016040528092919081815260200182805461085b906132a7565b80156108a85780601f1061087d576101008083540402835291602001916108a8565b820191906000526020600020905b81548152906001019060200180831161088b57829003601f168201915b5050505050905090565b60006108bd82611bc0565b6005600083815260200190815260200160002060009054906101000a900473ffffffffffffffffffffffffffffffffffffffff169050919050565b600061090382610f86565b90508073ffffffffffffffffffffffffffffffffffffffff168373ffffffffffffffffffffffffffffffffffffffff1603610973576040517f08c379a000000000000000000000000000000000000000000000000000000000815260040161096a9061334a565b60405180910390fd5b8073ffffffffffffffffffffffffffffffffffffffff16610992611c0b565b73ffffffffffffffffffffffffffffffffffffffff1614806109c157506109c0816109bb611c0b565b611994565b5b610a00576040517f08c379a00000000000000000000000000000000000000000000000000000000081526004016109f7906133dc565b60405180910390fd5b610a0a8383611c13565b505050565b600d60009054906101000a900463ffffffff1681565b6000600980549050905090565b6000600d60009054906101000a900463ffffffff1663ffffffff1614610a8d576040517f08c379a0000000000000000000000000000000000000000000000000000000008152600401610a8490613448565b60405180910390fd5b80600d60006101000a81548163ffffffff021916908363ffffffff16021790555050565b610ac2610abc611c0b565b82611ccc565b610b01576040517f08c379a0000000000000000000000000000000000000000000000000000000008152600401610af8906134da565b60405180910390fd5b610b0c838383611d61565b505050565b6000610b1c8361105b565b8210610b5d576040517f08c379a0000000000000000000000000000000000000000000000000000000008152600401610b549061356c565b60405180910390fd5b600760008473ffffffffffffffffffffffffffffffffffffffff1673ffffffffffffffffffffffffffffffffffffffff168152602001908152602001600020600083815260200190815260200160002054905092915050565b6000610bc0611fc7565b600073ffffffffffffffffffffffffffffffffffffffff168273ffffffffffffffffffffffffffffffffffffffff1603610c2f576040517f08c379a0000000000000000000000000000000000000000000000000000000008152600401610c26906135d8565b60405180910390fd5b601060008373ffffffffffffffffffffffffffffffffffffffff1673ffffffffffffffffffffffffffffffffffffffff168152602001908152602001600020549050919050565b610c91838383604051806020016040528060008152506112f3565b505050565b6000610ca0610a25565b8210610ce1576040517f08c379a0000000000000000000000000000000000000000000000000000000008152600401610cd89061366a565b60405180910390fd5b60098281548110610cf557610cf461368a565b5b90600052602060002001549050919050565b610d0f611fc7565b600073ffffffffffffffffffffffffffffffffffffffff168173ffffffffffffffffffffffffffffffffffffffff1603610d7e576040517f08c379a0000000000000000000000000000000000000000000000000000000008152600401610d75906135d8565b60405180910390fd5b6000601060008373ffffffffffffffffffffffffffffffffffffffff1673ffffffffffffffffffffffffffffffffffffffff1681526020019081526020016000205411610e00576040517f08c379a0000000000000000000000000000000000000000000000000000000008152600401610df790613705565b60405180910390fd5b6000601060008373ffffffffffffffffffffffffffffffffffffffff1673ffffffffffffffffffffffffffffffffffffffff16815260200190815260200160002054905060008273ffffffffffffffffffffffffffffffffffffffff1682604051610e6a90613756565b60006040518083038185875af1925050503d8060008114610ea7576040519150601f19603f3d011682016040523d82523d6000602084013e610eac565b606091505b5050905080610ef0576040517f08c379a0000000000000000000000000000000000000000000000000000000008152600401610ee7906137b7565b60405180910390fd5b601060008473ffffffffffffffffffffffffffffffffffffffff1673ffffffffffffffffffffffffffffffffffffffff168152602001908152602001600020600090558273ffffffffffffffffffffffffffffffffffffffff167f5dba113b49cfa7c90315e8e604e6b506f7abcb909b01dcb19ec39005086e68fc83604051610f799190612ef7565b60405180910390a2505050565b6000806003600084815260200190815260200160002060009054906101000a900473ffffffffffffffffffffffffffffffffffffffff169050600073ffffffffffffffffffffffffffffffffffffffff168173ffffffffffffffffffffffffffffffffffffffff160361102e576040517f08c379a000000000000000000000000000000000000000000000000000000000815260040161102590613823565b60405180910390fd5b80915050919050565b7f000000000000000000000000000000000000000000000000000000000000000081565b60008073ffffffffffffffffffffffffffffffffffffffff168273ffffffffffffffffffffffffffffffffffffffff16036110cb576040517f08c379a00000000000000000000000000000000000000000000000000000000081526004016110c2906138b5565b60405180910390fd5b600460008373ffffffffffffffffffffffffffffffffffffffff1673ffffffffffffffffffffffffffffffffffffffff168152602001908152602001600020549050919050565b61111a611fc7565b6111246000612045565b565b7f000000000000000000000000000000000000000000000000000000000000000081565b60106020528060005260406000206000915090505481565b60008060009054906101000a900473ffffffffffffffffffffffffffffffffffffffff16905090565b60606002805461119a906132a7565b80601f01602080910402602001604051908101604052809291908181526020018280546111c6906132a7565b80156112135780601f106111e857610100808354040283529160200191611213565b820191906000526020600020905b8154815290600101906020018083116111f657829003601f168201915b5050505050905090565b600c805461122a906132a7565b80601f0160208091040260200160405190810160405280929190818152602001828054611256906132a7565b80156112a35780601f10611278576101008083540402835291602001916112a3565b820191906000526020600020905b81548152906001019060200180831161128657829003601f168201915b505050505081565b6112bd6112b6611c0b565b8383612109565b5050565b600e8060000160009054906101000a900463ffffffff16908060000160049054906101000a900463ffffffff16905082565b6113046112fe611c0b565b83611ccc565b611343576040517f08c379a000000000000000000000000000000000000000000000000000000000815260040161133a906134da565b60405180910390fd5b61134f84848484612275565b50505050565b61135d611fc7565b600073ffffffffffffffffffffffffffffffffffffffff168173ffffffffffffffffffffffffffffffffffffffff16036113cc576040517f08c379a00000000000000000000000000000000000000000000000000000000081526004016113c3906135d8565b60405180910390fd5b7f000000000000000000000000000000000000000000000000000000000000000034101561142f576040517f08c379a000000000000000000000000000000000000000000000000000000000815260040161142690613921565b60405180910390fd5b611437610a25565b7f000000000000000000000000000000000000000000000000000000000000000063ffffffff161161149e576040517f08c379a00000000000000000000000000000000000000000000000000000000081526004016114959061398d565b60405180910390fd5b600e60000160009054906101000a900463ffffffff1663ffffffff164210156114fc576040517f08c379a00000000000000000000000000000000000000000000000000000000081526004016114f3906139f9565b60405180910390fd5b600e60000160049054906101000a900463ffffffff1663ffffffff164211158061154157506000600e60000160049054906101000a900463ffffffff1663ffffffff16145b611580576040517f08c379a000000000000000000000000000000000000000000000000000000000815260040161157790613a65565b60405180910390fd5b42600d60009054906101000a900463ffffffff1663ffffffff16601160008473ffffffffffffffffffffffffffffffffffffffff1673ffffffffffffffffffffffffffffffffffffffff168152602001908152602001600020546115e49190613ab4565b10611624576040517f08c379a000000000000000000000000000000000000000000000000000000000815260040161161b90613b34565b60405180910390fd5b7f00000000000000000000000000000000000000000000000000000000000000003411156117795760007f00000000000000000000000000000000000000000000000000000000000000003461167a9190613b54565b905060008273ffffffffffffffffffffffffffffffffffffffff16826040516116a290613756565b60006040518083038185875af1925050503d80600081146116df576040519150601f19603f3d011682016040523d82523d6000602084013e6116e4565b606091505b5050905080611728576040517f08c379a000000000000000000000000000000000000000000000000000000000815260040161171f90613bd4565b60405180910390fd5b8273ffffffffffffffffffffffffffffffffffffffff167fbf0dcf0c4ac645dc5c9b98bd101968a06639d2e4158bc1e3df071447858c100f8360405161176e9190612ef7565b60405180910390a250505b60007f000000000000000000000000000000000000000000000000000000000000000063ffffffff167f00000000000000000000000000000000000000000000000000000000000000006117cd9190613c23565b905060005b7f000000000000000000000000000000000000000000000000000000000000000063ffffffff168110156118a2576000600f600083815260200190815260200160002060009054906101000a900473ffffffffffffffffffffffffffffffffffffffff16905082601060008373ffffffffffffffffffffffffffffffffffffffff1673ffffffffffffffffffffffffffffffffffffffff16815260200190815260200160002060008282546118879190613ab4565b9250508190555050808061189a90613c54565b9150506117d2565b506118ad600b6122d1565b60006118b9600b6122e7565b90506118c583826122f5565b42601160008573ffffffffffffffffffffffffffffffffffffffff1673ffffffffffffffffffffffffffffffffffffffff16815260200190815260200160002081905550807f41840434e06a0a874b742acd46e5c9de468e84c06e8f712572b72eca16fe7f7e8461193584611950565b604051611943929190613c9c565b60405180910390a2505050565b606061195b82611bc0565b60006119656124ce565b905080915050919050565b7f000000000000000000000000000000000000000000000000000000000000000081565b6000600660008473ffffffffffffffffffffffffffffffffffffffff1673ffffffffffffffffffffffffffffffffffffffff16815260200190815260200160002060008373ffffffffffffffffffffffffffffffffffffffff1673ffffffffffffffffffffffffffffffffffffffff16815260200190815260200160002060009054906101000a900460ff16905092915050565b611a30611fc7565b600073ffffffffffffffffffffffffffffffffffffffff168173ffffffffffffffffffffffffffffffffffffffff1603611a9f576040517f08c379a0000000000000000000000000000000000000000000000000000000008152600401611a9690613d3e565b60405180910390fd5b611aa881612045565b50565b600f6020528060005260406000206000915054906101000a900473ffffffffffffffffffffffffffffffffffffffff1681565b60007f80ac58cd000000000000000000000000000000000000000000000000000000007bffffffffffffffffffffffffffffffffffffffffffffffffffffffff1916827bffffffffffffffffffffffffffffffffffffffffffffffffffffffff19161480611ba957507f5b5e139f000000000000000000000000000000000000000000000000000000007bffffffffffffffffffffffffffffffffffffffffffffffffffffffff1916827bffffffffffffffffffffffffffffffffffffffffffffffffffffffff1916145b80611bb95750611bb882612560565b5b9050919050565b611bc9816125ca565b611c08576040517f08c379a0000000000000000000000000000000000000000000000000000000008152600401611bff90613823565b60405180910390fd5b50565b600033905090565b816005600083815260200190815260200160002060006101000a81548173ffffffffffffffffffffffffffffffffffffffff021916908373ffffffffffffffffffffffffffffffffffffffff160217905550808273ffffffffffffffffffffffffffffffffffffffff16611c8683610f86565b73ffffffffffffffffffffffffffffffffffffffff167f8c5be1e5ebec7d5bd14f71427d1e84f3dd0314c0f7b2291e5b200ac8c7c3b92560405160405180910390a45050565b600080611cd883610f86565b90508073ffffffffffffffffffffffffffffffffffffffff168473ffffffffffffffffffffffffffffffffffffffff161480611d1a5750611d198185611994565b5b80611d5857508373ffffffffffffffffffffffffffffffffffffffff16611d40846108b2565b73ffffffffffffffffffffffffffffffffffffffff16145b91505092915050565b8273ffffffffffffffffffffffffffffffffffffffff16611d8182610f86565b73ffffffffffffffffffffffffffffffffffffffff1614611dd7576040517f08c379a0000000000000000000000000000000000000000000000000000000008152600401611dce90613dd0565b60405180910390fd5b600073ffffffffffffffffffffffffffffffffffffffff168273ffffffffffffffffffffffffffffffffffffffff1603611e46576040517f08c379a0000000000000000000000000000000000000000000000000000000008152600401611e3d90613e62565b60405180910390fd5b611e51838383612636565b611e5c600082611c13565b6001600460008573ffffffffffffffffffffffffffffffffffffffff1673ffffffffffffffffffffffffffffffffffffffff1681526020019081526020016000206000828254611eac9190613b54565b925050819055506001600460008473ffffffffffffffffffffffffffffffffffffffff1673ffffffffffffffffffffffffffffffffffffffff1681526020019081526020016000206000828254611f039190613ab4565b92505081905550816003600083815260200190815260200160002060006101000a81548173ffffffffffffffffffffffffffffffffffffffff021916908373ffffffffffffffffffffffffffffffffffffffff160217905550808273ffffffffffffffffffffffffffffffffffffffff168473ffffffffffffffffffffffffffffffffffffffff167fddf252ad1be2c89b69c2b068fc378daa952ba7f163c4a11628f55a4df523b3ef60405160405180910390a4611fc2838383612748565b505050565b611fcf611c0b565b73ffffffffffffffffffffffffffffffffffffffff16611fed611162565b73ffffffffffffffffffffffffffffffffffffffff1614612043576040517f08c379a000000000000000000000000000000000000000000000000000000000815260040161203a90613ece565b60405180910390fd5b565b60008060009054906101000a900473ffffffffffffffffffffffffffffffffffffffff169050816000806101000a81548173ffffffffffffffffffffffffffffffffffffffff021916908373ffffffffffffffffffffffffffffffffffffffff1602179055508173ffffffffffffffffffffffffffffffffffffffff168173ffffffffffffffffffffffffffffffffffffffff167f8be0079c531659141344cd1fd0a4f28419497f9722a3daafe3b4186f6b6457e060405160405180910390a35050565b8173ffffffffffffffffffffffffffffffffffffffff168373ffffffffffffffffffffffffffffffffffffffff1603612177576040517f08c379a000000000000000000000000000000000000000000000000000000000815260040161216e90613f3a565b60405180910390fd5b80600660008573ffffffffffffffffffffffffffffffffffffffff1673ffffffffffffffffffffffffffffffffffffffff16815260200190815260200160002060008473ffffffffffffffffffffffffffffffffffffffff1673ffffffffffffffffffffffffffffffffffffffff16815260200190815260200160002060006101000a81548160ff0219169083151502179055508173ffffffffffffffffffffffffffffffffffffffff168373ffffffffffffffffffffffffffffffffffffffff167f17307eab39ab6107e8899845ad3d59bd9653f200f220920489ca2b5937696c31836040516122689190612cb6565b60405180910390a3505050565b612280848484611d61565b61228c8484848461274d565b6122cb576040517f08c379a00000000000000000000000000000000000000000000000000000000081526004016122c290613fcc565b60405180910390fd5b50505050565b6001816000016000828254019250508190555050565b600081600001549050919050565b600073ffffffffffffffffffffffffffffffffffffffff168273ffffffffffffffffffffffffffffffffffffffff1603612364576040517f08c379a000000000000000000000000000000000000000000000000000000000815260040161235b90614038565b60405180910390fd5b61236d816125ca565b156123ad576040517f08c379a00000000000000000000000000000000000000000000000000000000081526004016123a4906140a4565b60405180910390fd5b6123b960008383612636565b6001600460008473ffffffffffffffffffffffffffffffffffffffff1673ffffffffffffffffffffffffffffffffffffffff16815260200190815260200160002060008282546124099190613ab4565b92505081905550816003600083815260200190815260200160002060006101000a81548173ffffffffffffffffffffffffffffffffffffffff021916908373ffffffffffffffffffffffffffffffffffffffff160217905550808273ffffffffffffffffffffffffffffffffffffffff16600073ffffffffffffffffffffffffffffffffffffffff167fddf252ad1be2c89b69c2b068fc378daa952ba7f163c4a11628f55a4df523b3ef60405160405180910390a46124ca60008383612748565b5050565b6060600c80546124dd906132a7565b80601f0160208091040260200160405190810160405280929190818152602001828054612509906132a7565b80156125565780601f1061252b57610100808354040283529160200191612556565b820191906000526020600020905b81548152906001019060200180831161253957829003601f168201915b5050505050905090565b60007f01ffc9a7000000000000000000000000000000000000000000000000000000007bffffffffffffffffffffffffffffffffffffffffffffffffffffffff1916827bffffffffffffffffffffffffffffffffffffffffffffffffffffffff1916149050919050565b60008073ffffffffffffffffffffffffffffffffffffffff166003600084815260200190815260200160002060009054906101000a900473ffffffffffffffffffffffffffffffffffffffff1673ffffffffffffffffffffffffffffffffffffffff1614159050919050565b6126418383836128d4565b600073ffffffffffffffffffffffffffffffffffffffff168373ffffffffffffffffffffffffffffffffffffffff16036126835761267e816128d9565b6126c2565b8173ffffffffffffffffffffffffffffffffffffffff168373ffffffffffffffffffffffffffffffffffffffff16146126c1576126c08382612922565b5b5b600073ffffffffffffffffffffffffffffffffffffffff168273ffffffffffffffffffffffffffffffffffffffff1603612704576126ff81612a8f565b612743565b8273ffffffffffffffffffffffffffffffffffffffff168273ffffffffffffffffffffffffffffffffffffffff1614612742576127418282612b60565b5b5b505050565b505050565b600061276e8473ffffffffffffffffffffffffffffffffffffffff16612bdf565b156128c7578373ffffffffffffffffffffffffffffffffffffffff1663150b7a02612797611c0b565b8786866040518563ffffffff1660e01b81526004016127b99493929190614119565b6020604051808303816000875af19250505080156127f557506040513d601f19601f820116820180604052508101906127f2919061417a565b60015b612877573d8060008114612825576040519150601f19603f3d011682016040523d82523d6000602084013e61282a565b606091505b50600081510361286f576040517f08c379a000000000000000000000000000000000000000000000000000000000815260040161286690613fcc565b60405180910390fd5b805181602001fd5b63150b7a0260e01b7bffffffffffffffffffffffffffffffffffffffffffffffffffffffff1916817bffffffffffffffffffffffffffffffffffffffffffffffffffffffff1916149150506128cc565b600190505b949350505050565b505050565b600980549050600a600083815260200190815260200160002081905550600981908060018154018082558091505060019003906000526020600020016000909190919091505550565b6000600161292f8461105b565b6129399190613b54565b9050600060086000848152602001908152602001600020549050818114612a1e576000600760008673ffffffffffffffffffffffffffffffffffffffff1673ffffffffffffffffffffffffffffffffffffffff168152602001908152602001600020600084815260200190815260200160002054905080600760008773ffffffffffffffffffffffffffffffffffffffff1673ffffffffffffffffffffffffffffffffffffffff168152602001908152602001600020600084815260200190815260200160002081905550816008600083815260200190815260200160002081905550505b6008600084815260200190815260200160002060009055600760008573ffffffffffffffffffffffffffffffffffffffff1673ffffffffffffffffffffffffffffffffffffffff16815260200190815260200160002060008381526020019081526020016000206000905550505050565b60006001600980549050612aa39190613b54565b90506000600a6000848152602001908152602001600020549050600060098381548110612ad357612ad261368a565b5b906000526020600020015490508060098381548110612af557612af461368a565b5b906000526020600020018190555081600a600083815260200190815260200160002081905550600a6000858152602001908152602001600020600090556009805480612b4457612b436141a7565b5b6001900381819060005260206000200160009055905550505050565b6000612b6b8361105b565b905081600760008573ffffffffffffffffffffffffffffffffffffffff1673ffffffffffffffffffffffffffffffffffffffff168152602001908152602001600020600083815260200190815260200160002081905550806008600084815260200190815260200160002081905550505050565b6000808273ffffffffffffffffffffffffffffffffffffffff163b119050919050565b6000604051905090565b600080fd5b600080fd5b60007fffffffff0000000000000000000000000000000000000000000000000000000082169050919050565b612c4b81612c16565b8114612c5657600080fd5b50565b600081359050612c6881612c42565b92915050565b600060208284031215612c8457612c83612c0c565b5b6000612c9284828501612c59565b91505092915050565b60008115159050919050565b612cb081612c9b565b82525050565b6000602082019050612ccb6000830184612ca7565b92915050565b600081519050919050565b600082825260208201905092915050565b60005b83811015612d0b578082015181840152602081019050612cf0565b60008484015250505050565b6000601f19601f8301169050919050565b6000612d3382612cd1565b612d3d8185612cdc565b9350612d4d818560208601612ced565b612d5681612d17565b840191505092915050565b60006020820190508181036000830152612d7b8184612d28565b905092915050565b6000819050919050565b612d9681612d83565b8114612da157600080fd5b50565b600081359050612db381612d8d565b92915050565b600060208284031215612dcf57612dce612c0c565b5b6000612ddd84828501612da4565b91505092915050565b600073ffffffffffffffffffffffffffffffffffffffff82169050919050565b6000612e1182612de6565b9050919050565b612e2181612e06565b82525050565b6000602082019050612e3c6000830184612e18565b92915050565b612e4b81612e06565b8114612e5657600080fd5b50565b600081359050612e6881612e42565b92915050565b60008060408385031215612e8557612e84612c0c565b5b6000612e9385828601612e59565b9250506020612ea485828601612da4565b9150509250929050565b600063ffffffff82169050919050565b612ec781612eae565b82525050565b6000602082019050612ee26000830184612ebe565b92915050565b612ef181612d83565b82525050565b6000602082019050612f0c6000830184612ee8565b92915050565b612f1b81612eae565b8114612f2657600080fd5b50565b600081359050612f3881612f12565b92915050565b600060208284031215612f5457612f53612c0c565b5b6000612f6284828501612f29565b91505092915050565b600080600060608486031215612f8457612f83612c0c565b5b6000612f9286828701612e59565b9350506020612fa386828701612e59565b9250506040612fb486828701612da4565b9150509250925092565b600060208284031215612fd457612fd3612c0c565b5b6000612fe284828501612e59565b91505092915050565b612ff481612c9b565b8114612fff57600080fd5b50565b60008135905061301181612feb565b92915050565b6000806040838503121561302e5761302d612c0c565b5b600061303c85828601612e59565b925050602061304d85828601613002565b9150509250929050565b600060408201905061306c6000830185612ebe565b6130796020830184612ebe565b9392505050565b600080fd5b600080fd5b7f4e487b7100000000000000000000000000000000000000000000000000000000600052604160045260246000fd5b6130c282612d17565b810181811067ffffffffffffffff821117156130e1576130e061308a565b5b80604052505050565b60006130f4612c02565b905061310082826130b9565b919050565b600067ffffffffffffffff8211156131205761311f61308a565b5b61312982612d17565b9050602081019050919050565b82818337600083830152505050565b600061315861315384613105565b6130ea565b90508281526020810184848401111561317457613173613085565b5b61317f848285613136565b509392505050565b600082601f83011261319c5761319b613080565b5b81356131ac848260208601613145565b91505092915050565b600080600080608085870312156131cf576131ce612c0c565b5b60006131dd87828801612e59565b94505060206131ee87828801612e59565b93505060406131ff87828801612da4565b925050606085013567ffffffffffffffff8111156132205761321f612c11565b5b61322c87828801613187565b91505092959194509250565b6000806040838503121561324f5761324e612c0c565b5b600061325d85828601612e59565b925050602061326e85828601612e59565b9150509250929050565b7f4e487b7100000000000000000000000000000000000000000000000000000000600052602260045260246000fd5b600060028204905060018216806132bf57607f821691505b6020821081036132d2576132d1613278565b5b50919050565b7f4552433732313a20617070726f76616c20746f2063757272656e74206f776e6560008201527f7200000000000000000000000000000000000000000000000000000000000000602082015250565b6000613334602183612cdc565b915061333f826132d8565b604082019050919050565b6000602082019050818103600083015261336381613327565b9050919050565b7f4552433732313a20617070726f76652063616c6c6572206973206e6f7420746f60008201527f6b656e206f776e6572206e6f7220617070726f76656420666f7220616c6c0000602082015250565b60006133c6603e83612cdc565b91506133d18261336a565b604082019050919050565b600060208201905081810360008301526133f5816133b9565b9050919050565b7f646f6e6f74206368616e67650000000000000000000000000000000000000000600082015250565b6000613432600c83612cdc565b915061343d826133fc565b602082019050919050565b6000602082019050818103600083015261346181613425565b9050919050565b7f4552433732313a2063616c6c6572206973206e6f7420746f6b656e206f776e6560008201527f72206e6f7220617070726f766564000000000000000000000000000000000000602082015250565b60006134c4602e83612cdc565b91506134cf82613468565b604082019050919050565b600060208201905081810360008301526134f3816134b7565b9050919050565b7f455243373231456e756d657261626c653a206f776e657220696e646578206f7560008201527f74206f6620626f756e6473000000000000000000000000000000000000000000602082015250565b6000613556602b83612cdc565b9150613561826134fa565b604082019050919050565b6000602082019050818103600083015261358581613549565b9050919050565b7f416464726573732063616e6e6f74206265206164647265737320300000000000600082015250565b60006135c2601b83612cdc565b91506135cd8261358c565b602082019050919050565b600060208201905081810360008301526135f1816135b5565b9050919050565b7f455243373231456e756d657261626c653a20676c6f62616c20696e646578206f60008201527f7574206f6620626f756e64730000000000000000000000000000000000000000602082015250565b6000613654602c83612cdc565b915061365f826135f8565b604082019050919050565b6000602082019050818103600083015261368381613647565b9050919050565b7f4e487b7100000000000000000000000000000000000000000000000000000000600052603260045260246000fd5b7f4c61636b206f6620776974686472617761626c6520616d6f756e740000000000600082015250565b60006136ef601b83612cdc565b91506136fa826136b9565b602082019050919050565b6000602082019050818103600083015261371e816136e2565b9050919050565b600081905092915050565b50565b6000613740600083613725565b915061374b82613730565b600082019050919050565b600061376182613733565b9150819050919050565b7f77697468647261775f7472616e736665725f6661696c65640000000000000000600082015250565b60006137a1601883612cdc565b91506137ac8261376b565b602082019050919050565b600060208201905081810360008301526137d081613794565b9050919050565b7f4552433732313a20696e76616c696420746f6b656e2049440000000000000000600082015250565b600061380d601883612cdc565b9150613818826137d7565b602082019050919050565b6000602082019050818103600083015261383c81613800565b9050919050565b7f4552433732313a2061646472657373207a65726f206973206e6f74206120766160008201527f6c6964206f776e65720000000000000000000000000000000000000000000000602082015250565b600061389f602983612cdc565b91506138aa82613843565b604082019050919050565b600060208201905081810360008301526138ce81613892565b9050919050565b7f6e6f7420656e6f75676820416d6f756e74000000000000000000000000000000600082015250565b600061390b601183612cdc565b9150613916826138d5565b602082019050919050565b6000602082019050818103600083015261393a816138fe565b9050919050565b7f616c6c206c6576656c734e46547320617265206d696e74656400000000000000600082015250565b6000613977601983612cdc565b915061398282613941565b602082019050919050565b600060208201905081810360008301526139a68161396a565b9050919050565b7f6e6f742054726164696e6754696d655f31000000000000000000000000000000600082015250565b60006139e3601183612cdc565b91506139ee826139ad565b602082019050919050565b60006020820190508181036000830152613a12816139d6565b9050919050565b7f6e6f742054726164696e6754696d655f32000000000000000000000000000000600082015250565b6000613a4f601183612cdc565b9150613a5a82613a19565b602082019050919050565b60006020820190508181036000830152613a7e81613a42565b9050919050565b7f4e487b7100000000000000000000000000000000000000000000000000000000600052601160045260246000fd5b6000613abf82612d83565b9150613aca83612d83565b9250828201905080821115613ae257613ae1613a85565b5b92915050565b7f426f74206973206e6f7420616c6c6f7765640000000000000000000000000000600082015250565b6000613b1e601283612cdc565b9150613b2982613ae8565b602082019050919050565b60006020820190508181036000830152613b4d81613b11565b9050919050565b6000613b5f82612d83565b9150613b6a83612d83565b9250828203905081811115613b8257613b81613a85565b5b92915050565b7f7061796261636b5f7472616e736665725f6661696c6564000000000000000000600082015250565b6000613bbe601783612cdc565b9150613bc982613b88565b602082019050919050565b60006020820190508181036000830152613bed81613bb1565b9050919050565b7f4e487b7100000000000000000000000000000000000000000000000000000000600052601260045260246000fd5b6000613c2e82612d83565b9150613c3983612d83565b925082613c4957613c48613bf4565b5b828204905092915050565b6000613c5f82612d83565b91507fffffffffffffffffffffffffffffffffffffffffffffffffffffffffffffffff8203613c9157613c90613a85565b5b600182019050919050565b6000604082019050613cb16000830185612e18565b8181036020830152613cc38184612d28565b90509392505050565b7f4f776e61626c653a206e6577206f776e657220697320746865207a65726f206160008201527f6464726573730000000000000000000000000000000000000000000000000000602082015250565b6000613d28602683612cdc565b9150613d3382613ccc565b604082019050919050565b60006020820190508181036000830152613d5781613d1b565b9050919050565b7f4552433732313a207472616e736665722066726f6d20696e636f72726563742060008201527f6f776e6572000000000000000000000000000000000000000000000000000000602082015250565b6000613dba602583612cdc565b9150613dc582613d5e565b604082019050919050565b60006020820190508181036000830152613de981613dad565b9050919050565b7f4552433732313a207472616e7366657220746f20746865207a65726f2061646460008201527f7265737300000000000000000000000000000000000000000000000000000000602082015250565b6000613e4c602483612cdc565b9150613e5782613df0565b604082019050919050565b60006020820190508181036000830152613e7b81613e3f565b9050919050565b7f4f776e61626c653a2063616c6c6572206973206e6f7420746865206f776e6572600082015250565b6000613eb8602083612cdc565b9150613ec382613e82565b602082019050919050565b60006020820190508181036000830152613ee781613eab565b9050919050565b7f4552433732313a20617070726f766520746f2063616c6c657200000000000000600082015250565b6000613f24601983612cdc565b9150613f2f82613eee565b602082019050919050565b60006020820190508181036000830152613f5381613f17565b9050919050565b7f4552433732313a207472616e7366657220746f206e6f6e20455243373231526560008201527f63656976657220696d706c656d656e7465720000000000000000000000000000602082015250565b6000613fb6603283612cdc565b9150613fc182613f5a565b604082019050919050565b60006020820190508181036000830152613fe581613fa9565b9050919050565b7f4552433732313a206d696e7420746f20746865207a65726f2061646472657373600082015250565b6000614022602083612cdc565b915061402d82613fec565b602082019050919050565b6000602082019050818103600083015261405181614015565b9050919050565b7f4552433732313a20746f6b656e20616c7265616479206d696e74656400000000600082015250565b600061408e601c83612cdc565b915061409982614058565b602082019050919050565b600060208201905081810360008301526140bd81614081565b9050919050565b600081519050919050565b600082825260208201905092915050565b60006140eb826140c4565b6140f581856140cf565b9350614105818560208601612ced565b61410e81612d17565b840191505092915050565b600060808201905061412e6000830187612e18565b61413b6020830186612e18565b6141486040830185612ee8565b818103606083015261415a81846140e0565b905095945050505050565b60008151905061417481612c42565b92915050565b6000602082840312156141905761418f612c0c565b5b600061419e84828501614165565b91505092915050565b7f4e487b7100000000000000000000000000000000000000000000000000000000600052603160045260246000fdfea264697066735822122020409c52f909f36381bc511b3079ec77b6e5bfadd07ce460309e50dc907be67164736f6c63430008100033a264697066735822122081c5c804f3fa26001a6a88aaa52a5eabb8e578787a7d59083d204b7f4e4f40e664736f6c63430008100033",
  "immutableReferences": {},
  "source": "// SPDX-License-Identifier: MIT\npragma solidity ^0.8.0;\nimport \"@openzeppelin/contracts/token/ERC721/ERC721.sol\";\nimport \"@openzeppelin/contracts/access/Ownable.sol\";\nimport \"./LevelsNFTFacotry.sol\";\n\ncontract Router is Ownable {\n\n    event CreateNFT(uint APIndex, address contAddr); // api ,  \n    LevelsNFTFacotry[] public createdNFT; //  NFT  \n    mapping(string => uint32) private mintedName; //    \n    \n    constructor(){\n \n    }\n\n    //levels NFT \n    function CreateLevelsNFT(\n        string memory _tokenName,\n        string memory _tokenSymbol,\n        string memory _baseUri,\n        uint32 _maxSupply,\n        uint _mintPrice,\n        uint32 _openTime,\n        uint32 _closeTime,\n        address[] memory _withdrawWallet) external onlyOwner{\n            require(mintedName[_tokenName] == 0,\"Already Token Name\"); // 0 1 \n        LevelsNFTFacotry object = new LevelsNFTFacotry(\n            _tokenName,\n            _tokenSymbol,\n            _baseUri,\n            _maxSupply,\n            _mintPrice,\n            _openTime,\n            _closeTime,\n            _withdrawWallet\n        );\n        object.setAntiBotInterval(60); // \n        mintedName[_tokenName] = 1;\n        createdNFT.push(object); // Add created NFT \n        uint len = createdNFT.length - 1; // API Index \n        emit CreateNFT(len, address(object)); //API Response data\n    }\n\n    //  \n    function _buyNFT(uint APIndex) public payable {\n        createdNFT[APIndex].buyNFT{value:msg.value}(msg.sender);\n    }\n    //   \n    function _withdraw(uint APIndex) public payable {\n        createdNFT[APIndex].withdraw(msg.sender);\n    }\n\n    //   \n    function _getWithdraw(uint APIndex) public view returns(uint) {\n        uint result = createdNFT[APIndex].getWithdraw(msg.sender);\n        return result;\n    }\n\n    // URI \n    function _tokenURI(uint APIndex,uint tokenId) public view returns (string memory) {\n        string memory result = createdNFT[APIndex].tokenURI(tokenId);\n        return result;\n    } \n    \n}",
  "sourcePath": "/home/kbi/blockChain_part/levels/levels/Contract/contracts/Router.sol",
  "compiler": {
    "name": "solc",
    "version": "0.8.16+commit.07a7930e.Emscripten.clang"
  },
  "schemaVersion": "3.4.9",
  "updatedAt": "2022-10-25T05:36:45.003Z",
  "devdoc": {
    "kind": "dev",
    "methods": {
      "owner()": {
        "details": "Returns the address of the current owner."
      },
      "renounceOwnership()": {
        "details": "Leaves the contract without owner. It will not be possible to call `onlyOwner` functions anymore. Can only be called by the current owner. NOTE: Renouncing ownership will leave the contract without an owner, thereby removing any functionality that is only available to the owner."
      },
      "transferOwnership(address)": {
        "details": "Transfers ownership of the contract to a new account (`newOwner`). Can only be called by the current owner."
      }
    },
    "version": 1
  },
  "userdoc": {
    "kind": "user",
    "methods": {},
    "version": 1
  }
}