{
	"DateTime.sol": {
		"DateTime": {
			"abi": [
				{
					"inputs": [
						{
							"internalType": "uint256",
							"name": "timestamp",
							"type": "uint256"
						}
					],
					"name": "getDay",
					"outputs": [
						{
							"internalType": "uint8",
							"name": "",
							"type": "uint8"
						}
					],
					"stateMutability": "pure",
					"type": "function"
				},
				{
					"inputs": [
						{
							"internalType": "uint8",
							"name": "month",
							"type": "uint8"
						},
						{
							"internalType": "uint16",
							"name": "year",
							"type": "uint16"
						}
					],
					"name": "getDaysInMonth",
					"outputs": [
						{
							"internalType": "uint8",
							"name": "",
							"type": "uint8"
						}
					],
					"stateMutability": "pure",
					"type": "function"
				},
				{
					"inputs": [
						{
							"internalType": "uint256",
							"name": "timestamp",
							"type": "uint256"
						}
					],
					"name": "getHour",
					"outputs": [
						{
							"internalType": "uint8",
							"name": "",
							"type": "uint8"
						}
					],
					"stateMutability": "pure",
					"type": "function"
				},
				{
					"inputs": [
						{
							"internalType": "uint256",
							"name": "timestamp",
							"type": "uint256"
						}
					],
					"name": "getMinute",
					"outputs": [
						{
							"internalType": "uint8",
							"name": "",
							"type": "uint8"
						}
					],
					"stateMutability": "pure",
					"type": "function"
				},
				{
					"inputs": [
						{
							"internalType": "uint256",
							"name": "timestamp",
							"type": "uint256"
						}
					],
					"name": "getMonth",
					"outputs": [
						{
							"internalType": "uint8",
							"name": "",
							"type": "uint8"
						}
					],
					"stateMutability": "pure",
					"type": "function"
				},
				{
					"inputs": [
						{
							"internalType": "uint256",
							"name": "timestamp",
							"type": "uint256"
						}
					],
					"name": "getSecond",
					"outputs": [
						{
							"internalType": "uint8",
							"name": "",
							"type": "uint8"
						}
					],
					"stateMutability": "pure",
					"type": "function"
				},
				{
					"inputs": [
						{
							"internalType": "uint256",
							"name": "timestamp",
							"type": "uint256"
						}
					],
					"name": "getWeekday",
					"outputs": [
						{
							"internalType": "uint8",
							"name": "",
							"type": "uint8"
						}
					],
					"stateMutability": "pure",
					"type": "function"
				},
				{
					"inputs": [
						{
							"internalType": "uint256",
							"name": "timestamp",
							"type": "uint256"
						}
					],
					"name": "getYear",
					"outputs": [
						{
							"internalType": "uint16",
							"name": "",
							"type": "uint16"
						}
					],
					"stateMutability": "pure",
					"type": "function"
				},
				{
					"inputs": [
						{
							"internalType": "uint16",
							"name": "year",
							"type": "uint16"
						}
					],
					"name": "isLeapYear",
					"outputs": [
						{
							"internalType": "bool",
							"name": "",
							"type": "bool"
						}
					],
					"stateMutability": "pure",
					"type": "function"
				},
				{
					"inputs": [
						{
							"internalType": "uint256",
							"name": "year",
							"type": "uint256"
						}
					],
					"name": "leapYearsBefore",
					"outputs": [
						{
							"internalType": "uint256",
							"name": "",
							"type": "uint256"
						}
					],
					"stateMutability": "pure",
					"type": "function"
				}
			],
			"devdoc": {
				"kind": "dev",
				"methods": {},
				"version": 1
			},
			"evm": {
				"assembly": "    /* \"DateTime.sol\":57:5218  contract DateTime {... */\n  mstore(0x40, 0x80)\n  callvalue\n  dup1\n  iszero\n  tag_1\n  jumpi\n  0x00\n  dup1\n  revert\ntag_1:\n  pop\n  dataSize(sub_0)\n  dup1\n  dataOffset(sub_0)\n  0x00\n  codecopy\n  0x00\n  return\nstop\n\nsub_0: assembly {\n        /* \"DateTime.sol\":57:5218  contract DateTime {... */\n      mstore(0x40, 0x80)\n      callvalue\n      dup1\n      iszero\n      tag_1\n      jumpi\n      0x00\n      dup1\n      revert\n    tag_1:\n      pop\n      jumpi(tag_2, lt(calldatasize, 0x04))\n      shr(0xe0, calldataload(0x00))\n      dup1\n      0xa324ad24\n      gt\n      tag_13\n      jumpi\n      dup1\n      0xa324ad24\n      eq\n      tag_8\n      jumpi\n      dup1\n      0xa6f0e577\n      eq\n      tag_9\n      jumpi\n      dup1\n      0xb1999937\n      eq\n      tag_10\n      jumpi\n      dup1\n      0xb238ad0e\n      eq\n      tag_11\n      jumpi\n      dup1\n      0xfa93f883\n      eq\n      tag_12\n      jumpi\n      jump(tag_2)\n    tag_13:\n      dup1\n      0x3e239e1a\n      eq\n      tag_3\n      jumpi\n      dup1\n      0x4ac1ad78\n      eq\n      tag_4\n      jumpi\n      dup1\n      0x65c72840\n      eq\n      tag_5\n      jumpi\n      dup1\n      0x8aa001fc\n      eq\n      tag_6\n      jumpi\n      dup1\n      0x92d66313\n      eq\n      tag_7\n      jumpi\n    tag_2:\n      0x00\n      dup1\n      revert\n        /* \"DateTime.sol\":4665:4795  function getHour(uint timestamp) public pure returns (uint8) {... */\n    tag_3:\n      tag_14\n      0x04\n      dup1\n      calldatasize\n      sub\n      dup2\n      add\n      swap1\n      tag_15\n      swap2\n      swap1\n      tag_16\n      jump\t// in\n    tag_15:\n      tag_17\n      jump\t// in\n    tag_14:\n      mload(0x40)\n      tag_18\n      swap2\n      swap1\n      tag_19\n      jump\t// in\n    tag_18:\n      mload(0x40)\n      dup1\n      swap2\n      sub\n      swap1\n      return\n        /* \"DateTime.sol\":5072:5215  function getWeekday(uint timestamp) public pure returns (uint8) {... */\n    tag_4:\n      tag_20\n      0x04\n      dup1\n      calldatasize\n      sub\n      dup2\n      add\n      swap1\n      tag_21\n      swap2\n      swap1\n      tag_16\n      jump\t// in\n    tag_21:\n      tag_22\n      jump\t// in\n    tag_20:\n      mload(0x40)\n      tag_23\n      swap2\n      swap1\n      tag_19\n      jump\t// in\n    tag_23:\n      mload(0x40)\n      dup1\n      swap2\n      sub\n      swap1\n      return\n        /* \"DateTime.sol\":4530:4655  function getDay(uint timestamp) public pure returns (uint8) {... */\n    tag_5:\n      tag_24\n      0x04\n      dup1\n      calldatasize\n      sub\n      dup2\n      add\n      swap1\n      tag_25\n      swap2\n      swap1\n      tag_16\n      jump\t// in\n    tag_25:\n      tag_26\n      jump\t// in\n    tag_24:\n      mload(0x40)\n      tag_27\n      swap2\n      swap1\n      tag_19\n      jump\t// in\n    tag_27:\n      mload(0x40)\n      dup1\n      swap2\n      sub\n      swap1\n      return\n        /* \"DateTime.sol\":4942:5062  function getSecond(uint timestamp) public pure returns (uint8) {... */\n    tag_6:\n      tag_28\n      0x04\n      dup1\n      calldatasize\n      sub\n      dup2\n      add\n      swap1\n      tag_29\n      swap2\n      swap1\n      tag_16\n      jump\t// in\n    tag_29:\n      tag_30\n      jump\t// in\n    tag_28:\n      mload(0x40)\n      tag_31\n      swap2\n      swap1\n      tag_19\n      jump\t// in\n    tag_31:\n      mload(0x40)\n      dup1\n      swap2\n      sub\n      swap1\n      return\n        /* \"DateTime.sol\":3410:4381  function getYear(uint timestamp) public pure returns (uint16) {... */\n    tag_7:\n      tag_32\n      0x04\n      dup1\n      calldatasize\n      sub\n      dup2\n      add\n      swap1\n      tag_33\n      swap2\n      swap1\n      tag_16\n      jump\t// in\n    tag_33:\n      tag_34\n      jump\t// in\n    tag_32:\n      mload(0x40)\n      tag_35\n      swap2\n      swap1\n      tag_36\n      jump\t// in\n    tag_35:\n      mload(0x40)\n      dup1\n      swap2\n      sub\n      swap1\n      return\n        /* \"DateTime.sol\":4391:4520  function getMonth(uint timestamp) public pure returns (uint8) {... */\n    tag_8:\n      tag_37\n      0x04\n      dup1\n      calldatasize\n      sub\n      dup2\n      add\n      swap1\n      tag_38\n      swap2\n      swap1\n      tag_16\n      jump\t// in\n    tag_38:\n      tag_39\n      jump\t// in\n    tag_37:\n      mload(0x40)\n      tag_40\n      swap2\n      swap1\n      tag_19\n      jump\t// in\n    tag_40:\n      mload(0x40)\n      dup1\n      swap2\n      sub\n      swap1\n      return\n        /* \"DateTime.sol\":615:997  function isLeapYear(uint16 year) public pure returns (bool) {... */\n    tag_9:\n      tag_41\n      0x04\n      dup1\n      calldatasize\n      sub\n      dup2\n      add\n      swap1\n      tag_42\n      swap2\n      swap1\n      tag_43\n      jump\t// in\n    tag_42:\n      tag_44\n      jump\t// in\n    tag_41:\n      mload(0x40)\n      tag_45\n      swap2\n      swap1\n      tag_46\n      jump\t// in\n    tag_45:\n      mload(0x40)\n      dup1\n      swap2\n      sub\n      swap1\n      return\n        /* \"DateTime.sol\":1007:1167  function leapYearsBefore(uint year) public pure returns (uint) {... */\n    tag_10:\n      tag_47\n      0x04\n      dup1\n      calldatasize\n      sub\n      dup2\n      add\n      swap1\n      tag_48\n      swap2\n      swap1\n      tag_16\n      jump\t// in\n    tag_48:\n      tag_49\n      jump\t// in\n    tag_47:\n      mload(0x40)\n      tag_50\n      swap2\n      swap1\n      tag_51\n      jump\t// in\n    tag_50:\n      mload(0x40)\n      dup1\n      swap2\n      sub\n      swap1\n      return\n        /* \"DateTime.sol\":1177:1748  function getDaysInMonth(uint8 month, uint16 year) public pure returns (uint8) {... */\n    tag_11:\n      tag_52\n      0x04\n      dup1\n      calldatasize\n      sub\n      dup2\n      add\n      swap1\n      tag_53\n      swap2\n      swap1\n      tag_54\n      jump\t// in\n    tag_53:\n      tag_55\n      jump\t// in\n    tag_52:\n      mload(0x40)\n      tag_56\n      swap2\n      swap1\n      tag_19\n      jump\t// in\n    tag_56:\n      mload(0x40)\n      dup1\n      swap2\n      sub\n      swap1\n      return\n        /* \"DateTime.sol\":4805:4932  function getMinute(uint timestamp) public pure returns (uint8) {... */\n    tag_12:\n      tag_57\n      0x04\n      dup1\n      calldatasize\n      sub\n      dup2\n      add\n      swap1\n      tag_58\n      swap2\n      swap1\n      tag_16\n      jump\t// in\n    tag_58:\n      tag_59\n      jump\t// in\n    tag_57:\n      mload(0x40)\n      tag_60\n      swap2\n      swap1\n      tag_19\n      jump\t// in\n    tag_60:\n      mload(0x40)\n      dup1\n      swap2\n      sub\n      swap1\n      return\n        /* \"DateTime.sol\":4665:4795  function getHour(uint timestamp) public pure returns (uint8) {... */\n    tag_17:\n        /* \"DateTime.sol\":4719:4724  uint8 */\n      0x00\n        /* \"DateTime.sol\":4781:4783  24 */\n      0x18\n        /* \"DateTime.sol\":4775:4777  60 */\n      0x3c\n        /* \"DateTime.sol\":4770:4772  60 */\n      dup1\n        /* \"DateTime.sol\":4758:4767  timestamp */\n      dup5\n        /* \"DateTime.sol\":4758:4772  timestamp / 60 */\n      tag_62\n      swap2\n      swap1\n      tag_63\n      jump\t// in\n    tag_62:\n        /* \"DateTime.sol\":4758:4777  timestamp / 60 / 60 */\n      tag_64\n      swap2\n      swap1\n      tag_63\n      jump\t// in\n    tag_64:\n        /* \"DateTime.sol\":4757:4783  (timestamp / 60 / 60) % 24 */\n      tag_65\n      swap2\n      swap1\n      tag_66\n      jump\t// in\n    tag_65:\n        /* \"DateTime.sol\":4744:4784  return uint8((timestamp / 60 / 60) % 24) */\n      swap1\n      pop\n        /* \"DateTime.sol\":4665:4795  function getHour(uint timestamp) public pure returns (uint8) {... */\n      swap2\n      swap1\n      pop\n      jump\t// out\n        /* \"DateTime.sol\":5072:5215  function getWeekday(uint timestamp) public pure returns (uint8) {... */\n    tag_22:\n        /* \"DateTime.sol\":5129:5134  uint8 */\n      0x00\n        /* \"DateTime.sol\":5202:5203  7 */\n      0x07\n        /* \"DateTime.sol\":5197:5198  4 */\n      0x04\n        /* \"DateTime.sol\":358:363  86400 */\n      0x015180\n        /* \"DateTime.sol\":5168:5177  timestamp */\n      dup5\n        /* \"DateTime.sol\":5168:5194  timestamp / DAY_IN_SECONDS */\n      tag_68\n      swap2\n      swap1\n      tag_63\n      jump\t// in\n    tag_68:\n        /* \"DateTime.sol\":5168:5198  timestamp / DAY_IN_SECONDS + 4 */\n      tag_69\n      swap2\n      swap1\n      tag_70\n      jump\t// in\n    tag_69:\n        /* \"DateTime.sol\":5167:5203  (timestamp / DAY_IN_SECONDS + 4) % 7 */\n      tag_71\n      swap2\n      swap1\n      tag_66\n      jump\t// in\n    tag_71:\n        /* \"DateTime.sol\":5154:5204  return uint8((timestamp / DAY_IN_SECONDS + 4) % 7) */\n      swap1\n      pop\n        /* \"DateTime.sol\":5072:5215  function getWeekday(uint timestamp) public pure returns (uint8) {... */\n      swap2\n      swap1\n      pop\n      jump\t// out\n        /* \"DateTime.sol\":4530:4655  function getDay(uint timestamp) public pure returns (uint8) {... */\n    tag_26:\n        /* \"DateTime.sol\":4583:4588  uint8 */\n      0x00\n        /* \"DateTime.sol\":4615:4640  parseTimestamp(timestamp) */\n      tag_73\n        /* \"DateTime.sol\":4630:4639  timestamp */\n      dup3\n        /* \"DateTime.sol\":4615:4629  parseTimestamp */\n      tag_74\n        /* \"DateTime.sol\":4615:4640  parseTimestamp(timestamp) */\n      jump\t// in\n    tag_73:\n        /* \"DateTime.sol\":4615:4644  parseTimestamp(timestamp).day */\n      0x40\n      add\n      mload\n        /* \"DateTime.sol\":4608:4644  return parseTimestamp(timestamp).day */\n      swap1\n      pop\n        /* \"DateTime.sol\":4530:4655  function getDay(uint timestamp) public pure returns (uint8) {... */\n      swap2\n      swap1\n      pop\n      jump\t// out\n        /* \"DateTime.sol\":4942:5062  function getSecond(uint timestamp) public pure returns (uint8) {... */\n    tag_30:\n        /* \"DateTime.sol\":4998:5003  uint8 */\n      0x00\n        /* \"DateTime.sol\":5048:5050  60 */\n      0x3c\n        /* \"DateTime.sol\":5036:5045  timestamp */\n      dup3\n        /* \"DateTime.sol\":5036:5050  timestamp % 60 */\n      tag_76\n      swap2\n      swap1\n      tag_66\n      jump\t// in\n    tag_76:\n        /* \"DateTime.sol\":5023:5051  return uint8(timestamp % 60) */\n      swap1\n      pop\n        /* \"DateTime.sol\":4942:5062  function getSecond(uint timestamp) public pure returns (uint8) {... */\n      swap2\n      swap1\n      pop\n      jump\t// out\n        /* \"DateTime.sol\":3410:4381  function getYear(uint timestamp) public pure returns (uint16) {... */\n    tag_34:\n        /* \"DateTime.sol\":3464:3470  uint16 */\n      0x00\n        /* \"DateTime.sol\":3490:3514  uint secondsAccountedFor */\n      dup1\n        /* \"DateTime.sol\":3517:3518  0 */\n      0x00\n        /* \"DateTime.sol\":3490:3518  uint secondsAccountedFor = 0 */\n      swap1\n      pop\n        /* \"DateTime.sol\":3536:3547  uint16 year */\n      0x00\n        /* \"DateTime.sol\":3565:3582  uint numLeapYears */\n      dup1\n        /* \"DateTime.sol\":405:413  31536000 */\n      0x01e13380\n        /* \"DateTime.sol\":3653:3662  timestamp */\n      dup6\n        /* \"DateTime.sol\":3653:3680  timestamp / YEAR_IN_SECONDS */\n      tag_78\n      swap2\n      swap1\n      tag_63\n      jump\t// in\n    tag_78:\n        /* \"DateTime.sol\":600:604  1970 */\n      0x07b2\n        /* \"DateTime.sol\":3639:3680  ORIGIN_YEAR + timestamp / YEAR_IN_SECONDS */\n      0xffff\n      and\n      tag_79\n      swap2\n      swap1\n      tag_70\n      jump\t// in\n    tag_79:\n        /* \"DateTime.sol\":3625:3681  year = uint16(ORIGIN_YEAR + timestamp / YEAR_IN_SECONDS) */\n      swap2\n      pop\n        /* \"DateTime.sol\":3738:3766  leapYearsBefore(ORIGIN_YEAR) */\n      tag_80\n        /* \"DateTime.sol\":600:604  1970 */\n      0x07b2\n        /* \"DateTime.sol\":3738:3766  leapYearsBefore(ORIGIN_YEAR) */\n      0xffff\n      and\n        /* \"DateTime.sol\":3738:3753  leapYearsBefore */\n      tag_49\n        /* \"DateTime.sol\":3738:3766  leapYearsBefore(ORIGIN_YEAR) */\n      jump\t// in\n    tag_80:\n        /* \"DateTime.sol\":3714:3735  leapYearsBefore(year) */\n      tag_81\n        /* \"DateTime.sol\":3730:3734  year */\n      dup4\n        /* \"DateTime.sol\":3714:3735  leapYearsBefore(year) */\n      0xffff\n      and\n        /* \"DateTime.sol\":3714:3729  leapYearsBefore */\n      tag_49\n        /* \"DateTime.sol\":3714:3735  leapYearsBefore(year) */\n      jump\t// in\n    tag_81:\n        /* \"DateTime.sol\":3714:3766  leapYearsBefore(year) - leapYearsBefore(ORIGIN_YEAR) */\n      tag_82\n      swap2\n      swap1\n      tag_83\n      jump\t// in\n    tag_82:\n        /* \"DateTime.sol\":3699:3766  numLeapYears = leapYearsBefore(year) - leapYearsBefore(ORIGIN_YEAR) */\n      swap1\n      pop\n        /* \"DateTime.sol\":3831:3843  numLeapYears */\n      dup1\n        /* \"DateTime.sol\":460:468  31622400 */\n      0x01e28500\n        /* \"DateTime.sol\":3808:3843  LEAP_YEAR_IN_SECONDS * numLeapYears */\n      tag_84\n      swap2\n      swap1\n      tag_85\n      jump\t// in\n    tag_84:\n        /* \"DateTime.sol\":3785:3843  secondsAccountedFor += LEAP_YEAR_IN_SECONDS * numLeapYears */\n      dup4\n      tag_86\n      swap2\n      swap1\n      tag_70\n      jump\t// in\n    tag_86:\n      swap3\n      pop\n        /* \"DateTime.sol\":3924:3936  numLeapYears */\n      dup1\n        /* \"DateTime.sol\":600:604  1970 */\n      0x07b2\n        /* \"DateTime.sol\":3903:3907  year */\n      dup4\n        /* \"DateTime.sol\":3903:3921  year - ORIGIN_YEAR */\n      tag_87\n      swap2\n      swap1\n      tag_88\n      jump\t// in\n    tag_87:\n        /* \"DateTime.sol\":3903:3936  year - ORIGIN_YEAR - numLeapYears */\n      0xffff\n      and\n      tag_89\n      swap2\n      swap1\n      tag_83\n      jump\t// in\n    tag_89:\n        /* \"DateTime.sol\":405:413  31536000 */\n      0x01e13380\n        /* \"DateTime.sol\":3884:3937  YEAR_IN_SECONDS * (year - ORIGIN_YEAR - numLeapYears) */\n      tag_90\n      swap2\n      swap1\n      tag_85\n      jump\t// in\n    tag_90:\n        /* \"DateTime.sol\":3861:3937  secondsAccountedFor += YEAR_IN_SECONDS * (year - ORIGIN_YEAR - numLeapYears) */\n      dup4\n      tag_91\n      swap2\n      swap1\n      tag_70\n      jump\t// in\n    tag_91:\n      swap3\n      pop\n        /* \"DateTime.sol\":3956:4342  while (secondsAccountedFor > timestamp) {... */\n    tag_92:\n        /* \"DateTime.sol\":3985:3994  timestamp */\n      dup5\n        /* \"DateTime.sol\":3963:3982  secondsAccountedFor */\n      dup4\n        /* \"DateTime.sol\":3963:3994  secondsAccountedFor > timestamp */\n      gt\n        /* \"DateTime.sol\":3956:4342  while (secondsAccountedFor > timestamp) {... */\n      iszero\n      tag_93\n      jumpi\n        /* \"DateTime.sol\":4026:4054  isLeapYear(uint16(year - 1)) */\n      tag_94\n        /* \"DateTime.sol\":4051:4052  1 */\n      0x01\n        /* \"DateTime.sol\":4044:4048  year */\n      dup4\n        /* \"DateTime.sol\":4044:4052  year - 1 */\n      tag_95\n      swap2\n      swap1\n      tag_88\n      jump\t// in\n    tag_95:\n        /* \"DateTime.sol\":4026:4036  isLeapYear */\n      tag_44\n        /* \"DateTime.sol\":4026:4054  isLeapYear(uint16(year - 1)) */\n      jump\t// in\n    tag_94:\n        /* \"DateTime.sol\":4022:4289  if (isLeapYear(uint16(year - 1))) {... */\n      iszero\n      tag_96\n      jumpi\n        /* \"DateTime.sol\":460:468  31622400 */\n      0x01e28500\n        /* \"DateTime.sol\":4090:4133  secondsAccountedFor -= LEAP_YEAR_IN_SECONDS */\n      dup4\n      tag_97\n      swap2\n      swap1\n      tag_83\n      jump\t// in\n    tag_97:\n      swap3\n      pop\n        /* \"DateTime.sol\":4022:4289  if (isLeapYear(uint16(year - 1))) {... */\n      jump(tag_98)\n    tag_96:\n        /* \"DateTime.sol\":405:413  31536000 */\n      0x01e13380\n        /* \"DateTime.sol\":4224:4262  secondsAccountedFor -= YEAR_IN_SECONDS */\n      dup4\n      tag_99\n      swap2\n      swap1\n      tag_83\n      jump\t// in\n    tag_99:\n      swap3\n      pop\n        /* \"DateTime.sol\":4022:4289  if (isLeapYear(uint16(year - 1))) {... */\n    tag_98:\n        /* \"DateTime.sol\":4322:4323  1 */\n      0x01\n        /* \"DateTime.sol\":4314:4323  year -= 1 */\n      dup3\n      tag_100\n      swap2\n      swap1\n      tag_88\n      jump\t// in\n    tag_100:\n      swap2\n      pop\n        /* \"DateTime.sol\":3956:4342  while (secondsAccountedFor > timestamp) {... */\n      jump(tag_92)\n    tag_93:\n        /* \"DateTime.sol\":4366:4370  year */\n      dup2\n        /* \"DateTime.sol\":4359:4370  return year */\n      swap4\n      pop\n      pop\n      pop\n      pop\n        /* \"DateTime.sol\":3410:4381  function getYear(uint timestamp) public pure returns (uint16) {... */\n      swap2\n      swap1\n      pop\n      jump\t// out\n        /* \"DateTime.sol\":4391:4520  function getMonth(uint timestamp) public pure returns (uint8) {... */\n    tag_39:\n        /* \"DateTime.sol\":4446:4451  uint8 */\n      0x00\n        /* \"DateTime.sol\":4478:4503  parseTimestamp(timestamp) */\n      tag_102\n        /* \"DateTime.sol\":4493:4502  timestamp */\n      dup3\n        /* \"DateTime.sol\":4478:4492  parseTimestamp */\n      tag_74\n        /* \"DateTime.sol\":4478:4503  parseTimestamp(timestamp) */\n      jump\t// in\n    tag_102:\n        /* \"DateTime.sol\":4478:4509  parseTimestamp(timestamp).month */\n      0x20\n      add\n      mload\n        /* \"DateTime.sol\":4471:4509  return parseTimestamp(timestamp).month */\n      swap1\n      pop\n        /* \"DateTime.sol\":4391:4520  function getMonth(uint timestamp) public pure returns (uint8) {... */\n      swap2\n      swap1\n      pop\n      jump\t// out\n        /* \"DateTime.sol\":615:997  function isLeapYear(uint16 year) public pure returns (bool) {... */\n    tag_44:\n        /* \"DateTime.sol\":669:673  bool */\n      0x00\n        /* \"DateTime.sol\":709:710  0 */\n      dup1\n        /* \"DateTime.sol\":704:705  4 */\n      0x04\n        /* \"DateTime.sol\":697:701  year */\n      dup4\n        /* \"DateTime.sol\":697:705  year % 4 */\n      tag_104\n      swap2\n      swap1\n      tag_105\n      jump\t// in\n    tag_104:\n        /* \"DateTime.sol\":697:710  year % 4 != 0 */\n      0xffff\n      and\n      eq\n        /* \"DateTime.sol\":693:769  if (year % 4 != 0) {... */\n      tag_106\n      jumpi\n        /* \"DateTime.sol\":745:750  false */\n      0x00\n        /* \"DateTime.sol\":738:750  return false */\n      swap1\n      pop\n      jump(tag_103)\n        /* \"DateTime.sol\":693:769  if (year % 4 != 0) {... */\n    tag_106:\n        /* \"DateTime.sol\":804:805  0 */\n      0x00\n        /* \"DateTime.sol\":797:800  100 */\n      0x64\n        /* \"DateTime.sol\":790:794  year */\n      dup4\n        /* \"DateTime.sol\":790:800  year % 100 */\n      tag_107\n      swap2\n      swap1\n      tag_105\n      jump\t// in\n    tag_107:\n        /* \"DateTime.sol\":790:805  year % 100 != 0 */\n      0xffff\n      and\n      eq\n        /* \"DateTime.sol\":786:863  if (year % 100 != 0) {... */\n      tag_108\n      jumpi\n        /* \"DateTime.sol\":840:844  true */\n      0x01\n        /* \"DateTime.sol\":833:844  return true */\n      swap1\n      pop\n      jump(tag_103)\n        /* \"DateTime.sol\":786:863  if (year % 100 != 0) {... */\n    tag_108:\n        /* \"DateTime.sol\":898:899  0 */\n      0x00\n        /* \"DateTime.sol\":891:894  400 */\n      0x0190\n        /* \"DateTime.sol\":884:888  year */\n      dup4\n        /* \"DateTime.sol\":884:894  year % 400 */\n      tag_109\n      swap2\n      swap1\n      tag_105\n      jump\t// in\n    tag_109:\n        /* \"DateTime.sol\":884:899  year % 400 != 0 */\n      0xffff\n      and\n      eq\n        /* \"DateTime.sol\":880:958  if (year % 400 != 0) {... */\n      tag_110\n      jumpi\n        /* \"DateTime.sol\":934:939  false */\n      0x00\n        /* \"DateTime.sol\":927:939  return false */\n      swap1\n      pop\n      jump(tag_103)\n        /* \"DateTime.sol\":880:958  if (year % 400 != 0) {... */\n    tag_110:\n        /* \"DateTime.sol\":982:986  true */\n      0x01\n        /* \"DateTime.sol\":975:986  return true */\n      swap1\n      pop\n        /* \"DateTime.sol\":615:997  function isLeapYear(uint16 year) public pure returns (bool) {... */\n    tag_103:\n      swap2\n      swap1\n      pop\n      jump\t// out\n        /* \"DateTime.sol\":1007:1167  function leapYearsBefore(uint year) public pure returns (uint) {... */\n    tag_49:\n        /* \"DateTime.sol\":1064:1068  uint */\n      0x00\n        /* \"DateTime.sol\":1096:1097  1 */\n      0x01\n        /* \"DateTime.sol\":1088:1097  year -= 1 */\n      dup3\n      tag_112\n      swap2\n      swap1\n      tag_83\n      jump\t// in\n    tag_112:\n      swap2\n      pop\n        /* \"DateTime.sol\":1153:1156  400 */\n      0x0190\n        /* \"DateTime.sol\":1146:1150  year */\n      dup3\n        /* \"DateTime.sol\":1146:1156  year / 400 */\n      tag_113\n      swap2\n      swap1\n      tag_63\n      jump\t// in\n    tag_113:\n        /* \"DateTime.sol\":1140:1143  100 */\n      0x64\n        /* \"DateTime.sol\":1133:1137  year */\n      dup4\n        /* \"DateTime.sol\":1133:1143  year / 100 */\n      tag_114\n      swap2\n      swap1\n      tag_63\n      jump\t// in\n    tag_114:\n        /* \"DateTime.sol\":1129:1130  4 */\n      0x04\n        /* \"DateTime.sol\":1122:1126  year */\n      dup5\n        /* \"DateTime.sol\":1122:1130  year / 4 */\n      tag_115\n      swap2\n      swap1\n      tag_63\n      jump\t// in\n    tag_115:\n        /* \"DateTime.sol\":1122:1143  year / 4 - year / 100 */\n      tag_116\n      swap2\n      swap1\n      tag_83\n      jump\t// in\n    tag_116:\n        /* \"DateTime.sol\":1122:1156  year / 4 - year / 100 + year / 400 */\n      tag_117\n      swap2\n      swap1\n      tag_70\n      jump\t// in\n    tag_117:\n        /* \"DateTime.sol\":1115:1156  return year / 4 - year / 100 + year / 400 */\n      swap1\n      pop\n        /* \"DateTime.sol\":1007:1167  function leapYearsBefore(uint year) public pure returns (uint) {... */\n      swap2\n      swap1\n      pop\n      jump\t// out\n        /* \"DateTime.sol\":1177:1748  function getDaysInMonth(uint8 month, uint16 year) public pure returns (uint8) {... */\n    tag_55:\n        /* \"DateTime.sol\":1248:1253  uint8 */\n      0x00\n        /* \"DateTime.sol\":1286:1287  1 */\n      0x01\n        /* \"DateTime.sol\":1277:1282  month */\n      dup4\n        /* \"DateTime.sol\":1277:1287  month == 1 */\n      0xff\n      and\n      eq\n        /* \"DateTime.sol\":1277:1301  month == 1 || month == 3 */\n      dup1\n      tag_119\n      jumpi\n      pop\n        /* \"DateTime.sol\":1300:1301  3 */\n      0x03\n        /* \"DateTime.sol\":1291:1296  month */\n      dup4\n        /* \"DateTime.sol\":1291:1301  month == 3 */\n      0xff\n      and\n      eq\n        /* \"DateTime.sol\":1277:1301  month == 1 || month == 3 */\n    tag_119:\n        /* \"DateTime.sol\":1277:1315  month == 1 || month == 3 || month == 5 */\n      dup1\n      tag_120\n      jumpi\n      pop\n        /* \"DateTime.sol\":1314:1315  5 */\n      0x05\n        /* \"DateTime.sol\":1305:1310  month */\n      dup4\n        /* \"DateTime.sol\":1305:1315  month == 5 */\n      0xff\n      and\n      eq\n        /* \"DateTime.sol\":1277:1315  month == 1 || month == 3 || month == 5 */\n    tag_120:\n        /* \"DateTime.sol\":1277:1329  month == 1 || month == 3 || month == 5 || month == 7 */\n      dup1\n      tag_121\n      jumpi\n      pop\n        /* \"DateTime.sol\":1328:1329  7 */\n      0x07\n        /* \"DateTime.sol\":1319:1324  month */\n      dup4\n        /* \"DateTime.sol\":1319:1329  month == 7 */\n      0xff\n      and\n      eq\n        /* \"DateTime.sol\":1277:1329  month == 1 || month == 3 || month == 5 || month == 7 */\n    tag_121:\n        /* \"DateTime.sol\":1277:1343  month == 1 || month == 3 || month == 5 || month == 7 || month == 8 */\n      dup1\n      tag_122\n      jumpi\n      pop\n        /* \"DateTime.sol\":1342:1343  8 */\n      0x08\n        /* \"DateTime.sol\":1333:1338  month */\n      dup4\n        /* \"DateTime.sol\":1333:1343  month == 8 */\n      0xff\n      and\n      eq\n        /* \"DateTime.sol\":1277:1343  month == 1 || month == 3 || month == 5 || month == 7 || month == 8 */\n    tag_122:\n        /* \"DateTime.sol\":1277:1358  month == 1 || month == 3 || month == 5 || month == 7 || month == 8 || month == 10 */\n      dup1\n      tag_123\n      jumpi\n      pop\n        /* \"DateTime.sol\":1356:1358  10 */\n      0x0a\n        /* \"DateTime.sol\":1347:1352  month */\n      dup4\n        /* \"DateTime.sol\":1347:1358  month == 10 */\n      0xff\n      and\n      eq\n        /* \"DateTime.sol\":1277:1358  month == 1 || month == 3 || month == 5 || month == 7 || month == 8 || month == 10 */\n    tag_123:\n        /* \"DateTime.sol\":1277:1373  month == 1 || month == 3 || month == 5 || month == 7 || month == 8 || month == 10 || month == 12 */\n      dup1\n      tag_124\n      jumpi\n      pop\n        /* \"DateTime.sol\":1371:1373  12 */\n      0x0c\n        /* \"DateTime.sol\":1362:1367  month */\n      dup4\n        /* \"DateTime.sol\":1362:1373  month == 12 */\n      0xff\n      and\n      eq\n        /* \"DateTime.sol\":1277:1373  month == 1 || month == 3 || month == 5 || month == 7 || month == 8 || month == 10 || month == 12 */\n    tag_124:\n        /* \"DateTime.sol\":1273:1738  if (month == 1 || month == 3 || month == 5 || month == 7 || month == 8 || month == 10 || month == 12) {... */\n      iszero\n      tag_125\n      jumpi\n        /* \"DateTime.sol\":1408:1410  31 */\n      0x1f\n        /* \"DateTime.sol\":1401:1410  return 31 */\n      swap1\n      pop\n      jump(tag_118)\n        /* \"DateTime.sol\":1273:1738  if (month == 1 || month == 3 || month == 5 || month == 7 || month == 8 || month == 10 || month == 12) {... */\n    tag_125:\n        /* \"DateTime.sol\":1464:1465  4 */\n      0x04\n        /* \"DateTime.sol\":1455:1460  month */\n      dup4\n        /* \"DateTime.sol\":1455:1465  month == 4 */\n      0xff\n      and\n      eq\n        /* \"DateTime.sol\":1455:1479  month == 4 || month == 6 */\n      dup1\n      tag_127\n      jumpi\n      pop\n        /* \"DateTime.sol\":1478:1479  6 */\n      0x06\n        /* \"DateTime.sol\":1469:1474  month */\n      dup4\n        /* \"DateTime.sol\":1469:1479  month == 6 */\n      0xff\n      and\n      eq\n        /* \"DateTime.sol\":1455:1479  month == 4 || month == 6 */\n    tag_127:\n        /* \"DateTime.sol\":1455:1493  month == 4 || month == 6 || month == 9 */\n      dup1\n      tag_128\n      jumpi\n      pop\n        /* \"DateTime.sol\":1492:1493  9 */\n      0x09\n        /* \"DateTime.sol\":1483:1488  month */\n      dup4\n        /* \"DateTime.sol\":1483:1493  month == 9 */\n      0xff\n      and\n      eq\n        /* \"DateTime.sol\":1455:1493  month == 4 || month == 6 || month == 9 */\n    tag_128:\n        /* \"DateTime.sol\":1455:1508  month == 4 || month == 6 || month == 9 || month == 11 */\n      dup1\n      tag_129\n      jumpi\n      pop\n        /* \"DateTime.sol\":1506:1508  11 */\n      0x0b\n        /* \"DateTime.sol\":1497:1502  month */\n      dup4\n        /* \"DateTime.sol\":1497:1508  month == 11 */\n      0xff\n      and\n      eq\n        /* \"DateTime.sol\":1455:1508  month == 4 || month == 6 || month == 9 || month == 11 */\n    tag_129:\n        /* \"DateTime.sol\":1451:1738  if (month == 4 || month == 6 || month == 9 || month == 11) {... */\n      iszero\n      tag_130\n      jumpi\n        /* \"DateTime.sol\":1543:1545  30 */\n      0x1e\n        /* \"DateTime.sol\":1536:1545  return 30 */\n      swap1\n      pop\n      jump(tag_118)\n        /* \"DateTime.sol\":1451:1738  if (month == 4 || month == 6 || month == 9 || month == 11) {... */\n    tag_130:\n        /* \"DateTime.sol\":1590:1606  isLeapYear(year) */\n      tag_132\n        /* \"DateTime.sol\":1601:1605  year */\n      dup3\n        /* \"DateTime.sol\":1590:1600  isLeapYear */\n      tag_44\n        /* \"DateTime.sol\":1590:1606  isLeapYear(year) */\n      jump\t// in\n    tag_132:\n        /* \"DateTime.sol\":1586:1738  if (isLeapYear(year)) {... */\n      iszero\n      tag_133\n      jumpi\n        /* \"DateTime.sol\":1641:1643  29 */\n      0x1d\n        /* \"DateTime.sol\":1634:1643  return 29 */\n      swap1\n      pop\n      jump(tag_118)\n        /* \"DateTime.sol\":1586:1738  if (isLeapYear(year)) {... */\n    tag_133:\n        /* \"DateTime.sol\":1717:1719  28 */\n      0x1c\n        /* \"DateTime.sol\":1710:1719  return 28 */\n      swap1\n      pop\n        /* \"DateTime.sol\":1177:1748  function getDaysInMonth(uint8 month, uint16 year) public pure returns (uint8) {... */\n    tag_118:\n      swap3\n      swap2\n      pop\n      pop\n      jump\t// out\n        /* \"DateTime.sol\":4805:4932  function getMinute(uint timestamp) public pure returns (uint8) {... */\n    tag_59:\n        /* \"DateTime.sol\":4861:4866  uint8 */\n      0x00\n        /* \"DateTime.sol\":4918:4920  60 */\n      0x3c\n        /* \"DateTime.sol\":4912:4914  60 */\n      dup1\n        /* \"DateTime.sol\":4900:4909  timestamp */\n      dup4\n        /* \"DateTime.sol\":4900:4914  timestamp / 60 */\n      tag_136\n      swap2\n      swap1\n      tag_63\n      jump\t// in\n    tag_136:\n        /* \"DateTime.sol\":4899:4920  (timestamp / 60) % 60 */\n      tag_137\n      swap2\n      swap1\n      tag_66\n      jump\t// in\n    tag_137:\n        /* \"DateTime.sol\":4886:4921  return uint8((timestamp / 60) % 60) */\n      swap1\n      pop\n        /* \"DateTime.sol\":4805:4932  function getMinute(uint timestamp) public pure returns (uint8) {... */\n      swap2\n      swap1\n      pop\n      jump\t// out\n        /* \"DateTime.sol\":1758:3400  function parseTimestamp(uint timestamp) internal pure returns (_DateTime memory dt) {... */\n    tag_74:\n        /* \"DateTime.sol\":1821:1840  _DateTime memory dt */\n      tag_138\n      tag_139\n      jump\t// in\n    tag_138:\n        /* \"DateTime.sol\":1860:1884  uint secondsAccountedFor */\n      0x00\n        /* \"DateTime.sol\":1906:1914  uint buf */\n      dup1\n        /* \"DateTime.sol\":1932:1939  uint8 i */\n      dup1\n        /* \"DateTime.sol\":1992:2010  getYear(timestamp) */\n      tag_141\n        /* \"DateTime.sol\":2000:2009  timestamp */\n      dup6\n        /* \"DateTime.sol\":1992:1999  getYear */\n      tag_34\n        /* \"DateTime.sol\":1992:2010  getYear(timestamp) */\n      jump\t// in\n    tag_141:\n        /* \"DateTime.sol\":1982:1984  dt */\n      dup5\n        /* \"DateTime.sol\":1982:1989  dt.year */\n      0x00\n      add\n        /* \"DateTime.sol\":1982:2010  dt.year = getYear(timestamp) */\n      swap1\n      0xffff\n      and\n      swap1\n      dup2\n      0xffff\n      and\n      dup2\n      mstore\n      pop\n      pop\n        /* \"DateTime.sol\":2061:2089  leapYearsBefore(ORIGIN_YEAR) */\n      tag_142\n        /* \"DateTime.sol\":600:604  1970 */\n      0x07b2\n        /* \"DateTime.sol\":2061:2089  leapYearsBefore(ORIGIN_YEAR) */\n      0xffff\n      and\n        /* \"DateTime.sol\":2061:2076  leapYearsBefore */\n      tag_49\n        /* \"DateTime.sol\":2061:2089  leapYearsBefore(ORIGIN_YEAR) */\n      jump\t// in\n    tag_142:\n        /* \"DateTime.sol\":2034:2058  leapYearsBefore(dt.year) */\n      tag_143\n        /* \"DateTime.sol\":2050:2052  dt */\n      dup6\n        /* \"DateTime.sol\":2050:2057  dt.year */\n      0x00\n      add\n      mload\n        /* \"DateTime.sol\":2034:2058  leapYearsBefore(dt.year) */\n      0xffff\n      and\n        /* \"DateTime.sol\":2034:2049  leapYearsBefore */\n      tag_49\n        /* \"DateTime.sol\":2034:2058  leapYearsBefore(dt.year) */\n      jump\t// in\n    tag_143:\n        /* \"DateTime.sol\":2034:2089  leapYearsBefore(dt.year) - leapYearsBefore(ORIGIN_YEAR) */\n      tag_144\n      swap2\n      swap1\n      tag_83\n      jump\t// in\n    tag_144:\n        /* \"DateTime.sol\":2028:2089  buf = leapYearsBefore(dt.year) - leapYearsBefore(ORIGIN_YEAR) */\n      swap2\n      pop\n        /* \"DateTime.sol\":2154:2157  buf */\n      dup2\n        /* \"DateTime.sol\":460:468  31622400 */\n      0x01e28500\n        /* \"DateTime.sol\":2131:2157  LEAP_YEAR_IN_SECONDS * buf */\n      tag_145\n      swap2\n      swap1\n      tag_85\n      jump\t// in\n    tag_145:\n        /* \"DateTime.sol\":2108:2157  secondsAccountedFor += LEAP_YEAR_IN_SECONDS * buf */\n      dup4\n      tag_146\n      swap2\n      swap1\n      tag_70\n      jump\t// in\n    tag_146:\n      swap3\n      pop\n        /* \"DateTime.sol\":2241:2244  buf */\n      dup2\n        /* \"DateTime.sol\":600:604  1970 */\n      0x07b2\n        /* \"DateTime.sol\":2217:2219  dt */\n      dup6\n        /* \"DateTime.sol\":2217:2224  dt.year */\n      0x00\n      add\n      mload\n        /* \"DateTime.sol\":2217:2238  dt.year - ORIGIN_YEAR */\n      tag_147\n      swap2\n      swap1\n      tag_88\n      jump\t// in\n    tag_147:\n        /* \"DateTime.sol\":2217:2244  dt.year - ORIGIN_YEAR - buf */\n      0xffff\n      and\n      tag_148\n      swap2\n      swap1\n      tag_83\n      jump\t// in\n    tag_148:\n        /* \"DateTime.sol\":405:413  31536000 */\n      0x01e13380\n        /* \"DateTime.sol\":2198:2245  YEAR_IN_SECONDS * (dt.year - ORIGIN_YEAR - buf) */\n      tag_149\n      swap2\n      swap1\n      tag_85\n      jump\t// in\n    tag_149:\n        /* \"DateTime.sol\":2175:2245  secondsAccountedFor += YEAR_IN_SECONDS * (dt.year - ORIGIN_YEAR - buf) */\n      dup4\n      tag_150\n      swap2\n      swap1\n      tag_70\n      jump\t// in\n    tag_150:\n      swap3\n      pop\n        /* \"DateTime.sol\":2289:2308  uint secondsInMonth */\n      0x00\n        /* \"DateTime.sol\":2335:2336  1 */\n      0x01\n        /* \"DateTime.sol\":2331:2336  i = 1 */\n      swap2\n      pop\n        /* \"DateTime.sol\":2326:2711  for (i = 1; i <= 12; i++) {... */\n    tag_151:\n        /* \"DateTime.sol\":2343:2345  12 */\n      0x0c\n        /* \"DateTime.sol\":2338:2339  i */\n      dup3\n        /* \"DateTime.sol\":2338:2345  i <= 12 */\n      0xff\n      and\n      gt\n        /* \"DateTime.sol\":2326:2711  for (i = 1; i <= 12; i++) {... */\n      tag_152\n      jumpi\n        /* \"DateTime.sol\":2412:2438  getDaysInMonth(i, dt.year) */\n      tag_154\n        /* \"DateTime.sol\":2427:2428  i */\n      dup3\n        /* \"DateTime.sol\":2430:2432  dt */\n      dup7\n        /* \"DateTime.sol\":2430:2437  dt.year */\n      0x00\n      add\n      mload\n        /* \"DateTime.sol\":2412:2426  getDaysInMonth */\n      tag_55\n        /* \"DateTime.sol\":2412:2438  getDaysInMonth(i, dt.year) */\n      jump\t// in\n    tag_154:\n        /* \"DateTime.sol\":2395:2438  DAY_IN_SECONDS * getDaysInMonth(i, dt.year) */\n      0xff\n      and\n        /* \"DateTime.sol\":358:363  86400 */\n      0x015180\n        /* \"DateTime.sol\":2395:2438  DAY_IN_SECONDS * getDaysInMonth(i, dt.year) */\n      tag_155\n      swap2\n      swap1\n      tag_85\n      jump\t// in\n    tag_155:\n        /* \"DateTime.sol\":2378:2438  secondsInMonth = DAY_IN_SECONDS * getDaysInMonth(i, dt.year) */\n      swap1\n      pop\n        /* \"DateTime.sol\":2507:2516  timestamp */\n      dup6\n        /* \"DateTime.sol\":2485:2504  secondsAccountedFor */\n      dup5\n        /* \"DateTime.sol\":2468:2482  secondsInMonth */\n      dup3\n        /* \"DateTime.sol\":2468:2504  secondsInMonth + secondsAccountedFor */\n      tag_156\n      swap2\n      swap1\n      tag_70\n      jump\t// in\n    tag_156:\n        /* \"DateTime.sol\":2468:2516  secondsInMonth + secondsAccountedFor > timestamp */\n      gt\n        /* \"DateTime.sol\":2464:2630  if (secondsInMonth + secondsAccountedFor > timestamp) {... */\n      iszero\n      tag_157\n      jumpi\n        /* \"DateTime.sol\":2563:2564  i */\n      dup2\n        /* \"DateTime.sol\":2552:2554  dt */\n      dup6\n        /* \"DateTime.sol\":2552:2560  dt.month */\n      0x20\n      add\n        /* \"DateTime.sol\":2552:2564  dt.month = i */\n      swap1\n      0xff\n      and\n      swap1\n      dup2\n      0xff\n      and\n      dup2\n      mstore\n      pop\n      pop\n        /* \"DateTime.sol\":2598:2603  break */\n      jump(tag_152)\n        /* \"DateTime.sol\":2464:2630  if (secondsInMonth + secondsAccountedFor > timestamp) {... */\n    tag_157:\n        /* \"DateTime.sol\":2678:2692  secondsInMonth */\n      dup1\n        /* \"DateTime.sol\":2655:2692  secondsAccountedFor += secondsInMonth */\n      dup5\n      tag_158\n      swap2\n      swap1\n      tag_70\n      jump\t// in\n    tag_158:\n      swap4\n      pop\n        /* \"DateTime.sol\":2347:2350  i++ */\n      dup2\n      dup1\n      tag_159\n      swap1\n      tag_160\n      jump\t// in\n    tag_159:\n      swap3\n      pop\n      pop\n        /* \"DateTime.sol\":2326:2711  for (i = 1; i <= 12; i++) {... */\n      jump(tag_151)\n    tag_152:\n        /* \"DateTime.sol\":2761:2762  1 */\n      0x01\n        /* \"DateTime.sol\":2757:2762  i = 1 */\n      swap2\n      pop\n        /* \"DateTime.sol\":2752:3080  for (i = 1; i <= getDaysInMonth(dt.month, dt.year); i++) {... */\n    tag_161:\n        /* \"DateTime.sol\":2769:2802  getDaysInMonth(dt.month, dt.year) */\n      tag_164\n        /* \"DateTime.sol\":2784:2786  dt */\n      dup6\n        /* \"DateTime.sol\":2784:2792  dt.month */\n      0x20\n      add\n      mload\n        /* \"DateTime.sol\":2794:2796  dt */\n      dup7\n        /* \"DateTime.sol\":2794:2801  dt.year */\n      0x00\n      add\n      mload\n        /* \"DateTime.sol\":2769:2783  getDaysInMonth */\n      tag_55\n        /* \"DateTime.sol\":2769:2802  getDaysInMonth(dt.month, dt.year) */\n      jump\t// in\n    tag_164:\n        /* \"DateTime.sol\":2764:2802  i <= getDaysInMonth(dt.month, dt.year) */\n      0xff\n      and\n        /* \"DateTime.sol\":2764:2765  i */\n      dup3\n        /* \"DateTime.sol\":2764:2802  i <= getDaysInMonth(dt.month, dt.year) */\n      0xff\n      and\n      gt\n        /* \"DateTime.sol\":2752:3080  for (i = 1; i <= getDaysInMonth(dt.month, dt.year); i++) {... */\n      tag_162\n      jumpi\n        /* \"DateTime.sol\":2878:2887  timestamp */\n      dup6\n        /* \"DateTime.sol\":2856:2875  secondsAccountedFor */\n      dup5\n        /* \"DateTime.sol\":358:363  86400 */\n      0x015180\n        /* \"DateTime.sol\":2839:2875  DAY_IN_SECONDS + secondsAccountedFor */\n      tag_165\n      swap2\n      swap1\n      tag_70\n      jump\t// in\n    tag_165:\n        /* \"DateTime.sol\":2839:2887  DAY_IN_SECONDS + secondsAccountedFor > timestamp */\n      gt\n        /* \"DateTime.sol\":2835:2999  if (DAY_IN_SECONDS + secondsAccountedFor > timestamp) {... */\n      iszero\n      tag_166\n      jumpi\n        /* \"DateTime.sol\":2932:2933  i */\n      dup2\n        /* \"DateTime.sol\":2923:2925  dt */\n      dup6\n        /* \"DateTime.sol\":2923:2929  dt.day */\n      0x40\n      add\n        /* \"DateTime.sol\":2923:2933  dt.day = i */\n      swap1\n      0xff\n      and\n      swap1\n      dup2\n      0xff\n      and\n      dup2\n      mstore\n      pop\n      pop\n        /* \"DateTime.sol\":2967:2972  break */\n      jump(tag_162)\n        /* \"DateTime.sol\":2835:2999  if (DAY_IN_SECONDS + secondsAccountedFor > timestamp) {... */\n    tag_166:\n        /* \"DateTime.sol\":358:363  86400 */\n      0x015180\n        /* \"DateTime.sol\":3024:3061  secondsAccountedFor += DAY_IN_SECONDS */\n      dup5\n      tag_167\n      swap2\n      swap1\n      tag_70\n      jump\t// in\n    tag_167:\n      swap4\n      pop\n        /* \"DateTime.sol\":2804:2807  i++ */\n      dup2\n      dup1\n      tag_168\n      swap1\n      tag_160\n      jump\t// in\n    tag_168:\n      swap3\n      pop\n      pop\n        /* \"DateTime.sol\":2752:3080  for (i = 1; i <= getDaysInMonth(dt.month, dt.year); i++) {... */\n      jump(tag_161)\n    tag_162:\n        /* \"DateTime.sol\":3132:3150  getHour(timestamp) */\n      tag_169\n        /* \"DateTime.sol\":3140:3149  timestamp */\n      dup7\n        /* \"DateTime.sol\":3132:3139  getHour */\n      tag_17\n        /* \"DateTime.sol\":3132:3150  getHour(timestamp) */\n      jump\t// in\n    tag_169:\n        /* \"DateTime.sol\":3122:3124  dt */\n      dup6\n        /* \"DateTime.sol\":3122:3129  dt.hour */\n      0x60\n      add\n        /* \"DateTime.sol\":3122:3150  dt.hour = getHour(timestamp) */\n      swap1\n      0xff\n      and\n      swap1\n      dup2\n      0xff\n      and\n      dup2\n      mstore\n      pop\n      pop\n        /* \"DateTime.sol\":3207:3227  getMinute(timestamp) */\n      tag_170\n        /* \"DateTime.sol\":3217:3226  timestamp */\n      dup7\n        /* \"DateTime.sol\":3207:3216  getMinute */\n      tag_59\n        /* \"DateTime.sol\":3207:3227  getMinute(timestamp) */\n      jump\t// in\n    tag_170:\n        /* \"DateTime.sol\":3195:3197  dt */\n      dup6\n        /* \"DateTime.sol\":3195:3204  dt.minute */\n      0x80\n      add\n        /* \"DateTime.sol\":3195:3227  dt.minute = getMinute(timestamp) */\n      swap1\n      0xff\n      and\n      swap1\n      dup2\n      0xff\n      and\n      dup2\n      mstore\n      pop\n      pop\n        /* \"DateTime.sol\":3284:3304  getSecond(timestamp) */\n      tag_171\n        /* \"DateTime.sol\":3294:3303  timestamp */\n      dup7\n        /* \"DateTime.sol\":3284:3293  getSecond */\n      tag_30\n        /* \"DateTime.sol\":3284:3304  getSecond(timestamp) */\n      jump\t// in\n    tag_171:\n        /* \"DateTime.sol\":3272:3274  dt */\n      dup6\n        /* \"DateTime.sol\":3272:3281  dt.second */\n      0xa0\n      add\n        /* \"DateTime.sol\":3272:3304  dt.second = getSecond(timestamp) */\n      swap1\n      0xff\n      and\n      swap1\n      dup2\n      0xff\n      and\n      dup2\n      mstore\n      pop\n      pop\n        /* \"DateTime.sol\":3368:3389  getWeekday(timestamp) */\n      tag_172\n        /* \"DateTime.sol\":3379:3388  timestamp */\n      dup7\n        /* \"DateTime.sol\":3368:3378  getWeekday */\n      tag_22\n        /* \"DateTime.sol\":3368:3389  getWeekday(timestamp) */\n      jump\t// in\n    tag_172:\n        /* \"DateTime.sol\":3355:3357  dt */\n      dup6\n        /* \"DateTime.sol\":3355:3365  dt.weekday */\n      0xc0\n      add\n        /* \"DateTime.sol\":3355:3389  dt.weekday = getWeekday(timestamp) */\n      swap1\n      0xff\n      and\n      swap1\n      dup2\n      0xff\n      and\n      dup2\n      mstore\n      pop\n      pop\n        /* \"DateTime.sol\":1842:3400  {... */\n      pop\n      pop\n      pop\n      pop\n        /* \"DateTime.sol\":1758:3400  function parseTimestamp(uint timestamp) internal pure returns (_DateTime memory dt) {... */\n      swap2\n      swap1\n      pop\n      jump\t// out\n    tag_139:\n      mload(0x40)\n      dup1\n      0xe0\n      add\n      0x40\n      mstore\n      dup1\n      and(0xffff, 0x00)\n      dup2\n      mstore\n      0x20\n      add\n      and(0xff, 0x00)\n      dup2\n      mstore\n      0x20\n      add\n      and(0xff, 0x00)\n      dup2\n      mstore\n      0x20\n      add\n      and(0xff, 0x00)\n      dup2\n      mstore\n      0x20\n      add\n      and(0xff, 0x00)\n      dup2\n      mstore\n      0x20\n      add\n      and(0xff, 0x00)\n      dup2\n      mstore\n      0x20\n      add\n      and(0xff, 0x00)\n      dup2\n      mstore\n      pop\n      swap1\n      jump\t// out\n        /* \"#utility.yul\":7:144   */\n    tag_174:\n        /* \"#utility.yul\":52:57   */\n      0x00\n        /* \"#utility.yul\":90:96   */\n      dup2\n        /* \"#utility.yul\":77:97   */\n      calldataload\n        /* \"#utility.yul\":68:97   */\n      swap1\n      pop\n        /* \"#utility.yul\":106:138   */\n      tag_176\n        /* \"#utility.yul\":132:137   */\n      dup2\n        /* \"#utility.yul\":106:138   */\n      tag_177\n      jump\t// in\n    tag_176:\n        /* \"#utility.yul\":7:144   */\n      swap3\n      swap2\n      pop\n      pop\n      jump\t// out\n        /* \"#utility.yul\":150:289   */\n    tag_178:\n        /* \"#utility.yul\":196:201   */\n      0x00\n        /* \"#utility.yul\":234:240   */\n      dup2\n        /* \"#utility.yul\":221:241   */\n      calldataload\n        /* \"#utility.yul\":212:241   */\n      swap1\n      pop\n        /* \"#utility.yul\":250:283   */\n      tag_180\n        /* \"#utility.yul\":277:282   */\n      dup2\n        /* \"#utility.yul\":250:283   */\n      tag_181\n      jump\t// in\n    tag_180:\n        /* \"#utility.yul\":150:289   */\n      swap3\n      swap2\n      pop\n      pop\n      jump\t// out\n        /* \"#utility.yul\":295:430   */\n    tag_182:\n        /* \"#utility.yul\":339:344   */\n      0x00\n        /* \"#utility.yul\":377:383   */\n      dup2\n        /* \"#utility.yul\":364:384   */\n      calldataload\n        /* \"#utility.yul\":355:384   */\n      swap1\n      pop\n        /* \"#utility.yul\":393:424   */\n      tag_184\n        /* \"#utility.yul\":418:423   */\n      dup2\n        /* \"#utility.yul\":393:424   */\n      tag_185\n      jump\t// in\n    tag_184:\n        /* \"#utility.yul\":295:430   */\n      swap3\n      swap2\n      pop\n      pop\n      jump\t// out\n        /* \"#utility.yul\":436:763   */\n    tag_43:\n        /* \"#utility.yul\":494:500   */\n      0x00\n        /* \"#utility.yul\":543:545   */\n      0x20\n        /* \"#utility.yul\":531:540   */\n      dup3\n        /* \"#utility.yul\":522:529   */\n      dup5\n        /* \"#utility.yul\":518:541   */\n      sub\n        /* \"#utility.yul\":514:546   */\n      slt\n        /* \"#utility.yul\":511:630   */\n      iszero\n      tag_187\n      jumpi\n        /* \"#utility.yul\":549:628   */\n      tag_188\n      tag_189\n      jump\t// in\n    tag_188:\n        /* \"#utility.yul\":511:630   */\n    tag_187:\n        /* \"#utility.yul\":669:670   */\n      0x00\n        /* \"#utility.yul\":694:746   */\n      tag_190\n        /* \"#utility.yul\":738:745   */\n      dup5\n        /* \"#utility.yul\":729:735   */\n      dup3\n        /* \"#utility.yul\":718:727   */\n      dup6\n        /* \"#utility.yul\":714:736   */\n      add\n        /* \"#utility.yul\":694:746   */\n      tag_174\n      jump\t// in\n    tag_190:\n        /* \"#utility.yul\":684:746   */\n      swap2\n      pop\n        /* \"#utility.yul\":640:756   */\n      pop\n        /* \"#utility.yul\":436:763   */\n      swap3\n      swap2\n      pop\n      pop\n      jump\t// out\n        /* \"#utility.yul\":769:1098   */\n    tag_16:\n        /* \"#utility.yul\":828:834   */\n      0x00\n        /* \"#utility.yul\":877:879   */\n      0x20\n        /* \"#utility.yul\":865:874   */\n      dup3\n        /* \"#utility.yul\":856:863   */\n      dup5\n        /* \"#utility.yul\":852:875   */\n      sub\n        /* \"#utility.yul\":848:880   */\n      slt\n        /* \"#utility.yul\":845:964   */\n      iszero\n      tag_192\n      jumpi\n        /* \"#utility.yul\":883:962   */\n      tag_193\n      tag_189\n      jump\t// in\n    tag_193:\n        /* \"#utility.yul\":845:964   */\n    tag_192:\n        /* \"#utility.yul\":1003:1004   */\n      0x00\n        /* \"#utility.yul\":1028:1081   */\n      tag_194\n        /* \"#utility.yul\":1073:1080   */\n      dup5\n        /* \"#utility.yul\":1064:1070   */\n      dup3\n        /* \"#utility.yul\":1053:1062   */\n      dup6\n        /* \"#utility.yul\":1049:1071   */\n      add\n        /* \"#utility.yul\":1028:1081   */\n      tag_178\n      jump\t// in\n    tag_194:\n        /* \"#utility.yul\":1018:1081   */\n      swap2\n      pop\n        /* \"#utility.yul\":974:1091   */\n      pop\n        /* \"#utility.yul\":769:1098   */\n      swap3\n      swap2\n      pop\n      pop\n      jump\t// out\n        /* \"#utility.yul\":1104:1572   */\n    tag_54:\n        /* \"#utility.yul\":1169:1175   */\n      0x00\n        /* \"#utility.yul\":1177:1183   */\n      dup1\n        /* \"#utility.yul\":1226:1228   */\n      0x40\n        /* \"#utility.yul\":1214:1223   */\n      dup4\n        /* \"#utility.yul\":1205:1212   */\n      dup6\n        /* \"#utility.yul\":1201:1224   */\n      sub\n        /* \"#utility.yul\":1197:1229   */\n      slt\n        /* \"#utility.yul\":1194:1313   */\n      iszero\n      tag_196\n      jumpi\n        /* \"#utility.yul\":1232:1311   */\n      tag_197\n      tag_189\n      jump\t// in\n    tag_197:\n        /* \"#utility.yul\":1194:1313   */\n    tag_196:\n        /* \"#utility.yul\":1352:1353   */\n      0x00\n        /* \"#utility.yul\":1377:1428   */\n      tag_198\n        /* \"#utility.yul\":1420:1427   */\n      dup6\n        /* \"#utility.yul\":1411:1417   */\n      dup3\n        /* \"#utility.yul\":1400:1409   */\n      dup7\n        /* \"#utility.yul\":1396:1418   */\n      add\n        /* \"#utility.yul\":1377:1428   */\n      tag_182\n      jump\t// in\n    tag_198:\n        /* \"#utility.yul\":1367:1428   */\n      swap3\n      pop\n        /* \"#utility.yul\":1323:1438   */\n      pop\n        /* \"#utility.yul\":1477:1479   */\n      0x20\n        /* \"#utility.yul\":1503:1555   */\n      tag_199\n        /* \"#utility.yul\":1547:1554   */\n      dup6\n        /* \"#utility.yul\":1538:1544   */\n      dup3\n        /* \"#utility.yul\":1527:1536   */\n      dup7\n        /* \"#utility.yul\":1523:1545   */\n      add\n        /* \"#utility.yul\":1503:1555   */\n      tag_174\n      jump\t// in\n    tag_199:\n        /* \"#utility.yul\":1493:1555   */\n      swap2\n      pop\n        /* \"#utility.yul\":1448:1565   */\n      pop\n        /* \"#utility.yul\":1104:1572   */\n      swap3\n      pop\n      swap3\n      swap1\n      pop\n      jump\t// out\n        /* \"#utility.yul\":1578:1687   */\n    tag_200:\n        /* \"#utility.yul\":1659:1680   */\n      tag_202\n        /* \"#utility.yul\":1674:1679   */\n      dup2\n        /* \"#utility.yul\":1659:1680   */\n      tag_203\n      jump\t// in\n    tag_202:\n        /* \"#utility.yul\":1654:1657   */\n      dup3\n        /* \"#utility.yul\":1647:1681   */\n      mstore\n        /* \"#utility.yul\":1578:1687   */\n      pop\n      pop\n      jump\t// out\n        /* \"#utility.yul\":1693:1808   */\n    tag_204:\n        /* \"#utility.yul\":1778:1801   */\n      tag_206\n        /* \"#utility.yul\":1795:1800   */\n      dup2\n        /* \"#utility.yul\":1778:1801   */\n      tag_207\n      jump\t// in\n    tag_206:\n        /* \"#utility.yul\":1773:1776   */\n      dup3\n        /* \"#utility.yul\":1766:1802   */\n      mstore\n        /* \"#utility.yul\":1693:1808   */\n      pop\n      pop\n      jump\t// out\n        /* \"#utility.yul\":1814:1932   */\n    tag_208:\n        /* \"#utility.yul\":1901:1925   */\n      tag_210\n        /* \"#utility.yul\":1919:1924   */\n      dup2\n        /* \"#utility.yul\":1901:1925   */\n      tag_211\n      jump\t// in\n    tag_210:\n        /* \"#utility.yul\":1896:1899   */\n      dup3\n        /* \"#utility.yul\":1889:1926   */\n      mstore\n        /* \"#utility.yul\":1814:1932   */\n      pop\n      pop\n      jump\t// out\n        /* \"#utility.yul\":1938:2050   */\n    tag_212:\n        /* \"#utility.yul\":2021:2043   */\n      tag_214\n        /* \"#utility.yul\":2037:2042   */\n      dup2\n        /* \"#utility.yul\":2021:2043   */\n      tag_215\n      jump\t// in\n    tag_214:\n        /* \"#utility.yul\":2016:2019   */\n      dup3\n        /* \"#utility.yul\":2009:2044   */\n      mstore\n        /* \"#utility.yul\":1938:2050   */\n      pop\n      pop\n      jump\t// out\n        /* \"#utility.yul\":2056:2266   */\n    tag_46:\n        /* \"#utility.yul\":2143:2147   */\n      0x00\n        /* \"#utility.yul\":2181:2183   */\n      0x20\n        /* \"#utility.yul\":2170:2179   */\n      dup3\n        /* \"#utility.yul\":2166:2184   */\n      add\n        /* \"#utility.yul\":2158:2184   */\n      swap1\n      pop\n        /* \"#utility.yul\":2194:2259   */\n      tag_217\n        /* \"#utility.yul\":2256:2257   */\n      0x00\n        /* \"#utility.yul\":2245:2254   */\n      dup4\n        /* \"#utility.yul\":2241:2258   */\n      add\n        /* \"#utility.yul\":2232:2238   */\n      dup5\n        /* \"#utility.yul\":2194:2259   */\n      tag_200\n      jump\t// in\n    tag_217:\n        /* \"#utility.yul\":2056:2266   */\n      swap3\n      swap2\n      pop\n      pop\n      jump\t// out\n        /* \"#utility.yul\":2272:2490   */\n    tag_36:\n        /* \"#utility.yul\":2363:2367   */\n      0x00\n        /* \"#utility.yul\":2401:2403   */\n      0x20\n        /* \"#utility.yul\":2390:2399   */\n      dup3\n        /* \"#utility.yul\":2386:2404   */\n      add\n        /* \"#utility.yul\":2378:2404   */\n      swap1\n      pop\n        /* \"#utility.yul\":2414:2483   */\n      tag_219\n        /* \"#utility.yul\":2480:2481   */\n      0x00\n        /* \"#utility.yul\":2469:2478   */\n      dup4\n        /* \"#utility.yul\":2465:2482   */\n      add\n        /* \"#utility.yul\":2456:2462   */\n      dup5\n        /* \"#utility.yul\":2414:2483   */\n      tag_204\n      jump\t// in\n    tag_219:\n        /* \"#utility.yul\":2272:2490   */\n      swap3\n      swap2\n      pop\n      pop\n      jump\t// out\n        /* \"#utility.yul\":2496:2718   */\n    tag_51:\n        /* \"#utility.yul\":2589:2593   */\n      0x00\n        /* \"#utility.yul\":2627:2629   */\n      0x20\n        /* \"#utility.yul\":2616:2625   */\n      dup3\n        /* \"#utility.yul\":2612:2630   */\n      add\n        /* \"#utility.yul\":2604:2630   */\n      swap1\n      pop\n        /* \"#utility.yul\":2640:2711   */\n      tag_221\n        /* \"#utility.yul\":2708:2709   */\n      0x00\n        /* \"#utility.yul\":2697:2706   */\n      dup4\n        /* \"#utility.yul\":2693:2710   */\n      add\n        /* \"#utility.yul\":2684:2690   */\n      dup5\n        /* \"#utility.yul\":2640:2711   */\n      tag_208\n      jump\t// in\n    tag_221:\n        /* \"#utility.yul\":2496:2718   */\n      swap3\n      swap2\n      pop\n      pop\n      jump\t// out\n        /* \"#utility.yul\":2724:2938   */\n    tag_19:\n        /* \"#utility.yul\":2813:2817   */\n      0x00\n        /* \"#utility.yul\":2851:2853   */\n      0x20\n        /* \"#utility.yul\":2840:2849   */\n      dup3\n        /* \"#utility.yul\":2836:2854   */\n      add\n        /* \"#utility.yul\":2828:2854   */\n      swap1\n      pop\n        /* \"#utility.yul\":2864:2931   */\n      tag_223\n        /* \"#utility.yul\":2928:2929   */\n      0x00\n        /* \"#utility.yul\":2917:2926   */\n      dup4\n        /* \"#utility.yul\":2913:2930   */\n      add\n        /* \"#utility.yul\":2904:2910   */\n      dup5\n        /* \"#utility.yul\":2864:2931   */\n      tag_212\n      jump\t// in\n    tag_223:\n        /* \"#utility.yul\":2724:2938   */\n      swap3\n      swap2\n      pop\n      pop\n      jump\t// out\n        /* \"#utility.yul\":3025:3330   */\n    tag_70:\n        /* \"#utility.yul\":3065:3068   */\n      0x00\n        /* \"#utility.yul\":3084:3104   */\n      tag_227\n        /* \"#utility.yul\":3102:3103   */\n      dup3\n        /* \"#utility.yul\":3084:3104   */\n      tag_211\n      jump\t// in\n    tag_227:\n        /* \"#utility.yul\":3079:3104   */\n      swap2\n      pop\n        /* \"#utility.yul\":3118:3138   */\n      tag_228\n        /* \"#utility.yul\":3136:3137   */\n      dup4\n        /* \"#utility.yul\":3118:3138   */\n      tag_211\n      jump\t// in\n    tag_228:\n        /* \"#utility.yul\":3113:3138   */\n      swap3\n      pop\n        /* \"#utility.yul\":3272:3273   */\n      dup3\n        /* \"#utility.yul\":3204:3270   */\n      0xffffffffffffffffffffffffffffffffffffffffffffffffffffffffffffffff\n        /* \"#utility.yul\":3200:3274   */\n      sub\n        /* \"#utility.yul\":3197:3198   */\n      dup3\n        /* \"#utility.yul\":3194:3275   */\n      gt\n        /* \"#utility.yul\":3191:3298   */\n      iszero\n      tag_229\n      jumpi\n        /* \"#utility.yul\":3278:3296   */\n      tag_230\n      tag_231\n      jump\t// in\n    tag_230:\n        /* \"#utility.yul\":3191:3298   */\n    tag_229:\n        /* \"#utility.yul\":3322:3323   */\n      dup3\n        /* \"#utility.yul\":3319:3320   */\n      dup3\n        /* \"#utility.yul\":3315:3324   */\n      add\n        /* \"#utility.yul\":3308:3324   */\n      swap1\n      pop\n        /* \"#utility.yul\":3025:3330   */\n      swap3\n      swap2\n      pop\n      pop\n      jump\t// out\n        /* \"#utility.yul\":3336:3521   */\n    tag_63:\n        /* \"#utility.yul\":3376:3377   */\n      0x00\n        /* \"#utility.yul\":3393:3413   */\n      tag_233\n        /* \"#utility.yul\":3411:3412   */\n      dup3\n        /* \"#utility.yul\":3393:3413   */\n      tag_211\n      jump\t// in\n    tag_233:\n        /* \"#utility.yul\":3388:3413   */\n      swap2\n      pop\n        /* \"#utility.yul\":3427:3447   */\n      tag_234\n        /* \"#utility.yul\":3445:3446   */\n      dup4\n        /* \"#utility.yul\":3427:3447   */\n      tag_211\n      jump\t// in\n    tag_234:\n        /* \"#utility.yul\":3422:3447   */\n      swap3\n      pop\n        /* \"#utility.yul\":3466:3467   */\n      dup3\n        /* \"#utility.yul\":3456:3491   */\n      tag_235\n      jumpi\n        /* \"#utility.yul\":3471:3489   */\n      tag_236\n      tag_237\n      jump\t// in\n    tag_236:\n        /* \"#utility.yul\":3456:3491   */\n    tag_235:\n        /* \"#utility.yul\":3513:3514   */\n      dup3\n        /* \"#utility.yul\":3510:3511   */\n      dup3\n        /* \"#utility.yul\":3506:3515   */\n      div\n        /* \"#utility.yul\":3501:3515   */\n      swap1\n      pop\n        /* \"#utility.yul\":3336:3521   */\n      swap3\n      swap2\n      pop\n      pop\n      jump\t// out\n        /* \"#utility.yul\":3527:3875   */\n    tag_85:\n        /* \"#utility.yul\":3567:3574   */\n      0x00\n        /* \"#utility.yul\":3590:3610   */\n      tag_239\n        /* \"#utility.yul\":3608:3609   */\n      dup3\n        /* \"#utility.yul\":3590:3610   */\n      tag_211\n      jump\t// in\n    tag_239:\n        /* \"#utility.yul\":3585:3610   */\n      swap2\n      pop\n        /* \"#utility.yul\":3624:3644   */\n      tag_240\n        /* \"#utility.yul\":3642:3643   */\n      dup4\n        /* \"#utility.yul\":3624:3644   */\n      tag_211\n      jump\t// in\n    tag_240:\n        /* \"#utility.yul\":3619:3644   */\n      swap3\n      pop\n        /* \"#utility.yul\":3812:3813   */\n      dup2\n        /* \"#utility.yul\":3744:3810   */\n      0xffffffffffffffffffffffffffffffffffffffffffffffffffffffffffffffff\n        /* \"#utility.yul\":3740:3814   */\n      div\n        /* \"#utility.yul\":3737:3738   */\n      dup4\n        /* \"#utility.yul\":3734:3815   */\n      gt\n        /* \"#utility.yul\":3729:3730   */\n      dup3\n        /* \"#utility.yul\":3722:3731   */\n      iszero\n        /* \"#utility.yul\":3715:3732   */\n      iszero\n        /* \"#utility.yul\":3711:3816   */\n      and\n        /* \"#utility.yul\":3708:3839   */\n      iszero\n      tag_241\n      jumpi\n        /* \"#utility.yul\":3819:3837   */\n      tag_242\n      tag_231\n      jump\t// in\n    tag_242:\n        /* \"#utility.yul\":3708:3839   */\n    tag_241:\n        /* \"#utility.yul\":3867:3868   */\n      dup3\n        /* \"#utility.yul\":3864:3865   */\n      dup3\n        /* \"#utility.yul\":3860:3869   */\n      mul\n        /* \"#utility.yul\":3849:3869   */\n      swap1\n      pop\n        /* \"#utility.yul\":3527:3875   */\n      swap3\n      swap2\n      pop\n      pop\n      jump\t// out\n        /* \"#utility.yul\":3881:4069   */\n    tag_88:\n        /* \"#utility.yul\":3920:3924   */\n      0x00\n        /* \"#utility.yul\":3940:3959   */\n      tag_244\n        /* \"#utility.yul\":3957:3958   */\n      dup3\n        /* \"#utility.yul\":3940:3959   */\n      tag_207\n      jump\t// in\n    tag_244:\n        /* \"#utility.yul\":3935:3959   */\n      swap2\n      pop\n        /* \"#utility.yul\":3973:3992   */\n      tag_245\n        /* \"#utility.yul\":3990:3991   */\n      dup4\n        /* \"#utility.yul\":3973:3992   */\n      tag_207\n      jump\t// in\n    tag_245:\n        /* \"#utility.yul\":3968:3992   */\n      swap3\n      pop\n        /* \"#utility.yul\":4011:4012   */\n      dup3\n        /* \"#utility.yul\":4008:4009   */\n      dup3\n        /* \"#utility.yul\":4005:4013   */\n      lt\n        /* \"#utility.yul\":4002:4036   */\n      iszero\n      tag_246\n      jumpi\n        /* \"#utility.yul\":4016:4034   */\n      tag_247\n      tag_231\n      jump\t// in\n    tag_247:\n        /* \"#utility.yul\":4002:4036   */\n    tag_246:\n        /* \"#utility.yul\":4061:4062   */\n      dup3\n        /* \"#utility.yul\":4058:4059   */\n      dup3\n        /* \"#utility.yul\":4054:4063   */\n      sub\n        /* \"#utility.yul\":4046:4063   */\n      swap1\n      pop\n        /* \"#utility.yul\":3881:4069   */\n      swap3\n      swap2\n      pop\n      pop\n      jump\t// out\n        /* \"#utility.yul\":4075:4266   */\n    tag_83:\n        /* \"#utility.yul\":4115:4119   */\n      0x00\n        /* \"#utility.yul\":4135:4155   */\n      tag_249\n        /* \"#utility.yul\":4153:4154   */\n      dup3\n        /* \"#utility.yul\":4135:4155   */\n      tag_211\n      jump\t// in\n    tag_249:\n        /* \"#utility.yul\":4130:4155   */\n      swap2\n      pop\n        /* \"#utility.yul\":4169:4189   */\n      tag_250\n        /* \"#utility.yul\":4187:4188   */\n      dup4\n        /* \"#utility.yul\":4169:4189   */\n      tag_211\n      jump\t// in\n    tag_250:\n        /* \"#utility.yul\":4164:4189   */\n      swap3\n      pop\n        /* \"#utility.yul\":4208:4209   */\n      dup3\n        /* \"#utility.yul\":4205:4206   */\n      dup3\n        /* \"#utility.yul\":4202:4210   */\n      lt\n        /* \"#utility.yul\":4199:4233   */\n      iszero\n      tag_251\n      jumpi\n        /* \"#utility.yul\":4213:4231   */\n      tag_252\n      tag_231\n      jump\t// in\n    tag_252:\n        /* \"#utility.yul\":4199:4233   */\n    tag_251:\n        /* \"#utility.yul\":4258:4259   */\n      dup3\n        /* \"#utility.yul\":4255:4256   */\n      dup3\n        /* \"#utility.yul\":4251:4260   */\n      sub\n        /* \"#utility.yul\":4243:4260   */\n      swap1\n      pop\n        /* \"#utility.yul\":4075:4266   */\n      swap3\n      swap2\n      pop\n      pop\n      jump\t// out\n        /* \"#utility.yul\":4272:4362   */\n    tag_203:\n        /* \"#utility.yul\":4306:4313   */\n      0x00\n        /* \"#utility.yul\":4349:4354   */\n      dup2\n        /* \"#utility.yul\":4342:4355   */\n      iszero\n        /* \"#utility.yul\":4335:4356   */\n      iszero\n        /* \"#utility.yul\":4324:4356   */\n      swap1\n      pop\n        /* \"#utility.yul\":4272:4362   */\n      swap2\n      swap1\n      pop\n      jump\t// out\n        /* \"#utility.yul\":4368:4457   */\n    tag_207:\n        /* \"#utility.yul\":4404:4411   */\n      0x00\n        /* \"#utility.yul\":4444:4450   */\n      0xffff\n        /* \"#utility.yul\":4437:4442   */\n      dup3\n        /* \"#utility.yul\":4433:4451   */\n      and\n        /* \"#utility.yul\":4422:4451   */\n      swap1\n      pop\n        /* \"#utility.yul\":4368:4457   */\n      swap2\n      swap1\n      pop\n      jump\t// out\n        /* \"#utility.yul\":4463:4540   */\n    tag_211:\n        /* \"#utility.yul\":4500:4507   */\n      0x00\n        /* \"#utility.yul\":4529:4534   */\n      dup2\n        /* \"#utility.yul\":4518:4534   */\n      swap1\n      pop\n        /* \"#utility.yul\":4463:4540   */\n      swap2\n      swap1\n      pop\n      jump\t// out\n        /* \"#utility.yul\":4546:4632   */\n    tag_215:\n        /* \"#utility.yul\":4581:4588   */\n      0x00\n        /* \"#utility.yul\":4621:4625   */\n      0xff\n        /* \"#utility.yul\":4614:4619   */\n      dup3\n        /* \"#utility.yul\":4610:4626   */\n      and\n        /* \"#utility.yul\":4599:4626   */\n      swap1\n      pop\n        /* \"#utility.yul\":4546:4632   */\n      swap2\n      swap1\n      pop\n      jump\t// out\n        /* \"#utility.yul\":4638:4805   */\n    tag_160:\n        /* \"#utility.yul\":4675:4678   */\n      0x00\n        /* \"#utility.yul\":4698:4720   */\n      tag_258\n        /* \"#utility.yul\":4714:4719   */\n      dup3\n        /* \"#utility.yul\":4698:4720   */\n      tag_215\n      jump\t// in\n    tag_258:\n        /* \"#utility.yul\":4689:4720   */\n      swap2\n      pop\n        /* \"#utility.yul\":4742:4746   */\n      0xff\n        /* \"#utility.yul\":4735:4740   */\n      dup3\n        /* \"#utility.yul\":4732:4747   */\n      eq\n        /* \"#utility.yul\":4729:4770   */\n      iszero\n      tag_259\n      jumpi\n        /* \"#utility.yul\":4750:4768   */\n      tag_260\n      tag_231\n      jump\t// in\n    tag_260:\n        /* \"#utility.yul\":4729:4770   */\n    tag_259:\n        /* \"#utility.yul\":4797:4798   */\n      0x01\n        /* \"#utility.yul\":4790:4795   */\n      dup3\n        /* \"#utility.yul\":4786:4799   */\n      add\n        /* \"#utility.yul\":4779:4799   */\n      swap1\n      pop\n        /* \"#utility.yul\":4638:4805   */\n      swap2\n      swap1\n      pop\n      jump\t// out\n        /* \"#utility.yul\":4811:4984   */\n    tag_105:\n        /* \"#utility.yul\":4842:4843   */\n      0x00\n        /* \"#utility.yul\":4859:4878   */\n      tag_262\n        /* \"#utility.yul\":4876:4877   */\n      dup3\n        /* \"#utility.yul\":4859:4878   */\n      tag_207\n      jump\t// in\n    tag_262:\n        /* \"#utility.yul\":4854:4878   */\n      swap2\n      pop\n        /* \"#utility.yul\":4892:4911   */\n      tag_263\n        /* \"#utility.yul\":4909:4910   */\n      dup4\n        /* \"#utility.yul\":4892:4911   */\n      tag_207\n      jump\t// in\n    tag_263:\n        /* \"#utility.yul\":4887:4911   */\n      swap3\n      pop\n        /* \"#utility.yul\":4930:4931   */\n      dup3\n        /* \"#utility.yul\":4920:4955   */\n      tag_264\n      jumpi\n        /* \"#utility.yul\":4935:4953   */\n      tag_265\n      tag_237\n      jump\t// in\n    tag_265:\n        /* \"#utility.yul\":4920:4955   */\n    tag_264:\n        /* \"#utility.yul\":4976:4977   */\n      dup3\n        /* \"#utility.yul\":4973:4974   */\n      dup3\n        /* \"#utility.yul\":4969:4978   */\n      mod\n        /* \"#utility.yul\":4964:4978   */\n      swap1\n      pop\n        /* \"#utility.yul\":4811:4984   */\n      swap3\n      swap2\n      pop\n      pop\n      jump\t// out\n        /* \"#utility.yul\":4990:5166   */\n    tag_66:\n        /* \"#utility.yul\":5022:5023   */\n      0x00\n        /* \"#utility.yul\":5039:5059   */\n      tag_267\n        /* \"#utility.yul\":5057:5058   */\n      dup3\n        /* \"#utility.yul\":5039:5059   */\n      tag_211\n      jump\t// in\n    tag_267:\n        /* \"#utility.yul\":5034:5059   */\n      swap2\n      pop\n        /* \"#utility.yul\":5073:5093   */\n      tag_268\n        /* \"#utility.yul\":5091:5092   */\n      dup4\n        /* \"#utility.yul\":5073:5093   */\n      tag_211\n      jump\t// in\n    tag_268:\n        /* \"#utility.yul\":5068:5093   */\n      swap3\n      pop\n        /* \"#utility.yul\":5112:5113   */\n      dup3\n        /* \"#utility.yul\":5102:5137   */\n      tag_269\n      jumpi\n        /* \"#utility.yul\":5117:5135   */\n      tag_270\n      tag_237\n      jump\t// in\n    tag_270:\n        /* \"#utility.yul\":5102:5137   */\n    tag_269:\n        /* \"#utility.yul\":5158:5159   */\n      dup3\n        /* \"#utility.yul\":5155:5156   */\n      dup3\n        /* \"#utility.yul\":5151:5160   */\n      mod\n        /* \"#utility.yul\":5146:5160   */\n      swap1\n      pop\n        /* \"#utility.yul\":4990:5166   */\n      swap3\n      swap2\n      pop\n      pop\n      jump\t// out\n        /* \"#utility.yul\":5172:5352   */\n    tag_231:\n        /* \"#utility.yul\":5220:5297   */\n      0x4e487b7100000000000000000000000000000000000000000000000000000000\n        /* \"#utility.yul\":5217:5218   */\n      0x00\n        /* \"#utility.yul\":5210:5298   */\n      mstore\n        /* \"#utility.yul\":5317:5321   */\n      0x11\n        /* \"#utility.yul\":5314:5315   */\n      0x04\n        /* \"#utility.yul\":5307:5322   */\n      mstore\n        /* \"#utility.yul\":5341:5345   */\n      0x24\n        /* \"#utility.yul\":5338:5339   */\n      0x00\n        /* \"#utility.yul\":5331:5346   */\n      revert\n        /* \"#utility.yul\":5358:5538   */\n    tag_237:\n        /* \"#utility.yul\":5406:5483   */\n      0x4e487b7100000000000000000000000000000000000000000000000000000000\n        /* \"#utility.yul\":5403:5404   */\n      0x00\n        /* \"#utility.yul\":5396:5484   */\n      mstore\n        /* \"#utility.yul\":5503:5507   */\n      0x12\n        /* \"#utility.yul\":5500:5501   */\n      0x04\n        /* \"#utility.yul\":5493:5508   */\n      mstore\n        /* \"#utility.yul\":5527:5531   */\n      0x24\n        /* \"#utility.yul\":5524:5525   */\n      0x00\n        /* \"#utility.yul\":5517:5532   */\n      revert\n        /* \"#utility.yul\":5667:5784   */\n    tag_189:\n        /* \"#utility.yul\":5776:5777   */\n      0x00\n        /* \"#utility.yul\":5773:5774   */\n      dup1\n        /* \"#utility.yul\":5766:5778   */\n      revert\n        /* \"#utility.yul\":5790:5910   */\n    tag_177:\n        /* \"#utility.yul\":5862:5885   */\n      tag_277\n        /* \"#utility.yul\":5879:5884   */\n      dup2\n        /* \"#utility.yul\":5862:5885   */\n      tag_207\n      jump\t// in\n    tag_277:\n        /* \"#utility.yul\":5855:5860   */\n      dup2\n        /* \"#utility.yul\":5852:5886   */\n      eq\n        /* \"#utility.yul\":5842:5904   */\n      tag_278\n      jumpi\n        /* \"#utility.yul\":5900:5901   */\n      0x00\n        /* \"#utility.yul\":5897:5898   */\n      dup1\n        /* \"#utility.yul\":5890:5902   */\n      revert\n        /* \"#utility.yul\":5842:5904   */\n    tag_278:\n        /* \"#utility.yul\":5790:5910   */\n      pop\n      jump\t// out\n        /* \"#utility.yul\":5916:6038   */\n    tag_181:\n        /* \"#utility.yul\":5989:6013   */\n      tag_280\n        /* \"#utility.yul\":6007:6012   */\n      dup2\n        /* \"#utility.yul\":5989:6013   */\n      tag_211\n      jump\t// in\n    tag_280:\n        /* \"#utility.yul\":5982:5987   */\n      dup2\n        /* \"#utility.yul\":5979:6014   */\n      eq\n        /* \"#utility.yul\":5969:6032   */\n      tag_281\n      jumpi\n        /* \"#utility.yul\":6028:6029   */\n      0x00\n        /* \"#utility.yul\":6025:6026   */\n      dup1\n        /* \"#utility.yul\":6018:6030   */\n      revert\n        /* \"#utility.yul\":5969:6032   */\n    tag_281:\n        /* \"#utility.yul\":5916:6038   */\n      pop\n      jump\t// out\n        /* \"#utility.yul\":6044:6162   */\n    tag_185:\n        /* \"#utility.yul\":6115:6137   */\n      tag_283\n        /* \"#utility.yul\":6131:6136   */\n      dup2\n        /* \"#utility.yul\":6115:6137   */\n      tag_215\n      jump\t// in\n    tag_283:\n        /* \"#utility.yul\":6108:6113   */\n      dup2\n        /* \"#utility.yul\":6105:6138   */\n      eq\n        /* \"#utility.yul\":6095:6156   */\n      tag_284\n      jumpi\n        /* \"#utility.yul\":6152:6153   */\n      0x00\n        /* \"#utility.yul\":6149:6150   */\n      dup1\n        /* \"#utility.yul\":6142:6154   */\n      revert\n        /* \"#utility.yul\":6095:6156   */\n    tag_284:\n        /* \"#utility.yul\":6044:6162   */\n      pop\n      jump\t// out\n\n    auxdata: 0xa2646970667358221220cfdde3e8acc35b822e1087d0668bef79043e852d57d4d7abdf26a6f74f9d8f2864736f6c63430008070033\n}\n",
				"bytecode": {
					"linkReferences": {},
					"object": "608060405234801561001057600080fd5b50610cb2806100206000396000f3fe608060405234801561001057600080fd5b506004361061009e5760003560e01c8063a324ad2411610066578063a324ad2414610193578063a6f0e577146101c3578063b1999937146101f3578063b238ad0e14610223578063fa93f883146102535761009e565b80633e239e1a146100a35780634ac1ad78146100d357806365c72840146101035780638aa001fc1461013357806392d6631314610163575b600080fd5b6100bd60048036038101906100b891906108b9565b610283565b6040516100ca91906109b3565b60405180910390f35b6100ed60048036038101906100e891906108b9565b6102b0565b6040516100fa91906109b3565b60405180910390f35b61011d600480360381019061011891906108b9565b6102e0565b60405161012a91906109b3565b60405180910390f35b61014d600480360381019061014891906108b9565b6102f6565b60405161015a91906109b3565b60405180910390f35b61017d600480360381019061017891906108b9565b61030c565b60405161018a919061097d565b60405180910390f35b6101ad60048036038101906101a891906108b9565b610423565b6040516101ba91906109b3565b60405180910390f35b6101dd60048036038101906101d8919061088c565b610439565b6040516101ea9190610962565b60405180910390f35b61020d600480360381019061020891906108b9565b6104a8565b60405161021a9190610998565b60405180910390f35b61023d600480360381019061023891906108e6565b6104fc565b60405161024a91906109b3565b60405180910390f35b61026d600480360381019061026891906108b9565b6105c8565b60405161027a91906109b3565b60405180910390f35b60006018603c80846102959190610a24565b61029f9190610a24565b6102a99190610ba3565b9050919050565b60006007600462015180846102c59190610a24565b6102cf91906109ce565b6102d99190610ba3565b9050919050565b60006102eb826105e9565b604001519050919050565b6000603c826103059190610ba3565b9050919050565b600080600090506000806301e13380856103269190610a24565b6107b261ffff1661033791906109ce565b91506103486107b261ffff166104a8565b6103558361ffff166104a8565b61035f9190610ae3565b9050806301e285006103719190610a55565b8361037c91906109ce565b9250806107b28361038d9190610aaf565b61ffff1661039b9190610ae3565b6301e133806103aa9190610a55565b836103b591906109ce565b92505b84831115610418576103d56001836103d09190610aaf565b610439565b156103f1576301e28500836103ea9190610ae3565b9250610404565b6301e13380836104019190610ae3565b92505b6001826104119190610aaf565b91506103b8565b819350505050919050565b600061042e826105e9565b602001519050919050565b6000806004836104499190610b72565b61ffff161461045b57600090506104a3565b600060648361046a9190610b72565b61ffff161461047c57600190506104a3565b60006101908361048c9190610b72565b61ffff161461049e57600090506104a3565b600190505b919050565b60006001826104b79190610ae3565b9150610190826104c79190610a24565b6064836104d49190610a24565b6004846104e19190610a24565b6104eb9190610ae3565b6104f591906109ce565b9050919050565b600060018360ff161480610513575060038360ff16145b80610521575060058360ff16145b8061052f575060078360ff16145b8061053d575060088360ff16145b8061054b5750600a8360ff16145b806105595750600c8360ff16145b1561056757601f90506105c2565b60048360ff16148061057c575060068360ff16145b8061058a575060098360ff16145b806105985750600b8360ff16145b156105a657601e90506105c2565b6105af82610439565b156105bd57601d90506105c2565b601c90505b92915050565b6000603c80836105d89190610a24565b6105e29190610ba3565b9050919050565b6105f16107fa565b600080806105fe8561030c565b846000019061ffff16908161ffff16815250506106206107b261ffff166104a8565b610631856000015161ffff166104a8565b61063b9190610ae3565b9150816301e2850061064d9190610a55565b8361065891906109ce565b9250816107b2856000015161066d9190610aaf565b61ffff1661067b9190610ae3565b6301e1338061068a9190610a55565b8361069591906109ce565b92506000600191505b600c8260ff1611610715576106b78286600001516104fc565b60ff16620151806106c89190610a55565b90508584826106d791906109ce565b11156106f45781856020019060ff16908160ff1681525050610715565b808461070091906109ce565b9350818061070d90610b48565b92505061069e565b600191505b61072c856020015186600001516104fc565b60ff168260ff16116107895785846201518061074891906109ce565b11156107655781856040019060ff16908160ff1681525050610789565b620151808461077491906109ce565b9350818061078190610b48565b92505061071a565b61079286610283565b856060019060ff16908160ff16815250506107ac866105c8565b856080019060ff16908160ff16815250506107c6866102f6565b8560a0019060ff16908160ff16815250506107e0866102b0565b8560c0019060ff16908160ff168152505050505050919050565b6040518060e00160405280600061ffff168152602001600060ff168152602001600060ff168152602001600060ff168152602001600060ff168152602001600060ff168152602001600060ff1681525090565b60008135905061085c81610c37565b92915050565b60008135905061087181610c4e565b92915050565b60008135905061088681610c65565b92915050565b6000602082840312156108a2576108a1610c32565b5b60006108b08482850161084d565b91505092915050565b6000602082840312156108cf576108ce610c32565b5b60006108dd84828501610862565b91505092915050565b600080604083850312156108fd576108fc610c32565b5b600061090b85828601610877565b925050602061091c8582860161084d565b9150509250929050565b61092f81610b17565b82525050565b61093e81610b23565b82525050565b61094d81610b31565b82525050565b61095c81610b3b565b82525050565b60006020820190506109776000830184610926565b92915050565b60006020820190506109926000830184610935565b92915050565b60006020820190506109ad6000830184610944565b92915050565b60006020820190506109c86000830184610953565b92915050565b60006109d982610b31565b91506109e483610b31565b9250827fffffffffffffffffffffffffffffffffffffffffffffffffffffffffffffffff03821115610a1957610a18610bd4565b5b828201905092915050565b6000610a2f82610b31565b9150610a3a83610b31565b925082610a4a57610a49610c03565b5b828204905092915050565b6000610a6082610b31565b9150610a6b83610b31565b9250817fffffffffffffffffffffffffffffffffffffffffffffffffffffffffffffffff0483118215151615610aa457610aa3610bd4565b5b828202905092915050565b6000610aba82610b23565b9150610ac583610b23565b925082821015610ad857610ad7610bd4565b5b828203905092915050565b6000610aee82610b31565b9150610af983610b31565b925082821015610b0c57610b0b610bd4565b5b828203905092915050565b60008115159050919050565b600061ffff82169050919050565b6000819050919050565b600060ff82169050919050565b6000610b5382610b3b565b915060ff821415610b6757610b66610bd4565b5b600182019050919050565b6000610b7d82610b23565b9150610b8883610b23565b925082610b9857610b97610c03565b5b828206905092915050565b6000610bae82610b31565b9150610bb983610b31565b925082610bc957610bc8610c03565b5b828206905092915050565b7f4e487b7100000000000000000000000000000000000000000000000000000000600052601160045260246000fd5b7f4e487b7100000000000000000000000000000000000000000000000000000000600052601260045260246000fd5b600080fd5b610c4081610b23565b8114610c4b57600080fd5b50565b610c5781610b31565b8114610c6257600080fd5b50565b610c6e81610b3b565b8114610c7957600080fd5b5056fea2646970667358221220cfdde3e8acc35b822e1087d0668bef79043e852d57d4d7abdf26a6f74f9d8f2864736f6c63430008070033",
					"opcodes": "PUSH1 0x80 PUSH1 0x40 MSTORE CALLVALUE DUP1 ISZERO PUSH2 0x10 JUMPI PUSH1 0x0 DUP1 REVERT JUMPDEST POP PUSH2 0xCB2 DUP1 PUSH2 0x20 PUSH1 0x0 CODECOPY PUSH1 0x0 RETURN INVALID PUSH1 0x80 PUSH1 0x40 MSTORE CALLVALUE DUP1 ISZERO PUSH2 0x10 JUMPI PUSH1 0x0 DUP1 REVERT JUMPDEST POP PUSH1 0x4 CALLDATASIZE LT PUSH2 0x9E JUMPI PUSH1 0x0 CALLDATALOAD PUSH1 0xE0 SHR DUP1 PUSH4 0xA324AD24 GT PUSH2 0x66 JUMPI DUP1 PUSH4 0xA324AD24 EQ PUSH2 0x193 JUMPI DUP1 PUSH4 0xA6F0E577 EQ PUSH2 0x1C3 JUMPI DUP1 PUSH4 0xB1999937 EQ PUSH2 0x1F3 JUMPI DUP1 PUSH4 0xB238AD0E EQ PUSH2 0x223 JUMPI DUP1 PUSH4 0xFA93F883 EQ PUSH2 0x253 JUMPI PUSH2 0x9E JUMP JUMPDEST DUP1 PUSH4 0x3E239E1A EQ PUSH2 0xA3 JUMPI DUP1 PUSH4 0x4AC1AD78 EQ PUSH2 0xD3 JUMPI DUP1 PUSH4 0x65C72840 EQ PUSH2 0x103 JUMPI DUP1 PUSH4 0x8AA001FC EQ PUSH2 0x133 JUMPI DUP1 PUSH4 0x92D66313 EQ PUSH2 0x163 JUMPI JUMPDEST PUSH1 0x0 DUP1 REVERT JUMPDEST PUSH2 0xBD PUSH1 0x4 DUP1 CALLDATASIZE SUB DUP2 ADD SWAP1 PUSH2 0xB8 SWAP2 SWAP1 PUSH2 0x8B9 JUMP JUMPDEST PUSH2 0x283 JUMP JUMPDEST PUSH1 0x40 MLOAD PUSH2 0xCA SWAP2 SWAP1 PUSH2 0x9B3 JUMP JUMPDEST PUSH1 0x40 MLOAD DUP1 SWAP2 SUB SWAP1 RETURN JUMPDEST PUSH2 0xED PUSH1 0x4 DUP1 CALLDATASIZE SUB DUP2 ADD SWAP1 PUSH2 0xE8 SWAP2 SWAP1 PUSH2 0x8B9 JUMP JUMPDEST PUSH2 0x2B0 JUMP JUMPDEST PUSH1 0x40 MLOAD PUSH2 0xFA SWAP2 SWAP1 PUSH2 0x9B3 JUMP JUMPDEST PUSH1 0x40 MLOAD DUP1 SWAP2 SUB SWAP1 RETURN JUMPDEST PUSH2 0x11D PUSH1 0x4 DUP1 CALLDATASIZE SUB DUP2 ADD SWAP1 PUSH2 0x118 SWAP2 SWAP1 PUSH2 0x8B9 JUMP JUMPDEST PUSH2 0x2E0 JUMP JUMPDEST PUSH1 0x40 MLOAD PUSH2 0x12A SWAP2 SWAP1 PUSH2 0x9B3 JUMP JUMPDEST PUSH1 0x40 MLOAD DUP1 SWAP2 SUB SWAP1 RETURN JUMPDEST PUSH2 0x14D PUSH1 0x4 DUP1 CALLDATASIZE SUB DUP2 ADD SWAP1 PUSH2 0x148 SWAP2 SWAP1 PUSH2 0x8B9 JUMP JUMPDEST PUSH2 0x2F6 JUMP JUMPDEST PUSH1 0x40 MLOAD PUSH2 0x15A SWAP2 SWAP1 PUSH2 0x9B3 JUMP JUMPDEST PUSH1 0x40 MLOAD DUP1 SWAP2 SUB SWAP1 RETURN JUMPDEST PUSH2 0x17D PUSH1 0x4 DUP1 CALLDATASIZE SUB DUP2 ADD SWAP1 PUSH2 0x178 SWAP2 SWAP1 PUSH2 0x8B9 JUMP JUMPDEST PUSH2 0x30C JUMP JUMPDEST PUSH1 0x40 MLOAD PUSH2 0x18A SWAP2 SWAP1 PUSH2 0x97D JUMP JUMPDEST PUSH1 0x40 MLOAD DUP1 SWAP2 SUB SWAP1 RETURN JUMPDEST PUSH2 0x1AD PUSH1 0x4 DUP1 CALLDATASIZE SUB DUP2 ADD SWAP1 PUSH2 0x1A8 SWAP2 SWAP1 PUSH2 0x8B9 JUMP JUMPDEST PUSH2 0x423 JUMP JUMPDEST PUSH1 0x40 MLOAD PUSH2 0x1BA SWAP2 SWAP1 PUSH2 0x9B3 JUMP JUMPDEST PUSH1 0x40 MLOAD DUP1 SWAP2 SUB SWAP1 RETURN JUMPDEST PUSH2 0x1DD PUSH1 0x4 DUP1 CALLDATASIZE SUB DUP2 ADD SWAP1 PUSH2 0x1D8 SWAP2 SWAP1 PUSH2 0x88C JUMP JUMPDEST PUSH2 0x439 JUMP JUMPDEST PUSH1 0x40 MLOAD PUSH2 0x1EA SWAP2 SWAP1 PUSH2 0x962 JUMP JUMPDEST PUSH1 0x40 MLOAD DUP1 SWAP2 SUB SWAP1 RETURN JUMPDEST PUSH2 0x20D PUSH1 0x4 DUP1 CALLDATASIZE SUB DUP2 ADD SWAP1 PUSH2 0x208 SWAP2 SWAP1 PUSH2 0x8B9 JUMP JUMPDEST PUSH2 0x4A8 JUMP JUMPDEST PUSH1 0x40 MLOAD PUSH2 0x21A SWAP2 SWAP1 PUSH2 0x998 JUMP JUMPDEST PUSH1 0x40 MLOAD DUP1 SWAP2 SUB SWAP1 RETURN JUMPDEST PUSH2 0x23D PUSH1 0x4 DUP1 CALLDATASIZE SUB DUP2 ADD SWAP1 PUSH2 0x238 SWAP2 SWAP1 PUSH2 0x8E6 JUMP JUMPDEST PUSH2 0x4FC JUMP JUMPDEST PUSH1 0x40 MLOAD PUSH2 0x24A SWAP2 SWAP1 PUSH2 0x9B3 JUMP JUMPDEST PUSH1 0x40 MLOAD DUP1 SWAP2 SUB SWAP1 RETURN JUMPDEST PUSH2 0x26D PUSH1 0x4 DUP1 CALLDATASIZE SUB DUP2 ADD SWAP1 PUSH2 0x268 SWAP2 SWAP1 PUSH2 0x8B9 JUMP JUMPDEST PUSH2 0x5C8 JUMP JUMPDEST PUSH1 0x40 MLOAD PUSH2 0x27A SWAP2 SWAP1 PUSH2 0x9B3 JUMP JUMPDEST PUSH1 0x40 MLOAD DUP1 SWAP2 SUB SWAP1 RETURN JUMPDEST PUSH1 0x0 PUSH1 0x18 PUSH1 0x3C DUP1 DUP5 PUSH2 0x295 SWAP2 SWAP1 PUSH2 0xA24 JUMP JUMPDEST PUSH2 0x29F SWAP2 SWAP1 PUSH2 0xA24 JUMP JUMPDEST PUSH2 0x2A9 SWAP2 SWAP1 PUSH2 0xBA3 JUMP JUMPDEST SWAP1 POP SWAP2 SWAP1 POP JUMP JUMPDEST PUSH1 0x0 PUSH1 0x7 PUSH1 0x4 PUSH3 0x15180 DUP5 PUSH2 0x2C5 SWAP2 SWAP1 PUSH2 0xA24 JUMP JUMPDEST PUSH2 0x2CF SWAP2 SWAP1 PUSH2 0x9CE JUMP JUMPDEST PUSH2 0x2D9 SWAP2 SWAP1 PUSH2 0xBA3 JUMP JUMPDEST SWAP1 POP SWAP2 SWAP1 POP JUMP JUMPDEST PUSH1 0x0 PUSH2 0x2EB DUP3 PUSH2 0x5E9 JUMP JUMPDEST PUSH1 0x40 ADD MLOAD SWAP1 POP SWAP2 SWAP1 POP JUMP JUMPDEST PUSH1 0x0 PUSH1 0x3C DUP3 PUSH2 0x305 SWAP2 SWAP1 PUSH2 0xBA3 JUMP JUMPDEST SWAP1 POP SWAP2 SWAP1 POP JUMP JUMPDEST PUSH1 0x0 DUP1 PUSH1 0x0 SWAP1 POP PUSH1 0x0 DUP1 PUSH4 0x1E13380 DUP6 PUSH2 0x326 SWAP2 SWAP1 PUSH2 0xA24 JUMP JUMPDEST PUSH2 0x7B2 PUSH2 0xFFFF AND PUSH2 0x337 SWAP2 SWAP1 PUSH2 0x9CE JUMP JUMPDEST SWAP2 POP PUSH2 0x348 PUSH2 0x7B2 PUSH2 0xFFFF AND PUSH2 0x4A8 JUMP JUMPDEST PUSH2 0x355 DUP4 PUSH2 0xFFFF AND PUSH2 0x4A8 JUMP JUMPDEST PUSH2 0x35F SWAP2 SWAP1 PUSH2 0xAE3 JUMP JUMPDEST SWAP1 POP DUP1 PUSH4 0x1E28500 PUSH2 0x371 SWAP2 SWAP1 PUSH2 0xA55 JUMP JUMPDEST DUP4 PUSH2 0x37C SWAP2 SWAP1 PUSH2 0x9CE JUMP JUMPDEST SWAP3 POP DUP1 PUSH2 0x7B2 DUP4 PUSH2 0x38D SWAP2 SWAP1 PUSH2 0xAAF JUMP JUMPDEST PUSH2 0xFFFF AND PUSH2 0x39B SWAP2 SWAP1 PUSH2 0xAE3 JUMP JUMPDEST PUSH4 0x1E13380 PUSH2 0x3AA SWAP2 SWAP1 PUSH2 0xA55 JUMP JUMPDEST DUP4 PUSH2 0x3B5 SWAP2 SWAP1 PUSH2 0x9CE JUMP JUMPDEST SWAP3 POP JUMPDEST DUP5 DUP4 GT ISZERO PUSH2 0x418 JUMPI PUSH2 0x3D5 PUSH1 0x1 DUP4 PUSH2 0x3D0 SWAP2 SWAP1 PUSH2 0xAAF JUMP JUMPDEST PUSH2 0x439 JUMP JUMPDEST ISZERO PUSH2 0x3F1 JUMPI PUSH4 0x1E28500 DUP4 PUSH2 0x3EA SWAP2 SWAP1 PUSH2 0xAE3 JUMP JUMPDEST SWAP3 POP PUSH2 0x404 JUMP JUMPDEST PUSH4 0x1E13380 DUP4 PUSH2 0x401 SWAP2 SWAP1 PUSH2 0xAE3 JUMP JUMPDEST SWAP3 POP JUMPDEST PUSH1 0x1 DUP3 PUSH2 0x411 SWAP2 SWAP1 PUSH2 0xAAF JUMP JUMPDEST SWAP2 POP PUSH2 0x3B8 JUMP JUMPDEST DUP2 SWAP4 POP POP POP POP SWAP2 SWAP1 POP JUMP JUMPDEST PUSH1 0x0 PUSH2 0x42E DUP3 PUSH2 0x5E9 JUMP JUMPDEST PUSH1 0x20 ADD MLOAD SWAP1 POP SWAP2 SWAP1 POP JUMP JUMPDEST PUSH1 0x0 DUP1 PUSH1 0x4 DUP4 PUSH2 0x449 SWAP2 SWAP1 PUSH2 0xB72 JUMP JUMPDEST PUSH2 0xFFFF AND EQ PUSH2 0x45B JUMPI PUSH1 0x0 SWAP1 POP PUSH2 0x4A3 JUMP JUMPDEST PUSH1 0x0 PUSH1 0x64 DUP4 PUSH2 0x46A SWAP2 SWAP1 PUSH2 0xB72 JUMP JUMPDEST PUSH2 0xFFFF AND EQ PUSH2 0x47C JUMPI PUSH1 0x1 SWAP1 POP PUSH2 0x4A3 JUMP JUMPDEST PUSH1 0x0 PUSH2 0x190 DUP4 PUSH2 0x48C SWAP2 SWAP1 PUSH2 0xB72 JUMP JUMPDEST PUSH2 0xFFFF AND EQ PUSH2 0x49E JUMPI PUSH1 0x0 SWAP1 POP PUSH2 0x4A3 JUMP JUMPDEST PUSH1 0x1 SWAP1 POP JUMPDEST SWAP2 SWAP1 POP JUMP JUMPDEST PUSH1 0x0 PUSH1 0x1 DUP3 PUSH2 0x4B7 SWAP2 SWAP1 PUSH2 0xAE3 JUMP JUMPDEST SWAP2 POP PUSH2 0x190 DUP3 PUSH2 0x4C7 SWAP2 SWAP1 PUSH2 0xA24 JUMP JUMPDEST PUSH1 0x64 DUP4 PUSH2 0x4D4 SWAP2 SWAP1 PUSH2 0xA24 JUMP JUMPDEST PUSH1 0x4 DUP5 PUSH2 0x4E1 SWAP2 SWAP1 PUSH2 0xA24 JUMP JUMPDEST PUSH2 0x4EB SWAP2 SWAP1 PUSH2 0xAE3 JUMP JUMPDEST PUSH2 0x4F5 SWAP2 SWAP1 PUSH2 0x9CE JUMP JUMPDEST SWAP1 POP SWAP2 SWAP1 POP JUMP JUMPDEST PUSH1 0x0 PUSH1 0x1 DUP4 PUSH1 0xFF AND EQ DUP1 PUSH2 0x513 JUMPI POP PUSH1 0x3 DUP4 PUSH1 0xFF AND EQ JUMPDEST DUP1 PUSH2 0x521 JUMPI POP PUSH1 0x5 DUP4 PUSH1 0xFF AND EQ JUMPDEST DUP1 PUSH2 0x52F JUMPI POP PUSH1 0x7 DUP4 PUSH1 0xFF AND EQ JUMPDEST DUP1 PUSH2 0x53D JUMPI POP PUSH1 0x8 DUP4 PUSH1 0xFF AND EQ JUMPDEST DUP1 PUSH2 0x54B JUMPI POP PUSH1 0xA DUP4 PUSH1 0xFF AND EQ JUMPDEST DUP1 PUSH2 0x559 JUMPI POP PUSH1 0xC DUP4 PUSH1 0xFF AND EQ JUMPDEST ISZERO PUSH2 0x567 JUMPI PUSH1 0x1F SWAP1 POP PUSH2 0x5C2 JUMP JUMPDEST PUSH1 0x4 DUP4 PUSH1 0xFF AND EQ DUP1 PUSH2 0x57C JUMPI POP PUSH1 0x6 DUP4 PUSH1 0xFF AND EQ JUMPDEST DUP1 PUSH2 0x58A JUMPI POP PUSH1 0x9 DUP4 PUSH1 0xFF AND EQ JUMPDEST DUP1 PUSH2 0x598 JUMPI POP PUSH1 0xB DUP4 PUSH1 0xFF AND EQ JUMPDEST ISZERO PUSH2 0x5A6 JUMPI PUSH1 0x1E SWAP1 POP PUSH2 0x5C2 JUMP JUMPDEST PUSH2 0x5AF DUP3 PUSH2 0x439 JUMP JUMPDEST ISZERO PUSH2 0x5BD JUMPI PUSH1 0x1D SWAP1 POP PUSH2 0x5C2 JUMP JUMPDEST PUSH1 0x1C SWAP1 POP JUMPDEST SWAP3 SWAP2 POP POP JUMP JUMPDEST PUSH1 0x0 PUSH1 0x3C DUP1 DUP4 PUSH2 0x5D8 SWAP2 SWAP1 PUSH2 0xA24 JUMP JUMPDEST PUSH2 0x5E2 SWAP2 SWAP1 PUSH2 0xBA3 JUMP JUMPDEST SWAP1 POP SWAP2 SWAP1 POP JUMP JUMPDEST PUSH2 0x5F1 PUSH2 0x7FA JUMP JUMPDEST PUSH1 0x0 DUP1 DUP1 PUSH2 0x5FE DUP6 PUSH2 0x30C JUMP JUMPDEST DUP5 PUSH1 0x0 ADD SWAP1 PUSH2 0xFFFF AND SWAP1 DUP2 PUSH2 0xFFFF AND DUP2 MSTORE POP POP PUSH2 0x620 PUSH2 0x7B2 PUSH2 0xFFFF AND PUSH2 0x4A8 JUMP JUMPDEST PUSH2 0x631 DUP6 PUSH1 0x0 ADD MLOAD PUSH2 0xFFFF AND PUSH2 0x4A8 JUMP JUMPDEST PUSH2 0x63B SWAP2 SWAP1 PUSH2 0xAE3 JUMP JUMPDEST SWAP2 POP DUP2 PUSH4 0x1E28500 PUSH2 0x64D SWAP2 SWAP1 PUSH2 0xA55 JUMP JUMPDEST DUP4 PUSH2 0x658 SWAP2 SWAP1 PUSH2 0x9CE JUMP JUMPDEST SWAP3 POP DUP2 PUSH2 0x7B2 DUP6 PUSH1 0x0 ADD MLOAD PUSH2 0x66D SWAP2 SWAP1 PUSH2 0xAAF JUMP JUMPDEST PUSH2 0xFFFF AND PUSH2 0x67B SWAP2 SWAP1 PUSH2 0xAE3 JUMP JUMPDEST PUSH4 0x1E13380 PUSH2 0x68A SWAP2 SWAP1 PUSH2 0xA55 JUMP JUMPDEST DUP4 PUSH2 0x695 SWAP2 SWAP1 PUSH2 0x9CE JUMP JUMPDEST SWAP3 POP PUSH1 0x0 PUSH1 0x1 SWAP2 POP JUMPDEST PUSH1 0xC DUP3 PUSH1 0xFF AND GT PUSH2 0x715 JUMPI PUSH2 0x6B7 DUP3 DUP7 PUSH1 0x0 ADD MLOAD PUSH2 0x4FC JUMP JUMPDEST PUSH1 0xFF AND PUSH3 0x15180 PUSH2 0x6C8 SWAP2 SWAP1 PUSH2 0xA55 JUMP JUMPDEST SWAP1 POP DUP6 DUP5 DUP3 PUSH2 0x6D7 SWAP2 SWAP1 PUSH2 0x9CE JUMP JUMPDEST GT ISZERO PUSH2 0x6F4 JUMPI DUP2 DUP6 PUSH1 0x20 ADD SWAP1 PUSH1 0xFF AND SWAP1 DUP2 PUSH1 0xFF AND DUP2 MSTORE POP POP PUSH2 0x715 JUMP JUMPDEST DUP1 DUP5 PUSH2 0x700 SWAP2 SWAP1 PUSH2 0x9CE JUMP JUMPDEST SWAP4 POP DUP2 DUP1 PUSH2 0x70D SWAP1 PUSH2 0xB48 JUMP JUMPDEST SWAP3 POP POP PUSH2 0x69E JUMP JUMPDEST PUSH1 0x1 SWAP2 POP JUMPDEST PUSH2 0x72C DUP6 PUSH1 0x20 ADD MLOAD DUP7 PUSH1 0x0 ADD MLOAD PUSH2 0x4FC JUMP JUMPDEST PUSH1 0xFF AND DUP3 PUSH1 0xFF AND GT PUSH2 0x789 JUMPI DUP6 DUP5 PUSH3 0x15180 PUSH2 0x748 SWAP2 SWAP1 PUSH2 0x9CE JUMP JUMPDEST GT ISZERO PUSH2 0x765 JUMPI DUP2 DUP6 PUSH1 0x40 ADD SWAP1 PUSH1 0xFF AND SWAP1 DUP2 PUSH1 0xFF AND DUP2 MSTORE POP POP PUSH2 0x789 JUMP JUMPDEST PUSH3 0x15180 DUP5 PUSH2 0x774 SWAP2 SWAP1 PUSH2 0x9CE JUMP JUMPDEST SWAP4 POP DUP2 DUP1 PUSH2 0x781 SWAP1 PUSH2 0xB48 JUMP JUMPDEST SWAP3 POP POP PUSH2 0x71A JUMP JUMPDEST PUSH2 0x792 DUP7 PUSH2 0x283 JUMP JUMPDEST DUP6 PUSH1 0x60 ADD SWAP1 PUSH1 0xFF AND SWAP1 DUP2 PUSH1 0xFF AND DUP2 MSTORE POP POP PUSH2 0x7AC DUP7 PUSH2 0x5C8 JUMP JUMPDEST DUP6 PUSH1 0x80 ADD SWAP1 PUSH1 0xFF AND SWAP1 DUP2 PUSH1 0xFF AND DUP2 MSTORE POP POP PUSH2 0x7C6 DUP7 PUSH2 0x2F6 JUMP JUMPDEST DUP6 PUSH1 0xA0 ADD SWAP1 PUSH1 0xFF AND SWAP1 DUP2 PUSH1 0xFF AND DUP2 MSTORE POP POP PUSH2 0x7E0 DUP7 PUSH2 0x2B0 JUMP JUMPDEST DUP6 PUSH1 0xC0 ADD SWAP1 PUSH1 0xFF AND SWAP1 DUP2 PUSH1 0xFF AND DUP2 MSTORE POP POP POP POP POP POP SWAP2 SWAP1 POP JUMP JUMPDEST PUSH1 0x40 MLOAD DUP1 PUSH1 0xE0 ADD PUSH1 0x40 MSTORE DUP1 PUSH1 0x0 PUSH2 0xFFFF AND DUP2 MSTORE PUSH1 0x20 ADD PUSH1 0x0 PUSH1 0xFF AND DUP2 MSTORE PUSH1 0x20 ADD PUSH1 0x0 PUSH1 0xFF AND DUP2 MSTORE PUSH1 0x20 ADD PUSH1 0x0 PUSH1 0xFF AND DUP2 MSTORE PUSH1 0x20 ADD PUSH1 0x0 PUSH1 0xFF AND DUP2 MSTORE PUSH1 0x20 ADD PUSH1 0x0 PUSH1 0xFF AND DUP2 MSTORE PUSH1 0x20 ADD PUSH1 0x0 PUSH1 0xFF AND DUP2 MSTORE POP SWAP1 JUMP JUMPDEST PUSH1 0x0 DUP2 CALLDATALOAD SWAP1 POP PUSH2 0x85C DUP2 PUSH2 0xC37 JUMP JUMPDEST SWAP3 SWAP2 POP POP JUMP JUMPDEST PUSH1 0x0 DUP2 CALLDATALOAD SWAP1 POP PUSH2 0x871 DUP2 PUSH2 0xC4E JUMP JUMPDEST SWAP3 SWAP2 POP POP JUMP JUMPDEST PUSH1 0x0 DUP2 CALLDATALOAD SWAP1 POP PUSH2 0x886 DUP2 PUSH2 0xC65 JUMP JUMPDEST SWAP3 SWAP2 POP POP JUMP JUMPDEST PUSH1 0x0 PUSH1 0x20 DUP3 DUP5 SUB SLT ISZERO PUSH2 0x8A2 JUMPI PUSH2 0x8A1 PUSH2 0xC32 JUMP JUMPDEST JUMPDEST PUSH1 0x0 PUSH2 0x8B0 DUP5 DUP3 DUP6 ADD PUSH2 0x84D JUMP JUMPDEST SWAP2 POP POP SWAP3 SWAP2 POP POP JUMP JUMPDEST PUSH1 0x0 PUSH1 0x20 DUP3 DUP5 SUB SLT ISZERO PUSH2 0x8CF JUMPI PUSH2 0x8CE PUSH2 0xC32 JUMP JUMPDEST JUMPDEST PUSH1 0x0 PUSH2 0x8DD DUP5 DUP3 DUP6 ADD PUSH2 0x862 JUMP JUMPDEST SWAP2 POP POP SWAP3 SWAP2 POP POP JUMP JUMPDEST PUSH1 0x0 DUP1 PUSH1 0x40 DUP4 DUP6 SUB SLT ISZERO PUSH2 0x8FD JUMPI PUSH2 0x8FC PUSH2 0xC32 JUMP JUMPDEST JUMPDEST PUSH1 0x0 PUSH2 0x90B DUP6 DUP3 DUP7 ADD PUSH2 0x877 JUMP JUMPDEST SWAP3 POP POP PUSH1 0x20 PUSH2 0x91C DUP6 DUP3 DUP7 ADD PUSH2 0x84D JUMP JUMPDEST SWAP2 POP POP SWAP3 POP SWAP3 SWAP1 POP JUMP JUMPDEST PUSH2 0x92F DUP2 PUSH2 0xB17 JUMP JUMPDEST DUP3 MSTORE POP POP JUMP JUMPDEST PUSH2 0x93E DUP2 PUSH2 0xB23 JUMP JUMPDEST DUP3 MSTORE POP POP JUMP JUMPDEST PUSH2 0x94D DUP2 PUSH2 0xB31 JUMP JUMPDEST DUP3 MSTORE POP POP JUMP JUMPDEST PUSH2 0x95C DUP2 PUSH2 0xB3B JUMP JUMPDEST DUP3 MSTORE POP POP JUMP JUMPDEST PUSH1 0x0 PUSH1 0x20 DUP3 ADD SWAP1 POP PUSH2 0x977 PUSH1 0x0 DUP4 ADD DUP5 PUSH2 0x926 JUMP JUMPDEST SWAP3 SWAP2 POP POP JUMP JUMPDEST PUSH1 0x0 PUSH1 0x20 DUP3 ADD SWAP1 POP PUSH2 0x992 PUSH1 0x0 DUP4 ADD DUP5 PUSH2 0x935 JUMP JUMPDEST SWAP3 SWAP2 POP POP JUMP JUMPDEST PUSH1 0x0 PUSH1 0x20 DUP3 ADD SWAP1 POP PUSH2 0x9AD PUSH1 0x0 DUP4 ADD DUP5 PUSH2 0x944 JUMP JUMPDEST SWAP3 SWAP2 POP POP JUMP JUMPDEST PUSH1 0x0 PUSH1 0x20 DUP3 ADD SWAP1 POP PUSH2 0x9C8 PUSH1 0x0 DUP4 ADD DUP5 PUSH2 0x953 JUMP JUMPDEST SWAP3 SWAP2 POP POP JUMP JUMPDEST PUSH1 0x0 PUSH2 0x9D9 DUP3 PUSH2 0xB31 JUMP JUMPDEST SWAP2 POP PUSH2 0x9E4 DUP4 PUSH2 0xB31 JUMP JUMPDEST SWAP3 POP DUP3 PUSH32 0xFFFFFFFFFFFFFFFFFFFFFFFFFFFFFFFFFFFFFFFFFFFFFFFFFFFFFFFFFFFFFFFF SUB DUP3 GT ISZERO PUSH2 0xA19 JUMPI PUSH2 0xA18 PUSH2 0xBD4 JUMP JUMPDEST JUMPDEST DUP3 DUP3 ADD SWAP1 POP SWAP3 SWAP2 POP POP JUMP JUMPDEST PUSH1 0x0 PUSH2 0xA2F DUP3 PUSH2 0xB31 JUMP JUMPDEST SWAP2 POP PUSH2 0xA3A DUP4 PUSH2 0xB31 JUMP JUMPDEST SWAP3 POP DUP3 PUSH2 0xA4A JUMPI PUSH2 0xA49 PUSH2 0xC03 JUMP JUMPDEST JUMPDEST DUP3 DUP3 DIV SWAP1 POP SWAP3 SWAP2 POP POP JUMP JUMPDEST PUSH1 0x0 PUSH2 0xA60 DUP3 PUSH2 0xB31 JUMP JUMPDEST SWAP2 POP PUSH2 0xA6B DUP4 PUSH2 0xB31 JUMP JUMPDEST SWAP3 POP DUP2 PUSH32 0xFFFFFFFFFFFFFFFFFFFFFFFFFFFFFFFFFFFFFFFFFFFFFFFFFFFFFFFFFFFFFFFF DIV DUP4 GT DUP3 ISZERO ISZERO AND ISZERO PUSH2 0xAA4 JUMPI PUSH2 0xAA3 PUSH2 0xBD4 JUMP JUMPDEST JUMPDEST DUP3 DUP3 MUL SWAP1 POP SWAP3 SWAP2 POP POP JUMP JUMPDEST PUSH1 0x0 PUSH2 0xABA DUP3 PUSH2 0xB23 JUMP JUMPDEST SWAP2 POP PUSH2 0xAC5 DUP4 PUSH2 0xB23 JUMP JUMPDEST SWAP3 POP DUP3 DUP3 LT ISZERO PUSH2 0xAD8 JUMPI PUSH2 0xAD7 PUSH2 0xBD4 JUMP JUMPDEST JUMPDEST DUP3 DUP3 SUB SWAP1 POP SWAP3 SWAP2 POP POP JUMP JUMPDEST PUSH1 0x0 PUSH2 0xAEE DUP3 PUSH2 0xB31 JUMP JUMPDEST SWAP2 POP PUSH2 0xAF9 DUP4 PUSH2 0xB31 JUMP JUMPDEST SWAP3 POP DUP3 DUP3 LT ISZERO PUSH2 0xB0C JUMPI PUSH2 0xB0B PUSH2 0xBD4 JUMP JUMPDEST JUMPDEST DUP3 DUP3 SUB SWAP1 POP SWAP3 SWAP2 POP POP JUMP JUMPDEST PUSH1 0x0 DUP2 ISZERO ISZERO SWAP1 POP SWAP2 SWAP1 POP JUMP JUMPDEST PUSH1 0x0 PUSH2 0xFFFF DUP3 AND SWAP1 POP SWAP2 SWAP1 POP JUMP JUMPDEST PUSH1 0x0 DUP2 SWAP1 POP SWAP2 SWAP1 POP JUMP JUMPDEST PUSH1 0x0 PUSH1 0xFF DUP3 AND SWAP1 POP SWAP2 SWAP1 POP JUMP JUMPDEST PUSH1 0x0 PUSH2 0xB53 DUP3 PUSH2 0xB3B JUMP JUMPDEST SWAP2 POP PUSH1 0xFF DUP3 EQ ISZERO PUSH2 0xB67 JUMPI PUSH2 0xB66 PUSH2 0xBD4 JUMP JUMPDEST JUMPDEST PUSH1 0x1 DUP3 ADD SWAP1 POP SWAP2 SWAP1 POP JUMP JUMPDEST PUSH1 0x0 PUSH2 0xB7D DUP3 PUSH2 0xB23 JUMP JUMPDEST SWAP2 POP PUSH2 0xB88 DUP4 PUSH2 0xB23 JUMP JUMPDEST SWAP3 POP DUP3 PUSH2 0xB98 JUMPI PUSH2 0xB97 PUSH2 0xC03 JUMP JUMPDEST JUMPDEST DUP3 DUP3 MOD SWAP1 POP SWAP3 SWAP2 POP POP JUMP JUMPDEST PUSH1 0x0 PUSH2 0xBAE DUP3 PUSH2 0xB31 JUMP JUMPDEST SWAP2 POP PUSH2 0xBB9 DUP4 PUSH2 0xB31 JUMP JUMPDEST SWAP3 POP DUP3 PUSH2 0xBC9 JUMPI PUSH2 0xBC8 PUSH2 0xC03 JUMP JUMPDEST JUMPDEST DUP3 DUP3 MOD SWAP1 POP SWAP3 SWAP2 POP POP JUMP JUMPDEST PUSH32 0x4E487B7100000000000000000000000000000000000000000000000000000000 PUSH1 0x0 MSTORE PUSH1 0x11 PUSH1 0x4 MSTORE PUSH1 0x24 PUSH1 0x0 REVERT JUMPDEST PUSH32 0x4E487B7100000000000000000000000000000000000000000000000000000000 PUSH1 0x0 MSTORE PUSH1 0x12 PUSH1 0x4 MSTORE PUSH1 0x24 PUSH1 0x0 REVERT JUMPDEST PUSH1 0x0 DUP1 REVERT JUMPDEST PUSH2 0xC40 DUP2 PUSH2 0xB23 JUMP JUMPDEST DUP2 EQ PUSH2 0xC4B JUMPI PUSH1 0x0 DUP1 REVERT JUMPDEST POP JUMP JUMPDEST PUSH2 0xC57 DUP2 PUSH2 0xB31 JUMP JUMPDEST DUP2 EQ PUSH2 0xC62 JUMPI PUSH1 0x0 DUP1 REVERT JUMPDEST POP JUMP JUMPDEST PUSH2 0xC6E DUP2 PUSH2 0xB3B JUMP JUMPDEST DUP2 EQ PUSH2 0xC79 JUMPI PUSH1 0x0 DUP1 REVERT JUMPDEST POP JUMP INVALID LOG2 PUSH5 0x6970667358 0x22 SLT KECCAK256 0xCF 0xDD 0xE3 0xE8 0xAC 0xC3 JUMPDEST DUP3 0x2E LT DUP8 0xD0 PUSH7 0x8BEF79043E852D JUMPI 0xD4 0xD7 0xAB 0xDF 0x26 0xA6 0xF7 0x4F SWAP14 DUP16 0x28 PUSH5 0x736F6C6343 STOP ADDMOD SMOD STOP CALLER "
				},
				"gasEstimates": {
					"creation": {
						"codeDepositCost": "650000",
						"executionCost": "683",
						"totalCost": "650683"
					},
					"external": {
						"getDay(uint256)": "infinite",
						"getDaysInMonth(uint8,uint16)": "infinite",
						"getHour(uint256)": "infinite",
						"getMinute(uint256)": "infinite",
						"getMonth(uint256)": "infinite",
						"getSecond(uint256)": "infinite",
						"getWeekday(uint256)": "infinite",
						"getYear(uint256)": "infinite",
						"isLeapYear(uint16)": "infinite",
						"leapYearsBefore(uint256)": "infinite"
					},
					"internal": {
						"parseTimestamp(uint256)": "infinite"
					}
				},
				"methodIdentifiers": {
					"getDay(uint256)": "65c72840",
					"getDaysInMonth(uint8,uint16)": "b238ad0e",
					"getHour(uint256)": "3e239e1a",
					"getMinute(uint256)": "fa93f883",
					"getMonth(uint256)": "a324ad24",
					"getSecond(uint256)": "8aa001fc",
					"getWeekday(uint256)": "4ac1ad78",
					"getYear(uint256)": "92d66313",
					"isLeapYear(uint16)": "a6f0e577",
					"leapYearsBefore(uint256)": "b1999937"
				}
			},
			"storageLayout": {
				"storage": [],
				"types": null
			},
			"userdoc": {
				"kind": "user",
				"methods": {},
				"version": 1
			}
		}
	}
}