{
	"DateTime.sol": {
		"DateTime": {
			"abi": [
				{
					"inputs": [
						{
							"internalType": "uint256",
							"name": "timestamp",
							"type": "uint256"
						}
					],
					"name": "getDay",
					"outputs": [
						{
							"internalType": "uint32",
							"name": "",
							"type": "uint32"
						}
					],
					"stateMutability": "pure",
					"type": "function"
				},
				{
					"inputs": [
						{
							"internalType": "uint32",
							"name": "month",
							"type": "uint32"
						},
						{
							"internalType": "uint32",
							"name": "year",
							"type": "uint32"
						}
					],
					"name": "getDaysInMonth",
					"outputs": [
						{
							"internalType": "uint32",
							"name": "",
							"type": "uint32"
						}
					],
					"stateMutability": "pure",
					"type": "function"
				},
				{
					"inputs": [
						{
							"internalType": "uint256",
							"name": "timestamp",
							"type": "uint256"
						}
					],
					"name": "getHour",
					"outputs": [
						{
							"internalType": "uint32",
							"name": "",
							"type": "uint32"
						}
					],
					"stateMutability": "pure",
					"type": "function"
				},
				{
					"inputs": [
						{
							"internalType": "uint256",
							"name": "timestamp",
							"type": "uint256"
						}
					],
					"name": "getMinute",
					"outputs": [
						{
							"internalType": "uint32",
							"name": "",
							"type": "uint32"
						}
					],
					"stateMutability": "pure",
					"type": "function"
				},
				{
					"inputs": [
						{
							"internalType": "uint256",
							"name": "timestamp",
							"type": "uint256"
						}
					],
					"name": "getMonth",
					"outputs": [
						{
							"internalType": "uint32",
							"name": "",
							"type": "uint32"
						}
					],
					"stateMutability": "pure",
					"type": "function"
				},
				{
					"inputs": [
						{
							"internalType": "uint256",
							"name": "timestamp",
							"type": "uint256"
						}
					],
					"name": "getSecond",
					"outputs": [
						{
							"internalType": "uint32",
							"name": "",
							"type": "uint32"
						}
					],
					"stateMutability": "pure",
					"type": "function"
				},
				{
					"inputs": [
						{
							"internalType": "uint256",
							"name": "timestamp",
							"type": "uint256"
						}
					],
					"name": "getYear",
					"outputs": [
						{
							"internalType": "uint32",
							"name": "",
							"type": "uint32"
						}
					],
					"stateMutability": "pure",
					"type": "function"
				},
				{
					"inputs": [
						{
							"internalType": "uint32",
							"name": "year",
							"type": "uint32"
						}
					],
					"name": "isLeapYear",
					"outputs": [
						{
							"internalType": "bool",
							"name": "",
							"type": "bool"
						}
					],
					"stateMutability": "pure",
					"type": "function"
				},
				{
					"inputs": [
						{
							"internalType": "uint256",
							"name": "year",
							"type": "uint256"
						}
					],
					"name": "leapYearsBefore",
					"outputs": [
						{
							"internalType": "uint256",
							"name": "",
							"type": "uint256"
						}
					],
					"stateMutability": "pure",
					"type": "function"
				}
			],
			"devdoc": {
				"kind": "dev",
				"methods": {},
				"version": 1
			},
			"evm": {
				"assembly": "    /* \"DateTime.sol\":57:4963  contract DateTime {... */\n  mstore(0x40, 0x80)\n  callvalue\n  dup1\n  iszero\n  tag_1\n  jumpi\n  0x00\n  dup1\n  revert\ntag_1:\n  pop\n  dataSize(sub_0)\n  dup1\n  dataOffset(sub_0)\n  0x00\n  codecopy\n  0x00\n  return\nstop\n\nsub_0: assembly {\n        /* \"DateTime.sol\":57:4963  contract DateTime {... */\n      mstore(0x40, 0x80)\n      callvalue\n      dup1\n      iszero\n      tag_1\n      jumpi\n      0x00\n      dup1\n      revert\n    tag_1:\n      pop\n      jumpi(tag_2, lt(calldatasize, 0x04))\n      shr(0xe0, calldataload(0x00))\n      dup1\n      0xa01f8518\n      gt\n      tag_12\n      jumpi\n      dup1\n      0xa01f8518\n      eq\n      tag_7\n      jumpi\n      dup1\n      0xa324ad24\n      eq\n      tag_8\n      jumpi\n      dup1\n      0xb1999937\n      eq\n      tag_9\n      jumpi\n      dup1\n      0xcf1742c6\n      eq\n      tag_10\n      jumpi\n      dup1\n      0xfa93f883\n      eq\n      tag_11\n      jumpi\n      jump(tag_2)\n    tag_12:\n      dup1\n      0x3e239e1a\n      eq\n      tag_3\n      jumpi\n      dup1\n      0x65c72840\n      eq\n      tag_4\n      jumpi\n      dup1\n      0x8aa001fc\n      eq\n      tag_5\n      jumpi\n      dup1\n      0x92d66313\n      eq\n      tag_6\n      jumpi\n    tag_2:\n      0x00\n      dup1\n      revert\n        /* \"DateTime.sol\":4556:4688  function getHour(uint timestamp) public pure returns (uint32) {... */\n    tag_3:\n      tag_13\n      0x04\n      dup1\n      calldatasize\n      sub\n      dup2\n      add\n      swap1\n      tag_14\n      swap2\n      swap1\n      tag_15\n      jump\t// in\n    tag_14:\n      tag_16\n      jump\t// in\n    tag_13:\n      mload(0x40)\n      tag_17\n      swap2\n      swap1\n      tag_18\n      jump\t// in\n    tag_17:\n      mload(0x40)\n      dup1\n      swap2\n      sub\n      swap1\n      return\n        /* \"DateTime.sol\":4420:4546  function getDay(uint timestamp) public pure returns (uint32) {... */\n    tag_4:\n      tag_19\n      0x04\n      dup1\n      calldatasize\n      sub\n      dup2\n      add\n      swap1\n      tag_20\n      swap2\n      swap1\n      tag_15\n      jump\t// in\n    tag_20:\n      tag_21\n      jump\t// in\n    tag_19:\n      mload(0x40)\n      tag_22\n      swap2\n      swap1\n      tag_18\n      jump\t// in\n    tag_22:\n      mload(0x40)\n      dup1\n      swap2\n      sub\n      swap1\n      return\n        /* \"DateTime.sol\":4837:4959  function getSecond(uint timestamp) public pure returns (uint32) {... */\n    tag_5:\n      tag_23\n      0x04\n      dup1\n      calldatasize\n      sub\n      dup2\n      add\n      swap1\n      tag_24\n      swap2\n      swap1\n      tag_15\n      jump\t// in\n    tag_24:\n      tag_25\n      jump\t// in\n    tag_23:\n      mload(0x40)\n      tag_26\n      swap2\n      swap1\n      tag_18\n      jump\t// in\n    tag_26:\n      mload(0x40)\n      dup1\n      swap2\n      sub\n      swap1\n      return\n        /* \"DateTime.sol\":3300:4270  function getYear(uint timestamp) public pure returns (uint32) {... */\n    tag_6:\n      tag_27\n      0x04\n      dup1\n      calldatasize\n      sub\n      dup2\n      add\n      swap1\n      tag_28\n      swap2\n      swap1\n      tag_15\n      jump\t// in\n    tag_28:\n      tag_29\n      jump\t// in\n    tag_27:\n      mload(0x40)\n      tag_30\n      swap2\n      swap1\n      tag_18\n      jump\t// in\n    tag_30:\n      mload(0x40)\n      dup1\n      swap2\n      sub\n      swap1\n      return\n        /* \"DateTime.sol\":589:971  function isLeapYear(uint32 year) public pure returns (bool) {... */\n    tag_7:\n      tag_31\n      0x04\n      dup1\n      calldatasize\n      sub\n      dup2\n      add\n      swap1\n      tag_32\n      swap2\n      swap1\n      tag_33\n      jump\t// in\n    tag_32:\n      tag_34\n      jump\t// in\n    tag_31:\n      mload(0x40)\n      tag_35\n      swap2\n      swap1\n      tag_36\n      jump\t// in\n    tag_35:\n      mload(0x40)\n      dup1\n      swap2\n      sub\n      swap1\n      return\n        /* \"DateTime.sol\":4280:4410  function getMonth(uint timestamp) public pure returns (uint32) {... */\n    tag_8:\n      tag_37\n      0x04\n      dup1\n      calldatasize\n      sub\n      dup2\n      add\n      swap1\n      tag_38\n      swap2\n      swap1\n      tag_15\n      jump\t// in\n    tag_38:\n      tag_39\n      jump\t// in\n    tag_37:\n      mload(0x40)\n      tag_40\n      swap2\n      swap1\n      tag_18\n      jump\t// in\n    tag_40:\n      mload(0x40)\n      dup1\n      swap2\n      sub\n      swap1\n      return\n        /* \"DateTime.sol\":981:1141  function leapYearsBefore(uint year) public pure returns (uint) {... */\n    tag_9:\n      tag_41\n      0x04\n      dup1\n      calldatasize\n      sub\n      dup2\n      add\n      swap1\n      tag_42\n      swap2\n      swap1\n      tag_15\n      jump\t// in\n    tag_42:\n      tag_43\n      jump\t// in\n    tag_41:\n      mload(0x40)\n      tag_44\n      swap2\n      swap1\n      tag_45\n      jump\t// in\n    tag_44:\n      mload(0x40)\n      dup1\n      swap2\n      sub\n      swap1\n      return\n        /* \"DateTime.sol\":1151:1724  function getDaysInMonth(uint32 month, uint32 year) public pure returns (uint32) {... */\n    tag_10:\n      tag_46\n      0x04\n      dup1\n      calldatasize\n      sub\n      dup2\n      add\n      swap1\n      tag_47\n      swap2\n      swap1\n      tag_48\n      jump\t// in\n    tag_47:\n      tag_49\n      jump\t// in\n    tag_46:\n      mload(0x40)\n      tag_50\n      swap2\n      swap1\n      tag_18\n      jump\t// in\n    tag_50:\n      mload(0x40)\n      dup1\n      swap2\n      sub\n      swap1\n      return\n        /* \"DateTime.sol\":4698:4827  function getMinute(uint timestamp) public pure returns (uint32) {... */\n    tag_11:\n      tag_51\n      0x04\n      dup1\n      calldatasize\n      sub\n      dup2\n      add\n      swap1\n      tag_52\n      swap2\n      swap1\n      tag_15\n      jump\t// in\n    tag_52:\n      tag_53\n      jump\t// in\n    tag_51:\n      mload(0x40)\n      tag_54\n      swap2\n      swap1\n      tag_18\n      jump\t// in\n    tag_54:\n      mload(0x40)\n      dup1\n      swap2\n      sub\n      swap1\n      return\n        /* \"DateTime.sol\":4556:4688  function getHour(uint timestamp) public pure returns (uint32) {... */\n    tag_16:\n        /* \"DateTime.sol\":4610:4616  uint32 */\n      0x00\n        /* \"DateTime.sol\":4674:4676  24 */\n      0x18\n        /* \"DateTime.sol\":4668:4670  60 */\n      0x3c\n        /* \"DateTime.sol\":4663:4665  60 */\n      dup1\n        /* \"DateTime.sol\":4651:4660  timestamp */\n      dup5\n        /* \"DateTime.sol\":4651:4665  timestamp / 60 */\n      tag_56\n      swap2\n      swap1\n      tag_57\n      jump\t// in\n    tag_56:\n        /* \"DateTime.sol\":4651:4670  timestamp / 60 / 60 */\n      tag_58\n      swap2\n      swap1\n      tag_57\n      jump\t// in\n    tag_58:\n        /* \"DateTime.sol\":4650:4676  (timestamp / 60 / 60) % 24 */\n      tag_59\n      swap2\n      swap1\n      tag_60\n      jump\t// in\n    tag_59:\n        /* \"DateTime.sol\":4636:4677  return uint32((timestamp / 60 / 60) % 24) */\n      swap1\n      pop\n        /* \"DateTime.sol\":4556:4688  function getHour(uint timestamp) public pure returns (uint32) {... */\n      swap2\n      swap1\n      pop\n      jump\t// out\n        /* \"DateTime.sol\":4420:4546  function getDay(uint timestamp) public pure returns (uint32) {... */\n    tag_21:\n        /* \"DateTime.sol\":4473:4479  uint32 */\n      0x00\n        /* \"DateTime.sol\":4506:4531  parseTimestamp(timestamp) */\n      tag_62\n        /* \"DateTime.sol\":4521:4530  timestamp */\n      dup3\n        /* \"DateTime.sol\":4506:4520  parseTimestamp */\n      tag_63\n        /* \"DateTime.sol\":4506:4531  parseTimestamp(timestamp) */\n      jump\t// in\n    tag_62:\n        /* \"DateTime.sol\":4506:4535  parseTimestamp(timestamp).day */\n      0x40\n      add\n      mload\n        /* \"DateTime.sol\":4499:4535  return parseTimestamp(timestamp).day */\n      swap1\n      pop\n        /* \"DateTime.sol\":4420:4546  function getDay(uint timestamp) public pure returns (uint32) {... */\n      swap2\n      swap1\n      pop\n      jump\t// out\n        /* \"DateTime.sol\":4837:4959  function getSecond(uint timestamp) public pure returns (uint32) {... */\n    tag_25:\n        /* \"DateTime.sol\":4893:4899  uint32 */\n      0x00\n        /* \"DateTime.sol\":4945:4947  60 */\n      0x3c\n        /* \"DateTime.sol\":4933:4942  timestamp */\n      dup3\n        /* \"DateTime.sol\":4933:4947  timestamp % 60 */\n      tag_65\n      swap2\n      swap1\n      tag_60\n      jump\t// in\n    tag_65:\n        /* \"DateTime.sol\":4919:4948  return uint32(timestamp % 60) */\n      swap1\n      pop\n        /* \"DateTime.sol\":4837:4959  function getSecond(uint timestamp) public pure returns (uint32) {... */\n      swap2\n      swap1\n      pop\n      jump\t// out\n        /* \"DateTime.sol\":3300:4270  function getYear(uint timestamp) public pure returns (uint32) {... */\n    tag_29:\n        /* \"DateTime.sol\":3354:3360  uint32 */\n      0x00\n        /* \"DateTime.sol\":3380:3404  uint secondsAccountedFor */\n      dup1\n        /* \"DateTime.sol\":3407:3408  0 */\n      0x00\n        /* \"DateTime.sol\":3380:3408  uint secondsAccountedFor = 0 */\n      swap1\n      pop\n        /* \"DateTime.sol\":3426:3437  uint32 year */\n      0x00\n        /* \"DateTime.sol\":3455:3472  uint numLeapYears */\n      dup1\n        /* \"DateTime.sol\":379:387  31536000 */\n      0x01e13380\n        /* \"DateTime.sol\":3542:3551  timestamp */\n      dup6\n        /* \"DateTime.sol\":3542:3569  timestamp / YEAR_IN_SECONDS */\n      tag_67\n      swap2\n      swap1\n      tag_57\n      jump\t// in\n    tag_67:\n        /* \"DateTime.sol\":574:578  1970 */\n      0x07b2\n        /* \"DateTime.sol\":3528:3569  ORIGIN_YEAR + timestamp / YEAR_IN_SECONDS */\n      0xffffffff\n      and\n      tag_68\n      swap2\n      swap1\n      tag_69\n      jump\t// in\n    tag_68:\n        /* \"DateTime.sol\":3514:3570  year = uint32(ORIGIN_YEAR + timestamp / YEAR_IN_SECONDS) */\n      swap2\n      pop\n        /* \"DateTime.sol\":3627:3655  leapYearsBefore(ORIGIN_YEAR) */\n      tag_70\n        /* \"DateTime.sol\":574:578  1970 */\n      0x07b2\n        /* \"DateTime.sol\":3627:3655  leapYearsBefore(ORIGIN_YEAR) */\n      0xffffffff\n      and\n        /* \"DateTime.sol\":3627:3642  leapYearsBefore */\n      tag_43\n        /* \"DateTime.sol\":3627:3655  leapYearsBefore(ORIGIN_YEAR) */\n      jump\t// in\n    tag_70:\n        /* \"DateTime.sol\":3603:3624  leapYearsBefore(year) */\n      tag_71\n        /* \"DateTime.sol\":3619:3623  year */\n      dup4\n        /* \"DateTime.sol\":3603:3624  leapYearsBefore(year) */\n      0xffffffff\n      and\n        /* \"DateTime.sol\":3603:3618  leapYearsBefore */\n      tag_43\n        /* \"DateTime.sol\":3603:3624  leapYearsBefore(year) */\n      jump\t// in\n    tag_71:\n        /* \"DateTime.sol\":3603:3655  leapYearsBefore(year) - leapYearsBefore(ORIGIN_YEAR) */\n      tag_72\n      swap2\n      swap1\n      tag_73\n      jump\t// in\n    tag_72:\n        /* \"DateTime.sol\":3588:3655  numLeapYears = leapYearsBefore(year) - leapYearsBefore(ORIGIN_YEAR) */\n      swap1\n      pop\n        /* \"DateTime.sol\":3720:3732  numLeapYears */\n      dup1\n        /* \"DateTime.sol\":434:442  31622400 */\n      0x01e28500\n        /* \"DateTime.sol\":3697:3732  LEAP_YEAR_IN_SECONDS * numLeapYears */\n      tag_74\n      swap2\n      swap1\n      tag_75\n      jump\t// in\n    tag_74:\n        /* \"DateTime.sol\":3674:3732  secondsAccountedFor += LEAP_YEAR_IN_SECONDS * numLeapYears */\n      dup4\n      tag_76\n      swap2\n      swap1\n      tag_69\n      jump\t// in\n    tag_76:\n      swap3\n      pop\n        /* \"DateTime.sol\":3813:3825  numLeapYears */\n      dup1\n        /* \"DateTime.sol\":574:578  1970 */\n      0x07b2\n        /* \"DateTime.sol\":3792:3796  year */\n      dup4\n        /* \"DateTime.sol\":3792:3810  year - ORIGIN_YEAR */\n      tag_77\n      swap2\n      swap1\n      tag_78\n      jump\t// in\n    tag_77:\n        /* \"DateTime.sol\":3792:3825  year - ORIGIN_YEAR - numLeapYears */\n      0xffffffff\n      and\n      tag_79\n      swap2\n      swap1\n      tag_73\n      jump\t// in\n    tag_79:\n        /* \"DateTime.sol\":379:387  31536000 */\n      0x01e13380\n        /* \"DateTime.sol\":3773:3826  YEAR_IN_SECONDS * (year - ORIGIN_YEAR - numLeapYears) */\n      tag_80\n      swap2\n      swap1\n      tag_75\n      jump\t// in\n    tag_80:\n        /* \"DateTime.sol\":3750:3826  secondsAccountedFor += YEAR_IN_SECONDS * (year - ORIGIN_YEAR - numLeapYears) */\n      dup4\n      tag_81\n      swap2\n      swap1\n      tag_69\n      jump\t// in\n    tag_81:\n      swap3\n      pop\n        /* \"DateTime.sol\":3845:4231  while (secondsAccountedFor > timestamp) {... */\n    tag_82:\n        /* \"DateTime.sol\":3874:3883  timestamp */\n      dup5\n        /* \"DateTime.sol\":3852:3871  secondsAccountedFor */\n      dup4\n        /* \"DateTime.sol\":3852:3883  secondsAccountedFor > timestamp */\n      gt\n        /* \"DateTime.sol\":3845:4231  while (secondsAccountedFor > timestamp) {... */\n      iszero\n      tag_83\n      jumpi\n        /* \"DateTime.sol\":3915:3943  isLeapYear(uint32(year - 1)) */\n      tag_84\n        /* \"DateTime.sol\":3940:3941  1 */\n      0x01\n        /* \"DateTime.sol\":3933:3937  year */\n      dup4\n        /* \"DateTime.sol\":3933:3941  year - 1 */\n      tag_85\n      swap2\n      swap1\n      tag_78\n      jump\t// in\n    tag_85:\n        /* \"DateTime.sol\":3915:3925  isLeapYear */\n      tag_34\n        /* \"DateTime.sol\":3915:3943  isLeapYear(uint32(year - 1)) */\n      jump\t// in\n    tag_84:\n        /* \"DateTime.sol\":3911:4178  if (isLeapYear(uint32(year - 1))) {... */\n      iszero\n      tag_86\n      jumpi\n        /* \"DateTime.sol\":434:442  31622400 */\n      0x01e28500\n        /* \"DateTime.sol\":3979:4022  secondsAccountedFor -= LEAP_YEAR_IN_SECONDS */\n      dup4\n      tag_87\n      swap2\n      swap1\n      tag_73\n      jump\t// in\n    tag_87:\n      swap3\n      pop\n        /* \"DateTime.sol\":3911:4178  if (isLeapYear(uint32(year - 1))) {... */\n      jump(tag_88)\n    tag_86:\n        /* \"DateTime.sol\":379:387  31536000 */\n      0x01e13380\n        /* \"DateTime.sol\":4113:4151  secondsAccountedFor -= YEAR_IN_SECONDS */\n      dup4\n      tag_89\n      swap2\n      swap1\n      tag_73\n      jump\t// in\n    tag_89:\n      swap3\n      pop\n        /* \"DateTime.sol\":3911:4178  if (isLeapYear(uint32(year - 1))) {... */\n    tag_88:\n        /* \"DateTime.sol\":4211:4212  1 */\n      0x01\n        /* \"DateTime.sol\":4203:4212  year -= 1 */\n      dup3\n      tag_90\n      swap2\n      swap1\n      tag_78\n      jump\t// in\n    tag_90:\n      swap2\n      pop\n        /* \"DateTime.sol\":3845:4231  while (secondsAccountedFor > timestamp) {... */\n      jump(tag_82)\n    tag_83:\n        /* \"DateTime.sol\":4255:4259  year */\n      dup2\n        /* \"DateTime.sol\":4248:4259  return year */\n      swap4\n      pop\n      pop\n      pop\n      pop\n        /* \"DateTime.sol\":3300:4270  function getYear(uint timestamp) public pure returns (uint32) {... */\n      swap2\n      swap1\n      pop\n      jump\t// out\n        /* \"DateTime.sol\":589:971  function isLeapYear(uint32 year) public pure returns (bool) {... */\n    tag_34:\n        /* \"DateTime.sol\":643:647  bool */\n      0x00\n        /* \"DateTime.sol\":683:684  0 */\n      dup1\n        /* \"DateTime.sol\":678:679  4 */\n      0x04\n        /* \"DateTime.sol\":671:675  year */\n      dup4\n        /* \"DateTime.sol\":671:679  year % 4 */\n      tag_92\n      swap2\n      swap1\n      tag_93\n      jump\t// in\n    tag_92:\n        /* \"DateTime.sol\":671:684  year % 4 != 0 */\n      0xffffffff\n      and\n      eq\n        /* \"DateTime.sol\":667:743  if (year % 4 != 0) {... */\n      tag_94\n      jumpi\n        /* \"DateTime.sol\":719:724  false */\n      0x00\n        /* \"DateTime.sol\":712:724  return false */\n      swap1\n      pop\n      jump(tag_91)\n        /* \"DateTime.sol\":667:743  if (year % 4 != 0) {... */\n    tag_94:\n        /* \"DateTime.sol\":778:779  0 */\n      0x00\n        /* \"DateTime.sol\":771:774  100 */\n      0x64\n        /* \"DateTime.sol\":764:768  year */\n      dup4\n        /* \"DateTime.sol\":764:774  year % 100 */\n      tag_95\n      swap2\n      swap1\n      tag_93\n      jump\t// in\n    tag_95:\n        /* \"DateTime.sol\":764:779  year % 100 != 0 */\n      0xffffffff\n      and\n      eq\n        /* \"DateTime.sol\":760:837  if (year % 100 != 0) {... */\n      tag_96\n      jumpi\n        /* \"DateTime.sol\":814:818  true */\n      0x01\n        /* \"DateTime.sol\":807:818  return true */\n      swap1\n      pop\n      jump(tag_91)\n        /* \"DateTime.sol\":760:837  if (year % 100 != 0) {... */\n    tag_96:\n        /* \"DateTime.sol\":872:873  0 */\n      0x00\n        /* \"DateTime.sol\":865:868  400 */\n      0x0190\n        /* \"DateTime.sol\":858:862  year */\n      dup4\n        /* \"DateTime.sol\":858:868  year % 400 */\n      tag_97\n      swap2\n      swap1\n      tag_93\n      jump\t// in\n    tag_97:\n        /* \"DateTime.sol\":858:873  year % 400 != 0 */\n      0xffffffff\n      and\n      eq\n        /* \"DateTime.sol\":854:932  if (year % 400 != 0) {... */\n      tag_98\n      jumpi\n        /* \"DateTime.sol\":908:913  false */\n      0x00\n        /* \"DateTime.sol\":901:913  return false */\n      swap1\n      pop\n      jump(tag_91)\n        /* \"DateTime.sol\":854:932  if (year % 400 != 0) {... */\n    tag_98:\n        /* \"DateTime.sol\":956:960  true */\n      0x01\n        /* \"DateTime.sol\":949:960  return true */\n      swap1\n      pop\n        /* \"DateTime.sol\":589:971  function isLeapYear(uint32 year) public pure returns (bool) {... */\n    tag_91:\n      swap2\n      swap1\n      pop\n      jump\t// out\n        /* \"DateTime.sol\":4280:4410  function getMonth(uint timestamp) public pure returns (uint32) {... */\n    tag_39:\n        /* \"DateTime.sol\":4335:4341  uint32 */\n      0x00\n        /* \"DateTime.sol\":4368:4393  parseTimestamp(timestamp) */\n      tag_100\n        /* \"DateTime.sol\":4383:4392  timestamp */\n      dup3\n        /* \"DateTime.sol\":4368:4382  parseTimestamp */\n      tag_63\n        /* \"DateTime.sol\":4368:4393  parseTimestamp(timestamp) */\n      jump\t// in\n    tag_100:\n        /* \"DateTime.sol\":4368:4399  parseTimestamp(timestamp).month */\n      0x20\n      add\n      mload\n        /* \"DateTime.sol\":4361:4399  return parseTimestamp(timestamp).month */\n      swap1\n      pop\n        /* \"DateTime.sol\":4280:4410  function getMonth(uint timestamp) public pure returns (uint32) {... */\n      swap2\n      swap1\n      pop\n      jump\t// out\n        /* \"DateTime.sol\":981:1141  function leapYearsBefore(uint year) public pure returns (uint) {... */\n    tag_43:\n        /* \"DateTime.sol\":1038:1042  uint */\n      0x00\n        /* \"DateTime.sol\":1070:1071  1 */\n      0x01\n        /* \"DateTime.sol\":1062:1071  year -= 1 */\n      dup3\n      tag_102\n      swap2\n      swap1\n      tag_73\n      jump\t// in\n    tag_102:\n      swap2\n      pop\n        /* \"DateTime.sol\":1127:1130  400 */\n      0x0190\n        /* \"DateTime.sol\":1120:1124  year */\n      dup3\n        /* \"DateTime.sol\":1120:1130  year / 400 */\n      tag_103\n      swap2\n      swap1\n      tag_57\n      jump\t// in\n    tag_103:\n        /* \"DateTime.sol\":1114:1117  100 */\n      0x64\n        /* \"DateTime.sol\":1107:1111  year */\n      dup4\n        /* \"DateTime.sol\":1107:1117  year / 100 */\n      tag_104\n      swap2\n      swap1\n      tag_57\n      jump\t// in\n    tag_104:\n        /* \"DateTime.sol\":1103:1104  4 */\n      0x04\n        /* \"DateTime.sol\":1096:1100  year */\n      dup5\n        /* \"DateTime.sol\":1096:1104  year / 4 */\n      tag_105\n      swap2\n      swap1\n      tag_57\n      jump\t// in\n    tag_105:\n        /* \"DateTime.sol\":1096:1117  year / 4 - year / 100 */\n      tag_106\n      swap2\n      swap1\n      tag_73\n      jump\t// in\n    tag_106:\n        /* \"DateTime.sol\":1096:1130  year / 4 - year / 100 + year / 400 */\n      tag_107\n      swap2\n      swap1\n      tag_69\n      jump\t// in\n    tag_107:\n        /* \"DateTime.sol\":1089:1130  return year / 4 - year / 100 + year / 400 */\n      swap1\n      pop\n        /* \"DateTime.sol\":981:1141  function leapYearsBefore(uint year) public pure returns (uint) {... */\n      swap2\n      swap1\n      pop\n      jump\t// out\n        /* \"DateTime.sol\":1151:1724  function getDaysInMonth(uint32 month, uint32 year) public pure returns (uint32) {... */\n    tag_49:\n        /* \"DateTime.sol\":1223:1229  uint32 */\n      0x00\n        /* \"DateTime.sol\":1262:1263  1 */\n      0x01\n        /* \"DateTime.sol\":1253:1258  month */\n      dup4\n        /* \"DateTime.sol\":1253:1263  month == 1 */\n      0xffffffff\n      and\n      eq\n        /* \"DateTime.sol\":1253:1277  month == 1 || month == 3 */\n      dup1\n      tag_109\n      jumpi\n      pop\n        /* \"DateTime.sol\":1276:1277  3 */\n      0x03\n        /* \"DateTime.sol\":1267:1272  month */\n      dup4\n        /* \"DateTime.sol\":1267:1277  month == 3 */\n      0xffffffff\n      and\n      eq\n        /* \"DateTime.sol\":1253:1277  month == 1 || month == 3 */\n    tag_109:\n        /* \"DateTime.sol\":1253:1291  month == 1 || month == 3 || month == 5 */\n      dup1\n      tag_110\n      jumpi\n      pop\n        /* \"DateTime.sol\":1290:1291  5 */\n      0x05\n        /* \"DateTime.sol\":1281:1286  month */\n      dup4\n        /* \"DateTime.sol\":1281:1291  month == 5 */\n      0xffffffff\n      and\n      eq\n        /* \"DateTime.sol\":1253:1291  month == 1 || month == 3 || month == 5 */\n    tag_110:\n        /* \"DateTime.sol\":1253:1305  month == 1 || month == 3 || month == 5 || month == 7 */\n      dup1\n      tag_111\n      jumpi\n      pop\n        /* \"DateTime.sol\":1304:1305  7 */\n      0x07\n        /* \"DateTime.sol\":1295:1300  month */\n      dup4\n        /* \"DateTime.sol\":1295:1305  month == 7 */\n      0xffffffff\n      and\n      eq\n        /* \"DateTime.sol\":1253:1305  month == 1 || month == 3 || month == 5 || month == 7 */\n    tag_111:\n        /* \"DateTime.sol\":1253:1319  month == 1 || month == 3 || month == 5 || month == 7 || month == 8 */\n      dup1\n      tag_112\n      jumpi\n      pop\n        /* \"DateTime.sol\":1318:1319  8 */\n      0x08\n        /* \"DateTime.sol\":1309:1314  month */\n      dup4\n        /* \"DateTime.sol\":1309:1319  month == 8 */\n      0xffffffff\n      and\n      eq\n        /* \"DateTime.sol\":1253:1319  month == 1 || month == 3 || month == 5 || month == 7 || month == 8 */\n    tag_112:\n        /* \"DateTime.sol\":1253:1334  month == 1 || month == 3 || month == 5 || month == 7 || month == 8 || month == 10 */\n      dup1\n      tag_113\n      jumpi\n      pop\n        /* \"DateTime.sol\":1332:1334  10 */\n      0x0a\n        /* \"DateTime.sol\":1323:1328  month */\n      dup4\n        /* \"DateTime.sol\":1323:1334  month == 10 */\n      0xffffffff\n      and\n      eq\n        /* \"DateTime.sol\":1253:1334  month == 1 || month == 3 || month == 5 || month == 7 || month == 8 || month == 10 */\n    tag_113:\n        /* \"DateTime.sol\":1253:1349  month == 1 || month == 3 || month == 5 || month == 7 || month == 8 || month == 10 || month == 12 */\n      dup1\n      tag_114\n      jumpi\n      pop\n        /* \"DateTime.sol\":1347:1349  12 */\n      0x0c\n        /* \"DateTime.sol\":1338:1343  month */\n      dup4\n        /* \"DateTime.sol\":1338:1349  month == 12 */\n      0xffffffff\n      and\n      eq\n        /* \"DateTime.sol\":1253:1349  month == 1 || month == 3 || month == 5 || month == 7 || month == 8 || month == 10 || month == 12 */\n    tag_114:\n        /* \"DateTime.sol\":1249:1714  if (month == 1 || month == 3 || month == 5 || month == 7 || month == 8 || month == 10 || month == 12) {... */\n      iszero\n      tag_115\n      jumpi\n        /* \"DateTime.sol\":1384:1386  31 */\n      0x1f\n        /* \"DateTime.sol\":1377:1386  return 31 */\n      swap1\n      pop\n      jump(tag_108)\n        /* \"DateTime.sol\":1249:1714  if (month == 1 || month == 3 || month == 5 || month == 7 || month == 8 || month == 10 || month == 12) {... */\n    tag_115:\n        /* \"DateTime.sol\":1440:1441  4 */\n      0x04\n        /* \"DateTime.sol\":1431:1436  month */\n      dup4\n        /* \"DateTime.sol\":1431:1441  month == 4 */\n      0xffffffff\n      and\n      eq\n        /* \"DateTime.sol\":1431:1455  month == 4 || month == 6 */\n      dup1\n      tag_117\n      jumpi\n      pop\n        /* \"DateTime.sol\":1454:1455  6 */\n      0x06\n        /* \"DateTime.sol\":1445:1450  month */\n      dup4\n        /* \"DateTime.sol\":1445:1455  month == 6 */\n      0xffffffff\n      and\n      eq\n        /* \"DateTime.sol\":1431:1455  month == 4 || month == 6 */\n    tag_117:\n        /* \"DateTime.sol\":1431:1469  month == 4 || month == 6 || month == 9 */\n      dup1\n      tag_118\n      jumpi\n      pop\n        /* \"DateTime.sol\":1468:1469  9 */\n      0x09\n        /* \"DateTime.sol\":1459:1464  month */\n      dup4\n        /* \"DateTime.sol\":1459:1469  month == 9 */\n      0xffffffff\n      and\n      eq\n        /* \"DateTime.sol\":1431:1469  month == 4 || month == 6 || month == 9 */\n    tag_118:\n        /* \"DateTime.sol\":1431:1484  month == 4 || month == 6 || month == 9 || month == 11 */\n      dup1\n      tag_119\n      jumpi\n      pop\n        /* \"DateTime.sol\":1482:1484  11 */\n      0x0b\n        /* \"DateTime.sol\":1473:1478  month */\n      dup4\n        /* \"DateTime.sol\":1473:1484  month == 11 */\n      0xffffffff\n      and\n      eq\n        /* \"DateTime.sol\":1431:1484  month == 4 || month == 6 || month == 9 || month == 11 */\n    tag_119:\n        /* \"DateTime.sol\":1427:1714  if (month == 4 || month == 6 || month == 9 || month == 11) {... */\n      iszero\n      tag_120\n      jumpi\n        /* \"DateTime.sol\":1519:1521  30 */\n      0x1e\n        /* \"DateTime.sol\":1512:1521  return 30 */\n      swap1\n      pop\n      jump(tag_108)\n        /* \"DateTime.sol\":1427:1714  if (month == 4 || month == 6 || month == 9 || month == 11) {... */\n    tag_120:\n        /* \"DateTime.sol\":1566:1582  isLeapYear(year) */\n      tag_122\n        /* \"DateTime.sol\":1577:1581  year */\n      dup3\n        /* \"DateTime.sol\":1566:1576  isLeapYear */\n      tag_34\n        /* \"DateTime.sol\":1566:1582  isLeapYear(year) */\n      jump\t// in\n    tag_122:\n        /* \"DateTime.sol\":1562:1714  if (isLeapYear(year)) {... */\n      iszero\n      tag_123\n      jumpi\n        /* \"DateTime.sol\":1617:1619  29 */\n      0x1d\n        /* \"DateTime.sol\":1610:1619  return 29 */\n      swap1\n      pop\n      jump(tag_108)\n        /* \"DateTime.sol\":1562:1714  if (isLeapYear(year)) {... */\n    tag_123:\n        /* \"DateTime.sol\":1693:1695  28 */\n      0x1c\n        /* \"DateTime.sol\":1686:1695  return 28 */\n      swap1\n      pop\n        /* \"DateTime.sol\":1151:1724  function getDaysInMonth(uint32 month, uint32 year) public pure returns (uint32) {... */\n    tag_108:\n      swap3\n      swap2\n      pop\n      pop\n      jump\t// out\n        /* \"DateTime.sol\":4698:4827  function getMinute(uint timestamp) public pure returns (uint32) {... */\n    tag_53:\n        /* \"DateTime.sol\":4754:4760  uint32 */\n      0x00\n        /* \"DateTime.sol\":4813:4815  60 */\n      0x3c\n        /* \"DateTime.sol\":4807:4809  60 */\n      dup1\n        /* \"DateTime.sol\":4795:4804  timestamp */\n      dup4\n        /* \"DateTime.sol\":4795:4809  timestamp / 60 */\n      tag_126\n      swap2\n      swap1\n      tag_57\n      jump\t// in\n    tag_126:\n        /* \"DateTime.sol\":4794:4815  (timestamp / 60) % 60 */\n      tag_127\n      swap2\n      swap1\n      tag_60\n      jump\t// in\n    tag_127:\n        /* \"DateTime.sol\":4780:4816  return uint32((timestamp / 60) % 60) */\n      swap1\n      pop\n        /* \"DateTime.sol\":4698:4827  function getMinute(uint timestamp) public pure returns (uint32) {... */\n      swap2\n      swap1\n      pop\n      jump\t// out\n        /* \"DateTime.sol\":1734:3290  function parseTimestamp(uint timestamp) internal pure returns (_DateTime memory dt) {... */\n    tag_63:\n        /* \"DateTime.sol\":1797:1816  _DateTime memory dt */\n      tag_128\n      tag_129\n      jump\t// in\n    tag_128:\n        /* \"DateTime.sol\":1836:1860  uint secondsAccountedFor */\n      0x00\n        /* \"DateTime.sol\":1882:1890  uint buf */\n      dup1\n        /* \"DateTime.sol\":1908:1916  uint32 i */\n      dup1\n        /* \"DateTime.sol\":1968:1986  getYear(timestamp) */\n      tag_131\n        /* \"DateTime.sol\":1976:1985  timestamp */\n      dup6\n        /* \"DateTime.sol\":1968:1975  getYear */\n      tag_29\n        /* \"DateTime.sol\":1968:1986  getYear(timestamp) */\n      jump\t// in\n    tag_131:\n        /* \"DateTime.sol\":1958:1960  dt */\n      dup5\n        /* \"DateTime.sol\":1958:1965  dt.year */\n      0x00\n      add\n        /* \"DateTime.sol\":1958:1986  dt.year = getYear(timestamp) */\n      swap1\n      0xffffffff\n      and\n      swap1\n      dup2\n      0xffffffff\n      and\n      dup2\n      mstore\n      pop\n      pop\n        /* \"DateTime.sol\":2037:2065  leapYearsBefore(ORIGIN_YEAR) */\n      tag_132\n        /* \"DateTime.sol\":574:578  1970 */\n      0x07b2\n        /* \"DateTime.sol\":2037:2065  leapYearsBefore(ORIGIN_YEAR) */\n      0xffffffff\n      and\n        /* \"DateTime.sol\":2037:2052  leapYearsBefore */\n      tag_43\n        /* \"DateTime.sol\":2037:2065  leapYearsBefore(ORIGIN_YEAR) */\n      jump\t// in\n    tag_132:\n        /* \"DateTime.sol\":2010:2034  leapYearsBefore(dt.year) */\n      tag_133\n        /* \"DateTime.sol\":2026:2028  dt */\n      dup6\n        /* \"DateTime.sol\":2026:2033  dt.year */\n      0x00\n      add\n      mload\n        /* \"DateTime.sol\":2010:2034  leapYearsBefore(dt.year) */\n      0xffffffff\n      and\n        /* \"DateTime.sol\":2010:2025  leapYearsBefore */\n      tag_43\n        /* \"DateTime.sol\":2010:2034  leapYearsBefore(dt.year) */\n      jump\t// in\n    tag_133:\n        /* \"DateTime.sol\":2010:2065  leapYearsBefore(dt.year) - leapYearsBefore(ORIGIN_YEAR) */\n      tag_134\n      swap2\n      swap1\n      tag_73\n      jump\t// in\n    tag_134:\n        /* \"DateTime.sol\":2004:2065  buf = leapYearsBefore(dt.year) - leapYearsBefore(ORIGIN_YEAR) */\n      swap2\n      pop\n        /* \"DateTime.sol\":2130:2133  buf */\n      dup2\n        /* \"DateTime.sol\":434:442  31622400 */\n      0x01e28500\n        /* \"DateTime.sol\":2107:2133  LEAP_YEAR_IN_SECONDS * buf */\n      tag_135\n      swap2\n      swap1\n      tag_75\n      jump\t// in\n    tag_135:\n        /* \"DateTime.sol\":2084:2133  secondsAccountedFor += LEAP_YEAR_IN_SECONDS * buf */\n      dup4\n      tag_136\n      swap2\n      swap1\n      tag_69\n      jump\t// in\n    tag_136:\n      swap3\n      pop\n        /* \"DateTime.sol\":2217:2220  buf */\n      dup2\n        /* \"DateTime.sol\":574:578  1970 */\n      0x07b2\n        /* \"DateTime.sol\":2193:2195  dt */\n      dup6\n        /* \"DateTime.sol\":2193:2200  dt.year */\n      0x00\n      add\n      mload\n        /* \"DateTime.sol\":2193:2214  dt.year - ORIGIN_YEAR */\n      tag_137\n      swap2\n      swap1\n      tag_78\n      jump\t// in\n    tag_137:\n        /* \"DateTime.sol\":2193:2220  dt.year - ORIGIN_YEAR - buf */\n      0xffffffff\n      and\n      tag_138\n      swap2\n      swap1\n      tag_73\n      jump\t// in\n    tag_138:\n        /* \"DateTime.sol\":379:387  31536000 */\n      0x01e13380\n        /* \"DateTime.sol\":2174:2221  YEAR_IN_SECONDS * (dt.year - ORIGIN_YEAR - buf) */\n      tag_139\n      swap2\n      swap1\n      tag_75\n      jump\t// in\n    tag_139:\n        /* \"DateTime.sol\":2151:2221  secondsAccountedFor += YEAR_IN_SECONDS * (dt.year - ORIGIN_YEAR - buf) */\n      dup4\n      tag_140\n      swap2\n      swap1\n      tag_69\n      jump\t// in\n    tag_140:\n      swap3\n      pop\n        /* \"DateTime.sol\":2263:2282  uint secondsInMonth */\n      0x00\n        /* \"DateTime.sol\":2309:2310  1 */\n      0x01\n        /* \"DateTime.sol\":2305:2310  i = 1 */\n      swap2\n      pop\n        /* \"DateTime.sol\":2300:2685  for (i = 1; i <= 12; i++) {... */\n    tag_141:\n        /* \"DateTime.sol\":2317:2319  12 */\n      0x0c\n        /* \"DateTime.sol\":2312:2313  i */\n      dup3\n        /* \"DateTime.sol\":2312:2319  i <= 12 */\n      0xffffffff\n      and\n      gt\n        /* \"DateTime.sol\":2300:2685  for (i = 1; i <= 12; i++) {... */\n      tag_142\n      jumpi\n        /* \"DateTime.sol\":2386:2412  getDaysInMonth(i, dt.year) */\n      tag_144\n        /* \"DateTime.sol\":2401:2402  i */\n      dup3\n        /* \"DateTime.sol\":2404:2406  dt */\n      dup7\n        /* \"DateTime.sol\":2404:2411  dt.year */\n      0x00\n      add\n      mload\n        /* \"DateTime.sol\":2386:2400  getDaysInMonth */\n      tag_49\n        /* \"DateTime.sol\":2386:2412  getDaysInMonth(i, dt.year) */\n      jump\t// in\n    tag_144:\n        /* \"DateTime.sol\":2369:2412  DAY_IN_SECONDS * getDaysInMonth(i, dt.year) */\n      0xffffffff\n      and\n        /* \"DateTime.sol\":332:337  86400 */\n      0x015180\n        /* \"DateTime.sol\":2369:2412  DAY_IN_SECONDS * getDaysInMonth(i, dt.year) */\n      tag_145\n      swap2\n      swap1\n      tag_75\n      jump\t// in\n    tag_145:\n        /* \"DateTime.sol\":2352:2412  secondsInMonth = DAY_IN_SECONDS * getDaysInMonth(i, dt.year) */\n      swap1\n      pop\n        /* \"DateTime.sol\":2481:2490  timestamp */\n      dup6\n        /* \"DateTime.sol\":2459:2478  secondsAccountedFor */\n      dup5\n        /* \"DateTime.sol\":2442:2456  secondsInMonth */\n      dup3\n        /* \"DateTime.sol\":2442:2478  secondsInMonth + secondsAccountedFor */\n      tag_146\n      swap2\n      swap1\n      tag_69\n      jump\t// in\n    tag_146:\n        /* \"DateTime.sol\":2442:2490  secondsInMonth + secondsAccountedFor > timestamp */\n      gt\n        /* \"DateTime.sol\":2438:2604  if (secondsInMonth + secondsAccountedFor > timestamp) {... */\n      iszero\n      tag_147\n      jumpi\n        /* \"DateTime.sol\":2537:2538  i */\n      dup2\n        /* \"DateTime.sol\":2526:2528  dt */\n      dup6\n        /* \"DateTime.sol\":2526:2534  dt.month */\n      0x20\n      add\n        /* \"DateTime.sol\":2526:2538  dt.month = i */\n      swap1\n      0xffffffff\n      and\n      swap1\n      dup2\n      0xffffffff\n      and\n      dup2\n      mstore\n      pop\n      pop\n        /* \"DateTime.sol\":2572:2577  break */\n      jump(tag_142)\n        /* \"DateTime.sol\":2438:2604  if (secondsInMonth + secondsAccountedFor > timestamp) {... */\n    tag_147:\n        /* \"DateTime.sol\":2652:2666  secondsInMonth */\n      dup1\n        /* \"DateTime.sol\":2629:2666  secondsAccountedFor += secondsInMonth */\n      dup5\n      tag_148\n      swap2\n      swap1\n      tag_69\n      jump\t// in\n    tag_148:\n      swap4\n      pop\n        /* \"DateTime.sol\":2321:2324  i++ */\n      dup2\n      dup1\n      tag_149\n      swap1\n      tag_150\n      jump\t// in\n    tag_149:\n      swap3\n      pop\n      pop\n        /* \"DateTime.sol\":2300:2685  for (i = 1; i <= 12; i++) {... */\n      jump(tag_141)\n    tag_142:\n        /* \"DateTime.sol\":2738:2739  1 */\n      0x01\n        /* \"DateTime.sol\":2734:2739  i = 1 */\n      swap2\n      pop\n        /* \"DateTime.sol\":2729:3057  for (i = 1; i <= getDaysInMonth(dt.month, dt.year); i++) {... */\n    tag_151:\n        /* \"DateTime.sol\":2746:2779  getDaysInMonth(dt.month, dt.year) */\n      tag_154\n        /* \"DateTime.sol\":2761:2763  dt */\n      dup6\n        /* \"DateTime.sol\":2761:2769  dt.month */\n      0x20\n      add\n      mload\n        /* \"DateTime.sol\":2771:2773  dt */\n      dup7\n        /* \"DateTime.sol\":2771:2778  dt.year */\n      0x00\n      add\n      mload\n        /* \"DateTime.sol\":2746:2760  getDaysInMonth */\n      tag_49\n        /* \"DateTime.sol\":2746:2779  getDaysInMonth(dt.month, dt.year) */\n      jump\t// in\n    tag_154:\n        /* \"DateTime.sol\":2741:2779  i <= getDaysInMonth(dt.month, dt.year) */\n      0xffffffff\n      and\n        /* \"DateTime.sol\":2741:2742  i */\n      dup3\n        /* \"DateTime.sol\":2741:2779  i <= getDaysInMonth(dt.month, dt.year) */\n      0xffffffff\n      and\n      gt\n        /* \"DateTime.sol\":2729:3057  for (i = 1; i <= getDaysInMonth(dt.month, dt.year); i++) {... */\n      tag_152\n      jumpi\n        /* \"DateTime.sol\":2855:2864  timestamp */\n      dup6\n        /* \"DateTime.sol\":2833:2852  secondsAccountedFor */\n      dup5\n        /* \"DateTime.sol\":332:337  86400 */\n      0x015180\n        /* \"DateTime.sol\":2816:2852  DAY_IN_SECONDS + secondsAccountedFor */\n      tag_155\n      swap2\n      swap1\n      tag_69\n      jump\t// in\n    tag_155:\n        /* \"DateTime.sol\":2816:2864  DAY_IN_SECONDS + secondsAccountedFor > timestamp */\n      gt\n        /* \"DateTime.sol\":2812:2976  if (DAY_IN_SECONDS + secondsAccountedFor > timestamp) {... */\n      iszero\n      tag_156\n      jumpi\n        /* \"DateTime.sol\":2909:2910  i */\n      dup2\n        /* \"DateTime.sol\":2900:2902  dt */\n      dup6\n        /* \"DateTime.sol\":2900:2906  dt.day */\n      0x40\n      add\n        /* \"DateTime.sol\":2900:2910  dt.day = i */\n      swap1\n      0xffffffff\n      and\n      swap1\n      dup2\n      0xffffffff\n      and\n      dup2\n      mstore\n      pop\n      pop\n        /* \"DateTime.sol\":2944:2949  break */\n      jump(tag_152)\n        /* \"DateTime.sol\":2812:2976  if (DAY_IN_SECONDS + secondsAccountedFor > timestamp) {... */\n    tag_156:\n        /* \"DateTime.sol\":332:337  86400 */\n      0x015180\n        /* \"DateTime.sol\":3001:3038  secondsAccountedFor += DAY_IN_SECONDS */\n      dup5\n      tag_157\n      swap2\n      swap1\n      tag_69\n      jump\t// in\n    tag_157:\n      swap4\n      pop\n        /* \"DateTime.sol\":2781:2784  i++ */\n      dup2\n      dup1\n      tag_158\n      swap1\n      tag_150\n      jump\t// in\n    tag_158:\n      swap3\n      pop\n      pop\n        /* \"DateTime.sol\":2729:3057  for (i = 1; i <= getDaysInMonth(dt.month, dt.year); i++) {... */\n      jump(tag_151)\n    tag_152:\n        /* \"DateTime.sol\":3112:3130  getHour(timestamp) */\n      tag_159\n        /* \"DateTime.sol\":3120:3129  timestamp */\n      dup7\n        /* \"DateTime.sol\":3112:3119  getHour */\n      tag_16\n        /* \"DateTime.sol\":3112:3130  getHour(timestamp) */\n      jump\t// in\n    tag_159:\n        /* \"DateTime.sol\":3102:3104  dt */\n      dup6\n        /* \"DateTime.sol\":3102:3109  dt.hour */\n      0x60\n      add\n        /* \"DateTime.sol\":3102:3130  dt.hour = getHour(timestamp) */\n      swap1\n      0xffffffff\n      and\n      swap1\n      dup2\n      0xffffffff\n      and\n      dup2\n      mstore\n      pop\n      pop\n        /* \"DateTime.sol\":3185:3205  getMinute(timestamp) */\n      tag_160\n        /* \"DateTime.sol\":3195:3204  timestamp */\n      dup7\n        /* \"DateTime.sol\":3185:3194  getMinute */\n      tag_53\n        /* \"DateTime.sol\":3185:3205  getMinute(timestamp) */\n      jump\t// in\n    tag_160:\n        /* \"DateTime.sol\":3173:3175  dt */\n      dup6\n        /* \"DateTime.sol\":3173:3182  dt.minute */\n      0x80\n      add\n        /* \"DateTime.sol\":3173:3205  dt.minute = getMinute(timestamp) */\n      swap1\n      0xffffffff\n      and\n      swap1\n      dup2\n      0xffffffff\n      and\n      dup2\n      mstore\n      pop\n      pop\n        /* \"DateTime.sol\":3259:3279  getSecond(timestamp) */\n      tag_161\n        /* \"DateTime.sol\":3269:3278  timestamp */\n      dup7\n        /* \"DateTime.sol\":3259:3268  getSecond */\n      tag_25\n        /* \"DateTime.sol\":3259:3279  getSecond(timestamp) */\n      jump\t// in\n    tag_161:\n        /* \"DateTime.sol\":3247:3249  dt */\n      dup6\n        /* \"DateTime.sol\":3247:3256  dt.second */\n      0xa0\n      add\n        /* \"DateTime.sol\":3247:3279  dt.second = getSecond(timestamp) */\n      swap1\n      0xffffffff\n      and\n      swap1\n      dup2\n      0xffffffff\n      and\n      dup2\n      mstore\n      pop\n      pop\n        /* \"DateTime.sol\":1818:3290  {... */\n      pop\n      pop\n      pop\n      pop\n        /* \"DateTime.sol\":1734:3290  function parseTimestamp(uint timestamp) internal pure returns (_DateTime memory dt) {... */\n      swap2\n      swap1\n      pop\n      jump\t// out\n    tag_129:\n      mload(0x40)\n      dup1\n      0xc0\n      add\n      0x40\n      mstore\n      dup1\n      and(0xffffffff, 0x00)\n      dup2\n      mstore\n      0x20\n      add\n      and(0xffffffff, 0x00)\n      dup2\n      mstore\n      0x20\n      add\n      and(0xffffffff, 0x00)\n      dup2\n      mstore\n      0x20\n      add\n      and(0xffffffff, 0x00)\n      dup2\n      mstore\n      0x20\n      add\n      and(0xffffffff, 0x00)\n      dup2\n      mstore\n      0x20\n      add\n      and(0xffffffff, 0x00)\n      dup2\n      mstore\n      pop\n      swap1\n      jump\t// out\n        /* \"#utility.yul\":88:205   */\n    tag_163:\n        /* \"#utility.yul\":197:198   */\n      0x00\n        /* \"#utility.yul\":194:195   */\n      dup1\n        /* \"#utility.yul\":187:199   */\n      revert\n        /* \"#utility.yul\":334:411   */\n    tag_165:\n        /* \"#utility.yul\":371:378   */\n      0x00\n        /* \"#utility.yul\":400:405   */\n      dup2\n        /* \"#utility.yul\":389:405   */\n      swap1\n      pop\n        /* \"#utility.yul\":334:411   */\n      swap2\n      swap1\n      pop\n      jump\t// out\n        /* \"#utility.yul\":417:539   */\n    tag_166:\n        /* \"#utility.yul\":490:514   */\n      tag_183\n        /* \"#utility.yul\":508:513   */\n      dup2\n        /* \"#utility.yul\":490:514   */\n      tag_165\n      jump\t// in\n    tag_183:\n        /* \"#utility.yul\":483:488   */\n      dup2\n        /* \"#utility.yul\":480:515   */\n      eq\n        /* \"#utility.yul\":470:533   */\n      tag_184\n      jumpi\n        /* \"#utility.yul\":529:530   */\n      0x00\n        /* \"#utility.yul\":526:527   */\n      dup1\n        /* \"#utility.yul\":519:531   */\n      revert\n        /* \"#utility.yul\":470:533   */\n    tag_184:\n        /* \"#utility.yul\":417:539   */\n      pop\n      jump\t// out\n        /* \"#utility.yul\":545:684   */\n    tag_167:\n        /* \"#utility.yul\":591:596   */\n      0x00\n        /* \"#utility.yul\":629:635   */\n      dup2\n        /* \"#utility.yul\":616:636   */\n      calldataload\n        /* \"#utility.yul\":607:636   */\n      swap1\n      pop\n        /* \"#utility.yul\":645:678   */\n      tag_186\n        /* \"#utility.yul\":672:677   */\n      dup2\n        /* \"#utility.yul\":645:678   */\n      tag_166\n      jump\t// in\n    tag_186:\n        /* \"#utility.yul\":545:684   */\n      swap3\n      swap2\n      pop\n      pop\n      jump\t// out\n        /* \"#utility.yul\":690:1019   */\n    tag_15:\n        /* \"#utility.yul\":749:755   */\n      0x00\n        /* \"#utility.yul\":798:800   */\n      0x20\n        /* \"#utility.yul\":786:795   */\n      dup3\n        /* \"#utility.yul\":777:784   */\n      dup5\n        /* \"#utility.yul\":773:796   */\n      sub\n        /* \"#utility.yul\":769:801   */\n      slt\n        /* \"#utility.yul\":766:885   */\n      iszero\n      tag_188\n      jumpi\n        /* \"#utility.yul\":804:883   */\n      tag_189\n      tag_163\n      jump\t// in\n    tag_189:\n        /* \"#utility.yul\":766:885   */\n    tag_188:\n        /* \"#utility.yul\":924:925   */\n      0x00\n        /* \"#utility.yul\":949:1002   */\n      tag_190\n        /* \"#utility.yul\":994:1001   */\n      dup5\n        /* \"#utility.yul\":985:991   */\n      dup3\n        /* \"#utility.yul\":974:983   */\n      dup6\n        /* \"#utility.yul\":970:992   */\n      add\n        /* \"#utility.yul\":949:1002   */\n      tag_167\n      jump\t// in\n    tag_190:\n        /* \"#utility.yul\":939:1002   */\n      swap2\n      pop\n        /* \"#utility.yul\":895:1012   */\n      pop\n        /* \"#utility.yul\":690:1019   */\n      swap3\n      swap2\n      pop\n      pop\n      jump\t// out\n        /* \"#utility.yul\":1025:1118   */\n    tag_168:\n        /* \"#utility.yul\":1061:1068   */\n      0x00\n        /* \"#utility.yul\":1101:1111   */\n      0xffffffff\n        /* \"#utility.yul\":1094:1099   */\n      dup3\n        /* \"#utility.yul\":1090:1112   */\n      and\n        /* \"#utility.yul\":1079:1112   */\n      swap1\n      pop\n        /* \"#utility.yul\":1025:1118   */\n      swap2\n      swap1\n      pop\n      jump\t// out\n        /* \"#utility.yul\":1124:1239   */\n    tag_169:\n        /* \"#utility.yul\":1209:1232   */\n      tag_193\n        /* \"#utility.yul\":1226:1231   */\n      dup2\n        /* \"#utility.yul\":1209:1232   */\n      tag_168\n      jump\t// in\n    tag_193:\n        /* \"#utility.yul\":1204:1207   */\n      dup3\n        /* \"#utility.yul\":1197:1233   */\n      mstore\n        /* \"#utility.yul\":1124:1239   */\n      pop\n      pop\n      jump\t// out\n        /* \"#utility.yul\":1245:1463   */\n    tag_18:\n        /* \"#utility.yul\":1336:1340   */\n      0x00\n        /* \"#utility.yul\":1374:1376   */\n      0x20\n        /* \"#utility.yul\":1363:1372   */\n      dup3\n        /* \"#utility.yul\":1359:1377   */\n      add\n        /* \"#utility.yul\":1351:1377   */\n      swap1\n      pop\n        /* \"#utility.yul\":1387:1456   */\n      tag_195\n        /* \"#utility.yul\":1453:1454   */\n      0x00\n        /* \"#utility.yul\":1442:1451   */\n      dup4\n        /* \"#utility.yul\":1438:1455   */\n      add\n        /* \"#utility.yul\":1429:1435   */\n      dup5\n        /* \"#utility.yul\":1387:1456   */\n      tag_169\n      jump\t// in\n    tag_195:\n        /* \"#utility.yul\":1245:1463   */\n      swap3\n      swap2\n      pop\n      pop\n      jump\t// out\n        /* \"#utility.yul\":1469:1589   */\n    tag_170:\n        /* \"#utility.yul\":1541:1564   */\n      tag_197\n        /* \"#utility.yul\":1558:1563   */\n      dup2\n        /* \"#utility.yul\":1541:1564   */\n      tag_168\n      jump\t// in\n    tag_197:\n        /* \"#utility.yul\":1534:1539   */\n      dup2\n        /* \"#utility.yul\":1531:1565   */\n      eq\n        /* \"#utility.yul\":1521:1583   */\n      tag_198\n      jumpi\n        /* \"#utility.yul\":1579:1580   */\n      0x00\n        /* \"#utility.yul\":1576:1577   */\n      dup1\n        /* \"#utility.yul\":1569:1581   */\n      revert\n        /* \"#utility.yul\":1521:1583   */\n    tag_198:\n        /* \"#utility.yul\":1469:1589   */\n      pop\n      jump\t// out\n        /* \"#utility.yul\":1595:1732   */\n    tag_171:\n        /* \"#utility.yul\":1640:1645   */\n      0x00\n        /* \"#utility.yul\":1678:1684   */\n      dup2\n        /* \"#utility.yul\":1665:1685   */\n      calldataload\n        /* \"#utility.yul\":1656:1685   */\n      swap1\n      pop\n        /* \"#utility.yul\":1694:1726   */\n      tag_200\n        /* \"#utility.yul\":1720:1725   */\n      dup2\n        /* \"#utility.yul\":1694:1726   */\n      tag_170\n      jump\t// in\n    tag_200:\n        /* \"#utility.yul\":1595:1732   */\n      swap3\n      swap2\n      pop\n      pop\n      jump\t// out\n        /* \"#utility.yul\":1738:2065   */\n    tag_33:\n        /* \"#utility.yul\":1796:1802   */\n      0x00\n        /* \"#utility.yul\":1845:1847   */\n      0x20\n        /* \"#utility.yul\":1833:1842   */\n      dup3\n        /* \"#utility.yul\":1824:1831   */\n      dup5\n        /* \"#utility.yul\":1820:1843   */\n      sub\n        /* \"#utility.yul\":1816:1848   */\n      slt\n        /* \"#utility.yul\":1813:1932   */\n      iszero\n      tag_202\n      jumpi\n        /* \"#utility.yul\":1851:1930   */\n      tag_203\n      tag_163\n      jump\t// in\n    tag_203:\n        /* \"#utility.yul\":1813:1932   */\n    tag_202:\n        /* \"#utility.yul\":1971:1972   */\n      0x00\n        /* \"#utility.yul\":1996:2048   */\n      tag_204\n        /* \"#utility.yul\":2040:2047   */\n      dup5\n        /* \"#utility.yul\":2031:2037   */\n      dup3\n        /* \"#utility.yul\":2020:2029   */\n      dup6\n        /* \"#utility.yul\":2016:2038   */\n      add\n        /* \"#utility.yul\":1996:2048   */\n      tag_171\n      jump\t// in\n    tag_204:\n        /* \"#utility.yul\":1986:2048   */\n      swap2\n      pop\n        /* \"#utility.yul\":1942:2058   */\n      pop\n        /* \"#utility.yul\":1738:2065   */\n      swap3\n      swap2\n      pop\n      pop\n      jump\t// out\n        /* \"#utility.yul\":2071:2161   */\n    tag_172:\n        /* \"#utility.yul\":2105:2112   */\n      0x00\n        /* \"#utility.yul\":2148:2153   */\n      dup2\n        /* \"#utility.yul\":2141:2154   */\n      iszero\n        /* \"#utility.yul\":2134:2155   */\n      iszero\n        /* \"#utility.yul\":2123:2155   */\n      swap1\n      pop\n        /* \"#utility.yul\":2071:2161   */\n      swap2\n      swap1\n      pop\n      jump\t// out\n        /* \"#utility.yul\":2167:2276   */\n    tag_173:\n        /* \"#utility.yul\":2248:2269   */\n      tag_207\n        /* \"#utility.yul\":2263:2268   */\n      dup2\n        /* \"#utility.yul\":2248:2269   */\n      tag_172\n      jump\t// in\n    tag_207:\n        /* \"#utility.yul\":2243:2246   */\n      dup3\n        /* \"#utility.yul\":2236:2270   */\n      mstore\n        /* \"#utility.yul\":2167:2276   */\n      pop\n      pop\n      jump\t// out\n        /* \"#utility.yul\":2282:2492   */\n    tag_36:\n        /* \"#utility.yul\":2369:2373   */\n      0x00\n        /* \"#utility.yul\":2407:2409   */\n      0x20\n        /* \"#utility.yul\":2396:2405   */\n      dup3\n        /* \"#utility.yul\":2392:2410   */\n      add\n        /* \"#utility.yul\":2384:2410   */\n      swap1\n      pop\n        /* \"#utility.yul\":2420:2485   */\n      tag_209\n        /* \"#utility.yul\":2482:2483   */\n      0x00\n        /* \"#utility.yul\":2471:2480   */\n      dup4\n        /* \"#utility.yul\":2467:2484   */\n      add\n        /* \"#utility.yul\":2458:2464   */\n      dup5\n        /* \"#utility.yul\":2420:2485   */\n      tag_173\n      jump\t// in\n    tag_209:\n        /* \"#utility.yul\":2282:2492   */\n      swap3\n      swap2\n      pop\n      pop\n      jump\t// out\n        /* \"#utility.yul\":2498:2616   */\n    tag_174:\n        /* \"#utility.yul\":2585:2609   */\n      tag_211\n        /* \"#utility.yul\":2603:2608   */\n      dup2\n        /* \"#utility.yul\":2585:2609   */\n      tag_165\n      jump\t// in\n    tag_211:\n        /* \"#utility.yul\":2580:2583   */\n      dup3\n        /* \"#utility.yul\":2573:2610   */\n      mstore\n        /* \"#utility.yul\":2498:2616   */\n      pop\n      pop\n      jump\t// out\n        /* \"#utility.yul\":2622:2844   */\n    tag_45:\n        /* \"#utility.yul\":2715:2719   */\n      0x00\n        /* \"#utility.yul\":2753:2755   */\n      0x20\n        /* \"#utility.yul\":2742:2751   */\n      dup3\n        /* \"#utility.yul\":2738:2756   */\n      add\n        /* \"#utility.yul\":2730:2756   */\n      swap1\n      pop\n        /* \"#utility.yul\":2766:2837   */\n      tag_213\n        /* \"#utility.yul\":2834:2835   */\n      0x00\n        /* \"#utility.yul\":2823:2832   */\n      dup4\n        /* \"#utility.yul\":2819:2836   */\n      add\n        /* \"#utility.yul\":2810:2816   */\n      dup5\n        /* \"#utility.yul\":2766:2837   */\n      tag_174\n      jump\t// in\n    tag_213:\n        /* \"#utility.yul\":2622:2844   */\n      swap3\n      swap2\n      pop\n      pop\n      jump\t// out\n        /* \"#utility.yul\":2850:3320   */\n    tag_48:\n        /* \"#utility.yul\":2916:2922   */\n      0x00\n        /* \"#utility.yul\":2924:2930   */\n      dup1\n        /* \"#utility.yul\":2973:2975   */\n      0x40\n        /* \"#utility.yul\":2961:2970   */\n      dup4\n        /* \"#utility.yul\":2952:2959   */\n      dup6\n        /* \"#utility.yul\":2948:2971   */\n      sub\n        /* \"#utility.yul\":2944:2976   */\n      slt\n        /* \"#utility.yul\":2941:3060   */\n      iszero\n      tag_215\n      jumpi\n        /* \"#utility.yul\":2979:3058   */\n      tag_216\n      tag_163\n      jump\t// in\n    tag_216:\n        /* \"#utility.yul\":2941:3060   */\n    tag_215:\n        /* \"#utility.yul\":3099:3100   */\n      0x00\n        /* \"#utility.yul\":3124:3176   */\n      tag_217\n        /* \"#utility.yul\":3168:3175   */\n      dup6\n        /* \"#utility.yul\":3159:3165   */\n      dup3\n        /* \"#utility.yul\":3148:3157   */\n      dup7\n        /* \"#utility.yul\":3144:3166   */\n      add\n        /* \"#utility.yul\":3124:3176   */\n      tag_171\n      jump\t// in\n    tag_217:\n        /* \"#utility.yul\":3114:3176   */\n      swap3\n      pop\n        /* \"#utility.yul\":3070:3186   */\n      pop\n        /* \"#utility.yul\":3225:3227   */\n      0x20\n        /* \"#utility.yul\":3251:3303   */\n      tag_218\n        /* \"#utility.yul\":3295:3302   */\n      dup6\n        /* \"#utility.yul\":3286:3292   */\n      dup3\n        /* \"#utility.yul\":3275:3284   */\n      dup7\n        /* \"#utility.yul\":3271:3293   */\n      add\n        /* \"#utility.yul\":3251:3303   */\n      tag_171\n      jump\t// in\n    tag_218:\n        /* \"#utility.yul\":3241:3303   */\n      swap2\n      pop\n        /* \"#utility.yul\":3196:3313   */\n      pop\n        /* \"#utility.yul\":2850:3320   */\n      swap3\n      pop\n      swap3\n      swap1\n      pop\n      jump\t// out\n        /* \"#utility.yul\":3326:3506   */\n    tag_175:\n        /* \"#utility.yul\":3374:3451   */\n      0x4e487b7100000000000000000000000000000000000000000000000000000000\n        /* \"#utility.yul\":3371:3372   */\n      0x00\n        /* \"#utility.yul\":3364:3452   */\n      mstore\n        /* \"#utility.yul\":3471:3475   */\n      0x12\n        /* \"#utility.yul\":3468:3469   */\n      0x04\n        /* \"#utility.yul\":3461:3476   */\n      mstore\n        /* \"#utility.yul\":3495:3499   */\n      0x24\n        /* \"#utility.yul\":3492:3493   */\n      0x00\n        /* \"#utility.yul\":3485:3500   */\n      revert\n        /* \"#utility.yul\":3512:3692   */\n    tag_176:\n        /* \"#utility.yul\":3560:3637   */\n      0x4e487b7100000000000000000000000000000000000000000000000000000000\n        /* \"#utility.yul\":3557:3558   */\n      0x00\n        /* \"#utility.yul\":3550:3638   */\n      mstore\n        /* \"#utility.yul\":3657:3661   */\n      0x11\n        /* \"#utility.yul\":3654:3655   */\n      0x04\n        /* \"#utility.yul\":3647:3662   */\n      mstore\n        /* \"#utility.yul\":3681:3685   */\n      0x24\n        /* \"#utility.yul\":3678:3679   */\n      0x00\n        /* \"#utility.yul\":3671:3686   */\n      revert\n        /* \"#utility.yul\":3698:3883   */\n    tag_57:\n        /* \"#utility.yul\":3738:3739   */\n      0x00\n        /* \"#utility.yul\":3755:3775   */\n      tag_222\n        /* \"#utility.yul\":3773:3774   */\n      dup3\n        /* \"#utility.yul\":3755:3775   */\n      tag_165\n      jump\t// in\n    tag_222:\n        /* \"#utility.yul\":3750:3775   */\n      swap2\n      pop\n        /* \"#utility.yul\":3789:3809   */\n      tag_223\n        /* \"#utility.yul\":3807:3808   */\n      dup4\n        /* \"#utility.yul\":3789:3809   */\n      tag_165\n      jump\t// in\n    tag_223:\n        /* \"#utility.yul\":3784:3809   */\n      swap3\n      pop\n        /* \"#utility.yul\":3828:3829   */\n      dup3\n        /* \"#utility.yul\":3818:3853   */\n      tag_224\n      jumpi\n        /* \"#utility.yul\":3833:3851   */\n      tag_225\n      tag_175\n      jump\t// in\n    tag_225:\n        /* \"#utility.yul\":3818:3853   */\n    tag_224:\n        /* \"#utility.yul\":3875:3876   */\n      dup3\n        /* \"#utility.yul\":3872:3873   */\n      dup3\n        /* \"#utility.yul\":3868:3877   */\n      div\n        /* \"#utility.yul\":3863:3877   */\n      swap1\n      pop\n        /* \"#utility.yul\":3698:3883   */\n      swap3\n      swap2\n      pop\n      pop\n      jump\t// out\n        /* \"#utility.yul\":3889:4065   */\n    tag_60:\n        /* \"#utility.yul\":3921:3922   */\n      0x00\n        /* \"#utility.yul\":3938:3958   */\n      tag_227\n        /* \"#utility.yul\":3956:3957   */\n      dup3\n        /* \"#utility.yul\":3938:3958   */\n      tag_165\n      jump\t// in\n    tag_227:\n        /* \"#utility.yul\":3933:3958   */\n      swap2\n      pop\n        /* \"#utility.yul\":3972:3992   */\n      tag_228\n        /* \"#utility.yul\":3990:3991   */\n      dup4\n        /* \"#utility.yul\":3972:3992   */\n      tag_165\n      jump\t// in\n    tag_228:\n        /* \"#utility.yul\":3967:3992   */\n      swap3\n      pop\n        /* \"#utility.yul\":4011:4012   */\n      dup3\n        /* \"#utility.yul\":4001:4036   */\n      tag_229\n      jumpi\n        /* \"#utility.yul\":4016:4034   */\n      tag_230\n      tag_175\n      jump\t// in\n    tag_230:\n        /* \"#utility.yul\":4001:4036   */\n    tag_229:\n        /* \"#utility.yul\":4057:4058   */\n      dup3\n        /* \"#utility.yul\":4054:4055   */\n      dup3\n        /* \"#utility.yul\":4050:4059   */\n      mod\n        /* \"#utility.yul\":4045:4059   */\n      swap1\n      pop\n        /* \"#utility.yul\":3889:4065   */\n      swap3\n      swap2\n      pop\n      pop\n      jump\t// out\n        /* \"#utility.yul\":4071:4262   */\n    tag_69:\n        /* \"#utility.yul\":4111:4114   */\n      0x00\n        /* \"#utility.yul\":4130:4150   */\n      tag_232\n        /* \"#utility.yul\":4148:4149   */\n      dup3\n        /* \"#utility.yul\":4130:4150   */\n      tag_165\n      jump\t// in\n    tag_232:\n        /* \"#utility.yul\":4125:4150   */\n      swap2\n      pop\n        /* \"#utility.yul\":4164:4184   */\n      tag_233\n        /* \"#utility.yul\":4182:4183   */\n      dup4\n        /* \"#utility.yul\":4164:4184   */\n      tag_165\n      jump\t// in\n    tag_233:\n        /* \"#utility.yul\":4159:4184   */\n      swap3\n      pop\n        /* \"#utility.yul\":4207:4208   */\n      dup3\n        /* \"#utility.yul\":4204:4205   */\n      dup3\n        /* \"#utility.yul\":4200:4209   */\n      add\n        /* \"#utility.yul\":4193:4209   */\n      swap1\n      pop\n        /* \"#utility.yul\":4228:4231   */\n      dup1\n        /* \"#utility.yul\":4225:4226   */\n      dup3\n        /* \"#utility.yul\":4222:4232   */\n      gt\n        /* \"#utility.yul\":4219:4255   */\n      iszero\n      tag_234\n      jumpi\n        /* \"#utility.yul\":4235:4253   */\n      tag_235\n      tag_176\n      jump\t// in\n    tag_235:\n        /* \"#utility.yul\":4219:4255   */\n    tag_234:\n        /* \"#utility.yul\":4071:4262   */\n      swap3\n      swap2\n      pop\n      pop\n      jump\t// out\n        /* \"#utility.yul\":4268:4462   */\n    tag_73:\n        /* \"#utility.yul\":4308:4312   */\n      0x00\n        /* \"#utility.yul\":4328:4348   */\n      tag_237\n        /* \"#utility.yul\":4346:4347   */\n      dup3\n        /* \"#utility.yul\":4328:4348   */\n      tag_165\n      jump\t// in\n    tag_237:\n        /* \"#utility.yul\":4323:4348   */\n      swap2\n      pop\n        /* \"#utility.yul\":4362:4382   */\n      tag_238\n        /* \"#utility.yul\":4380:4381   */\n      dup4\n        /* \"#utility.yul\":4362:4382   */\n      tag_165\n      jump\t// in\n    tag_238:\n        /* \"#utility.yul\":4357:4382   */\n      swap3\n      pop\n        /* \"#utility.yul\":4406:4407   */\n      dup3\n        /* \"#utility.yul\":4403:4404   */\n      dup3\n        /* \"#utility.yul\":4399:4408   */\n      sub\n        /* \"#utility.yul\":4391:4408   */\n      swap1\n      pop\n        /* \"#utility.yul\":4430:4431   */\n      dup2\n        /* \"#utility.yul\":4424:4428   */\n      dup2\n        /* \"#utility.yul\":4421:4432   */\n      gt\n        /* \"#utility.yul\":4418:4455   */\n      iszero\n      tag_239\n      jumpi\n        /* \"#utility.yul\":4435:4453   */\n      tag_240\n      tag_176\n      jump\t// in\n    tag_240:\n        /* \"#utility.yul\":4418:4455   */\n    tag_239:\n        /* \"#utility.yul\":4268:4462   */\n      swap3\n      swap2\n      pop\n      pop\n      jump\t// out\n        /* \"#utility.yul\":4468:4878   */\n    tag_75:\n        /* \"#utility.yul\":4508:4515   */\n      0x00\n        /* \"#utility.yul\":4531:4551   */\n      tag_242\n        /* \"#utility.yul\":4549:4550   */\n      dup3\n        /* \"#utility.yul\":4531:4551   */\n      tag_165\n      jump\t// in\n    tag_242:\n        /* \"#utility.yul\":4526:4551   */\n      swap2\n      pop\n        /* \"#utility.yul\":4565:4585   */\n      tag_243\n        /* \"#utility.yul\":4583:4584   */\n      dup4\n        /* \"#utility.yul\":4565:4585   */\n      tag_165\n      jump\t// in\n    tag_243:\n        /* \"#utility.yul\":4560:4585   */\n      swap3\n      pop\n        /* \"#utility.yul\":4620:4621   */\n      dup3\n        /* \"#utility.yul\":4617:4618   */\n      dup3\n        /* \"#utility.yul\":4613:4622   */\n      mul\n        /* \"#utility.yul\":4642:4672   */\n      tag_244\n        /* \"#utility.yul\":4660:4671   */\n      dup2\n        /* \"#utility.yul\":4642:4672   */\n      tag_165\n      jump\t// in\n    tag_244:\n        /* \"#utility.yul\":4631:4672   */\n      swap2\n      pop\n        /* \"#utility.yul\":4821:4822   */\n      dup3\n        /* \"#utility.yul\":4812:4819   */\n      dup3\n        /* \"#utility.yul\":4808:4823   */\n      div\n        /* \"#utility.yul\":4805:4806   */\n      dup5\n        /* \"#utility.yul\":4802:4824   */\n      eq\n        /* \"#utility.yul\":4782:4783   */\n      dup4\n        /* \"#utility.yul\":4775:4784   */\n      iszero\n        /* \"#utility.yul\":4755:4838   */\n      or\n        /* \"#utility.yul\":4732:4871   */\n      tag_245\n      jumpi\n        /* \"#utility.yul\":4851:4869   */\n      tag_246\n      tag_176\n      jump\t// in\n    tag_246:\n        /* \"#utility.yul\":4732:4871   */\n    tag_245:\n        /* \"#utility.yul\":4516:4878   */\n      pop\n        /* \"#utility.yul\":4468:4878   */\n      swap3\n      swap2\n      pop\n      pop\n      jump\t// out\n        /* \"#utility.yul\":4884:5084   */\n    tag_78:\n        /* \"#utility.yul\":4923:4927   */\n      0x00\n        /* \"#utility.yul\":4943:4962   */\n      tag_248\n        /* \"#utility.yul\":4960:4961   */\n      dup3\n        /* \"#utility.yul\":4943:4962   */\n      tag_168\n      jump\t// in\n    tag_248:\n        /* \"#utility.yul\":4938:4962   */\n      swap2\n      pop\n        /* \"#utility.yul\":4976:4995   */\n      tag_249\n        /* \"#utility.yul\":4993:4994   */\n      dup4\n        /* \"#utility.yul\":4976:4995   */\n      tag_168\n      jump\t// in\n    tag_249:\n        /* \"#utility.yul\":4971:4995   */\n      swap3\n      pop\n        /* \"#utility.yul\":5019:5020   */\n      dup3\n        /* \"#utility.yul\":5016:5017   */\n      dup3\n        /* \"#utility.yul\":5012:5021   */\n      sub\n        /* \"#utility.yul\":5004:5021   */\n      swap1\n      pop\n        /* \"#utility.yul\":5043:5053   */\n      0xffffffff\n        /* \"#utility.yul\":5037:5041   */\n      dup2\n        /* \"#utility.yul\":5034:5054   */\n      gt\n        /* \"#utility.yul\":5031:5077   */\n      iszero\n      tag_250\n      jumpi\n        /* \"#utility.yul\":5057:5075   */\n      tag_251\n      tag_176\n      jump\t// in\n    tag_251:\n        /* \"#utility.yul\":5031:5077   */\n    tag_250:\n        /* \"#utility.yul\":4884:5084   */\n      swap3\n      swap2\n      pop\n      pop\n      jump\t// out\n        /* \"#utility.yul\":5090:5263   */\n    tag_93:\n        /* \"#utility.yul\":5121:5122   */\n      0x00\n        /* \"#utility.yul\":5138:5157   */\n      tag_253\n        /* \"#utility.yul\":5155:5156   */\n      dup3\n        /* \"#utility.yul\":5138:5157   */\n      tag_168\n      jump\t// in\n    tag_253:\n        /* \"#utility.yul\":5133:5157   */\n      swap2\n      pop\n        /* \"#utility.yul\":5171:5190   */\n      tag_254\n        /* \"#utility.yul\":5188:5189   */\n      dup4\n        /* \"#utility.yul\":5171:5190   */\n      tag_168\n      jump\t// in\n    tag_254:\n        /* \"#utility.yul\":5166:5190   */\n      swap3\n      pop\n        /* \"#utility.yul\":5209:5210   */\n      dup3\n        /* \"#utility.yul\":5199:5234   */\n      tag_255\n      jumpi\n        /* \"#utility.yul\":5214:5232   */\n      tag_256\n      tag_175\n      jump\t// in\n    tag_256:\n        /* \"#utility.yul\":5199:5234   */\n    tag_255:\n        /* \"#utility.yul\":5255:5256   */\n      dup3\n        /* \"#utility.yul\":5252:5253   */\n      dup3\n        /* \"#utility.yul\":5248:5257   */\n      mod\n        /* \"#utility.yul\":5243:5257   */\n      swap1\n      pop\n        /* \"#utility.yul\":5090:5263   */\n      swap3\n      swap2\n      pop\n      pop\n      jump\t// out\n        /* \"#utility.yul\":5269:5444   */\n    tag_150:\n        /* \"#utility.yul\":5307:5310   */\n      0x00\n        /* \"#utility.yul\":5330:5353   */\n      tag_258\n        /* \"#utility.yul\":5347:5352   */\n      dup3\n        /* \"#utility.yul\":5330:5353   */\n      tag_168\n      jump\t// in\n    tag_258:\n        /* \"#utility.yul\":5321:5353   */\n      swap2\n      pop\n        /* \"#utility.yul\":5375:5385   */\n      0xffffffff\n        /* \"#utility.yul\":5368:5373   */\n      dup3\n        /* \"#utility.yul\":5365:5386   */\n      sub\n        /* \"#utility.yul\":5362:5409   */\n      tag_259\n      jumpi\n        /* \"#utility.yul\":5389:5407   */\n      tag_260\n      tag_176\n      jump\t// in\n    tag_260:\n        /* \"#utility.yul\":5362:5409   */\n    tag_259:\n        /* \"#utility.yul\":5436:5437   */\n      0x01\n        /* \"#utility.yul\":5429:5434   */\n      dup3\n        /* \"#utility.yul\":5425:5438   */\n      add\n        /* \"#utility.yul\":5418:5438   */\n      swap1\n      pop\n        /* \"#utility.yul\":5269:5444   */\n      swap2\n      swap1\n      pop\n      jump\t// out\n\n    auxdata: 0xa264697066735822122007ee9d0a88356c4c1d36e683a9808eee0cc44cc0670635e633d940d0593e818464736f6c63430008110033\n}\n",
				"bytecode": {
					"linkReferences": {},
					"object": "608060405234801561001057600080fd5b50610c02806100206000396000f3fe608060405234801561001057600080fd5b50600436106100935760003560e01c8063a01f851811610066578063a01f851814610158578063a324ad2414610188578063b1999937146101b8578063cf1742c6146101e8578063fa93f8831461021857610093565b80633e239e1a1461009857806365c72840146100c85780638aa001fc146100f857806392d6631314610128575b600080fd5b6100b260048036038101906100ad919061086d565b610248565b6040516100bf91906108b9565b60405180910390f35b6100e260048036038101906100dd919061086d565b610275565b6040516100ef91906108b9565b60405180910390f35b610112600480360381019061010d919061086d565b61028b565b60405161011f91906108b9565b60405180910390f35b610142600480360381019061013d919061086d565b6102a1565b60405161014f91906108b9565b60405180910390f35b610172600480360381019061016d9190610900565b6103c0565b60405161017f9190610948565b60405180910390f35b6101a2600480360381019061019d919061086d565b610435565b6040516101af91906108b9565b60405180910390f35b6101d260048036038101906101cd919061086d565b61044b565b6040516101df9190610972565b60405180910390f35b61020260048036038101906101fd919061098d565b61049f565b60405161020f91906108b9565b60405180910390f35b610232600480360381019061022d919061086d565b61058c565b60405161023f91906108b9565b60405180910390f35b60006018603c808461025a9190610a2b565b6102649190610a2b565b61026e9190610a5c565b9050919050565b6000610280826105ad565b604001519050919050565b6000603c8261029a9190610a5c565b9050919050565b600080600090506000806301e13380856102bb9190610a2b565b6107b263ffffffff166102ce9190610a8d565b91506102e16107b263ffffffff1661044b565b6102f08363ffffffff1661044b565b6102fa9190610ac1565b9050806301e2850061030c9190610af5565b836103179190610a8d565b9250806107b2836103289190610b37565b63ffffffff166103389190610ac1565b6301e133806103479190610af5565b836103529190610a8d565b92505b848311156103b55761037260018361036d9190610b37565b6103c0565b1561038e576301e28500836103879190610ac1565b92506103a1565b6301e133808361039e9190610ac1565b92505b6001826103ae9190610b37565b9150610355565b819350505050919050565b6000806004836103d09190610b6f565b63ffffffff16146103e45760009050610430565b60006064836103f39190610b6f565b63ffffffff16146104075760019050610430565b6000610190836104179190610b6f565b63ffffffff161461042b5760009050610430565b600190505b919050565b6000610440826105ad565b602001519050919050565b600060018261045a9190610ac1565b91506101908261046a9190610a2b565b6064836104779190610a2b565b6004846104849190610a2b565b61048e9190610ac1565b6104989190610a8d565b9050919050565b600060018363ffffffff1614806104bc575060038363ffffffff16145b806104cd575060058363ffffffff16145b806104de575060078363ffffffff16145b806104ef575060088363ffffffff16145b806105005750600a8363ffffffff16145b806105115750600c8363ffffffff16145b1561051f57601f9050610586565b60048363ffffffff16148061053a575060068363ffffffff16145b8061054b575060098363ffffffff16145b8061055c5750600b8363ffffffff16145b1561056a57601e9050610586565b610573826103c0565b1561058157601d9050610586565b601c90505b92915050565b6000603c808361059c9190610a2b565b6105a69190610a5c565b9050919050565b6105b56107d8565b600080806105c2856102a1565b846000019063ffffffff16908163ffffffff16815250506105ea6107b263ffffffff1661044b565b6105fd856000015163ffffffff1661044b565b6106079190610ac1565b9150816301e285006106199190610af5565b836106249190610a8d565b9250816107b285600001516106399190610b37565b63ffffffff166106499190610ac1565b6301e133806106589190610af5565b836106639190610a8d565b92506000600191505b600c8263ffffffff16116106ef5761068882866000015161049f565b63ffffffff166201518061069c9190610af5565b90508584826106ab9190610a8d565b11156106ce5781856020019063ffffffff16908163ffffffff16815250506106ef565b80846106da9190610a8d565b935081806106e790610ba0565b92505061066c565b600191505b6107068560200151866000015161049f565b63ffffffff168263ffffffff161161076f578584620151806107289190610a8d565b111561074b5781856040019063ffffffff16908163ffffffff168152505061076f565b620151808461075a9190610a8d565b9350818061076790610ba0565b9250506106f4565b61077886610248565b856060019063ffffffff16908163ffffffff16815250506107988661058c565b856080019063ffffffff16908163ffffffff16815250506107b88661028b565b8560a0019063ffffffff16908163ffffffff168152505050505050919050565b6040518060c00160405280600063ffffffff168152602001600063ffffffff168152602001600063ffffffff168152602001600063ffffffff168152602001600063ffffffff168152602001600063ffffffff1681525090565b600080fd5b6000819050919050565b61084a81610837565b811461085557600080fd5b50565b60008135905061086781610841565b92915050565b60006020828403121561088357610882610832565b5b600061089184828501610858565b91505092915050565b600063ffffffff82169050919050565b6108b38161089a565b82525050565b60006020820190506108ce60008301846108aa565b92915050565b6108dd8161089a565b81146108e857600080fd5b50565b6000813590506108fa816108d4565b92915050565b60006020828403121561091657610915610832565b5b6000610924848285016108eb565b91505092915050565b60008115159050919050565b6109428161092d565b82525050565b600060208201905061095d6000830184610939565b92915050565b61096c81610837565b82525050565b60006020820190506109876000830184610963565b92915050565b600080604083850312156109a4576109a3610832565b5b60006109b2858286016108eb565b92505060206109c3858286016108eb565b9150509250929050565b7f4e487b7100000000000000000000000000000000000000000000000000000000600052601260045260246000fd5b7f4e487b7100000000000000000000000000000000000000000000000000000000600052601160045260246000fd5b6000610a3682610837565b9150610a4183610837565b925082610a5157610a506109cd565b5b828204905092915050565b6000610a6782610837565b9150610a7283610837565b925082610a8257610a816109cd565b5b828206905092915050565b6000610a9882610837565b9150610aa383610837565b9250828201905080821115610abb57610aba6109fc565b5b92915050565b6000610acc82610837565b9150610ad783610837565b9250828203905081811115610aef57610aee6109fc565b5b92915050565b6000610b0082610837565b9150610b0b83610837565b9250828202610b1981610837565b91508282048414831517610b3057610b2f6109fc565b5b5092915050565b6000610b428261089a565b9150610b4d8361089a565b9250828203905063ffffffff811115610b6957610b686109fc565b5b92915050565b6000610b7a8261089a565b9150610b858361089a565b925082610b9557610b946109cd565b5b828206905092915050565b6000610bab8261089a565b915063ffffffff8203610bc157610bc06109fc565b5b60018201905091905056fea264697066735822122007ee9d0a88356c4c1d36e683a9808eee0cc44cc0670635e633d940d0593e818464736f6c63430008110033",
					"opcodes": "PUSH1 0x80 PUSH1 0x40 MSTORE CALLVALUE DUP1 ISZERO PUSH2 0x10 JUMPI PUSH1 0x0 DUP1 REVERT JUMPDEST POP PUSH2 0xC02 DUP1 PUSH2 0x20 PUSH1 0x0 CODECOPY PUSH1 0x0 RETURN INVALID PUSH1 0x80 PUSH1 0x40 MSTORE CALLVALUE DUP1 ISZERO PUSH2 0x10 JUMPI PUSH1 0x0 DUP1 REVERT JUMPDEST POP PUSH1 0x4 CALLDATASIZE LT PUSH2 0x93 JUMPI PUSH1 0x0 CALLDATALOAD PUSH1 0xE0 SHR DUP1 PUSH4 0xA01F8518 GT PUSH2 0x66 JUMPI DUP1 PUSH4 0xA01F8518 EQ PUSH2 0x158 JUMPI DUP1 PUSH4 0xA324AD24 EQ PUSH2 0x188 JUMPI DUP1 PUSH4 0xB1999937 EQ PUSH2 0x1B8 JUMPI DUP1 PUSH4 0xCF1742C6 EQ PUSH2 0x1E8 JUMPI DUP1 PUSH4 0xFA93F883 EQ PUSH2 0x218 JUMPI PUSH2 0x93 JUMP JUMPDEST DUP1 PUSH4 0x3E239E1A EQ PUSH2 0x98 JUMPI DUP1 PUSH4 0x65C72840 EQ PUSH2 0xC8 JUMPI DUP1 PUSH4 0x8AA001FC EQ PUSH2 0xF8 JUMPI DUP1 PUSH4 0x92D66313 EQ PUSH2 0x128 JUMPI JUMPDEST PUSH1 0x0 DUP1 REVERT JUMPDEST PUSH2 0xB2 PUSH1 0x4 DUP1 CALLDATASIZE SUB DUP2 ADD SWAP1 PUSH2 0xAD SWAP2 SWAP1 PUSH2 0x86D JUMP JUMPDEST PUSH2 0x248 JUMP JUMPDEST PUSH1 0x40 MLOAD PUSH2 0xBF SWAP2 SWAP1 PUSH2 0x8B9 JUMP JUMPDEST PUSH1 0x40 MLOAD DUP1 SWAP2 SUB SWAP1 RETURN JUMPDEST PUSH2 0xE2 PUSH1 0x4 DUP1 CALLDATASIZE SUB DUP2 ADD SWAP1 PUSH2 0xDD SWAP2 SWAP1 PUSH2 0x86D JUMP JUMPDEST PUSH2 0x275 JUMP JUMPDEST PUSH1 0x40 MLOAD PUSH2 0xEF SWAP2 SWAP1 PUSH2 0x8B9 JUMP JUMPDEST PUSH1 0x40 MLOAD DUP1 SWAP2 SUB SWAP1 RETURN JUMPDEST PUSH2 0x112 PUSH1 0x4 DUP1 CALLDATASIZE SUB DUP2 ADD SWAP1 PUSH2 0x10D SWAP2 SWAP1 PUSH2 0x86D JUMP JUMPDEST PUSH2 0x28B JUMP JUMPDEST PUSH1 0x40 MLOAD PUSH2 0x11F SWAP2 SWAP1 PUSH2 0x8B9 JUMP JUMPDEST PUSH1 0x40 MLOAD DUP1 SWAP2 SUB SWAP1 RETURN JUMPDEST PUSH2 0x142 PUSH1 0x4 DUP1 CALLDATASIZE SUB DUP2 ADD SWAP1 PUSH2 0x13D SWAP2 SWAP1 PUSH2 0x86D JUMP JUMPDEST PUSH2 0x2A1 JUMP JUMPDEST PUSH1 0x40 MLOAD PUSH2 0x14F SWAP2 SWAP1 PUSH2 0x8B9 JUMP JUMPDEST PUSH1 0x40 MLOAD DUP1 SWAP2 SUB SWAP1 RETURN JUMPDEST PUSH2 0x172 PUSH1 0x4 DUP1 CALLDATASIZE SUB DUP2 ADD SWAP1 PUSH2 0x16D SWAP2 SWAP1 PUSH2 0x900 JUMP JUMPDEST PUSH2 0x3C0 JUMP JUMPDEST PUSH1 0x40 MLOAD PUSH2 0x17F SWAP2 SWAP1 PUSH2 0x948 JUMP JUMPDEST PUSH1 0x40 MLOAD DUP1 SWAP2 SUB SWAP1 RETURN JUMPDEST PUSH2 0x1A2 PUSH1 0x4 DUP1 CALLDATASIZE SUB DUP2 ADD SWAP1 PUSH2 0x19D SWAP2 SWAP1 PUSH2 0x86D JUMP JUMPDEST PUSH2 0x435 JUMP JUMPDEST PUSH1 0x40 MLOAD PUSH2 0x1AF SWAP2 SWAP1 PUSH2 0x8B9 JUMP JUMPDEST PUSH1 0x40 MLOAD DUP1 SWAP2 SUB SWAP1 RETURN JUMPDEST PUSH2 0x1D2 PUSH1 0x4 DUP1 CALLDATASIZE SUB DUP2 ADD SWAP1 PUSH2 0x1CD SWAP2 SWAP1 PUSH2 0x86D JUMP JUMPDEST PUSH2 0x44B JUMP JUMPDEST PUSH1 0x40 MLOAD PUSH2 0x1DF SWAP2 SWAP1 PUSH2 0x972 JUMP JUMPDEST PUSH1 0x40 MLOAD DUP1 SWAP2 SUB SWAP1 RETURN JUMPDEST PUSH2 0x202 PUSH1 0x4 DUP1 CALLDATASIZE SUB DUP2 ADD SWAP1 PUSH2 0x1FD SWAP2 SWAP1 PUSH2 0x98D JUMP JUMPDEST PUSH2 0x49F JUMP JUMPDEST PUSH1 0x40 MLOAD PUSH2 0x20F SWAP2 SWAP1 PUSH2 0x8B9 JUMP JUMPDEST PUSH1 0x40 MLOAD DUP1 SWAP2 SUB SWAP1 RETURN JUMPDEST PUSH2 0x232 PUSH1 0x4 DUP1 CALLDATASIZE SUB DUP2 ADD SWAP1 PUSH2 0x22D SWAP2 SWAP1 PUSH2 0x86D JUMP JUMPDEST PUSH2 0x58C JUMP JUMPDEST PUSH1 0x40 MLOAD PUSH2 0x23F SWAP2 SWAP1 PUSH2 0x8B9 JUMP JUMPDEST PUSH1 0x40 MLOAD DUP1 SWAP2 SUB SWAP1 RETURN JUMPDEST PUSH1 0x0 PUSH1 0x18 PUSH1 0x3C DUP1 DUP5 PUSH2 0x25A SWAP2 SWAP1 PUSH2 0xA2B JUMP JUMPDEST PUSH2 0x264 SWAP2 SWAP1 PUSH2 0xA2B JUMP JUMPDEST PUSH2 0x26E SWAP2 SWAP1 PUSH2 0xA5C JUMP JUMPDEST SWAP1 POP SWAP2 SWAP1 POP JUMP JUMPDEST PUSH1 0x0 PUSH2 0x280 DUP3 PUSH2 0x5AD JUMP JUMPDEST PUSH1 0x40 ADD MLOAD SWAP1 POP SWAP2 SWAP1 POP JUMP JUMPDEST PUSH1 0x0 PUSH1 0x3C DUP3 PUSH2 0x29A SWAP2 SWAP1 PUSH2 0xA5C JUMP JUMPDEST SWAP1 POP SWAP2 SWAP1 POP JUMP JUMPDEST PUSH1 0x0 DUP1 PUSH1 0x0 SWAP1 POP PUSH1 0x0 DUP1 PUSH4 0x1E13380 DUP6 PUSH2 0x2BB SWAP2 SWAP1 PUSH2 0xA2B JUMP JUMPDEST PUSH2 0x7B2 PUSH4 0xFFFFFFFF AND PUSH2 0x2CE SWAP2 SWAP1 PUSH2 0xA8D JUMP JUMPDEST SWAP2 POP PUSH2 0x2E1 PUSH2 0x7B2 PUSH4 0xFFFFFFFF AND PUSH2 0x44B JUMP JUMPDEST PUSH2 0x2F0 DUP4 PUSH4 0xFFFFFFFF AND PUSH2 0x44B JUMP JUMPDEST PUSH2 0x2FA SWAP2 SWAP1 PUSH2 0xAC1 JUMP JUMPDEST SWAP1 POP DUP1 PUSH4 0x1E28500 PUSH2 0x30C SWAP2 SWAP1 PUSH2 0xAF5 JUMP JUMPDEST DUP4 PUSH2 0x317 SWAP2 SWAP1 PUSH2 0xA8D JUMP JUMPDEST SWAP3 POP DUP1 PUSH2 0x7B2 DUP4 PUSH2 0x328 SWAP2 SWAP1 PUSH2 0xB37 JUMP JUMPDEST PUSH4 0xFFFFFFFF AND PUSH2 0x338 SWAP2 SWAP1 PUSH2 0xAC1 JUMP JUMPDEST PUSH4 0x1E13380 PUSH2 0x347 SWAP2 SWAP1 PUSH2 0xAF5 JUMP JUMPDEST DUP4 PUSH2 0x352 SWAP2 SWAP1 PUSH2 0xA8D JUMP JUMPDEST SWAP3 POP JUMPDEST DUP5 DUP4 GT ISZERO PUSH2 0x3B5 JUMPI PUSH2 0x372 PUSH1 0x1 DUP4 PUSH2 0x36D SWAP2 SWAP1 PUSH2 0xB37 JUMP JUMPDEST PUSH2 0x3C0 JUMP JUMPDEST ISZERO PUSH2 0x38E JUMPI PUSH4 0x1E28500 DUP4 PUSH2 0x387 SWAP2 SWAP1 PUSH2 0xAC1 JUMP JUMPDEST SWAP3 POP PUSH2 0x3A1 JUMP JUMPDEST PUSH4 0x1E13380 DUP4 PUSH2 0x39E SWAP2 SWAP1 PUSH2 0xAC1 JUMP JUMPDEST SWAP3 POP JUMPDEST PUSH1 0x1 DUP3 PUSH2 0x3AE SWAP2 SWAP1 PUSH2 0xB37 JUMP JUMPDEST SWAP2 POP PUSH2 0x355 JUMP JUMPDEST DUP2 SWAP4 POP POP POP POP SWAP2 SWAP1 POP JUMP JUMPDEST PUSH1 0x0 DUP1 PUSH1 0x4 DUP4 PUSH2 0x3D0 SWAP2 SWAP1 PUSH2 0xB6F JUMP JUMPDEST PUSH4 0xFFFFFFFF AND EQ PUSH2 0x3E4 JUMPI PUSH1 0x0 SWAP1 POP PUSH2 0x430 JUMP JUMPDEST PUSH1 0x0 PUSH1 0x64 DUP4 PUSH2 0x3F3 SWAP2 SWAP1 PUSH2 0xB6F JUMP JUMPDEST PUSH4 0xFFFFFFFF AND EQ PUSH2 0x407 JUMPI PUSH1 0x1 SWAP1 POP PUSH2 0x430 JUMP JUMPDEST PUSH1 0x0 PUSH2 0x190 DUP4 PUSH2 0x417 SWAP2 SWAP1 PUSH2 0xB6F JUMP JUMPDEST PUSH4 0xFFFFFFFF AND EQ PUSH2 0x42B JUMPI PUSH1 0x0 SWAP1 POP PUSH2 0x430 JUMP JUMPDEST PUSH1 0x1 SWAP1 POP JUMPDEST SWAP2 SWAP1 POP JUMP JUMPDEST PUSH1 0x0 PUSH2 0x440 DUP3 PUSH2 0x5AD JUMP JUMPDEST PUSH1 0x20 ADD MLOAD SWAP1 POP SWAP2 SWAP1 POP JUMP JUMPDEST PUSH1 0x0 PUSH1 0x1 DUP3 PUSH2 0x45A SWAP2 SWAP1 PUSH2 0xAC1 JUMP JUMPDEST SWAP2 POP PUSH2 0x190 DUP3 PUSH2 0x46A SWAP2 SWAP1 PUSH2 0xA2B JUMP JUMPDEST PUSH1 0x64 DUP4 PUSH2 0x477 SWAP2 SWAP1 PUSH2 0xA2B JUMP JUMPDEST PUSH1 0x4 DUP5 PUSH2 0x484 SWAP2 SWAP1 PUSH2 0xA2B JUMP JUMPDEST PUSH2 0x48E SWAP2 SWAP1 PUSH2 0xAC1 JUMP JUMPDEST PUSH2 0x498 SWAP2 SWAP1 PUSH2 0xA8D JUMP JUMPDEST SWAP1 POP SWAP2 SWAP1 POP JUMP JUMPDEST PUSH1 0x0 PUSH1 0x1 DUP4 PUSH4 0xFFFFFFFF AND EQ DUP1 PUSH2 0x4BC JUMPI POP PUSH1 0x3 DUP4 PUSH4 0xFFFFFFFF AND EQ JUMPDEST DUP1 PUSH2 0x4CD JUMPI POP PUSH1 0x5 DUP4 PUSH4 0xFFFFFFFF AND EQ JUMPDEST DUP1 PUSH2 0x4DE JUMPI POP PUSH1 0x7 DUP4 PUSH4 0xFFFFFFFF AND EQ JUMPDEST DUP1 PUSH2 0x4EF JUMPI POP PUSH1 0x8 DUP4 PUSH4 0xFFFFFFFF AND EQ JUMPDEST DUP1 PUSH2 0x500 JUMPI POP PUSH1 0xA DUP4 PUSH4 0xFFFFFFFF AND EQ JUMPDEST DUP1 PUSH2 0x511 JUMPI POP PUSH1 0xC DUP4 PUSH4 0xFFFFFFFF AND EQ JUMPDEST ISZERO PUSH2 0x51F JUMPI PUSH1 0x1F SWAP1 POP PUSH2 0x586 JUMP JUMPDEST PUSH1 0x4 DUP4 PUSH4 0xFFFFFFFF AND EQ DUP1 PUSH2 0x53A JUMPI POP PUSH1 0x6 DUP4 PUSH4 0xFFFFFFFF AND EQ JUMPDEST DUP1 PUSH2 0x54B JUMPI POP PUSH1 0x9 DUP4 PUSH4 0xFFFFFFFF AND EQ JUMPDEST DUP1 PUSH2 0x55C JUMPI POP PUSH1 0xB DUP4 PUSH4 0xFFFFFFFF AND EQ JUMPDEST ISZERO PUSH2 0x56A JUMPI PUSH1 0x1E SWAP1 POP PUSH2 0x586 JUMP JUMPDEST PUSH2 0x573 DUP3 PUSH2 0x3C0 JUMP JUMPDEST ISZERO PUSH2 0x581 JUMPI PUSH1 0x1D SWAP1 POP PUSH2 0x586 JUMP JUMPDEST PUSH1 0x1C SWAP1 POP JUMPDEST SWAP3 SWAP2 POP POP JUMP JUMPDEST PUSH1 0x0 PUSH1 0x3C DUP1 DUP4 PUSH2 0x59C SWAP2 SWAP1 PUSH2 0xA2B JUMP JUMPDEST PUSH2 0x5A6 SWAP2 SWAP1 PUSH2 0xA5C JUMP JUMPDEST SWAP1 POP SWAP2 SWAP1 POP JUMP JUMPDEST PUSH2 0x5B5 PUSH2 0x7D8 JUMP JUMPDEST PUSH1 0x0 DUP1 DUP1 PUSH2 0x5C2 DUP6 PUSH2 0x2A1 JUMP JUMPDEST DUP5 PUSH1 0x0 ADD SWAP1 PUSH4 0xFFFFFFFF AND SWAP1 DUP2 PUSH4 0xFFFFFFFF AND DUP2 MSTORE POP POP PUSH2 0x5EA PUSH2 0x7B2 PUSH4 0xFFFFFFFF AND PUSH2 0x44B JUMP JUMPDEST PUSH2 0x5FD DUP6 PUSH1 0x0 ADD MLOAD PUSH4 0xFFFFFFFF AND PUSH2 0x44B JUMP JUMPDEST PUSH2 0x607 SWAP2 SWAP1 PUSH2 0xAC1 JUMP JUMPDEST SWAP2 POP DUP2 PUSH4 0x1E28500 PUSH2 0x619 SWAP2 SWAP1 PUSH2 0xAF5 JUMP JUMPDEST DUP4 PUSH2 0x624 SWAP2 SWAP1 PUSH2 0xA8D JUMP JUMPDEST SWAP3 POP DUP2 PUSH2 0x7B2 DUP6 PUSH1 0x0 ADD MLOAD PUSH2 0x639 SWAP2 SWAP1 PUSH2 0xB37 JUMP JUMPDEST PUSH4 0xFFFFFFFF AND PUSH2 0x649 SWAP2 SWAP1 PUSH2 0xAC1 JUMP JUMPDEST PUSH4 0x1E13380 PUSH2 0x658 SWAP2 SWAP1 PUSH2 0xAF5 JUMP JUMPDEST DUP4 PUSH2 0x663 SWAP2 SWAP1 PUSH2 0xA8D JUMP JUMPDEST SWAP3 POP PUSH1 0x0 PUSH1 0x1 SWAP2 POP JUMPDEST PUSH1 0xC DUP3 PUSH4 0xFFFFFFFF AND GT PUSH2 0x6EF JUMPI PUSH2 0x688 DUP3 DUP7 PUSH1 0x0 ADD MLOAD PUSH2 0x49F JUMP JUMPDEST PUSH4 0xFFFFFFFF AND PUSH3 0x15180 PUSH2 0x69C SWAP2 SWAP1 PUSH2 0xAF5 JUMP JUMPDEST SWAP1 POP DUP6 DUP5 DUP3 PUSH2 0x6AB SWAP2 SWAP1 PUSH2 0xA8D JUMP JUMPDEST GT ISZERO PUSH2 0x6CE JUMPI DUP2 DUP6 PUSH1 0x20 ADD SWAP1 PUSH4 0xFFFFFFFF AND SWAP1 DUP2 PUSH4 0xFFFFFFFF AND DUP2 MSTORE POP POP PUSH2 0x6EF JUMP JUMPDEST DUP1 DUP5 PUSH2 0x6DA SWAP2 SWAP1 PUSH2 0xA8D JUMP JUMPDEST SWAP4 POP DUP2 DUP1 PUSH2 0x6E7 SWAP1 PUSH2 0xBA0 JUMP JUMPDEST SWAP3 POP POP PUSH2 0x66C JUMP JUMPDEST PUSH1 0x1 SWAP2 POP JUMPDEST PUSH2 0x706 DUP6 PUSH1 0x20 ADD MLOAD DUP7 PUSH1 0x0 ADD MLOAD PUSH2 0x49F JUMP JUMPDEST PUSH4 0xFFFFFFFF AND DUP3 PUSH4 0xFFFFFFFF AND GT PUSH2 0x76F JUMPI DUP6 DUP5 PUSH3 0x15180 PUSH2 0x728 SWAP2 SWAP1 PUSH2 0xA8D JUMP JUMPDEST GT ISZERO PUSH2 0x74B JUMPI DUP2 DUP6 PUSH1 0x40 ADD SWAP1 PUSH4 0xFFFFFFFF AND SWAP1 DUP2 PUSH4 0xFFFFFFFF AND DUP2 MSTORE POP POP PUSH2 0x76F JUMP JUMPDEST PUSH3 0x15180 DUP5 PUSH2 0x75A SWAP2 SWAP1 PUSH2 0xA8D JUMP JUMPDEST SWAP4 POP DUP2 DUP1 PUSH2 0x767 SWAP1 PUSH2 0xBA0 JUMP JUMPDEST SWAP3 POP POP PUSH2 0x6F4 JUMP JUMPDEST PUSH2 0x778 DUP7 PUSH2 0x248 JUMP JUMPDEST DUP6 PUSH1 0x60 ADD SWAP1 PUSH4 0xFFFFFFFF AND SWAP1 DUP2 PUSH4 0xFFFFFFFF AND DUP2 MSTORE POP POP PUSH2 0x798 DUP7 PUSH2 0x58C JUMP JUMPDEST DUP6 PUSH1 0x80 ADD SWAP1 PUSH4 0xFFFFFFFF AND SWAP1 DUP2 PUSH4 0xFFFFFFFF AND DUP2 MSTORE POP POP PUSH2 0x7B8 DUP7 PUSH2 0x28B JUMP JUMPDEST DUP6 PUSH1 0xA0 ADD SWAP1 PUSH4 0xFFFFFFFF AND SWAP1 DUP2 PUSH4 0xFFFFFFFF AND DUP2 MSTORE POP POP POP POP POP POP SWAP2 SWAP1 POP JUMP JUMPDEST PUSH1 0x40 MLOAD DUP1 PUSH1 0xC0 ADD PUSH1 0x40 MSTORE DUP1 PUSH1 0x0 PUSH4 0xFFFFFFFF AND DUP2 MSTORE PUSH1 0x20 ADD PUSH1 0x0 PUSH4 0xFFFFFFFF AND DUP2 MSTORE PUSH1 0x20 ADD PUSH1 0x0 PUSH4 0xFFFFFFFF AND DUP2 MSTORE PUSH1 0x20 ADD PUSH1 0x0 PUSH4 0xFFFFFFFF AND DUP2 MSTORE PUSH1 0x20 ADD PUSH1 0x0 PUSH4 0xFFFFFFFF AND DUP2 MSTORE PUSH1 0x20 ADD PUSH1 0x0 PUSH4 0xFFFFFFFF AND DUP2 MSTORE POP SWAP1 JUMP JUMPDEST PUSH1 0x0 DUP1 REVERT JUMPDEST PUSH1 0x0 DUP2 SWAP1 POP SWAP2 SWAP1 POP JUMP JUMPDEST PUSH2 0x84A DUP2 PUSH2 0x837 JUMP JUMPDEST DUP2 EQ PUSH2 0x855 JUMPI PUSH1 0x0 DUP1 REVERT JUMPDEST POP JUMP JUMPDEST PUSH1 0x0 DUP2 CALLDATALOAD SWAP1 POP PUSH2 0x867 DUP2 PUSH2 0x841 JUMP JUMPDEST SWAP3 SWAP2 POP POP JUMP JUMPDEST PUSH1 0x0 PUSH1 0x20 DUP3 DUP5 SUB SLT ISZERO PUSH2 0x883 JUMPI PUSH2 0x882 PUSH2 0x832 JUMP JUMPDEST JUMPDEST PUSH1 0x0 PUSH2 0x891 DUP5 DUP3 DUP6 ADD PUSH2 0x858 JUMP JUMPDEST SWAP2 POP POP SWAP3 SWAP2 POP POP JUMP JUMPDEST PUSH1 0x0 PUSH4 0xFFFFFFFF DUP3 AND SWAP1 POP SWAP2 SWAP1 POP JUMP JUMPDEST PUSH2 0x8B3 DUP2 PUSH2 0x89A JUMP JUMPDEST DUP3 MSTORE POP POP JUMP JUMPDEST PUSH1 0x0 PUSH1 0x20 DUP3 ADD SWAP1 POP PUSH2 0x8CE PUSH1 0x0 DUP4 ADD DUP5 PUSH2 0x8AA JUMP JUMPDEST SWAP3 SWAP2 POP POP JUMP JUMPDEST PUSH2 0x8DD DUP2 PUSH2 0x89A JUMP JUMPDEST DUP2 EQ PUSH2 0x8E8 JUMPI PUSH1 0x0 DUP1 REVERT JUMPDEST POP JUMP JUMPDEST PUSH1 0x0 DUP2 CALLDATALOAD SWAP1 POP PUSH2 0x8FA DUP2 PUSH2 0x8D4 JUMP JUMPDEST SWAP3 SWAP2 POP POP JUMP JUMPDEST PUSH1 0x0 PUSH1 0x20 DUP3 DUP5 SUB SLT ISZERO PUSH2 0x916 JUMPI PUSH2 0x915 PUSH2 0x832 JUMP JUMPDEST JUMPDEST PUSH1 0x0 PUSH2 0x924 DUP5 DUP3 DUP6 ADD PUSH2 0x8EB JUMP JUMPDEST SWAP2 POP POP SWAP3 SWAP2 POP POP JUMP JUMPDEST PUSH1 0x0 DUP2 ISZERO ISZERO SWAP1 POP SWAP2 SWAP1 POP JUMP JUMPDEST PUSH2 0x942 DUP2 PUSH2 0x92D JUMP JUMPDEST DUP3 MSTORE POP POP JUMP JUMPDEST PUSH1 0x0 PUSH1 0x20 DUP3 ADD SWAP1 POP PUSH2 0x95D PUSH1 0x0 DUP4 ADD DUP5 PUSH2 0x939 JUMP JUMPDEST SWAP3 SWAP2 POP POP JUMP JUMPDEST PUSH2 0x96C DUP2 PUSH2 0x837 JUMP JUMPDEST DUP3 MSTORE POP POP JUMP JUMPDEST PUSH1 0x0 PUSH1 0x20 DUP3 ADD SWAP1 POP PUSH2 0x987 PUSH1 0x0 DUP4 ADD DUP5 PUSH2 0x963 JUMP JUMPDEST SWAP3 SWAP2 POP POP JUMP JUMPDEST PUSH1 0x0 DUP1 PUSH1 0x40 DUP4 DUP6 SUB SLT ISZERO PUSH2 0x9A4 JUMPI PUSH2 0x9A3 PUSH2 0x832 JUMP JUMPDEST JUMPDEST PUSH1 0x0 PUSH2 0x9B2 DUP6 DUP3 DUP7 ADD PUSH2 0x8EB JUMP JUMPDEST SWAP3 POP POP PUSH1 0x20 PUSH2 0x9C3 DUP6 DUP3 DUP7 ADD PUSH2 0x8EB JUMP JUMPDEST SWAP2 POP POP SWAP3 POP SWAP3 SWAP1 POP JUMP JUMPDEST PUSH32 0x4E487B7100000000000000000000000000000000000000000000000000000000 PUSH1 0x0 MSTORE PUSH1 0x12 PUSH1 0x4 MSTORE PUSH1 0x24 PUSH1 0x0 REVERT JUMPDEST PUSH32 0x4E487B7100000000000000000000000000000000000000000000000000000000 PUSH1 0x0 MSTORE PUSH1 0x11 PUSH1 0x4 MSTORE PUSH1 0x24 PUSH1 0x0 REVERT JUMPDEST PUSH1 0x0 PUSH2 0xA36 DUP3 PUSH2 0x837 JUMP JUMPDEST SWAP2 POP PUSH2 0xA41 DUP4 PUSH2 0x837 JUMP JUMPDEST SWAP3 POP DUP3 PUSH2 0xA51 JUMPI PUSH2 0xA50 PUSH2 0x9CD JUMP JUMPDEST JUMPDEST DUP3 DUP3 DIV SWAP1 POP SWAP3 SWAP2 POP POP JUMP JUMPDEST PUSH1 0x0 PUSH2 0xA67 DUP3 PUSH2 0x837 JUMP JUMPDEST SWAP2 POP PUSH2 0xA72 DUP4 PUSH2 0x837 JUMP JUMPDEST SWAP3 POP DUP3 PUSH2 0xA82 JUMPI PUSH2 0xA81 PUSH2 0x9CD JUMP JUMPDEST JUMPDEST DUP3 DUP3 MOD SWAP1 POP SWAP3 SWAP2 POP POP JUMP JUMPDEST PUSH1 0x0 PUSH2 0xA98 DUP3 PUSH2 0x837 JUMP JUMPDEST SWAP2 POP PUSH2 0xAA3 DUP4 PUSH2 0x837 JUMP JUMPDEST SWAP3 POP DUP3 DUP3 ADD SWAP1 POP DUP1 DUP3 GT ISZERO PUSH2 0xABB JUMPI PUSH2 0xABA PUSH2 0x9FC JUMP JUMPDEST JUMPDEST SWAP3 SWAP2 POP POP JUMP JUMPDEST PUSH1 0x0 PUSH2 0xACC DUP3 PUSH2 0x837 JUMP JUMPDEST SWAP2 POP PUSH2 0xAD7 DUP4 PUSH2 0x837 JUMP JUMPDEST SWAP3 POP DUP3 DUP3 SUB SWAP1 POP DUP2 DUP2 GT ISZERO PUSH2 0xAEF JUMPI PUSH2 0xAEE PUSH2 0x9FC JUMP JUMPDEST JUMPDEST SWAP3 SWAP2 POP POP JUMP JUMPDEST PUSH1 0x0 PUSH2 0xB00 DUP3 PUSH2 0x837 JUMP JUMPDEST SWAP2 POP PUSH2 0xB0B DUP4 PUSH2 0x837 JUMP JUMPDEST SWAP3 POP DUP3 DUP3 MUL PUSH2 0xB19 DUP2 PUSH2 0x837 JUMP JUMPDEST SWAP2 POP DUP3 DUP3 DIV DUP5 EQ DUP4 ISZERO OR PUSH2 0xB30 JUMPI PUSH2 0xB2F PUSH2 0x9FC JUMP JUMPDEST JUMPDEST POP SWAP3 SWAP2 POP POP JUMP JUMPDEST PUSH1 0x0 PUSH2 0xB42 DUP3 PUSH2 0x89A JUMP JUMPDEST SWAP2 POP PUSH2 0xB4D DUP4 PUSH2 0x89A JUMP JUMPDEST SWAP3 POP DUP3 DUP3 SUB SWAP1 POP PUSH4 0xFFFFFFFF DUP2 GT ISZERO PUSH2 0xB69 JUMPI PUSH2 0xB68 PUSH2 0x9FC JUMP JUMPDEST JUMPDEST SWAP3 SWAP2 POP POP JUMP JUMPDEST PUSH1 0x0 PUSH2 0xB7A DUP3 PUSH2 0x89A JUMP JUMPDEST SWAP2 POP PUSH2 0xB85 DUP4 PUSH2 0x89A JUMP JUMPDEST SWAP3 POP DUP3 PUSH2 0xB95 JUMPI PUSH2 0xB94 PUSH2 0x9CD JUMP JUMPDEST JUMPDEST DUP3 DUP3 MOD SWAP1 POP SWAP3 SWAP2 POP POP JUMP JUMPDEST PUSH1 0x0 PUSH2 0xBAB DUP3 PUSH2 0x89A JUMP JUMPDEST SWAP2 POP PUSH4 0xFFFFFFFF DUP3 SUB PUSH2 0xBC1 JUMPI PUSH2 0xBC0 PUSH2 0x9FC JUMP JUMPDEST JUMPDEST PUSH1 0x1 DUP3 ADD SWAP1 POP SWAP2 SWAP1 POP JUMP INVALID LOG2 PUSH5 0x6970667358 0x22 SLT KECCAK256 SMOD 0xEE SWAP14 EXP DUP9 CALLDATALOAD PUSH13 0x4C1D36E683A9808EEE0CC44CC0 PUSH8 0x635E633D940D059 RETURNDATACOPY DUP2 DUP5 PUSH5 0x736F6C6343 STOP ADDMOD GT STOP CALLER "
				},
				"gasEstimates": {
					"creation": {
						"codeDepositCost": "614800",
						"executionCost": "651",
						"totalCost": "615451"
					},
					"external": {
						"getDay(uint256)": "infinite",
						"getDaysInMonth(uint32,uint32)": "infinite",
						"getHour(uint256)": "infinite",
						"getMinute(uint256)": "infinite",
						"getMonth(uint256)": "infinite",
						"getSecond(uint256)": "infinite",
						"getYear(uint256)": "infinite",
						"isLeapYear(uint32)": "infinite",
						"leapYearsBefore(uint256)": "infinite"
					},
					"internal": {
						"parseTimestamp(uint256)": "infinite"
					}
				},
				"methodIdentifiers": {
					"getDay(uint256)": "65c72840",
					"getDaysInMonth(uint32,uint32)": "cf1742c6",
					"getHour(uint256)": "3e239e1a",
					"getMinute(uint256)": "fa93f883",
					"getMonth(uint256)": "a324ad24",
					"getSecond(uint256)": "8aa001fc",
					"getYear(uint256)": "92d66313",
					"isLeapYear(uint32)": "a01f8518",
					"leapYearsBefore(uint256)": "b1999937"
				}
			},
			"storageLayout": {
				"storage": [],
				"types": null
			},
			"userdoc": {
				"kind": "user",
				"methods": {},
				"version": 1
			}
		}
	}
}