{
	"DateTime.sol": {
		"DateTime": {
			"abi": [
				{
					"inputs": [
						{
							"internalType": "uint256",
							"name": "timestamp",
							"type": "uint256"
						}
					],
					"name": "getDay",
					"outputs": [
						{
							"internalType": "uint8",
							"name": "",
							"type": "uint8"
						}
					],
					"stateMutability": "pure",
					"type": "function"
				},
				{
					"inputs": [
						{
							"internalType": "uint8",
							"name": "month",
							"type": "uint8"
						},
						{
							"internalType": "uint32",
							"name": "year",
							"type": "uint32"
						}
					],
					"name": "getDaysInMonth",
					"outputs": [
						{
							"internalType": "uint8",
							"name": "",
							"type": "uint8"
						}
					],
					"stateMutability": "pure",
					"type": "function"
				},
				{
					"inputs": [
						{
							"internalType": "uint256",
							"name": "timestamp",
							"type": "uint256"
						}
					],
					"name": "getHour",
					"outputs": [
						{
							"internalType": "uint8",
							"name": "",
							"type": "uint8"
						}
					],
					"stateMutability": "pure",
					"type": "function"
				},
				{
					"inputs": [
						{
							"internalType": "uint256",
							"name": "timestamp",
							"type": "uint256"
						}
					],
					"name": "getMinute",
					"outputs": [
						{
							"internalType": "uint8",
							"name": "",
							"type": "uint8"
						}
					],
					"stateMutability": "pure",
					"type": "function"
				},
				{
					"inputs": [
						{
							"internalType": "uint256",
							"name": "timestamp",
							"type": "uint256"
						}
					],
					"name": "getMonth",
					"outputs": [
						{
							"internalType": "uint8",
							"name": "",
							"type": "uint8"
						}
					],
					"stateMutability": "pure",
					"type": "function"
				},
				{
					"inputs": [
						{
							"internalType": "uint256",
							"name": "timestamp",
							"type": "uint256"
						}
					],
					"name": "getSecond",
					"outputs": [
						{
							"internalType": "uint8",
							"name": "",
							"type": "uint8"
						}
					],
					"stateMutability": "pure",
					"type": "function"
				},
				{
					"inputs": [
						{
							"internalType": "uint256",
							"name": "timestamp",
							"type": "uint256"
						}
					],
					"name": "getYear",
					"outputs": [
						{
							"internalType": "uint16",
							"name": "",
							"type": "uint16"
						}
					],
					"stateMutability": "pure",
					"type": "function"
				},
				{
					"inputs": [
						{
							"internalType": "uint32",
							"name": "year",
							"type": "uint32"
						}
					],
					"name": "isLeapYear",
					"outputs": [
						{
							"internalType": "bool",
							"name": "",
							"type": "bool"
						}
					],
					"stateMutability": "pure",
					"type": "function"
				},
				{
					"inputs": [
						{
							"internalType": "uint256",
							"name": "year",
							"type": "uint256"
						}
					],
					"name": "leapYearsBefore",
					"outputs": [
						{
							"internalType": "uint256",
							"name": "",
							"type": "uint256"
						}
					],
					"stateMutability": "pure",
					"type": "function"
				}
			],
			"devdoc": {
				"kind": "dev",
				"methods": {},
				"version": 1
			},
			"evm": {
				"assembly": "    /* \"DateTime.sol\":57:4950  contract DateTime {... */\n  mstore(0x40, 0x80)\n  callvalue\n  dup1\n  iszero\n  tag_1\n  jumpi\n  0x00\n  dup1\n  revert\ntag_1:\n  pop\n  dataSize(sub_0)\n  dup1\n  dataOffset(sub_0)\n  0x00\n  codecopy\n  0x00\n  return\nstop\n\nsub_0: assembly {\n        /* \"DateTime.sol\":57:4950  contract DateTime {... */\n      mstore(0x40, 0x80)\n      callvalue\n      dup1\n      iszero\n      tag_1\n      jumpi\n      0x00\n      dup1\n      revert\n    tag_1:\n      pop\n      jumpi(tag_2, lt(calldatasize, 0x04))\n      shr(0xe0, calldataload(0x00))\n      dup1\n      0x92d66313\n      gt\n      tag_12\n      jumpi\n      dup1\n      0x92d66313\n      eq\n      tag_7\n      jumpi\n      dup1\n      0xa01f8518\n      eq\n      tag_8\n      jumpi\n      dup1\n      0xa324ad24\n      eq\n      tag_9\n      jumpi\n      dup1\n      0xb1999937\n      eq\n      tag_10\n      jumpi\n      dup1\n      0xfa93f883\n      eq\n      tag_11\n      jumpi\n      jump(tag_2)\n    tag_12:\n      dup1\n      0x0534c9a6\n      eq\n      tag_3\n      jumpi\n      dup1\n      0x3e239e1a\n      eq\n      tag_4\n      jumpi\n      dup1\n      0x65c72840\n      eq\n      tag_5\n      jumpi\n      dup1\n      0x8aa001fc\n      eq\n      tag_6\n      jumpi\n    tag_2:\n      0x00\n      dup1\n      revert\n        /* \"DateTime.sol\":1146:1717  function getDaysInMonth(uint8 month, uint32 year) public pure returns (uint8) {... */\n    tag_3:\n      tag_13\n      0x04\n      dup1\n      calldatasize\n      sub\n      dup2\n      add\n      swap1\n      tag_14\n      swap2\n      swap1\n      tag_15\n      jump\t// in\n    tag_14:\n      tag_16\n      jump\t// in\n    tag_13:\n      mload(0x40)\n      tag_17\n      swap2\n      swap1\n      tag_18\n      jump\t// in\n    tag_17:\n      mload(0x40)\n      dup1\n      swap2\n      sub\n      swap1\n      return\n        /* \"DateTime.sol\":4549:4679  function getHour(uint timestamp) public pure returns (uint8) {... */\n    tag_4:\n      tag_19\n      0x04\n      dup1\n      calldatasize\n      sub\n      dup2\n      add\n      swap1\n      tag_20\n      swap2\n      swap1\n      tag_21\n      jump\t// in\n    tag_20:\n      tag_22\n      jump\t// in\n    tag_19:\n      mload(0x40)\n      tag_23\n      swap2\n      swap1\n      tag_18\n      jump\t// in\n    tag_23:\n      mload(0x40)\n      dup1\n      swap2\n      sub\n      swap1\n      return\n        /* \"DateTime.sol\":4414:4539  function getDay(uint timestamp) public pure returns (uint8) {... */\n    tag_5:\n      tag_24\n      0x04\n      dup1\n      calldatasize\n      sub\n      dup2\n      add\n      swap1\n      tag_25\n      swap2\n      swap1\n      tag_21\n      jump\t// in\n    tag_25:\n      tag_26\n      jump\t// in\n    tag_24:\n      mload(0x40)\n      tag_27\n      swap2\n      swap1\n      tag_18\n      jump\t// in\n    tag_27:\n      mload(0x40)\n      dup1\n      swap2\n      sub\n      swap1\n      return\n        /* \"DateTime.sol\":4826:4946  function getSecond(uint timestamp) public pure returns (uint8) {... */\n    tag_6:\n      tag_28\n      0x04\n      dup1\n      calldatasize\n      sub\n      dup2\n      add\n      swap1\n      tag_29\n      swap2\n      swap1\n      tag_21\n      jump\t// in\n    tag_29:\n      tag_30\n      jump\t// in\n    tag_28:\n      mload(0x40)\n      tag_31\n      swap2\n      swap1\n      tag_18\n      jump\t// in\n    tag_31:\n      mload(0x40)\n      dup1\n      swap2\n      sub\n      swap1\n      return\n        /* \"DateTime.sol\":3294:4265  function getYear(uint timestamp) public pure returns (uint16) {... */\n    tag_7:\n      tag_32\n      0x04\n      dup1\n      calldatasize\n      sub\n      dup2\n      add\n      swap1\n      tag_33\n      swap2\n      swap1\n      tag_21\n      jump\t// in\n    tag_33:\n      tag_34\n      jump\t// in\n    tag_32:\n      mload(0x40)\n      tag_35\n      swap2\n      swap1\n      tag_36\n      jump\t// in\n    tag_35:\n      mload(0x40)\n      dup1\n      swap2\n      sub\n      swap1\n      return\n        /* \"DateTime.sol\":584:966  function isLeapYear(uint32 year) public pure returns (bool) {... */\n    tag_8:\n      tag_37\n      0x04\n      dup1\n      calldatasize\n      sub\n      dup2\n      add\n      swap1\n      tag_38\n      swap2\n      swap1\n      tag_39\n      jump\t// in\n    tag_38:\n      tag_40\n      jump\t// in\n    tag_37:\n      mload(0x40)\n      tag_41\n      swap2\n      swap1\n      tag_42\n      jump\t// in\n    tag_41:\n      mload(0x40)\n      dup1\n      swap2\n      sub\n      swap1\n      return\n        /* \"DateTime.sol\":4275:4404  function getMonth(uint timestamp) public pure returns (uint8) {... */\n    tag_9:\n      tag_43\n      0x04\n      dup1\n      calldatasize\n      sub\n      dup2\n      add\n      swap1\n      tag_44\n      swap2\n      swap1\n      tag_21\n      jump\t// in\n    tag_44:\n      tag_45\n      jump\t// in\n    tag_43:\n      mload(0x40)\n      tag_46\n      swap2\n      swap1\n      tag_18\n      jump\t// in\n    tag_46:\n      mload(0x40)\n      dup1\n      swap2\n      sub\n      swap1\n      return\n        /* \"DateTime.sol\":976:1136  function leapYearsBefore(uint year) public pure returns (uint) {... */\n    tag_10:\n      tag_47\n      0x04\n      dup1\n      calldatasize\n      sub\n      dup2\n      add\n      swap1\n      tag_48\n      swap2\n      swap1\n      tag_21\n      jump\t// in\n    tag_48:\n      tag_49\n      jump\t// in\n    tag_47:\n      mload(0x40)\n      tag_50\n      swap2\n      swap1\n      tag_51\n      jump\t// in\n    tag_50:\n      mload(0x40)\n      dup1\n      swap2\n      sub\n      swap1\n      return\n        /* \"DateTime.sol\":4689:4816  function getMinute(uint timestamp) public pure returns (uint8) {... */\n    tag_11:\n      tag_52\n      0x04\n      dup1\n      calldatasize\n      sub\n      dup2\n      add\n      swap1\n      tag_53\n      swap2\n      swap1\n      tag_21\n      jump\t// in\n    tag_53:\n      tag_54\n      jump\t// in\n    tag_52:\n      mload(0x40)\n      tag_55\n      swap2\n      swap1\n      tag_18\n      jump\t// in\n    tag_55:\n      mload(0x40)\n      dup1\n      swap2\n      sub\n      swap1\n      return\n        /* \"DateTime.sol\":1146:1717  function getDaysInMonth(uint8 month, uint32 year) public pure returns (uint8) {... */\n    tag_16:\n        /* \"DateTime.sol\":1217:1222  uint8 */\n      0x00\n        /* \"DateTime.sol\":1255:1256  1 */\n      0x01\n        /* \"DateTime.sol\":1246:1251  month */\n      dup4\n        /* \"DateTime.sol\":1246:1256  month == 1 */\n      0xff\n      and\n      eq\n        /* \"DateTime.sol\":1246:1270  month == 1 || month == 3 */\n      dup1\n      tag_57\n      jumpi\n      pop\n        /* \"DateTime.sol\":1269:1270  3 */\n      0x03\n        /* \"DateTime.sol\":1260:1265  month */\n      dup4\n        /* \"DateTime.sol\":1260:1270  month == 3 */\n      0xff\n      and\n      eq\n        /* \"DateTime.sol\":1246:1270  month == 1 || month == 3 */\n    tag_57:\n        /* \"DateTime.sol\":1246:1284  month == 1 || month == 3 || month == 5 */\n      dup1\n      tag_58\n      jumpi\n      pop\n        /* \"DateTime.sol\":1283:1284  5 */\n      0x05\n        /* \"DateTime.sol\":1274:1279  month */\n      dup4\n        /* \"DateTime.sol\":1274:1284  month == 5 */\n      0xff\n      and\n      eq\n        /* \"DateTime.sol\":1246:1284  month == 1 || month == 3 || month == 5 */\n    tag_58:\n        /* \"DateTime.sol\":1246:1298  month == 1 || month == 3 || month == 5 || month == 7 */\n      dup1\n      tag_59\n      jumpi\n      pop\n        /* \"DateTime.sol\":1297:1298  7 */\n      0x07\n        /* \"DateTime.sol\":1288:1293  month */\n      dup4\n        /* \"DateTime.sol\":1288:1298  month == 7 */\n      0xff\n      and\n      eq\n        /* \"DateTime.sol\":1246:1298  month == 1 || month == 3 || month == 5 || month == 7 */\n    tag_59:\n        /* \"DateTime.sol\":1246:1312  month == 1 || month == 3 || month == 5 || month == 7 || month == 8 */\n      dup1\n      tag_60\n      jumpi\n      pop\n        /* \"DateTime.sol\":1311:1312  8 */\n      0x08\n        /* \"DateTime.sol\":1302:1307  month */\n      dup4\n        /* \"DateTime.sol\":1302:1312  month == 8 */\n      0xff\n      and\n      eq\n        /* \"DateTime.sol\":1246:1312  month == 1 || month == 3 || month == 5 || month == 7 || month == 8 */\n    tag_60:\n        /* \"DateTime.sol\":1246:1327  month == 1 || month == 3 || month == 5 || month == 7 || month == 8 || month == 10 */\n      dup1\n      tag_61\n      jumpi\n      pop\n        /* \"DateTime.sol\":1325:1327  10 */\n      0x0a\n        /* \"DateTime.sol\":1316:1321  month */\n      dup4\n        /* \"DateTime.sol\":1316:1327  month == 10 */\n      0xff\n      and\n      eq\n        /* \"DateTime.sol\":1246:1327  month == 1 || month == 3 || month == 5 || month == 7 || month == 8 || month == 10 */\n    tag_61:\n        /* \"DateTime.sol\":1246:1342  month == 1 || month == 3 || month == 5 || month == 7 || month == 8 || month == 10 || month == 12 */\n      dup1\n      tag_62\n      jumpi\n      pop\n        /* \"DateTime.sol\":1340:1342  12 */\n      0x0c\n        /* \"DateTime.sol\":1331:1336  month */\n      dup4\n        /* \"DateTime.sol\":1331:1342  month == 12 */\n      0xff\n      and\n      eq\n        /* \"DateTime.sol\":1246:1342  month == 1 || month == 3 || month == 5 || month == 7 || month == 8 || month == 10 || month == 12 */\n    tag_62:\n        /* \"DateTime.sol\":1242:1707  if (month == 1 || month == 3 || month == 5 || month == 7 || month == 8 || month == 10 || month == 12) {... */\n      iszero\n      tag_63\n      jumpi\n        /* \"DateTime.sol\":1377:1379  31 */\n      0x1f\n        /* \"DateTime.sol\":1370:1379  return 31 */\n      swap1\n      pop\n      jump(tag_56)\n        /* \"DateTime.sol\":1242:1707  if (month == 1 || month == 3 || month == 5 || month == 7 || month == 8 || month == 10 || month == 12) {... */\n    tag_63:\n        /* \"DateTime.sol\":1433:1434  4 */\n      0x04\n        /* \"DateTime.sol\":1424:1429  month */\n      dup4\n        /* \"DateTime.sol\":1424:1434  month == 4 */\n      0xff\n      and\n      eq\n        /* \"DateTime.sol\":1424:1448  month == 4 || month == 6 */\n      dup1\n      tag_65\n      jumpi\n      pop\n        /* \"DateTime.sol\":1447:1448  6 */\n      0x06\n        /* \"DateTime.sol\":1438:1443  month */\n      dup4\n        /* \"DateTime.sol\":1438:1448  month == 6 */\n      0xff\n      and\n      eq\n        /* \"DateTime.sol\":1424:1448  month == 4 || month == 6 */\n    tag_65:\n        /* \"DateTime.sol\":1424:1462  month == 4 || month == 6 || month == 9 */\n      dup1\n      tag_66\n      jumpi\n      pop\n        /* \"DateTime.sol\":1461:1462  9 */\n      0x09\n        /* \"DateTime.sol\":1452:1457  month */\n      dup4\n        /* \"DateTime.sol\":1452:1462  month == 9 */\n      0xff\n      and\n      eq\n        /* \"DateTime.sol\":1424:1462  month == 4 || month == 6 || month == 9 */\n    tag_66:\n        /* \"DateTime.sol\":1424:1477  month == 4 || month == 6 || month == 9 || month == 11 */\n      dup1\n      tag_67\n      jumpi\n      pop\n        /* \"DateTime.sol\":1475:1477  11 */\n      0x0b\n        /* \"DateTime.sol\":1466:1471  month */\n      dup4\n        /* \"DateTime.sol\":1466:1477  month == 11 */\n      0xff\n      and\n      eq\n        /* \"DateTime.sol\":1424:1477  month == 4 || month == 6 || month == 9 || month == 11 */\n    tag_67:\n        /* \"DateTime.sol\":1420:1707  if (month == 4 || month == 6 || month == 9 || month == 11) {... */\n      iszero\n      tag_68\n      jumpi\n        /* \"DateTime.sol\":1512:1514  30 */\n      0x1e\n        /* \"DateTime.sol\":1505:1514  return 30 */\n      swap1\n      pop\n      jump(tag_56)\n        /* \"DateTime.sol\":1420:1707  if (month == 4 || month == 6 || month == 9 || month == 11) {... */\n    tag_68:\n        /* \"DateTime.sol\":1559:1575  isLeapYear(year) */\n      tag_70\n        /* \"DateTime.sol\":1570:1574  year */\n      dup3\n        /* \"DateTime.sol\":1559:1569  isLeapYear */\n      tag_40\n        /* \"DateTime.sol\":1559:1575  isLeapYear(year) */\n      jump\t// in\n    tag_70:\n        /* \"DateTime.sol\":1555:1707  if (isLeapYear(year)) {... */\n      iszero\n      tag_71\n      jumpi\n        /* \"DateTime.sol\":1610:1612  29 */\n      0x1d\n        /* \"DateTime.sol\":1603:1612  return 29 */\n      swap1\n      pop\n      jump(tag_56)\n        /* \"DateTime.sol\":1555:1707  if (isLeapYear(year)) {... */\n    tag_71:\n        /* \"DateTime.sol\":1686:1688  28 */\n      0x1c\n        /* \"DateTime.sol\":1679:1688  return 28 */\n      swap1\n      pop\n        /* \"DateTime.sol\":1146:1717  function getDaysInMonth(uint8 month, uint32 year) public pure returns (uint8) {... */\n    tag_56:\n      swap3\n      swap2\n      pop\n      pop\n      jump\t// out\n        /* \"DateTime.sol\":4549:4679  function getHour(uint timestamp) public pure returns (uint8) {... */\n    tag_22:\n        /* \"DateTime.sol\":4603:4608  uint8 */\n      0x00\n        /* \"DateTime.sol\":4665:4667  24 */\n      0x18\n        /* \"DateTime.sol\":4659:4661  60 */\n      0x3c\n        /* \"DateTime.sol\":4654:4656  60 */\n      dup1\n        /* \"DateTime.sol\":4642:4651  timestamp */\n      dup5\n        /* \"DateTime.sol\":4642:4656  timestamp / 60 */\n      tag_74\n      swap2\n      swap1\n      tag_75\n      jump\t// in\n    tag_74:\n        /* \"DateTime.sol\":4642:4661  timestamp / 60 / 60 */\n      tag_76\n      swap2\n      swap1\n      tag_75\n      jump\t// in\n    tag_76:\n        /* \"DateTime.sol\":4641:4667  (timestamp / 60 / 60) % 24 */\n      tag_77\n      swap2\n      swap1\n      tag_78\n      jump\t// in\n    tag_77:\n        /* \"DateTime.sol\":4628:4668  return uint8((timestamp / 60 / 60) % 24) */\n      swap1\n      pop\n        /* \"DateTime.sol\":4549:4679  function getHour(uint timestamp) public pure returns (uint8) {... */\n      swap2\n      swap1\n      pop\n      jump\t// out\n        /* \"DateTime.sol\":4414:4539  function getDay(uint timestamp) public pure returns (uint8) {... */\n    tag_26:\n        /* \"DateTime.sol\":4467:4472  uint8 */\n      0x00\n        /* \"DateTime.sol\":4499:4524  parseTimestamp(timestamp) */\n      tag_80\n        /* \"DateTime.sol\":4514:4523  timestamp */\n      dup3\n        /* \"DateTime.sol\":4499:4513  parseTimestamp */\n      tag_81\n        /* \"DateTime.sol\":4499:4524  parseTimestamp(timestamp) */\n      jump\t// in\n    tag_80:\n        /* \"DateTime.sol\":4499:4528  parseTimestamp(timestamp).day */\n      0x40\n      add\n      mload\n        /* \"DateTime.sol\":4492:4528  return parseTimestamp(timestamp).day */\n      swap1\n      pop\n        /* \"DateTime.sol\":4414:4539  function getDay(uint timestamp) public pure returns (uint8) {... */\n      swap2\n      swap1\n      pop\n      jump\t// out\n        /* \"DateTime.sol\":4826:4946  function getSecond(uint timestamp) public pure returns (uint8) {... */\n    tag_30:\n        /* \"DateTime.sol\":4882:4887  uint8 */\n      0x00\n        /* \"DateTime.sol\":4932:4934  60 */\n      0x3c\n        /* \"DateTime.sol\":4920:4929  timestamp */\n      dup3\n        /* \"DateTime.sol\":4920:4934  timestamp % 60 */\n      tag_83\n      swap2\n      swap1\n      tag_78\n      jump\t// in\n    tag_83:\n        /* \"DateTime.sol\":4907:4935  return uint8(timestamp % 60) */\n      swap1\n      pop\n        /* \"DateTime.sol\":4826:4946  function getSecond(uint timestamp) public pure returns (uint8) {... */\n      swap2\n      swap1\n      pop\n      jump\t// out\n        /* \"DateTime.sol\":3294:4265  function getYear(uint timestamp) public pure returns (uint16) {... */\n    tag_34:\n        /* \"DateTime.sol\":3348:3354  uint16 */\n      0x00\n        /* \"DateTime.sol\":3374:3398  uint secondsAccountedFor */\n      dup1\n        /* \"DateTime.sol\":3401:3402  0 */\n      0x00\n        /* \"DateTime.sol\":3374:3402  uint secondsAccountedFor = 0 */\n      swap1\n      pop\n        /* \"DateTime.sol\":3420:3431  uint16 year */\n      0x00\n        /* \"DateTime.sol\":3449:3466  uint numLeapYears */\n      dup1\n        /* \"DateTime.sol\":374:382  31536000 */\n      0x01e13380\n        /* \"DateTime.sol\":3537:3546  timestamp */\n      dup6\n        /* \"DateTime.sol\":3537:3564  timestamp / YEAR_IN_SECONDS */\n      tag_85\n      swap2\n      swap1\n      tag_75\n      jump\t// in\n    tag_85:\n        /* \"DateTime.sol\":569:573  1970 */\n      0x07b2\n        /* \"DateTime.sol\":3523:3564  ORIGIN_YEAR + timestamp / YEAR_IN_SECONDS */\n      0xffffffff\n      and\n      tag_86\n      swap2\n      swap1\n      tag_87\n      jump\t// in\n    tag_86:\n        /* \"DateTime.sol\":3509:3565  year = uint16(ORIGIN_YEAR + timestamp / YEAR_IN_SECONDS) */\n      swap2\n      pop\n        /* \"DateTime.sol\":3622:3650  leapYearsBefore(ORIGIN_YEAR) */\n      tag_88\n        /* \"DateTime.sol\":569:573  1970 */\n      0x07b2\n        /* \"DateTime.sol\":3622:3650  leapYearsBefore(ORIGIN_YEAR) */\n      0xffffffff\n      and\n        /* \"DateTime.sol\":3622:3637  leapYearsBefore */\n      tag_49\n        /* \"DateTime.sol\":3622:3650  leapYearsBefore(ORIGIN_YEAR) */\n      jump\t// in\n    tag_88:\n        /* \"DateTime.sol\":3598:3619  leapYearsBefore(year) */\n      tag_89\n        /* \"DateTime.sol\":3614:3618  year */\n      dup4\n        /* \"DateTime.sol\":3598:3619  leapYearsBefore(year) */\n      0xffff\n      and\n        /* \"DateTime.sol\":3598:3613  leapYearsBefore */\n      tag_49\n        /* \"DateTime.sol\":3598:3619  leapYearsBefore(year) */\n      jump\t// in\n    tag_89:\n        /* \"DateTime.sol\":3598:3650  leapYearsBefore(year) - leapYearsBefore(ORIGIN_YEAR) */\n      tag_90\n      swap2\n      swap1\n      tag_91\n      jump\t// in\n    tag_90:\n        /* \"DateTime.sol\":3583:3650  numLeapYears = leapYearsBefore(year) - leapYearsBefore(ORIGIN_YEAR) */\n      swap1\n      pop\n        /* \"DateTime.sol\":3715:3727  numLeapYears */\n      dup1\n        /* \"DateTime.sol\":429:437  31622400 */\n      0x01e28500\n        /* \"DateTime.sol\":3692:3727  LEAP_YEAR_IN_SECONDS * numLeapYears */\n      tag_92\n      swap2\n      swap1\n      tag_93\n      jump\t// in\n    tag_92:\n        /* \"DateTime.sol\":3669:3727  secondsAccountedFor += LEAP_YEAR_IN_SECONDS * numLeapYears */\n      dup4\n      tag_94\n      swap2\n      swap1\n      tag_87\n      jump\t// in\n    tag_94:\n      swap3\n      pop\n        /* \"DateTime.sol\":3808:3820  numLeapYears */\n      dup1\n        /* \"DateTime.sol\":569:573  1970 */\n      0x07b2\n        /* \"DateTime.sol\":3787:3791  year */\n      dup4\n        /* \"DateTime.sol\":3787:3805  year - ORIGIN_YEAR */\n      0xffff\n      and\n      tag_95\n      swap2\n      swap1\n      tag_96\n      jump\t// in\n    tag_95:\n        /* \"DateTime.sol\":3787:3820  year - ORIGIN_YEAR - numLeapYears */\n      0xffffffff\n      and\n      tag_97\n      swap2\n      swap1\n      tag_91\n      jump\t// in\n    tag_97:\n        /* \"DateTime.sol\":374:382  31536000 */\n      0x01e13380\n        /* \"DateTime.sol\":3768:3821  YEAR_IN_SECONDS * (year - ORIGIN_YEAR - numLeapYears) */\n      tag_98\n      swap2\n      swap1\n      tag_93\n      jump\t// in\n    tag_98:\n        /* \"DateTime.sol\":3745:3821  secondsAccountedFor += YEAR_IN_SECONDS * (year - ORIGIN_YEAR - numLeapYears) */\n      dup4\n      tag_99\n      swap2\n      swap1\n      tag_87\n      jump\t// in\n    tag_99:\n      swap3\n      pop\n        /* \"DateTime.sol\":3840:4226  while (secondsAccountedFor > timestamp) {... */\n    tag_100:\n        /* \"DateTime.sol\":3869:3878  timestamp */\n      dup5\n        /* \"DateTime.sol\":3847:3866  secondsAccountedFor */\n      dup4\n        /* \"DateTime.sol\":3847:3878  secondsAccountedFor > timestamp */\n      gt\n        /* \"DateTime.sol\":3840:4226  while (secondsAccountedFor > timestamp) {... */\n      iszero\n      tag_101\n      jumpi\n        /* \"DateTime.sol\":3910:3938  isLeapYear(uint16(year - 1)) */\n      tag_102\n        /* \"DateTime.sol\":3935:3936  1 */\n      0x01\n        /* \"DateTime.sol\":3928:3932  year */\n      dup4\n        /* \"DateTime.sol\":3928:3936  year - 1 */\n      tag_103\n      swap2\n      swap1\n      tag_104\n      jump\t// in\n    tag_103:\n        /* \"DateTime.sol\":3910:3938  isLeapYear(uint16(year - 1)) */\n      0xffff\n      and\n        /* \"DateTime.sol\":3910:3920  isLeapYear */\n      tag_40\n        /* \"DateTime.sol\":3910:3938  isLeapYear(uint16(year - 1)) */\n      jump\t// in\n    tag_102:\n        /* \"DateTime.sol\":3906:4173  if (isLeapYear(uint16(year - 1))) {... */\n      iszero\n      tag_105\n      jumpi\n        /* \"DateTime.sol\":429:437  31622400 */\n      0x01e28500\n        /* \"DateTime.sol\":3974:4017  secondsAccountedFor -= LEAP_YEAR_IN_SECONDS */\n      dup4\n      tag_106\n      swap2\n      swap1\n      tag_91\n      jump\t// in\n    tag_106:\n      swap3\n      pop\n        /* \"DateTime.sol\":3906:4173  if (isLeapYear(uint16(year - 1))) {... */\n      jump(tag_107)\n    tag_105:\n        /* \"DateTime.sol\":374:382  31536000 */\n      0x01e13380\n        /* \"DateTime.sol\":4108:4146  secondsAccountedFor -= YEAR_IN_SECONDS */\n      dup4\n      tag_108\n      swap2\n      swap1\n      tag_91\n      jump\t// in\n    tag_108:\n      swap3\n      pop\n        /* \"DateTime.sol\":3906:4173  if (isLeapYear(uint16(year - 1))) {... */\n    tag_107:\n        /* \"DateTime.sol\":4206:4207  1 */\n      0x01\n        /* \"DateTime.sol\":4198:4207  year -= 1 */\n      dup3\n      tag_109\n      swap2\n      swap1\n      tag_104\n      jump\t// in\n    tag_109:\n      swap2\n      pop\n        /* \"DateTime.sol\":3840:4226  while (secondsAccountedFor > timestamp) {... */\n      jump(tag_100)\n    tag_101:\n        /* \"DateTime.sol\":4250:4254  year */\n      dup2\n        /* \"DateTime.sol\":4243:4254  return year */\n      swap4\n      pop\n      pop\n      pop\n      pop\n        /* \"DateTime.sol\":3294:4265  function getYear(uint timestamp) public pure returns (uint16) {... */\n      swap2\n      swap1\n      pop\n      jump\t// out\n        /* \"DateTime.sol\":584:966  function isLeapYear(uint32 year) public pure returns (bool) {... */\n    tag_40:\n        /* \"DateTime.sol\":638:642  bool */\n      0x00\n        /* \"DateTime.sol\":678:679  0 */\n      dup1\n        /* \"DateTime.sol\":673:674  4 */\n      0x04\n        /* \"DateTime.sol\":666:670  year */\n      dup4\n        /* \"DateTime.sol\":666:674  year % 4 */\n      tag_111\n      swap2\n      swap1\n      tag_112\n      jump\t// in\n    tag_111:\n        /* \"DateTime.sol\":666:679  year % 4 != 0 */\n      0xffffffff\n      and\n      eq\n        /* \"DateTime.sol\":662:738  if (year % 4 != 0) {... */\n      tag_113\n      jumpi\n        /* \"DateTime.sol\":714:719  false */\n      0x00\n        /* \"DateTime.sol\":707:719  return false */\n      swap1\n      pop\n      jump(tag_110)\n        /* \"DateTime.sol\":662:738  if (year % 4 != 0) {... */\n    tag_113:\n        /* \"DateTime.sol\":773:774  0 */\n      0x00\n        /* \"DateTime.sol\":766:769  100 */\n      0x64\n        /* \"DateTime.sol\":759:763  year */\n      dup4\n        /* \"DateTime.sol\":759:769  year % 100 */\n      tag_114\n      swap2\n      swap1\n      tag_112\n      jump\t// in\n    tag_114:\n        /* \"DateTime.sol\":759:774  year % 100 != 0 */\n      0xffffffff\n      and\n      eq\n        /* \"DateTime.sol\":755:832  if (year % 100 != 0) {... */\n      tag_115\n      jumpi\n        /* \"DateTime.sol\":809:813  true */\n      0x01\n        /* \"DateTime.sol\":802:813  return true */\n      swap1\n      pop\n      jump(tag_110)\n        /* \"DateTime.sol\":755:832  if (year % 100 != 0) {... */\n    tag_115:\n        /* \"DateTime.sol\":867:868  0 */\n      0x00\n        /* \"DateTime.sol\":860:863  400 */\n      0x0190\n        /* \"DateTime.sol\":853:857  year */\n      dup4\n        /* \"DateTime.sol\":853:863  year % 400 */\n      tag_116\n      swap2\n      swap1\n      tag_112\n      jump\t// in\n    tag_116:\n        /* \"DateTime.sol\":853:868  year % 400 != 0 */\n      0xffffffff\n      and\n      eq\n        /* \"DateTime.sol\":849:927  if (year % 400 != 0) {... */\n      tag_117\n      jumpi\n        /* \"DateTime.sol\":903:908  false */\n      0x00\n        /* \"DateTime.sol\":896:908  return false */\n      swap1\n      pop\n      jump(tag_110)\n        /* \"DateTime.sol\":849:927  if (year % 400 != 0) {... */\n    tag_117:\n        /* \"DateTime.sol\":951:955  true */\n      0x01\n        /* \"DateTime.sol\":944:955  return true */\n      swap1\n      pop\n        /* \"DateTime.sol\":584:966  function isLeapYear(uint32 year) public pure returns (bool) {... */\n    tag_110:\n      swap2\n      swap1\n      pop\n      jump\t// out\n        /* \"DateTime.sol\":4275:4404  function getMonth(uint timestamp) public pure returns (uint8) {... */\n    tag_45:\n        /* \"DateTime.sol\":4330:4335  uint8 */\n      0x00\n        /* \"DateTime.sol\":4362:4387  parseTimestamp(timestamp) */\n      tag_119\n        /* \"DateTime.sol\":4377:4386  timestamp */\n      dup3\n        /* \"DateTime.sol\":4362:4376  parseTimestamp */\n      tag_81\n        /* \"DateTime.sol\":4362:4387  parseTimestamp(timestamp) */\n      jump\t// in\n    tag_119:\n        /* \"DateTime.sol\":4362:4393  parseTimestamp(timestamp).month */\n      0x20\n      add\n      mload\n        /* \"DateTime.sol\":4355:4393  return parseTimestamp(timestamp).month */\n      swap1\n      pop\n        /* \"DateTime.sol\":4275:4404  function getMonth(uint timestamp) public pure returns (uint8) {... */\n      swap2\n      swap1\n      pop\n      jump\t// out\n        /* \"DateTime.sol\":976:1136  function leapYearsBefore(uint year) public pure returns (uint) {... */\n    tag_49:\n        /* \"DateTime.sol\":1033:1037  uint */\n      0x00\n        /* \"DateTime.sol\":1065:1066  1 */\n      0x01\n        /* \"DateTime.sol\":1057:1066  year -= 1 */\n      dup3\n      tag_121\n      swap2\n      swap1\n      tag_91\n      jump\t// in\n    tag_121:\n      swap2\n      pop\n        /* \"DateTime.sol\":1122:1125  400 */\n      0x0190\n        /* \"DateTime.sol\":1115:1119  year */\n      dup3\n        /* \"DateTime.sol\":1115:1125  year / 400 */\n      tag_122\n      swap2\n      swap1\n      tag_75\n      jump\t// in\n    tag_122:\n        /* \"DateTime.sol\":1109:1112  100 */\n      0x64\n        /* \"DateTime.sol\":1102:1106  year */\n      dup4\n        /* \"DateTime.sol\":1102:1112  year / 100 */\n      tag_123\n      swap2\n      swap1\n      tag_75\n      jump\t// in\n    tag_123:\n        /* \"DateTime.sol\":1098:1099  4 */\n      0x04\n        /* \"DateTime.sol\":1091:1095  year */\n      dup5\n        /* \"DateTime.sol\":1091:1099  year / 4 */\n      tag_124\n      swap2\n      swap1\n      tag_75\n      jump\t// in\n    tag_124:\n        /* \"DateTime.sol\":1091:1112  year / 4 - year / 100 */\n      tag_125\n      swap2\n      swap1\n      tag_91\n      jump\t// in\n    tag_125:\n        /* \"DateTime.sol\":1091:1125  year / 4 - year / 100 + year / 400 */\n      tag_126\n      swap2\n      swap1\n      tag_87\n      jump\t// in\n    tag_126:\n        /* \"DateTime.sol\":1084:1125  return year / 4 - year / 100 + year / 400 */\n      swap1\n      pop\n        /* \"DateTime.sol\":976:1136  function leapYearsBefore(uint year) public pure returns (uint) {... */\n      swap2\n      swap1\n      pop\n      jump\t// out\n        /* \"DateTime.sol\":4689:4816  function getMinute(uint timestamp) public pure returns (uint8) {... */\n    tag_54:\n        /* \"DateTime.sol\":4745:4750  uint8 */\n      0x00\n        /* \"DateTime.sol\":4802:4804  60 */\n      0x3c\n        /* \"DateTime.sol\":4796:4798  60 */\n      dup1\n        /* \"DateTime.sol\":4784:4793  timestamp */\n      dup4\n        /* \"DateTime.sol\":4784:4798  timestamp / 60 */\n      tag_128\n      swap2\n      swap1\n      tag_75\n      jump\t// in\n    tag_128:\n        /* \"DateTime.sol\":4783:4804  (timestamp / 60) % 60 */\n      tag_129\n      swap2\n      swap1\n      tag_78\n      jump\t// in\n    tag_129:\n        /* \"DateTime.sol\":4770:4805  return uint8((timestamp / 60) % 60) */\n      swap1\n      pop\n        /* \"DateTime.sol\":4689:4816  function getMinute(uint timestamp) public pure returns (uint8) {... */\n      swap2\n      swap1\n      pop\n      jump\t// out\n        /* \"DateTime.sol\":1727:3284  function parseTimestamp(uint timestamp) internal pure returns (_DateTime memory dt) {... */\n    tag_81:\n        /* \"DateTime.sol\":1790:1809  _DateTime memory dt */\n      tag_130\n      tag_131\n      jump\t// in\n    tag_130:\n        /* \"DateTime.sol\":1829:1853  uint secondsAccountedFor */\n      0x00\n        /* \"DateTime.sol\":1875:1883  uint buf */\n      dup1\n        /* \"DateTime.sol\":1901:1908  uint8 i */\n      dup1\n        /* \"DateTime.sol\":1961:1979  getYear(timestamp) */\n      tag_133\n        /* \"DateTime.sol\":1969:1978  timestamp */\n      dup6\n        /* \"DateTime.sol\":1961:1968  getYear */\n      tag_34\n        /* \"DateTime.sol\":1961:1979  getYear(timestamp) */\n      jump\t// in\n    tag_133:\n        /* \"DateTime.sol\":1951:1953  dt */\n      dup5\n        /* \"DateTime.sol\":1951:1958  dt.year */\n      0x00\n      add\n        /* \"DateTime.sol\":1951:1979  dt.year = getYear(timestamp) */\n      swap1\n      0xffff\n      and\n      swap1\n      dup2\n      0xffff\n      and\n      dup2\n      mstore\n      pop\n      pop\n        /* \"DateTime.sol\":2030:2058  leapYearsBefore(ORIGIN_YEAR) */\n      tag_134\n        /* \"DateTime.sol\":569:573  1970 */\n      0x07b2\n        /* \"DateTime.sol\":2030:2058  leapYearsBefore(ORIGIN_YEAR) */\n      0xffffffff\n      and\n        /* \"DateTime.sol\":2030:2045  leapYearsBefore */\n      tag_49\n        /* \"DateTime.sol\":2030:2058  leapYearsBefore(ORIGIN_YEAR) */\n      jump\t// in\n    tag_134:\n        /* \"DateTime.sol\":2003:2027  leapYearsBefore(dt.year) */\n      tag_135\n        /* \"DateTime.sol\":2019:2021  dt */\n      dup6\n        /* \"DateTime.sol\":2019:2026  dt.year */\n      0x00\n      add\n      mload\n        /* \"DateTime.sol\":2003:2027  leapYearsBefore(dt.year) */\n      0xffff\n      and\n        /* \"DateTime.sol\":2003:2018  leapYearsBefore */\n      tag_49\n        /* \"DateTime.sol\":2003:2027  leapYearsBefore(dt.year) */\n      jump\t// in\n    tag_135:\n        /* \"DateTime.sol\":2003:2058  leapYearsBefore(dt.year) - leapYearsBefore(ORIGIN_YEAR) */\n      tag_136\n      swap2\n      swap1\n      tag_91\n      jump\t// in\n    tag_136:\n        /* \"DateTime.sol\":1997:2058  buf = leapYearsBefore(dt.year) - leapYearsBefore(ORIGIN_YEAR) */\n      swap2\n      pop\n        /* \"DateTime.sol\":2123:2126  buf */\n      dup2\n        /* \"DateTime.sol\":429:437  31622400 */\n      0x01e28500\n        /* \"DateTime.sol\":2100:2126  LEAP_YEAR_IN_SECONDS * buf */\n      tag_137\n      swap2\n      swap1\n      tag_93\n      jump\t// in\n    tag_137:\n        /* \"DateTime.sol\":2077:2126  secondsAccountedFor += LEAP_YEAR_IN_SECONDS * buf */\n      dup4\n      tag_138\n      swap2\n      swap1\n      tag_87\n      jump\t// in\n    tag_138:\n      swap3\n      pop\n        /* \"DateTime.sol\":2210:2213  buf */\n      dup2\n        /* \"DateTime.sol\":569:573  1970 */\n      0x07b2\n        /* \"DateTime.sol\":2186:2188  dt */\n      dup6\n        /* \"DateTime.sol\":2186:2193  dt.year */\n      0x00\n      add\n      mload\n        /* \"DateTime.sol\":2186:2207  dt.year - ORIGIN_YEAR */\n      0xffff\n      and\n      tag_139\n      swap2\n      swap1\n      tag_96\n      jump\t// in\n    tag_139:\n        /* \"DateTime.sol\":2186:2213  dt.year - ORIGIN_YEAR - buf */\n      0xffffffff\n      and\n      tag_140\n      swap2\n      swap1\n      tag_91\n      jump\t// in\n    tag_140:\n        /* \"DateTime.sol\":374:382  31536000 */\n      0x01e13380\n        /* \"DateTime.sol\":2167:2214  YEAR_IN_SECONDS * (dt.year - ORIGIN_YEAR - buf) */\n      tag_141\n      swap2\n      swap1\n      tag_93\n      jump\t// in\n    tag_141:\n        /* \"DateTime.sol\":2144:2214  secondsAccountedFor += YEAR_IN_SECONDS * (dt.year - ORIGIN_YEAR - buf) */\n      dup4\n      tag_142\n      swap2\n      swap1\n      tag_87\n      jump\t// in\n    tag_142:\n      swap3\n      pop\n        /* \"DateTime.sol\":2258:2277  uint secondsInMonth */\n      0x00\n        /* \"DateTime.sol\":2304:2305  1 */\n      0x01\n        /* \"DateTime.sol\":2300:2305  i = 1 */\n      swap2\n      pop\n        /* \"DateTime.sol\":2295:2680  for (i = 1; i <= 12; i++) {... */\n    tag_143:\n        /* \"DateTime.sol\":2312:2314  12 */\n      0x0c\n        /* \"DateTime.sol\":2307:2308  i */\n      dup3\n        /* \"DateTime.sol\":2307:2314  i <= 12 */\n      0xff\n      and\n      gt\n        /* \"DateTime.sol\":2295:2680  for (i = 1; i <= 12; i++) {... */\n      tag_144\n      jumpi\n        /* \"DateTime.sol\":2381:2407  getDaysInMonth(i, dt.year) */\n      tag_146\n        /* \"DateTime.sol\":2396:2397  i */\n      dup3\n        /* \"DateTime.sol\":2399:2401  dt */\n      dup7\n        /* \"DateTime.sol\":2399:2406  dt.year */\n      0x00\n      add\n      mload\n        /* \"DateTime.sol\":2381:2407  getDaysInMonth(i, dt.year) */\n      0xffff\n      and\n        /* \"DateTime.sol\":2381:2395  getDaysInMonth */\n      tag_16\n        /* \"DateTime.sol\":2381:2407  getDaysInMonth(i, dt.year) */\n      jump\t// in\n    tag_146:\n        /* \"DateTime.sol\":2364:2407  DAY_IN_SECONDS * getDaysInMonth(i, dt.year) */\n      0xff\n      and\n        /* \"DateTime.sol\":327:332  86400 */\n      0x015180\n        /* \"DateTime.sol\":2364:2407  DAY_IN_SECONDS * getDaysInMonth(i, dt.year) */\n      tag_147\n      swap2\n      swap1\n      tag_93\n      jump\t// in\n    tag_147:\n        /* \"DateTime.sol\":2347:2407  secondsInMonth = DAY_IN_SECONDS * getDaysInMonth(i, dt.year) */\n      swap1\n      pop\n        /* \"DateTime.sol\":2476:2485  timestamp */\n      dup6\n        /* \"DateTime.sol\":2454:2473  secondsAccountedFor */\n      dup5\n        /* \"DateTime.sol\":2437:2451  secondsInMonth */\n      dup3\n        /* \"DateTime.sol\":2437:2473  secondsInMonth + secondsAccountedFor */\n      tag_148\n      swap2\n      swap1\n      tag_87\n      jump\t// in\n    tag_148:\n        /* \"DateTime.sol\":2437:2485  secondsInMonth + secondsAccountedFor > timestamp */\n      gt\n        /* \"DateTime.sol\":2433:2599  if (secondsInMonth + secondsAccountedFor > timestamp) {... */\n      iszero\n      tag_149\n      jumpi\n        /* \"DateTime.sol\":2532:2533  i */\n      dup2\n        /* \"DateTime.sol\":2521:2523  dt */\n      dup6\n        /* \"DateTime.sol\":2521:2529  dt.month */\n      0x20\n      add\n        /* \"DateTime.sol\":2521:2533  dt.month = i */\n      swap1\n      0xff\n      and\n      swap1\n      dup2\n      0xff\n      and\n      dup2\n      mstore\n      pop\n      pop\n        /* \"DateTime.sol\":2567:2572  break */\n      jump(tag_144)\n        /* \"DateTime.sol\":2433:2599  if (secondsInMonth + secondsAccountedFor > timestamp) {... */\n    tag_149:\n        /* \"DateTime.sol\":2647:2661  secondsInMonth */\n      dup1\n        /* \"DateTime.sol\":2624:2661  secondsAccountedFor += secondsInMonth */\n      dup5\n      tag_150\n      swap2\n      swap1\n      tag_87\n      jump\t// in\n    tag_150:\n      swap4\n      pop\n        /* \"DateTime.sol\":2316:2319  i++ */\n      dup2\n      dup1\n      tag_151\n      swap1\n      tag_152\n      jump\t// in\n    tag_151:\n      swap3\n      pop\n      pop\n        /* \"DateTime.sol\":2295:2680  for (i = 1; i <= 12; i++) {... */\n      jump(tag_143)\n    tag_144:\n        /* \"DateTime.sol\":2730:2731  1 */\n      0x01\n        /* \"DateTime.sol\":2726:2731  i = 1 */\n      swap2\n      pop\n        /* \"DateTime.sol\":2721:3049  for (i = 1; i <= getDaysInMonth(dt.month, dt.year); i++) {... */\n    tag_153:\n        /* \"DateTime.sol\":2738:2771  getDaysInMonth(dt.month, dt.year) */\n      tag_156\n        /* \"DateTime.sol\":2753:2755  dt */\n      dup6\n        /* \"DateTime.sol\":2753:2761  dt.month */\n      0x20\n      add\n      mload\n        /* \"DateTime.sol\":2763:2765  dt */\n      dup7\n        /* \"DateTime.sol\":2763:2770  dt.year */\n      0x00\n      add\n      mload\n        /* \"DateTime.sol\":2738:2771  getDaysInMonth(dt.month, dt.year) */\n      0xffff\n      and\n        /* \"DateTime.sol\":2738:2752  getDaysInMonth */\n      tag_16\n        /* \"DateTime.sol\":2738:2771  getDaysInMonth(dt.month, dt.year) */\n      jump\t// in\n    tag_156:\n        /* \"DateTime.sol\":2733:2771  i <= getDaysInMonth(dt.month, dt.year) */\n      0xff\n      and\n        /* \"DateTime.sol\":2733:2734  i */\n      dup3\n        /* \"DateTime.sol\":2733:2771  i <= getDaysInMonth(dt.month, dt.year) */\n      0xff\n      and\n      gt\n        /* \"DateTime.sol\":2721:3049  for (i = 1; i <= getDaysInMonth(dt.month, dt.year); i++) {... */\n      tag_154\n      jumpi\n        /* \"DateTime.sol\":2847:2856  timestamp */\n      dup6\n        /* \"DateTime.sol\":2825:2844  secondsAccountedFor */\n      dup5\n        /* \"DateTime.sol\":327:332  86400 */\n      0x015180\n        /* \"DateTime.sol\":2808:2844  DAY_IN_SECONDS + secondsAccountedFor */\n      tag_157\n      swap2\n      swap1\n      tag_87\n      jump\t// in\n    tag_157:\n        /* \"DateTime.sol\":2808:2856  DAY_IN_SECONDS + secondsAccountedFor > timestamp */\n      gt\n        /* \"DateTime.sol\":2804:2968  if (DAY_IN_SECONDS + secondsAccountedFor > timestamp) {... */\n      iszero\n      tag_158\n      jumpi\n        /* \"DateTime.sol\":2901:2902  i */\n      dup2\n        /* \"DateTime.sol\":2892:2894  dt */\n      dup6\n        /* \"DateTime.sol\":2892:2898  dt.day */\n      0x40\n      add\n        /* \"DateTime.sol\":2892:2902  dt.day = i */\n      swap1\n      0xff\n      and\n      swap1\n      dup2\n      0xff\n      and\n      dup2\n      mstore\n      pop\n      pop\n        /* \"DateTime.sol\":2936:2941  break */\n      jump(tag_154)\n        /* \"DateTime.sol\":2804:2968  if (DAY_IN_SECONDS + secondsAccountedFor > timestamp) {... */\n    tag_158:\n        /* \"DateTime.sol\":327:332  86400 */\n      0x015180\n        /* \"DateTime.sol\":2993:3030  secondsAccountedFor += DAY_IN_SECONDS */\n      dup5\n      tag_159\n      swap2\n      swap1\n      tag_87\n      jump\t// in\n    tag_159:\n      swap4\n      pop\n        /* \"DateTime.sol\":2773:2776  i++ */\n      dup2\n      dup1\n      tag_160\n      swap1\n      tag_152\n      jump\t// in\n    tag_160:\n      swap3\n      pop\n      pop\n        /* \"DateTime.sol\":2721:3049  for (i = 1; i <= getDaysInMonth(dt.month, dt.year); i++) {... */\n      jump(tag_153)\n    tag_154:\n        /* \"DateTime.sol\":3101:3119  getHour(timestamp) */\n      tag_161\n        /* \"DateTime.sol\":3109:3118  timestamp */\n      dup7\n        /* \"DateTime.sol\":3101:3108  getHour */\n      tag_22\n        /* \"DateTime.sol\":3101:3119  getHour(timestamp) */\n      jump\t// in\n    tag_161:\n        /* \"DateTime.sol\":3091:3093  dt */\n      dup6\n        /* \"DateTime.sol\":3091:3098  dt.hour */\n      0x60\n      add\n        /* \"DateTime.sol\":3091:3119  dt.hour = getHour(timestamp) */\n      swap1\n      0xff\n      and\n      swap1\n      dup2\n      0xff\n      and\n      dup2\n      mstore\n      pop\n      pop\n        /* \"DateTime.sol\":3176:3196  getMinute(timestamp) */\n      tag_162\n        /* \"DateTime.sol\":3186:3195  timestamp */\n      dup7\n        /* \"DateTime.sol\":3176:3185  getMinute */\n      tag_54\n        /* \"DateTime.sol\":3176:3196  getMinute(timestamp) */\n      jump\t// in\n    tag_162:\n        /* \"DateTime.sol\":3164:3166  dt */\n      dup6\n        /* \"DateTime.sol\":3164:3173  dt.minute */\n      0x80\n      add\n        /* \"DateTime.sol\":3164:3196  dt.minute = getMinute(timestamp) */\n      swap1\n      0xff\n      and\n      swap1\n      dup2\n      0xff\n      and\n      dup2\n      mstore\n      pop\n      pop\n        /* \"DateTime.sol\":3253:3273  getSecond(timestamp) */\n      tag_163\n        /* \"DateTime.sol\":3263:3272  timestamp */\n      dup7\n        /* \"DateTime.sol\":3253:3262  getSecond */\n      tag_30\n        /* \"DateTime.sol\":3253:3273  getSecond(timestamp) */\n      jump\t// in\n    tag_163:\n        /* \"DateTime.sol\":3241:3243  dt */\n      dup6\n        /* \"DateTime.sol\":3241:3250  dt.second */\n      0xa0\n      add\n        /* \"DateTime.sol\":3241:3273  dt.second = getSecond(timestamp) */\n      swap1\n      0xff\n      and\n      swap1\n      dup2\n      0xff\n      and\n      dup2\n      mstore\n      pop\n      pop\n        /* \"DateTime.sol\":1811:3284  {... */\n      pop\n      pop\n      pop\n      pop\n        /* \"DateTime.sol\":1727:3284  function parseTimestamp(uint timestamp) internal pure returns (_DateTime memory dt) {... */\n      swap2\n      swap1\n      pop\n      jump\t// out\n    tag_131:\n      mload(0x40)\n      dup1\n      0xc0\n      add\n      0x40\n      mstore\n      dup1\n      and(0xffff, 0x00)\n      dup2\n      mstore\n      0x20\n      add\n      and(0xff, 0x00)\n      dup2\n      mstore\n      0x20\n      add\n      and(0xff, 0x00)\n      dup2\n      mstore\n      0x20\n      add\n      and(0xff, 0x00)\n      dup2\n      mstore\n      0x20\n      add\n      and(0xff, 0x00)\n      dup2\n      mstore\n      0x20\n      add\n      and(0xff, 0x00)\n      dup2\n      mstore\n      pop\n      swap1\n      jump\t// out\n        /* \"#utility.yul\":88:205   */\n    tag_165:\n        /* \"#utility.yul\":197:198   */\n      0x00\n        /* \"#utility.yul\":194:195   */\n      dup1\n        /* \"#utility.yul\":187:199   */\n      revert\n        /* \"#utility.yul\":334:420   */\n    tag_167:\n        /* \"#utility.yul\":369:376   */\n      0x00\n        /* \"#utility.yul\":409:413   */\n      0xff\n        /* \"#utility.yul\":402:407   */\n      dup3\n        /* \"#utility.yul\":398:414   */\n      and\n        /* \"#utility.yul\":387:414   */\n      swap1\n      pop\n        /* \"#utility.yul\":334:420   */\n      swap2\n      swap1\n      pop\n      jump\t// out\n        /* \"#utility.yul\":426:544   */\n    tag_168:\n        /* \"#utility.yul\":497:519   */\n      tag_190\n        /* \"#utility.yul\":513:518   */\n      dup2\n        /* \"#utility.yul\":497:519   */\n      tag_167\n      jump\t// in\n    tag_190:\n        /* \"#utility.yul\":490:495   */\n      dup2\n        /* \"#utility.yul\":487:520   */\n      eq\n        /* \"#utility.yul\":477:538   */\n      tag_191\n      jumpi\n        /* \"#utility.yul\":534:535   */\n      0x00\n        /* \"#utility.yul\":531:532   */\n      dup1\n        /* \"#utility.yul\":524:536   */\n      revert\n        /* \"#utility.yul\":477:538   */\n    tag_191:\n        /* \"#utility.yul\":426:544   */\n      pop\n      jump\t// out\n        /* \"#utility.yul\":550:685   */\n    tag_169:\n        /* \"#utility.yul\":594:599   */\n      0x00\n        /* \"#utility.yul\":632:638   */\n      dup2\n        /* \"#utility.yul\":619:639   */\n      calldataload\n        /* \"#utility.yul\":610:639   */\n      swap1\n      pop\n        /* \"#utility.yul\":648:679   */\n      tag_193\n        /* \"#utility.yul\":673:678   */\n      dup2\n        /* \"#utility.yul\":648:679   */\n      tag_168\n      jump\t// in\n    tag_193:\n        /* \"#utility.yul\":550:685   */\n      swap3\n      swap2\n      pop\n      pop\n      jump\t// out\n        /* \"#utility.yul\":691:784   */\n    tag_170:\n        /* \"#utility.yul\":727:734   */\n      0x00\n        /* \"#utility.yul\":767:777   */\n      0xffffffff\n        /* \"#utility.yul\":760:765   */\n      dup3\n        /* \"#utility.yul\":756:778   */\n      and\n        /* \"#utility.yul\":745:778   */\n      swap1\n      pop\n        /* \"#utility.yul\":691:784   */\n      swap2\n      swap1\n      pop\n      jump\t// out\n        /* \"#utility.yul\":790:910   */\n    tag_171:\n        /* \"#utility.yul\":862:885   */\n      tag_196\n        /* \"#utility.yul\":879:884   */\n      dup2\n        /* \"#utility.yul\":862:885   */\n      tag_170\n      jump\t// in\n    tag_196:\n        /* \"#utility.yul\":855:860   */\n      dup2\n        /* \"#utility.yul\":852:886   */\n      eq\n        /* \"#utility.yul\":842:904   */\n      tag_197\n      jumpi\n        /* \"#utility.yul\":900:901   */\n      0x00\n        /* \"#utility.yul\":897:898   */\n      dup1\n        /* \"#utility.yul\":890:902   */\n      revert\n        /* \"#utility.yul\":842:904   */\n    tag_197:\n        /* \"#utility.yul\":790:910   */\n      pop\n      jump\t// out\n        /* \"#utility.yul\":916:1053   */\n    tag_172:\n        /* \"#utility.yul\":961:966   */\n      0x00\n        /* \"#utility.yul\":999:1005   */\n      dup2\n        /* \"#utility.yul\":986:1006   */\n      calldataload\n        /* \"#utility.yul\":977:1006   */\n      swap1\n      pop\n        /* \"#utility.yul\":1015:1047   */\n      tag_199\n        /* \"#utility.yul\":1041:1046   */\n      dup2\n        /* \"#utility.yul\":1015:1047   */\n      tag_171\n      jump\t// in\n    tag_199:\n        /* \"#utility.yul\":916:1053   */\n      swap3\n      swap2\n      pop\n      pop\n      jump\t// out\n        /* \"#utility.yul\":1059:1527   */\n    tag_15:\n        /* \"#utility.yul\":1124:1130   */\n      0x00\n        /* \"#utility.yul\":1132:1138   */\n      dup1\n        /* \"#utility.yul\":1181:1183   */\n      0x40\n        /* \"#utility.yul\":1169:1178   */\n      dup4\n        /* \"#utility.yul\":1160:1167   */\n      dup6\n        /* \"#utility.yul\":1156:1179   */\n      sub\n        /* \"#utility.yul\":1152:1184   */\n      slt\n        /* \"#utility.yul\":1149:1268   */\n      iszero\n      tag_201\n      jumpi\n        /* \"#utility.yul\":1187:1266   */\n      tag_202\n      tag_165\n      jump\t// in\n    tag_202:\n        /* \"#utility.yul\":1149:1268   */\n    tag_201:\n        /* \"#utility.yul\":1307:1308   */\n      0x00\n        /* \"#utility.yul\":1332:1383   */\n      tag_203\n        /* \"#utility.yul\":1375:1382   */\n      dup6\n        /* \"#utility.yul\":1366:1372   */\n      dup3\n        /* \"#utility.yul\":1355:1364   */\n      dup7\n        /* \"#utility.yul\":1351:1373   */\n      add\n        /* \"#utility.yul\":1332:1383   */\n      tag_169\n      jump\t// in\n    tag_203:\n        /* \"#utility.yul\":1322:1383   */\n      swap3\n      pop\n        /* \"#utility.yul\":1278:1393   */\n      pop\n        /* \"#utility.yul\":1432:1434   */\n      0x20\n        /* \"#utility.yul\":1458:1510   */\n      tag_204\n        /* \"#utility.yul\":1502:1509   */\n      dup6\n        /* \"#utility.yul\":1493:1499   */\n      dup3\n        /* \"#utility.yul\":1482:1491   */\n      dup7\n        /* \"#utility.yul\":1478:1500   */\n      add\n        /* \"#utility.yul\":1458:1510   */\n      tag_172\n      jump\t// in\n    tag_204:\n        /* \"#utility.yul\":1448:1510   */\n      swap2\n      pop\n        /* \"#utility.yul\":1403:1520   */\n      pop\n        /* \"#utility.yul\":1059:1527   */\n      swap3\n      pop\n      swap3\n      swap1\n      pop\n      jump\t// out\n        /* \"#utility.yul\":1533:1645   */\n    tag_173:\n        /* \"#utility.yul\":1616:1638   */\n      tag_206\n        /* \"#utility.yul\":1632:1637   */\n      dup2\n        /* \"#utility.yul\":1616:1638   */\n      tag_167\n      jump\t// in\n    tag_206:\n        /* \"#utility.yul\":1611:1614   */\n      dup3\n        /* \"#utility.yul\":1604:1639   */\n      mstore\n        /* \"#utility.yul\":1533:1645   */\n      pop\n      pop\n      jump\t// out\n        /* \"#utility.yul\":1651:1865   */\n    tag_18:\n        /* \"#utility.yul\":1740:1744   */\n      0x00\n        /* \"#utility.yul\":1778:1780   */\n      0x20\n        /* \"#utility.yul\":1767:1776   */\n      dup3\n        /* \"#utility.yul\":1763:1781   */\n      add\n        /* \"#utility.yul\":1755:1781   */\n      swap1\n      pop\n        /* \"#utility.yul\":1791:1858   */\n      tag_208\n        /* \"#utility.yul\":1855:1856   */\n      0x00\n        /* \"#utility.yul\":1844:1853   */\n      dup4\n        /* \"#utility.yul\":1840:1857   */\n      add\n        /* \"#utility.yul\":1831:1837   */\n      dup5\n        /* \"#utility.yul\":1791:1858   */\n      tag_173\n      jump\t// in\n    tag_208:\n        /* \"#utility.yul\":1651:1865   */\n      swap3\n      swap2\n      pop\n      pop\n      jump\t// out\n        /* \"#utility.yul\":1871:1948   */\n    tag_174:\n        /* \"#utility.yul\":1908:1915   */\n      0x00\n        /* \"#utility.yul\":1937:1942   */\n      dup2\n        /* \"#utility.yul\":1926:1942   */\n      swap1\n      pop\n        /* \"#utility.yul\":1871:1948   */\n      swap2\n      swap1\n      pop\n      jump\t// out\n        /* \"#utility.yul\":1954:2076   */\n    tag_175:\n        /* \"#utility.yul\":2027:2051   */\n      tag_211\n        /* \"#utility.yul\":2045:2050   */\n      dup2\n        /* \"#utility.yul\":2027:2051   */\n      tag_174\n      jump\t// in\n    tag_211:\n        /* \"#utility.yul\":2020:2025   */\n      dup2\n        /* \"#utility.yul\":2017:2052   */\n      eq\n        /* \"#utility.yul\":2007:2070   */\n      tag_212\n      jumpi\n        /* \"#utility.yul\":2066:2067   */\n      0x00\n        /* \"#utility.yul\":2063:2064   */\n      dup1\n        /* \"#utility.yul\":2056:2068   */\n      revert\n        /* \"#utility.yul\":2007:2070   */\n    tag_212:\n        /* \"#utility.yul\":1954:2076   */\n      pop\n      jump\t// out\n        /* \"#utility.yul\":2082:2221   */\n    tag_176:\n        /* \"#utility.yul\":2128:2133   */\n      0x00\n        /* \"#utility.yul\":2166:2172   */\n      dup2\n        /* \"#utility.yul\":2153:2173   */\n      calldataload\n        /* \"#utility.yul\":2144:2173   */\n      swap1\n      pop\n        /* \"#utility.yul\":2182:2215   */\n      tag_214\n        /* \"#utility.yul\":2209:2214   */\n      dup2\n        /* \"#utility.yul\":2182:2215   */\n      tag_175\n      jump\t// in\n    tag_214:\n        /* \"#utility.yul\":2082:2221   */\n      swap3\n      swap2\n      pop\n      pop\n      jump\t// out\n        /* \"#utility.yul\":2227:2556   */\n    tag_21:\n        /* \"#utility.yul\":2286:2292   */\n      0x00\n        /* \"#utility.yul\":2335:2337   */\n      0x20\n        /* \"#utility.yul\":2323:2332   */\n      dup3\n        /* \"#utility.yul\":2314:2321   */\n      dup5\n        /* \"#utility.yul\":2310:2333   */\n      sub\n        /* \"#utility.yul\":2306:2338   */\n      slt\n        /* \"#utility.yul\":2303:2422   */\n      iszero\n      tag_216\n      jumpi\n        /* \"#utility.yul\":2341:2420   */\n      tag_217\n      tag_165\n      jump\t// in\n    tag_217:\n        /* \"#utility.yul\":2303:2422   */\n    tag_216:\n        /* \"#utility.yul\":2461:2462   */\n      0x00\n        /* \"#utility.yul\":2486:2539   */\n      tag_218\n        /* \"#utility.yul\":2531:2538   */\n      dup5\n        /* \"#utility.yul\":2522:2528   */\n      dup3\n        /* \"#utility.yul\":2511:2520   */\n      dup6\n        /* \"#utility.yul\":2507:2529   */\n      add\n        /* \"#utility.yul\":2486:2539   */\n      tag_176\n      jump\t// in\n    tag_218:\n        /* \"#utility.yul\":2476:2539   */\n      swap2\n      pop\n        /* \"#utility.yul\":2432:2549   */\n      pop\n        /* \"#utility.yul\":2227:2556   */\n      swap3\n      swap2\n      pop\n      pop\n      jump\t// out\n        /* \"#utility.yul\":2562:2651   */\n    tag_177:\n        /* \"#utility.yul\":2598:2605   */\n      0x00\n        /* \"#utility.yul\":2638:2644   */\n      0xffff\n        /* \"#utility.yul\":2631:2636   */\n      dup3\n        /* \"#utility.yul\":2627:2645   */\n      and\n        /* \"#utility.yul\":2616:2645   */\n      swap1\n      pop\n        /* \"#utility.yul\":2562:2651   */\n      swap2\n      swap1\n      pop\n      jump\t// out\n        /* \"#utility.yul\":2657:2772   */\n    tag_178:\n        /* \"#utility.yul\":2742:2765   */\n      tag_221\n        /* \"#utility.yul\":2759:2764   */\n      dup2\n        /* \"#utility.yul\":2742:2765   */\n      tag_177\n      jump\t// in\n    tag_221:\n        /* \"#utility.yul\":2737:2740   */\n      dup3\n        /* \"#utility.yul\":2730:2766   */\n      mstore\n        /* \"#utility.yul\":2657:2772   */\n      pop\n      pop\n      jump\t// out\n        /* \"#utility.yul\":2778:2996   */\n    tag_36:\n        /* \"#utility.yul\":2869:2873   */\n      0x00\n        /* \"#utility.yul\":2907:2909   */\n      0x20\n        /* \"#utility.yul\":2896:2905   */\n      dup3\n        /* \"#utility.yul\":2892:2910   */\n      add\n        /* \"#utility.yul\":2884:2910   */\n      swap1\n      pop\n        /* \"#utility.yul\":2920:2989   */\n      tag_223\n        /* \"#utility.yul\":2986:2987   */\n      0x00\n        /* \"#utility.yul\":2975:2984   */\n      dup4\n        /* \"#utility.yul\":2971:2988   */\n      add\n        /* \"#utility.yul\":2962:2968   */\n      dup5\n        /* \"#utility.yul\":2920:2989   */\n      tag_178\n      jump\t// in\n    tag_223:\n        /* \"#utility.yul\":2778:2996   */\n      swap3\n      swap2\n      pop\n      pop\n      jump\t// out\n        /* \"#utility.yul\":3002:3329   */\n    tag_39:\n        /* \"#utility.yul\":3060:3066   */\n      0x00\n        /* \"#utility.yul\":3109:3111   */\n      0x20\n        /* \"#utility.yul\":3097:3106   */\n      dup3\n        /* \"#utility.yul\":3088:3095   */\n      dup5\n        /* \"#utility.yul\":3084:3107   */\n      sub\n        /* \"#utility.yul\":3080:3112   */\n      slt\n        /* \"#utility.yul\":3077:3196   */\n      iszero\n      tag_225\n      jumpi\n        /* \"#utility.yul\":3115:3194   */\n      tag_226\n      tag_165\n      jump\t// in\n    tag_226:\n        /* \"#utility.yul\":3077:3196   */\n    tag_225:\n        /* \"#utility.yul\":3235:3236   */\n      0x00\n        /* \"#utility.yul\":3260:3312   */\n      tag_227\n        /* \"#utility.yul\":3304:3311   */\n      dup5\n        /* \"#utility.yul\":3295:3301   */\n      dup3\n        /* \"#utility.yul\":3284:3293   */\n      dup6\n        /* \"#utility.yul\":3280:3302   */\n      add\n        /* \"#utility.yul\":3260:3312   */\n      tag_172\n      jump\t// in\n    tag_227:\n        /* \"#utility.yul\":3250:3312   */\n      swap2\n      pop\n        /* \"#utility.yul\":3206:3322   */\n      pop\n        /* \"#utility.yul\":3002:3329   */\n      swap3\n      swap2\n      pop\n      pop\n      jump\t// out\n        /* \"#utility.yul\":3335:3425   */\n    tag_179:\n        /* \"#utility.yul\":3369:3376   */\n      0x00\n        /* \"#utility.yul\":3412:3417   */\n      dup2\n        /* \"#utility.yul\":3405:3418   */\n      iszero\n        /* \"#utility.yul\":3398:3419   */\n      iszero\n        /* \"#utility.yul\":3387:3419   */\n      swap1\n      pop\n        /* \"#utility.yul\":3335:3425   */\n      swap2\n      swap1\n      pop\n      jump\t// out\n        /* \"#utility.yul\":3431:3540   */\n    tag_180:\n        /* \"#utility.yul\":3512:3533   */\n      tag_230\n        /* \"#utility.yul\":3527:3532   */\n      dup2\n        /* \"#utility.yul\":3512:3533   */\n      tag_179\n      jump\t// in\n    tag_230:\n        /* \"#utility.yul\":3507:3510   */\n      dup3\n        /* \"#utility.yul\":3500:3534   */\n      mstore\n        /* \"#utility.yul\":3431:3540   */\n      pop\n      pop\n      jump\t// out\n        /* \"#utility.yul\":3546:3756   */\n    tag_42:\n        /* \"#utility.yul\":3633:3637   */\n      0x00\n        /* \"#utility.yul\":3671:3673   */\n      0x20\n        /* \"#utility.yul\":3660:3669   */\n      dup3\n        /* \"#utility.yul\":3656:3674   */\n      add\n        /* \"#utility.yul\":3648:3674   */\n      swap1\n      pop\n        /* \"#utility.yul\":3684:3749   */\n      tag_232\n        /* \"#utility.yul\":3746:3747   */\n      0x00\n        /* \"#utility.yul\":3735:3744   */\n      dup4\n        /* \"#utility.yul\":3731:3748   */\n      add\n        /* \"#utility.yul\":3722:3728   */\n      dup5\n        /* \"#utility.yul\":3684:3749   */\n      tag_180\n      jump\t// in\n    tag_232:\n        /* \"#utility.yul\":3546:3756   */\n      swap3\n      swap2\n      pop\n      pop\n      jump\t// out\n        /* \"#utility.yul\":3762:3880   */\n    tag_181:\n        /* \"#utility.yul\":3849:3873   */\n      tag_234\n        /* \"#utility.yul\":3867:3872   */\n      dup2\n        /* \"#utility.yul\":3849:3873   */\n      tag_174\n      jump\t// in\n    tag_234:\n        /* \"#utility.yul\":3844:3847   */\n      dup3\n        /* \"#utility.yul\":3837:3874   */\n      mstore\n        /* \"#utility.yul\":3762:3880   */\n      pop\n      pop\n      jump\t// out\n        /* \"#utility.yul\":3886:4108   */\n    tag_51:\n        /* \"#utility.yul\":3979:3983   */\n      0x00\n        /* \"#utility.yul\":4017:4019   */\n      0x20\n        /* \"#utility.yul\":4006:4015   */\n      dup3\n        /* \"#utility.yul\":4002:4020   */\n      add\n        /* \"#utility.yul\":3994:4020   */\n      swap1\n      pop\n        /* \"#utility.yul\":4030:4101   */\n      tag_236\n        /* \"#utility.yul\":4098:4099   */\n      0x00\n        /* \"#utility.yul\":4087:4096   */\n      dup4\n        /* \"#utility.yul\":4083:4100   */\n      add\n        /* \"#utility.yul\":4074:4080   */\n      dup5\n        /* \"#utility.yul\":4030:4101   */\n      tag_181\n      jump\t// in\n    tag_236:\n        /* \"#utility.yul\":3886:4108   */\n      swap3\n      swap2\n      pop\n      pop\n      jump\t// out\n        /* \"#utility.yul\":4114:4294   */\n    tag_182:\n        /* \"#utility.yul\":4162:4239   */\n      0x4e487b7100000000000000000000000000000000000000000000000000000000\n        /* \"#utility.yul\":4159:4160   */\n      0x00\n        /* \"#utility.yul\":4152:4240   */\n      mstore\n        /* \"#utility.yul\":4259:4263   */\n      0x12\n        /* \"#utility.yul\":4256:4257   */\n      0x04\n        /* \"#utility.yul\":4249:4264   */\n      mstore\n        /* \"#utility.yul\":4283:4287   */\n      0x24\n        /* \"#utility.yul\":4280:4281   */\n      0x00\n        /* \"#utility.yul\":4273:4288   */\n      revert\n        /* \"#utility.yul\":4300:4480   */\n    tag_183:\n        /* \"#utility.yul\":4348:4425   */\n      0x4e487b7100000000000000000000000000000000000000000000000000000000\n        /* \"#utility.yul\":4345:4346   */\n      0x00\n        /* \"#utility.yul\":4338:4426   */\n      mstore\n        /* \"#utility.yul\":4445:4449   */\n      0x11\n        /* \"#utility.yul\":4442:4443   */\n      0x04\n        /* \"#utility.yul\":4435:4450   */\n      mstore\n        /* \"#utility.yul\":4469:4473   */\n      0x24\n        /* \"#utility.yul\":4466:4467   */\n      0x00\n        /* \"#utility.yul\":4459:4474   */\n      revert\n        /* \"#utility.yul\":4486:4671   */\n    tag_75:\n        /* \"#utility.yul\":4526:4527   */\n      0x00\n        /* \"#utility.yul\":4543:4563   */\n      tag_240\n        /* \"#utility.yul\":4561:4562   */\n      dup3\n        /* \"#utility.yul\":4543:4563   */\n      tag_174\n      jump\t// in\n    tag_240:\n        /* \"#utility.yul\":4538:4563   */\n      swap2\n      pop\n        /* \"#utility.yul\":4577:4597   */\n      tag_241\n        /* \"#utility.yul\":4595:4596   */\n      dup4\n        /* \"#utility.yul\":4577:4597   */\n      tag_174\n      jump\t// in\n    tag_241:\n        /* \"#utility.yul\":4572:4597   */\n      swap3\n      pop\n        /* \"#utility.yul\":4616:4617   */\n      dup3\n        /* \"#utility.yul\":4606:4641   */\n      tag_242\n      jumpi\n        /* \"#utility.yul\":4621:4639   */\n      tag_243\n      tag_182\n      jump\t// in\n    tag_243:\n        /* \"#utility.yul\":4606:4641   */\n    tag_242:\n        /* \"#utility.yul\":4663:4664   */\n      dup3\n        /* \"#utility.yul\":4660:4661   */\n      dup3\n        /* \"#utility.yul\":4656:4665   */\n      div\n        /* \"#utility.yul\":4651:4665   */\n      swap1\n      pop\n        /* \"#utility.yul\":4486:4671   */\n      swap3\n      swap2\n      pop\n      pop\n      jump\t// out\n        /* \"#utility.yul\":4677:4853   */\n    tag_78:\n        /* \"#utility.yul\":4709:4710   */\n      0x00\n        /* \"#utility.yul\":4726:4746   */\n      tag_245\n        /* \"#utility.yul\":4744:4745   */\n      dup3\n        /* \"#utility.yul\":4726:4746   */\n      tag_174\n      jump\t// in\n    tag_245:\n        /* \"#utility.yul\":4721:4746   */\n      swap2\n      pop\n        /* \"#utility.yul\":4760:4780   */\n      tag_246\n        /* \"#utility.yul\":4778:4779   */\n      dup4\n        /* \"#utility.yul\":4760:4780   */\n      tag_174\n      jump\t// in\n    tag_246:\n        /* \"#utility.yul\":4755:4780   */\n      swap3\n      pop\n        /* \"#utility.yul\":4799:4800   */\n      dup3\n        /* \"#utility.yul\":4789:4824   */\n      tag_247\n      jumpi\n        /* \"#utility.yul\":4804:4822   */\n      tag_248\n      tag_182\n      jump\t// in\n    tag_248:\n        /* \"#utility.yul\":4789:4824   */\n    tag_247:\n        /* \"#utility.yul\":4845:4846   */\n      dup3\n        /* \"#utility.yul\":4842:4843   */\n      dup3\n        /* \"#utility.yul\":4838:4847   */\n      mod\n        /* \"#utility.yul\":4833:4847   */\n      swap1\n      pop\n        /* \"#utility.yul\":4677:4853   */\n      swap3\n      swap2\n      pop\n      pop\n      jump\t// out\n        /* \"#utility.yul\":4859:5050   */\n    tag_87:\n        /* \"#utility.yul\":4899:4902   */\n      0x00\n        /* \"#utility.yul\":4918:4938   */\n      tag_250\n        /* \"#utility.yul\":4936:4937   */\n      dup3\n        /* \"#utility.yul\":4918:4938   */\n      tag_174\n      jump\t// in\n    tag_250:\n        /* \"#utility.yul\":4913:4938   */\n      swap2\n      pop\n        /* \"#utility.yul\":4952:4972   */\n      tag_251\n        /* \"#utility.yul\":4970:4971   */\n      dup4\n        /* \"#utility.yul\":4952:4972   */\n      tag_174\n      jump\t// in\n    tag_251:\n        /* \"#utility.yul\":4947:4972   */\n      swap3\n      pop\n        /* \"#utility.yul\":4995:4996   */\n      dup3\n        /* \"#utility.yul\":4992:4993   */\n      dup3\n        /* \"#utility.yul\":4988:4997   */\n      add\n        /* \"#utility.yul\":4981:4997   */\n      swap1\n      pop\n        /* \"#utility.yul\":5016:5019   */\n      dup1\n        /* \"#utility.yul\":5013:5014   */\n      dup3\n        /* \"#utility.yul\":5010:5020   */\n      gt\n        /* \"#utility.yul\":5007:5043   */\n      iszero\n      tag_252\n      jumpi\n        /* \"#utility.yul\":5023:5041   */\n      tag_253\n      tag_183\n      jump\t// in\n    tag_253:\n        /* \"#utility.yul\":5007:5043   */\n    tag_252:\n        /* \"#utility.yul\":4859:5050   */\n      swap3\n      swap2\n      pop\n      pop\n      jump\t// out\n        /* \"#utility.yul\":5056:5250   */\n    tag_91:\n        /* \"#utility.yul\":5096:5100   */\n      0x00\n        /* \"#utility.yul\":5116:5136   */\n      tag_255\n        /* \"#utility.yul\":5134:5135   */\n      dup3\n        /* \"#utility.yul\":5116:5136   */\n      tag_174\n      jump\t// in\n    tag_255:\n        /* \"#utility.yul\":5111:5136   */\n      swap2\n      pop\n        /* \"#utility.yul\":5150:5170   */\n      tag_256\n        /* \"#utility.yul\":5168:5169   */\n      dup4\n        /* \"#utility.yul\":5150:5170   */\n      tag_174\n      jump\t// in\n    tag_256:\n        /* \"#utility.yul\":5145:5170   */\n      swap3\n      pop\n        /* \"#utility.yul\":5194:5195   */\n      dup3\n        /* \"#utility.yul\":5191:5192   */\n      dup3\n        /* \"#utility.yul\":5187:5196   */\n      sub\n        /* \"#utility.yul\":5179:5196   */\n      swap1\n      pop\n        /* \"#utility.yul\":5218:5219   */\n      dup2\n        /* \"#utility.yul\":5212:5216   */\n      dup2\n        /* \"#utility.yul\":5209:5220   */\n      gt\n        /* \"#utility.yul\":5206:5243   */\n      iszero\n      tag_257\n      jumpi\n        /* \"#utility.yul\":5223:5241   */\n      tag_258\n      tag_183\n      jump\t// in\n    tag_258:\n        /* \"#utility.yul\":5206:5243   */\n    tag_257:\n        /* \"#utility.yul\":5056:5250   */\n      swap3\n      swap2\n      pop\n      pop\n      jump\t// out\n        /* \"#utility.yul\":5256:5666   */\n    tag_93:\n        /* \"#utility.yul\":5296:5303   */\n      0x00\n        /* \"#utility.yul\":5319:5339   */\n      tag_260\n        /* \"#utility.yul\":5337:5338   */\n      dup3\n        /* \"#utility.yul\":5319:5339   */\n      tag_174\n      jump\t// in\n    tag_260:\n        /* \"#utility.yul\":5314:5339   */\n      swap2\n      pop\n        /* \"#utility.yul\":5353:5373   */\n      tag_261\n        /* \"#utility.yul\":5371:5372   */\n      dup4\n        /* \"#utility.yul\":5353:5373   */\n      tag_174\n      jump\t// in\n    tag_261:\n        /* \"#utility.yul\":5348:5373   */\n      swap3\n      pop\n        /* \"#utility.yul\":5408:5409   */\n      dup3\n        /* \"#utility.yul\":5405:5406   */\n      dup3\n        /* \"#utility.yul\":5401:5410   */\n      mul\n        /* \"#utility.yul\":5430:5460   */\n      tag_262\n        /* \"#utility.yul\":5448:5459   */\n      dup2\n        /* \"#utility.yul\":5430:5460   */\n      tag_174\n      jump\t// in\n    tag_262:\n        /* \"#utility.yul\":5419:5460   */\n      swap2\n      pop\n        /* \"#utility.yul\":5609:5610   */\n      dup3\n        /* \"#utility.yul\":5600:5607   */\n      dup3\n        /* \"#utility.yul\":5596:5611   */\n      div\n        /* \"#utility.yul\":5593:5594   */\n      dup5\n        /* \"#utility.yul\":5590:5612   */\n      eq\n        /* \"#utility.yul\":5570:5571   */\n      dup4\n        /* \"#utility.yul\":5563:5572   */\n      iszero\n        /* \"#utility.yul\":5543:5626   */\n      or\n        /* \"#utility.yul\":5520:5659   */\n      tag_263\n      jumpi\n        /* \"#utility.yul\":5639:5657   */\n      tag_264\n      tag_183\n      jump\t// in\n    tag_264:\n        /* \"#utility.yul\":5520:5659   */\n    tag_263:\n        /* \"#utility.yul\":5304:5666   */\n      pop\n        /* \"#utility.yul\":5256:5666   */\n      swap3\n      swap2\n      pop\n      pop\n      jump\t// out\n        /* \"#utility.yul\":5672:5872   */\n    tag_96:\n        /* \"#utility.yul\":5711:5715   */\n      0x00\n        /* \"#utility.yul\":5731:5750   */\n      tag_266\n        /* \"#utility.yul\":5748:5749   */\n      dup3\n        /* \"#utility.yul\":5731:5750   */\n      tag_170\n      jump\t// in\n    tag_266:\n        /* \"#utility.yul\":5726:5750   */\n      swap2\n      pop\n        /* \"#utility.yul\":5764:5783   */\n      tag_267\n        /* \"#utility.yul\":5781:5782   */\n      dup4\n        /* \"#utility.yul\":5764:5783   */\n      tag_170\n      jump\t// in\n    tag_267:\n        /* \"#utility.yul\":5759:5783   */\n      swap3\n      pop\n        /* \"#utility.yul\":5807:5808   */\n      dup3\n        /* \"#utility.yul\":5804:5805   */\n      dup3\n        /* \"#utility.yul\":5800:5809   */\n      sub\n        /* \"#utility.yul\":5792:5809   */\n      swap1\n      pop\n        /* \"#utility.yul\":5831:5841   */\n      0xffffffff\n        /* \"#utility.yul\":5825:5829   */\n      dup2\n        /* \"#utility.yul\":5822:5842   */\n      gt\n        /* \"#utility.yul\":5819:5865   */\n      iszero\n      tag_268\n      jumpi\n        /* \"#utility.yul\":5845:5863   */\n      tag_269\n      tag_183\n      jump\t// in\n    tag_269:\n        /* \"#utility.yul\":5819:5865   */\n    tag_268:\n        /* \"#utility.yul\":5672:5872   */\n      swap3\n      swap2\n      pop\n      pop\n      jump\t// out\n        /* \"#utility.yul\":5878:6074   */\n    tag_104:\n        /* \"#utility.yul\":5917:5921   */\n      0x00\n        /* \"#utility.yul\":5937:5956   */\n      tag_271\n        /* \"#utility.yul\":5954:5955   */\n      dup3\n        /* \"#utility.yul\":5937:5956   */\n      tag_177\n      jump\t// in\n    tag_271:\n        /* \"#utility.yul\":5932:5956   */\n      swap2\n      pop\n        /* \"#utility.yul\":5970:5989   */\n      tag_272\n        /* \"#utility.yul\":5987:5988   */\n      dup4\n        /* \"#utility.yul\":5970:5989   */\n      tag_177\n      jump\t// in\n    tag_272:\n        /* \"#utility.yul\":5965:5989   */\n      swap3\n      pop\n        /* \"#utility.yul\":6013:6014   */\n      dup3\n        /* \"#utility.yul\":6010:6011   */\n      dup3\n        /* \"#utility.yul\":6006:6015   */\n      sub\n        /* \"#utility.yul\":5998:6015   */\n      swap1\n      pop\n        /* \"#utility.yul\":6037:6043   */\n      0xffff\n        /* \"#utility.yul\":6031:6035   */\n      dup2\n        /* \"#utility.yul\":6028:6044   */\n      gt\n        /* \"#utility.yul\":6025:6067   */\n      iszero\n      tag_273\n      jumpi\n        /* \"#utility.yul\":6047:6065   */\n      tag_274\n      tag_183\n      jump\t// in\n    tag_274:\n        /* \"#utility.yul\":6025:6067   */\n    tag_273:\n        /* \"#utility.yul\":5878:6074   */\n      swap3\n      swap2\n      pop\n      pop\n      jump\t// out\n        /* \"#utility.yul\":6080:6253   */\n    tag_112:\n        /* \"#utility.yul\":6111:6112   */\n      0x00\n        /* \"#utility.yul\":6128:6147   */\n      tag_276\n        /* \"#utility.yul\":6145:6146   */\n      dup3\n        /* \"#utility.yul\":6128:6147   */\n      tag_170\n      jump\t// in\n    tag_276:\n        /* \"#utility.yul\":6123:6147   */\n      swap2\n      pop\n        /* \"#utility.yul\":6161:6180   */\n      tag_277\n        /* \"#utility.yul\":6178:6179   */\n      dup4\n        /* \"#utility.yul\":6161:6180   */\n      tag_170\n      jump\t// in\n    tag_277:\n        /* \"#utility.yul\":6156:6180   */\n      swap3\n      pop\n        /* \"#utility.yul\":6199:6200   */\n      dup3\n        /* \"#utility.yul\":6189:6224   */\n      tag_278\n      jumpi\n        /* \"#utility.yul\":6204:6222   */\n      tag_279\n      tag_182\n      jump\t// in\n    tag_279:\n        /* \"#utility.yul\":6189:6224   */\n    tag_278:\n        /* \"#utility.yul\":6245:6246   */\n      dup3\n        /* \"#utility.yul\":6242:6243   */\n      dup3\n        /* \"#utility.yul\":6238:6247   */\n      mod\n        /* \"#utility.yul\":6233:6247   */\n      swap1\n      pop\n        /* \"#utility.yul\":6080:6253   */\n      swap3\n      swap2\n      pop\n      pop\n      jump\t// out\n        /* \"#utility.yul\":6259:6426   */\n    tag_152:\n        /* \"#utility.yul\":6296:6299   */\n      0x00\n        /* \"#utility.yul\":6319:6341   */\n      tag_281\n        /* \"#utility.yul\":6335:6340   */\n      dup3\n        /* \"#utility.yul\":6319:6341   */\n      tag_167\n      jump\t// in\n    tag_281:\n        /* \"#utility.yul\":6310:6341   */\n      swap2\n      pop\n        /* \"#utility.yul\":6363:6367   */\n      0xff\n        /* \"#utility.yul\":6356:6361   */\n      dup3\n        /* \"#utility.yul\":6353:6368   */\n      sub\n        /* \"#utility.yul\":6350:6391   */\n      tag_282\n      jumpi\n        /* \"#utility.yul\":6371:6389   */\n      tag_283\n      tag_183\n      jump\t// in\n    tag_283:\n        /* \"#utility.yul\":6350:6391   */\n    tag_282:\n        /* \"#utility.yul\":6418:6419   */\n      0x01\n        /* \"#utility.yul\":6411:6416   */\n      dup3\n        /* \"#utility.yul\":6407:6420   */\n      add\n        /* \"#utility.yul\":6400:6420   */\n      swap1\n      pop\n        /* \"#utility.yul\":6259:6426   */\n      swap2\n      swap1\n      pop\n      jump\t// out\n\n    auxdata: 0xa2646970667358221220e29bb47b008148988eb1e54c2b91baa928e2cf19c41b1edacf59bf57729a93c264736f6c63430008110033\n}\n",
				"bytecode": {
					"linkReferences": {},
					"object": "608060405234801561001057600080fd5b50610c56806100206000396000f3fe608060405234801561001057600080fd5b50600436106100935760003560e01c806392d663131161006657806392d6631314610158578063a01f851814610188578063a324ad24146101b8578063b1999937146101e8578063fa93f8831461021857610093565b80630534c9a6146100985780633e239e1a146100c857806365c72840146100f85780638aa001fc14610128575b600080fd5b6100b260048036038101906100ad919061085c565b610248565b6040516100bf91906108ab565b60405180910390f35b6100e260048036038101906100dd91906108fc565b610314565b6040516100ef91906108ab565b60405180910390f35b610112600480360381019061010d91906108fc565b610341565b60405161011f91906108ab565b60405180910390f35b610142600480360381019061013d91906108fc565b610357565b60405161014f91906108ab565b60405180910390f35b610172600480360381019061016d91906108fc565b61036d565b60405161017f9190610946565b60405180910390f35b6101a2600480360381019061019d9190610961565b610492565b6040516101af91906109a9565b60405180910390f35b6101d260048036038101906101cd91906108fc565b610507565b6040516101df91906108ab565b60405180910390f35b61020260048036038101906101fd91906108fc565b61051d565b60405161020f91906109d3565b60405180910390f35b610232600480360381019061022d91906108fc565b610571565b60405161023f91906108ab565b60405180910390f35b600060018360ff16148061025f575060038360ff16145b8061026d575060058360ff16145b8061027b575060078360ff16145b80610289575060088360ff16145b806102975750600a8360ff16145b806102a55750600c8360ff16145b156102b357601f905061030e565b60048360ff1614806102c8575060068360ff16145b806102d6575060098360ff16145b806102e45750600b8360ff16145b156102f257601e905061030e565b6102fb82610492565b1561030957601d905061030e565b601c90505b92915050565b60006018603c80846103269190610a4c565b6103309190610a4c565b61033a9190610a7d565b9050919050565b600061034c82610592565b604001519050919050565b6000603c826103669190610a7d565b9050919050565b600080600090506000806301e13380856103879190610a4c565b6107b263ffffffff1661039a9190610aae565b91506103ad6107b263ffffffff1661051d565b6103ba8361ffff1661051d565b6103c49190610ae2565b9050806301e285006103d69190610b16565b836103e19190610aae565b9250806107b28361ffff166103f69190610b58565b63ffffffff166104069190610ae2565b6301e133806104159190610b16565b836104209190610aae565b92505b848311156104875761044460018361043b9190610b90565b61ffff16610492565b15610460576301e28500836104599190610ae2565b9250610473565b6301e13380836104709190610ae2565b92505b6001826104809190610b90565b9150610423565b819350505050919050565b6000806004836104a29190610bc6565b63ffffffff16146104b65760009050610502565b60006064836104c59190610bc6565b63ffffffff16146104d95760019050610502565b6000610190836104e99190610bc6565b63ffffffff16146104fd5760009050610502565b600190505b919050565b600061051282610592565b602001519050919050565b600060018261052c9190610ae2565b91506101908261053c9190610a4c565b6064836105499190610a4c565b6004846105569190610a4c565b6105609190610ae2565b61056a9190610aae565b9050919050565b6000603c80836105819190610a4c565b61058b9190610a7d565b9050919050565b61059a610799565b600080806105a78561036d565b846000019061ffff16908161ffff16815250506105cb6107b263ffffffff1661051d565b6105dc856000015161ffff1661051d565b6105e69190610ae2565b9150816301e285006105f89190610b16565b836106039190610aae565b9250816107b2856000015161ffff1661061c9190610b58565b63ffffffff1661062c9190610ae2565b6301e1338061063b9190610b16565b836106469190610aae565b92506000600191505b600c8260ff16116106ca5761066c82866000015161ffff16610248565b60ff166201518061067d9190610b16565b905085848261068c9190610aae565b11156106a95781856020019060ff16908160ff16815250506106ca565b80846106b59190610aae565b935081806106c290610bf7565b92505061064f565b600191505b6106e58560200151866000015161ffff16610248565b60ff168260ff1611610742578584620151806107019190610aae565b111561071e5781856040019060ff16908160ff1681525050610742565b620151808461072d9190610aae565b9350818061073a90610bf7565b9250506106cf565b61074b86610314565b856060019060ff16908160ff168152505061076586610571565b856080019060ff16908160ff168152505061077f86610357565b8560a0019060ff16908160ff168152505050505050919050565b6040518060c00160405280600061ffff168152602001600060ff168152602001600060ff168152602001600060ff168152602001600060ff168152602001600060ff1681525090565b600080fd5b600060ff82169050919050565b6107fd816107e7565b811461080857600080fd5b50565b60008135905061081a816107f4565b92915050565b600063ffffffff82169050919050565b61083981610820565b811461084457600080fd5b50565b60008135905061085681610830565b92915050565b60008060408385031215610873576108726107e2565b5b60006108818582860161080b565b925050602061089285828601610847565b9150509250929050565b6108a5816107e7565b82525050565b60006020820190506108c0600083018461089c565b92915050565b6000819050919050565b6108d9816108c6565b81146108e457600080fd5b50565b6000813590506108f6816108d0565b92915050565b600060208284031215610912576109116107e2565b5b6000610920848285016108e7565b91505092915050565b600061ffff82169050919050565b61094081610929565b82525050565b600060208201905061095b6000830184610937565b92915050565b600060208284031215610977576109766107e2565b5b600061098584828501610847565b91505092915050565b60008115159050919050565b6109a38161098e565b82525050565b60006020820190506109be600083018461099a565b92915050565b6109cd816108c6565b82525050565b60006020820190506109e860008301846109c4565b92915050565b7f4e487b7100000000000000000000000000000000000000000000000000000000600052601260045260246000fd5b7f4e487b7100000000000000000000000000000000000000000000000000000000600052601160045260246000fd5b6000610a57826108c6565b9150610a62836108c6565b925082610a7257610a716109ee565b5b828204905092915050565b6000610a88826108c6565b9150610a93836108c6565b925082610aa357610aa26109ee565b5b828206905092915050565b6000610ab9826108c6565b9150610ac4836108c6565b9250828201905080821115610adc57610adb610a1d565b5b92915050565b6000610aed826108c6565b9150610af8836108c6565b9250828203905081811115610b1057610b0f610a1d565b5b92915050565b6000610b21826108c6565b9150610b2c836108c6565b9250828202610b3a816108c6565b91508282048414831517610b5157610b50610a1d565b5b5092915050565b6000610b6382610820565b9150610b6e83610820565b9250828203905063ffffffff811115610b8a57610b89610a1d565b5b92915050565b6000610b9b82610929565b9150610ba683610929565b9250828203905061ffff811115610bc057610bbf610a1d565b5b92915050565b6000610bd182610820565b9150610bdc83610820565b925082610bec57610beb6109ee565b5b828206905092915050565b6000610c02826107e7565b915060ff8203610c1557610c14610a1d565b5b60018201905091905056fea2646970667358221220e29bb47b008148988eb1e54c2b91baa928e2cf19c41b1edacf59bf57729a93c264736f6c63430008110033",
					"opcodes": "PUSH1 0x80 PUSH1 0x40 MSTORE CALLVALUE DUP1 ISZERO PUSH2 0x10 JUMPI PUSH1 0x0 DUP1 REVERT JUMPDEST POP PUSH2 0xC56 DUP1 PUSH2 0x20 PUSH1 0x0 CODECOPY PUSH1 0x0 RETURN INVALID PUSH1 0x80 PUSH1 0x40 MSTORE CALLVALUE DUP1 ISZERO PUSH2 0x10 JUMPI PUSH1 0x0 DUP1 REVERT JUMPDEST POP PUSH1 0x4 CALLDATASIZE LT PUSH2 0x93 JUMPI PUSH1 0x0 CALLDATALOAD PUSH1 0xE0 SHR DUP1 PUSH4 0x92D66313 GT PUSH2 0x66 JUMPI DUP1 PUSH4 0x92D66313 EQ PUSH2 0x158 JUMPI DUP1 PUSH4 0xA01F8518 EQ PUSH2 0x188 JUMPI DUP1 PUSH4 0xA324AD24 EQ PUSH2 0x1B8 JUMPI DUP1 PUSH4 0xB1999937 EQ PUSH2 0x1E8 JUMPI DUP1 PUSH4 0xFA93F883 EQ PUSH2 0x218 JUMPI PUSH2 0x93 JUMP JUMPDEST DUP1 PUSH4 0x534C9A6 EQ PUSH2 0x98 JUMPI DUP1 PUSH4 0x3E239E1A EQ PUSH2 0xC8 JUMPI DUP1 PUSH4 0x65C72840 EQ PUSH2 0xF8 JUMPI DUP1 PUSH4 0x8AA001FC EQ PUSH2 0x128 JUMPI JUMPDEST PUSH1 0x0 DUP1 REVERT JUMPDEST PUSH2 0xB2 PUSH1 0x4 DUP1 CALLDATASIZE SUB DUP2 ADD SWAP1 PUSH2 0xAD SWAP2 SWAP1 PUSH2 0x85C JUMP JUMPDEST PUSH2 0x248 JUMP JUMPDEST PUSH1 0x40 MLOAD PUSH2 0xBF SWAP2 SWAP1 PUSH2 0x8AB JUMP JUMPDEST PUSH1 0x40 MLOAD DUP1 SWAP2 SUB SWAP1 RETURN JUMPDEST PUSH2 0xE2 PUSH1 0x4 DUP1 CALLDATASIZE SUB DUP2 ADD SWAP1 PUSH2 0xDD SWAP2 SWAP1 PUSH2 0x8FC JUMP JUMPDEST PUSH2 0x314 JUMP JUMPDEST PUSH1 0x40 MLOAD PUSH2 0xEF SWAP2 SWAP1 PUSH2 0x8AB JUMP JUMPDEST PUSH1 0x40 MLOAD DUP1 SWAP2 SUB SWAP1 RETURN JUMPDEST PUSH2 0x112 PUSH1 0x4 DUP1 CALLDATASIZE SUB DUP2 ADD SWAP1 PUSH2 0x10D SWAP2 SWAP1 PUSH2 0x8FC JUMP JUMPDEST PUSH2 0x341 JUMP JUMPDEST PUSH1 0x40 MLOAD PUSH2 0x11F SWAP2 SWAP1 PUSH2 0x8AB JUMP JUMPDEST PUSH1 0x40 MLOAD DUP1 SWAP2 SUB SWAP1 RETURN JUMPDEST PUSH2 0x142 PUSH1 0x4 DUP1 CALLDATASIZE SUB DUP2 ADD SWAP1 PUSH2 0x13D SWAP2 SWAP1 PUSH2 0x8FC JUMP JUMPDEST PUSH2 0x357 JUMP JUMPDEST PUSH1 0x40 MLOAD PUSH2 0x14F SWAP2 SWAP1 PUSH2 0x8AB JUMP JUMPDEST PUSH1 0x40 MLOAD DUP1 SWAP2 SUB SWAP1 RETURN JUMPDEST PUSH2 0x172 PUSH1 0x4 DUP1 CALLDATASIZE SUB DUP2 ADD SWAP1 PUSH2 0x16D SWAP2 SWAP1 PUSH2 0x8FC JUMP JUMPDEST PUSH2 0x36D JUMP JUMPDEST PUSH1 0x40 MLOAD PUSH2 0x17F SWAP2 SWAP1 PUSH2 0x946 JUMP JUMPDEST PUSH1 0x40 MLOAD DUP1 SWAP2 SUB SWAP1 RETURN JUMPDEST PUSH2 0x1A2 PUSH1 0x4 DUP1 CALLDATASIZE SUB DUP2 ADD SWAP1 PUSH2 0x19D SWAP2 SWAP1 PUSH2 0x961 JUMP JUMPDEST PUSH2 0x492 JUMP JUMPDEST PUSH1 0x40 MLOAD PUSH2 0x1AF SWAP2 SWAP1 PUSH2 0x9A9 JUMP JUMPDEST PUSH1 0x40 MLOAD DUP1 SWAP2 SUB SWAP1 RETURN JUMPDEST PUSH2 0x1D2 PUSH1 0x4 DUP1 CALLDATASIZE SUB DUP2 ADD SWAP1 PUSH2 0x1CD SWAP2 SWAP1 PUSH2 0x8FC JUMP JUMPDEST PUSH2 0x507 JUMP JUMPDEST PUSH1 0x40 MLOAD PUSH2 0x1DF SWAP2 SWAP1 PUSH2 0x8AB JUMP JUMPDEST PUSH1 0x40 MLOAD DUP1 SWAP2 SUB SWAP1 RETURN JUMPDEST PUSH2 0x202 PUSH1 0x4 DUP1 CALLDATASIZE SUB DUP2 ADD SWAP1 PUSH2 0x1FD SWAP2 SWAP1 PUSH2 0x8FC JUMP JUMPDEST PUSH2 0x51D JUMP JUMPDEST PUSH1 0x40 MLOAD PUSH2 0x20F SWAP2 SWAP1 PUSH2 0x9D3 JUMP JUMPDEST PUSH1 0x40 MLOAD DUP1 SWAP2 SUB SWAP1 RETURN JUMPDEST PUSH2 0x232 PUSH1 0x4 DUP1 CALLDATASIZE SUB DUP2 ADD SWAP1 PUSH2 0x22D SWAP2 SWAP1 PUSH2 0x8FC JUMP JUMPDEST PUSH2 0x571 JUMP JUMPDEST PUSH1 0x40 MLOAD PUSH2 0x23F SWAP2 SWAP1 PUSH2 0x8AB JUMP JUMPDEST PUSH1 0x40 MLOAD DUP1 SWAP2 SUB SWAP1 RETURN JUMPDEST PUSH1 0x0 PUSH1 0x1 DUP4 PUSH1 0xFF AND EQ DUP1 PUSH2 0x25F JUMPI POP PUSH1 0x3 DUP4 PUSH1 0xFF AND EQ JUMPDEST DUP1 PUSH2 0x26D JUMPI POP PUSH1 0x5 DUP4 PUSH1 0xFF AND EQ JUMPDEST DUP1 PUSH2 0x27B JUMPI POP PUSH1 0x7 DUP4 PUSH1 0xFF AND EQ JUMPDEST DUP1 PUSH2 0x289 JUMPI POP PUSH1 0x8 DUP4 PUSH1 0xFF AND EQ JUMPDEST DUP1 PUSH2 0x297 JUMPI POP PUSH1 0xA DUP4 PUSH1 0xFF AND EQ JUMPDEST DUP1 PUSH2 0x2A5 JUMPI POP PUSH1 0xC DUP4 PUSH1 0xFF AND EQ JUMPDEST ISZERO PUSH2 0x2B3 JUMPI PUSH1 0x1F SWAP1 POP PUSH2 0x30E JUMP JUMPDEST PUSH1 0x4 DUP4 PUSH1 0xFF AND EQ DUP1 PUSH2 0x2C8 JUMPI POP PUSH1 0x6 DUP4 PUSH1 0xFF AND EQ JUMPDEST DUP1 PUSH2 0x2D6 JUMPI POP PUSH1 0x9 DUP4 PUSH1 0xFF AND EQ JUMPDEST DUP1 PUSH2 0x2E4 JUMPI POP PUSH1 0xB DUP4 PUSH1 0xFF AND EQ JUMPDEST ISZERO PUSH2 0x2F2 JUMPI PUSH1 0x1E SWAP1 POP PUSH2 0x30E JUMP JUMPDEST PUSH2 0x2FB DUP3 PUSH2 0x492 JUMP JUMPDEST ISZERO PUSH2 0x309 JUMPI PUSH1 0x1D SWAP1 POP PUSH2 0x30E JUMP JUMPDEST PUSH1 0x1C SWAP1 POP JUMPDEST SWAP3 SWAP2 POP POP JUMP JUMPDEST PUSH1 0x0 PUSH1 0x18 PUSH1 0x3C DUP1 DUP5 PUSH2 0x326 SWAP2 SWAP1 PUSH2 0xA4C JUMP JUMPDEST PUSH2 0x330 SWAP2 SWAP1 PUSH2 0xA4C JUMP JUMPDEST PUSH2 0x33A SWAP2 SWAP1 PUSH2 0xA7D JUMP JUMPDEST SWAP1 POP SWAP2 SWAP1 POP JUMP JUMPDEST PUSH1 0x0 PUSH2 0x34C DUP3 PUSH2 0x592 JUMP JUMPDEST PUSH1 0x40 ADD MLOAD SWAP1 POP SWAP2 SWAP1 POP JUMP JUMPDEST PUSH1 0x0 PUSH1 0x3C DUP3 PUSH2 0x366 SWAP2 SWAP1 PUSH2 0xA7D JUMP JUMPDEST SWAP1 POP SWAP2 SWAP1 POP JUMP JUMPDEST PUSH1 0x0 DUP1 PUSH1 0x0 SWAP1 POP PUSH1 0x0 DUP1 PUSH4 0x1E13380 DUP6 PUSH2 0x387 SWAP2 SWAP1 PUSH2 0xA4C JUMP JUMPDEST PUSH2 0x7B2 PUSH4 0xFFFFFFFF AND PUSH2 0x39A SWAP2 SWAP1 PUSH2 0xAAE JUMP JUMPDEST SWAP2 POP PUSH2 0x3AD PUSH2 0x7B2 PUSH4 0xFFFFFFFF AND PUSH2 0x51D JUMP JUMPDEST PUSH2 0x3BA DUP4 PUSH2 0xFFFF AND PUSH2 0x51D JUMP JUMPDEST PUSH2 0x3C4 SWAP2 SWAP1 PUSH2 0xAE2 JUMP JUMPDEST SWAP1 POP DUP1 PUSH4 0x1E28500 PUSH2 0x3D6 SWAP2 SWAP1 PUSH2 0xB16 JUMP JUMPDEST DUP4 PUSH2 0x3E1 SWAP2 SWAP1 PUSH2 0xAAE JUMP JUMPDEST SWAP3 POP DUP1 PUSH2 0x7B2 DUP4 PUSH2 0xFFFF AND PUSH2 0x3F6 SWAP2 SWAP1 PUSH2 0xB58 JUMP JUMPDEST PUSH4 0xFFFFFFFF AND PUSH2 0x406 SWAP2 SWAP1 PUSH2 0xAE2 JUMP JUMPDEST PUSH4 0x1E13380 PUSH2 0x415 SWAP2 SWAP1 PUSH2 0xB16 JUMP JUMPDEST DUP4 PUSH2 0x420 SWAP2 SWAP1 PUSH2 0xAAE JUMP JUMPDEST SWAP3 POP JUMPDEST DUP5 DUP4 GT ISZERO PUSH2 0x487 JUMPI PUSH2 0x444 PUSH1 0x1 DUP4 PUSH2 0x43B SWAP2 SWAP1 PUSH2 0xB90 JUMP JUMPDEST PUSH2 0xFFFF AND PUSH2 0x492 JUMP JUMPDEST ISZERO PUSH2 0x460 JUMPI PUSH4 0x1E28500 DUP4 PUSH2 0x459 SWAP2 SWAP1 PUSH2 0xAE2 JUMP JUMPDEST SWAP3 POP PUSH2 0x473 JUMP JUMPDEST PUSH4 0x1E13380 DUP4 PUSH2 0x470 SWAP2 SWAP1 PUSH2 0xAE2 JUMP JUMPDEST SWAP3 POP JUMPDEST PUSH1 0x1 DUP3 PUSH2 0x480 SWAP2 SWAP1 PUSH2 0xB90 JUMP JUMPDEST SWAP2 POP PUSH2 0x423 JUMP JUMPDEST DUP2 SWAP4 POP POP POP POP SWAP2 SWAP1 POP JUMP JUMPDEST PUSH1 0x0 DUP1 PUSH1 0x4 DUP4 PUSH2 0x4A2 SWAP2 SWAP1 PUSH2 0xBC6 JUMP JUMPDEST PUSH4 0xFFFFFFFF AND EQ PUSH2 0x4B6 JUMPI PUSH1 0x0 SWAP1 POP PUSH2 0x502 JUMP JUMPDEST PUSH1 0x0 PUSH1 0x64 DUP4 PUSH2 0x4C5 SWAP2 SWAP1 PUSH2 0xBC6 JUMP JUMPDEST PUSH4 0xFFFFFFFF AND EQ PUSH2 0x4D9 JUMPI PUSH1 0x1 SWAP1 POP PUSH2 0x502 JUMP JUMPDEST PUSH1 0x0 PUSH2 0x190 DUP4 PUSH2 0x4E9 SWAP2 SWAP1 PUSH2 0xBC6 JUMP JUMPDEST PUSH4 0xFFFFFFFF AND EQ PUSH2 0x4FD JUMPI PUSH1 0x0 SWAP1 POP PUSH2 0x502 JUMP JUMPDEST PUSH1 0x1 SWAP1 POP JUMPDEST SWAP2 SWAP1 POP JUMP JUMPDEST PUSH1 0x0 PUSH2 0x512 DUP3 PUSH2 0x592 JUMP JUMPDEST PUSH1 0x20 ADD MLOAD SWAP1 POP SWAP2 SWAP1 POP JUMP JUMPDEST PUSH1 0x0 PUSH1 0x1 DUP3 PUSH2 0x52C SWAP2 SWAP1 PUSH2 0xAE2 JUMP JUMPDEST SWAP2 POP PUSH2 0x190 DUP3 PUSH2 0x53C SWAP2 SWAP1 PUSH2 0xA4C JUMP JUMPDEST PUSH1 0x64 DUP4 PUSH2 0x549 SWAP2 SWAP1 PUSH2 0xA4C JUMP JUMPDEST PUSH1 0x4 DUP5 PUSH2 0x556 SWAP2 SWAP1 PUSH2 0xA4C JUMP JUMPDEST PUSH2 0x560 SWAP2 SWAP1 PUSH2 0xAE2 JUMP JUMPDEST PUSH2 0x56A SWAP2 SWAP1 PUSH2 0xAAE JUMP JUMPDEST SWAP1 POP SWAP2 SWAP1 POP JUMP JUMPDEST PUSH1 0x0 PUSH1 0x3C DUP1 DUP4 PUSH2 0x581 SWAP2 SWAP1 PUSH2 0xA4C JUMP JUMPDEST PUSH2 0x58B SWAP2 SWAP1 PUSH2 0xA7D JUMP JUMPDEST SWAP1 POP SWAP2 SWAP1 POP JUMP JUMPDEST PUSH2 0x59A PUSH2 0x799 JUMP JUMPDEST PUSH1 0x0 DUP1 DUP1 PUSH2 0x5A7 DUP6 PUSH2 0x36D JUMP JUMPDEST DUP5 PUSH1 0x0 ADD SWAP1 PUSH2 0xFFFF AND SWAP1 DUP2 PUSH2 0xFFFF AND DUP2 MSTORE POP POP PUSH2 0x5CB PUSH2 0x7B2 PUSH4 0xFFFFFFFF AND PUSH2 0x51D JUMP JUMPDEST PUSH2 0x5DC DUP6 PUSH1 0x0 ADD MLOAD PUSH2 0xFFFF AND PUSH2 0x51D JUMP JUMPDEST PUSH2 0x5E6 SWAP2 SWAP1 PUSH2 0xAE2 JUMP JUMPDEST SWAP2 POP DUP2 PUSH4 0x1E28500 PUSH2 0x5F8 SWAP2 SWAP1 PUSH2 0xB16 JUMP JUMPDEST DUP4 PUSH2 0x603 SWAP2 SWAP1 PUSH2 0xAAE JUMP JUMPDEST SWAP3 POP DUP2 PUSH2 0x7B2 DUP6 PUSH1 0x0 ADD MLOAD PUSH2 0xFFFF AND PUSH2 0x61C SWAP2 SWAP1 PUSH2 0xB58 JUMP JUMPDEST PUSH4 0xFFFFFFFF AND PUSH2 0x62C SWAP2 SWAP1 PUSH2 0xAE2 JUMP JUMPDEST PUSH4 0x1E13380 PUSH2 0x63B SWAP2 SWAP1 PUSH2 0xB16 JUMP JUMPDEST DUP4 PUSH2 0x646 SWAP2 SWAP1 PUSH2 0xAAE JUMP JUMPDEST SWAP3 POP PUSH1 0x0 PUSH1 0x1 SWAP2 POP JUMPDEST PUSH1 0xC DUP3 PUSH1 0xFF AND GT PUSH2 0x6CA JUMPI PUSH2 0x66C DUP3 DUP7 PUSH1 0x0 ADD MLOAD PUSH2 0xFFFF AND PUSH2 0x248 JUMP JUMPDEST PUSH1 0xFF AND PUSH3 0x15180 PUSH2 0x67D SWAP2 SWAP1 PUSH2 0xB16 JUMP JUMPDEST SWAP1 POP DUP6 DUP5 DUP3 PUSH2 0x68C SWAP2 SWAP1 PUSH2 0xAAE JUMP JUMPDEST GT ISZERO PUSH2 0x6A9 JUMPI DUP2 DUP6 PUSH1 0x20 ADD SWAP1 PUSH1 0xFF AND SWAP1 DUP2 PUSH1 0xFF AND DUP2 MSTORE POP POP PUSH2 0x6CA JUMP JUMPDEST DUP1 DUP5 PUSH2 0x6B5 SWAP2 SWAP1 PUSH2 0xAAE JUMP JUMPDEST SWAP4 POP DUP2 DUP1 PUSH2 0x6C2 SWAP1 PUSH2 0xBF7 JUMP JUMPDEST SWAP3 POP POP PUSH2 0x64F JUMP JUMPDEST PUSH1 0x1 SWAP2 POP JUMPDEST PUSH2 0x6E5 DUP6 PUSH1 0x20 ADD MLOAD DUP7 PUSH1 0x0 ADD MLOAD PUSH2 0xFFFF AND PUSH2 0x248 JUMP JUMPDEST PUSH1 0xFF AND DUP3 PUSH1 0xFF AND GT PUSH2 0x742 JUMPI DUP6 DUP5 PUSH3 0x15180 PUSH2 0x701 SWAP2 SWAP1 PUSH2 0xAAE JUMP JUMPDEST GT ISZERO PUSH2 0x71E JUMPI DUP2 DUP6 PUSH1 0x40 ADD SWAP1 PUSH1 0xFF AND SWAP1 DUP2 PUSH1 0xFF AND DUP2 MSTORE POP POP PUSH2 0x742 JUMP JUMPDEST PUSH3 0x15180 DUP5 PUSH2 0x72D SWAP2 SWAP1 PUSH2 0xAAE JUMP JUMPDEST SWAP4 POP DUP2 DUP1 PUSH2 0x73A SWAP1 PUSH2 0xBF7 JUMP JUMPDEST SWAP3 POP POP PUSH2 0x6CF JUMP JUMPDEST PUSH2 0x74B DUP7 PUSH2 0x314 JUMP JUMPDEST DUP6 PUSH1 0x60 ADD SWAP1 PUSH1 0xFF AND SWAP1 DUP2 PUSH1 0xFF AND DUP2 MSTORE POP POP PUSH2 0x765 DUP7 PUSH2 0x571 JUMP JUMPDEST DUP6 PUSH1 0x80 ADD SWAP1 PUSH1 0xFF AND SWAP1 DUP2 PUSH1 0xFF AND DUP2 MSTORE POP POP PUSH2 0x77F DUP7 PUSH2 0x357 JUMP JUMPDEST DUP6 PUSH1 0xA0 ADD SWAP1 PUSH1 0xFF AND SWAP1 DUP2 PUSH1 0xFF AND DUP2 MSTORE POP POP POP POP POP POP SWAP2 SWAP1 POP JUMP JUMPDEST PUSH1 0x40 MLOAD DUP1 PUSH1 0xC0 ADD PUSH1 0x40 MSTORE DUP1 PUSH1 0x0 PUSH2 0xFFFF AND DUP2 MSTORE PUSH1 0x20 ADD PUSH1 0x0 PUSH1 0xFF AND DUP2 MSTORE PUSH1 0x20 ADD PUSH1 0x0 PUSH1 0xFF AND DUP2 MSTORE PUSH1 0x20 ADD PUSH1 0x0 PUSH1 0xFF AND DUP2 MSTORE PUSH1 0x20 ADD PUSH1 0x0 PUSH1 0xFF AND DUP2 MSTORE PUSH1 0x20 ADD PUSH1 0x0 PUSH1 0xFF AND DUP2 MSTORE POP SWAP1 JUMP JUMPDEST PUSH1 0x0 DUP1 REVERT JUMPDEST PUSH1 0x0 PUSH1 0xFF DUP3 AND SWAP1 POP SWAP2 SWAP1 POP JUMP JUMPDEST PUSH2 0x7FD DUP2 PUSH2 0x7E7 JUMP JUMPDEST DUP2 EQ PUSH2 0x808 JUMPI PUSH1 0x0 DUP1 REVERT JUMPDEST POP JUMP JUMPDEST PUSH1 0x0 DUP2 CALLDATALOAD SWAP1 POP PUSH2 0x81A DUP2 PUSH2 0x7F4 JUMP JUMPDEST SWAP3 SWAP2 POP POP JUMP JUMPDEST PUSH1 0x0 PUSH4 0xFFFFFFFF DUP3 AND SWAP1 POP SWAP2 SWAP1 POP JUMP JUMPDEST PUSH2 0x839 DUP2 PUSH2 0x820 JUMP JUMPDEST DUP2 EQ PUSH2 0x844 JUMPI PUSH1 0x0 DUP1 REVERT JUMPDEST POP JUMP JUMPDEST PUSH1 0x0 DUP2 CALLDATALOAD SWAP1 POP PUSH2 0x856 DUP2 PUSH2 0x830 JUMP JUMPDEST SWAP3 SWAP2 POP POP JUMP JUMPDEST PUSH1 0x0 DUP1 PUSH1 0x40 DUP4 DUP6 SUB SLT ISZERO PUSH2 0x873 JUMPI PUSH2 0x872 PUSH2 0x7E2 JUMP JUMPDEST JUMPDEST PUSH1 0x0 PUSH2 0x881 DUP6 DUP3 DUP7 ADD PUSH2 0x80B JUMP JUMPDEST SWAP3 POP POP PUSH1 0x20 PUSH2 0x892 DUP6 DUP3 DUP7 ADD PUSH2 0x847 JUMP JUMPDEST SWAP2 POP POP SWAP3 POP SWAP3 SWAP1 POP JUMP JUMPDEST PUSH2 0x8A5 DUP2 PUSH2 0x7E7 JUMP JUMPDEST DUP3 MSTORE POP POP JUMP JUMPDEST PUSH1 0x0 PUSH1 0x20 DUP3 ADD SWAP1 POP PUSH2 0x8C0 PUSH1 0x0 DUP4 ADD DUP5 PUSH2 0x89C JUMP JUMPDEST SWAP3 SWAP2 POP POP JUMP JUMPDEST PUSH1 0x0 DUP2 SWAP1 POP SWAP2 SWAP1 POP JUMP JUMPDEST PUSH2 0x8D9 DUP2 PUSH2 0x8C6 JUMP JUMPDEST DUP2 EQ PUSH2 0x8E4 JUMPI PUSH1 0x0 DUP1 REVERT JUMPDEST POP JUMP JUMPDEST PUSH1 0x0 DUP2 CALLDATALOAD SWAP1 POP PUSH2 0x8F6 DUP2 PUSH2 0x8D0 JUMP JUMPDEST SWAP3 SWAP2 POP POP JUMP JUMPDEST PUSH1 0x0 PUSH1 0x20 DUP3 DUP5 SUB SLT ISZERO PUSH2 0x912 JUMPI PUSH2 0x911 PUSH2 0x7E2 JUMP JUMPDEST JUMPDEST PUSH1 0x0 PUSH2 0x920 DUP5 DUP3 DUP6 ADD PUSH2 0x8E7 JUMP JUMPDEST SWAP2 POP POP SWAP3 SWAP2 POP POP JUMP JUMPDEST PUSH1 0x0 PUSH2 0xFFFF DUP3 AND SWAP1 POP SWAP2 SWAP1 POP JUMP JUMPDEST PUSH2 0x940 DUP2 PUSH2 0x929 JUMP JUMPDEST DUP3 MSTORE POP POP JUMP JUMPDEST PUSH1 0x0 PUSH1 0x20 DUP3 ADD SWAP1 POP PUSH2 0x95B PUSH1 0x0 DUP4 ADD DUP5 PUSH2 0x937 JUMP JUMPDEST SWAP3 SWAP2 POP POP JUMP JUMPDEST PUSH1 0x0 PUSH1 0x20 DUP3 DUP5 SUB SLT ISZERO PUSH2 0x977 JUMPI PUSH2 0x976 PUSH2 0x7E2 JUMP JUMPDEST JUMPDEST PUSH1 0x0 PUSH2 0x985 DUP5 DUP3 DUP6 ADD PUSH2 0x847 JUMP JUMPDEST SWAP2 POP POP SWAP3 SWAP2 POP POP JUMP JUMPDEST PUSH1 0x0 DUP2 ISZERO ISZERO SWAP1 POP SWAP2 SWAP1 POP JUMP JUMPDEST PUSH2 0x9A3 DUP2 PUSH2 0x98E JUMP JUMPDEST DUP3 MSTORE POP POP JUMP JUMPDEST PUSH1 0x0 PUSH1 0x20 DUP3 ADD SWAP1 POP PUSH2 0x9BE PUSH1 0x0 DUP4 ADD DUP5 PUSH2 0x99A JUMP JUMPDEST SWAP3 SWAP2 POP POP JUMP JUMPDEST PUSH2 0x9CD DUP2 PUSH2 0x8C6 JUMP JUMPDEST DUP3 MSTORE POP POP JUMP JUMPDEST PUSH1 0x0 PUSH1 0x20 DUP3 ADD SWAP1 POP PUSH2 0x9E8 PUSH1 0x0 DUP4 ADD DUP5 PUSH2 0x9C4 JUMP JUMPDEST SWAP3 SWAP2 POP POP JUMP JUMPDEST PUSH32 0x4E487B7100000000000000000000000000000000000000000000000000000000 PUSH1 0x0 MSTORE PUSH1 0x12 PUSH1 0x4 MSTORE PUSH1 0x24 PUSH1 0x0 REVERT JUMPDEST PUSH32 0x4E487B7100000000000000000000000000000000000000000000000000000000 PUSH1 0x0 MSTORE PUSH1 0x11 PUSH1 0x4 MSTORE PUSH1 0x24 PUSH1 0x0 REVERT JUMPDEST PUSH1 0x0 PUSH2 0xA57 DUP3 PUSH2 0x8C6 JUMP JUMPDEST SWAP2 POP PUSH2 0xA62 DUP4 PUSH2 0x8C6 JUMP JUMPDEST SWAP3 POP DUP3 PUSH2 0xA72 JUMPI PUSH2 0xA71 PUSH2 0x9EE JUMP JUMPDEST JUMPDEST DUP3 DUP3 DIV SWAP1 POP SWAP3 SWAP2 POP POP JUMP JUMPDEST PUSH1 0x0 PUSH2 0xA88 DUP3 PUSH2 0x8C6 JUMP JUMPDEST SWAP2 POP PUSH2 0xA93 DUP4 PUSH2 0x8C6 JUMP JUMPDEST SWAP3 POP DUP3 PUSH2 0xAA3 JUMPI PUSH2 0xAA2 PUSH2 0x9EE JUMP JUMPDEST JUMPDEST DUP3 DUP3 MOD SWAP1 POP SWAP3 SWAP2 POP POP JUMP JUMPDEST PUSH1 0x0 PUSH2 0xAB9 DUP3 PUSH2 0x8C6 JUMP JUMPDEST SWAP2 POP PUSH2 0xAC4 DUP4 PUSH2 0x8C6 JUMP JUMPDEST SWAP3 POP DUP3 DUP3 ADD SWAP1 POP DUP1 DUP3 GT ISZERO PUSH2 0xADC JUMPI PUSH2 0xADB PUSH2 0xA1D JUMP JUMPDEST JUMPDEST SWAP3 SWAP2 POP POP JUMP JUMPDEST PUSH1 0x0 PUSH2 0xAED DUP3 PUSH2 0x8C6 JUMP JUMPDEST SWAP2 POP PUSH2 0xAF8 DUP4 PUSH2 0x8C6 JUMP JUMPDEST SWAP3 POP DUP3 DUP3 SUB SWAP1 POP DUP2 DUP2 GT ISZERO PUSH2 0xB10 JUMPI PUSH2 0xB0F PUSH2 0xA1D JUMP JUMPDEST JUMPDEST SWAP3 SWAP2 POP POP JUMP JUMPDEST PUSH1 0x0 PUSH2 0xB21 DUP3 PUSH2 0x8C6 JUMP JUMPDEST SWAP2 POP PUSH2 0xB2C DUP4 PUSH2 0x8C6 JUMP JUMPDEST SWAP3 POP DUP3 DUP3 MUL PUSH2 0xB3A DUP2 PUSH2 0x8C6 JUMP JUMPDEST SWAP2 POP DUP3 DUP3 DIV DUP5 EQ DUP4 ISZERO OR PUSH2 0xB51 JUMPI PUSH2 0xB50 PUSH2 0xA1D JUMP JUMPDEST JUMPDEST POP SWAP3 SWAP2 POP POP JUMP JUMPDEST PUSH1 0x0 PUSH2 0xB63 DUP3 PUSH2 0x820 JUMP JUMPDEST SWAP2 POP PUSH2 0xB6E DUP4 PUSH2 0x820 JUMP JUMPDEST SWAP3 POP DUP3 DUP3 SUB SWAP1 POP PUSH4 0xFFFFFFFF DUP2 GT ISZERO PUSH2 0xB8A JUMPI PUSH2 0xB89 PUSH2 0xA1D JUMP JUMPDEST JUMPDEST SWAP3 SWAP2 POP POP JUMP JUMPDEST PUSH1 0x0 PUSH2 0xB9B DUP3 PUSH2 0x929 JUMP JUMPDEST SWAP2 POP PUSH2 0xBA6 DUP4 PUSH2 0x929 JUMP JUMPDEST SWAP3 POP DUP3 DUP3 SUB SWAP1 POP PUSH2 0xFFFF DUP2 GT ISZERO PUSH2 0xBC0 JUMPI PUSH2 0xBBF PUSH2 0xA1D JUMP JUMPDEST JUMPDEST SWAP3 SWAP2 POP POP JUMP JUMPDEST PUSH1 0x0 PUSH2 0xBD1 DUP3 PUSH2 0x820 JUMP JUMPDEST SWAP2 POP PUSH2 0xBDC DUP4 PUSH2 0x820 JUMP JUMPDEST SWAP3 POP DUP3 PUSH2 0xBEC JUMPI PUSH2 0xBEB PUSH2 0x9EE JUMP JUMPDEST JUMPDEST DUP3 DUP3 MOD SWAP1 POP SWAP3 SWAP2 POP POP JUMP JUMPDEST PUSH1 0x0 PUSH2 0xC02 DUP3 PUSH2 0x7E7 JUMP JUMPDEST SWAP2 POP PUSH1 0xFF DUP3 SUB PUSH2 0xC15 JUMPI PUSH2 0xC14 PUSH2 0xA1D JUMP JUMPDEST JUMPDEST PUSH1 0x1 DUP3 ADD SWAP1 POP SWAP2 SWAP1 POP JUMP INVALID LOG2 PUSH5 0x6970667358 0x22 SLT KECCAK256 0xE2 SWAP12 0xB4 PUSH28 0x8148988EB1E54C2B91BAA928E2CF19C41B1EDACF59BF57729A93C2 PUSH5 0x736F6C6343 STOP ADDMOD GT STOP CALLER "
				},
				"gasEstimates": {
					"creation": {
						"codeDepositCost": "631600",
						"executionCost": "664",
						"totalCost": "632264"
					},
					"external": {
						"getDay(uint256)": "infinite",
						"getDaysInMonth(uint8,uint32)": "infinite",
						"getHour(uint256)": "infinite",
						"getMinute(uint256)": "infinite",
						"getMonth(uint256)": "infinite",
						"getSecond(uint256)": "infinite",
						"getYear(uint256)": "infinite",
						"isLeapYear(uint32)": "infinite",
						"leapYearsBefore(uint256)": "infinite"
					},
					"internal": {
						"parseTimestamp(uint256)": "infinite"
					}
				},
				"methodIdentifiers": {
					"getDay(uint256)": "65c72840",
					"getDaysInMonth(uint8,uint32)": "0534c9a6",
					"getHour(uint256)": "3e239e1a",
					"getMinute(uint256)": "fa93f883",
					"getMonth(uint256)": "a324ad24",
					"getSecond(uint256)": "8aa001fc",
					"getYear(uint256)": "92d66313",
					"isLeapYear(uint32)": "a01f8518",
					"leapYearsBefore(uint256)": "b1999937"
				}
			},
			"storageLayout": {
				"storage": [],
				"types": null
			},
			"userdoc": {
				"kind": "user",
				"methods": {},
				"version": 1
			}
		}
	}
}