{
	"DateTime.sol": {
		"DateTime": {
			"abi": [
				{
					"inputs": [
						{
							"internalType": "uint256",
							"name": "timestamp",
							"type": "uint256"
						}
					],
					"name": "getDay",
					"outputs": [
						{
							"internalType": "uint8",
							"name": "",
							"type": "uint8"
						}
					],
					"stateMutability": "pure",
					"type": "function"
				},
				{
					"inputs": [
						{
							"internalType": "uint8",
							"name": "month",
							"type": "uint8"
						},
						{
							"internalType": "uint32",
							"name": "year",
							"type": "uint32"
						}
					],
					"name": "getDaysInMonth",
					"outputs": [
						{
							"internalType": "uint8",
							"name": "",
							"type": "uint8"
						}
					],
					"stateMutability": "pure",
					"type": "function"
				},
				{
					"inputs": [
						{
							"internalType": "uint256",
							"name": "timestamp",
							"type": "uint256"
						}
					],
					"name": "getHour",
					"outputs": [
						{
							"internalType": "uint8",
							"name": "",
							"type": "uint8"
						}
					],
					"stateMutability": "pure",
					"type": "function"
				},
				{
					"inputs": [
						{
							"internalType": "uint256",
							"name": "timestamp",
							"type": "uint256"
						}
					],
					"name": "getMinute",
					"outputs": [
						{
							"internalType": "uint8",
							"name": "",
							"type": "uint8"
						}
					],
					"stateMutability": "pure",
					"type": "function"
				},
				{
					"inputs": [
						{
							"internalType": "uint256",
							"name": "timestamp",
							"type": "uint256"
						}
					],
					"name": "getMonth",
					"outputs": [
						{
							"internalType": "uint8",
							"name": "",
							"type": "uint8"
						}
					],
					"stateMutability": "pure",
					"type": "function"
				},
				{
					"inputs": [
						{
							"internalType": "uint256",
							"name": "timestamp",
							"type": "uint256"
						}
					],
					"name": "getSecond",
					"outputs": [
						{
							"internalType": "uint8",
							"name": "",
							"type": "uint8"
						}
					],
					"stateMutability": "pure",
					"type": "function"
				},
				{
					"inputs": [
						{
							"internalType": "uint256",
							"name": "timestamp",
							"type": "uint256"
						}
					],
					"name": "getYear",
					"outputs": [
						{
							"internalType": "uint32",
							"name": "",
							"type": "uint32"
						}
					],
					"stateMutability": "pure",
					"type": "function"
				},
				{
					"inputs": [
						{
							"internalType": "uint32",
							"name": "year",
							"type": "uint32"
						}
					],
					"name": "isLeapYear",
					"outputs": [
						{
							"internalType": "bool",
							"name": "",
							"type": "bool"
						}
					],
					"stateMutability": "pure",
					"type": "function"
				},
				{
					"inputs": [
						{
							"internalType": "uint256",
							"name": "year",
							"type": "uint256"
						}
					],
					"name": "leapYearsBefore",
					"outputs": [
						{
							"internalType": "uint256",
							"name": "",
							"type": "uint256"
						}
					],
					"stateMutability": "pure",
					"type": "function"
				}
			],
			"devdoc": {
				"kind": "dev",
				"methods": {},
				"version": 1
			},
			"evm": {
				"assembly": "    /* \"DateTime.sol\":57:4950  contract DateTime {... */\n  mstore(0x40, 0x80)\n  callvalue\n  dup1\n  iszero\n  tag_1\n  jumpi\n  0x00\n  dup1\n  revert\ntag_1:\n  pop\n  dataSize(sub_0)\n  dup1\n  dataOffset(sub_0)\n  0x00\n  codecopy\n  0x00\n  return\nstop\n\nsub_0: assembly {\n        /* \"DateTime.sol\":57:4950  contract DateTime {... */\n      mstore(0x40, 0x80)\n      callvalue\n      dup1\n      iszero\n      tag_1\n      jumpi\n      0x00\n      dup1\n      revert\n    tag_1:\n      pop\n      jumpi(tag_2, lt(calldatasize, 0x04))\n      shr(0xe0, calldataload(0x00))\n      dup1\n      0x92d66313\n      gt\n      tag_12\n      jumpi\n      dup1\n      0x92d66313\n      eq\n      tag_7\n      jumpi\n      dup1\n      0xa01f8518\n      eq\n      tag_8\n      jumpi\n      dup1\n      0xa324ad24\n      eq\n      tag_9\n      jumpi\n      dup1\n      0xb1999937\n      eq\n      tag_10\n      jumpi\n      dup1\n      0xfa93f883\n      eq\n      tag_11\n      jumpi\n      jump(tag_2)\n    tag_12:\n      dup1\n      0x0534c9a6\n      eq\n      tag_3\n      jumpi\n      dup1\n      0x3e239e1a\n      eq\n      tag_4\n      jumpi\n      dup1\n      0x65c72840\n      eq\n      tag_5\n      jumpi\n      dup1\n      0x8aa001fc\n      eq\n      tag_6\n      jumpi\n    tag_2:\n      0x00\n      dup1\n      revert\n        /* \"DateTime.sol\":1146:1717  function getDaysInMonth(uint8 month, uint32 year) public pure returns (uint8) {... */\n    tag_3:\n      tag_13\n      0x04\n      dup1\n      calldatasize\n      sub\n      dup2\n      add\n      swap1\n      tag_14\n      swap2\n      swap1\n      tag_15\n      jump\t// in\n    tag_14:\n      tag_16\n      jump\t// in\n    tag_13:\n      mload(0x40)\n      tag_17\n      swap2\n      swap1\n      tag_18\n      jump\t// in\n    tag_17:\n      mload(0x40)\n      dup1\n      swap2\n      sub\n      swap1\n      return\n        /* \"DateTime.sol\":4549:4679  function getHour(uint timestamp) public pure returns (uint8) {... */\n    tag_4:\n      tag_19\n      0x04\n      dup1\n      calldatasize\n      sub\n      dup2\n      add\n      swap1\n      tag_20\n      swap2\n      swap1\n      tag_21\n      jump\t// in\n    tag_20:\n      tag_22\n      jump\t// in\n    tag_19:\n      mload(0x40)\n      tag_23\n      swap2\n      swap1\n      tag_18\n      jump\t// in\n    tag_23:\n      mload(0x40)\n      dup1\n      swap2\n      sub\n      swap1\n      return\n        /* \"DateTime.sol\":4414:4539  function getDay(uint timestamp) public pure returns (uint8) {... */\n    tag_5:\n      tag_24\n      0x04\n      dup1\n      calldatasize\n      sub\n      dup2\n      add\n      swap1\n      tag_25\n      swap2\n      swap1\n      tag_21\n      jump\t// in\n    tag_25:\n      tag_26\n      jump\t// in\n    tag_24:\n      mload(0x40)\n      tag_27\n      swap2\n      swap1\n      tag_18\n      jump\t// in\n    tag_27:\n      mload(0x40)\n      dup1\n      swap2\n      sub\n      swap1\n      return\n        /* \"DateTime.sol\":4826:4946  function getSecond(uint timestamp) public pure returns (uint8) {... */\n    tag_6:\n      tag_28\n      0x04\n      dup1\n      calldatasize\n      sub\n      dup2\n      add\n      swap1\n      tag_29\n      swap2\n      swap1\n      tag_21\n      jump\t// in\n    tag_29:\n      tag_30\n      jump\t// in\n    tag_28:\n      mload(0x40)\n      tag_31\n      swap2\n      swap1\n      tag_18\n      jump\t// in\n    tag_31:\n      mload(0x40)\n      dup1\n      swap2\n      sub\n      swap1\n      return\n        /* \"DateTime.sol\":3294:4265  function getYear(uint timestamp) public pure returns (uint32) {... */\n    tag_7:\n      tag_32\n      0x04\n      dup1\n      calldatasize\n      sub\n      dup2\n      add\n      swap1\n      tag_33\n      swap2\n      swap1\n      tag_21\n      jump\t// in\n    tag_33:\n      tag_34\n      jump\t// in\n    tag_32:\n      mload(0x40)\n      tag_35\n      swap2\n      swap1\n      tag_36\n      jump\t// in\n    tag_35:\n      mload(0x40)\n      dup1\n      swap2\n      sub\n      swap1\n      return\n        /* \"DateTime.sol\":584:966  function isLeapYear(uint32 year) public pure returns (bool) {... */\n    tag_8:\n      tag_37\n      0x04\n      dup1\n      calldatasize\n      sub\n      dup2\n      add\n      swap1\n      tag_38\n      swap2\n      swap1\n      tag_39\n      jump\t// in\n    tag_38:\n      tag_40\n      jump\t// in\n    tag_37:\n      mload(0x40)\n      tag_41\n      swap2\n      swap1\n      tag_42\n      jump\t// in\n    tag_41:\n      mload(0x40)\n      dup1\n      swap2\n      sub\n      swap1\n      return\n        /* \"DateTime.sol\":4275:4404  function getMonth(uint timestamp) public pure returns (uint8) {... */\n    tag_9:\n      tag_43\n      0x04\n      dup1\n      calldatasize\n      sub\n      dup2\n      add\n      swap1\n      tag_44\n      swap2\n      swap1\n      tag_21\n      jump\t// in\n    tag_44:\n      tag_45\n      jump\t// in\n    tag_43:\n      mload(0x40)\n      tag_46\n      swap2\n      swap1\n      tag_18\n      jump\t// in\n    tag_46:\n      mload(0x40)\n      dup1\n      swap2\n      sub\n      swap1\n      return\n        /* \"DateTime.sol\":976:1136  function leapYearsBefore(uint year) public pure returns (uint) {... */\n    tag_10:\n      tag_47\n      0x04\n      dup1\n      calldatasize\n      sub\n      dup2\n      add\n      swap1\n      tag_48\n      swap2\n      swap1\n      tag_21\n      jump\t// in\n    tag_48:\n      tag_49\n      jump\t// in\n    tag_47:\n      mload(0x40)\n      tag_50\n      swap2\n      swap1\n      tag_51\n      jump\t// in\n    tag_50:\n      mload(0x40)\n      dup1\n      swap2\n      sub\n      swap1\n      return\n        /* \"DateTime.sol\":4689:4816  function getMinute(uint timestamp) public pure returns (uint8) {... */\n    tag_11:\n      tag_52\n      0x04\n      dup1\n      calldatasize\n      sub\n      dup2\n      add\n      swap1\n      tag_53\n      swap2\n      swap1\n      tag_21\n      jump\t// in\n    tag_53:\n      tag_54\n      jump\t// in\n    tag_52:\n      mload(0x40)\n      tag_55\n      swap2\n      swap1\n      tag_18\n      jump\t// in\n    tag_55:\n      mload(0x40)\n      dup1\n      swap2\n      sub\n      swap1\n      return\n        /* \"DateTime.sol\":1146:1717  function getDaysInMonth(uint8 month, uint32 year) public pure returns (uint8) {... */\n    tag_16:\n        /* \"DateTime.sol\":1217:1222  uint8 */\n      0x00\n        /* \"DateTime.sol\":1255:1256  1 */\n      0x01\n        /* \"DateTime.sol\":1246:1251  month */\n      dup4\n        /* \"DateTime.sol\":1246:1256  month == 1 */\n      0xff\n      and\n      eq\n        /* \"DateTime.sol\":1246:1270  month == 1 || month == 3 */\n      dup1\n      tag_57\n      jumpi\n      pop\n        /* \"DateTime.sol\":1269:1270  3 */\n      0x03\n        /* \"DateTime.sol\":1260:1265  month */\n      dup4\n        /* \"DateTime.sol\":1260:1270  month == 3 */\n      0xff\n      and\n      eq\n        /* \"DateTime.sol\":1246:1270  month == 1 || month == 3 */\n    tag_57:\n        /* \"DateTime.sol\":1246:1284  month == 1 || month == 3 || month == 5 */\n      dup1\n      tag_58\n      jumpi\n      pop\n        /* \"DateTime.sol\":1283:1284  5 */\n      0x05\n        /* \"DateTime.sol\":1274:1279  month */\n      dup4\n        /* \"DateTime.sol\":1274:1284  month == 5 */\n      0xff\n      and\n      eq\n        /* \"DateTime.sol\":1246:1284  month == 1 || month == 3 || month == 5 */\n    tag_58:\n        /* \"DateTime.sol\":1246:1298  month == 1 || month == 3 || month == 5 || month == 7 */\n      dup1\n      tag_59\n      jumpi\n      pop\n        /* \"DateTime.sol\":1297:1298  7 */\n      0x07\n        /* \"DateTime.sol\":1288:1293  month */\n      dup4\n        /* \"DateTime.sol\":1288:1298  month == 7 */\n      0xff\n      and\n      eq\n        /* \"DateTime.sol\":1246:1298  month == 1 || month == 3 || month == 5 || month == 7 */\n    tag_59:\n        /* \"DateTime.sol\":1246:1312  month == 1 || month == 3 || month == 5 || month == 7 || month == 8 */\n      dup1\n      tag_60\n      jumpi\n      pop\n        /* \"DateTime.sol\":1311:1312  8 */\n      0x08\n        /* \"DateTime.sol\":1302:1307  month */\n      dup4\n        /* \"DateTime.sol\":1302:1312  month == 8 */\n      0xff\n      and\n      eq\n        /* \"DateTime.sol\":1246:1312  month == 1 || month == 3 || month == 5 || month == 7 || month == 8 */\n    tag_60:\n        /* \"DateTime.sol\":1246:1327  month == 1 || month == 3 || month == 5 || month == 7 || month == 8 || month == 10 */\n      dup1\n      tag_61\n      jumpi\n      pop\n        /* \"DateTime.sol\":1325:1327  10 */\n      0x0a\n        /* \"DateTime.sol\":1316:1321  month */\n      dup4\n        /* \"DateTime.sol\":1316:1327  month == 10 */\n      0xff\n      and\n      eq\n        /* \"DateTime.sol\":1246:1327  month == 1 || month == 3 || month == 5 || month == 7 || month == 8 || month == 10 */\n    tag_61:\n        /* \"DateTime.sol\":1246:1342  month == 1 || month == 3 || month == 5 || month == 7 || month == 8 || month == 10 || month == 12 */\n      dup1\n      tag_62\n      jumpi\n      pop\n        /* \"DateTime.sol\":1340:1342  12 */\n      0x0c\n        /* \"DateTime.sol\":1331:1336  month */\n      dup4\n        /* \"DateTime.sol\":1331:1342  month == 12 */\n      0xff\n      and\n      eq\n        /* \"DateTime.sol\":1246:1342  month == 1 || month == 3 || month == 5 || month == 7 || month == 8 || month == 10 || month == 12 */\n    tag_62:\n        /* \"DateTime.sol\":1242:1707  if (month == 1 || month == 3 || month == 5 || month == 7 || month == 8 || month == 10 || month == 12) {... */\n      iszero\n      tag_63\n      jumpi\n        /* \"DateTime.sol\":1377:1379  31 */\n      0x1f\n        /* \"DateTime.sol\":1370:1379  return 31 */\n      swap1\n      pop\n      jump(tag_56)\n        /* \"DateTime.sol\":1242:1707  if (month == 1 || month == 3 || month == 5 || month == 7 || month == 8 || month == 10 || month == 12) {... */\n    tag_63:\n        /* \"DateTime.sol\":1433:1434  4 */\n      0x04\n        /* \"DateTime.sol\":1424:1429  month */\n      dup4\n        /* \"DateTime.sol\":1424:1434  month == 4 */\n      0xff\n      and\n      eq\n        /* \"DateTime.sol\":1424:1448  month == 4 || month == 6 */\n      dup1\n      tag_65\n      jumpi\n      pop\n        /* \"DateTime.sol\":1447:1448  6 */\n      0x06\n        /* \"DateTime.sol\":1438:1443  month */\n      dup4\n        /* \"DateTime.sol\":1438:1448  month == 6 */\n      0xff\n      and\n      eq\n        /* \"DateTime.sol\":1424:1448  month == 4 || month == 6 */\n    tag_65:\n        /* \"DateTime.sol\":1424:1462  month == 4 || month == 6 || month == 9 */\n      dup1\n      tag_66\n      jumpi\n      pop\n        /* \"DateTime.sol\":1461:1462  9 */\n      0x09\n        /* \"DateTime.sol\":1452:1457  month */\n      dup4\n        /* \"DateTime.sol\":1452:1462  month == 9 */\n      0xff\n      and\n      eq\n        /* \"DateTime.sol\":1424:1462  month == 4 || month == 6 || month == 9 */\n    tag_66:\n        /* \"DateTime.sol\":1424:1477  month == 4 || month == 6 || month == 9 || month == 11 */\n      dup1\n      tag_67\n      jumpi\n      pop\n        /* \"DateTime.sol\":1475:1477  11 */\n      0x0b\n        /* \"DateTime.sol\":1466:1471  month */\n      dup4\n        /* \"DateTime.sol\":1466:1477  month == 11 */\n      0xff\n      and\n      eq\n        /* \"DateTime.sol\":1424:1477  month == 4 || month == 6 || month == 9 || month == 11 */\n    tag_67:\n        /* \"DateTime.sol\":1420:1707  if (month == 4 || month == 6 || month == 9 || month == 11) {... */\n      iszero\n      tag_68\n      jumpi\n        /* \"DateTime.sol\":1512:1514  30 */\n      0x1e\n        /* \"DateTime.sol\":1505:1514  return 30 */\n      swap1\n      pop\n      jump(tag_56)\n        /* \"DateTime.sol\":1420:1707  if (month == 4 || month == 6 || month == 9 || month == 11) {... */\n    tag_68:\n        /* \"DateTime.sol\":1559:1575  isLeapYear(year) */\n      tag_70\n        /* \"DateTime.sol\":1570:1574  year */\n      dup3\n        /* \"DateTime.sol\":1559:1569  isLeapYear */\n      tag_40\n        /* \"DateTime.sol\":1559:1575  isLeapYear(year) */\n      jump\t// in\n    tag_70:\n        /* \"DateTime.sol\":1555:1707  if (isLeapYear(year)) {... */\n      iszero\n      tag_71\n      jumpi\n        /* \"DateTime.sol\":1610:1612  29 */\n      0x1d\n        /* \"DateTime.sol\":1603:1612  return 29 */\n      swap1\n      pop\n      jump(tag_56)\n        /* \"DateTime.sol\":1555:1707  if (isLeapYear(year)) {... */\n    tag_71:\n        /* \"DateTime.sol\":1686:1688  28 */\n      0x1c\n        /* \"DateTime.sol\":1679:1688  return 28 */\n      swap1\n      pop\n        /* \"DateTime.sol\":1146:1717  function getDaysInMonth(uint8 month, uint32 year) public pure returns (uint8) {... */\n    tag_56:\n      swap3\n      swap2\n      pop\n      pop\n      jump\t// out\n        /* \"DateTime.sol\":4549:4679  function getHour(uint timestamp) public pure returns (uint8) {... */\n    tag_22:\n        /* \"DateTime.sol\":4603:4608  uint8 */\n      0x00\n        /* \"DateTime.sol\":4665:4667  24 */\n      0x18\n        /* \"DateTime.sol\":4659:4661  60 */\n      0x3c\n        /* \"DateTime.sol\":4654:4656  60 */\n      dup1\n        /* \"DateTime.sol\":4642:4651  timestamp */\n      dup5\n        /* \"DateTime.sol\":4642:4656  timestamp / 60 */\n      tag_74\n      swap2\n      swap1\n      tag_75\n      jump\t// in\n    tag_74:\n        /* \"DateTime.sol\":4642:4661  timestamp / 60 / 60 */\n      tag_76\n      swap2\n      swap1\n      tag_75\n      jump\t// in\n    tag_76:\n        /* \"DateTime.sol\":4641:4667  (timestamp / 60 / 60) % 24 */\n      tag_77\n      swap2\n      swap1\n      tag_78\n      jump\t// in\n    tag_77:\n        /* \"DateTime.sol\":4628:4668  return uint8((timestamp / 60 / 60) % 24) */\n      swap1\n      pop\n        /* \"DateTime.sol\":4549:4679  function getHour(uint timestamp) public pure returns (uint8) {... */\n      swap2\n      swap1\n      pop\n      jump\t// out\n        /* \"DateTime.sol\":4414:4539  function getDay(uint timestamp) public pure returns (uint8) {... */\n    tag_26:\n        /* \"DateTime.sol\":4467:4472  uint8 */\n      0x00\n        /* \"DateTime.sol\":4499:4524  parseTimestamp(timestamp) */\n      tag_80\n        /* \"DateTime.sol\":4514:4523  timestamp */\n      dup3\n        /* \"DateTime.sol\":4499:4513  parseTimestamp */\n      tag_81\n        /* \"DateTime.sol\":4499:4524  parseTimestamp(timestamp) */\n      jump\t// in\n    tag_80:\n        /* \"DateTime.sol\":4499:4528  parseTimestamp(timestamp).day */\n      0x40\n      add\n      mload\n        /* \"DateTime.sol\":4492:4528  return parseTimestamp(timestamp).day */\n      swap1\n      pop\n        /* \"DateTime.sol\":4414:4539  function getDay(uint timestamp) public pure returns (uint8) {... */\n      swap2\n      swap1\n      pop\n      jump\t// out\n        /* \"DateTime.sol\":4826:4946  function getSecond(uint timestamp) public pure returns (uint8) {... */\n    tag_30:\n        /* \"DateTime.sol\":4882:4887  uint8 */\n      0x00\n        /* \"DateTime.sol\":4932:4934  60 */\n      0x3c\n        /* \"DateTime.sol\":4920:4929  timestamp */\n      dup3\n        /* \"DateTime.sol\":4920:4934  timestamp % 60 */\n      tag_83\n      swap2\n      swap1\n      tag_78\n      jump\t// in\n    tag_83:\n        /* \"DateTime.sol\":4907:4935  return uint8(timestamp % 60) */\n      swap1\n      pop\n        /* \"DateTime.sol\":4826:4946  function getSecond(uint timestamp) public pure returns (uint8) {... */\n      swap2\n      swap1\n      pop\n      jump\t// out\n        /* \"DateTime.sol\":3294:4265  function getYear(uint timestamp) public pure returns (uint32) {... */\n    tag_34:\n        /* \"DateTime.sol\":3348:3354  uint32 */\n      0x00\n        /* \"DateTime.sol\":3374:3398  uint secondsAccountedFor */\n      dup1\n        /* \"DateTime.sol\":3401:3402  0 */\n      0x00\n        /* \"DateTime.sol\":3374:3402  uint secondsAccountedFor = 0 */\n      swap1\n      pop\n        /* \"DateTime.sol\":3420:3431  uint32 year */\n      0x00\n        /* \"DateTime.sol\":3449:3466  uint numLeapYears */\n      dup1\n        /* \"DateTime.sol\":374:382  31536000 */\n      0x01e13380\n        /* \"DateTime.sol\":3537:3546  timestamp */\n      dup6\n        /* \"DateTime.sol\":3537:3564  timestamp / YEAR_IN_SECONDS */\n      tag_85\n      swap2\n      swap1\n      tag_75\n      jump\t// in\n    tag_85:\n        /* \"DateTime.sol\":569:573  1970 */\n      0x07b2\n        /* \"DateTime.sol\":3523:3564  ORIGIN_YEAR + timestamp / YEAR_IN_SECONDS */\n      0xffffffff\n      and\n      tag_86\n      swap2\n      swap1\n      tag_87\n      jump\t// in\n    tag_86:\n        /* \"DateTime.sol\":3509:3565  year = uint32(ORIGIN_YEAR + timestamp / YEAR_IN_SECONDS) */\n      swap2\n      pop\n        /* \"DateTime.sol\":3622:3650  leapYearsBefore(ORIGIN_YEAR) */\n      tag_88\n        /* \"DateTime.sol\":569:573  1970 */\n      0x07b2\n        /* \"DateTime.sol\":3622:3650  leapYearsBefore(ORIGIN_YEAR) */\n      0xffffffff\n      and\n        /* \"DateTime.sol\":3622:3637  leapYearsBefore */\n      tag_49\n        /* \"DateTime.sol\":3622:3650  leapYearsBefore(ORIGIN_YEAR) */\n      jump\t// in\n    tag_88:\n        /* \"DateTime.sol\":3598:3619  leapYearsBefore(year) */\n      tag_89\n        /* \"DateTime.sol\":3614:3618  year */\n      dup4\n        /* \"DateTime.sol\":3598:3619  leapYearsBefore(year) */\n      0xffffffff\n      and\n        /* \"DateTime.sol\":3598:3613  leapYearsBefore */\n      tag_49\n        /* \"DateTime.sol\":3598:3619  leapYearsBefore(year) */\n      jump\t// in\n    tag_89:\n        /* \"DateTime.sol\":3598:3650  leapYearsBefore(year) - leapYearsBefore(ORIGIN_YEAR) */\n      tag_90\n      swap2\n      swap1\n      tag_91\n      jump\t// in\n    tag_90:\n        /* \"DateTime.sol\":3583:3650  numLeapYears = leapYearsBefore(year) - leapYearsBefore(ORIGIN_YEAR) */\n      swap1\n      pop\n        /* \"DateTime.sol\":3715:3727  numLeapYears */\n      dup1\n        /* \"DateTime.sol\":429:437  31622400 */\n      0x01e28500\n        /* \"DateTime.sol\":3692:3727  LEAP_YEAR_IN_SECONDS * numLeapYears */\n      tag_92\n      swap2\n      swap1\n      tag_93\n      jump\t// in\n    tag_92:\n        /* \"DateTime.sol\":3669:3727  secondsAccountedFor += LEAP_YEAR_IN_SECONDS * numLeapYears */\n      dup4\n      tag_94\n      swap2\n      swap1\n      tag_87\n      jump\t// in\n    tag_94:\n      swap3\n      pop\n        /* \"DateTime.sol\":3808:3820  numLeapYears */\n      dup1\n        /* \"DateTime.sol\":569:573  1970 */\n      0x07b2\n        /* \"DateTime.sol\":3787:3791  year */\n      dup4\n        /* \"DateTime.sol\":3787:3805  year - ORIGIN_YEAR */\n      tag_95\n      swap2\n      swap1\n      tag_96\n      jump\t// in\n    tag_95:\n        /* \"DateTime.sol\":3787:3820  year - ORIGIN_YEAR - numLeapYears */\n      0xffffffff\n      and\n      tag_97\n      swap2\n      swap1\n      tag_91\n      jump\t// in\n    tag_97:\n        /* \"DateTime.sol\":374:382  31536000 */\n      0x01e13380\n        /* \"DateTime.sol\":3768:3821  YEAR_IN_SECONDS * (year - ORIGIN_YEAR - numLeapYears) */\n      tag_98\n      swap2\n      swap1\n      tag_93\n      jump\t// in\n    tag_98:\n        /* \"DateTime.sol\":3745:3821  secondsAccountedFor += YEAR_IN_SECONDS * (year - ORIGIN_YEAR - numLeapYears) */\n      dup4\n      tag_99\n      swap2\n      swap1\n      tag_87\n      jump\t// in\n    tag_99:\n      swap3\n      pop\n        /* \"DateTime.sol\":3840:4226  while (secondsAccountedFor > timestamp) {... */\n    tag_100:\n        /* \"DateTime.sol\":3869:3878  timestamp */\n      dup5\n        /* \"DateTime.sol\":3847:3866  secondsAccountedFor */\n      dup4\n        /* \"DateTime.sol\":3847:3878  secondsAccountedFor > timestamp */\n      gt\n        /* \"DateTime.sol\":3840:4226  while (secondsAccountedFor > timestamp) {... */\n      iszero\n      tag_101\n      jumpi\n        /* \"DateTime.sol\":3910:3938  isLeapYear(uint32(year - 1)) */\n      tag_102\n        /* \"DateTime.sol\":3935:3936  1 */\n      0x01\n        /* \"DateTime.sol\":3928:3932  year */\n      dup4\n        /* \"DateTime.sol\":3928:3936  year - 1 */\n      tag_103\n      swap2\n      swap1\n      tag_96\n      jump\t// in\n    tag_103:\n        /* \"DateTime.sol\":3910:3920  isLeapYear */\n      tag_40\n        /* \"DateTime.sol\":3910:3938  isLeapYear(uint32(year - 1)) */\n      jump\t// in\n    tag_102:\n        /* \"DateTime.sol\":3906:4173  if (isLeapYear(uint32(year - 1))) {... */\n      iszero\n      tag_104\n      jumpi\n        /* \"DateTime.sol\":429:437  31622400 */\n      0x01e28500\n        /* \"DateTime.sol\":3974:4017  secondsAccountedFor -= LEAP_YEAR_IN_SECONDS */\n      dup4\n      tag_105\n      swap2\n      swap1\n      tag_91\n      jump\t// in\n    tag_105:\n      swap3\n      pop\n        /* \"DateTime.sol\":3906:4173  if (isLeapYear(uint32(year - 1))) {... */\n      jump(tag_106)\n    tag_104:\n        /* \"DateTime.sol\":374:382  31536000 */\n      0x01e13380\n        /* \"DateTime.sol\":4108:4146  secondsAccountedFor -= YEAR_IN_SECONDS */\n      dup4\n      tag_107\n      swap2\n      swap1\n      tag_91\n      jump\t// in\n    tag_107:\n      swap3\n      pop\n        /* \"DateTime.sol\":3906:4173  if (isLeapYear(uint32(year - 1))) {... */\n    tag_106:\n        /* \"DateTime.sol\":4206:4207  1 */\n      0x01\n        /* \"DateTime.sol\":4198:4207  year -= 1 */\n      dup3\n      tag_108\n      swap2\n      swap1\n      tag_96\n      jump\t// in\n    tag_108:\n      swap2\n      pop\n        /* \"DateTime.sol\":3840:4226  while (secondsAccountedFor > timestamp) {... */\n      jump(tag_100)\n    tag_101:\n        /* \"DateTime.sol\":4250:4254  year */\n      dup2\n        /* \"DateTime.sol\":4243:4254  return year */\n      swap4\n      pop\n      pop\n      pop\n      pop\n        /* \"DateTime.sol\":3294:4265  function getYear(uint timestamp) public pure returns (uint32) {... */\n      swap2\n      swap1\n      pop\n      jump\t// out\n        /* \"DateTime.sol\":584:966  function isLeapYear(uint32 year) public pure returns (bool) {... */\n    tag_40:\n        /* \"DateTime.sol\":638:642  bool */\n      0x00\n        /* \"DateTime.sol\":678:679  0 */\n      dup1\n        /* \"DateTime.sol\":673:674  4 */\n      0x04\n        /* \"DateTime.sol\":666:670  year */\n      dup4\n        /* \"DateTime.sol\":666:674  year % 4 */\n      tag_110\n      swap2\n      swap1\n      tag_111\n      jump\t// in\n    tag_110:\n        /* \"DateTime.sol\":666:679  year % 4 != 0 */\n      0xffffffff\n      and\n      eq\n        /* \"DateTime.sol\":662:738  if (year % 4 != 0) {... */\n      tag_112\n      jumpi\n        /* \"DateTime.sol\":714:719  false */\n      0x00\n        /* \"DateTime.sol\":707:719  return false */\n      swap1\n      pop\n      jump(tag_109)\n        /* \"DateTime.sol\":662:738  if (year % 4 != 0) {... */\n    tag_112:\n        /* \"DateTime.sol\":773:774  0 */\n      0x00\n        /* \"DateTime.sol\":766:769  100 */\n      0x64\n        /* \"DateTime.sol\":759:763  year */\n      dup4\n        /* \"DateTime.sol\":759:769  year % 100 */\n      tag_113\n      swap2\n      swap1\n      tag_111\n      jump\t// in\n    tag_113:\n        /* \"DateTime.sol\":759:774  year % 100 != 0 */\n      0xffffffff\n      and\n      eq\n        /* \"DateTime.sol\":755:832  if (year % 100 != 0) {... */\n      tag_114\n      jumpi\n        /* \"DateTime.sol\":809:813  true */\n      0x01\n        /* \"DateTime.sol\":802:813  return true */\n      swap1\n      pop\n      jump(tag_109)\n        /* \"DateTime.sol\":755:832  if (year % 100 != 0) {... */\n    tag_114:\n        /* \"DateTime.sol\":867:868  0 */\n      0x00\n        /* \"DateTime.sol\":860:863  400 */\n      0x0190\n        /* \"DateTime.sol\":853:857  year */\n      dup4\n        /* \"DateTime.sol\":853:863  year % 400 */\n      tag_115\n      swap2\n      swap1\n      tag_111\n      jump\t// in\n    tag_115:\n        /* \"DateTime.sol\":853:868  year % 400 != 0 */\n      0xffffffff\n      and\n      eq\n        /* \"DateTime.sol\":849:927  if (year % 400 != 0) {... */\n      tag_116\n      jumpi\n        /* \"DateTime.sol\":903:908  false */\n      0x00\n        /* \"DateTime.sol\":896:908  return false */\n      swap1\n      pop\n      jump(tag_109)\n        /* \"DateTime.sol\":849:927  if (year % 400 != 0) {... */\n    tag_116:\n        /* \"DateTime.sol\":951:955  true */\n      0x01\n        /* \"DateTime.sol\":944:955  return true */\n      swap1\n      pop\n        /* \"DateTime.sol\":584:966  function isLeapYear(uint32 year) public pure returns (bool) {... */\n    tag_109:\n      swap2\n      swap1\n      pop\n      jump\t// out\n        /* \"DateTime.sol\":4275:4404  function getMonth(uint timestamp) public pure returns (uint8) {... */\n    tag_45:\n        /* \"DateTime.sol\":4330:4335  uint8 */\n      0x00\n        /* \"DateTime.sol\":4362:4387  parseTimestamp(timestamp) */\n      tag_118\n        /* \"DateTime.sol\":4377:4386  timestamp */\n      dup3\n        /* \"DateTime.sol\":4362:4376  parseTimestamp */\n      tag_81\n        /* \"DateTime.sol\":4362:4387  parseTimestamp(timestamp) */\n      jump\t// in\n    tag_118:\n        /* \"DateTime.sol\":4362:4393  parseTimestamp(timestamp).month */\n      0x20\n      add\n      mload\n        /* \"DateTime.sol\":4355:4393  return parseTimestamp(timestamp).month */\n      swap1\n      pop\n        /* \"DateTime.sol\":4275:4404  function getMonth(uint timestamp) public pure returns (uint8) {... */\n      swap2\n      swap1\n      pop\n      jump\t// out\n        /* \"DateTime.sol\":976:1136  function leapYearsBefore(uint year) public pure returns (uint) {... */\n    tag_49:\n        /* \"DateTime.sol\":1033:1037  uint */\n      0x00\n        /* \"DateTime.sol\":1065:1066  1 */\n      0x01\n        /* \"DateTime.sol\":1057:1066  year -= 1 */\n      dup3\n      tag_120\n      swap2\n      swap1\n      tag_91\n      jump\t// in\n    tag_120:\n      swap2\n      pop\n        /* \"DateTime.sol\":1122:1125  400 */\n      0x0190\n        /* \"DateTime.sol\":1115:1119  year */\n      dup3\n        /* \"DateTime.sol\":1115:1125  year / 400 */\n      tag_121\n      swap2\n      swap1\n      tag_75\n      jump\t// in\n    tag_121:\n        /* \"DateTime.sol\":1109:1112  100 */\n      0x64\n        /* \"DateTime.sol\":1102:1106  year */\n      dup4\n        /* \"DateTime.sol\":1102:1112  year / 100 */\n      tag_122\n      swap2\n      swap1\n      tag_75\n      jump\t// in\n    tag_122:\n        /* \"DateTime.sol\":1098:1099  4 */\n      0x04\n        /* \"DateTime.sol\":1091:1095  year */\n      dup5\n        /* \"DateTime.sol\":1091:1099  year / 4 */\n      tag_123\n      swap2\n      swap1\n      tag_75\n      jump\t// in\n    tag_123:\n        /* \"DateTime.sol\":1091:1112  year / 4 - year / 100 */\n      tag_124\n      swap2\n      swap1\n      tag_91\n      jump\t// in\n    tag_124:\n        /* \"DateTime.sol\":1091:1125  year / 4 - year / 100 + year / 400 */\n      tag_125\n      swap2\n      swap1\n      tag_87\n      jump\t// in\n    tag_125:\n        /* \"DateTime.sol\":1084:1125  return year / 4 - year / 100 + year / 400 */\n      swap1\n      pop\n        /* \"DateTime.sol\":976:1136  function leapYearsBefore(uint year) public pure returns (uint) {... */\n      swap2\n      swap1\n      pop\n      jump\t// out\n        /* \"DateTime.sol\":4689:4816  function getMinute(uint timestamp) public pure returns (uint8) {... */\n    tag_54:\n        /* \"DateTime.sol\":4745:4750  uint8 */\n      0x00\n        /* \"DateTime.sol\":4802:4804  60 */\n      0x3c\n        /* \"DateTime.sol\":4796:4798  60 */\n      dup1\n        /* \"DateTime.sol\":4784:4793  timestamp */\n      dup4\n        /* \"DateTime.sol\":4784:4798  timestamp / 60 */\n      tag_127\n      swap2\n      swap1\n      tag_75\n      jump\t// in\n    tag_127:\n        /* \"DateTime.sol\":4783:4804  (timestamp / 60) % 60 */\n      tag_128\n      swap2\n      swap1\n      tag_78\n      jump\t// in\n    tag_128:\n        /* \"DateTime.sol\":4770:4805  return uint8((timestamp / 60) % 60) */\n      swap1\n      pop\n        /* \"DateTime.sol\":4689:4816  function getMinute(uint timestamp) public pure returns (uint8) {... */\n      swap2\n      swap1\n      pop\n      jump\t// out\n        /* \"DateTime.sol\":1727:3284  function parseTimestamp(uint timestamp) internal pure returns (_DateTime memory dt) {... */\n    tag_81:\n        /* \"DateTime.sol\":1790:1809  _DateTime memory dt */\n      tag_129\n      tag_130\n      jump\t// in\n    tag_129:\n        /* \"DateTime.sol\":1829:1853  uint secondsAccountedFor */\n      0x00\n        /* \"DateTime.sol\":1875:1883  uint buf */\n      dup1\n        /* \"DateTime.sol\":1901:1908  uint8 i */\n      dup1\n        /* \"DateTime.sol\":1961:1979  getYear(timestamp) */\n      tag_132\n        /* \"DateTime.sol\":1969:1978  timestamp */\n      dup6\n        /* \"DateTime.sol\":1961:1968  getYear */\n      tag_34\n        /* \"DateTime.sol\":1961:1979  getYear(timestamp) */\n      jump\t// in\n    tag_132:\n        /* \"DateTime.sol\":1951:1953  dt */\n      dup5\n        /* \"DateTime.sol\":1951:1958  dt.year */\n      0x00\n      add\n        /* \"DateTime.sol\":1951:1979  dt.year = getYear(timestamp) */\n      swap1\n      0xffffffff\n      and\n      swap1\n      dup2\n      0xffffffff\n      and\n      dup2\n      mstore\n      pop\n      pop\n        /* \"DateTime.sol\":2030:2058  leapYearsBefore(ORIGIN_YEAR) */\n      tag_133\n        /* \"DateTime.sol\":569:573  1970 */\n      0x07b2\n        /* \"DateTime.sol\":2030:2058  leapYearsBefore(ORIGIN_YEAR) */\n      0xffffffff\n      and\n        /* \"DateTime.sol\":2030:2045  leapYearsBefore */\n      tag_49\n        /* \"DateTime.sol\":2030:2058  leapYearsBefore(ORIGIN_YEAR) */\n      jump\t// in\n    tag_133:\n        /* \"DateTime.sol\":2003:2027  leapYearsBefore(dt.year) */\n      tag_134\n        /* \"DateTime.sol\":2019:2021  dt */\n      dup6\n        /* \"DateTime.sol\":2019:2026  dt.year */\n      0x00\n      add\n      mload\n        /* \"DateTime.sol\":2003:2027  leapYearsBefore(dt.year) */\n      0xffffffff\n      and\n        /* \"DateTime.sol\":2003:2018  leapYearsBefore */\n      tag_49\n        /* \"DateTime.sol\":2003:2027  leapYearsBefore(dt.year) */\n      jump\t// in\n    tag_134:\n        /* \"DateTime.sol\":2003:2058  leapYearsBefore(dt.year) - leapYearsBefore(ORIGIN_YEAR) */\n      tag_135\n      swap2\n      swap1\n      tag_91\n      jump\t// in\n    tag_135:\n        /* \"DateTime.sol\":1997:2058  buf = leapYearsBefore(dt.year) - leapYearsBefore(ORIGIN_YEAR) */\n      swap2\n      pop\n        /* \"DateTime.sol\":2123:2126  buf */\n      dup2\n        /* \"DateTime.sol\":429:437  31622400 */\n      0x01e28500\n        /* \"DateTime.sol\":2100:2126  LEAP_YEAR_IN_SECONDS * buf */\n      tag_136\n      swap2\n      swap1\n      tag_93\n      jump\t// in\n    tag_136:\n        /* \"DateTime.sol\":2077:2126  secondsAccountedFor += LEAP_YEAR_IN_SECONDS * buf */\n      dup4\n      tag_137\n      swap2\n      swap1\n      tag_87\n      jump\t// in\n    tag_137:\n      swap3\n      pop\n        /* \"DateTime.sol\":2210:2213  buf */\n      dup2\n        /* \"DateTime.sol\":569:573  1970 */\n      0x07b2\n        /* \"DateTime.sol\":2186:2188  dt */\n      dup6\n        /* \"DateTime.sol\":2186:2193  dt.year */\n      0x00\n      add\n      mload\n        /* \"DateTime.sol\":2186:2207  dt.year - ORIGIN_YEAR */\n      tag_138\n      swap2\n      swap1\n      tag_96\n      jump\t// in\n    tag_138:\n        /* \"DateTime.sol\":2186:2213  dt.year - ORIGIN_YEAR - buf */\n      0xffffffff\n      and\n      tag_139\n      swap2\n      swap1\n      tag_91\n      jump\t// in\n    tag_139:\n        /* \"DateTime.sol\":374:382  31536000 */\n      0x01e13380\n        /* \"DateTime.sol\":2167:2214  YEAR_IN_SECONDS * (dt.year - ORIGIN_YEAR - buf) */\n      tag_140\n      swap2\n      swap1\n      tag_93\n      jump\t// in\n    tag_140:\n        /* \"DateTime.sol\":2144:2214  secondsAccountedFor += YEAR_IN_SECONDS * (dt.year - ORIGIN_YEAR - buf) */\n      dup4\n      tag_141\n      swap2\n      swap1\n      tag_87\n      jump\t// in\n    tag_141:\n      swap3\n      pop\n        /* \"DateTime.sol\":2258:2277  uint secondsInMonth */\n      0x00\n        /* \"DateTime.sol\":2304:2305  1 */\n      0x01\n        /* \"DateTime.sol\":2300:2305  i = 1 */\n      swap2\n      pop\n        /* \"DateTime.sol\":2295:2680  for (i = 1; i <= 12; i++) {... */\n    tag_142:\n        /* \"DateTime.sol\":2312:2314  12 */\n      0x0c\n        /* \"DateTime.sol\":2307:2308  i */\n      dup3\n        /* \"DateTime.sol\":2307:2314  i <= 12 */\n      0xff\n      and\n      gt\n        /* \"DateTime.sol\":2295:2680  for (i = 1; i <= 12; i++) {... */\n      tag_143\n      jumpi\n        /* \"DateTime.sol\":2381:2407  getDaysInMonth(i, dt.year) */\n      tag_145\n        /* \"DateTime.sol\":2396:2397  i */\n      dup3\n        /* \"DateTime.sol\":2399:2401  dt */\n      dup7\n        /* \"DateTime.sol\":2399:2406  dt.year */\n      0x00\n      add\n      mload\n        /* \"DateTime.sol\":2381:2395  getDaysInMonth */\n      tag_16\n        /* \"DateTime.sol\":2381:2407  getDaysInMonth(i, dt.year) */\n      jump\t// in\n    tag_145:\n        /* \"DateTime.sol\":2364:2407  DAY_IN_SECONDS * getDaysInMonth(i, dt.year) */\n      0xff\n      and\n        /* \"DateTime.sol\":327:332  86400 */\n      0x015180\n        /* \"DateTime.sol\":2364:2407  DAY_IN_SECONDS * getDaysInMonth(i, dt.year) */\n      tag_146\n      swap2\n      swap1\n      tag_93\n      jump\t// in\n    tag_146:\n        /* \"DateTime.sol\":2347:2407  secondsInMonth = DAY_IN_SECONDS * getDaysInMonth(i, dt.year) */\n      swap1\n      pop\n        /* \"DateTime.sol\":2476:2485  timestamp */\n      dup6\n        /* \"DateTime.sol\":2454:2473  secondsAccountedFor */\n      dup5\n        /* \"DateTime.sol\":2437:2451  secondsInMonth */\n      dup3\n        /* \"DateTime.sol\":2437:2473  secondsInMonth + secondsAccountedFor */\n      tag_147\n      swap2\n      swap1\n      tag_87\n      jump\t// in\n    tag_147:\n        /* \"DateTime.sol\":2437:2485  secondsInMonth + secondsAccountedFor > timestamp */\n      gt\n        /* \"DateTime.sol\":2433:2599  if (secondsInMonth + secondsAccountedFor > timestamp) {... */\n      iszero\n      tag_148\n      jumpi\n        /* \"DateTime.sol\":2532:2533  i */\n      dup2\n        /* \"DateTime.sol\":2521:2523  dt */\n      dup6\n        /* \"DateTime.sol\":2521:2529  dt.month */\n      0x20\n      add\n        /* \"DateTime.sol\":2521:2533  dt.month = i */\n      swap1\n      0xff\n      and\n      swap1\n      dup2\n      0xff\n      and\n      dup2\n      mstore\n      pop\n      pop\n        /* \"DateTime.sol\":2567:2572  break */\n      jump(tag_143)\n        /* \"DateTime.sol\":2433:2599  if (secondsInMonth + secondsAccountedFor > timestamp) {... */\n    tag_148:\n        /* \"DateTime.sol\":2647:2661  secondsInMonth */\n      dup1\n        /* \"DateTime.sol\":2624:2661  secondsAccountedFor += secondsInMonth */\n      dup5\n      tag_149\n      swap2\n      swap1\n      tag_87\n      jump\t// in\n    tag_149:\n      swap4\n      pop\n        /* \"DateTime.sol\":2316:2319  i++ */\n      dup2\n      dup1\n      tag_150\n      swap1\n      tag_151\n      jump\t// in\n    tag_150:\n      swap3\n      pop\n      pop\n        /* \"DateTime.sol\":2295:2680  for (i = 1; i <= 12; i++) {... */\n      jump(tag_142)\n    tag_143:\n        /* \"DateTime.sol\":2730:2731  1 */\n      0x01\n        /* \"DateTime.sol\":2726:2731  i = 1 */\n      swap2\n      pop\n        /* \"DateTime.sol\":2721:3049  for (i = 1; i <= getDaysInMonth(dt.month, dt.year); i++) {... */\n    tag_152:\n        /* \"DateTime.sol\":2738:2771  getDaysInMonth(dt.month, dt.year) */\n      tag_155\n        /* \"DateTime.sol\":2753:2755  dt */\n      dup6\n        /* \"DateTime.sol\":2753:2761  dt.month */\n      0x20\n      add\n      mload\n        /* \"DateTime.sol\":2763:2765  dt */\n      dup7\n        /* \"DateTime.sol\":2763:2770  dt.year */\n      0x00\n      add\n      mload\n        /* \"DateTime.sol\":2738:2752  getDaysInMonth */\n      tag_16\n        /* \"DateTime.sol\":2738:2771  getDaysInMonth(dt.month, dt.year) */\n      jump\t// in\n    tag_155:\n        /* \"DateTime.sol\":2733:2771  i <= getDaysInMonth(dt.month, dt.year) */\n      0xff\n      and\n        /* \"DateTime.sol\":2733:2734  i */\n      dup3\n        /* \"DateTime.sol\":2733:2771  i <= getDaysInMonth(dt.month, dt.year) */\n      0xff\n      and\n      gt\n        /* \"DateTime.sol\":2721:3049  for (i = 1; i <= getDaysInMonth(dt.month, dt.year); i++) {... */\n      tag_153\n      jumpi\n        /* \"DateTime.sol\":2847:2856  timestamp */\n      dup6\n        /* \"DateTime.sol\":2825:2844  secondsAccountedFor */\n      dup5\n        /* \"DateTime.sol\":327:332  86400 */\n      0x015180\n        /* \"DateTime.sol\":2808:2844  DAY_IN_SECONDS + secondsAccountedFor */\n      tag_156\n      swap2\n      swap1\n      tag_87\n      jump\t// in\n    tag_156:\n        /* \"DateTime.sol\":2808:2856  DAY_IN_SECONDS + secondsAccountedFor > timestamp */\n      gt\n        /* \"DateTime.sol\":2804:2968  if (DAY_IN_SECONDS + secondsAccountedFor > timestamp) {... */\n      iszero\n      tag_157\n      jumpi\n        /* \"DateTime.sol\":2901:2902  i */\n      dup2\n        /* \"DateTime.sol\":2892:2894  dt */\n      dup6\n        /* \"DateTime.sol\":2892:2898  dt.day */\n      0x40\n      add\n        /* \"DateTime.sol\":2892:2902  dt.day = i */\n      swap1\n      0xff\n      and\n      swap1\n      dup2\n      0xff\n      and\n      dup2\n      mstore\n      pop\n      pop\n        /* \"DateTime.sol\":2936:2941  break */\n      jump(tag_153)\n        /* \"DateTime.sol\":2804:2968  if (DAY_IN_SECONDS + secondsAccountedFor > timestamp) {... */\n    tag_157:\n        /* \"DateTime.sol\":327:332  86400 */\n      0x015180\n        /* \"DateTime.sol\":2993:3030  secondsAccountedFor += DAY_IN_SECONDS */\n      dup5\n      tag_158\n      swap2\n      swap1\n      tag_87\n      jump\t// in\n    tag_158:\n      swap4\n      pop\n        /* \"DateTime.sol\":2773:2776  i++ */\n      dup2\n      dup1\n      tag_159\n      swap1\n      tag_151\n      jump\t// in\n    tag_159:\n      swap3\n      pop\n      pop\n        /* \"DateTime.sol\":2721:3049  for (i = 1; i <= getDaysInMonth(dt.month, dt.year); i++) {... */\n      jump(tag_152)\n    tag_153:\n        /* \"DateTime.sol\":3101:3119  getHour(timestamp) */\n      tag_160\n        /* \"DateTime.sol\":3109:3118  timestamp */\n      dup7\n        /* \"DateTime.sol\":3101:3108  getHour */\n      tag_22\n        /* \"DateTime.sol\":3101:3119  getHour(timestamp) */\n      jump\t// in\n    tag_160:\n        /* \"DateTime.sol\":3091:3093  dt */\n      dup6\n        /* \"DateTime.sol\":3091:3098  dt.hour */\n      0x60\n      add\n        /* \"DateTime.sol\":3091:3119  dt.hour = getHour(timestamp) */\n      swap1\n      0xff\n      and\n      swap1\n      dup2\n      0xff\n      and\n      dup2\n      mstore\n      pop\n      pop\n        /* \"DateTime.sol\":3176:3196  getMinute(timestamp) */\n      tag_161\n        /* \"DateTime.sol\":3186:3195  timestamp */\n      dup7\n        /* \"DateTime.sol\":3176:3185  getMinute */\n      tag_54\n        /* \"DateTime.sol\":3176:3196  getMinute(timestamp) */\n      jump\t// in\n    tag_161:\n        /* \"DateTime.sol\":3164:3166  dt */\n      dup6\n        /* \"DateTime.sol\":3164:3173  dt.minute */\n      0x80\n      add\n        /* \"DateTime.sol\":3164:3196  dt.minute = getMinute(timestamp) */\n      swap1\n      0xff\n      and\n      swap1\n      dup2\n      0xff\n      and\n      dup2\n      mstore\n      pop\n      pop\n        /* \"DateTime.sol\":3253:3273  getSecond(timestamp) */\n      tag_162\n        /* \"DateTime.sol\":3263:3272  timestamp */\n      dup7\n        /* \"DateTime.sol\":3253:3262  getSecond */\n      tag_30\n        /* \"DateTime.sol\":3253:3273  getSecond(timestamp) */\n      jump\t// in\n    tag_162:\n        /* \"DateTime.sol\":3241:3243  dt */\n      dup6\n        /* \"DateTime.sol\":3241:3250  dt.second */\n      0xa0\n      add\n        /* \"DateTime.sol\":3241:3273  dt.second = getSecond(timestamp) */\n      swap1\n      0xff\n      and\n      swap1\n      dup2\n      0xff\n      and\n      dup2\n      mstore\n      pop\n      pop\n        /* \"DateTime.sol\":1811:3284  {... */\n      pop\n      pop\n      pop\n      pop\n        /* \"DateTime.sol\":1727:3284  function parseTimestamp(uint timestamp) internal pure returns (_DateTime memory dt) {... */\n      swap2\n      swap1\n      pop\n      jump\t// out\n    tag_130:\n      mload(0x40)\n      dup1\n      0xc0\n      add\n      0x40\n      mstore\n      dup1\n      and(0xffffffff, 0x00)\n      dup2\n      mstore\n      0x20\n      add\n      and(0xff, 0x00)\n      dup2\n      mstore\n      0x20\n      add\n      and(0xff, 0x00)\n      dup2\n      mstore\n      0x20\n      add\n      and(0xff, 0x00)\n      dup2\n      mstore\n      0x20\n      add\n      and(0xff, 0x00)\n      dup2\n      mstore\n      0x20\n      add\n      and(0xff, 0x00)\n      dup2\n      mstore\n      pop\n      swap1\n      jump\t// out\n        /* \"#utility.yul\":88:205   */\n    tag_164:\n        /* \"#utility.yul\":197:198   */\n      0x00\n        /* \"#utility.yul\":194:195   */\n      dup1\n        /* \"#utility.yul\":187:199   */\n      revert\n        /* \"#utility.yul\":334:420   */\n    tag_166:\n        /* \"#utility.yul\":369:376   */\n      0x00\n        /* \"#utility.yul\":409:413   */\n      0xff\n        /* \"#utility.yul\":402:407   */\n      dup3\n        /* \"#utility.yul\":398:414   */\n      and\n        /* \"#utility.yul\":387:414   */\n      swap1\n      pop\n        /* \"#utility.yul\":334:420   */\n      swap2\n      swap1\n      pop\n      jump\t// out\n        /* \"#utility.yul\":426:544   */\n    tag_167:\n        /* \"#utility.yul\":497:519   */\n      tag_188\n        /* \"#utility.yul\":513:518   */\n      dup2\n        /* \"#utility.yul\":497:519   */\n      tag_166\n      jump\t// in\n    tag_188:\n        /* \"#utility.yul\":490:495   */\n      dup2\n        /* \"#utility.yul\":487:520   */\n      eq\n        /* \"#utility.yul\":477:538   */\n      tag_189\n      jumpi\n        /* \"#utility.yul\":534:535   */\n      0x00\n        /* \"#utility.yul\":531:532   */\n      dup1\n        /* \"#utility.yul\":524:536   */\n      revert\n        /* \"#utility.yul\":477:538   */\n    tag_189:\n        /* \"#utility.yul\":426:544   */\n      pop\n      jump\t// out\n        /* \"#utility.yul\":550:685   */\n    tag_168:\n        /* \"#utility.yul\":594:599   */\n      0x00\n        /* \"#utility.yul\":632:638   */\n      dup2\n        /* \"#utility.yul\":619:639   */\n      calldataload\n        /* \"#utility.yul\":610:639   */\n      swap1\n      pop\n        /* \"#utility.yul\":648:679   */\n      tag_191\n        /* \"#utility.yul\":673:678   */\n      dup2\n        /* \"#utility.yul\":648:679   */\n      tag_167\n      jump\t// in\n    tag_191:\n        /* \"#utility.yul\":550:685   */\n      swap3\n      swap2\n      pop\n      pop\n      jump\t// out\n        /* \"#utility.yul\":691:784   */\n    tag_169:\n        /* \"#utility.yul\":727:734   */\n      0x00\n        /* \"#utility.yul\":767:777   */\n      0xffffffff\n        /* \"#utility.yul\":760:765   */\n      dup3\n        /* \"#utility.yul\":756:778   */\n      and\n        /* \"#utility.yul\":745:778   */\n      swap1\n      pop\n        /* \"#utility.yul\":691:784   */\n      swap2\n      swap1\n      pop\n      jump\t// out\n        /* \"#utility.yul\":790:910   */\n    tag_170:\n        /* \"#utility.yul\":862:885   */\n      tag_194\n        /* \"#utility.yul\":879:884   */\n      dup2\n        /* \"#utility.yul\":862:885   */\n      tag_169\n      jump\t// in\n    tag_194:\n        /* \"#utility.yul\":855:860   */\n      dup2\n        /* \"#utility.yul\":852:886   */\n      eq\n        /* \"#utility.yul\":842:904   */\n      tag_195\n      jumpi\n        /* \"#utility.yul\":900:901   */\n      0x00\n        /* \"#utility.yul\":897:898   */\n      dup1\n        /* \"#utility.yul\":890:902   */\n      revert\n        /* \"#utility.yul\":842:904   */\n    tag_195:\n        /* \"#utility.yul\":790:910   */\n      pop\n      jump\t// out\n        /* \"#utility.yul\":916:1053   */\n    tag_171:\n        /* \"#utility.yul\":961:966   */\n      0x00\n        /* \"#utility.yul\":999:1005   */\n      dup2\n        /* \"#utility.yul\":986:1006   */\n      calldataload\n        /* \"#utility.yul\":977:1006   */\n      swap1\n      pop\n        /* \"#utility.yul\":1015:1047   */\n      tag_197\n        /* \"#utility.yul\":1041:1046   */\n      dup2\n        /* \"#utility.yul\":1015:1047   */\n      tag_170\n      jump\t// in\n    tag_197:\n        /* \"#utility.yul\":916:1053   */\n      swap3\n      swap2\n      pop\n      pop\n      jump\t// out\n        /* \"#utility.yul\":1059:1527   */\n    tag_15:\n        /* \"#utility.yul\":1124:1130   */\n      0x00\n        /* \"#utility.yul\":1132:1138   */\n      dup1\n        /* \"#utility.yul\":1181:1183   */\n      0x40\n        /* \"#utility.yul\":1169:1178   */\n      dup4\n        /* \"#utility.yul\":1160:1167   */\n      dup6\n        /* \"#utility.yul\":1156:1179   */\n      sub\n        /* \"#utility.yul\":1152:1184   */\n      slt\n        /* \"#utility.yul\":1149:1268   */\n      iszero\n      tag_199\n      jumpi\n        /* \"#utility.yul\":1187:1266   */\n      tag_200\n      tag_164\n      jump\t// in\n    tag_200:\n        /* \"#utility.yul\":1149:1268   */\n    tag_199:\n        /* \"#utility.yul\":1307:1308   */\n      0x00\n        /* \"#utility.yul\":1332:1383   */\n      tag_201\n        /* \"#utility.yul\":1375:1382   */\n      dup6\n        /* \"#utility.yul\":1366:1372   */\n      dup3\n        /* \"#utility.yul\":1355:1364   */\n      dup7\n        /* \"#utility.yul\":1351:1373   */\n      add\n        /* \"#utility.yul\":1332:1383   */\n      tag_168\n      jump\t// in\n    tag_201:\n        /* \"#utility.yul\":1322:1383   */\n      swap3\n      pop\n        /* \"#utility.yul\":1278:1393   */\n      pop\n        /* \"#utility.yul\":1432:1434   */\n      0x20\n        /* \"#utility.yul\":1458:1510   */\n      tag_202\n        /* \"#utility.yul\":1502:1509   */\n      dup6\n        /* \"#utility.yul\":1493:1499   */\n      dup3\n        /* \"#utility.yul\":1482:1491   */\n      dup7\n        /* \"#utility.yul\":1478:1500   */\n      add\n        /* \"#utility.yul\":1458:1510   */\n      tag_171\n      jump\t// in\n    tag_202:\n        /* \"#utility.yul\":1448:1510   */\n      swap2\n      pop\n        /* \"#utility.yul\":1403:1520   */\n      pop\n        /* \"#utility.yul\":1059:1527   */\n      swap3\n      pop\n      swap3\n      swap1\n      pop\n      jump\t// out\n        /* \"#utility.yul\":1533:1645   */\n    tag_172:\n        /* \"#utility.yul\":1616:1638   */\n      tag_204\n        /* \"#utility.yul\":1632:1637   */\n      dup2\n        /* \"#utility.yul\":1616:1638   */\n      tag_166\n      jump\t// in\n    tag_204:\n        /* \"#utility.yul\":1611:1614   */\n      dup3\n        /* \"#utility.yul\":1604:1639   */\n      mstore\n        /* \"#utility.yul\":1533:1645   */\n      pop\n      pop\n      jump\t// out\n        /* \"#utility.yul\":1651:1865   */\n    tag_18:\n        /* \"#utility.yul\":1740:1744   */\n      0x00\n        /* \"#utility.yul\":1778:1780   */\n      0x20\n        /* \"#utility.yul\":1767:1776   */\n      dup3\n        /* \"#utility.yul\":1763:1781   */\n      add\n        /* \"#utility.yul\":1755:1781   */\n      swap1\n      pop\n        /* \"#utility.yul\":1791:1858   */\n      tag_206\n        /* \"#utility.yul\":1855:1856   */\n      0x00\n        /* \"#utility.yul\":1844:1853   */\n      dup4\n        /* \"#utility.yul\":1840:1857   */\n      add\n        /* \"#utility.yul\":1831:1837   */\n      dup5\n        /* \"#utility.yul\":1791:1858   */\n      tag_172\n      jump\t// in\n    tag_206:\n        /* \"#utility.yul\":1651:1865   */\n      swap3\n      swap2\n      pop\n      pop\n      jump\t// out\n        /* \"#utility.yul\":1871:1948   */\n    tag_173:\n        /* \"#utility.yul\":1908:1915   */\n      0x00\n        /* \"#utility.yul\":1937:1942   */\n      dup2\n        /* \"#utility.yul\":1926:1942   */\n      swap1\n      pop\n        /* \"#utility.yul\":1871:1948   */\n      swap2\n      swap1\n      pop\n      jump\t// out\n        /* \"#utility.yul\":1954:2076   */\n    tag_174:\n        /* \"#utility.yul\":2027:2051   */\n      tag_209\n        /* \"#utility.yul\":2045:2050   */\n      dup2\n        /* \"#utility.yul\":2027:2051   */\n      tag_173\n      jump\t// in\n    tag_209:\n        /* \"#utility.yul\":2020:2025   */\n      dup2\n        /* \"#utility.yul\":2017:2052   */\n      eq\n        /* \"#utility.yul\":2007:2070   */\n      tag_210\n      jumpi\n        /* \"#utility.yul\":2066:2067   */\n      0x00\n        /* \"#utility.yul\":2063:2064   */\n      dup1\n        /* \"#utility.yul\":2056:2068   */\n      revert\n        /* \"#utility.yul\":2007:2070   */\n    tag_210:\n        /* \"#utility.yul\":1954:2076   */\n      pop\n      jump\t// out\n        /* \"#utility.yul\":2082:2221   */\n    tag_175:\n        /* \"#utility.yul\":2128:2133   */\n      0x00\n        /* \"#utility.yul\":2166:2172   */\n      dup2\n        /* \"#utility.yul\":2153:2173   */\n      calldataload\n        /* \"#utility.yul\":2144:2173   */\n      swap1\n      pop\n        /* \"#utility.yul\":2182:2215   */\n      tag_212\n        /* \"#utility.yul\":2209:2214   */\n      dup2\n        /* \"#utility.yul\":2182:2215   */\n      tag_174\n      jump\t// in\n    tag_212:\n        /* \"#utility.yul\":2082:2221   */\n      swap3\n      swap2\n      pop\n      pop\n      jump\t// out\n        /* \"#utility.yul\":2227:2556   */\n    tag_21:\n        /* \"#utility.yul\":2286:2292   */\n      0x00\n        /* \"#utility.yul\":2335:2337   */\n      0x20\n        /* \"#utility.yul\":2323:2332   */\n      dup3\n        /* \"#utility.yul\":2314:2321   */\n      dup5\n        /* \"#utility.yul\":2310:2333   */\n      sub\n        /* \"#utility.yul\":2306:2338   */\n      slt\n        /* \"#utility.yul\":2303:2422   */\n      iszero\n      tag_214\n      jumpi\n        /* \"#utility.yul\":2341:2420   */\n      tag_215\n      tag_164\n      jump\t// in\n    tag_215:\n        /* \"#utility.yul\":2303:2422   */\n    tag_214:\n        /* \"#utility.yul\":2461:2462   */\n      0x00\n        /* \"#utility.yul\":2486:2539   */\n      tag_216\n        /* \"#utility.yul\":2531:2538   */\n      dup5\n        /* \"#utility.yul\":2522:2528   */\n      dup3\n        /* \"#utility.yul\":2511:2520   */\n      dup6\n        /* \"#utility.yul\":2507:2529   */\n      add\n        /* \"#utility.yul\":2486:2539   */\n      tag_175\n      jump\t// in\n    tag_216:\n        /* \"#utility.yul\":2476:2539   */\n      swap2\n      pop\n        /* \"#utility.yul\":2432:2549   */\n      pop\n        /* \"#utility.yul\":2227:2556   */\n      swap3\n      swap2\n      pop\n      pop\n      jump\t// out\n        /* \"#utility.yul\":2562:2677   */\n    tag_176:\n        /* \"#utility.yul\":2647:2670   */\n      tag_218\n        /* \"#utility.yul\":2664:2669   */\n      dup2\n        /* \"#utility.yul\":2647:2670   */\n      tag_169\n      jump\t// in\n    tag_218:\n        /* \"#utility.yul\":2642:2645   */\n      dup3\n        /* \"#utility.yul\":2635:2671   */\n      mstore\n        /* \"#utility.yul\":2562:2677   */\n      pop\n      pop\n      jump\t// out\n        /* \"#utility.yul\":2683:2901   */\n    tag_36:\n        /* \"#utility.yul\":2774:2778   */\n      0x00\n        /* \"#utility.yul\":2812:2814   */\n      0x20\n        /* \"#utility.yul\":2801:2810   */\n      dup3\n        /* \"#utility.yul\":2797:2815   */\n      add\n        /* \"#utility.yul\":2789:2815   */\n      swap1\n      pop\n        /* \"#utility.yul\":2825:2894   */\n      tag_220\n        /* \"#utility.yul\":2891:2892   */\n      0x00\n        /* \"#utility.yul\":2880:2889   */\n      dup4\n        /* \"#utility.yul\":2876:2893   */\n      add\n        /* \"#utility.yul\":2867:2873   */\n      dup5\n        /* \"#utility.yul\":2825:2894   */\n      tag_176\n      jump\t// in\n    tag_220:\n        /* \"#utility.yul\":2683:2901   */\n      swap3\n      swap2\n      pop\n      pop\n      jump\t// out\n        /* \"#utility.yul\":2907:3234   */\n    tag_39:\n        /* \"#utility.yul\":2965:2971   */\n      0x00\n        /* \"#utility.yul\":3014:3016   */\n      0x20\n        /* \"#utility.yul\":3002:3011   */\n      dup3\n        /* \"#utility.yul\":2993:3000   */\n      dup5\n        /* \"#utility.yul\":2989:3012   */\n      sub\n        /* \"#utility.yul\":2985:3017   */\n      slt\n        /* \"#utility.yul\":2982:3101   */\n      iszero\n      tag_222\n      jumpi\n        /* \"#utility.yul\":3020:3099   */\n      tag_223\n      tag_164\n      jump\t// in\n    tag_223:\n        /* \"#utility.yul\":2982:3101   */\n    tag_222:\n        /* \"#utility.yul\":3140:3141   */\n      0x00\n        /* \"#utility.yul\":3165:3217   */\n      tag_224\n        /* \"#utility.yul\":3209:3216   */\n      dup5\n        /* \"#utility.yul\":3200:3206   */\n      dup3\n        /* \"#utility.yul\":3189:3198   */\n      dup6\n        /* \"#utility.yul\":3185:3207   */\n      add\n        /* \"#utility.yul\":3165:3217   */\n      tag_171\n      jump\t// in\n    tag_224:\n        /* \"#utility.yul\":3155:3217   */\n      swap2\n      pop\n        /* \"#utility.yul\":3111:3227   */\n      pop\n        /* \"#utility.yul\":2907:3234   */\n      swap3\n      swap2\n      pop\n      pop\n      jump\t// out\n        /* \"#utility.yul\":3240:3330   */\n    tag_177:\n        /* \"#utility.yul\":3274:3281   */\n      0x00\n        /* \"#utility.yul\":3317:3322   */\n      dup2\n        /* \"#utility.yul\":3310:3323   */\n      iszero\n        /* \"#utility.yul\":3303:3324   */\n      iszero\n        /* \"#utility.yul\":3292:3324   */\n      swap1\n      pop\n        /* \"#utility.yul\":3240:3330   */\n      swap2\n      swap1\n      pop\n      jump\t// out\n        /* \"#utility.yul\":3336:3445   */\n    tag_178:\n        /* \"#utility.yul\":3417:3438   */\n      tag_227\n        /* \"#utility.yul\":3432:3437   */\n      dup2\n        /* \"#utility.yul\":3417:3438   */\n      tag_177\n      jump\t// in\n    tag_227:\n        /* \"#utility.yul\":3412:3415   */\n      dup3\n        /* \"#utility.yul\":3405:3439   */\n      mstore\n        /* \"#utility.yul\":3336:3445   */\n      pop\n      pop\n      jump\t// out\n        /* \"#utility.yul\":3451:3661   */\n    tag_42:\n        /* \"#utility.yul\":3538:3542   */\n      0x00\n        /* \"#utility.yul\":3576:3578   */\n      0x20\n        /* \"#utility.yul\":3565:3574   */\n      dup3\n        /* \"#utility.yul\":3561:3579   */\n      add\n        /* \"#utility.yul\":3553:3579   */\n      swap1\n      pop\n        /* \"#utility.yul\":3589:3654   */\n      tag_229\n        /* \"#utility.yul\":3651:3652   */\n      0x00\n        /* \"#utility.yul\":3640:3649   */\n      dup4\n        /* \"#utility.yul\":3636:3653   */\n      add\n        /* \"#utility.yul\":3627:3633   */\n      dup5\n        /* \"#utility.yul\":3589:3654   */\n      tag_178\n      jump\t// in\n    tag_229:\n        /* \"#utility.yul\":3451:3661   */\n      swap3\n      swap2\n      pop\n      pop\n      jump\t// out\n        /* \"#utility.yul\":3667:3785   */\n    tag_179:\n        /* \"#utility.yul\":3754:3778   */\n      tag_231\n        /* \"#utility.yul\":3772:3777   */\n      dup2\n        /* \"#utility.yul\":3754:3778   */\n      tag_173\n      jump\t// in\n    tag_231:\n        /* \"#utility.yul\":3749:3752   */\n      dup3\n        /* \"#utility.yul\":3742:3779   */\n      mstore\n        /* \"#utility.yul\":3667:3785   */\n      pop\n      pop\n      jump\t// out\n        /* \"#utility.yul\":3791:4013   */\n    tag_51:\n        /* \"#utility.yul\":3884:3888   */\n      0x00\n        /* \"#utility.yul\":3922:3924   */\n      0x20\n        /* \"#utility.yul\":3911:3920   */\n      dup3\n        /* \"#utility.yul\":3907:3925   */\n      add\n        /* \"#utility.yul\":3899:3925   */\n      swap1\n      pop\n        /* \"#utility.yul\":3935:4006   */\n      tag_233\n        /* \"#utility.yul\":4003:4004   */\n      0x00\n        /* \"#utility.yul\":3992:4001   */\n      dup4\n        /* \"#utility.yul\":3988:4005   */\n      add\n        /* \"#utility.yul\":3979:3985   */\n      dup5\n        /* \"#utility.yul\":3935:4006   */\n      tag_179\n      jump\t// in\n    tag_233:\n        /* \"#utility.yul\":3791:4013   */\n      swap3\n      swap2\n      pop\n      pop\n      jump\t// out\n        /* \"#utility.yul\":4019:4199   */\n    tag_180:\n        /* \"#utility.yul\":4067:4144   */\n      0x4e487b7100000000000000000000000000000000000000000000000000000000\n        /* \"#utility.yul\":4064:4065   */\n      0x00\n        /* \"#utility.yul\":4057:4145   */\n      mstore\n        /* \"#utility.yul\":4164:4168   */\n      0x12\n        /* \"#utility.yul\":4161:4162   */\n      0x04\n        /* \"#utility.yul\":4154:4169   */\n      mstore\n        /* \"#utility.yul\":4188:4192   */\n      0x24\n        /* \"#utility.yul\":4185:4186   */\n      0x00\n        /* \"#utility.yul\":4178:4193   */\n      revert\n        /* \"#utility.yul\":4205:4385   */\n    tag_181:\n        /* \"#utility.yul\":4253:4330   */\n      0x4e487b7100000000000000000000000000000000000000000000000000000000\n        /* \"#utility.yul\":4250:4251   */\n      0x00\n        /* \"#utility.yul\":4243:4331   */\n      mstore\n        /* \"#utility.yul\":4350:4354   */\n      0x11\n        /* \"#utility.yul\":4347:4348   */\n      0x04\n        /* \"#utility.yul\":4340:4355   */\n      mstore\n        /* \"#utility.yul\":4374:4378   */\n      0x24\n        /* \"#utility.yul\":4371:4372   */\n      0x00\n        /* \"#utility.yul\":4364:4379   */\n      revert\n        /* \"#utility.yul\":4391:4576   */\n    tag_75:\n        /* \"#utility.yul\":4431:4432   */\n      0x00\n        /* \"#utility.yul\":4448:4468   */\n      tag_237\n        /* \"#utility.yul\":4466:4467   */\n      dup3\n        /* \"#utility.yul\":4448:4468   */\n      tag_173\n      jump\t// in\n    tag_237:\n        /* \"#utility.yul\":4443:4468   */\n      swap2\n      pop\n        /* \"#utility.yul\":4482:4502   */\n      tag_238\n        /* \"#utility.yul\":4500:4501   */\n      dup4\n        /* \"#utility.yul\":4482:4502   */\n      tag_173\n      jump\t// in\n    tag_238:\n        /* \"#utility.yul\":4477:4502   */\n      swap3\n      pop\n        /* \"#utility.yul\":4521:4522   */\n      dup3\n        /* \"#utility.yul\":4511:4546   */\n      tag_239\n      jumpi\n        /* \"#utility.yul\":4526:4544   */\n      tag_240\n      tag_180\n      jump\t// in\n    tag_240:\n        /* \"#utility.yul\":4511:4546   */\n    tag_239:\n        /* \"#utility.yul\":4568:4569   */\n      dup3\n        /* \"#utility.yul\":4565:4566   */\n      dup3\n        /* \"#utility.yul\":4561:4570   */\n      div\n        /* \"#utility.yul\":4556:4570   */\n      swap1\n      pop\n        /* \"#utility.yul\":4391:4576   */\n      swap3\n      swap2\n      pop\n      pop\n      jump\t// out\n        /* \"#utility.yul\":4582:4758   */\n    tag_78:\n        /* \"#utility.yul\":4614:4615   */\n      0x00\n        /* \"#utility.yul\":4631:4651   */\n      tag_242\n        /* \"#utility.yul\":4649:4650   */\n      dup3\n        /* \"#utility.yul\":4631:4651   */\n      tag_173\n      jump\t// in\n    tag_242:\n        /* \"#utility.yul\":4626:4651   */\n      swap2\n      pop\n        /* \"#utility.yul\":4665:4685   */\n      tag_243\n        /* \"#utility.yul\":4683:4684   */\n      dup4\n        /* \"#utility.yul\":4665:4685   */\n      tag_173\n      jump\t// in\n    tag_243:\n        /* \"#utility.yul\":4660:4685   */\n      swap3\n      pop\n        /* \"#utility.yul\":4704:4705   */\n      dup3\n        /* \"#utility.yul\":4694:4729   */\n      tag_244\n      jumpi\n        /* \"#utility.yul\":4709:4727   */\n      tag_245\n      tag_180\n      jump\t// in\n    tag_245:\n        /* \"#utility.yul\":4694:4729   */\n    tag_244:\n        /* \"#utility.yul\":4750:4751   */\n      dup3\n        /* \"#utility.yul\":4747:4748   */\n      dup3\n        /* \"#utility.yul\":4743:4752   */\n      mod\n        /* \"#utility.yul\":4738:4752   */\n      swap1\n      pop\n        /* \"#utility.yul\":4582:4758   */\n      swap3\n      swap2\n      pop\n      pop\n      jump\t// out\n        /* \"#utility.yul\":4764:4955   */\n    tag_87:\n        /* \"#utility.yul\":4804:4807   */\n      0x00\n        /* \"#utility.yul\":4823:4843   */\n      tag_247\n        /* \"#utility.yul\":4841:4842   */\n      dup3\n        /* \"#utility.yul\":4823:4843   */\n      tag_173\n      jump\t// in\n    tag_247:\n        /* \"#utility.yul\":4818:4843   */\n      swap2\n      pop\n        /* \"#utility.yul\":4857:4877   */\n      tag_248\n        /* \"#utility.yul\":4875:4876   */\n      dup4\n        /* \"#utility.yul\":4857:4877   */\n      tag_173\n      jump\t// in\n    tag_248:\n        /* \"#utility.yul\":4852:4877   */\n      swap3\n      pop\n        /* \"#utility.yul\":4900:4901   */\n      dup3\n        /* \"#utility.yul\":4897:4898   */\n      dup3\n        /* \"#utility.yul\":4893:4902   */\n      add\n        /* \"#utility.yul\":4886:4902   */\n      swap1\n      pop\n        /* \"#utility.yul\":4921:4924   */\n      dup1\n        /* \"#utility.yul\":4918:4919   */\n      dup3\n        /* \"#utility.yul\":4915:4925   */\n      gt\n        /* \"#utility.yul\":4912:4948   */\n      iszero\n      tag_249\n      jumpi\n        /* \"#utility.yul\":4928:4946   */\n      tag_250\n      tag_181\n      jump\t// in\n    tag_250:\n        /* \"#utility.yul\":4912:4948   */\n    tag_249:\n        /* \"#utility.yul\":4764:4955   */\n      swap3\n      swap2\n      pop\n      pop\n      jump\t// out\n        /* \"#utility.yul\":4961:5155   */\n    tag_91:\n        /* \"#utility.yul\":5001:5005   */\n      0x00\n        /* \"#utility.yul\":5021:5041   */\n      tag_252\n        /* \"#utility.yul\":5039:5040   */\n      dup3\n        /* \"#utility.yul\":5021:5041   */\n      tag_173\n      jump\t// in\n    tag_252:\n        /* \"#utility.yul\":5016:5041   */\n      swap2\n      pop\n        /* \"#utility.yul\":5055:5075   */\n      tag_253\n        /* \"#utility.yul\":5073:5074   */\n      dup4\n        /* \"#utility.yul\":5055:5075   */\n      tag_173\n      jump\t// in\n    tag_253:\n        /* \"#utility.yul\":5050:5075   */\n      swap3\n      pop\n        /* \"#utility.yul\":5099:5100   */\n      dup3\n        /* \"#utility.yul\":5096:5097   */\n      dup3\n        /* \"#utility.yul\":5092:5101   */\n      sub\n        /* \"#utility.yul\":5084:5101   */\n      swap1\n      pop\n        /* \"#utility.yul\":5123:5124   */\n      dup2\n        /* \"#utility.yul\":5117:5121   */\n      dup2\n        /* \"#utility.yul\":5114:5125   */\n      gt\n        /* \"#utility.yul\":5111:5148   */\n      iszero\n      tag_254\n      jumpi\n        /* \"#utility.yul\":5128:5146   */\n      tag_255\n      tag_181\n      jump\t// in\n    tag_255:\n        /* \"#utility.yul\":5111:5148   */\n    tag_254:\n        /* \"#utility.yul\":4961:5155   */\n      swap3\n      swap2\n      pop\n      pop\n      jump\t// out\n        /* \"#utility.yul\":5161:5571   */\n    tag_93:\n        /* \"#utility.yul\":5201:5208   */\n      0x00\n        /* \"#utility.yul\":5224:5244   */\n      tag_257\n        /* \"#utility.yul\":5242:5243   */\n      dup3\n        /* \"#utility.yul\":5224:5244   */\n      tag_173\n      jump\t// in\n    tag_257:\n        /* \"#utility.yul\":5219:5244   */\n      swap2\n      pop\n        /* \"#utility.yul\":5258:5278   */\n      tag_258\n        /* \"#utility.yul\":5276:5277   */\n      dup4\n        /* \"#utility.yul\":5258:5278   */\n      tag_173\n      jump\t// in\n    tag_258:\n        /* \"#utility.yul\":5253:5278   */\n      swap3\n      pop\n        /* \"#utility.yul\":5313:5314   */\n      dup3\n        /* \"#utility.yul\":5310:5311   */\n      dup3\n        /* \"#utility.yul\":5306:5315   */\n      mul\n        /* \"#utility.yul\":5335:5365   */\n      tag_259\n        /* \"#utility.yul\":5353:5364   */\n      dup2\n        /* \"#utility.yul\":5335:5365   */\n      tag_173\n      jump\t// in\n    tag_259:\n        /* \"#utility.yul\":5324:5365   */\n      swap2\n      pop\n        /* \"#utility.yul\":5514:5515   */\n      dup3\n        /* \"#utility.yul\":5505:5512   */\n      dup3\n        /* \"#utility.yul\":5501:5516   */\n      div\n        /* \"#utility.yul\":5498:5499   */\n      dup5\n        /* \"#utility.yul\":5495:5517   */\n      eq\n        /* \"#utility.yul\":5475:5476   */\n      dup4\n        /* \"#utility.yul\":5468:5477   */\n      iszero\n        /* \"#utility.yul\":5448:5531   */\n      or\n        /* \"#utility.yul\":5425:5564   */\n      tag_260\n      jumpi\n        /* \"#utility.yul\":5544:5562   */\n      tag_261\n      tag_181\n      jump\t// in\n    tag_261:\n        /* \"#utility.yul\":5425:5564   */\n    tag_260:\n        /* \"#utility.yul\":5209:5571   */\n      pop\n        /* \"#utility.yul\":5161:5571   */\n      swap3\n      swap2\n      pop\n      pop\n      jump\t// out\n        /* \"#utility.yul\":5577:5777   */\n    tag_96:\n        /* \"#utility.yul\":5616:5620   */\n      0x00\n        /* \"#utility.yul\":5636:5655   */\n      tag_263\n        /* \"#utility.yul\":5653:5654   */\n      dup3\n        /* \"#utility.yul\":5636:5655   */\n      tag_169\n      jump\t// in\n    tag_263:\n        /* \"#utility.yul\":5631:5655   */\n      swap2\n      pop\n        /* \"#utility.yul\":5669:5688   */\n      tag_264\n        /* \"#utility.yul\":5686:5687   */\n      dup4\n        /* \"#utility.yul\":5669:5688   */\n      tag_169\n      jump\t// in\n    tag_264:\n        /* \"#utility.yul\":5664:5688   */\n      swap3\n      pop\n        /* \"#utility.yul\":5712:5713   */\n      dup3\n        /* \"#utility.yul\":5709:5710   */\n      dup3\n        /* \"#utility.yul\":5705:5714   */\n      sub\n        /* \"#utility.yul\":5697:5714   */\n      swap1\n      pop\n        /* \"#utility.yul\":5736:5746   */\n      0xffffffff\n        /* \"#utility.yul\":5730:5734   */\n      dup2\n        /* \"#utility.yul\":5727:5747   */\n      gt\n        /* \"#utility.yul\":5724:5770   */\n      iszero\n      tag_265\n      jumpi\n        /* \"#utility.yul\":5750:5768   */\n      tag_266\n      tag_181\n      jump\t// in\n    tag_266:\n        /* \"#utility.yul\":5724:5770   */\n    tag_265:\n        /* \"#utility.yul\":5577:5777   */\n      swap3\n      swap2\n      pop\n      pop\n      jump\t// out\n        /* \"#utility.yul\":5783:5956   */\n    tag_111:\n        /* \"#utility.yul\":5814:5815   */\n      0x00\n        /* \"#utility.yul\":5831:5850   */\n      tag_268\n        /* \"#utility.yul\":5848:5849   */\n      dup3\n        /* \"#utility.yul\":5831:5850   */\n      tag_169\n      jump\t// in\n    tag_268:\n        /* \"#utility.yul\":5826:5850   */\n      swap2\n      pop\n        /* \"#utility.yul\":5864:5883   */\n      tag_269\n        /* \"#utility.yul\":5881:5882   */\n      dup4\n        /* \"#utility.yul\":5864:5883   */\n      tag_169\n      jump\t// in\n    tag_269:\n        /* \"#utility.yul\":5859:5883   */\n      swap3\n      pop\n        /* \"#utility.yul\":5902:5903   */\n      dup3\n        /* \"#utility.yul\":5892:5927   */\n      tag_270\n      jumpi\n        /* \"#utility.yul\":5907:5925   */\n      tag_271\n      tag_180\n      jump\t// in\n    tag_271:\n        /* \"#utility.yul\":5892:5927   */\n    tag_270:\n        /* \"#utility.yul\":5948:5949   */\n      dup3\n        /* \"#utility.yul\":5945:5946   */\n      dup3\n        /* \"#utility.yul\":5941:5950   */\n      mod\n        /* \"#utility.yul\":5936:5950   */\n      swap1\n      pop\n        /* \"#utility.yul\":5783:5956   */\n      swap3\n      swap2\n      pop\n      pop\n      jump\t// out\n        /* \"#utility.yul\":5962:6129   */\n    tag_151:\n        /* \"#utility.yul\":5999:6002   */\n      0x00\n        /* \"#utility.yul\":6022:6044   */\n      tag_273\n        /* \"#utility.yul\":6038:6043   */\n      dup3\n        /* \"#utility.yul\":6022:6044   */\n      tag_166\n      jump\t// in\n    tag_273:\n        /* \"#utility.yul\":6013:6044   */\n      swap2\n      pop\n        /* \"#utility.yul\":6066:6070   */\n      0xff\n        /* \"#utility.yul\":6059:6064   */\n      dup3\n        /* \"#utility.yul\":6056:6071   */\n      sub\n        /* \"#utility.yul\":6053:6094   */\n      tag_274\n      jumpi\n        /* \"#utility.yul\":6074:6092   */\n      tag_275\n      tag_181\n      jump\t// in\n    tag_275:\n        /* \"#utility.yul\":6053:6094   */\n    tag_274:\n        /* \"#utility.yul\":6121:6122   */\n      0x01\n        /* \"#utility.yul\":6114:6119   */\n      dup3\n        /* \"#utility.yul\":6110:6123   */\n      add\n        /* \"#utility.yul\":6103:6123   */\n      swap1\n      pop\n        /* \"#utility.yul\":5962:6129   */\n      swap2\n      swap1\n      pop\n      jump\t// out\n\n    auxdata: 0xa26469706673582212203d74fb765d9282bdf4d856592d0aef1b4cbb12f7006621b3304ad51c7ac39e8264736f6c63430008110033\n}\n",
				"bytecode": {
					"linkReferences": {},
					"object": "608060405234801561001057600080fd5b50610c08806100206000396000f3fe608060405234801561001057600080fd5b50600436106100935760003560e01c806392d663131161006657806392d6631314610158578063a01f851814610188578063a324ad24146101b8578063b1999937146101e8578063fa93f8831461021857610093565b80630534c9a6146100985780633e239e1a146100c857806365c72840146100f85780638aa001fc14610128575b600080fd5b6100b260048036038101906100ad9190610852565b610248565b6040516100bf91906108a1565b60405180910390f35b6100e260048036038101906100dd91906108f2565b610314565b6040516100ef91906108a1565b60405180910390f35b610112600480360381019061010d91906108f2565b610341565b60405161011f91906108a1565b60405180910390f35b610142600480360381019061013d91906108f2565b610357565b60405161014f91906108a1565b60405180910390f35b610172600480360381019061016d91906108f2565b61036d565b60405161017f919061092e565b60405180910390f35b6101a2600480360381019061019d9190610949565b61048c565b6040516101af9190610991565b60405180910390f35b6101d260048036038101906101cd91906108f2565b610501565b6040516101df91906108a1565b60405180910390f35b61020260048036038101906101fd91906108f2565b610517565b60405161020f91906109bb565b60405180910390f35b610232600480360381019061022d91906108f2565b61056b565b60405161023f91906108a1565b60405180910390f35b600060018360ff16148061025f575060038360ff16145b8061026d575060058360ff16145b8061027b575060078360ff16145b80610289575060088360ff16145b806102975750600a8360ff16145b806102a55750600c8360ff16145b156102b357601f905061030e565b60048360ff1614806102c8575060068360ff16145b806102d6575060098360ff16145b806102e45750600b8360ff16145b156102f257601e905061030e565b6102fb8261048c565b1561030957601d905061030e565b601c90505b92915050565b60006018603c80846103269190610a34565b6103309190610a34565b61033a9190610a65565b9050919050565b600061034c8261058c565b604001519050919050565b6000603c826103669190610a65565b9050919050565b600080600090506000806301e13380856103879190610a34565b6107b263ffffffff1661039a9190610a96565b91506103ad6107b263ffffffff16610517565b6103bc8363ffffffff16610517565b6103c69190610aca565b9050806301e285006103d89190610afe565b836103e39190610a96565b9250806107b2836103f49190610b40565b63ffffffff166104049190610aca565b6301e133806104139190610afe565b8361041e9190610a96565b92505b848311156104815761043e6001836104399190610b40565b61048c565b1561045a576301e28500836104539190610aca565b925061046d565b6301e133808361046a9190610aca565b92505b60018261047a9190610b40565b9150610421565b819350505050919050565b60008060048361049c9190610b78565b63ffffffff16146104b057600090506104fc565b60006064836104bf9190610b78565b63ffffffff16146104d357600190506104fc565b6000610190836104e39190610b78565b63ffffffff16146104f757600090506104fc565b600190505b919050565b600061050c8261058c565b602001519050919050565b60006001826105269190610aca565b9150610190826105369190610a34565b6064836105439190610a34565b6004846105509190610a34565b61055a9190610aca565b6105649190610a96565b9050919050565b6000603c808361057b9190610a34565b6105859190610a65565b9050919050565b61059461078d565b600080806105a18561036d565b846000019063ffffffff16908163ffffffff16815250506105c96107b263ffffffff16610517565b6105dc856000015163ffffffff16610517565b6105e69190610aca565b9150816301e285006105f89190610afe565b836106039190610a96565b9250816107b285600001516106189190610b40565b63ffffffff166106289190610aca565b6301e133806106379190610afe565b836106429190610a96565b92506000600191505b600c8260ff16116106c257610664828660000151610248565b60ff16620151806106759190610afe565b90508584826106849190610a96565b11156106a15781856020019060ff16908160ff16815250506106c2565b80846106ad9190610a96565b935081806106ba90610ba9565b92505061064b565b600191505b6106d985602001518660000151610248565b60ff168260ff1611610736578584620151806106f59190610a96565b11156107125781856040019060ff16908160ff1681525050610736565b62015180846107219190610a96565b9350818061072e90610ba9565b9250506106c7565b61073f86610314565b856060019060ff16908160ff16815250506107598661056b565b856080019060ff16908160ff168152505061077386610357565b8560a0019060ff16908160ff168152505050505050919050565b6040518060c00160405280600063ffffffff168152602001600060ff168152602001600060ff168152602001600060ff168152602001600060ff168152602001600060ff1681525090565b600080fd5b600060ff82169050919050565b6107f3816107dd565b81146107fe57600080fd5b50565b600081359050610810816107ea565b92915050565b600063ffffffff82169050919050565b61082f81610816565b811461083a57600080fd5b50565b60008135905061084c81610826565b92915050565b60008060408385031215610869576108686107d8565b5b600061087785828601610801565b92505060206108888582860161083d565b9150509250929050565b61089b816107dd565b82525050565b60006020820190506108b66000830184610892565b92915050565b6000819050919050565b6108cf816108bc565b81146108da57600080fd5b50565b6000813590506108ec816108c6565b92915050565b600060208284031215610908576109076107d8565b5b6000610916848285016108dd565b91505092915050565b61092881610816565b82525050565b6000602082019050610943600083018461091f565b92915050565b60006020828403121561095f5761095e6107d8565b5b600061096d8482850161083d565b91505092915050565b60008115159050919050565b61098b81610976565b82525050565b60006020820190506109a66000830184610982565b92915050565b6109b5816108bc565b82525050565b60006020820190506109d060008301846109ac565b92915050565b7f4e487b7100000000000000000000000000000000000000000000000000000000600052601260045260246000fd5b7f4e487b7100000000000000000000000000000000000000000000000000000000600052601160045260246000fd5b6000610a3f826108bc565b9150610a4a836108bc565b925082610a5a57610a596109d6565b5b828204905092915050565b6000610a70826108bc565b9150610a7b836108bc565b925082610a8b57610a8a6109d6565b5b828206905092915050565b6000610aa1826108bc565b9150610aac836108bc565b9250828201905080821115610ac457610ac3610a05565b5b92915050565b6000610ad5826108bc565b9150610ae0836108bc565b9250828203905081811115610af857610af7610a05565b5b92915050565b6000610b09826108bc565b9150610b14836108bc565b9250828202610b22816108bc565b91508282048414831517610b3957610b38610a05565b5b5092915050565b6000610b4b82610816565b9150610b5683610816565b9250828203905063ffffffff811115610b7257610b71610a05565b5b92915050565b6000610b8382610816565b9150610b8e83610816565b925082610b9e57610b9d6109d6565b5b828206905092915050565b6000610bb4826107dd565b915060ff8203610bc757610bc6610a05565b5b60018201905091905056fea26469706673582212203d74fb765d9282bdf4d856592d0aef1b4cbb12f7006621b3304ad51c7ac39e8264736f6c63430008110033",
					"opcodes": "PUSH1 0x80 PUSH1 0x40 MSTORE CALLVALUE DUP1 ISZERO PUSH2 0x10 JUMPI PUSH1 0x0 DUP1 REVERT JUMPDEST POP PUSH2 0xC08 DUP1 PUSH2 0x20 PUSH1 0x0 CODECOPY PUSH1 0x0 RETURN INVALID PUSH1 0x80 PUSH1 0x40 MSTORE CALLVALUE DUP1 ISZERO PUSH2 0x10 JUMPI PUSH1 0x0 DUP1 REVERT JUMPDEST POP PUSH1 0x4 CALLDATASIZE LT PUSH2 0x93 JUMPI PUSH1 0x0 CALLDATALOAD PUSH1 0xE0 SHR DUP1 PUSH4 0x92D66313 GT PUSH2 0x66 JUMPI DUP1 PUSH4 0x92D66313 EQ PUSH2 0x158 JUMPI DUP1 PUSH4 0xA01F8518 EQ PUSH2 0x188 JUMPI DUP1 PUSH4 0xA324AD24 EQ PUSH2 0x1B8 JUMPI DUP1 PUSH4 0xB1999937 EQ PUSH2 0x1E8 JUMPI DUP1 PUSH4 0xFA93F883 EQ PUSH2 0x218 JUMPI PUSH2 0x93 JUMP JUMPDEST DUP1 PUSH4 0x534C9A6 EQ PUSH2 0x98 JUMPI DUP1 PUSH4 0x3E239E1A EQ PUSH2 0xC8 JUMPI DUP1 PUSH4 0x65C72840 EQ PUSH2 0xF8 JUMPI DUP1 PUSH4 0x8AA001FC EQ PUSH2 0x128 JUMPI JUMPDEST PUSH1 0x0 DUP1 REVERT JUMPDEST PUSH2 0xB2 PUSH1 0x4 DUP1 CALLDATASIZE SUB DUP2 ADD SWAP1 PUSH2 0xAD SWAP2 SWAP1 PUSH2 0x852 JUMP JUMPDEST PUSH2 0x248 JUMP JUMPDEST PUSH1 0x40 MLOAD PUSH2 0xBF SWAP2 SWAP1 PUSH2 0x8A1 JUMP JUMPDEST PUSH1 0x40 MLOAD DUP1 SWAP2 SUB SWAP1 RETURN JUMPDEST PUSH2 0xE2 PUSH1 0x4 DUP1 CALLDATASIZE SUB DUP2 ADD SWAP1 PUSH2 0xDD SWAP2 SWAP1 PUSH2 0x8F2 JUMP JUMPDEST PUSH2 0x314 JUMP JUMPDEST PUSH1 0x40 MLOAD PUSH2 0xEF SWAP2 SWAP1 PUSH2 0x8A1 JUMP JUMPDEST PUSH1 0x40 MLOAD DUP1 SWAP2 SUB SWAP1 RETURN JUMPDEST PUSH2 0x112 PUSH1 0x4 DUP1 CALLDATASIZE SUB DUP2 ADD SWAP1 PUSH2 0x10D SWAP2 SWAP1 PUSH2 0x8F2 JUMP JUMPDEST PUSH2 0x341 JUMP JUMPDEST PUSH1 0x40 MLOAD PUSH2 0x11F SWAP2 SWAP1 PUSH2 0x8A1 JUMP JUMPDEST PUSH1 0x40 MLOAD DUP1 SWAP2 SUB SWAP1 RETURN JUMPDEST PUSH2 0x142 PUSH1 0x4 DUP1 CALLDATASIZE SUB DUP2 ADD SWAP1 PUSH2 0x13D SWAP2 SWAP1 PUSH2 0x8F2 JUMP JUMPDEST PUSH2 0x357 JUMP JUMPDEST PUSH1 0x40 MLOAD PUSH2 0x14F SWAP2 SWAP1 PUSH2 0x8A1 JUMP JUMPDEST PUSH1 0x40 MLOAD DUP1 SWAP2 SUB SWAP1 RETURN JUMPDEST PUSH2 0x172 PUSH1 0x4 DUP1 CALLDATASIZE SUB DUP2 ADD SWAP1 PUSH2 0x16D SWAP2 SWAP1 PUSH2 0x8F2 JUMP JUMPDEST PUSH2 0x36D JUMP JUMPDEST PUSH1 0x40 MLOAD PUSH2 0x17F SWAP2 SWAP1 PUSH2 0x92E JUMP JUMPDEST PUSH1 0x40 MLOAD DUP1 SWAP2 SUB SWAP1 RETURN JUMPDEST PUSH2 0x1A2 PUSH1 0x4 DUP1 CALLDATASIZE SUB DUP2 ADD SWAP1 PUSH2 0x19D SWAP2 SWAP1 PUSH2 0x949 JUMP JUMPDEST PUSH2 0x48C JUMP JUMPDEST PUSH1 0x40 MLOAD PUSH2 0x1AF SWAP2 SWAP1 PUSH2 0x991 JUMP JUMPDEST PUSH1 0x40 MLOAD DUP1 SWAP2 SUB SWAP1 RETURN JUMPDEST PUSH2 0x1D2 PUSH1 0x4 DUP1 CALLDATASIZE SUB DUP2 ADD SWAP1 PUSH2 0x1CD SWAP2 SWAP1 PUSH2 0x8F2 JUMP JUMPDEST PUSH2 0x501 JUMP JUMPDEST PUSH1 0x40 MLOAD PUSH2 0x1DF SWAP2 SWAP1 PUSH2 0x8A1 JUMP JUMPDEST PUSH1 0x40 MLOAD DUP1 SWAP2 SUB SWAP1 RETURN JUMPDEST PUSH2 0x202 PUSH1 0x4 DUP1 CALLDATASIZE SUB DUP2 ADD SWAP1 PUSH2 0x1FD SWAP2 SWAP1 PUSH2 0x8F2 JUMP JUMPDEST PUSH2 0x517 JUMP JUMPDEST PUSH1 0x40 MLOAD PUSH2 0x20F SWAP2 SWAP1 PUSH2 0x9BB JUMP JUMPDEST PUSH1 0x40 MLOAD DUP1 SWAP2 SUB SWAP1 RETURN JUMPDEST PUSH2 0x232 PUSH1 0x4 DUP1 CALLDATASIZE SUB DUP2 ADD SWAP1 PUSH2 0x22D SWAP2 SWAP1 PUSH2 0x8F2 JUMP JUMPDEST PUSH2 0x56B JUMP JUMPDEST PUSH1 0x40 MLOAD PUSH2 0x23F SWAP2 SWAP1 PUSH2 0x8A1 JUMP JUMPDEST PUSH1 0x40 MLOAD DUP1 SWAP2 SUB SWAP1 RETURN JUMPDEST PUSH1 0x0 PUSH1 0x1 DUP4 PUSH1 0xFF AND EQ DUP1 PUSH2 0x25F JUMPI POP PUSH1 0x3 DUP4 PUSH1 0xFF AND EQ JUMPDEST DUP1 PUSH2 0x26D JUMPI POP PUSH1 0x5 DUP4 PUSH1 0xFF AND EQ JUMPDEST DUP1 PUSH2 0x27B JUMPI POP PUSH1 0x7 DUP4 PUSH1 0xFF AND EQ JUMPDEST DUP1 PUSH2 0x289 JUMPI POP PUSH1 0x8 DUP4 PUSH1 0xFF AND EQ JUMPDEST DUP1 PUSH2 0x297 JUMPI POP PUSH1 0xA DUP4 PUSH1 0xFF AND EQ JUMPDEST DUP1 PUSH2 0x2A5 JUMPI POP PUSH1 0xC DUP4 PUSH1 0xFF AND EQ JUMPDEST ISZERO PUSH2 0x2B3 JUMPI PUSH1 0x1F SWAP1 POP PUSH2 0x30E JUMP JUMPDEST PUSH1 0x4 DUP4 PUSH1 0xFF AND EQ DUP1 PUSH2 0x2C8 JUMPI POP PUSH1 0x6 DUP4 PUSH1 0xFF AND EQ JUMPDEST DUP1 PUSH2 0x2D6 JUMPI POP PUSH1 0x9 DUP4 PUSH1 0xFF AND EQ JUMPDEST DUP1 PUSH2 0x2E4 JUMPI POP PUSH1 0xB DUP4 PUSH1 0xFF AND EQ JUMPDEST ISZERO PUSH2 0x2F2 JUMPI PUSH1 0x1E SWAP1 POP PUSH2 0x30E JUMP JUMPDEST PUSH2 0x2FB DUP3 PUSH2 0x48C JUMP JUMPDEST ISZERO PUSH2 0x309 JUMPI PUSH1 0x1D SWAP1 POP PUSH2 0x30E JUMP JUMPDEST PUSH1 0x1C SWAP1 POP JUMPDEST SWAP3 SWAP2 POP POP JUMP JUMPDEST PUSH1 0x0 PUSH1 0x18 PUSH1 0x3C DUP1 DUP5 PUSH2 0x326 SWAP2 SWAP1 PUSH2 0xA34 JUMP JUMPDEST PUSH2 0x330 SWAP2 SWAP1 PUSH2 0xA34 JUMP JUMPDEST PUSH2 0x33A SWAP2 SWAP1 PUSH2 0xA65 JUMP JUMPDEST SWAP1 POP SWAP2 SWAP1 POP JUMP JUMPDEST PUSH1 0x0 PUSH2 0x34C DUP3 PUSH2 0x58C JUMP JUMPDEST PUSH1 0x40 ADD MLOAD SWAP1 POP SWAP2 SWAP1 POP JUMP JUMPDEST PUSH1 0x0 PUSH1 0x3C DUP3 PUSH2 0x366 SWAP2 SWAP1 PUSH2 0xA65 JUMP JUMPDEST SWAP1 POP SWAP2 SWAP1 POP JUMP JUMPDEST PUSH1 0x0 DUP1 PUSH1 0x0 SWAP1 POP PUSH1 0x0 DUP1 PUSH4 0x1E13380 DUP6 PUSH2 0x387 SWAP2 SWAP1 PUSH2 0xA34 JUMP JUMPDEST PUSH2 0x7B2 PUSH4 0xFFFFFFFF AND PUSH2 0x39A SWAP2 SWAP1 PUSH2 0xA96 JUMP JUMPDEST SWAP2 POP PUSH2 0x3AD PUSH2 0x7B2 PUSH4 0xFFFFFFFF AND PUSH2 0x517 JUMP JUMPDEST PUSH2 0x3BC DUP4 PUSH4 0xFFFFFFFF AND PUSH2 0x517 JUMP JUMPDEST PUSH2 0x3C6 SWAP2 SWAP1 PUSH2 0xACA JUMP JUMPDEST SWAP1 POP DUP1 PUSH4 0x1E28500 PUSH2 0x3D8 SWAP2 SWAP1 PUSH2 0xAFE JUMP JUMPDEST DUP4 PUSH2 0x3E3 SWAP2 SWAP1 PUSH2 0xA96 JUMP JUMPDEST SWAP3 POP DUP1 PUSH2 0x7B2 DUP4 PUSH2 0x3F4 SWAP2 SWAP1 PUSH2 0xB40 JUMP JUMPDEST PUSH4 0xFFFFFFFF AND PUSH2 0x404 SWAP2 SWAP1 PUSH2 0xACA JUMP JUMPDEST PUSH4 0x1E13380 PUSH2 0x413 SWAP2 SWAP1 PUSH2 0xAFE JUMP JUMPDEST DUP4 PUSH2 0x41E SWAP2 SWAP1 PUSH2 0xA96 JUMP JUMPDEST SWAP3 POP JUMPDEST DUP5 DUP4 GT ISZERO PUSH2 0x481 JUMPI PUSH2 0x43E PUSH1 0x1 DUP4 PUSH2 0x439 SWAP2 SWAP1 PUSH2 0xB40 JUMP JUMPDEST PUSH2 0x48C JUMP JUMPDEST ISZERO PUSH2 0x45A JUMPI PUSH4 0x1E28500 DUP4 PUSH2 0x453 SWAP2 SWAP1 PUSH2 0xACA JUMP JUMPDEST SWAP3 POP PUSH2 0x46D JUMP JUMPDEST PUSH4 0x1E13380 DUP4 PUSH2 0x46A SWAP2 SWAP1 PUSH2 0xACA JUMP JUMPDEST SWAP3 POP JUMPDEST PUSH1 0x1 DUP3 PUSH2 0x47A SWAP2 SWAP1 PUSH2 0xB40 JUMP JUMPDEST SWAP2 POP PUSH2 0x421 JUMP JUMPDEST DUP2 SWAP4 POP POP POP POP SWAP2 SWAP1 POP JUMP JUMPDEST PUSH1 0x0 DUP1 PUSH1 0x4 DUP4 PUSH2 0x49C SWAP2 SWAP1 PUSH2 0xB78 JUMP JUMPDEST PUSH4 0xFFFFFFFF AND EQ PUSH2 0x4B0 JUMPI PUSH1 0x0 SWAP1 POP PUSH2 0x4FC JUMP JUMPDEST PUSH1 0x0 PUSH1 0x64 DUP4 PUSH2 0x4BF SWAP2 SWAP1 PUSH2 0xB78 JUMP JUMPDEST PUSH4 0xFFFFFFFF AND EQ PUSH2 0x4D3 JUMPI PUSH1 0x1 SWAP1 POP PUSH2 0x4FC JUMP JUMPDEST PUSH1 0x0 PUSH2 0x190 DUP4 PUSH2 0x4E3 SWAP2 SWAP1 PUSH2 0xB78 JUMP JUMPDEST PUSH4 0xFFFFFFFF AND EQ PUSH2 0x4F7 JUMPI PUSH1 0x0 SWAP1 POP PUSH2 0x4FC JUMP JUMPDEST PUSH1 0x1 SWAP1 POP JUMPDEST SWAP2 SWAP1 POP JUMP JUMPDEST PUSH1 0x0 PUSH2 0x50C DUP3 PUSH2 0x58C JUMP JUMPDEST PUSH1 0x20 ADD MLOAD SWAP1 POP SWAP2 SWAP1 POP JUMP JUMPDEST PUSH1 0x0 PUSH1 0x1 DUP3 PUSH2 0x526 SWAP2 SWAP1 PUSH2 0xACA JUMP JUMPDEST SWAP2 POP PUSH2 0x190 DUP3 PUSH2 0x536 SWAP2 SWAP1 PUSH2 0xA34 JUMP JUMPDEST PUSH1 0x64 DUP4 PUSH2 0x543 SWAP2 SWAP1 PUSH2 0xA34 JUMP JUMPDEST PUSH1 0x4 DUP5 PUSH2 0x550 SWAP2 SWAP1 PUSH2 0xA34 JUMP JUMPDEST PUSH2 0x55A SWAP2 SWAP1 PUSH2 0xACA JUMP JUMPDEST PUSH2 0x564 SWAP2 SWAP1 PUSH2 0xA96 JUMP JUMPDEST SWAP1 POP SWAP2 SWAP1 POP JUMP JUMPDEST PUSH1 0x0 PUSH1 0x3C DUP1 DUP4 PUSH2 0x57B SWAP2 SWAP1 PUSH2 0xA34 JUMP JUMPDEST PUSH2 0x585 SWAP2 SWAP1 PUSH2 0xA65 JUMP JUMPDEST SWAP1 POP SWAP2 SWAP1 POP JUMP JUMPDEST PUSH2 0x594 PUSH2 0x78D JUMP JUMPDEST PUSH1 0x0 DUP1 DUP1 PUSH2 0x5A1 DUP6 PUSH2 0x36D JUMP JUMPDEST DUP5 PUSH1 0x0 ADD SWAP1 PUSH4 0xFFFFFFFF AND SWAP1 DUP2 PUSH4 0xFFFFFFFF AND DUP2 MSTORE POP POP PUSH2 0x5C9 PUSH2 0x7B2 PUSH4 0xFFFFFFFF AND PUSH2 0x517 JUMP JUMPDEST PUSH2 0x5DC DUP6 PUSH1 0x0 ADD MLOAD PUSH4 0xFFFFFFFF AND PUSH2 0x517 JUMP JUMPDEST PUSH2 0x5E6 SWAP2 SWAP1 PUSH2 0xACA JUMP JUMPDEST SWAP2 POP DUP2 PUSH4 0x1E28500 PUSH2 0x5F8 SWAP2 SWAP1 PUSH2 0xAFE JUMP JUMPDEST DUP4 PUSH2 0x603 SWAP2 SWAP1 PUSH2 0xA96 JUMP JUMPDEST SWAP3 POP DUP2 PUSH2 0x7B2 DUP6 PUSH1 0x0 ADD MLOAD PUSH2 0x618 SWAP2 SWAP1 PUSH2 0xB40 JUMP JUMPDEST PUSH4 0xFFFFFFFF AND PUSH2 0x628 SWAP2 SWAP1 PUSH2 0xACA JUMP JUMPDEST PUSH4 0x1E13380 PUSH2 0x637 SWAP2 SWAP1 PUSH2 0xAFE JUMP JUMPDEST DUP4 PUSH2 0x642 SWAP2 SWAP1 PUSH2 0xA96 JUMP JUMPDEST SWAP3 POP PUSH1 0x0 PUSH1 0x1 SWAP2 POP JUMPDEST PUSH1 0xC DUP3 PUSH1 0xFF AND GT PUSH2 0x6C2 JUMPI PUSH2 0x664 DUP3 DUP7 PUSH1 0x0 ADD MLOAD PUSH2 0x248 JUMP JUMPDEST PUSH1 0xFF AND PUSH3 0x15180 PUSH2 0x675 SWAP2 SWAP1 PUSH2 0xAFE JUMP JUMPDEST SWAP1 POP DUP6 DUP5 DUP3 PUSH2 0x684 SWAP2 SWAP1 PUSH2 0xA96 JUMP JUMPDEST GT ISZERO PUSH2 0x6A1 JUMPI DUP2 DUP6 PUSH1 0x20 ADD SWAP1 PUSH1 0xFF AND SWAP1 DUP2 PUSH1 0xFF AND DUP2 MSTORE POP POP PUSH2 0x6C2 JUMP JUMPDEST DUP1 DUP5 PUSH2 0x6AD SWAP2 SWAP1 PUSH2 0xA96 JUMP JUMPDEST SWAP4 POP DUP2 DUP1 PUSH2 0x6BA SWAP1 PUSH2 0xBA9 JUMP JUMPDEST SWAP3 POP POP PUSH2 0x64B JUMP JUMPDEST PUSH1 0x1 SWAP2 POP JUMPDEST PUSH2 0x6D9 DUP6 PUSH1 0x20 ADD MLOAD DUP7 PUSH1 0x0 ADD MLOAD PUSH2 0x248 JUMP JUMPDEST PUSH1 0xFF AND DUP3 PUSH1 0xFF AND GT PUSH2 0x736 JUMPI DUP6 DUP5 PUSH3 0x15180 PUSH2 0x6F5 SWAP2 SWAP1 PUSH2 0xA96 JUMP JUMPDEST GT ISZERO PUSH2 0x712 JUMPI DUP2 DUP6 PUSH1 0x40 ADD SWAP1 PUSH1 0xFF AND SWAP1 DUP2 PUSH1 0xFF AND DUP2 MSTORE POP POP PUSH2 0x736 JUMP JUMPDEST PUSH3 0x15180 DUP5 PUSH2 0x721 SWAP2 SWAP1 PUSH2 0xA96 JUMP JUMPDEST SWAP4 POP DUP2 DUP1 PUSH2 0x72E SWAP1 PUSH2 0xBA9 JUMP JUMPDEST SWAP3 POP POP PUSH2 0x6C7 JUMP JUMPDEST PUSH2 0x73F DUP7 PUSH2 0x314 JUMP JUMPDEST DUP6 PUSH1 0x60 ADD SWAP1 PUSH1 0xFF AND SWAP1 DUP2 PUSH1 0xFF AND DUP2 MSTORE POP POP PUSH2 0x759 DUP7 PUSH2 0x56B JUMP JUMPDEST DUP6 PUSH1 0x80 ADD SWAP1 PUSH1 0xFF AND SWAP1 DUP2 PUSH1 0xFF AND DUP2 MSTORE POP POP PUSH2 0x773 DUP7 PUSH2 0x357 JUMP JUMPDEST DUP6 PUSH1 0xA0 ADD SWAP1 PUSH1 0xFF AND SWAP1 DUP2 PUSH1 0xFF AND DUP2 MSTORE POP POP POP POP POP POP SWAP2 SWAP1 POP JUMP JUMPDEST PUSH1 0x40 MLOAD DUP1 PUSH1 0xC0 ADD PUSH1 0x40 MSTORE DUP1 PUSH1 0x0 PUSH4 0xFFFFFFFF AND DUP2 MSTORE PUSH1 0x20 ADD PUSH1 0x0 PUSH1 0xFF AND DUP2 MSTORE PUSH1 0x20 ADD PUSH1 0x0 PUSH1 0xFF AND DUP2 MSTORE PUSH1 0x20 ADD PUSH1 0x0 PUSH1 0xFF AND DUP2 MSTORE PUSH1 0x20 ADD PUSH1 0x0 PUSH1 0xFF AND DUP2 MSTORE PUSH1 0x20 ADD PUSH1 0x0 PUSH1 0xFF AND DUP2 MSTORE POP SWAP1 JUMP JUMPDEST PUSH1 0x0 DUP1 REVERT JUMPDEST PUSH1 0x0 PUSH1 0xFF DUP3 AND SWAP1 POP SWAP2 SWAP1 POP JUMP JUMPDEST PUSH2 0x7F3 DUP2 PUSH2 0x7DD JUMP JUMPDEST DUP2 EQ PUSH2 0x7FE JUMPI PUSH1 0x0 DUP1 REVERT JUMPDEST POP JUMP JUMPDEST PUSH1 0x0 DUP2 CALLDATALOAD SWAP1 POP PUSH2 0x810 DUP2 PUSH2 0x7EA JUMP JUMPDEST SWAP3 SWAP2 POP POP JUMP JUMPDEST PUSH1 0x0 PUSH4 0xFFFFFFFF DUP3 AND SWAP1 POP SWAP2 SWAP1 POP JUMP JUMPDEST PUSH2 0x82F DUP2 PUSH2 0x816 JUMP JUMPDEST DUP2 EQ PUSH2 0x83A JUMPI PUSH1 0x0 DUP1 REVERT JUMPDEST POP JUMP JUMPDEST PUSH1 0x0 DUP2 CALLDATALOAD SWAP1 POP PUSH2 0x84C DUP2 PUSH2 0x826 JUMP JUMPDEST SWAP3 SWAP2 POP POP JUMP JUMPDEST PUSH1 0x0 DUP1 PUSH1 0x40 DUP4 DUP6 SUB SLT ISZERO PUSH2 0x869 JUMPI PUSH2 0x868 PUSH2 0x7D8 JUMP JUMPDEST JUMPDEST PUSH1 0x0 PUSH2 0x877 DUP6 DUP3 DUP7 ADD PUSH2 0x801 JUMP JUMPDEST SWAP3 POP POP PUSH1 0x20 PUSH2 0x888 DUP6 DUP3 DUP7 ADD PUSH2 0x83D JUMP JUMPDEST SWAP2 POP POP SWAP3 POP SWAP3 SWAP1 POP JUMP JUMPDEST PUSH2 0x89B DUP2 PUSH2 0x7DD JUMP JUMPDEST DUP3 MSTORE POP POP JUMP JUMPDEST PUSH1 0x0 PUSH1 0x20 DUP3 ADD SWAP1 POP PUSH2 0x8B6 PUSH1 0x0 DUP4 ADD DUP5 PUSH2 0x892 JUMP JUMPDEST SWAP3 SWAP2 POP POP JUMP JUMPDEST PUSH1 0x0 DUP2 SWAP1 POP SWAP2 SWAP1 POP JUMP JUMPDEST PUSH2 0x8CF DUP2 PUSH2 0x8BC JUMP JUMPDEST DUP2 EQ PUSH2 0x8DA JUMPI PUSH1 0x0 DUP1 REVERT JUMPDEST POP JUMP JUMPDEST PUSH1 0x0 DUP2 CALLDATALOAD SWAP1 POP PUSH2 0x8EC DUP2 PUSH2 0x8C6 JUMP JUMPDEST SWAP3 SWAP2 POP POP JUMP JUMPDEST PUSH1 0x0 PUSH1 0x20 DUP3 DUP5 SUB SLT ISZERO PUSH2 0x908 JUMPI PUSH2 0x907 PUSH2 0x7D8 JUMP JUMPDEST JUMPDEST PUSH1 0x0 PUSH2 0x916 DUP5 DUP3 DUP6 ADD PUSH2 0x8DD JUMP JUMPDEST SWAP2 POP POP SWAP3 SWAP2 POP POP JUMP JUMPDEST PUSH2 0x928 DUP2 PUSH2 0x816 JUMP JUMPDEST DUP3 MSTORE POP POP JUMP JUMPDEST PUSH1 0x0 PUSH1 0x20 DUP3 ADD SWAP1 POP PUSH2 0x943 PUSH1 0x0 DUP4 ADD DUP5 PUSH2 0x91F JUMP JUMPDEST SWAP3 SWAP2 POP POP JUMP JUMPDEST PUSH1 0x0 PUSH1 0x20 DUP3 DUP5 SUB SLT ISZERO PUSH2 0x95F JUMPI PUSH2 0x95E PUSH2 0x7D8 JUMP JUMPDEST JUMPDEST PUSH1 0x0 PUSH2 0x96D DUP5 DUP3 DUP6 ADD PUSH2 0x83D JUMP JUMPDEST SWAP2 POP POP SWAP3 SWAP2 POP POP JUMP JUMPDEST PUSH1 0x0 DUP2 ISZERO ISZERO SWAP1 POP SWAP2 SWAP1 POP JUMP JUMPDEST PUSH2 0x98B DUP2 PUSH2 0x976 JUMP JUMPDEST DUP3 MSTORE POP POP JUMP JUMPDEST PUSH1 0x0 PUSH1 0x20 DUP3 ADD SWAP1 POP PUSH2 0x9A6 PUSH1 0x0 DUP4 ADD DUP5 PUSH2 0x982 JUMP JUMPDEST SWAP3 SWAP2 POP POP JUMP JUMPDEST PUSH2 0x9B5 DUP2 PUSH2 0x8BC JUMP JUMPDEST DUP3 MSTORE POP POP JUMP JUMPDEST PUSH1 0x0 PUSH1 0x20 DUP3 ADD SWAP1 POP PUSH2 0x9D0 PUSH1 0x0 DUP4 ADD DUP5 PUSH2 0x9AC JUMP JUMPDEST SWAP3 SWAP2 POP POP JUMP JUMPDEST PUSH32 0x4E487B7100000000000000000000000000000000000000000000000000000000 PUSH1 0x0 MSTORE PUSH1 0x12 PUSH1 0x4 MSTORE PUSH1 0x24 PUSH1 0x0 REVERT JUMPDEST PUSH32 0x4E487B7100000000000000000000000000000000000000000000000000000000 PUSH1 0x0 MSTORE PUSH1 0x11 PUSH1 0x4 MSTORE PUSH1 0x24 PUSH1 0x0 REVERT JUMPDEST PUSH1 0x0 PUSH2 0xA3F DUP3 PUSH2 0x8BC JUMP JUMPDEST SWAP2 POP PUSH2 0xA4A DUP4 PUSH2 0x8BC JUMP JUMPDEST SWAP3 POP DUP3 PUSH2 0xA5A JUMPI PUSH2 0xA59 PUSH2 0x9D6 JUMP JUMPDEST JUMPDEST DUP3 DUP3 DIV SWAP1 POP SWAP3 SWAP2 POP POP JUMP JUMPDEST PUSH1 0x0 PUSH2 0xA70 DUP3 PUSH2 0x8BC JUMP JUMPDEST SWAP2 POP PUSH2 0xA7B DUP4 PUSH2 0x8BC JUMP JUMPDEST SWAP3 POP DUP3 PUSH2 0xA8B JUMPI PUSH2 0xA8A PUSH2 0x9D6 JUMP JUMPDEST JUMPDEST DUP3 DUP3 MOD SWAP1 POP SWAP3 SWAP2 POP POP JUMP JUMPDEST PUSH1 0x0 PUSH2 0xAA1 DUP3 PUSH2 0x8BC JUMP JUMPDEST SWAP2 POP PUSH2 0xAAC DUP4 PUSH2 0x8BC JUMP JUMPDEST SWAP3 POP DUP3 DUP3 ADD SWAP1 POP DUP1 DUP3 GT ISZERO PUSH2 0xAC4 JUMPI PUSH2 0xAC3 PUSH2 0xA05 JUMP JUMPDEST JUMPDEST SWAP3 SWAP2 POP POP JUMP JUMPDEST PUSH1 0x0 PUSH2 0xAD5 DUP3 PUSH2 0x8BC JUMP JUMPDEST SWAP2 POP PUSH2 0xAE0 DUP4 PUSH2 0x8BC JUMP JUMPDEST SWAP3 POP DUP3 DUP3 SUB SWAP1 POP DUP2 DUP2 GT ISZERO PUSH2 0xAF8 JUMPI PUSH2 0xAF7 PUSH2 0xA05 JUMP JUMPDEST JUMPDEST SWAP3 SWAP2 POP POP JUMP JUMPDEST PUSH1 0x0 PUSH2 0xB09 DUP3 PUSH2 0x8BC JUMP JUMPDEST SWAP2 POP PUSH2 0xB14 DUP4 PUSH2 0x8BC JUMP JUMPDEST SWAP3 POP DUP3 DUP3 MUL PUSH2 0xB22 DUP2 PUSH2 0x8BC JUMP JUMPDEST SWAP2 POP DUP3 DUP3 DIV DUP5 EQ DUP4 ISZERO OR PUSH2 0xB39 JUMPI PUSH2 0xB38 PUSH2 0xA05 JUMP JUMPDEST JUMPDEST POP SWAP3 SWAP2 POP POP JUMP JUMPDEST PUSH1 0x0 PUSH2 0xB4B DUP3 PUSH2 0x816 JUMP JUMPDEST SWAP2 POP PUSH2 0xB56 DUP4 PUSH2 0x816 JUMP JUMPDEST SWAP3 POP DUP3 DUP3 SUB SWAP1 POP PUSH4 0xFFFFFFFF DUP2 GT ISZERO PUSH2 0xB72 JUMPI PUSH2 0xB71 PUSH2 0xA05 JUMP JUMPDEST JUMPDEST SWAP3 SWAP2 POP POP JUMP JUMPDEST PUSH1 0x0 PUSH2 0xB83 DUP3 PUSH2 0x816 JUMP JUMPDEST SWAP2 POP PUSH2 0xB8E DUP4 PUSH2 0x816 JUMP JUMPDEST SWAP3 POP DUP3 PUSH2 0xB9E JUMPI PUSH2 0xB9D PUSH2 0x9D6 JUMP JUMPDEST JUMPDEST DUP3 DUP3 MOD SWAP1 POP SWAP3 SWAP2 POP POP JUMP JUMPDEST PUSH1 0x0 PUSH2 0xBB4 DUP3 PUSH2 0x7DD JUMP JUMPDEST SWAP2 POP PUSH1 0xFF DUP3 SUB PUSH2 0xBC7 JUMPI PUSH2 0xBC6 PUSH2 0xA05 JUMP JUMPDEST JUMPDEST PUSH1 0x1 DUP3 ADD SWAP1 POP SWAP2 SWAP1 POP JUMP INVALID LOG2 PUSH5 0x6970667358 0x22 SLT KECCAK256 RETURNDATASIZE PUSH21 0xFB765D9282BDF4D856592D0AEF1B4CBB12F7006621 0xB3 ADDRESS 0x4A 0xD5 SHR PUSH27 0xC39E8264736F6C6343000811003300000000000000000000000000 "
				},
				"gasEstimates": {
					"creation": {
						"codeDepositCost": "616000",
						"executionCost": "651",
						"totalCost": "616651"
					},
					"external": {
						"getDay(uint256)": "infinite",
						"getDaysInMonth(uint8,uint32)": "infinite",
						"getHour(uint256)": "infinite",
						"getMinute(uint256)": "infinite",
						"getMonth(uint256)": "infinite",
						"getSecond(uint256)": "infinite",
						"getYear(uint256)": "infinite",
						"isLeapYear(uint32)": "infinite",
						"leapYearsBefore(uint256)": "infinite"
					},
					"internal": {
						"parseTimestamp(uint256)": "infinite"
					}
				},
				"methodIdentifiers": {
					"getDay(uint256)": "65c72840",
					"getDaysInMonth(uint8,uint32)": "0534c9a6",
					"getHour(uint256)": "3e239e1a",
					"getMinute(uint256)": "fa93f883",
					"getMonth(uint256)": "a324ad24",
					"getSecond(uint256)": "8aa001fc",
					"getYear(uint256)": "92d66313",
					"isLeapYear(uint32)": "a01f8518",
					"leapYearsBefore(uint256)": "b1999937"
				}
			},
			"storageLayout": {
				"storage": [],
				"types": null
			},
			"userdoc": {
				"kind": "user",
				"methods": {},
				"version": 1
			}
		}
	}
}