{
	"DateTime.sol": {
		"DateTime": {
			"abi": [
				{
					"inputs": [
						{
							"internalType": "uint256",
							"name": "timestamp",
							"type": "uint256"
						}
					],
					"name": "getDay",
					"outputs": [
						{
							"internalType": "uint8",
							"name": "",
							"type": "uint8"
						}
					],
					"stateMutability": "pure",
					"type": "function"
				},
				{
					"inputs": [
						{
							"internalType": "uint8",
							"name": "month",
							"type": "uint8"
						},
						{
							"internalType": "uint16",
							"name": "year",
							"type": "uint16"
						}
					],
					"name": "getDaysInMonth",
					"outputs": [
						{
							"internalType": "uint8",
							"name": "",
							"type": "uint8"
						}
					],
					"stateMutability": "pure",
					"type": "function"
				},
				{
					"inputs": [
						{
							"internalType": "uint256",
							"name": "timestamp",
							"type": "uint256"
						}
					],
					"name": "getHour",
					"outputs": [
						{
							"internalType": "uint8",
							"name": "",
							"type": "uint8"
						}
					],
					"stateMutability": "pure",
					"type": "function"
				},
				{
					"inputs": [
						{
							"internalType": "uint256",
							"name": "timestamp",
							"type": "uint256"
						}
					],
					"name": "getMinute",
					"outputs": [
						{
							"internalType": "uint8",
							"name": "",
							"type": "uint8"
						}
					],
					"stateMutability": "pure",
					"type": "function"
				},
				{
					"inputs": [
						{
							"internalType": "uint256",
							"name": "timestamp",
							"type": "uint256"
						}
					],
					"name": "getMonth",
					"outputs": [
						{
							"internalType": "uint8",
							"name": "",
							"type": "uint8"
						}
					],
					"stateMutability": "pure",
					"type": "function"
				},
				{
					"inputs": [
						{
							"internalType": "uint256",
							"name": "timestamp",
							"type": "uint256"
						}
					],
					"name": "getSecond",
					"outputs": [
						{
							"internalType": "uint8",
							"name": "",
							"type": "uint8"
						}
					],
					"stateMutability": "pure",
					"type": "function"
				},
				{
					"inputs": [
						{
							"internalType": "uint256",
							"name": "timestamp",
							"type": "uint256"
						}
					],
					"name": "getYear",
					"outputs": [
						{
							"internalType": "uint16",
							"name": "",
							"type": "uint16"
						}
					],
					"stateMutability": "pure",
					"type": "function"
				},
				{
					"inputs": [
						{
							"internalType": "uint16",
							"name": "year",
							"type": "uint16"
						}
					],
					"name": "isLeapYear",
					"outputs": [
						{
							"internalType": "bool",
							"name": "",
							"type": "bool"
						}
					],
					"stateMutability": "pure",
					"type": "function"
				},
				{
					"inputs": [
						{
							"internalType": "uint256",
							"name": "year",
							"type": "uint256"
						}
					],
					"name": "leapYearsBefore",
					"outputs": [
						{
							"internalType": "uint256",
							"name": "",
							"type": "uint256"
						}
					],
					"stateMutability": "pure",
					"type": "function"
				}
			],
			"devdoc": {
				"kind": "dev",
				"methods": {},
				"version": 1
			},
			"evm": {
				"assembly": "    /* \"DateTime.sol\":57:4950  contract DateTime {... */\n  mstore(0x40, 0x80)\n  callvalue\n  dup1\n  iszero\n  tag_1\n  jumpi\n  0x00\n  dup1\n  revert\ntag_1:\n  pop\n  dataSize(sub_0)\n  dup1\n  dataOffset(sub_0)\n  0x00\n  codecopy\n  0x00\n  return\nstop\n\nsub_0: assembly {\n        /* \"DateTime.sol\":57:4950  contract DateTime {... */\n      mstore(0x40, 0x80)\n      callvalue\n      dup1\n      iszero\n      tag_1\n      jumpi\n      0x00\n      dup1\n      revert\n    tag_1:\n      pop\n      jumpi(tag_2, lt(calldatasize, 0x04))\n      shr(0xe0, calldataload(0x00))\n      dup1\n      0xa324ad24\n      gt\n      tag_12\n      jumpi\n      dup1\n      0xa324ad24\n      eq\n      tag_7\n      jumpi\n      dup1\n      0xa6f0e577\n      eq\n      tag_8\n      jumpi\n      dup1\n      0xb1999937\n      eq\n      tag_9\n      jumpi\n      dup1\n      0xb238ad0e\n      eq\n      tag_10\n      jumpi\n      dup1\n      0xfa93f883\n      eq\n      tag_11\n      jumpi\n      jump(tag_2)\n    tag_12:\n      dup1\n      0x3e239e1a\n      eq\n      tag_3\n      jumpi\n      dup1\n      0x65c72840\n      eq\n      tag_4\n      jumpi\n      dup1\n      0x8aa001fc\n      eq\n      tag_5\n      jumpi\n      dup1\n      0x92d66313\n      eq\n      tag_6\n      jumpi\n    tag_2:\n      0x00\n      dup1\n      revert\n        /* \"DateTime.sol\":4549:4679  function getHour(uint timestamp) public pure returns (uint8) {... */\n    tag_3:\n      tag_13\n      0x04\n      dup1\n      calldatasize\n      sub\n      dup2\n      add\n      swap1\n      tag_14\n      swap2\n      swap1\n      tag_15\n      jump\t// in\n    tag_14:\n      tag_16\n      jump\t// in\n    tag_13:\n      mload(0x40)\n      tag_17\n      swap2\n      swap1\n      tag_18\n      jump\t// in\n    tag_17:\n      mload(0x40)\n      dup1\n      swap2\n      sub\n      swap1\n      return\n        /* \"DateTime.sol\":4414:4539  function getDay(uint timestamp) public pure returns (uint8) {... */\n    tag_4:\n      tag_19\n      0x04\n      dup1\n      calldatasize\n      sub\n      dup2\n      add\n      swap1\n      tag_20\n      swap2\n      swap1\n      tag_15\n      jump\t// in\n    tag_20:\n      tag_21\n      jump\t// in\n    tag_19:\n      mload(0x40)\n      tag_22\n      swap2\n      swap1\n      tag_18\n      jump\t// in\n    tag_22:\n      mload(0x40)\n      dup1\n      swap2\n      sub\n      swap1\n      return\n        /* \"DateTime.sol\":4826:4946  function getSecond(uint timestamp) public pure returns (uint8) {... */\n    tag_5:\n      tag_23\n      0x04\n      dup1\n      calldatasize\n      sub\n      dup2\n      add\n      swap1\n      tag_24\n      swap2\n      swap1\n      tag_15\n      jump\t// in\n    tag_24:\n      tag_25\n      jump\t// in\n    tag_23:\n      mload(0x40)\n      tag_26\n      swap2\n      swap1\n      tag_18\n      jump\t// in\n    tag_26:\n      mload(0x40)\n      dup1\n      swap2\n      sub\n      swap1\n      return\n        /* \"DateTime.sol\":3294:4265  function getYear(uint timestamp) public pure returns (uint16) {... */\n    tag_6:\n      tag_27\n      0x04\n      dup1\n      calldatasize\n      sub\n      dup2\n      add\n      swap1\n      tag_28\n      swap2\n      swap1\n      tag_15\n      jump\t// in\n    tag_28:\n      tag_29\n      jump\t// in\n    tag_27:\n      mload(0x40)\n      tag_30\n      swap2\n      swap1\n      tag_31\n      jump\t// in\n    tag_30:\n      mload(0x40)\n      dup1\n      swap2\n      sub\n      swap1\n      return\n        /* \"DateTime.sol\":4275:4404  function getMonth(uint timestamp) public pure returns (uint8) {... */\n    tag_7:\n      tag_32\n      0x04\n      dup1\n      calldatasize\n      sub\n      dup2\n      add\n      swap1\n      tag_33\n      swap2\n      swap1\n      tag_15\n      jump\t// in\n    tag_33:\n      tag_34\n      jump\t// in\n    tag_32:\n      mload(0x40)\n      tag_35\n      swap2\n      swap1\n      tag_18\n      jump\t// in\n    tag_35:\n      mload(0x40)\n      dup1\n      swap2\n      sub\n      swap1\n      return\n        /* \"DateTime.sol\":584:966  function isLeapYear(uint16 year) public pure returns (bool) {... */\n    tag_8:\n      tag_36\n      0x04\n      dup1\n      calldatasize\n      sub\n      dup2\n      add\n      swap1\n      tag_37\n      swap2\n      swap1\n      tag_38\n      jump\t// in\n    tag_37:\n      tag_39\n      jump\t// in\n    tag_36:\n      mload(0x40)\n      tag_40\n      swap2\n      swap1\n      tag_41\n      jump\t// in\n    tag_40:\n      mload(0x40)\n      dup1\n      swap2\n      sub\n      swap1\n      return\n        /* \"DateTime.sol\":976:1136  function leapYearsBefore(uint year) public pure returns (uint) {... */\n    tag_9:\n      tag_42\n      0x04\n      dup1\n      calldatasize\n      sub\n      dup2\n      add\n      swap1\n      tag_43\n      swap2\n      swap1\n      tag_15\n      jump\t// in\n    tag_43:\n      tag_44\n      jump\t// in\n    tag_42:\n      mload(0x40)\n      tag_45\n      swap2\n      swap1\n      tag_46\n      jump\t// in\n    tag_45:\n      mload(0x40)\n      dup1\n      swap2\n      sub\n      swap1\n      return\n        /* \"DateTime.sol\":1146:1717  function getDaysInMonth(uint8 month, uint16 year) public pure returns (uint8) {... */\n    tag_10:\n      tag_47\n      0x04\n      dup1\n      calldatasize\n      sub\n      dup2\n      add\n      swap1\n      tag_48\n      swap2\n      swap1\n      tag_49\n      jump\t// in\n    tag_48:\n      tag_50\n      jump\t// in\n    tag_47:\n      mload(0x40)\n      tag_51\n      swap2\n      swap1\n      tag_18\n      jump\t// in\n    tag_51:\n      mload(0x40)\n      dup1\n      swap2\n      sub\n      swap1\n      return\n        /* \"DateTime.sol\":4689:4816  function getMinute(uint timestamp) public pure returns (uint8) {... */\n    tag_11:\n      tag_52\n      0x04\n      dup1\n      calldatasize\n      sub\n      dup2\n      add\n      swap1\n      tag_53\n      swap2\n      swap1\n      tag_15\n      jump\t// in\n    tag_53:\n      tag_54\n      jump\t// in\n    tag_52:\n      mload(0x40)\n      tag_55\n      swap2\n      swap1\n      tag_18\n      jump\t// in\n    tag_55:\n      mload(0x40)\n      dup1\n      swap2\n      sub\n      swap1\n      return\n        /* \"DateTime.sol\":4549:4679  function getHour(uint timestamp) public pure returns (uint8) {... */\n    tag_16:\n        /* \"DateTime.sol\":4603:4608  uint8 */\n      0x00\n        /* \"DateTime.sol\":4665:4667  24 */\n      0x18\n        /* \"DateTime.sol\":4659:4661  60 */\n      0x3c\n        /* \"DateTime.sol\":4654:4656  60 */\n      dup1\n        /* \"DateTime.sol\":4642:4651  timestamp */\n      dup5\n        /* \"DateTime.sol\":4642:4656  timestamp / 60 */\n      tag_57\n      swap2\n      swap1\n      tag_58\n      jump\t// in\n    tag_57:\n        /* \"DateTime.sol\":4642:4661  timestamp / 60 / 60 */\n      tag_59\n      swap2\n      swap1\n      tag_58\n      jump\t// in\n    tag_59:\n        /* \"DateTime.sol\":4641:4667  (timestamp / 60 / 60) % 24 */\n      tag_60\n      swap2\n      swap1\n      tag_61\n      jump\t// in\n    tag_60:\n        /* \"DateTime.sol\":4628:4668  return uint8((timestamp / 60 / 60) % 24) */\n      swap1\n      pop\n        /* \"DateTime.sol\":4549:4679  function getHour(uint timestamp) public pure returns (uint8) {... */\n      swap2\n      swap1\n      pop\n      jump\t// out\n        /* \"DateTime.sol\":4414:4539  function getDay(uint timestamp) public pure returns (uint8) {... */\n    tag_21:\n        /* \"DateTime.sol\":4467:4472  uint8 */\n      0x00\n        /* \"DateTime.sol\":4499:4524  parseTimestamp(timestamp) */\n      tag_63\n        /* \"DateTime.sol\":4514:4523  timestamp */\n      dup3\n        /* \"DateTime.sol\":4499:4513  parseTimestamp */\n      tag_64\n        /* \"DateTime.sol\":4499:4524  parseTimestamp(timestamp) */\n      jump\t// in\n    tag_63:\n        /* \"DateTime.sol\":4499:4528  parseTimestamp(timestamp).day */\n      0x40\n      add\n      mload\n        /* \"DateTime.sol\":4492:4528  return parseTimestamp(timestamp).day */\n      swap1\n      pop\n        /* \"DateTime.sol\":4414:4539  function getDay(uint timestamp) public pure returns (uint8) {... */\n      swap2\n      swap1\n      pop\n      jump\t// out\n        /* \"DateTime.sol\":4826:4946  function getSecond(uint timestamp) public pure returns (uint8) {... */\n    tag_25:\n        /* \"DateTime.sol\":4882:4887  uint8 */\n      0x00\n        /* \"DateTime.sol\":4932:4934  60 */\n      0x3c\n        /* \"DateTime.sol\":4920:4929  timestamp */\n      dup3\n        /* \"DateTime.sol\":4920:4934  timestamp % 60 */\n      tag_66\n      swap2\n      swap1\n      tag_61\n      jump\t// in\n    tag_66:\n        /* \"DateTime.sol\":4907:4935  return uint8(timestamp % 60) */\n      swap1\n      pop\n        /* \"DateTime.sol\":4826:4946  function getSecond(uint timestamp) public pure returns (uint8) {... */\n      swap2\n      swap1\n      pop\n      jump\t// out\n        /* \"DateTime.sol\":3294:4265  function getYear(uint timestamp) public pure returns (uint16) {... */\n    tag_29:\n        /* \"DateTime.sol\":3348:3354  uint16 */\n      0x00\n        /* \"DateTime.sol\":3374:3398  uint secondsAccountedFor */\n      dup1\n        /* \"DateTime.sol\":3401:3402  0 */\n      0x00\n        /* \"DateTime.sol\":3374:3402  uint secondsAccountedFor = 0 */\n      swap1\n      pop\n        /* \"DateTime.sol\":3420:3431  uint16 year */\n      0x00\n        /* \"DateTime.sol\":3449:3466  uint numLeapYears */\n      dup1\n        /* \"DateTime.sol\":374:382  31536000 */\n      0x01e13380\n        /* \"DateTime.sol\":3537:3546  timestamp */\n      dup6\n        /* \"DateTime.sol\":3537:3564  timestamp / YEAR_IN_SECONDS */\n      tag_68\n      swap2\n      swap1\n      tag_58\n      jump\t// in\n    tag_68:\n        /* \"DateTime.sol\":569:573  1970 */\n      0x07b2\n        /* \"DateTime.sol\":3523:3564  ORIGIN_YEAR + timestamp / YEAR_IN_SECONDS */\n      0xffff\n      and\n      tag_69\n      swap2\n      swap1\n      tag_70\n      jump\t// in\n    tag_69:\n        /* \"DateTime.sol\":3509:3565  year = uint16(ORIGIN_YEAR + timestamp / YEAR_IN_SECONDS) */\n      swap2\n      pop\n        /* \"DateTime.sol\":3622:3650  leapYearsBefore(ORIGIN_YEAR) */\n      tag_71\n        /* \"DateTime.sol\":569:573  1970 */\n      0x07b2\n        /* \"DateTime.sol\":3622:3650  leapYearsBefore(ORIGIN_YEAR) */\n      0xffff\n      and\n        /* \"DateTime.sol\":3622:3637  leapYearsBefore */\n      tag_44\n        /* \"DateTime.sol\":3622:3650  leapYearsBefore(ORIGIN_YEAR) */\n      jump\t// in\n    tag_71:\n        /* \"DateTime.sol\":3598:3619  leapYearsBefore(year) */\n      tag_72\n        /* \"DateTime.sol\":3614:3618  year */\n      dup4\n        /* \"DateTime.sol\":3598:3619  leapYearsBefore(year) */\n      0xffff\n      and\n        /* \"DateTime.sol\":3598:3613  leapYearsBefore */\n      tag_44\n        /* \"DateTime.sol\":3598:3619  leapYearsBefore(year) */\n      jump\t// in\n    tag_72:\n        /* \"DateTime.sol\":3598:3650  leapYearsBefore(year) - leapYearsBefore(ORIGIN_YEAR) */\n      tag_73\n      swap2\n      swap1\n      tag_74\n      jump\t// in\n    tag_73:\n        /* \"DateTime.sol\":3583:3650  numLeapYears = leapYearsBefore(year) - leapYearsBefore(ORIGIN_YEAR) */\n      swap1\n      pop\n        /* \"DateTime.sol\":3715:3727  numLeapYears */\n      dup1\n        /* \"DateTime.sol\":429:437  31622400 */\n      0x01e28500\n        /* \"DateTime.sol\":3692:3727  LEAP_YEAR_IN_SECONDS * numLeapYears */\n      tag_75\n      swap2\n      swap1\n      tag_76\n      jump\t// in\n    tag_75:\n        /* \"DateTime.sol\":3669:3727  secondsAccountedFor += LEAP_YEAR_IN_SECONDS * numLeapYears */\n      dup4\n      tag_77\n      swap2\n      swap1\n      tag_70\n      jump\t// in\n    tag_77:\n      swap3\n      pop\n        /* \"DateTime.sol\":3808:3820  numLeapYears */\n      dup1\n        /* \"DateTime.sol\":569:573  1970 */\n      0x07b2\n        /* \"DateTime.sol\":3787:3791  year */\n      dup4\n        /* \"DateTime.sol\":3787:3805  year - ORIGIN_YEAR */\n      tag_78\n      swap2\n      swap1\n      tag_79\n      jump\t// in\n    tag_78:\n        /* \"DateTime.sol\":3787:3820  year - ORIGIN_YEAR - numLeapYears */\n      0xffff\n      and\n      tag_80\n      swap2\n      swap1\n      tag_74\n      jump\t// in\n    tag_80:\n        /* \"DateTime.sol\":374:382  31536000 */\n      0x01e13380\n        /* \"DateTime.sol\":3768:3821  YEAR_IN_SECONDS * (year - ORIGIN_YEAR - numLeapYears) */\n      tag_81\n      swap2\n      swap1\n      tag_76\n      jump\t// in\n    tag_81:\n        /* \"DateTime.sol\":3745:3821  secondsAccountedFor += YEAR_IN_SECONDS * (year - ORIGIN_YEAR - numLeapYears) */\n      dup4\n      tag_82\n      swap2\n      swap1\n      tag_70\n      jump\t// in\n    tag_82:\n      swap3\n      pop\n        /* \"DateTime.sol\":3840:4226  while (secondsAccountedFor > timestamp) {... */\n    tag_83:\n        /* \"DateTime.sol\":3869:3878  timestamp */\n      dup5\n        /* \"DateTime.sol\":3847:3866  secondsAccountedFor */\n      dup4\n        /* \"DateTime.sol\":3847:3878  secondsAccountedFor > timestamp */\n      gt\n        /* \"DateTime.sol\":3840:4226  while (secondsAccountedFor > timestamp) {... */\n      iszero\n      tag_84\n      jumpi\n        /* \"DateTime.sol\":3910:3938  isLeapYear(uint16(year - 1)) */\n      tag_85\n        /* \"DateTime.sol\":3935:3936  1 */\n      0x01\n        /* \"DateTime.sol\":3928:3932  year */\n      dup4\n        /* \"DateTime.sol\":3928:3936  year - 1 */\n      tag_86\n      swap2\n      swap1\n      tag_79\n      jump\t// in\n    tag_86:\n        /* \"DateTime.sol\":3910:3920  isLeapYear */\n      tag_39\n        /* \"DateTime.sol\":3910:3938  isLeapYear(uint16(year - 1)) */\n      jump\t// in\n    tag_85:\n        /* \"DateTime.sol\":3906:4173  if (isLeapYear(uint16(year - 1))) {... */\n      iszero\n      tag_87\n      jumpi\n        /* \"DateTime.sol\":429:437  31622400 */\n      0x01e28500\n        /* \"DateTime.sol\":3974:4017  secondsAccountedFor -= LEAP_YEAR_IN_SECONDS */\n      dup4\n      tag_88\n      swap2\n      swap1\n      tag_74\n      jump\t// in\n    tag_88:\n      swap3\n      pop\n        /* \"DateTime.sol\":3906:4173  if (isLeapYear(uint16(year - 1))) {... */\n      jump(tag_89)\n    tag_87:\n        /* \"DateTime.sol\":374:382  31536000 */\n      0x01e13380\n        /* \"DateTime.sol\":4108:4146  secondsAccountedFor -= YEAR_IN_SECONDS */\n      dup4\n      tag_90\n      swap2\n      swap1\n      tag_74\n      jump\t// in\n    tag_90:\n      swap3\n      pop\n        /* \"DateTime.sol\":3906:4173  if (isLeapYear(uint16(year - 1))) {... */\n    tag_89:\n        /* \"DateTime.sol\":4206:4207  1 */\n      0x01\n        /* \"DateTime.sol\":4198:4207  year -= 1 */\n      dup3\n      tag_91\n      swap2\n      swap1\n      tag_79\n      jump\t// in\n    tag_91:\n      swap2\n      pop\n        /* \"DateTime.sol\":3840:4226  while (secondsAccountedFor > timestamp) {... */\n      jump(tag_83)\n    tag_84:\n        /* \"DateTime.sol\":4250:4254  year */\n      dup2\n        /* \"DateTime.sol\":4243:4254  return year */\n      swap4\n      pop\n      pop\n      pop\n      pop\n        /* \"DateTime.sol\":3294:4265  function getYear(uint timestamp) public pure returns (uint16) {... */\n      swap2\n      swap1\n      pop\n      jump\t// out\n        /* \"DateTime.sol\":4275:4404  function getMonth(uint timestamp) public pure returns (uint8) {... */\n    tag_34:\n        /* \"DateTime.sol\":4330:4335  uint8 */\n      0x00\n        /* \"DateTime.sol\":4362:4387  parseTimestamp(timestamp) */\n      tag_93\n        /* \"DateTime.sol\":4377:4386  timestamp */\n      dup3\n        /* \"DateTime.sol\":4362:4376  parseTimestamp */\n      tag_64\n        /* \"DateTime.sol\":4362:4387  parseTimestamp(timestamp) */\n      jump\t// in\n    tag_93:\n        /* \"DateTime.sol\":4362:4393  parseTimestamp(timestamp).month */\n      0x20\n      add\n      mload\n        /* \"DateTime.sol\":4355:4393  return parseTimestamp(timestamp).month */\n      swap1\n      pop\n        /* \"DateTime.sol\":4275:4404  function getMonth(uint timestamp) public pure returns (uint8) {... */\n      swap2\n      swap1\n      pop\n      jump\t// out\n        /* \"DateTime.sol\":584:966  function isLeapYear(uint16 year) public pure returns (bool) {... */\n    tag_39:\n        /* \"DateTime.sol\":638:642  bool */\n      0x00\n        /* \"DateTime.sol\":678:679  0 */\n      dup1\n        /* \"DateTime.sol\":673:674  4 */\n      0x04\n        /* \"DateTime.sol\":666:670  year */\n      dup4\n        /* \"DateTime.sol\":666:674  year % 4 */\n      tag_95\n      swap2\n      swap1\n      tag_96\n      jump\t// in\n    tag_95:\n        /* \"DateTime.sol\":666:679  year % 4 != 0 */\n      0xffff\n      and\n      eq\n        /* \"DateTime.sol\":662:738  if (year % 4 != 0) {... */\n      tag_97\n      jumpi\n        /* \"DateTime.sol\":714:719  false */\n      0x00\n        /* \"DateTime.sol\":707:719  return false */\n      swap1\n      pop\n      jump(tag_94)\n        /* \"DateTime.sol\":662:738  if (year % 4 != 0) {... */\n    tag_97:\n        /* \"DateTime.sol\":773:774  0 */\n      0x00\n        /* \"DateTime.sol\":766:769  100 */\n      0x64\n        /* \"DateTime.sol\":759:763  year */\n      dup4\n        /* \"DateTime.sol\":759:769  year % 100 */\n      tag_98\n      swap2\n      swap1\n      tag_96\n      jump\t// in\n    tag_98:\n        /* \"DateTime.sol\":759:774  year % 100 != 0 */\n      0xffff\n      and\n      eq\n        /* \"DateTime.sol\":755:832  if (year % 100 != 0) {... */\n      tag_99\n      jumpi\n        /* \"DateTime.sol\":809:813  true */\n      0x01\n        /* \"DateTime.sol\":802:813  return true */\n      swap1\n      pop\n      jump(tag_94)\n        /* \"DateTime.sol\":755:832  if (year % 100 != 0) {... */\n    tag_99:\n        /* \"DateTime.sol\":867:868  0 */\n      0x00\n        /* \"DateTime.sol\":860:863  400 */\n      0x0190\n        /* \"DateTime.sol\":853:857  year */\n      dup4\n        /* \"DateTime.sol\":853:863  year % 400 */\n      tag_100\n      swap2\n      swap1\n      tag_96\n      jump\t// in\n    tag_100:\n        /* \"DateTime.sol\":853:868  year % 400 != 0 */\n      0xffff\n      and\n      eq\n        /* \"DateTime.sol\":849:927  if (year % 400 != 0) {... */\n      tag_101\n      jumpi\n        /* \"DateTime.sol\":903:908  false */\n      0x00\n        /* \"DateTime.sol\":896:908  return false */\n      swap1\n      pop\n      jump(tag_94)\n        /* \"DateTime.sol\":849:927  if (year % 400 != 0) {... */\n    tag_101:\n        /* \"DateTime.sol\":951:955  true */\n      0x01\n        /* \"DateTime.sol\":944:955  return true */\n      swap1\n      pop\n        /* \"DateTime.sol\":584:966  function isLeapYear(uint16 year) public pure returns (bool) {... */\n    tag_94:\n      swap2\n      swap1\n      pop\n      jump\t// out\n        /* \"DateTime.sol\":976:1136  function leapYearsBefore(uint year) public pure returns (uint) {... */\n    tag_44:\n        /* \"DateTime.sol\":1033:1037  uint */\n      0x00\n        /* \"DateTime.sol\":1065:1066  1 */\n      0x01\n        /* \"DateTime.sol\":1057:1066  year -= 1 */\n      dup3\n      tag_103\n      swap2\n      swap1\n      tag_74\n      jump\t// in\n    tag_103:\n      swap2\n      pop\n        /* \"DateTime.sol\":1122:1125  400 */\n      0x0190\n        /* \"DateTime.sol\":1115:1119  year */\n      dup3\n        /* \"DateTime.sol\":1115:1125  year / 400 */\n      tag_104\n      swap2\n      swap1\n      tag_58\n      jump\t// in\n    tag_104:\n        /* \"DateTime.sol\":1109:1112  100 */\n      0x64\n        /* \"DateTime.sol\":1102:1106  year */\n      dup4\n        /* \"DateTime.sol\":1102:1112  year / 100 */\n      tag_105\n      swap2\n      swap1\n      tag_58\n      jump\t// in\n    tag_105:\n        /* \"DateTime.sol\":1098:1099  4 */\n      0x04\n        /* \"DateTime.sol\":1091:1095  year */\n      dup5\n        /* \"DateTime.sol\":1091:1099  year / 4 */\n      tag_106\n      swap2\n      swap1\n      tag_58\n      jump\t// in\n    tag_106:\n        /* \"DateTime.sol\":1091:1112  year / 4 - year / 100 */\n      tag_107\n      swap2\n      swap1\n      tag_74\n      jump\t// in\n    tag_107:\n        /* \"DateTime.sol\":1091:1125  year / 4 - year / 100 + year / 400 */\n      tag_108\n      swap2\n      swap1\n      tag_70\n      jump\t// in\n    tag_108:\n        /* \"DateTime.sol\":1084:1125  return year / 4 - year / 100 + year / 400 */\n      swap1\n      pop\n        /* \"DateTime.sol\":976:1136  function leapYearsBefore(uint year) public pure returns (uint) {... */\n      swap2\n      swap1\n      pop\n      jump\t// out\n        /* \"DateTime.sol\":1146:1717  function getDaysInMonth(uint8 month, uint16 year) public pure returns (uint8) {... */\n    tag_50:\n        /* \"DateTime.sol\":1217:1222  uint8 */\n      0x00\n        /* \"DateTime.sol\":1255:1256  1 */\n      0x01\n        /* \"DateTime.sol\":1246:1251  month */\n      dup4\n        /* \"DateTime.sol\":1246:1256  month == 1 */\n      0xff\n      and\n      eq\n        /* \"DateTime.sol\":1246:1270  month == 1 || month == 3 */\n      dup1\n      tag_110\n      jumpi\n      pop\n        /* \"DateTime.sol\":1269:1270  3 */\n      0x03\n        /* \"DateTime.sol\":1260:1265  month */\n      dup4\n        /* \"DateTime.sol\":1260:1270  month == 3 */\n      0xff\n      and\n      eq\n        /* \"DateTime.sol\":1246:1270  month == 1 || month == 3 */\n    tag_110:\n        /* \"DateTime.sol\":1246:1284  month == 1 || month == 3 || month == 5 */\n      dup1\n      tag_111\n      jumpi\n      pop\n        /* \"DateTime.sol\":1283:1284  5 */\n      0x05\n        /* \"DateTime.sol\":1274:1279  month */\n      dup4\n        /* \"DateTime.sol\":1274:1284  month == 5 */\n      0xff\n      and\n      eq\n        /* \"DateTime.sol\":1246:1284  month == 1 || month == 3 || month == 5 */\n    tag_111:\n        /* \"DateTime.sol\":1246:1298  month == 1 || month == 3 || month == 5 || month == 7 */\n      dup1\n      tag_112\n      jumpi\n      pop\n        /* \"DateTime.sol\":1297:1298  7 */\n      0x07\n        /* \"DateTime.sol\":1288:1293  month */\n      dup4\n        /* \"DateTime.sol\":1288:1298  month == 7 */\n      0xff\n      and\n      eq\n        /* \"DateTime.sol\":1246:1298  month == 1 || month == 3 || month == 5 || month == 7 */\n    tag_112:\n        /* \"DateTime.sol\":1246:1312  month == 1 || month == 3 || month == 5 || month == 7 || month == 8 */\n      dup1\n      tag_113\n      jumpi\n      pop\n        /* \"DateTime.sol\":1311:1312  8 */\n      0x08\n        /* \"DateTime.sol\":1302:1307  month */\n      dup4\n        /* \"DateTime.sol\":1302:1312  month == 8 */\n      0xff\n      and\n      eq\n        /* \"DateTime.sol\":1246:1312  month == 1 || month == 3 || month == 5 || month == 7 || month == 8 */\n    tag_113:\n        /* \"DateTime.sol\":1246:1327  month == 1 || month == 3 || month == 5 || month == 7 || month == 8 || month == 10 */\n      dup1\n      tag_114\n      jumpi\n      pop\n        /* \"DateTime.sol\":1325:1327  10 */\n      0x0a\n        /* \"DateTime.sol\":1316:1321  month */\n      dup4\n        /* \"DateTime.sol\":1316:1327  month == 10 */\n      0xff\n      and\n      eq\n        /* \"DateTime.sol\":1246:1327  month == 1 || month == 3 || month == 5 || month == 7 || month == 8 || month == 10 */\n    tag_114:\n        /* \"DateTime.sol\":1246:1342  month == 1 || month == 3 || month == 5 || month == 7 || month == 8 || month == 10 || month == 12 */\n      dup1\n      tag_115\n      jumpi\n      pop\n        /* \"DateTime.sol\":1340:1342  12 */\n      0x0c\n        /* \"DateTime.sol\":1331:1336  month */\n      dup4\n        /* \"DateTime.sol\":1331:1342  month == 12 */\n      0xff\n      and\n      eq\n        /* \"DateTime.sol\":1246:1342  month == 1 || month == 3 || month == 5 || month == 7 || month == 8 || month == 10 || month == 12 */\n    tag_115:\n        /* \"DateTime.sol\":1242:1707  if (month == 1 || month == 3 || month == 5 || month == 7 || month == 8 || month == 10 || month == 12) {... */\n      iszero\n      tag_116\n      jumpi\n        /* \"DateTime.sol\":1377:1379  31 */\n      0x1f\n        /* \"DateTime.sol\":1370:1379  return 31 */\n      swap1\n      pop\n      jump(tag_109)\n        /* \"DateTime.sol\":1242:1707  if (month == 1 || month == 3 || month == 5 || month == 7 || month == 8 || month == 10 || month == 12) {... */\n    tag_116:\n        /* \"DateTime.sol\":1433:1434  4 */\n      0x04\n        /* \"DateTime.sol\":1424:1429  month */\n      dup4\n        /* \"DateTime.sol\":1424:1434  month == 4 */\n      0xff\n      and\n      eq\n        /* \"DateTime.sol\":1424:1448  month == 4 || month == 6 */\n      dup1\n      tag_118\n      jumpi\n      pop\n        /* \"DateTime.sol\":1447:1448  6 */\n      0x06\n        /* \"DateTime.sol\":1438:1443  month */\n      dup4\n        /* \"DateTime.sol\":1438:1448  month == 6 */\n      0xff\n      and\n      eq\n        /* \"DateTime.sol\":1424:1448  month == 4 || month == 6 */\n    tag_118:\n        /* \"DateTime.sol\":1424:1462  month == 4 || month == 6 || month == 9 */\n      dup1\n      tag_119\n      jumpi\n      pop\n        /* \"DateTime.sol\":1461:1462  9 */\n      0x09\n        /* \"DateTime.sol\":1452:1457  month */\n      dup4\n        /* \"DateTime.sol\":1452:1462  month == 9 */\n      0xff\n      and\n      eq\n        /* \"DateTime.sol\":1424:1462  month == 4 || month == 6 || month == 9 */\n    tag_119:\n        /* \"DateTime.sol\":1424:1477  month == 4 || month == 6 || month == 9 || month == 11 */\n      dup1\n      tag_120\n      jumpi\n      pop\n        /* \"DateTime.sol\":1475:1477  11 */\n      0x0b\n        /* \"DateTime.sol\":1466:1471  month */\n      dup4\n        /* \"DateTime.sol\":1466:1477  month == 11 */\n      0xff\n      and\n      eq\n        /* \"DateTime.sol\":1424:1477  month == 4 || month == 6 || month == 9 || month == 11 */\n    tag_120:\n        /* \"DateTime.sol\":1420:1707  if (month == 4 || month == 6 || month == 9 || month == 11) {... */\n      iszero\n      tag_121\n      jumpi\n        /* \"DateTime.sol\":1512:1514  30 */\n      0x1e\n        /* \"DateTime.sol\":1505:1514  return 30 */\n      swap1\n      pop\n      jump(tag_109)\n        /* \"DateTime.sol\":1420:1707  if (month == 4 || month == 6 || month == 9 || month == 11) {... */\n    tag_121:\n        /* \"DateTime.sol\":1559:1575  isLeapYear(year) */\n      tag_123\n        /* \"DateTime.sol\":1570:1574  year */\n      dup3\n        /* \"DateTime.sol\":1559:1569  isLeapYear */\n      tag_39\n        /* \"DateTime.sol\":1559:1575  isLeapYear(year) */\n      jump\t// in\n    tag_123:\n        /* \"DateTime.sol\":1555:1707  if (isLeapYear(year)) {... */\n      iszero\n      tag_124\n      jumpi\n        /* \"DateTime.sol\":1610:1612  29 */\n      0x1d\n        /* \"DateTime.sol\":1603:1612  return 29 */\n      swap1\n      pop\n      jump(tag_109)\n        /* \"DateTime.sol\":1555:1707  if (isLeapYear(year)) {... */\n    tag_124:\n        /* \"DateTime.sol\":1686:1688  28 */\n      0x1c\n        /* \"DateTime.sol\":1679:1688  return 28 */\n      swap1\n      pop\n        /* \"DateTime.sol\":1146:1717  function getDaysInMonth(uint8 month, uint16 year) public pure returns (uint8) {... */\n    tag_109:\n      swap3\n      swap2\n      pop\n      pop\n      jump\t// out\n        /* \"DateTime.sol\":4689:4816  function getMinute(uint timestamp) public pure returns (uint8) {... */\n    tag_54:\n        /* \"DateTime.sol\":4745:4750  uint8 */\n      0x00\n        /* \"DateTime.sol\":4802:4804  60 */\n      0x3c\n        /* \"DateTime.sol\":4796:4798  60 */\n      dup1\n        /* \"DateTime.sol\":4784:4793  timestamp */\n      dup4\n        /* \"DateTime.sol\":4784:4798  timestamp / 60 */\n      tag_127\n      swap2\n      swap1\n      tag_58\n      jump\t// in\n    tag_127:\n        /* \"DateTime.sol\":4783:4804  (timestamp / 60) % 60 */\n      tag_128\n      swap2\n      swap1\n      tag_61\n      jump\t// in\n    tag_128:\n        /* \"DateTime.sol\":4770:4805  return uint8((timestamp / 60) % 60) */\n      swap1\n      pop\n        /* \"DateTime.sol\":4689:4816  function getMinute(uint timestamp) public pure returns (uint8) {... */\n      swap2\n      swap1\n      pop\n      jump\t// out\n        /* \"DateTime.sol\":1727:3284  function parseTimestamp(uint timestamp) internal pure returns (_DateTime memory dt) {... */\n    tag_64:\n        /* \"DateTime.sol\":1790:1809  _DateTime memory dt */\n      tag_129\n      tag_130\n      jump\t// in\n    tag_129:\n        /* \"DateTime.sol\":1829:1853  uint secondsAccountedFor */\n      0x00\n        /* \"DateTime.sol\":1875:1883  uint buf */\n      dup1\n        /* \"DateTime.sol\":1901:1908  uint8 i */\n      dup1\n        /* \"DateTime.sol\":1961:1979  getYear(timestamp) */\n      tag_132\n        /* \"DateTime.sol\":1969:1978  timestamp */\n      dup6\n        /* \"DateTime.sol\":1961:1968  getYear */\n      tag_29\n        /* \"DateTime.sol\":1961:1979  getYear(timestamp) */\n      jump\t// in\n    tag_132:\n        /* \"DateTime.sol\":1951:1953  dt */\n      dup5\n        /* \"DateTime.sol\":1951:1958  dt.year */\n      0x00\n      add\n        /* \"DateTime.sol\":1951:1979  dt.year = getYear(timestamp) */\n      swap1\n      0xffff\n      and\n      swap1\n      dup2\n      0xffff\n      and\n      dup2\n      mstore\n      pop\n      pop\n        /* \"DateTime.sol\":2030:2058  leapYearsBefore(ORIGIN_YEAR) */\n      tag_133\n        /* \"DateTime.sol\":569:573  1970 */\n      0x07b2\n        /* \"DateTime.sol\":2030:2058  leapYearsBefore(ORIGIN_YEAR) */\n      0xffff\n      and\n        /* \"DateTime.sol\":2030:2045  leapYearsBefore */\n      tag_44\n        /* \"DateTime.sol\":2030:2058  leapYearsBefore(ORIGIN_YEAR) */\n      jump\t// in\n    tag_133:\n        /* \"DateTime.sol\":2003:2027  leapYearsBefore(dt.year) */\n      tag_134\n        /* \"DateTime.sol\":2019:2021  dt */\n      dup6\n        /* \"DateTime.sol\":2019:2026  dt.year */\n      0x00\n      add\n      mload\n        /* \"DateTime.sol\":2003:2027  leapYearsBefore(dt.year) */\n      0xffff\n      and\n        /* \"DateTime.sol\":2003:2018  leapYearsBefore */\n      tag_44\n        /* \"DateTime.sol\":2003:2027  leapYearsBefore(dt.year) */\n      jump\t// in\n    tag_134:\n        /* \"DateTime.sol\":2003:2058  leapYearsBefore(dt.year) - leapYearsBefore(ORIGIN_YEAR) */\n      tag_135\n      swap2\n      swap1\n      tag_74\n      jump\t// in\n    tag_135:\n        /* \"DateTime.sol\":1997:2058  buf = leapYearsBefore(dt.year) - leapYearsBefore(ORIGIN_YEAR) */\n      swap2\n      pop\n        /* \"DateTime.sol\":2123:2126  buf */\n      dup2\n        /* \"DateTime.sol\":429:437  31622400 */\n      0x01e28500\n        /* \"DateTime.sol\":2100:2126  LEAP_YEAR_IN_SECONDS * buf */\n      tag_136\n      swap2\n      swap1\n      tag_76\n      jump\t// in\n    tag_136:\n        /* \"DateTime.sol\":2077:2126  secondsAccountedFor += LEAP_YEAR_IN_SECONDS * buf */\n      dup4\n      tag_137\n      swap2\n      swap1\n      tag_70\n      jump\t// in\n    tag_137:\n      swap3\n      pop\n        /* \"DateTime.sol\":2210:2213  buf */\n      dup2\n        /* \"DateTime.sol\":569:573  1970 */\n      0x07b2\n        /* \"DateTime.sol\":2186:2188  dt */\n      dup6\n        /* \"DateTime.sol\":2186:2193  dt.year */\n      0x00\n      add\n      mload\n        /* \"DateTime.sol\":2186:2207  dt.year - ORIGIN_YEAR */\n      tag_138\n      swap2\n      swap1\n      tag_79\n      jump\t// in\n    tag_138:\n        /* \"DateTime.sol\":2186:2213  dt.year - ORIGIN_YEAR - buf */\n      0xffff\n      and\n      tag_139\n      swap2\n      swap1\n      tag_74\n      jump\t// in\n    tag_139:\n        /* \"DateTime.sol\":374:382  31536000 */\n      0x01e13380\n        /* \"DateTime.sol\":2167:2214  YEAR_IN_SECONDS * (dt.year - ORIGIN_YEAR - buf) */\n      tag_140\n      swap2\n      swap1\n      tag_76\n      jump\t// in\n    tag_140:\n        /* \"DateTime.sol\":2144:2214  secondsAccountedFor += YEAR_IN_SECONDS * (dt.year - ORIGIN_YEAR - buf) */\n      dup4\n      tag_141\n      swap2\n      swap1\n      tag_70\n      jump\t// in\n    tag_141:\n      swap3\n      pop\n        /* \"DateTime.sol\":2258:2277  uint secondsInMonth */\n      0x00\n        /* \"DateTime.sol\":2304:2305  1 */\n      0x01\n        /* \"DateTime.sol\":2300:2305  i = 1 */\n      swap2\n      pop\n        /* \"DateTime.sol\":2295:2680  for (i = 1; i <= 12; i++) {... */\n    tag_142:\n        /* \"DateTime.sol\":2312:2314  12 */\n      0x0c\n        /* \"DateTime.sol\":2307:2308  i */\n      dup3\n        /* \"DateTime.sol\":2307:2314  i <= 12 */\n      0xff\n      and\n      gt\n        /* \"DateTime.sol\":2295:2680  for (i = 1; i <= 12; i++) {... */\n      tag_143\n      jumpi\n        /* \"DateTime.sol\":2381:2407  getDaysInMonth(i, dt.year) */\n      tag_145\n        /* \"DateTime.sol\":2396:2397  i */\n      dup3\n        /* \"DateTime.sol\":2399:2401  dt */\n      dup7\n        /* \"DateTime.sol\":2399:2406  dt.year */\n      0x00\n      add\n      mload\n        /* \"DateTime.sol\":2381:2395  getDaysInMonth */\n      tag_50\n        /* \"DateTime.sol\":2381:2407  getDaysInMonth(i, dt.year) */\n      jump\t// in\n    tag_145:\n        /* \"DateTime.sol\":2364:2407  DAY_IN_SECONDS * getDaysInMonth(i, dt.year) */\n      0xff\n      and\n        /* \"DateTime.sol\":327:332  86400 */\n      0x015180\n        /* \"DateTime.sol\":2364:2407  DAY_IN_SECONDS * getDaysInMonth(i, dt.year) */\n      tag_146\n      swap2\n      swap1\n      tag_76\n      jump\t// in\n    tag_146:\n        /* \"DateTime.sol\":2347:2407  secondsInMonth = DAY_IN_SECONDS * getDaysInMonth(i, dt.year) */\n      swap1\n      pop\n        /* \"DateTime.sol\":2476:2485  timestamp */\n      dup6\n        /* \"DateTime.sol\":2454:2473  secondsAccountedFor */\n      dup5\n        /* \"DateTime.sol\":2437:2451  secondsInMonth */\n      dup3\n        /* \"DateTime.sol\":2437:2473  secondsInMonth + secondsAccountedFor */\n      tag_147\n      swap2\n      swap1\n      tag_70\n      jump\t// in\n    tag_147:\n        /* \"DateTime.sol\":2437:2485  secondsInMonth + secondsAccountedFor > timestamp */\n      gt\n        /* \"DateTime.sol\":2433:2599  if (secondsInMonth + secondsAccountedFor > timestamp) {... */\n      iszero\n      tag_148\n      jumpi\n        /* \"DateTime.sol\":2532:2533  i */\n      dup2\n        /* \"DateTime.sol\":2521:2523  dt */\n      dup6\n        /* \"DateTime.sol\":2521:2529  dt.month */\n      0x20\n      add\n        /* \"DateTime.sol\":2521:2533  dt.month = i */\n      swap1\n      0xff\n      and\n      swap1\n      dup2\n      0xff\n      and\n      dup2\n      mstore\n      pop\n      pop\n        /* \"DateTime.sol\":2567:2572  break */\n      jump(tag_143)\n        /* \"DateTime.sol\":2433:2599  if (secondsInMonth + secondsAccountedFor > timestamp) {... */\n    tag_148:\n        /* \"DateTime.sol\":2647:2661  secondsInMonth */\n      dup1\n        /* \"DateTime.sol\":2624:2661  secondsAccountedFor += secondsInMonth */\n      dup5\n      tag_149\n      swap2\n      swap1\n      tag_70\n      jump\t// in\n    tag_149:\n      swap4\n      pop\n        /* \"DateTime.sol\":2316:2319  i++ */\n      dup2\n      dup1\n      tag_150\n      swap1\n      tag_151\n      jump\t// in\n    tag_150:\n      swap3\n      pop\n      pop\n        /* \"DateTime.sol\":2295:2680  for (i = 1; i <= 12; i++) {... */\n      jump(tag_142)\n    tag_143:\n        /* \"DateTime.sol\":2730:2731  1 */\n      0x01\n        /* \"DateTime.sol\":2726:2731  i = 1 */\n      swap2\n      pop\n        /* \"DateTime.sol\":2721:3049  for (i = 1; i <= getDaysInMonth(dt.month, dt.year); i++) {... */\n    tag_152:\n        /* \"DateTime.sol\":2738:2771  getDaysInMonth(dt.month, dt.year) */\n      tag_155\n        /* \"DateTime.sol\":2753:2755  dt */\n      dup6\n        /* \"DateTime.sol\":2753:2761  dt.month */\n      0x20\n      add\n      mload\n        /* \"DateTime.sol\":2763:2765  dt */\n      dup7\n        /* \"DateTime.sol\":2763:2770  dt.year */\n      0x00\n      add\n      mload\n        /* \"DateTime.sol\":2738:2752  getDaysInMonth */\n      tag_50\n        /* \"DateTime.sol\":2738:2771  getDaysInMonth(dt.month, dt.year) */\n      jump\t// in\n    tag_155:\n        /* \"DateTime.sol\":2733:2771  i <= getDaysInMonth(dt.month, dt.year) */\n      0xff\n      and\n        /* \"DateTime.sol\":2733:2734  i */\n      dup3\n        /* \"DateTime.sol\":2733:2771  i <= getDaysInMonth(dt.month, dt.year) */\n      0xff\n      and\n      gt\n        /* \"DateTime.sol\":2721:3049  for (i = 1; i <= getDaysInMonth(dt.month, dt.year); i++) {... */\n      tag_153\n      jumpi\n        /* \"DateTime.sol\":2847:2856  timestamp */\n      dup6\n        /* \"DateTime.sol\":2825:2844  secondsAccountedFor */\n      dup5\n        /* \"DateTime.sol\":327:332  86400 */\n      0x015180\n        /* \"DateTime.sol\":2808:2844  DAY_IN_SECONDS + secondsAccountedFor */\n      tag_156\n      swap2\n      swap1\n      tag_70\n      jump\t// in\n    tag_156:\n        /* \"DateTime.sol\":2808:2856  DAY_IN_SECONDS + secondsAccountedFor > timestamp */\n      gt\n        /* \"DateTime.sol\":2804:2968  if (DAY_IN_SECONDS + secondsAccountedFor > timestamp) {... */\n      iszero\n      tag_157\n      jumpi\n        /* \"DateTime.sol\":2901:2902  i */\n      dup2\n        /* \"DateTime.sol\":2892:2894  dt */\n      dup6\n        /* \"DateTime.sol\":2892:2898  dt.day */\n      0x40\n      add\n        /* \"DateTime.sol\":2892:2902  dt.day = i */\n      swap1\n      0xff\n      and\n      swap1\n      dup2\n      0xff\n      and\n      dup2\n      mstore\n      pop\n      pop\n        /* \"DateTime.sol\":2936:2941  break */\n      jump(tag_153)\n        /* \"DateTime.sol\":2804:2968  if (DAY_IN_SECONDS + secondsAccountedFor > timestamp) {... */\n    tag_157:\n        /* \"DateTime.sol\":327:332  86400 */\n      0x015180\n        /* \"DateTime.sol\":2993:3030  secondsAccountedFor += DAY_IN_SECONDS */\n      dup5\n      tag_158\n      swap2\n      swap1\n      tag_70\n      jump\t// in\n    tag_158:\n      swap4\n      pop\n        /* \"DateTime.sol\":2773:2776  i++ */\n      dup2\n      dup1\n      tag_159\n      swap1\n      tag_151\n      jump\t// in\n    tag_159:\n      swap3\n      pop\n      pop\n        /* \"DateTime.sol\":2721:3049  for (i = 1; i <= getDaysInMonth(dt.month, dt.year); i++) {... */\n      jump(tag_152)\n    tag_153:\n        /* \"DateTime.sol\":3101:3119  getHour(timestamp) */\n      tag_160\n        /* \"DateTime.sol\":3109:3118  timestamp */\n      dup7\n        /* \"DateTime.sol\":3101:3108  getHour */\n      tag_16\n        /* \"DateTime.sol\":3101:3119  getHour(timestamp) */\n      jump\t// in\n    tag_160:\n        /* \"DateTime.sol\":3091:3093  dt */\n      dup6\n        /* \"DateTime.sol\":3091:3098  dt.hour */\n      0x60\n      add\n        /* \"DateTime.sol\":3091:3119  dt.hour = getHour(timestamp) */\n      swap1\n      0xff\n      and\n      swap1\n      dup2\n      0xff\n      and\n      dup2\n      mstore\n      pop\n      pop\n        /* \"DateTime.sol\":3176:3196  getMinute(timestamp) */\n      tag_161\n        /* \"DateTime.sol\":3186:3195  timestamp */\n      dup7\n        /* \"DateTime.sol\":3176:3185  getMinute */\n      tag_54\n        /* \"DateTime.sol\":3176:3196  getMinute(timestamp) */\n      jump\t// in\n    tag_161:\n        /* \"DateTime.sol\":3164:3166  dt */\n      dup6\n        /* \"DateTime.sol\":3164:3173  dt.minute */\n      0x80\n      add\n        /* \"DateTime.sol\":3164:3196  dt.minute = getMinute(timestamp) */\n      swap1\n      0xff\n      and\n      swap1\n      dup2\n      0xff\n      and\n      dup2\n      mstore\n      pop\n      pop\n        /* \"DateTime.sol\":3253:3273  getSecond(timestamp) */\n      tag_162\n        /* \"DateTime.sol\":3263:3272  timestamp */\n      dup7\n        /* \"DateTime.sol\":3253:3262  getSecond */\n      tag_25\n        /* \"DateTime.sol\":3253:3273  getSecond(timestamp) */\n      jump\t// in\n    tag_162:\n        /* \"DateTime.sol\":3241:3243  dt */\n      dup6\n        /* \"DateTime.sol\":3241:3250  dt.second */\n      0xa0\n      add\n        /* \"DateTime.sol\":3241:3273  dt.second = getSecond(timestamp) */\n      swap1\n      0xff\n      and\n      swap1\n      dup2\n      0xff\n      and\n      dup2\n      mstore\n      pop\n      pop\n        /* \"DateTime.sol\":1811:3284  {... */\n      pop\n      pop\n      pop\n      pop\n        /* \"DateTime.sol\":1727:3284  function parseTimestamp(uint timestamp) internal pure returns (_DateTime memory dt) {... */\n      swap2\n      swap1\n      pop\n      jump\t// out\n    tag_130:\n      mload(0x40)\n      dup1\n      0xc0\n      add\n      0x40\n      mstore\n      dup1\n      and(0xffff, 0x00)\n      dup2\n      mstore\n      0x20\n      add\n      and(0xff, 0x00)\n      dup2\n      mstore\n      0x20\n      add\n      and(0xff, 0x00)\n      dup2\n      mstore\n      0x20\n      add\n      and(0xff, 0x00)\n      dup2\n      mstore\n      0x20\n      add\n      and(0xff, 0x00)\n      dup2\n      mstore\n      0x20\n      add\n      and(0xff, 0x00)\n      dup2\n      mstore\n      pop\n      swap1\n      jump\t// out\n        /* \"#utility.yul\":88:205   */\n    tag_164:\n        /* \"#utility.yul\":197:198   */\n      0x00\n        /* \"#utility.yul\":194:195   */\n      dup1\n        /* \"#utility.yul\":187:199   */\n      revert\n        /* \"#utility.yul\":334:411   */\n    tag_166:\n        /* \"#utility.yul\":371:378   */\n      0x00\n        /* \"#utility.yul\":400:405   */\n      dup2\n        /* \"#utility.yul\":389:405   */\n      swap1\n      pop\n        /* \"#utility.yul\":334:411   */\n      swap2\n      swap1\n      pop\n      jump\t// out\n        /* \"#utility.yul\":417:539   */\n    tag_167:\n        /* \"#utility.yul\":490:514   */\n      tag_188\n        /* \"#utility.yul\":508:513   */\n      dup2\n        /* \"#utility.yul\":490:514   */\n      tag_166\n      jump\t// in\n    tag_188:\n        /* \"#utility.yul\":483:488   */\n      dup2\n        /* \"#utility.yul\":480:515   */\n      eq\n        /* \"#utility.yul\":470:533   */\n      tag_189\n      jumpi\n        /* \"#utility.yul\":529:530   */\n      0x00\n        /* \"#utility.yul\":526:527   */\n      dup1\n        /* \"#utility.yul\":519:531   */\n      revert\n        /* \"#utility.yul\":470:533   */\n    tag_189:\n        /* \"#utility.yul\":417:539   */\n      pop\n      jump\t// out\n        /* \"#utility.yul\":545:684   */\n    tag_168:\n        /* \"#utility.yul\":591:596   */\n      0x00\n        /* \"#utility.yul\":629:635   */\n      dup2\n        /* \"#utility.yul\":616:636   */\n      calldataload\n        /* \"#utility.yul\":607:636   */\n      swap1\n      pop\n        /* \"#utility.yul\":645:678   */\n      tag_191\n        /* \"#utility.yul\":672:677   */\n      dup2\n        /* \"#utility.yul\":645:678   */\n      tag_167\n      jump\t// in\n    tag_191:\n        /* \"#utility.yul\":545:684   */\n      swap3\n      swap2\n      pop\n      pop\n      jump\t// out\n        /* \"#utility.yul\":690:1019   */\n    tag_15:\n        /* \"#utility.yul\":749:755   */\n      0x00\n        /* \"#utility.yul\":798:800   */\n      0x20\n        /* \"#utility.yul\":786:795   */\n      dup3\n        /* \"#utility.yul\":777:784   */\n      dup5\n        /* \"#utility.yul\":773:796   */\n      sub\n        /* \"#utility.yul\":769:801   */\n      slt\n        /* \"#utility.yul\":766:885   */\n      iszero\n      tag_193\n      jumpi\n        /* \"#utility.yul\":804:883   */\n      tag_194\n      tag_164\n      jump\t// in\n    tag_194:\n        /* \"#utility.yul\":766:885   */\n    tag_193:\n        /* \"#utility.yul\":924:925   */\n      0x00\n        /* \"#utility.yul\":949:1002   */\n      tag_195\n        /* \"#utility.yul\":994:1001   */\n      dup5\n        /* \"#utility.yul\":985:991   */\n      dup3\n        /* \"#utility.yul\":974:983   */\n      dup6\n        /* \"#utility.yul\":970:992   */\n      add\n        /* \"#utility.yul\":949:1002   */\n      tag_168\n      jump\t// in\n    tag_195:\n        /* \"#utility.yul\":939:1002   */\n      swap2\n      pop\n        /* \"#utility.yul\":895:1012   */\n      pop\n        /* \"#utility.yul\":690:1019   */\n      swap3\n      swap2\n      pop\n      pop\n      jump\t// out\n        /* \"#utility.yul\":1025:1111   */\n    tag_169:\n        /* \"#utility.yul\":1060:1067   */\n      0x00\n        /* \"#utility.yul\":1100:1104   */\n      0xff\n        /* \"#utility.yul\":1093:1098   */\n      dup3\n        /* \"#utility.yul\":1089:1105   */\n      and\n        /* \"#utility.yul\":1078:1105   */\n      swap1\n      pop\n        /* \"#utility.yul\":1025:1111   */\n      swap2\n      swap1\n      pop\n      jump\t// out\n        /* \"#utility.yul\":1117:1229   */\n    tag_170:\n        /* \"#utility.yul\":1200:1222   */\n      tag_198\n        /* \"#utility.yul\":1216:1221   */\n      dup2\n        /* \"#utility.yul\":1200:1222   */\n      tag_169\n      jump\t// in\n    tag_198:\n        /* \"#utility.yul\":1195:1198   */\n      dup3\n        /* \"#utility.yul\":1188:1223   */\n      mstore\n        /* \"#utility.yul\":1117:1229   */\n      pop\n      pop\n      jump\t// out\n        /* \"#utility.yul\":1235:1449   */\n    tag_18:\n        /* \"#utility.yul\":1324:1328   */\n      0x00\n        /* \"#utility.yul\":1362:1364   */\n      0x20\n        /* \"#utility.yul\":1351:1360   */\n      dup3\n        /* \"#utility.yul\":1347:1365   */\n      add\n        /* \"#utility.yul\":1339:1365   */\n      swap1\n      pop\n        /* \"#utility.yul\":1375:1442   */\n      tag_200\n        /* \"#utility.yul\":1439:1440   */\n      0x00\n        /* \"#utility.yul\":1428:1437   */\n      dup4\n        /* \"#utility.yul\":1424:1441   */\n      add\n        /* \"#utility.yul\":1415:1421   */\n      dup5\n        /* \"#utility.yul\":1375:1442   */\n      tag_170\n      jump\t// in\n    tag_200:\n        /* \"#utility.yul\":1235:1449   */\n      swap3\n      swap2\n      pop\n      pop\n      jump\t// out\n        /* \"#utility.yul\":1455:1544   */\n    tag_171:\n        /* \"#utility.yul\":1491:1498   */\n      0x00\n        /* \"#utility.yul\":1531:1537   */\n      0xffff\n        /* \"#utility.yul\":1524:1529   */\n      dup3\n        /* \"#utility.yul\":1520:1538   */\n      and\n        /* \"#utility.yul\":1509:1538   */\n      swap1\n      pop\n        /* \"#utility.yul\":1455:1544   */\n      swap2\n      swap1\n      pop\n      jump\t// out\n        /* \"#utility.yul\":1550:1665   */\n    tag_172:\n        /* \"#utility.yul\":1635:1658   */\n      tag_203\n        /* \"#utility.yul\":1652:1657   */\n      dup2\n        /* \"#utility.yul\":1635:1658   */\n      tag_171\n      jump\t// in\n    tag_203:\n        /* \"#utility.yul\":1630:1633   */\n      dup3\n        /* \"#utility.yul\":1623:1659   */\n      mstore\n        /* \"#utility.yul\":1550:1665   */\n      pop\n      pop\n      jump\t// out\n        /* \"#utility.yul\":1671:1889   */\n    tag_31:\n        /* \"#utility.yul\":1762:1766   */\n      0x00\n        /* \"#utility.yul\":1800:1802   */\n      0x20\n        /* \"#utility.yul\":1789:1798   */\n      dup3\n        /* \"#utility.yul\":1785:1803   */\n      add\n        /* \"#utility.yul\":1777:1803   */\n      swap1\n      pop\n        /* \"#utility.yul\":1813:1882   */\n      tag_205\n        /* \"#utility.yul\":1879:1880   */\n      0x00\n        /* \"#utility.yul\":1868:1877   */\n      dup4\n        /* \"#utility.yul\":1864:1881   */\n      add\n        /* \"#utility.yul\":1855:1861   */\n      dup5\n        /* \"#utility.yul\":1813:1882   */\n      tag_172\n      jump\t// in\n    tag_205:\n        /* \"#utility.yul\":1671:1889   */\n      swap3\n      swap2\n      pop\n      pop\n      jump\t// out\n        /* \"#utility.yul\":1895:2015   */\n    tag_173:\n        /* \"#utility.yul\":1967:1990   */\n      tag_207\n        /* \"#utility.yul\":1984:1989   */\n      dup2\n        /* \"#utility.yul\":1967:1990   */\n      tag_171\n      jump\t// in\n    tag_207:\n        /* \"#utility.yul\":1960:1965   */\n      dup2\n        /* \"#utility.yul\":1957:1991   */\n      eq\n        /* \"#utility.yul\":1947:2009   */\n      tag_208\n      jumpi\n        /* \"#utility.yul\":2005:2006   */\n      0x00\n        /* \"#utility.yul\":2002:2003   */\n      dup1\n        /* \"#utility.yul\":1995:2007   */\n      revert\n        /* \"#utility.yul\":1947:2009   */\n    tag_208:\n        /* \"#utility.yul\":1895:2015   */\n      pop\n      jump\t// out\n        /* \"#utility.yul\":2021:2158   */\n    tag_174:\n        /* \"#utility.yul\":2066:2071   */\n      0x00\n        /* \"#utility.yul\":2104:2110   */\n      dup2\n        /* \"#utility.yul\":2091:2111   */\n      calldataload\n        /* \"#utility.yul\":2082:2111   */\n      swap1\n      pop\n        /* \"#utility.yul\":2120:2152   */\n      tag_210\n        /* \"#utility.yul\":2146:2151   */\n      dup2\n        /* \"#utility.yul\":2120:2152   */\n      tag_173\n      jump\t// in\n    tag_210:\n        /* \"#utility.yul\":2021:2158   */\n      swap3\n      swap2\n      pop\n      pop\n      jump\t// out\n        /* \"#utility.yul\":2164:2491   */\n    tag_38:\n        /* \"#utility.yul\":2222:2228   */\n      0x00\n        /* \"#utility.yul\":2271:2273   */\n      0x20\n        /* \"#utility.yul\":2259:2268   */\n      dup3\n        /* \"#utility.yul\":2250:2257   */\n      dup5\n        /* \"#utility.yul\":2246:2269   */\n      sub\n        /* \"#utility.yul\":2242:2274   */\n      slt\n        /* \"#utility.yul\":2239:2358   */\n      iszero\n      tag_212\n      jumpi\n        /* \"#utility.yul\":2277:2356   */\n      tag_213\n      tag_164\n      jump\t// in\n    tag_213:\n        /* \"#utility.yul\":2239:2358   */\n    tag_212:\n        /* \"#utility.yul\":2397:2398   */\n      0x00\n        /* \"#utility.yul\":2422:2474   */\n      tag_214\n        /* \"#utility.yul\":2466:2473   */\n      dup5\n        /* \"#utility.yul\":2457:2463   */\n      dup3\n        /* \"#utility.yul\":2446:2455   */\n      dup6\n        /* \"#utility.yul\":2442:2464   */\n      add\n        /* \"#utility.yul\":2422:2474   */\n      tag_174\n      jump\t// in\n    tag_214:\n        /* \"#utility.yul\":2412:2474   */\n      swap2\n      pop\n        /* \"#utility.yul\":2368:2484   */\n      pop\n        /* \"#utility.yul\":2164:2491   */\n      swap3\n      swap2\n      pop\n      pop\n      jump\t// out\n        /* \"#utility.yul\":2497:2587   */\n    tag_175:\n        /* \"#utility.yul\":2531:2538   */\n      0x00\n        /* \"#utility.yul\":2574:2579   */\n      dup2\n        /* \"#utility.yul\":2567:2580   */\n      iszero\n        /* \"#utility.yul\":2560:2581   */\n      iszero\n        /* \"#utility.yul\":2549:2581   */\n      swap1\n      pop\n        /* \"#utility.yul\":2497:2587   */\n      swap2\n      swap1\n      pop\n      jump\t// out\n        /* \"#utility.yul\":2593:2702   */\n    tag_176:\n        /* \"#utility.yul\":2674:2695   */\n      tag_217\n        /* \"#utility.yul\":2689:2694   */\n      dup2\n        /* \"#utility.yul\":2674:2695   */\n      tag_175\n      jump\t// in\n    tag_217:\n        /* \"#utility.yul\":2669:2672   */\n      dup3\n        /* \"#utility.yul\":2662:2696   */\n      mstore\n        /* \"#utility.yul\":2593:2702   */\n      pop\n      pop\n      jump\t// out\n        /* \"#utility.yul\":2708:2918   */\n    tag_41:\n        /* \"#utility.yul\":2795:2799   */\n      0x00\n        /* \"#utility.yul\":2833:2835   */\n      0x20\n        /* \"#utility.yul\":2822:2831   */\n      dup3\n        /* \"#utility.yul\":2818:2836   */\n      add\n        /* \"#utility.yul\":2810:2836   */\n      swap1\n      pop\n        /* \"#utility.yul\":2846:2911   */\n      tag_219\n        /* \"#utility.yul\":2908:2909   */\n      0x00\n        /* \"#utility.yul\":2897:2906   */\n      dup4\n        /* \"#utility.yul\":2893:2910   */\n      add\n        /* \"#utility.yul\":2884:2890   */\n      dup5\n        /* \"#utility.yul\":2846:2911   */\n      tag_176\n      jump\t// in\n    tag_219:\n        /* \"#utility.yul\":2708:2918   */\n      swap3\n      swap2\n      pop\n      pop\n      jump\t// out\n        /* \"#utility.yul\":2924:3042   */\n    tag_177:\n        /* \"#utility.yul\":3011:3035   */\n      tag_221\n        /* \"#utility.yul\":3029:3034   */\n      dup2\n        /* \"#utility.yul\":3011:3035   */\n      tag_166\n      jump\t// in\n    tag_221:\n        /* \"#utility.yul\":3006:3009   */\n      dup3\n        /* \"#utility.yul\":2999:3036   */\n      mstore\n        /* \"#utility.yul\":2924:3042   */\n      pop\n      pop\n      jump\t// out\n        /* \"#utility.yul\":3048:3270   */\n    tag_46:\n        /* \"#utility.yul\":3141:3145   */\n      0x00\n        /* \"#utility.yul\":3179:3181   */\n      0x20\n        /* \"#utility.yul\":3168:3177   */\n      dup3\n        /* \"#utility.yul\":3164:3182   */\n      add\n        /* \"#utility.yul\":3156:3182   */\n      swap1\n      pop\n        /* \"#utility.yul\":3192:3263   */\n      tag_223\n        /* \"#utility.yul\":3260:3261   */\n      0x00\n        /* \"#utility.yul\":3249:3258   */\n      dup4\n        /* \"#utility.yul\":3245:3262   */\n      add\n        /* \"#utility.yul\":3236:3242   */\n      dup5\n        /* \"#utility.yul\":3192:3263   */\n      tag_177\n      jump\t// in\n    tag_223:\n        /* \"#utility.yul\":3048:3270   */\n      swap3\n      swap2\n      pop\n      pop\n      jump\t// out\n        /* \"#utility.yul\":3276:3394   */\n    tag_178:\n        /* \"#utility.yul\":3347:3369   */\n      tag_225\n        /* \"#utility.yul\":3363:3368   */\n      dup2\n        /* \"#utility.yul\":3347:3369   */\n      tag_169\n      jump\t// in\n    tag_225:\n        /* \"#utility.yul\":3340:3345   */\n      dup2\n        /* \"#utility.yul\":3337:3370   */\n      eq\n        /* \"#utility.yul\":3327:3388   */\n      tag_226\n      jumpi\n        /* \"#utility.yul\":3384:3385   */\n      0x00\n        /* \"#utility.yul\":3381:3382   */\n      dup1\n        /* \"#utility.yul\":3374:3386   */\n      revert\n        /* \"#utility.yul\":3327:3388   */\n    tag_226:\n        /* \"#utility.yul\":3276:3394   */\n      pop\n      jump\t// out\n        /* \"#utility.yul\":3400:3535   */\n    tag_179:\n        /* \"#utility.yul\":3444:3449   */\n      0x00\n        /* \"#utility.yul\":3482:3488   */\n      dup2\n        /* \"#utility.yul\":3469:3489   */\n      calldataload\n        /* \"#utility.yul\":3460:3489   */\n      swap1\n      pop\n        /* \"#utility.yul\":3498:3529   */\n      tag_228\n        /* \"#utility.yul\":3523:3528   */\n      dup2\n        /* \"#utility.yul\":3498:3529   */\n      tag_178\n      jump\t// in\n    tag_228:\n        /* \"#utility.yul\":3400:3535   */\n      swap3\n      swap2\n      pop\n      pop\n      jump\t// out\n        /* \"#utility.yul\":3541:4009   */\n    tag_49:\n        /* \"#utility.yul\":3606:3612   */\n      0x00\n        /* \"#utility.yul\":3614:3620   */\n      dup1\n        /* \"#utility.yul\":3663:3665   */\n      0x40\n        /* \"#utility.yul\":3651:3660   */\n      dup4\n        /* \"#utility.yul\":3642:3649   */\n      dup6\n        /* \"#utility.yul\":3638:3661   */\n      sub\n        /* \"#utility.yul\":3634:3666   */\n      slt\n        /* \"#utility.yul\":3631:3750   */\n      iszero\n      tag_230\n      jumpi\n        /* \"#utility.yul\":3669:3748   */\n      tag_231\n      tag_164\n      jump\t// in\n    tag_231:\n        /* \"#utility.yul\":3631:3750   */\n    tag_230:\n        /* \"#utility.yul\":3789:3790   */\n      0x00\n        /* \"#utility.yul\":3814:3865   */\n      tag_232\n        /* \"#utility.yul\":3857:3864   */\n      dup6\n        /* \"#utility.yul\":3848:3854   */\n      dup3\n        /* \"#utility.yul\":3837:3846   */\n      dup7\n        /* \"#utility.yul\":3833:3855   */\n      add\n        /* \"#utility.yul\":3814:3865   */\n      tag_179\n      jump\t// in\n    tag_232:\n        /* \"#utility.yul\":3804:3865   */\n      swap3\n      pop\n        /* \"#utility.yul\":3760:3875   */\n      pop\n        /* \"#utility.yul\":3914:3916   */\n      0x20\n        /* \"#utility.yul\":3940:3992   */\n      tag_233\n        /* \"#utility.yul\":3984:3991   */\n      dup6\n        /* \"#utility.yul\":3975:3981   */\n      dup3\n        /* \"#utility.yul\":3964:3973   */\n      dup7\n        /* \"#utility.yul\":3960:3982   */\n      add\n        /* \"#utility.yul\":3940:3992   */\n      tag_174\n      jump\t// in\n    tag_233:\n        /* \"#utility.yul\":3930:3992   */\n      swap2\n      pop\n        /* \"#utility.yul\":3885:4002   */\n      pop\n        /* \"#utility.yul\":3541:4009   */\n      swap3\n      pop\n      swap3\n      swap1\n      pop\n      jump\t// out\n        /* \"#utility.yul\":4015:4195   */\n    tag_180:\n        /* \"#utility.yul\":4063:4140   */\n      0x4e487b7100000000000000000000000000000000000000000000000000000000\n        /* \"#utility.yul\":4060:4061   */\n      0x00\n        /* \"#utility.yul\":4053:4141   */\n      mstore\n        /* \"#utility.yul\":4160:4164   */\n      0x12\n        /* \"#utility.yul\":4157:4158   */\n      0x04\n        /* \"#utility.yul\":4150:4165   */\n      mstore\n        /* \"#utility.yul\":4184:4188   */\n      0x24\n        /* \"#utility.yul\":4181:4182   */\n      0x00\n        /* \"#utility.yul\":4174:4189   */\n      revert\n        /* \"#utility.yul\":4201:4381   */\n    tag_181:\n        /* \"#utility.yul\":4249:4326   */\n      0x4e487b7100000000000000000000000000000000000000000000000000000000\n        /* \"#utility.yul\":4246:4247   */\n      0x00\n        /* \"#utility.yul\":4239:4327   */\n      mstore\n        /* \"#utility.yul\":4346:4350   */\n      0x11\n        /* \"#utility.yul\":4343:4344   */\n      0x04\n        /* \"#utility.yul\":4336:4351   */\n      mstore\n        /* \"#utility.yul\":4370:4374   */\n      0x24\n        /* \"#utility.yul\":4367:4368   */\n      0x00\n        /* \"#utility.yul\":4360:4375   */\n      revert\n        /* \"#utility.yul\":4387:4572   */\n    tag_58:\n        /* \"#utility.yul\":4427:4428   */\n      0x00\n        /* \"#utility.yul\":4444:4464   */\n      tag_237\n        /* \"#utility.yul\":4462:4463   */\n      dup3\n        /* \"#utility.yul\":4444:4464   */\n      tag_166\n      jump\t// in\n    tag_237:\n        /* \"#utility.yul\":4439:4464   */\n      swap2\n      pop\n        /* \"#utility.yul\":4478:4498   */\n      tag_238\n        /* \"#utility.yul\":4496:4497   */\n      dup4\n        /* \"#utility.yul\":4478:4498   */\n      tag_166\n      jump\t// in\n    tag_238:\n        /* \"#utility.yul\":4473:4498   */\n      swap3\n      pop\n        /* \"#utility.yul\":4517:4518   */\n      dup3\n        /* \"#utility.yul\":4507:4542   */\n      tag_239\n      jumpi\n        /* \"#utility.yul\":4522:4540   */\n      tag_240\n      tag_180\n      jump\t// in\n    tag_240:\n        /* \"#utility.yul\":4507:4542   */\n    tag_239:\n        /* \"#utility.yul\":4564:4565   */\n      dup3\n        /* \"#utility.yul\":4561:4562   */\n      dup3\n        /* \"#utility.yul\":4557:4566   */\n      div\n        /* \"#utility.yul\":4552:4566   */\n      swap1\n      pop\n        /* \"#utility.yul\":4387:4572   */\n      swap3\n      swap2\n      pop\n      pop\n      jump\t// out\n        /* \"#utility.yul\":4578:4754   */\n    tag_61:\n        /* \"#utility.yul\":4610:4611   */\n      0x00\n        /* \"#utility.yul\":4627:4647   */\n      tag_242\n        /* \"#utility.yul\":4645:4646   */\n      dup3\n        /* \"#utility.yul\":4627:4647   */\n      tag_166\n      jump\t// in\n    tag_242:\n        /* \"#utility.yul\":4622:4647   */\n      swap2\n      pop\n        /* \"#utility.yul\":4661:4681   */\n      tag_243\n        /* \"#utility.yul\":4679:4680   */\n      dup4\n        /* \"#utility.yul\":4661:4681   */\n      tag_166\n      jump\t// in\n    tag_243:\n        /* \"#utility.yul\":4656:4681   */\n      swap3\n      pop\n        /* \"#utility.yul\":4700:4701   */\n      dup3\n        /* \"#utility.yul\":4690:4725   */\n      tag_244\n      jumpi\n        /* \"#utility.yul\":4705:4723   */\n      tag_245\n      tag_180\n      jump\t// in\n    tag_245:\n        /* \"#utility.yul\":4690:4725   */\n    tag_244:\n        /* \"#utility.yul\":4746:4747   */\n      dup3\n        /* \"#utility.yul\":4743:4744   */\n      dup3\n        /* \"#utility.yul\":4739:4748   */\n      mod\n        /* \"#utility.yul\":4734:4748   */\n      swap1\n      pop\n        /* \"#utility.yul\":4578:4754   */\n      swap3\n      swap2\n      pop\n      pop\n      jump\t// out\n        /* \"#utility.yul\":4760:4951   */\n    tag_70:\n        /* \"#utility.yul\":4800:4803   */\n      0x00\n        /* \"#utility.yul\":4819:4839   */\n      tag_247\n        /* \"#utility.yul\":4837:4838   */\n      dup3\n        /* \"#utility.yul\":4819:4839   */\n      tag_166\n      jump\t// in\n    tag_247:\n        /* \"#utility.yul\":4814:4839   */\n      swap2\n      pop\n        /* \"#utility.yul\":4853:4873   */\n      tag_248\n        /* \"#utility.yul\":4871:4872   */\n      dup4\n        /* \"#utility.yul\":4853:4873   */\n      tag_166\n      jump\t// in\n    tag_248:\n        /* \"#utility.yul\":4848:4873   */\n      swap3\n      pop\n        /* \"#utility.yul\":4896:4897   */\n      dup3\n        /* \"#utility.yul\":4893:4894   */\n      dup3\n        /* \"#utility.yul\":4889:4898   */\n      add\n        /* \"#utility.yul\":4882:4898   */\n      swap1\n      pop\n        /* \"#utility.yul\":4917:4920   */\n      dup1\n        /* \"#utility.yul\":4914:4915   */\n      dup3\n        /* \"#utility.yul\":4911:4921   */\n      gt\n        /* \"#utility.yul\":4908:4944   */\n      iszero\n      tag_249\n      jumpi\n        /* \"#utility.yul\":4924:4942   */\n      tag_250\n      tag_181\n      jump\t// in\n    tag_250:\n        /* \"#utility.yul\":4908:4944   */\n    tag_249:\n        /* \"#utility.yul\":4760:4951   */\n      swap3\n      swap2\n      pop\n      pop\n      jump\t// out\n        /* \"#utility.yul\":4957:5151   */\n    tag_74:\n        /* \"#utility.yul\":4997:5001   */\n      0x00\n        /* \"#utility.yul\":5017:5037   */\n      tag_252\n        /* \"#utility.yul\":5035:5036   */\n      dup3\n        /* \"#utility.yul\":5017:5037   */\n      tag_166\n      jump\t// in\n    tag_252:\n        /* \"#utility.yul\":5012:5037   */\n      swap2\n      pop\n        /* \"#utility.yul\":5051:5071   */\n      tag_253\n        /* \"#utility.yul\":5069:5070   */\n      dup4\n        /* \"#utility.yul\":5051:5071   */\n      tag_166\n      jump\t// in\n    tag_253:\n        /* \"#utility.yul\":5046:5071   */\n      swap3\n      pop\n        /* \"#utility.yul\":5095:5096   */\n      dup3\n        /* \"#utility.yul\":5092:5093   */\n      dup3\n        /* \"#utility.yul\":5088:5097   */\n      sub\n        /* \"#utility.yul\":5080:5097   */\n      swap1\n      pop\n        /* \"#utility.yul\":5119:5120   */\n      dup2\n        /* \"#utility.yul\":5113:5117   */\n      dup2\n        /* \"#utility.yul\":5110:5121   */\n      gt\n        /* \"#utility.yul\":5107:5144   */\n      iszero\n      tag_254\n      jumpi\n        /* \"#utility.yul\":5124:5142   */\n      tag_255\n      tag_181\n      jump\t// in\n    tag_255:\n        /* \"#utility.yul\":5107:5144   */\n    tag_254:\n        /* \"#utility.yul\":4957:5151   */\n      swap3\n      swap2\n      pop\n      pop\n      jump\t// out\n        /* \"#utility.yul\":5157:5567   */\n    tag_76:\n        /* \"#utility.yul\":5197:5204   */\n      0x00\n        /* \"#utility.yul\":5220:5240   */\n      tag_257\n        /* \"#utility.yul\":5238:5239   */\n      dup3\n        /* \"#utility.yul\":5220:5240   */\n      tag_166\n      jump\t// in\n    tag_257:\n        /* \"#utility.yul\":5215:5240   */\n      swap2\n      pop\n        /* \"#utility.yul\":5254:5274   */\n      tag_258\n        /* \"#utility.yul\":5272:5273   */\n      dup4\n        /* \"#utility.yul\":5254:5274   */\n      tag_166\n      jump\t// in\n    tag_258:\n        /* \"#utility.yul\":5249:5274   */\n      swap3\n      pop\n        /* \"#utility.yul\":5309:5310   */\n      dup3\n        /* \"#utility.yul\":5306:5307   */\n      dup3\n        /* \"#utility.yul\":5302:5311   */\n      mul\n        /* \"#utility.yul\":5331:5361   */\n      tag_259\n        /* \"#utility.yul\":5349:5360   */\n      dup2\n        /* \"#utility.yul\":5331:5361   */\n      tag_166\n      jump\t// in\n    tag_259:\n        /* \"#utility.yul\":5320:5361   */\n      swap2\n      pop\n        /* \"#utility.yul\":5510:5511   */\n      dup3\n        /* \"#utility.yul\":5501:5508   */\n      dup3\n        /* \"#utility.yul\":5497:5512   */\n      div\n        /* \"#utility.yul\":5494:5495   */\n      dup5\n        /* \"#utility.yul\":5491:5513   */\n      eq\n        /* \"#utility.yul\":5471:5472   */\n      dup4\n        /* \"#utility.yul\":5464:5473   */\n      iszero\n        /* \"#utility.yul\":5444:5527   */\n      or\n        /* \"#utility.yul\":5421:5560   */\n      tag_260\n      jumpi\n        /* \"#utility.yul\":5540:5558   */\n      tag_261\n      tag_181\n      jump\t// in\n    tag_261:\n        /* \"#utility.yul\":5421:5560   */\n    tag_260:\n        /* \"#utility.yul\":5205:5567   */\n      pop\n        /* \"#utility.yul\":5157:5567   */\n      swap3\n      swap2\n      pop\n      pop\n      jump\t// out\n        /* \"#utility.yul\":5573:5769   */\n    tag_79:\n        /* \"#utility.yul\":5612:5616   */\n      0x00\n        /* \"#utility.yul\":5632:5651   */\n      tag_263\n        /* \"#utility.yul\":5649:5650   */\n      dup3\n        /* \"#utility.yul\":5632:5651   */\n      tag_171\n      jump\t// in\n    tag_263:\n        /* \"#utility.yul\":5627:5651   */\n      swap2\n      pop\n        /* \"#utility.yul\":5665:5684   */\n      tag_264\n        /* \"#utility.yul\":5682:5683   */\n      dup4\n        /* \"#utility.yul\":5665:5684   */\n      tag_171\n      jump\t// in\n    tag_264:\n        /* \"#utility.yul\":5660:5684   */\n      swap3\n      pop\n        /* \"#utility.yul\":5708:5709   */\n      dup3\n        /* \"#utility.yul\":5705:5706   */\n      dup3\n        /* \"#utility.yul\":5701:5710   */\n      sub\n        /* \"#utility.yul\":5693:5710   */\n      swap1\n      pop\n        /* \"#utility.yul\":5732:5738   */\n      0xffff\n        /* \"#utility.yul\":5726:5730   */\n      dup2\n        /* \"#utility.yul\":5723:5739   */\n      gt\n        /* \"#utility.yul\":5720:5762   */\n      iszero\n      tag_265\n      jumpi\n        /* \"#utility.yul\":5742:5760   */\n      tag_266\n      tag_181\n      jump\t// in\n    tag_266:\n        /* \"#utility.yul\":5720:5762   */\n    tag_265:\n        /* \"#utility.yul\":5573:5769   */\n      swap3\n      swap2\n      pop\n      pop\n      jump\t// out\n        /* \"#utility.yul\":5775:5948   */\n    tag_96:\n        /* \"#utility.yul\":5806:5807   */\n      0x00\n        /* \"#utility.yul\":5823:5842   */\n      tag_268\n        /* \"#utility.yul\":5840:5841   */\n      dup3\n        /* \"#utility.yul\":5823:5842   */\n      tag_171\n      jump\t// in\n    tag_268:\n        /* \"#utility.yul\":5818:5842   */\n      swap2\n      pop\n        /* \"#utility.yul\":5856:5875   */\n      tag_269\n        /* \"#utility.yul\":5873:5874   */\n      dup4\n        /* \"#utility.yul\":5856:5875   */\n      tag_171\n      jump\t// in\n    tag_269:\n        /* \"#utility.yul\":5851:5875   */\n      swap3\n      pop\n        /* \"#utility.yul\":5894:5895   */\n      dup3\n        /* \"#utility.yul\":5884:5919   */\n      tag_270\n      jumpi\n        /* \"#utility.yul\":5899:5917   */\n      tag_271\n      tag_180\n      jump\t// in\n    tag_271:\n        /* \"#utility.yul\":5884:5919   */\n    tag_270:\n        /* \"#utility.yul\":5940:5941   */\n      dup3\n        /* \"#utility.yul\":5937:5938   */\n      dup3\n        /* \"#utility.yul\":5933:5942   */\n      mod\n        /* \"#utility.yul\":5928:5942   */\n      swap1\n      pop\n        /* \"#utility.yul\":5775:5948   */\n      swap3\n      swap2\n      pop\n      pop\n      jump\t// out\n        /* \"#utility.yul\":5954:6121   */\n    tag_151:\n        /* \"#utility.yul\":5991:5994   */\n      0x00\n        /* \"#utility.yul\":6014:6036   */\n      tag_273\n        /* \"#utility.yul\":6030:6035   */\n      dup3\n        /* \"#utility.yul\":6014:6036   */\n      tag_169\n      jump\t// in\n    tag_273:\n        /* \"#utility.yul\":6005:6036   */\n      swap2\n      pop\n        /* \"#utility.yul\":6058:6062   */\n      0xff\n        /* \"#utility.yul\":6051:6056   */\n      dup3\n        /* \"#utility.yul\":6048:6063   */\n      sub\n        /* \"#utility.yul\":6045:6086   */\n      tag_274\n      jumpi\n        /* \"#utility.yul\":6066:6084   */\n      tag_275\n      tag_181\n      jump\t// in\n    tag_275:\n        /* \"#utility.yul\":6045:6086   */\n    tag_274:\n        /* \"#utility.yul\":6113:6114   */\n      0x01\n        /* \"#utility.yul\":6106:6111   */\n      dup3\n        /* \"#utility.yul\":6102:6115   */\n      add\n        /* \"#utility.yul\":6095:6115   */\n      swap1\n      pop\n        /* \"#utility.yul\":5954:6121   */\n      swap2\n      swap1\n      pop\n      jump\t// out\n\n    auxdata: 0xa2646970667358221220f697a8c46903ea8dc91ce1b0557be01d1672d4cb9e9bab1914bd930bf5eaa5b064736f6c63430008110033\n}\n",
				"bytecode": {
					"linkReferences": {},
					"object": "608060405234801561001057600080fd5b50610bea806100206000396000f3fe608060405234801561001057600080fd5b50600436106100935760003560e01c8063a324ad2411610066578063a324ad2414610158578063a6f0e57714610188578063b1999937146101b8578063b238ad0e146101e8578063fa93f8831461021857610093565b80633e239e1a1461009857806365c72840146100c85780638aa001fc146100f857806392d6631314610128575b600080fd5b6100b260048036038101906100ad91906107f9565b610248565b6040516100bf9190610842565b60405180910390f35b6100e260048036038101906100dd91906107f9565b610275565b6040516100ef9190610842565b60405180910390f35b610112600480360381019061010d91906107f9565b61028b565b60405161011f9190610842565b60405180910390f35b610142600480360381019061013d91906107f9565b6102a1565b60405161014f919061087a565b60405180910390f35b610172600480360381019061016d91906107f9565b6103b8565b60405161017f9190610842565b60405180910390f35b6101a2600480360381019061019d91906108c1565b6103ce565b6040516101af9190610909565b60405180910390f35b6101d260048036038101906101cd91906107f9565b61043d565b6040516101df9190610933565b60405180910390f35b61020260048036038101906101fd919061097a565b610491565b60405161020f9190610842565b60405180910390f35b610232600480360381019061022d91906107f9565b61055d565b60405161023f9190610842565b60405180910390f35b60006018603c808461025a9190610a18565b6102649190610a18565b61026e9190610a49565b9050919050565b60006102808261057e565b604001519050919050565b6000603c8261029a9190610a49565b9050919050565b600080600090506000806301e13380856102bb9190610a18565b6107b261ffff166102cc9190610a7a565b91506102dd6107b261ffff1661043d565b6102ea8361ffff1661043d565b6102f49190610aae565b9050806301e285006103069190610ae2565b836103119190610a7a565b9250806107b2836103229190610b24565b61ffff166103309190610aae565b6301e1338061033f9190610ae2565b8361034a9190610a7a565b92505b848311156103ad5761036a6001836103659190610b24565b6103ce565b15610386576301e285008361037f9190610aae565b9250610399565b6301e13380836103969190610aae565b92505b6001826103a69190610b24565b915061034d565b819350505050919050565b60006103c38261057e565b602001519050919050565b6000806004836103de9190610b5a565b61ffff16146103f05760009050610438565b60006064836103ff9190610b5a565b61ffff16146104115760019050610438565b6000610190836104219190610b5a565b61ffff16146104335760009050610438565b600190505b919050565b600060018261044c9190610aae565b91506101908261045c9190610a18565b6064836104699190610a18565b6004846104769190610a18565b6104809190610aae565b61048a9190610a7a565b9050919050565b600060018360ff1614806104a8575060038360ff16145b806104b6575060058360ff16145b806104c4575060078360ff16145b806104d2575060088360ff16145b806104e05750600a8360ff16145b806104ee5750600c8360ff16145b156104fc57601f9050610557565b60048360ff161480610511575060068360ff16145b8061051f575060098360ff16145b8061052d5750600b8360ff16145b1561053b57601e9050610557565b610544826103ce565b1561055257601d9050610557565b601c90505b92915050565b6000603c808361056d9190610a18565b6105779190610a49565b9050919050565b610586610775565b60008080610593856102a1565b846000019061ffff16908161ffff16815250506105b56107b261ffff1661043d565b6105c6856000015161ffff1661043d565b6105d09190610aae565b9150816301e285006105e29190610ae2565b836105ed9190610a7a565b9250816107b285600001516106029190610b24565b61ffff166106109190610aae565b6301e1338061061f9190610ae2565b8361062a9190610a7a565b92506000600191505b600c8260ff16116106aa5761064c828660000151610491565b60ff166201518061065d9190610ae2565b905085848261066c9190610a7a565b11156106895781856020019060ff16908160ff16815250506106aa565b80846106959190610a7a565b935081806106a290610b8b565b925050610633565b600191505b6106c185602001518660000151610491565b60ff168260ff161161071e578584620151806106dd9190610a7a565b11156106fa5781856040019060ff16908160ff168152505061071e565b62015180846107099190610a7a565b9350818061071690610b8b565b9250506106af565b61072786610248565b856060019060ff16908160ff16815250506107418661055d565b856080019060ff16908160ff168152505061075b8661028b565b8560a0019060ff16908160ff168152505050505050919050565b6040518060c00160405280600061ffff168152602001600060ff168152602001600060ff168152602001600060ff168152602001600060ff168152602001600060ff1681525090565b600080fd5b6000819050919050565b6107d6816107c3565b81146107e157600080fd5b50565b6000813590506107f3816107cd565b92915050565b60006020828403121561080f5761080e6107be565b5b600061081d848285016107e4565b91505092915050565b600060ff82169050919050565b61083c81610826565b82525050565b60006020820190506108576000830184610833565b92915050565b600061ffff82169050919050565b6108748161085d565b82525050565b600060208201905061088f600083018461086b565b92915050565b61089e8161085d565b81146108a957600080fd5b50565b6000813590506108bb81610895565b92915050565b6000602082840312156108d7576108d66107be565b5b60006108e5848285016108ac565b91505092915050565b60008115159050919050565b610903816108ee565b82525050565b600060208201905061091e60008301846108fa565b92915050565b61092d816107c3565b82525050565b60006020820190506109486000830184610924565b92915050565b61095781610826565b811461096257600080fd5b50565b6000813590506109748161094e565b92915050565b60008060408385031215610991576109906107be565b5b600061099f85828601610965565b92505060206109b0858286016108ac565b9150509250929050565b7f4e487b7100000000000000000000000000000000000000000000000000000000600052601260045260246000fd5b7f4e487b7100000000000000000000000000000000000000000000000000000000600052601160045260246000fd5b6000610a23826107c3565b9150610a2e836107c3565b925082610a3e57610a3d6109ba565b5b828204905092915050565b6000610a54826107c3565b9150610a5f836107c3565b925082610a6f57610a6e6109ba565b5b828206905092915050565b6000610a85826107c3565b9150610a90836107c3565b9250828201905080821115610aa857610aa76109e9565b5b92915050565b6000610ab9826107c3565b9150610ac4836107c3565b9250828203905081811115610adc57610adb6109e9565b5b92915050565b6000610aed826107c3565b9150610af8836107c3565b9250828202610b06816107c3565b91508282048414831517610b1d57610b1c6109e9565b5b5092915050565b6000610b2f8261085d565b9150610b3a8361085d565b9250828203905061ffff811115610b5457610b536109e9565b5b92915050565b6000610b658261085d565b9150610b708361085d565b925082610b8057610b7f6109ba565b5b828206905092915050565b6000610b9682610826565b915060ff8203610ba957610ba86109e9565b5b60018201905091905056fea2646970667358221220f697a8c46903ea8dc91ce1b0557be01d1672d4cb9e9bab1914bd930bf5eaa5b064736f6c63430008110033",
					"opcodes": "PUSH1 0x80 PUSH1 0x40 MSTORE CALLVALUE DUP1 ISZERO PUSH2 0x10 JUMPI PUSH1 0x0 DUP1 REVERT JUMPDEST POP PUSH2 0xBEA DUP1 PUSH2 0x20 PUSH1 0x0 CODECOPY PUSH1 0x0 RETURN INVALID PUSH1 0x80 PUSH1 0x40 MSTORE CALLVALUE DUP1 ISZERO PUSH2 0x10 JUMPI PUSH1 0x0 DUP1 REVERT JUMPDEST POP PUSH1 0x4 CALLDATASIZE LT PUSH2 0x93 JUMPI PUSH1 0x0 CALLDATALOAD PUSH1 0xE0 SHR DUP1 PUSH4 0xA324AD24 GT PUSH2 0x66 JUMPI DUP1 PUSH4 0xA324AD24 EQ PUSH2 0x158 JUMPI DUP1 PUSH4 0xA6F0E577 EQ PUSH2 0x188 JUMPI DUP1 PUSH4 0xB1999937 EQ PUSH2 0x1B8 JUMPI DUP1 PUSH4 0xB238AD0E EQ PUSH2 0x1E8 JUMPI DUP1 PUSH4 0xFA93F883 EQ PUSH2 0x218 JUMPI PUSH2 0x93 JUMP JUMPDEST DUP1 PUSH4 0x3E239E1A EQ PUSH2 0x98 JUMPI DUP1 PUSH4 0x65C72840 EQ PUSH2 0xC8 JUMPI DUP1 PUSH4 0x8AA001FC EQ PUSH2 0xF8 JUMPI DUP1 PUSH4 0x92D66313 EQ PUSH2 0x128 JUMPI JUMPDEST PUSH1 0x0 DUP1 REVERT JUMPDEST PUSH2 0xB2 PUSH1 0x4 DUP1 CALLDATASIZE SUB DUP2 ADD SWAP1 PUSH2 0xAD SWAP2 SWAP1 PUSH2 0x7F9 JUMP JUMPDEST PUSH2 0x248 JUMP JUMPDEST PUSH1 0x40 MLOAD PUSH2 0xBF SWAP2 SWAP1 PUSH2 0x842 JUMP JUMPDEST PUSH1 0x40 MLOAD DUP1 SWAP2 SUB SWAP1 RETURN JUMPDEST PUSH2 0xE2 PUSH1 0x4 DUP1 CALLDATASIZE SUB DUP2 ADD SWAP1 PUSH2 0xDD SWAP2 SWAP1 PUSH2 0x7F9 JUMP JUMPDEST PUSH2 0x275 JUMP JUMPDEST PUSH1 0x40 MLOAD PUSH2 0xEF SWAP2 SWAP1 PUSH2 0x842 JUMP JUMPDEST PUSH1 0x40 MLOAD DUP1 SWAP2 SUB SWAP1 RETURN JUMPDEST PUSH2 0x112 PUSH1 0x4 DUP1 CALLDATASIZE SUB DUP2 ADD SWAP1 PUSH2 0x10D SWAP2 SWAP1 PUSH2 0x7F9 JUMP JUMPDEST PUSH2 0x28B JUMP JUMPDEST PUSH1 0x40 MLOAD PUSH2 0x11F SWAP2 SWAP1 PUSH2 0x842 JUMP JUMPDEST PUSH1 0x40 MLOAD DUP1 SWAP2 SUB SWAP1 RETURN JUMPDEST PUSH2 0x142 PUSH1 0x4 DUP1 CALLDATASIZE SUB DUP2 ADD SWAP1 PUSH2 0x13D SWAP2 SWAP1 PUSH2 0x7F9 JUMP JUMPDEST PUSH2 0x2A1 JUMP JUMPDEST PUSH1 0x40 MLOAD PUSH2 0x14F SWAP2 SWAP1 PUSH2 0x87A JUMP JUMPDEST PUSH1 0x40 MLOAD DUP1 SWAP2 SUB SWAP1 RETURN JUMPDEST PUSH2 0x172 PUSH1 0x4 DUP1 CALLDATASIZE SUB DUP2 ADD SWAP1 PUSH2 0x16D SWAP2 SWAP1 PUSH2 0x7F9 JUMP JUMPDEST PUSH2 0x3B8 JUMP JUMPDEST PUSH1 0x40 MLOAD PUSH2 0x17F SWAP2 SWAP1 PUSH2 0x842 JUMP JUMPDEST PUSH1 0x40 MLOAD DUP1 SWAP2 SUB SWAP1 RETURN JUMPDEST PUSH2 0x1A2 PUSH1 0x4 DUP1 CALLDATASIZE SUB DUP2 ADD SWAP1 PUSH2 0x19D SWAP2 SWAP1 PUSH2 0x8C1 JUMP JUMPDEST PUSH2 0x3CE JUMP JUMPDEST PUSH1 0x40 MLOAD PUSH2 0x1AF SWAP2 SWAP1 PUSH2 0x909 JUMP JUMPDEST PUSH1 0x40 MLOAD DUP1 SWAP2 SUB SWAP1 RETURN JUMPDEST PUSH2 0x1D2 PUSH1 0x4 DUP1 CALLDATASIZE SUB DUP2 ADD SWAP1 PUSH2 0x1CD SWAP2 SWAP1 PUSH2 0x7F9 JUMP JUMPDEST PUSH2 0x43D JUMP JUMPDEST PUSH1 0x40 MLOAD PUSH2 0x1DF SWAP2 SWAP1 PUSH2 0x933 JUMP JUMPDEST PUSH1 0x40 MLOAD DUP1 SWAP2 SUB SWAP1 RETURN JUMPDEST PUSH2 0x202 PUSH1 0x4 DUP1 CALLDATASIZE SUB DUP2 ADD SWAP1 PUSH2 0x1FD SWAP2 SWAP1 PUSH2 0x97A JUMP JUMPDEST PUSH2 0x491 JUMP JUMPDEST PUSH1 0x40 MLOAD PUSH2 0x20F SWAP2 SWAP1 PUSH2 0x842 JUMP JUMPDEST PUSH1 0x40 MLOAD DUP1 SWAP2 SUB SWAP1 RETURN JUMPDEST PUSH2 0x232 PUSH1 0x4 DUP1 CALLDATASIZE SUB DUP2 ADD SWAP1 PUSH2 0x22D SWAP2 SWAP1 PUSH2 0x7F9 JUMP JUMPDEST PUSH2 0x55D JUMP JUMPDEST PUSH1 0x40 MLOAD PUSH2 0x23F SWAP2 SWAP1 PUSH2 0x842 JUMP JUMPDEST PUSH1 0x40 MLOAD DUP1 SWAP2 SUB SWAP1 RETURN JUMPDEST PUSH1 0x0 PUSH1 0x18 PUSH1 0x3C DUP1 DUP5 PUSH2 0x25A SWAP2 SWAP1 PUSH2 0xA18 JUMP JUMPDEST PUSH2 0x264 SWAP2 SWAP1 PUSH2 0xA18 JUMP JUMPDEST PUSH2 0x26E SWAP2 SWAP1 PUSH2 0xA49 JUMP JUMPDEST SWAP1 POP SWAP2 SWAP1 POP JUMP JUMPDEST PUSH1 0x0 PUSH2 0x280 DUP3 PUSH2 0x57E JUMP JUMPDEST PUSH1 0x40 ADD MLOAD SWAP1 POP SWAP2 SWAP1 POP JUMP JUMPDEST PUSH1 0x0 PUSH1 0x3C DUP3 PUSH2 0x29A SWAP2 SWAP1 PUSH2 0xA49 JUMP JUMPDEST SWAP1 POP SWAP2 SWAP1 POP JUMP JUMPDEST PUSH1 0x0 DUP1 PUSH1 0x0 SWAP1 POP PUSH1 0x0 DUP1 PUSH4 0x1E13380 DUP6 PUSH2 0x2BB SWAP2 SWAP1 PUSH2 0xA18 JUMP JUMPDEST PUSH2 0x7B2 PUSH2 0xFFFF AND PUSH2 0x2CC SWAP2 SWAP1 PUSH2 0xA7A JUMP JUMPDEST SWAP2 POP PUSH2 0x2DD PUSH2 0x7B2 PUSH2 0xFFFF AND PUSH2 0x43D JUMP JUMPDEST PUSH2 0x2EA DUP4 PUSH2 0xFFFF AND PUSH2 0x43D JUMP JUMPDEST PUSH2 0x2F4 SWAP2 SWAP1 PUSH2 0xAAE JUMP JUMPDEST SWAP1 POP DUP1 PUSH4 0x1E28500 PUSH2 0x306 SWAP2 SWAP1 PUSH2 0xAE2 JUMP JUMPDEST DUP4 PUSH2 0x311 SWAP2 SWAP1 PUSH2 0xA7A JUMP JUMPDEST SWAP3 POP DUP1 PUSH2 0x7B2 DUP4 PUSH2 0x322 SWAP2 SWAP1 PUSH2 0xB24 JUMP JUMPDEST PUSH2 0xFFFF AND PUSH2 0x330 SWAP2 SWAP1 PUSH2 0xAAE JUMP JUMPDEST PUSH4 0x1E13380 PUSH2 0x33F SWAP2 SWAP1 PUSH2 0xAE2 JUMP JUMPDEST DUP4 PUSH2 0x34A SWAP2 SWAP1 PUSH2 0xA7A JUMP JUMPDEST SWAP3 POP JUMPDEST DUP5 DUP4 GT ISZERO PUSH2 0x3AD JUMPI PUSH2 0x36A PUSH1 0x1 DUP4 PUSH2 0x365 SWAP2 SWAP1 PUSH2 0xB24 JUMP JUMPDEST PUSH2 0x3CE JUMP JUMPDEST ISZERO PUSH2 0x386 JUMPI PUSH4 0x1E28500 DUP4 PUSH2 0x37F SWAP2 SWAP1 PUSH2 0xAAE JUMP JUMPDEST SWAP3 POP PUSH2 0x399 JUMP JUMPDEST PUSH4 0x1E13380 DUP4 PUSH2 0x396 SWAP2 SWAP1 PUSH2 0xAAE JUMP JUMPDEST SWAP3 POP JUMPDEST PUSH1 0x1 DUP3 PUSH2 0x3A6 SWAP2 SWAP1 PUSH2 0xB24 JUMP JUMPDEST SWAP2 POP PUSH2 0x34D JUMP JUMPDEST DUP2 SWAP4 POP POP POP POP SWAP2 SWAP1 POP JUMP JUMPDEST PUSH1 0x0 PUSH2 0x3C3 DUP3 PUSH2 0x57E JUMP JUMPDEST PUSH1 0x20 ADD MLOAD SWAP1 POP SWAP2 SWAP1 POP JUMP JUMPDEST PUSH1 0x0 DUP1 PUSH1 0x4 DUP4 PUSH2 0x3DE SWAP2 SWAP1 PUSH2 0xB5A JUMP JUMPDEST PUSH2 0xFFFF AND EQ PUSH2 0x3F0 JUMPI PUSH1 0x0 SWAP1 POP PUSH2 0x438 JUMP JUMPDEST PUSH1 0x0 PUSH1 0x64 DUP4 PUSH2 0x3FF SWAP2 SWAP1 PUSH2 0xB5A JUMP JUMPDEST PUSH2 0xFFFF AND EQ PUSH2 0x411 JUMPI PUSH1 0x1 SWAP1 POP PUSH2 0x438 JUMP JUMPDEST PUSH1 0x0 PUSH2 0x190 DUP4 PUSH2 0x421 SWAP2 SWAP1 PUSH2 0xB5A JUMP JUMPDEST PUSH2 0xFFFF AND EQ PUSH2 0x433 JUMPI PUSH1 0x0 SWAP1 POP PUSH2 0x438 JUMP JUMPDEST PUSH1 0x1 SWAP1 POP JUMPDEST SWAP2 SWAP1 POP JUMP JUMPDEST PUSH1 0x0 PUSH1 0x1 DUP3 PUSH2 0x44C SWAP2 SWAP1 PUSH2 0xAAE JUMP JUMPDEST SWAP2 POP PUSH2 0x190 DUP3 PUSH2 0x45C SWAP2 SWAP1 PUSH2 0xA18 JUMP JUMPDEST PUSH1 0x64 DUP4 PUSH2 0x469 SWAP2 SWAP1 PUSH2 0xA18 JUMP JUMPDEST PUSH1 0x4 DUP5 PUSH2 0x476 SWAP2 SWAP1 PUSH2 0xA18 JUMP JUMPDEST PUSH2 0x480 SWAP2 SWAP1 PUSH2 0xAAE JUMP JUMPDEST PUSH2 0x48A SWAP2 SWAP1 PUSH2 0xA7A JUMP JUMPDEST SWAP1 POP SWAP2 SWAP1 POP JUMP JUMPDEST PUSH1 0x0 PUSH1 0x1 DUP4 PUSH1 0xFF AND EQ DUP1 PUSH2 0x4A8 JUMPI POP PUSH1 0x3 DUP4 PUSH1 0xFF AND EQ JUMPDEST DUP1 PUSH2 0x4B6 JUMPI POP PUSH1 0x5 DUP4 PUSH1 0xFF AND EQ JUMPDEST DUP1 PUSH2 0x4C4 JUMPI POP PUSH1 0x7 DUP4 PUSH1 0xFF AND EQ JUMPDEST DUP1 PUSH2 0x4D2 JUMPI POP PUSH1 0x8 DUP4 PUSH1 0xFF AND EQ JUMPDEST DUP1 PUSH2 0x4E0 JUMPI POP PUSH1 0xA DUP4 PUSH1 0xFF AND EQ JUMPDEST DUP1 PUSH2 0x4EE JUMPI POP PUSH1 0xC DUP4 PUSH1 0xFF AND EQ JUMPDEST ISZERO PUSH2 0x4FC JUMPI PUSH1 0x1F SWAP1 POP PUSH2 0x557 JUMP JUMPDEST PUSH1 0x4 DUP4 PUSH1 0xFF AND EQ DUP1 PUSH2 0x511 JUMPI POP PUSH1 0x6 DUP4 PUSH1 0xFF AND EQ JUMPDEST DUP1 PUSH2 0x51F JUMPI POP PUSH1 0x9 DUP4 PUSH1 0xFF AND EQ JUMPDEST DUP1 PUSH2 0x52D JUMPI POP PUSH1 0xB DUP4 PUSH1 0xFF AND EQ JUMPDEST ISZERO PUSH2 0x53B JUMPI PUSH1 0x1E SWAP1 POP PUSH2 0x557 JUMP JUMPDEST PUSH2 0x544 DUP3 PUSH2 0x3CE JUMP JUMPDEST ISZERO PUSH2 0x552 JUMPI PUSH1 0x1D SWAP1 POP PUSH2 0x557 JUMP JUMPDEST PUSH1 0x1C SWAP1 POP JUMPDEST SWAP3 SWAP2 POP POP JUMP JUMPDEST PUSH1 0x0 PUSH1 0x3C DUP1 DUP4 PUSH2 0x56D SWAP2 SWAP1 PUSH2 0xA18 JUMP JUMPDEST PUSH2 0x577 SWAP2 SWAP1 PUSH2 0xA49 JUMP JUMPDEST SWAP1 POP SWAP2 SWAP1 POP JUMP JUMPDEST PUSH2 0x586 PUSH2 0x775 JUMP JUMPDEST PUSH1 0x0 DUP1 DUP1 PUSH2 0x593 DUP6 PUSH2 0x2A1 JUMP JUMPDEST DUP5 PUSH1 0x0 ADD SWAP1 PUSH2 0xFFFF AND SWAP1 DUP2 PUSH2 0xFFFF AND DUP2 MSTORE POP POP PUSH2 0x5B5 PUSH2 0x7B2 PUSH2 0xFFFF AND PUSH2 0x43D JUMP JUMPDEST PUSH2 0x5C6 DUP6 PUSH1 0x0 ADD MLOAD PUSH2 0xFFFF AND PUSH2 0x43D JUMP JUMPDEST PUSH2 0x5D0 SWAP2 SWAP1 PUSH2 0xAAE JUMP JUMPDEST SWAP2 POP DUP2 PUSH4 0x1E28500 PUSH2 0x5E2 SWAP2 SWAP1 PUSH2 0xAE2 JUMP JUMPDEST DUP4 PUSH2 0x5ED SWAP2 SWAP1 PUSH2 0xA7A JUMP JUMPDEST SWAP3 POP DUP2 PUSH2 0x7B2 DUP6 PUSH1 0x0 ADD MLOAD PUSH2 0x602 SWAP2 SWAP1 PUSH2 0xB24 JUMP JUMPDEST PUSH2 0xFFFF AND PUSH2 0x610 SWAP2 SWAP1 PUSH2 0xAAE JUMP JUMPDEST PUSH4 0x1E13380 PUSH2 0x61F SWAP2 SWAP1 PUSH2 0xAE2 JUMP JUMPDEST DUP4 PUSH2 0x62A SWAP2 SWAP1 PUSH2 0xA7A JUMP JUMPDEST SWAP3 POP PUSH1 0x0 PUSH1 0x1 SWAP2 POP JUMPDEST PUSH1 0xC DUP3 PUSH1 0xFF AND GT PUSH2 0x6AA JUMPI PUSH2 0x64C DUP3 DUP7 PUSH1 0x0 ADD MLOAD PUSH2 0x491 JUMP JUMPDEST PUSH1 0xFF AND PUSH3 0x15180 PUSH2 0x65D SWAP2 SWAP1 PUSH2 0xAE2 JUMP JUMPDEST SWAP1 POP DUP6 DUP5 DUP3 PUSH2 0x66C SWAP2 SWAP1 PUSH2 0xA7A JUMP JUMPDEST GT ISZERO PUSH2 0x689 JUMPI DUP2 DUP6 PUSH1 0x20 ADD SWAP1 PUSH1 0xFF AND SWAP1 DUP2 PUSH1 0xFF AND DUP2 MSTORE POP POP PUSH2 0x6AA JUMP JUMPDEST DUP1 DUP5 PUSH2 0x695 SWAP2 SWAP1 PUSH2 0xA7A JUMP JUMPDEST SWAP4 POP DUP2 DUP1 PUSH2 0x6A2 SWAP1 PUSH2 0xB8B JUMP JUMPDEST SWAP3 POP POP PUSH2 0x633 JUMP JUMPDEST PUSH1 0x1 SWAP2 POP JUMPDEST PUSH2 0x6C1 DUP6 PUSH1 0x20 ADD MLOAD DUP7 PUSH1 0x0 ADD MLOAD PUSH2 0x491 JUMP JUMPDEST PUSH1 0xFF AND DUP3 PUSH1 0xFF AND GT PUSH2 0x71E JUMPI DUP6 DUP5 PUSH3 0x15180 PUSH2 0x6DD SWAP2 SWAP1 PUSH2 0xA7A JUMP JUMPDEST GT ISZERO PUSH2 0x6FA JUMPI DUP2 DUP6 PUSH1 0x40 ADD SWAP1 PUSH1 0xFF AND SWAP1 DUP2 PUSH1 0xFF AND DUP2 MSTORE POP POP PUSH2 0x71E JUMP JUMPDEST PUSH3 0x15180 DUP5 PUSH2 0x709 SWAP2 SWAP1 PUSH2 0xA7A JUMP JUMPDEST SWAP4 POP DUP2 DUP1 PUSH2 0x716 SWAP1 PUSH2 0xB8B JUMP JUMPDEST SWAP3 POP POP PUSH2 0x6AF JUMP JUMPDEST PUSH2 0x727 DUP7 PUSH2 0x248 JUMP JUMPDEST DUP6 PUSH1 0x60 ADD SWAP1 PUSH1 0xFF AND SWAP1 DUP2 PUSH1 0xFF AND DUP2 MSTORE POP POP PUSH2 0x741 DUP7 PUSH2 0x55D JUMP JUMPDEST DUP6 PUSH1 0x80 ADD SWAP1 PUSH1 0xFF AND SWAP1 DUP2 PUSH1 0xFF AND DUP2 MSTORE POP POP PUSH2 0x75B DUP7 PUSH2 0x28B JUMP JUMPDEST DUP6 PUSH1 0xA0 ADD SWAP1 PUSH1 0xFF AND SWAP1 DUP2 PUSH1 0xFF AND DUP2 MSTORE POP POP POP POP POP POP SWAP2 SWAP1 POP JUMP JUMPDEST PUSH1 0x40 MLOAD DUP1 PUSH1 0xC0 ADD PUSH1 0x40 MSTORE DUP1 PUSH1 0x0 PUSH2 0xFFFF AND DUP2 MSTORE PUSH1 0x20 ADD PUSH1 0x0 PUSH1 0xFF AND DUP2 MSTORE PUSH1 0x20 ADD PUSH1 0x0 PUSH1 0xFF AND DUP2 MSTORE PUSH1 0x20 ADD PUSH1 0x0 PUSH1 0xFF AND DUP2 MSTORE PUSH1 0x20 ADD PUSH1 0x0 PUSH1 0xFF AND DUP2 MSTORE PUSH1 0x20 ADD PUSH1 0x0 PUSH1 0xFF AND DUP2 MSTORE POP SWAP1 JUMP JUMPDEST PUSH1 0x0 DUP1 REVERT JUMPDEST PUSH1 0x0 DUP2 SWAP1 POP SWAP2 SWAP1 POP JUMP JUMPDEST PUSH2 0x7D6 DUP2 PUSH2 0x7C3 JUMP JUMPDEST DUP2 EQ PUSH2 0x7E1 JUMPI PUSH1 0x0 DUP1 REVERT JUMPDEST POP JUMP JUMPDEST PUSH1 0x0 DUP2 CALLDATALOAD SWAP1 POP PUSH2 0x7F3 DUP2 PUSH2 0x7CD JUMP JUMPDEST SWAP3 SWAP2 POP POP JUMP JUMPDEST PUSH1 0x0 PUSH1 0x20 DUP3 DUP5 SUB SLT ISZERO PUSH2 0x80F JUMPI PUSH2 0x80E PUSH2 0x7BE JUMP JUMPDEST JUMPDEST PUSH1 0x0 PUSH2 0x81D DUP5 DUP3 DUP6 ADD PUSH2 0x7E4 JUMP JUMPDEST SWAP2 POP POP SWAP3 SWAP2 POP POP JUMP JUMPDEST PUSH1 0x0 PUSH1 0xFF DUP3 AND SWAP1 POP SWAP2 SWAP1 POP JUMP JUMPDEST PUSH2 0x83C DUP2 PUSH2 0x826 JUMP JUMPDEST DUP3 MSTORE POP POP JUMP JUMPDEST PUSH1 0x0 PUSH1 0x20 DUP3 ADD SWAP1 POP PUSH2 0x857 PUSH1 0x0 DUP4 ADD DUP5 PUSH2 0x833 JUMP JUMPDEST SWAP3 SWAP2 POP POP JUMP JUMPDEST PUSH1 0x0 PUSH2 0xFFFF DUP3 AND SWAP1 POP SWAP2 SWAP1 POP JUMP JUMPDEST PUSH2 0x874 DUP2 PUSH2 0x85D JUMP JUMPDEST DUP3 MSTORE POP POP JUMP JUMPDEST PUSH1 0x0 PUSH1 0x20 DUP3 ADD SWAP1 POP PUSH2 0x88F PUSH1 0x0 DUP4 ADD DUP5 PUSH2 0x86B JUMP JUMPDEST SWAP3 SWAP2 POP POP JUMP JUMPDEST PUSH2 0x89E DUP2 PUSH2 0x85D JUMP JUMPDEST DUP2 EQ PUSH2 0x8A9 JUMPI PUSH1 0x0 DUP1 REVERT JUMPDEST POP JUMP JUMPDEST PUSH1 0x0 DUP2 CALLDATALOAD SWAP1 POP PUSH2 0x8BB DUP2 PUSH2 0x895 JUMP JUMPDEST SWAP3 SWAP2 POP POP JUMP JUMPDEST PUSH1 0x0 PUSH1 0x20 DUP3 DUP5 SUB SLT ISZERO PUSH2 0x8D7 JUMPI PUSH2 0x8D6 PUSH2 0x7BE JUMP JUMPDEST JUMPDEST PUSH1 0x0 PUSH2 0x8E5 DUP5 DUP3 DUP6 ADD PUSH2 0x8AC JUMP JUMPDEST SWAP2 POP POP SWAP3 SWAP2 POP POP JUMP JUMPDEST PUSH1 0x0 DUP2 ISZERO ISZERO SWAP1 POP SWAP2 SWAP1 POP JUMP JUMPDEST PUSH2 0x903 DUP2 PUSH2 0x8EE JUMP JUMPDEST DUP3 MSTORE POP POP JUMP JUMPDEST PUSH1 0x0 PUSH1 0x20 DUP3 ADD SWAP1 POP PUSH2 0x91E PUSH1 0x0 DUP4 ADD DUP5 PUSH2 0x8FA JUMP JUMPDEST SWAP3 SWAP2 POP POP JUMP JUMPDEST PUSH2 0x92D DUP2 PUSH2 0x7C3 JUMP JUMPDEST DUP3 MSTORE POP POP JUMP JUMPDEST PUSH1 0x0 PUSH1 0x20 DUP3 ADD SWAP1 POP PUSH2 0x948 PUSH1 0x0 DUP4 ADD DUP5 PUSH2 0x924 JUMP JUMPDEST SWAP3 SWAP2 POP POP JUMP JUMPDEST PUSH2 0x957 DUP2 PUSH2 0x826 JUMP JUMPDEST DUP2 EQ PUSH2 0x962 JUMPI PUSH1 0x0 DUP1 REVERT JUMPDEST POP JUMP JUMPDEST PUSH1 0x0 DUP2 CALLDATALOAD SWAP1 POP PUSH2 0x974 DUP2 PUSH2 0x94E JUMP JUMPDEST SWAP3 SWAP2 POP POP JUMP JUMPDEST PUSH1 0x0 DUP1 PUSH1 0x40 DUP4 DUP6 SUB SLT ISZERO PUSH2 0x991 JUMPI PUSH2 0x990 PUSH2 0x7BE JUMP JUMPDEST JUMPDEST PUSH1 0x0 PUSH2 0x99F DUP6 DUP3 DUP7 ADD PUSH2 0x965 JUMP JUMPDEST SWAP3 POP POP PUSH1 0x20 PUSH2 0x9B0 DUP6 DUP3 DUP7 ADD PUSH2 0x8AC JUMP JUMPDEST SWAP2 POP POP SWAP3 POP SWAP3 SWAP1 POP JUMP JUMPDEST PUSH32 0x4E487B7100000000000000000000000000000000000000000000000000000000 PUSH1 0x0 MSTORE PUSH1 0x12 PUSH1 0x4 MSTORE PUSH1 0x24 PUSH1 0x0 REVERT JUMPDEST PUSH32 0x4E487B7100000000000000000000000000000000000000000000000000000000 PUSH1 0x0 MSTORE PUSH1 0x11 PUSH1 0x4 MSTORE PUSH1 0x24 PUSH1 0x0 REVERT JUMPDEST PUSH1 0x0 PUSH2 0xA23 DUP3 PUSH2 0x7C3 JUMP JUMPDEST SWAP2 POP PUSH2 0xA2E DUP4 PUSH2 0x7C3 JUMP JUMPDEST SWAP3 POP DUP3 PUSH2 0xA3E JUMPI PUSH2 0xA3D PUSH2 0x9BA JUMP JUMPDEST JUMPDEST DUP3 DUP3 DIV SWAP1 POP SWAP3 SWAP2 POP POP JUMP JUMPDEST PUSH1 0x0 PUSH2 0xA54 DUP3 PUSH2 0x7C3 JUMP JUMPDEST SWAP2 POP PUSH2 0xA5F DUP4 PUSH2 0x7C3 JUMP JUMPDEST SWAP3 POP DUP3 PUSH2 0xA6F JUMPI PUSH2 0xA6E PUSH2 0x9BA JUMP JUMPDEST JUMPDEST DUP3 DUP3 MOD SWAP1 POP SWAP3 SWAP2 POP POP JUMP JUMPDEST PUSH1 0x0 PUSH2 0xA85 DUP3 PUSH2 0x7C3 JUMP JUMPDEST SWAP2 POP PUSH2 0xA90 DUP4 PUSH2 0x7C3 JUMP JUMPDEST SWAP3 POP DUP3 DUP3 ADD SWAP1 POP DUP1 DUP3 GT ISZERO PUSH2 0xAA8 JUMPI PUSH2 0xAA7 PUSH2 0x9E9 JUMP JUMPDEST JUMPDEST SWAP3 SWAP2 POP POP JUMP JUMPDEST PUSH1 0x0 PUSH2 0xAB9 DUP3 PUSH2 0x7C3 JUMP JUMPDEST SWAP2 POP PUSH2 0xAC4 DUP4 PUSH2 0x7C3 JUMP JUMPDEST SWAP3 POP DUP3 DUP3 SUB SWAP1 POP DUP2 DUP2 GT ISZERO PUSH2 0xADC JUMPI PUSH2 0xADB PUSH2 0x9E9 JUMP JUMPDEST JUMPDEST SWAP3 SWAP2 POP POP JUMP JUMPDEST PUSH1 0x0 PUSH2 0xAED DUP3 PUSH2 0x7C3 JUMP JUMPDEST SWAP2 POP PUSH2 0xAF8 DUP4 PUSH2 0x7C3 JUMP JUMPDEST SWAP3 POP DUP3 DUP3 MUL PUSH2 0xB06 DUP2 PUSH2 0x7C3 JUMP JUMPDEST SWAP2 POP DUP3 DUP3 DIV DUP5 EQ DUP4 ISZERO OR PUSH2 0xB1D JUMPI PUSH2 0xB1C PUSH2 0x9E9 JUMP JUMPDEST JUMPDEST POP SWAP3 SWAP2 POP POP JUMP JUMPDEST PUSH1 0x0 PUSH2 0xB2F DUP3 PUSH2 0x85D JUMP JUMPDEST SWAP2 POP PUSH2 0xB3A DUP4 PUSH2 0x85D JUMP JUMPDEST SWAP3 POP DUP3 DUP3 SUB SWAP1 POP PUSH2 0xFFFF DUP2 GT ISZERO PUSH2 0xB54 JUMPI PUSH2 0xB53 PUSH2 0x9E9 JUMP JUMPDEST JUMPDEST SWAP3 SWAP2 POP POP JUMP JUMPDEST PUSH1 0x0 PUSH2 0xB65 DUP3 PUSH2 0x85D JUMP JUMPDEST SWAP2 POP PUSH2 0xB70 DUP4 PUSH2 0x85D JUMP JUMPDEST SWAP3 POP DUP3 PUSH2 0xB80 JUMPI PUSH2 0xB7F PUSH2 0x9BA JUMP JUMPDEST JUMPDEST DUP3 DUP3 MOD SWAP1 POP SWAP3 SWAP2 POP POP JUMP JUMPDEST PUSH1 0x0 PUSH2 0xB96 DUP3 PUSH2 0x826 JUMP JUMPDEST SWAP2 POP PUSH1 0xFF DUP3 SUB PUSH2 0xBA9 JUMPI PUSH2 0xBA8 PUSH2 0x9E9 JUMP JUMPDEST JUMPDEST PUSH1 0x1 DUP3 ADD SWAP1 POP SWAP2 SWAP1 POP JUMP INVALID LOG2 PUSH5 0x6970667358 0x22 SLT KECCAK256 0xF6 SWAP8 0xA8 0xC4 PUSH10 0x3EA8DC91CE1B0557BE0 SAR AND PUSH19 0xD4CB9E9BAB1914BD930BF5EAA5B064736F6C63 NUMBER STOP ADDMOD GT STOP CALLER "
				},
				"gasEstimates": {
					"creation": {
						"codeDepositCost": "610000",
						"executionCost": "645",
						"totalCost": "610645"
					},
					"external": {
						"getDay(uint256)": "infinite",
						"getDaysInMonth(uint8,uint16)": "infinite",
						"getHour(uint256)": "infinite",
						"getMinute(uint256)": "infinite",
						"getMonth(uint256)": "infinite",
						"getSecond(uint256)": "infinite",
						"getYear(uint256)": "infinite",
						"isLeapYear(uint16)": "infinite",
						"leapYearsBefore(uint256)": "infinite"
					},
					"internal": {
						"parseTimestamp(uint256)": "infinite"
					}
				},
				"methodIdentifiers": {
					"getDay(uint256)": "65c72840",
					"getDaysInMonth(uint8,uint16)": "b238ad0e",
					"getHour(uint256)": "3e239e1a",
					"getMinute(uint256)": "fa93f883",
					"getMonth(uint256)": "a324ad24",
					"getSecond(uint256)": "8aa001fc",
					"getYear(uint256)": "92d66313",
					"isLeapYear(uint16)": "a6f0e577",
					"leapYearsBefore(uint256)": "b1999937"
				}
			},
			"storageLayout": {
				"storage": [],
				"types": null
			},
			"userdoc": {
				"kind": "user",
				"methods": {},
				"version": 1
			}
		}
	}
}