{
	"DateTime.sol": {
		"DateTime": {
			"abi": [
				{
					"inputs": [
						{
							"internalType": "uint256",
							"name": "timestamp",
							"type": "uint256"
						}
					],
					"name": "getDay",
					"outputs": [
						{
							"internalType": "uint8",
							"name": "",
							"type": "uint8"
						}
					],
					"stateMutability": "pure",
					"type": "function"
				},
				{
					"inputs": [
						{
							"internalType": "uint8",
							"name": "month",
							"type": "uint8"
						},
						{
							"internalType": "uint16",
							"name": "year",
							"type": "uint16"
						}
					],
					"name": "getDaysInMonth",
					"outputs": [
						{
							"internalType": "uint8",
							"name": "",
							"type": "uint8"
						}
					],
					"stateMutability": "pure",
					"type": "function"
				},
				{
					"inputs": [
						{
							"internalType": "uint256",
							"name": "timestamp",
							"type": "uint256"
						}
					],
					"name": "getHour",
					"outputs": [
						{
							"internalType": "uint8",
							"name": "",
							"type": "uint8"
						}
					],
					"stateMutability": "pure",
					"type": "function"
				},
				{
					"inputs": [
						{
							"internalType": "uint256",
							"name": "timestamp",
							"type": "uint256"
						}
					],
					"name": "getMinute",
					"outputs": [
						{
							"internalType": "uint8",
							"name": "",
							"type": "uint8"
						}
					],
					"stateMutability": "pure",
					"type": "function"
				},
				{
					"inputs": [
						{
							"internalType": "uint256",
							"name": "timestamp",
							"type": "uint256"
						}
					],
					"name": "getMonth",
					"outputs": [
						{
							"internalType": "uint8",
							"name": "",
							"type": "uint8"
						}
					],
					"stateMutability": "pure",
					"type": "function"
				},
				{
					"inputs": [
						{
							"internalType": "uint256",
							"name": "timestamp",
							"type": "uint256"
						}
					],
					"name": "getSecond",
					"outputs": [
						{
							"internalType": "uint8",
							"name": "",
							"type": "uint8"
						}
					],
					"stateMutability": "pure",
					"type": "function"
				},
				{
					"inputs": [
						{
							"internalType": "uint256",
							"name": "timestamp",
							"type": "uint256"
						}
					],
					"name": "getYear",
					"outputs": [
						{
							"internalType": "uint16",
							"name": "",
							"type": "uint16"
						}
					],
					"stateMutability": "pure",
					"type": "function"
				},
				{
					"inputs": [
						{
							"internalType": "uint32",
							"name": "year",
							"type": "uint32"
						}
					],
					"name": "isLeapYear",
					"outputs": [
						{
							"internalType": "bool",
							"name": "",
							"type": "bool"
						}
					],
					"stateMutability": "pure",
					"type": "function"
				},
				{
					"inputs": [
						{
							"internalType": "uint256",
							"name": "year",
							"type": "uint256"
						}
					],
					"name": "leapYearsBefore",
					"outputs": [
						{
							"internalType": "uint256",
							"name": "",
							"type": "uint256"
						}
					],
					"stateMutability": "pure",
					"type": "function"
				}
			],
			"devdoc": {
				"kind": "dev",
				"methods": {},
				"version": 1
			},
			"evm": {
				"assembly": "    /* \"DateTime.sol\":57:4950  contract DateTime {... */\n  mstore(0x40, 0x80)\n  callvalue\n  dup1\n  iszero\n  tag_1\n  jumpi\n  0x00\n  dup1\n  revert\ntag_1:\n  pop\n  dataSize(sub_0)\n  dup1\n  dataOffset(sub_0)\n  0x00\n  codecopy\n  0x00\n  return\nstop\n\nsub_0: assembly {\n        /* \"DateTime.sol\":57:4950  contract DateTime {... */\n      mstore(0x40, 0x80)\n      callvalue\n      dup1\n      iszero\n      tag_1\n      jumpi\n      0x00\n      dup1\n      revert\n    tag_1:\n      pop\n      jumpi(tag_2, lt(calldatasize, 0x04))\n      shr(0xe0, calldataload(0x00))\n      dup1\n      0xa01f8518\n      gt\n      tag_12\n      jumpi\n      dup1\n      0xa01f8518\n      eq\n      tag_7\n      jumpi\n      dup1\n      0xa324ad24\n      eq\n      tag_8\n      jumpi\n      dup1\n      0xb1999937\n      eq\n      tag_9\n      jumpi\n      dup1\n      0xb238ad0e\n      eq\n      tag_10\n      jumpi\n      dup1\n      0xfa93f883\n      eq\n      tag_11\n      jumpi\n      jump(tag_2)\n    tag_12:\n      dup1\n      0x3e239e1a\n      eq\n      tag_3\n      jumpi\n      dup1\n      0x65c72840\n      eq\n      tag_4\n      jumpi\n      dup1\n      0x8aa001fc\n      eq\n      tag_5\n      jumpi\n      dup1\n      0x92d66313\n      eq\n      tag_6\n      jumpi\n    tag_2:\n      0x00\n      dup1\n      revert\n        /* \"DateTime.sol\":4549:4679  function getHour(uint timestamp) public pure returns (uint8) {... */\n    tag_3:\n      tag_13\n      0x04\n      dup1\n      calldatasize\n      sub\n      dup2\n      add\n      swap1\n      tag_14\n      swap2\n      swap1\n      tag_15\n      jump\t// in\n    tag_14:\n      tag_16\n      jump\t// in\n    tag_13:\n      mload(0x40)\n      tag_17\n      swap2\n      swap1\n      tag_18\n      jump\t// in\n    tag_17:\n      mload(0x40)\n      dup1\n      swap2\n      sub\n      swap1\n      return\n        /* \"DateTime.sol\":4414:4539  function getDay(uint timestamp) public pure returns (uint8) {... */\n    tag_4:\n      tag_19\n      0x04\n      dup1\n      calldatasize\n      sub\n      dup2\n      add\n      swap1\n      tag_20\n      swap2\n      swap1\n      tag_15\n      jump\t// in\n    tag_20:\n      tag_21\n      jump\t// in\n    tag_19:\n      mload(0x40)\n      tag_22\n      swap2\n      swap1\n      tag_18\n      jump\t// in\n    tag_22:\n      mload(0x40)\n      dup1\n      swap2\n      sub\n      swap1\n      return\n        /* \"DateTime.sol\":4826:4946  function getSecond(uint timestamp) public pure returns (uint8) {... */\n    tag_5:\n      tag_23\n      0x04\n      dup1\n      calldatasize\n      sub\n      dup2\n      add\n      swap1\n      tag_24\n      swap2\n      swap1\n      tag_15\n      jump\t// in\n    tag_24:\n      tag_25\n      jump\t// in\n    tag_23:\n      mload(0x40)\n      tag_26\n      swap2\n      swap1\n      tag_18\n      jump\t// in\n    tag_26:\n      mload(0x40)\n      dup1\n      swap2\n      sub\n      swap1\n      return\n        /* \"DateTime.sol\":3294:4265  function getYear(uint timestamp) public pure returns (uint16) {... */\n    tag_6:\n      tag_27\n      0x04\n      dup1\n      calldatasize\n      sub\n      dup2\n      add\n      swap1\n      tag_28\n      swap2\n      swap1\n      tag_15\n      jump\t// in\n    tag_28:\n      tag_29\n      jump\t// in\n    tag_27:\n      mload(0x40)\n      tag_30\n      swap2\n      swap1\n      tag_31\n      jump\t// in\n    tag_30:\n      mload(0x40)\n      dup1\n      swap2\n      sub\n      swap1\n      return\n        /* \"DateTime.sol\":584:966  function isLeapYear(uint32 year) public pure returns (bool) {... */\n    tag_7:\n      tag_32\n      0x04\n      dup1\n      calldatasize\n      sub\n      dup2\n      add\n      swap1\n      tag_33\n      swap2\n      swap1\n      tag_34\n      jump\t// in\n    tag_33:\n      tag_35\n      jump\t// in\n    tag_32:\n      mload(0x40)\n      tag_36\n      swap2\n      swap1\n      tag_37\n      jump\t// in\n    tag_36:\n      mload(0x40)\n      dup1\n      swap2\n      sub\n      swap1\n      return\n        /* \"DateTime.sol\":4275:4404  function getMonth(uint timestamp) public pure returns (uint8) {... */\n    tag_8:\n      tag_38\n      0x04\n      dup1\n      calldatasize\n      sub\n      dup2\n      add\n      swap1\n      tag_39\n      swap2\n      swap1\n      tag_15\n      jump\t// in\n    tag_39:\n      tag_40\n      jump\t// in\n    tag_38:\n      mload(0x40)\n      tag_41\n      swap2\n      swap1\n      tag_18\n      jump\t// in\n    tag_41:\n      mload(0x40)\n      dup1\n      swap2\n      sub\n      swap1\n      return\n        /* \"DateTime.sol\":976:1136  function leapYearsBefore(uint year) public pure returns (uint) {... */\n    tag_9:\n      tag_42\n      0x04\n      dup1\n      calldatasize\n      sub\n      dup2\n      add\n      swap1\n      tag_43\n      swap2\n      swap1\n      tag_15\n      jump\t// in\n    tag_43:\n      tag_44\n      jump\t// in\n    tag_42:\n      mload(0x40)\n      tag_45\n      swap2\n      swap1\n      tag_46\n      jump\t// in\n    tag_45:\n      mload(0x40)\n      dup1\n      swap2\n      sub\n      swap1\n      return\n        /* \"DateTime.sol\":1146:1717  function getDaysInMonth(uint8 month, uint16 year) public pure returns (uint8) {... */\n    tag_10:\n      tag_47\n      0x04\n      dup1\n      calldatasize\n      sub\n      dup2\n      add\n      swap1\n      tag_48\n      swap2\n      swap1\n      tag_49\n      jump\t// in\n    tag_48:\n      tag_50\n      jump\t// in\n    tag_47:\n      mload(0x40)\n      tag_51\n      swap2\n      swap1\n      tag_18\n      jump\t// in\n    tag_51:\n      mload(0x40)\n      dup1\n      swap2\n      sub\n      swap1\n      return\n        /* \"DateTime.sol\":4689:4816  function getMinute(uint timestamp) public pure returns (uint8) {... */\n    tag_11:\n      tag_52\n      0x04\n      dup1\n      calldatasize\n      sub\n      dup2\n      add\n      swap1\n      tag_53\n      swap2\n      swap1\n      tag_15\n      jump\t// in\n    tag_53:\n      tag_54\n      jump\t// in\n    tag_52:\n      mload(0x40)\n      tag_55\n      swap2\n      swap1\n      tag_18\n      jump\t// in\n    tag_55:\n      mload(0x40)\n      dup1\n      swap2\n      sub\n      swap1\n      return\n        /* \"DateTime.sol\":4549:4679  function getHour(uint timestamp) public pure returns (uint8) {... */\n    tag_16:\n        /* \"DateTime.sol\":4603:4608  uint8 */\n      0x00\n        /* \"DateTime.sol\":4665:4667  24 */\n      0x18\n        /* \"DateTime.sol\":4659:4661  60 */\n      0x3c\n        /* \"DateTime.sol\":4654:4656  60 */\n      dup1\n        /* \"DateTime.sol\":4642:4651  timestamp */\n      dup5\n        /* \"DateTime.sol\":4642:4656  timestamp / 60 */\n      tag_57\n      swap2\n      swap1\n      tag_58\n      jump\t// in\n    tag_57:\n        /* \"DateTime.sol\":4642:4661  timestamp / 60 / 60 */\n      tag_59\n      swap2\n      swap1\n      tag_58\n      jump\t// in\n    tag_59:\n        /* \"DateTime.sol\":4641:4667  (timestamp / 60 / 60) % 24 */\n      tag_60\n      swap2\n      swap1\n      tag_61\n      jump\t// in\n    tag_60:\n        /* \"DateTime.sol\":4628:4668  return uint8((timestamp / 60 / 60) % 24) */\n      swap1\n      pop\n        /* \"DateTime.sol\":4549:4679  function getHour(uint timestamp) public pure returns (uint8) {... */\n      swap2\n      swap1\n      pop\n      jump\t// out\n        /* \"DateTime.sol\":4414:4539  function getDay(uint timestamp) public pure returns (uint8) {... */\n    tag_21:\n        /* \"DateTime.sol\":4467:4472  uint8 */\n      0x00\n        /* \"DateTime.sol\":4499:4524  parseTimestamp(timestamp) */\n      tag_63\n        /* \"DateTime.sol\":4514:4523  timestamp */\n      dup3\n        /* \"DateTime.sol\":4499:4513  parseTimestamp */\n      tag_64\n        /* \"DateTime.sol\":4499:4524  parseTimestamp(timestamp) */\n      jump\t// in\n    tag_63:\n        /* \"DateTime.sol\":4499:4528  parseTimestamp(timestamp).day */\n      0x40\n      add\n      mload\n        /* \"DateTime.sol\":4492:4528  return parseTimestamp(timestamp).day */\n      swap1\n      pop\n        /* \"DateTime.sol\":4414:4539  function getDay(uint timestamp) public pure returns (uint8) {... */\n      swap2\n      swap1\n      pop\n      jump\t// out\n        /* \"DateTime.sol\":4826:4946  function getSecond(uint timestamp) public pure returns (uint8) {... */\n    tag_25:\n        /* \"DateTime.sol\":4882:4887  uint8 */\n      0x00\n        /* \"DateTime.sol\":4932:4934  60 */\n      0x3c\n        /* \"DateTime.sol\":4920:4929  timestamp */\n      dup3\n        /* \"DateTime.sol\":4920:4934  timestamp % 60 */\n      tag_66\n      swap2\n      swap1\n      tag_61\n      jump\t// in\n    tag_66:\n        /* \"DateTime.sol\":4907:4935  return uint8(timestamp % 60) */\n      swap1\n      pop\n        /* \"DateTime.sol\":4826:4946  function getSecond(uint timestamp) public pure returns (uint8) {... */\n      swap2\n      swap1\n      pop\n      jump\t// out\n        /* \"DateTime.sol\":3294:4265  function getYear(uint timestamp) public pure returns (uint16) {... */\n    tag_29:\n        /* \"DateTime.sol\":3348:3354  uint16 */\n      0x00\n        /* \"DateTime.sol\":3374:3398  uint secondsAccountedFor */\n      dup1\n        /* \"DateTime.sol\":3401:3402  0 */\n      0x00\n        /* \"DateTime.sol\":3374:3402  uint secondsAccountedFor = 0 */\n      swap1\n      pop\n        /* \"DateTime.sol\":3420:3431  uint16 year */\n      0x00\n        /* \"DateTime.sol\":3449:3466  uint numLeapYears */\n      dup1\n        /* \"DateTime.sol\":374:382  31536000 */\n      0x01e13380\n        /* \"DateTime.sol\":3537:3546  timestamp */\n      dup6\n        /* \"DateTime.sol\":3537:3564  timestamp / YEAR_IN_SECONDS */\n      tag_68\n      swap2\n      swap1\n      tag_58\n      jump\t// in\n    tag_68:\n        /* \"DateTime.sol\":569:573  1970 */\n      0x07b2\n        /* \"DateTime.sol\":3523:3564  ORIGIN_YEAR + timestamp / YEAR_IN_SECONDS */\n      0xffffffff\n      and\n      tag_69\n      swap2\n      swap1\n      tag_70\n      jump\t// in\n    tag_69:\n        /* \"DateTime.sol\":3509:3565  year = uint16(ORIGIN_YEAR + timestamp / YEAR_IN_SECONDS) */\n      swap2\n      pop\n        /* \"DateTime.sol\":3622:3650  leapYearsBefore(ORIGIN_YEAR) */\n      tag_71\n        /* \"DateTime.sol\":569:573  1970 */\n      0x07b2\n        /* \"DateTime.sol\":3622:3650  leapYearsBefore(ORIGIN_YEAR) */\n      0xffffffff\n      and\n        /* \"DateTime.sol\":3622:3637  leapYearsBefore */\n      tag_44\n        /* \"DateTime.sol\":3622:3650  leapYearsBefore(ORIGIN_YEAR) */\n      jump\t// in\n    tag_71:\n        /* \"DateTime.sol\":3598:3619  leapYearsBefore(year) */\n      tag_72\n        /* \"DateTime.sol\":3614:3618  year */\n      dup4\n        /* \"DateTime.sol\":3598:3619  leapYearsBefore(year) */\n      0xffff\n      and\n        /* \"DateTime.sol\":3598:3613  leapYearsBefore */\n      tag_44\n        /* \"DateTime.sol\":3598:3619  leapYearsBefore(year) */\n      jump\t// in\n    tag_72:\n        /* \"DateTime.sol\":3598:3650  leapYearsBefore(year) - leapYearsBefore(ORIGIN_YEAR) */\n      tag_73\n      swap2\n      swap1\n      tag_74\n      jump\t// in\n    tag_73:\n        /* \"DateTime.sol\":3583:3650  numLeapYears = leapYearsBefore(year) - leapYearsBefore(ORIGIN_YEAR) */\n      swap1\n      pop\n        /* \"DateTime.sol\":3715:3727  numLeapYears */\n      dup1\n        /* \"DateTime.sol\":429:437  31622400 */\n      0x01e28500\n        /* \"DateTime.sol\":3692:3727  LEAP_YEAR_IN_SECONDS * numLeapYears */\n      tag_75\n      swap2\n      swap1\n      tag_76\n      jump\t// in\n    tag_75:\n        /* \"DateTime.sol\":3669:3727  secondsAccountedFor += LEAP_YEAR_IN_SECONDS * numLeapYears */\n      dup4\n      tag_77\n      swap2\n      swap1\n      tag_70\n      jump\t// in\n    tag_77:\n      swap3\n      pop\n        /* \"DateTime.sol\":3808:3820  numLeapYears */\n      dup1\n        /* \"DateTime.sol\":569:573  1970 */\n      0x07b2\n        /* \"DateTime.sol\":3787:3791  year */\n      dup4\n        /* \"DateTime.sol\":3787:3805  year - ORIGIN_YEAR */\n      0xffff\n      and\n      tag_78\n      swap2\n      swap1\n      tag_79\n      jump\t// in\n    tag_78:\n        /* \"DateTime.sol\":3787:3820  year - ORIGIN_YEAR - numLeapYears */\n      0xffffffff\n      and\n      tag_80\n      swap2\n      swap1\n      tag_74\n      jump\t// in\n    tag_80:\n        /* \"DateTime.sol\":374:382  31536000 */\n      0x01e13380\n        /* \"DateTime.sol\":3768:3821  YEAR_IN_SECONDS * (year - ORIGIN_YEAR - numLeapYears) */\n      tag_81\n      swap2\n      swap1\n      tag_76\n      jump\t// in\n    tag_81:\n        /* \"DateTime.sol\":3745:3821  secondsAccountedFor += YEAR_IN_SECONDS * (year - ORIGIN_YEAR - numLeapYears) */\n      dup4\n      tag_82\n      swap2\n      swap1\n      tag_70\n      jump\t// in\n    tag_82:\n      swap3\n      pop\n        /* \"DateTime.sol\":3840:4226  while (secondsAccountedFor > timestamp) {... */\n    tag_83:\n        /* \"DateTime.sol\":3869:3878  timestamp */\n      dup5\n        /* \"DateTime.sol\":3847:3866  secondsAccountedFor */\n      dup4\n        /* \"DateTime.sol\":3847:3878  secondsAccountedFor > timestamp */\n      gt\n        /* \"DateTime.sol\":3840:4226  while (secondsAccountedFor > timestamp) {... */\n      iszero\n      tag_84\n      jumpi\n        /* \"DateTime.sol\":3910:3938  isLeapYear(uint16(year - 1)) */\n      tag_85\n        /* \"DateTime.sol\":3935:3936  1 */\n      0x01\n        /* \"DateTime.sol\":3928:3932  year */\n      dup4\n        /* \"DateTime.sol\":3928:3936  year - 1 */\n      tag_86\n      swap2\n      swap1\n      tag_87\n      jump\t// in\n    tag_86:\n        /* \"DateTime.sol\":3910:3938  isLeapYear(uint16(year - 1)) */\n      0xffff\n      and\n        /* \"DateTime.sol\":3910:3920  isLeapYear */\n      tag_35\n        /* \"DateTime.sol\":3910:3938  isLeapYear(uint16(year - 1)) */\n      jump\t// in\n    tag_85:\n        /* \"DateTime.sol\":3906:4173  if (isLeapYear(uint16(year - 1))) {... */\n      iszero\n      tag_88\n      jumpi\n        /* \"DateTime.sol\":429:437  31622400 */\n      0x01e28500\n        /* \"DateTime.sol\":3974:4017  secondsAccountedFor -= LEAP_YEAR_IN_SECONDS */\n      dup4\n      tag_89\n      swap2\n      swap1\n      tag_74\n      jump\t// in\n    tag_89:\n      swap3\n      pop\n        /* \"DateTime.sol\":3906:4173  if (isLeapYear(uint16(year - 1))) {... */\n      jump(tag_90)\n    tag_88:\n        /* \"DateTime.sol\":374:382  31536000 */\n      0x01e13380\n        /* \"DateTime.sol\":4108:4146  secondsAccountedFor -= YEAR_IN_SECONDS */\n      dup4\n      tag_91\n      swap2\n      swap1\n      tag_74\n      jump\t// in\n    tag_91:\n      swap3\n      pop\n        /* \"DateTime.sol\":3906:4173  if (isLeapYear(uint16(year - 1))) {... */\n    tag_90:\n        /* \"DateTime.sol\":4206:4207  1 */\n      0x01\n        /* \"DateTime.sol\":4198:4207  year -= 1 */\n      dup3\n      tag_92\n      swap2\n      swap1\n      tag_87\n      jump\t// in\n    tag_92:\n      swap2\n      pop\n        /* \"DateTime.sol\":3840:4226  while (secondsAccountedFor > timestamp) {... */\n      jump(tag_83)\n    tag_84:\n        /* \"DateTime.sol\":4250:4254  year */\n      dup2\n        /* \"DateTime.sol\":4243:4254  return year */\n      swap4\n      pop\n      pop\n      pop\n      pop\n        /* \"DateTime.sol\":3294:4265  function getYear(uint timestamp) public pure returns (uint16) {... */\n      swap2\n      swap1\n      pop\n      jump\t// out\n        /* \"DateTime.sol\":584:966  function isLeapYear(uint32 year) public pure returns (bool) {... */\n    tag_35:\n        /* \"DateTime.sol\":638:642  bool */\n      0x00\n        /* \"DateTime.sol\":678:679  0 */\n      dup1\n        /* \"DateTime.sol\":673:674  4 */\n      0x04\n        /* \"DateTime.sol\":666:670  year */\n      dup4\n        /* \"DateTime.sol\":666:674  year % 4 */\n      tag_94\n      swap2\n      swap1\n      tag_95\n      jump\t// in\n    tag_94:\n        /* \"DateTime.sol\":666:679  year % 4 != 0 */\n      0xffffffff\n      and\n      eq\n        /* \"DateTime.sol\":662:738  if (year % 4 != 0) {... */\n      tag_96\n      jumpi\n        /* \"DateTime.sol\":714:719  false */\n      0x00\n        /* \"DateTime.sol\":707:719  return false */\n      swap1\n      pop\n      jump(tag_93)\n        /* \"DateTime.sol\":662:738  if (year % 4 != 0) {... */\n    tag_96:\n        /* \"DateTime.sol\":773:774  0 */\n      0x00\n        /* \"DateTime.sol\":766:769  100 */\n      0x64\n        /* \"DateTime.sol\":759:763  year */\n      dup4\n        /* \"DateTime.sol\":759:769  year % 100 */\n      tag_97\n      swap2\n      swap1\n      tag_95\n      jump\t// in\n    tag_97:\n        /* \"DateTime.sol\":759:774  year % 100 != 0 */\n      0xffffffff\n      and\n      eq\n        /* \"DateTime.sol\":755:832  if (year % 100 != 0) {... */\n      tag_98\n      jumpi\n        /* \"DateTime.sol\":809:813  true */\n      0x01\n        /* \"DateTime.sol\":802:813  return true */\n      swap1\n      pop\n      jump(tag_93)\n        /* \"DateTime.sol\":755:832  if (year % 100 != 0) {... */\n    tag_98:\n        /* \"DateTime.sol\":867:868  0 */\n      0x00\n        /* \"DateTime.sol\":860:863  400 */\n      0x0190\n        /* \"DateTime.sol\":853:857  year */\n      dup4\n        /* \"DateTime.sol\":853:863  year % 400 */\n      tag_99\n      swap2\n      swap1\n      tag_95\n      jump\t// in\n    tag_99:\n        /* \"DateTime.sol\":853:868  year % 400 != 0 */\n      0xffffffff\n      and\n      eq\n        /* \"DateTime.sol\":849:927  if (year % 400 != 0) {... */\n      tag_100\n      jumpi\n        /* \"DateTime.sol\":903:908  false */\n      0x00\n        /* \"DateTime.sol\":896:908  return false */\n      swap1\n      pop\n      jump(tag_93)\n        /* \"DateTime.sol\":849:927  if (year % 400 != 0) {... */\n    tag_100:\n        /* \"DateTime.sol\":951:955  true */\n      0x01\n        /* \"DateTime.sol\":944:955  return true */\n      swap1\n      pop\n        /* \"DateTime.sol\":584:966  function isLeapYear(uint32 year) public pure returns (bool) {... */\n    tag_93:\n      swap2\n      swap1\n      pop\n      jump\t// out\n        /* \"DateTime.sol\":4275:4404  function getMonth(uint timestamp) public pure returns (uint8) {... */\n    tag_40:\n        /* \"DateTime.sol\":4330:4335  uint8 */\n      0x00\n        /* \"DateTime.sol\":4362:4387  parseTimestamp(timestamp) */\n      tag_102\n        /* \"DateTime.sol\":4377:4386  timestamp */\n      dup3\n        /* \"DateTime.sol\":4362:4376  parseTimestamp */\n      tag_64\n        /* \"DateTime.sol\":4362:4387  parseTimestamp(timestamp) */\n      jump\t// in\n    tag_102:\n        /* \"DateTime.sol\":4362:4393  parseTimestamp(timestamp).month */\n      0x20\n      add\n      mload\n        /* \"DateTime.sol\":4355:4393  return parseTimestamp(timestamp).month */\n      swap1\n      pop\n        /* \"DateTime.sol\":4275:4404  function getMonth(uint timestamp) public pure returns (uint8) {... */\n      swap2\n      swap1\n      pop\n      jump\t// out\n        /* \"DateTime.sol\":976:1136  function leapYearsBefore(uint year) public pure returns (uint) {... */\n    tag_44:\n        /* \"DateTime.sol\":1033:1037  uint */\n      0x00\n        /* \"DateTime.sol\":1065:1066  1 */\n      0x01\n        /* \"DateTime.sol\":1057:1066  year -= 1 */\n      dup3\n      tag_104\n      swap2\n      swap1\n      tag_74\n      jump\t// in\n    tag_104:\n      swap2\n      pop\n        /* \"DateTime.sol\":1122:1125  400 */\n      0x0190\n        /* \"DateTime.sol\":1115:1119  year */\n      dup3\n        /* \"DateTime.sol\":1115:1125  year / 400 */\n      tag_105\n      swap2\n      swap1\n      tag_58\n      jump\t// in\n    tag_105:\n        /* \"DateTime.sol\":1109:1112  100 */\n      0x64\n        /* \"DateTime.sol\":1102:1106  year */\n      dup4\n        /* \"DateTime.sol\":1102:1112  year / 100 */\n      tag_106\n      swap2\n      swap1\n      tag_58\n      jump\t// in\n    tag_106:\n        /* \"DateTime.sol\":1098:1099  4 */\n      0x04\n        /* \"DateTime.sol\":1091:1095  year */\n      dup5\n        /* \"DateTime.sol\":1091:1099  year / 4 */\n      tag_107\n      swap2\n      swap1\n      tag_58\n      jump\t// in\n    tag_107:\n        /* \"DateTime.sol\":1091:1112  year / 4 - year / 100 */\n      tag_108\n      swap2\n      swap1\n      tag_74\n      jump\t// in\n    tag_108:\n        /* \"DateTime.sol\":1091:1125  year / 4 - year / 100 + year / 400 */\n      tag_109\n      swap2\n      swap1\n      tag_70\n      jump\t// in\n    tag_109:\n        /* \"DateTime.sol\":1084:1125  return year / 4 - year / 100 + year / 400 */\n      swap1\n      pop\n        /* \"DateTime.sol\":976:1136  function leapYearsBefore(uint year) public pure returns (uint) {... */\n      swap2\n      swap1\n      pop\n      jump\t// out\n        /* \"DateTime.sol\":1146:1717  function getDaysInMonth(uint8 month, uint16 year) public pure returns (uint8) {... */\n    tag_50:\n        /* \"DateTime.sol\":1217:1222  uint8 */\n      0x00\n        /* \"DateTime.sol\":1255:1256  1 */\n      0x01\n        /* \"DateTime.sol\":1246:1251  month */\n      dup4\n        /* \"DateTime.sol\":1246:1256  month == 1 */\n      0xff\n      and\n      eq\n        /* \"DateTime.sol\":1246:1270  month == 1 || month == 3 */\n      dup1\n      tag_111\n      jumpi\n      pop\n        /* \"DateTime.sol\":1269:1270  3 */\n      0x03\n        /* \"DateTime.sol\":1260:1265  month */\n      dup4\n        /* \"DateTime.sol\":1260:1270  month == 3 */\n      0xff\n      and\n      eq\n        /* \"DateTime.sol\":1246:1270  month == 1 || month == 3 */\n    tag_111:\n        /* \"DateTime.sol\":1246:1284  month == 1 || month == 3 || month == 5 */\n      dup1\n      tag_112\n      jumpi\n      pop\n        /* \"DateTime.sol\":1283:1284  5 */\n      0x05\n        /* \"DateTime.sol\":1274:1279  month */\n      dup4\n        /* \"DateTime.sol\":1274:1284  month == 5 */\n      0xff\n      and\n      eq\n        /* \"DateTime.sol\":1246:1284  month == 1 || month == 3 || month == 5 */\n    tag_112:\n        /* \"DateTime.sol\":1246:1298  month == 1 || month == 3 || month == 5 || month == 7 */\n      dup1\n      tag_113\n      jumpi\n      pop\n        /* \"DateTime.sol\":1297:1298  7 */\n      0x07\n        /* \"DateTime.sol\":1288:1293  month */\n      dup4\n        /* \"DateTime.sol\":1288:1298  month == 7 */\n      0xff\n      and\n      eq\n        /* \"DateTime.sol\":1246:1298  month == 1 || month == 3 || month == 5 || month == 7 */\n    tag_113:\n        /* \"DateTime.sol\":1246:1312  month == 1 || month == 3 || month == 5 || month == 7 || month == 8 */\n      dup1\n      tag_114\n      jumpi\n      pop\n        /* \"DateTime.sol\":1311:1312  8 */\n      0x08\n        /* \"DateTime.sol\":1302:1307  month */\n      dup4\n        /* \"DateTime.sol\":1302:1312  month == 8 */\n      0xff\n      and\n      eq\n        /* \"DateTime.sol\":1246:1312  month == 1 || month == 3 || month == 5 || month == 7 || month == 8 */\n    tag_114:\n        /* \"DateTime.sol\":1246:1327  month == 1 || month == 3 || month == 5 || month == 7 || month == 8 || month == 10 */\n      dup1\n      tag_115\n      jumpi\n      pop\n        /* \"DateTime.sol\":1325:1327  10 */\n      0x0a\n        /* \"DateTime.sol\":1316:1321  month */\n      dup4\n        /* \"DateTime.sol\":1316:1327  month == 10 */\n      0xff\n      and\n      eq\n        /* \"DateTime.sol\":1246:1327  month == 1 || month == 3 || month == 5 || month == 7 || month == 8 || month == 10 */\n    tag_115:\n        /* \"DateTime.sol\":1246:1342  month == 1 || month == 3 || month == 5 || month == 7 || month == 8 || month == 10 || month == 12 */\n      dup1\n      tag_116\n      jumpi\n      pop\n        /* \"DateTime.sol\":1340:1342  12 */\n      0x0c\n        /* \"DateTime.sol\":1331:1336  month */\n      dup4\n        /* \"DateTime.sol\":1331:1342  month == 12 */\n      0xff\n      and\n      eq\n        /* \"DateTime.sol\":1246:1342  month == 1 || month == 3 || month == 5 || month == 7 || month == 8 || month == 10 || month == 12 */\n    tag_116:\n        /* \"DateTime.sol\":1242:1707  if (month == 1 || month == 3 || month == 5 || month == 7 || month == 8 || month == 10 || month == 12) {... */\n      iszero\n      tag_117\n      jumpi\n        /* \"DateTime.sol\":1377:1379  31 */\n      0x1f\n        /* \"DateTime.sol\":1370:1379  return 31 */\n      swap1\n      pop\n      jump(tag_110)\n        /* \"DateTime.sol\":1242:1707  if (month == 1 || month == 3 || month == 5 || month == 7 || month == 8 || month == 10 || month == 12) {... */\n    tag_117:\n        /* \"DateTime.sol\":1433:1434  4 */\n      0x04\n        /* \"DateTime.sol\":1424:1429  month */\n      dup4\n        /* \"DateTime.sol\":1424:1434  month == 4 */\n      0xff\n      and\n      eq\n        /* \"DateTime.sol\":1424:1448  month == 4 || month == 6 */\n      dup1\n      tag_119\n      jumpi\n      pop\n        /* \"DateTime.sol\":1447:1448  6 */\n      0x06\n        /* \"DateTime.sol\":1438:1443  month */\n      dup4\n        /* \"DateTime.sol\":1438:1448  month == 6 */\n      0xff\n      and\n      eq\n        /* \"DateTime.sol\":1424:1448  month == 4 || month == 6 */\n    tag_119:\n        /* \"DateTime.sol\":1424:1462  month == 4 || month == 6 || month == 9 */\n      dup1\n      tag_120\n      jumpi\n      pop\n        /* \"DateTime.sol\":1461:1462  9 */\n      0x09\n        /* \"DateTime.sol\":1452:1457  month */\n      dup4\n        /* \"DateTime.sol\":1452:1462  month == 9 */\n      0xff\n      and\n      eq\n        /* \"DateTime.sol\":1424:1462  month == 4 || month == 6 || month == 9 */\n    tag_120:\n        /* \"DateTime.sol\":1424:1477  month == 4 || month == 6 || month == 9 || month == 11 */\n      dup1\n      tag_121\n      jumpi\n      pop\n        /* \"DateTime.sol\":1475:1477  11 */\n      0x0b\n        /* \"DateTime.sol\":1466:1471  month */\n      dup4\n        /* \"DateTime.sol\":1466:1477  month == 11 */\n      0xff\n      and\n      eq\n        /* \"DateTime.sol\":1424:1477  month == 4 || month == 6 || month == 9 || month == 11 */\n    tag_121:\n        /* \"DateTime.sol\":1420:1707  if (month == 4 || month == 6 || month == 9 || month == 11) {... */\n      iszero\n      tag_122\n      jumpi\n        /* \"DateTime.sol\":1512:1514  30 */\n      0x1e\n        /* \"DateTime.sol\":1505:1514  return 30 */\n      swap1\n      pop\n      jump(tag_110)\n        /* \"DateTime.sol\":1420:1707  if (month == 4 || month == 6 || month == 9 || month == 11) {... */\n    tag_122:\n        /* \"DateTime.sol\":1559:1575  isLeapYear(year) */\n      tag_124\n        /* \"DateTime.sol\":1570:1574  year */\n      dup3\n        /* \"DateTime.sol\":1559:1575  isLeapYear(year) */\n      0xffff\n      and\n        /* \"DateTime.sol\":1559:1569  isLeapYear */\n      tag_35\n        /* \"DateTime.sol\":1559:1575  isLeapYear(year) */\n      jump\t// in\n    tag_124:\n        /* \"DateTime.sol\":1555:1707  if (isLeapYear(year)) {... */\n      iszero\n      tag_125\n      jumpi\n        /* \"DateTime.sol\":1610:1612  29 */\n      0x1d\n        /* \"DateTime.sol\":1603:1612  return 29 */\n      swap1\n      pop\n      jump(tag_110)\n        /* \"DateTime.sol\":1555:1707  if (isLeapYear(year)) {... */\n    tag_125:\n        /* \"DateTime.sol\":1686:1688  28 */\n      0x1c\n        /* \"DateTime.sol\":1679:1688  return 28 */\n      swap1\n      pop\n        /* \"DateTime.sol\":1146:1717  function getDaysInMonth(uint8 month, uint16 year) public pure returns (uint8) {... */\n    tag_110:\n      swap3\n      swap2\n      pop\n      pop\n      jump\t// out\n        /* \"DateTime.sol\":4689:4816  function getMinute(uint timestamp) public pure returns (uint8) {... */\n    tag_54:\n        /* \"DateTime.sol\":4745:4750  uint8 */\n      0x00\n        /* \"DateTime.sol\":4802:4804  60 */\n      0x3c\n        /* \"DateTime.sol\":4796:4798  60 */\n      dup1\n        /* \"DateTime.sol\":4784:4793  timestamp */\n      dup4\n        /* \"DateTime.sol\":4784:4798  timestamp / 60 */\n      tag_128\n      swap2\n      swap1\n      tag_58\n      jump\t// in\n    tag_128:\n        /* \"DateTime.sol\":4783:4804  (timestamp / 60) % 60 */\n      tag_129\n      swap2\n      swap1\n      tag_61\n      jump\t// in\n    tag_129:\n        /* \"DateTime.sol\":4770:4805  return uint8((timestamp / 60) % 60) */\n      swap1\n      pop\n        /* \"DateTime.sol\":4689:4816  function getMinute(uint timestamp) public pure returns (uint8) {... */\n      swap2\n      swap1\n      pop\n      jump\t// out\n        /* \"DateTime.sol\":1727:3284  function parseTimestamp(uint timestamp) internal pure returns (_DateTime memory dt) {... */\n    tag_64:\n        /* \"DateTime.sol\":1790:1809  _DateTime memory dt */\n      tag_130\n      tag_131\n      jump\t// in\n    tag_130:\n        /* \"DateTime.sol\":1829:1853  uint secondsAccountedFor */\n      0x00\n        /* \"DateTime.sol\":1875:1883  uint buf */\n      dup1\n        /* \"DateTime.sol\":1901:1908  uint8 i */\n      dup1\n        /* \"DateTime.sol\":1961:1979  getYear(timestamp) */\n      tag_133\n        /* \"DateTime.sol\":1969:1978  timestamp */\n      dup6\n        /* \"DateTime.sol\":1961:1968  getYear */\n      tag_29\n        /* \"DateTime.sol\":1961:1979  getYear(timestamp) */\n      jump\t// in\n    tag_133:\n        /* \"DateTime.sol\":1951:1953  dt */\n      dup5\n        /* \"DateTime.sol\":1951:1958  dt.year */\n      0x00\n      add\n        /* \"DateTime.sol\":1951:1979  dt.year = getYear(timestamp) */\n      swap1\n      0xffff\n      and\n      swap1\n      dup2\n      0xffff\n      and\n      dup2\n      mstore\n      pop\n      pop\n        /* \"DateTime.sol\":2030:2058  leapYearsBefore(ORIGIN_YEAR) */\n      tag_134\n        /* \"DateTime.sol\":569:573  1970 */\n      0x07b2\n        /* \"DateTime.sol\":2030:2058  leapYearsBefore(ORIGIN_YEAR) */\n      0xffffffff\n      and\n        /* \"DateTime.sol\":2030:2045  leapYearsBefore */\n      tag_44\n        /* \"DateTime.sol\":2030:2058  leapYearsBefore(ORIGIN_YEAR) */\n      jump\t// in\n    tag_134:\n        /* \"DateTime.sol\":2003:2027  leapYearsBefore(dt.year) */\n      tag_135\n        /* \"DateTime.sol\":2019:2021  dt */\n      dup6\n        /* \"DateTime.sol\":2019:2026  dt.year */\n      0x00\n      add\n      mload\n        /* \"DateTime.sol\":2003:2027  leapYearsBefore(dt.year) */\n      0xffff\n      and\n        /* \"DateTime.sol\":2003:2018  leapYearsBefore */\n      tag_44\n        /* \"DateTime.sol\":2003:2027  leapYearsBefore(dt.year) */\n      jump\t// in\n    tag_135:\n        /* \"DateTime.sol\":2003:2058  leapYearsBefore(dt.year) - leapYearsBefore(ORIGIN_YEAR) */\n      tag_136\n      swap2\n      swap1\n      tag_74\n      jump\t// in\n    tag_136:\n        /* \"DateTime.sol\":1997:2058  buf = leapYearsBefore(dt.year) - leapYearsBefore(ORIGIN_YEAR) */\n      swap2\n      pop\n        /* \"DateTime.sol\":2123:2126  buf */\n      dup2\n        /* \"DateTime.sol\":429:437  31622400 */\n      0x01e28500\n        /* \"DateTime.sol\":2100:2126  LEAP_YEAR_IN_SECONDS * buf */\n      tag_137\n      swap2\n      swap1\n      tag_76\n      jump\t// in\n    tag_137:\n        /* \"DateTime.sol\":2077:2126  secondsAccountedFor += LEAP_YEAR_IN_SECONDS * buf */\n      dup4\n      tag_138\n      swap2\n      swap1\n      tag_70\n      jump\t// in\n    tag_138:\n      swap3\n      pop\n        /* \"DateTime.sol\":2210:2213  buf */\n      dup2\n        /* \"DateTime.sol\":569:573  1970 */\n      0x07b2\n        /* \"DateTime.sol\":2186:2188  dt */\n      dup6\n        /* \"DateTime.sol\":2186:2193  dt.year */\n      0x00\n      add\n      mload\n        /* \"DateTime.sol\":2186:2207  dt.year - ORIGIN_YEAR */\n      0xffff\n      and\n      tag_139\n      swap2\n      swap1\n      tag_79\n      jump\t// in\n    tag_139:\n        /* \"DateTime.sol\":2186:2213  dt.year - ORIGIN_YEAR - buf */\n      0xffffffff\n      and\n      tag_140\n      swap2\n      swap1\n      tag_74\n      jump\t// in\n    tag_140:\n        /* \"DateTime.sol\":374:382  31536000 */\n      0x01e13380\n        /* \"DateTime.sol\":2167:2214  YEAR_IN_SECONDS * (dt.year - ORIGIN_YEAR - buf) */\n      tag_141\n      swap2\n      swap1\n      tag_76\n      jump\t// in\n    tag_141:\n        /* \"DateTime.sol\":2144:2214  secondsAccountedFor += YEAR_IN_SECONDS * (dt.year - ORIGIN_YEAR - buf) */\n      dup4\n      tag_142\n      swap2\n      swap1\n      tag_70\n      jump\t// in\n    tag_142:\n      swap3\n      pop\n        /* \"DateTime.sol\":2258:2277  uint secondsInMonth */\n      0x00\n        /* \"DateTime.sol\":2304:2305  1 */\n      0x01\n        /* \"DateTime.sol\":2300:2305  i = 1 */\n      swap2\n      pop\n        /* \"DateTime.sol\":2295:2680  for (i = 1; i <= 12; i++) {... */\n    tag_143:\n        /* \"DateTime.sol\":2312:2314  12 */\n      0x0c\n        /* \"DateTime.sol\":2307:2308  i */\n      dup3\n        /* \"DateTime.sol\":2307:2314  i <= 12 */\n      0xff\n      and\n      gt\n        /* \"DateTime.sol\":2295:2680  for (i = 1; i <= 12; i++) {... */\n      tag_144\n      jumpi\n        /* \"DateTime.sol\":2381:2407  getDaysInMonth(i, dt.year) */\n      tag_146\n        /* \"DateTime.sol\":2396:2397  i */\n      dup3\n        /* \"DateTime.sol\":2399:2401  dt */\n      dup7\n        /* \"DateTime.sol\":2399:2406  dt.year */\n      0x00\n      add\n      mload\n        /* \"DateTime.sol\":2381:2395  getDaysInMonth */\n      tag_50\n        /* \"DateTime.sol\":2381:2407  getDaysInMonth(i, dt.year) */\n      jump\t// in\n    tag_146:\n        /* \"DateTime.sol\":2364:2407  DAY_IN_SECONDS * getDaysInMonth(i, dt.year) */\n      0xff\n      and\n        /* \"DateTime.sol\":327:332  86400 */\n      0x015180\n        /* \"DateTime.sol\":2364:2407  DAY_IN_SECONDS * getDaysInMonth(i, dt.year) */\n      tag_147\n      swap2\n      swap1\n      tag_76\n      jump\t// in\n    tag_147:\n        /* \"DateTime.sol\":2347:2407  secondsInMonth = DAY_IN_SECONDS * getDaysInMonth(i, dt.year) */\n      swap1\n      pop\n        /* \"DateTime.sol\":2476:2485  timestamp */\n      dup6\n        /* \"DateTime.sol\":2454:2473  secondsAccountedFor */\n      dup5\n        /* \"DateTime.sol\":2437:2451  secondsInMonth */\n      dup3\n        /* \"DateTime.sol\":2437:2473  secondsInMonth + secondsAccountedFor */\n      tag_148\n      swap2\n      swap1\n      tag_70\n      jump\t// in\n    tag_148:\n        /* \"DateTime.sol\":2437:2485  secondsInMonth + secondsAccountedFor > timestamp */\n      gt\n        /* \"DateTime.sol\":2433:2599  if (secondsInMonth + secondsAccountedFor > timestamp) {... */\n      iszero\n      tag_149\n      jumpi\n        /* \"DateTime.sol\":2532:2533  i */\n      dup2\n        /* \"DateTime.sol\":2521:2523  dt */\n      dup6\n        /* \"DateTime.sol\":2521:2529  dt.month */\n      0x20\n      add\n        /* \"DateTime.sol\":2521:2533  dt.month = i */\n      swap1\n      0xff\n      and\n      swap1\n      dup2\n      0xff\n      and\n      dup2\n      mstore\n      pop\n      pop\n        /* \"DateTime.sol\":2567:2572  break */\n      jump(tag_144)\n        /* \"DateTime.sol\":2433:2599  if (secondsInMonth + secondsAccountedFor > timestamp) {... */\n    tag_149:\n        /* \"DateTime.sol\":2647:2661  secondsInMonth */\n      dup1\n        /* \"DateTime.sol\":2624:2661  secondsAccountedFor += secondsInMonth */\n      dup5\n      tag_150\n      swap2\n      swap1\n      tag_70\n      jump\t// in\n    tag_150:\n      swap4\n      pop\n        /* \"DateTime.sol\":2316:2319  i++ */\n      dup2\n      dup1\n      tag_151\n      swap1\n      tag_152\n      jump\t// in\n    tag_151:\n      swap3\n      pop\n      pop\n        /* \"DateTime.sol\":2295:2680  for (i = 1; i <= 12; i++) {... */\n      jump(tag_143)\n    tag_144:\n        /* \"DateTime.sol\":2730:2731  1 */\n      0x01\n        /* \"DateTime.sol\":2726:2731  i = 1 */\n      swap2\n      pop\n        /* \"DateTime.sol\":2721:3049  for (i = 1; i <= getDaysInMonth(dt.month, dt.year); i++) {... */\n    tag_153:\n        /* \"DateTime.sol\":2738:2771  getDaysInMonth(dt.month, dt.year) */\n      tag_156\n        /* \"DateTime.sol\":2753:2755  dt */\n      dup6\n        /* \"DateTime.sol\":2753:2761  dt.month */\n      0x20\n      add\n      mload\n        /* \"DateTime.sol\":2763:2765  dt */\n      dup7\n        /* \"DateTime.sol\":2763:2770  dt.year */\n      0x00\n      add\n      mload\n        /* \"DateTime.sol\":2738:2752  getDaysInMonth */\n      tag_50\n        /* \"DateTime.sol\":2738:2771  getDaysInMonth(dt.month, dt.year) */\n      jump\t// in\n    tag_156:\n        /* \"DateTime.sol\":2733:2771  i <= getDaysInMonth(dt.month, dt.year) */\n      0xff\n      and\n        /* \"DateTime.sol\":2733:2734  i */\n      dup3\n        /* \"DateTime.sol\":2733:2771  i <= getDaysInMonth(dt.month, dt.year) */\n      0xff\n      and\n      gt\n        /* \"DateTime.sol\":2721:3049  for (i = 1; i <= getDaysInMonth(dt.month, dt.year); i++) {... */\n      tag_154\n      jumpi\n        /* \"DateTime.sol\":2847:2856  timestamp */\n      dup6\n        /* \"DateTime.sol\":2825:2844  secondsAccountedFor */\n      dup5\n        /* \"DateTime.sol\":327:332  86400 */\n      0x015180\n        /* \"DateTime.sol\":2808:2844  DAY_IN_SECONDS + secondsAccountedFor */\n      tag_157\n      swap2\n      swap1\n      tag_70\n      jump\t// in\n    tag_157:\n        /* \"DateTime.sol\":2808:2856  DAY_IN_SECONDS + secondsAccountedFor > timestamp */\n      gt\n        /* \"DateTime.sol\":2804:2968  if (DAY_IN_SECONDS + secondsAccountedFor > timestamp) {... */\n      iszero\n      tag_158\n      jumpi\n        /* \"DateTime.sol\":2901:2902  i */\n      dup2\n        /* \"DateTime.sol\":2892:2894  dt */\n      dup6\n        /* \"DateTime.sol\":2892:2898  dt.day */\n      0x40\n      add\n        /* \"DateTime.sol\":2892:2902  dt.day = i */\n      swap1\n      0xff\n      and\n      swap1\n      dup2\n      0xff\n      and\n      dup2\n      mstore\n      pop\n      pop\n        /* \"DateTime.sol\":2936:2941  break */\n      jump(tag_154)\n        /* \"DateTime.sol\":2804:2968  if (DAY_IN_SECONDS + secondsAccountedFor > timestamp) {... */\n    tag_158:\n        /* \"DateTime.sol\":327:332  86400 */\n      0x015180\n        /* \"DateTime.sol\":2993:3030  secondsAccountedFor += DAY_IN_SECONDS */\n      dup5\n      tag_159\n      swap2\n      swap1\n      tag_70\n      jump\t// in\n    tag_159:\n      swap4\n      pop\n        /* \"DateTime.sol\":2773:2776  i++ */\n      dup2\n      dup1\n      tag_160\n      swap1\n      tag_152\n      jump\t// in\n    tag_160:\n      swap3\n      pop\n      pop\n        /* \"DateTime.sol\":2721:3049  for (i = 1; i <= getDaysInMonth(dt.month, dt.year); i++) {... */\n      jump(tag_153)\n    tag_154:\n        /* \"DateTime.sol\":3101:3119  getHour(timestamp) */\n      tag_161\n        /* \"DateTime.sol\":3109:3118  timestamp */\n      dup7\n        /* \"DateTime.sol\":3101:3108  getHour */\n      tag_16\n        /* \"DateTime.sol\":3101:3119  getHour(timestamp) */\n      jump\t// in\n    tag_161:\n        /* \"DateTime.sol\":3091:3093  dt */\n      dup6\n        /* \"DateTime.sol\":3091:3098  dt.hour */\n      0x60\n      add\n        /* \"DateTime.sol\":3091:3119  dt.hour = getHour(timestamp) */\n      swap1\n      0xff\n      and\n      swap1\n      dup2\n      0xff\n      and\n      dup2\n      mstore\n      pop\n      pop\n        /* \"DateTime.sol\":3176:3196  getMinute(timestamp) */\n      tag_162\n        /* \"DateTime.sol\":3186:3195  timestamp */\n      dup7\n        /* \"DateTime.sol\":3176:3185  getMinute */\n      tag_54\n        /* \"DateTime.sol\":3176:3196  getMinute(timestamp) */\n      jump\t// in\n    tag_162:\n        /* \"DateTime.sol\":3164:3166  dt */\n      dup6\n        /* \"DateTime.sol\":3164:3173  dt.minute */\n      0x80\n      add\n        /* \"DateTime.sol\":3164:3196  dt.minute = getMinute(timestamp) */\n      swap1\n      0xff\n      and\n      swap1\n      dup2\n      0xff\n      and\n      dup2\n      mstore\n      pop\n      pop\n        /* \"DateTime.sol\":3253:3273  getSecond(timestamp) */\n      tag_163\n        /* \"DateTime.sol\":3263:3272  timestamp */\n      dup7\n        /* \"DateTime.sol\":3253:3262  getSecond */\n      tag_25\n        /* \"DateTime.sol\":3253:3273  getSecond(timestamp) */\n      jump\t// in\n    tag_163:\n        /* \"DateTime.sol\":3241:3243  dt */\n      dup6\n        /* \"DateTime.sol\":3241:3250  dt.second */\n      0xa0\n      add\n        /* \"DateTime.sol\":3241:3273  dt.second = getSecond(timestamp) */\n      swap1\n      0xff\n      and\n      swap1\n      dup2\n      0xff\n      and\n      dup2\n      mstore\n      pop\n      pop\n        /* \"DateTime.sol\":1811:3284  {... */\n      pop\n      pop\n      pop\n      pop\n        /* \"DateTime.sol\":1727:3284  function parseTimestamp(uint timestamp) internal pure returns (_DateTime memory dt) {... */\n      swap2\n      swap1\n      pop\n      jump\t// out\n    tag_131:\n      mload(0x40)\n      dup1\n      0xc0\n      add\n      0x40\n      mstore\n      dup1\n      and(0xffff, 0x00)\n      dup2\n      mstore\n      0x20\n      add\n      and(0xff, 0x00)\n      dup2\n      mstore\n      0x20\n      add\n      and(0xff, 0x00)\n      dup2\n      mstore\n      0x20\n      add\n      and(0xff, 0x00)\n      dup2\n      mstore\n      0x20\n      add\n      and(0xff, 0x00)\n      dup2\n      mstore\n      0x20\n      add\n      and(0xff, 0x00)\n      dup2\n      mstore\n      pop\n      swap1\n      jump\t// out\n        /* \"#utility.yul\":88:205   */\n    tag_165:\n        /* \"#utility.yul\":197:198   */\n      0x00\n        /* \"#utility.yul\":194:195   */\n      dup1\n        /* \"#utility.yul\":187:199   */\n      revert\n        /* \"#utility.yul\":334:411   */\n    tag_167:\n        /* \"#utility.yul\":371:378   */\n      0x00\n        /* \"#utility.yul\":400:405   */\n      dup2\n        /* \"#utility.yul\":389:405   */\n      swap1\n      pop\n        /* \"#utility.yul\":334:411   */\n      swap2\n      swap1\n      pop\n      jump\t// out\n        /* \"#utility.yul\":417:539   */\n    tag_168:\n        /* \"#utility.yul\":490:514   */\n      tag_192\n        /* \"#utility.yul\":508:513   */\n      dup2\n        /* \"#utility.yul\":490:514   */\n      tag_167\n      jump\t// in\n    tag_192:\n        /* \"#utility.yul\":483:488   */\n      dup2\n        /* \"#utility.yul\":480:515   */\n      eq\n        /* \"#utility.yul\":470:533   */\n      tag_193\n      jumpi\n        /* \"#utility.yul\":529:530   */\n      0x00\n        /* \"#utility.yul\":526:527   */\n      dup1\n        /* \"#utility.yul\":519:531   */\n      revert\n        /* \"#utility.yul\":470:533   */\n    tag_193:\n        /* \"#utility.yul\":417:539   */\n      pop\n      jump\t// out\n        /* \"#utility.yul\":545:684   */\n    tag_169:\n        /* \"#utility.yul\":591:596   */\n      0x00\n        /* \"#utility.yul\":629:635   */\n      dup2\n        /* \"#utility.yul\":616:636   */\n      calldataload\n        /* \"#utility.yul\":607:636   */\n      swap1\n      pop\n        /* \"#utility.yul\":645:678   */\n      tag_195\n        /* \"#utility.yul\":672:677   */\n      dup2\n        /* \"#utility.yul\":645:678   */\n      tag_168\n      jump\t// in\n    tag_195:\n        /* \"#utility.yul\":545:684   */\n      swap3\n      swap2\n      pop\n      pop\n      jump\t// out\n        /* \"#utility.yul\":690:1019   */\n    tag_15:\n        /* \"#utility.yul\":749:755   */\n      0x00\n        /* \"#utility.yul\":798:800   */\n      0x20\n        /* \"#utility.yul\":786:795   */\n      dup3\n        /* \"#utility.yul\":777:784   */\n      dup5\n        /* \"#utility.yul\":773:796   */\n      sub\n        /* \"#utility.yul\":769:801   */\n      slt\n        /* \"#utility.yul\":766:885   */\n      iszero\n      tag_197\n      jumpi\n        /* \"#utility.yul\":804:883   */\n      tag_198\n      tag_165\n      jump\t// in\n    tag_198:\n        /* \"#utility.yul\":766:885   */\n    tag_197:\n        /* \"#utility.yul\":924:925   */\n      0x00\n        /* \"#utility.yul\":949:1002   */\n      tag_199\n        /* \"#utility.yul\":994:1001   */\n      dup5\n        /* \"#utility.yul\":985:991   */\n      dup3\n        /* \"#utility.yul\":974:983   */\n      dup6\n        /* \"#utility.yul\":970:992   */\n      add\n        /* \"#utility.yul\":949:1002   */\n      tag_169\n      jump\t// in\n    tag_199:\n        /* \"#utility.yul\":939:1002   */\n      swap2\n      pop\n        /* \"#utility.yul\":895:1012   */\n      pop\n        /* \"#utility.yul\":690:1019   */\n      swap3\n      swap2\n      pop\n      pop\n      jump\t// out\n        /* \"#utility.yul\":1025:1111   */\n    tag_170:\n        /* \"#utility.yul\":1060:1067   */\n      0x00\n        /* \"#utility.yul\":1100:1104   */\n      0xff\n        /* \"#utility.yul\":1093:1098   */\n      dup3\n        /* \"#utility.yul\":1089:1105   */\n      and\n        /* \"#utility.yul\":1078:1105   */\n      swap1\n      pop\n        /* \"#utility.yul\":1025:1111   */\n      swap2\n      swap1\n      pop\n      jump\t// out\n        /* \"#utility.yul\":1117:1229   */\n    tag_171:\n        /* \"#utility.yul\":1200:1222   */\n      tag_202\n        /* \"#utility.yul\":1216:1221   */\n      dup2\n        /* \"#utility.yul\":1200:1222   */\n      tag_170\n      jump\t// in\n    tag_202:\n        /* \"#utility.yul\":1195:1198   */\n      dup3\n        /* \"#utility.yul\":1188:1223   */\n      mstore\n        /* \"#utility.yul\":1117:1229   */\n      pop\n      pop\n      jump\t// out\n        /* \"#utility.yul\":1235:1449   */\n    tag_18:\n        /* \"#utility.yul\":1324:1328   */\n      0x00\n        /* \"#utility.yul\":1362:1364   */\n      0x20\n        /* \"#utility.yul\":1351:1360   */\n      dup3\n        /* \"#utility.yul\":1347:1365   */\n      add\n        /* \"#utility.yul\":1339:1365   */\n      swap1\n      pop\n        /* \"#utility.yul\":1375:1442   */\n      tag_204\n        /* \"#utility.yul\":1439:1440   */\n      0x00\n        /* \"#utility.yul\":1428:1437   */\n      dup4\n        /* \"#utility.yul\":1424:1441   */\n      add\n        /* \"#utility.yul\":1415:1421   */\n      dup5\n        /* \"#utility.yul\":1375:1442   */\n      tag_171\n      jump\t// in\n    tag_204:\n        /* \"#utility.yul\":1235:1449   */\n      swap3\n      swap2\n      pop\n      pop\n      jump\t// out\n        /* \"#utility.yul\":1455:1544   */\n    tag_172:\n        /* \"#utility.yul\":1491:1498   */\n      0x00\n        /* \"#utility.yul\":1531:1537   */\n      0xffff\n        /* \"#utility.yul\":1524:1529   */\n      dup3\n        /* \"#utility.yul\":1520:1538   */\n      and\n        /* \"#utility.yul\":1509:1538   */\n      swap1\n      pop\n        /* \"#utility.yul\":1455:1544   */\n      swap2\n      swap1\n      pop\n      jump\t// out\n        /* \"#utility.yul\":1550:1665   */\n    tag_173:\n        /* \"#utility.yul\":1635:1658   */\n      tag_207\n        /* \"#utility.yul\":1652:1657   */\n      dup2\n        /* \"#utility.yul\":1635:1658   */\n      tag_172\n      jump\t// in\n    tag_207:\n        /* \"#utility.yul\":1630:1633   */\n      dup3\n        /* \"#utility.yul\":1623:1659   */\n      mstore\n        /* \"#utility.yul\":1550:1665   */\n      pop\n      pop\n      jump\t// out\n        /* \"#utility.yul\":1671:1889   */\n    tag_31:\n        /* \"#utility.yul\":1762:1766   */\n      0x00\n        /* \"#utility.yul\":1800:1802   */\n      0x20\n        /* \"#utility.yul\":1789:1798   */\n      dup3\n        /* \"#utility.yul\":1785:1803   */\n      add\n        /* \"#utility.yul\":1777:1803   */\n      swap1\n      pop\n        /* \"#utility.yul\":1813:1882   */\n      tag_209\n        /* \"#utility.yul\":1879:1880   */\n      0x00\n        /* \"#utility.yul\":1868:1877   */\n      dup4\n        /* \"#utility.yul\":1864:1881   */\n      add\n        /* \"#utility.yul\":1855:1861   */\n      dup5\n        /* \"#utility.yul\":1813:1882   */\n      tag_173\n      jump\t// in\n    tag_209:\n        /* \"#utility.yul\":1671:1889   */\n      swap3\n      swap2\n      pop\n      pop\n      jump\t// out\n        /* \"#utility.yul\":1895:1988   */\n    tag_174:\n        /* \"#utility.yul\":1931:1938   */\n      0x00\n        /* \"#utility.yul\":1971:1981   */\n      0xffffffff\n        /* \"#utility.yul\":1964:1969   */\n      dup3\n        /* \"#utility.yul\":1960:1982   */\n      and\n        /* \"#utility.yul\":1949:1982   */\n      swap1\n      pop\n        /* \"#utility.yul\":1895:1988   */\n      swap2\n      swap1\n      pop\n      jump\t// out\n        /* \"#utility.yul\":1994:2114   */\n    tag_175:\n        /* \"#utility.yul\":2066:2089   */\n      tag_212\n        /* \"#utility.yul\":2083:2088   */\n      dup2\n        /* \"#utility.yul\":2066:2089   */\n      tag_174\n      jump\t// in\n    tag_212:\n        /* \"#utility.yul\":2059:2064   */\n      dup2\n        /* \"#utility.yul\":2056:2090   */\n      eq\n        /* \"#utility.yul\":2046:2108   */\n      tag_213\n      jumpi\n        /* \"#utility.yul\":2104:2105   */\n      0x00\n        /* \"#utility.yul\":2101:2102   */\n      dup1\n        /* \"#utility.yul\":2094:2106   */\n      revert\n        /* \"#utility.yul\":2046:2108   */\n    tag_213:\n        /* \"#utility.yul\":1994:2114   */\n      pop\n      jump\t// out\n        /* \"#utility.yul\":2120:2257   */\n    tag_176:\n        /* \"#utility.yul\":2165:2170   */\n      0x00\n        /* \"#utility.yul\":2203:2209   */\n      dup2\n        /* \"#utility.yul\":2190:2210   */\n      calldataload\n        /* \"#utility.yul\":2181:2210   */\n      swap1\n      pop\n        /* \"#utility.yul\":2219:2251   */\n      tag_215\n        /* \"#utility.yul\":2245:2250   */\n      dup2\n        /* \"#utility.yul\":2219:2251   */\n      tag_175\n      jump\t// in\n    tag_215:\n        /* \"#utility.yul\":2120:2257   */\n      swap3\n      swap2\n      pop\n      pop\n      jump\t// out\n        /* \"#utility.yul\":2263:2590   */\n    tag_34:\n        /* \"#utility.yul\":2321:2327   */\n      0x00\n        /* \"#utility.yul\":2370:2372   */\n      0x20\n        /* \"#utility.yul\":2358:2367   */\n      dup3\n        /* \"#utility.yul\":2349:2356   */\n      dup5\n        /* \"#utility.yul\":2345:2368   */\n      sub\n        /* \"#utility.yul\":2341:2373   */\n      slt\n        /* \"#utility.yul\":2338:2457   */\n      iszero\n      tag_217\n      jumpi\n        /* \"#utility.yul\":2376:2455   */\n      tag_218\n      tag_165\n      jump\t// in\n    tag_218:\n        /* \"#utility.yul\":2338:2457   */\n    tag_217:\n        /* \"#utility.yul\":2496:2497   */\n      0x00\n        /* \"#utility.yul\":2521:2573   */\n      tag_219\n        /* \"#utility.yul\":2565:2572   */\n      dup5\n        /* \"#utility.yul\":2556:2562   */\n      dup3\n        /* \"#utility.yul\":2545:2554   */\n      dup6\n        /* \"#utility.yul\":2541:2563   */\n      add\n        /* \"#utility.yul\":2521:2573   */\n      tag_176\n      jump\t// in\n    tag_219:\n        /* \"#utility.yul\":2511:2573   */\n      swap2\n      pop\n        /* \"#utility.yul\":2467:2583   */\n      pop\n        /* \"#utility.yul\":2263:2590   */\n      swap3\n      swap2\n      pop\n      pop\n      jump\t// out\n        /* \"#utility.yul\":2596:2686   */\n    tag_177:\n        /* \"#utility.yul\":2630:2637   */\n      0x00\n        /* \"#utility.yul\":2673:2678   */\n      dup2\n        /* \"#utility.yul\":2666:2679   */\n      iszero\n        /* \"#utility.yul\":2659:2680   */\n      iszero\n        /* \"#utility.yul\":2648:2680   */\n      swap1\n      pop\n        /* \"#utility.yul\":2596:2686   */\n      swap2\n      swap1\n      pop\n      jump\t// out\n        /* \"#utility.yul\":2692:2801   */\n    tag_178:\n        /* \"#utility.yul\":2773:2794   */\n      tag_222\n        /* \"#utility.yul\":2788:2793   */\n      dup2\n        /* \"#utility.yul\":2773:2794   */\n      tag_177\n      jump\t// in\n    tag_222:\n        /* \"#utility.yul\":2768:2771   */\n      dup3\n        /* \"#utility.yul\":2761:2795   */\n      mstore\n        /* \"#utility.yul\":2692:2801   */\n      pop\n      pop\n      jump\t// out\n        /* \"#utility.yul\":2807:3017   */\n    tag_37:\n        /* \"#utility.yul\":2894:2898   */\n      0x00\n        /* \"#utility.yul\":2932:2934   */\n      0x20\n        /* \"#utility.yul\":2921:2930   */\n      dup3\n        /* \"#utility.yul\":2917:2935   */\n      add\n        /* \"#utility.yul\":2909:2935   */\n      swap1\n      pop\n        /* \"#utility.yul\":2945:3010   */\n      tag_224\n        /* \"#utility.yul\":3007:3008   */\n      0x00\n        /* \"#utility.yul\":2996:3005   */\n      dup4\n        /* \"#utility.yul\":2992:3009   */\n      add\n        /* \"#utility.yul\":2983:2989   */\n      dup5\n        /* \"#utility.yul\":2945:3010   */\n      tag_178\n      jump\t// in\n    tag_224:\n        /* \"#utility.yul\":2807:3017   */\n      swap3\n      swap2\n      pop\n      pop\n      jump\t// out\n        /* \"#utility.yul\":3023:3141   */\n    tag_179:\n        /* \"#utility.yul\":3110:3134   */\n      tag_226\n        /* \"#utility.yul\":3128:3133   */\n      dup2\n        /* \"#utility.yul\":3110:3134   */\n      tag_167\n      jump\t// in\n    tag_226:\n        /* \"#utility.yul\":3105:3108   */\n      dup3\n        /* \"#utility.yul\":3098:3135   */\n      mstore\n        /* \"#utility.yul\":3023:3141   */\n      pop\n      pop\n      jump\t// out\n        /* \"#utility.yul\":3147:3369   */\n    tag_46:\n        /* \"#utility.yul\":3240:3244   */\n      0x00\n        /* \"#utility.yul\":3278:3280   */\n      0x20\n        /* \"#utility.yul\":3267:3276   */\n      dup3\n        /* \"#utility.yul\":3263:3281   */\n      add\n        /* \"#utility.yul\":3255:3281   */\n      swap1\n      pop\n        /* \"#utility.yul\":3291:3362   */\n      tag_228\n        /* \"#utility.yul\":3359:3360   */\n      0x00\n        /* \"#utility.yul\":3348:3357   */\n      dup4\n        /* \"#utility.yul\":3344:3361   */\n      add\n        /* \"#utility.yul\":3335:3341   */\n      dup5\n        /* \"#utility.yul\":3291:3362   */\n      tag_179\n      jump\t// in\n    tag_228:\n        /* \"#utility.yul\":3147:3369   */\n      swap3\n      swap2\n      pop\n      pop\n      jump\t// out\n        /* \"#utility.yul\":3375:3493   */\n    tag_180:\n        /* \"#utility.yul\":3446:3468   */\n      tag_230\n        /* \"#utility.yul\":3462:3467   */\n      dup2\n        /* \"#utility.yul\":3446:3468   */\n      tag_170\n      jump\t// in\n    tag_230:\n        /* \"#utility.yul\":3439:3444   */\n      dup2\n        /* \"#utility.yul\":3436:3469   */\n      eq\n        /* \"#utility.yul\":3426:3487   */\n      tag_231\n      jumpi\n        /* \"#utility.yul\":3483:3484   */\n      0x00\n        /* \"#utility.yul\":3480:3481   */\n      dup1\n        /* \"#utility.yul\":3473:3485   */\n      revert\n        /* \"#utility.yul\":3426:3487   */\n    tag_231:\n        /* \"#utility.yul\":3375:3493   */\n      pop\n      jump\t// out\n        /* \"#utility.yul\":3499:3634   */\n    tag_181:\n        /* \"#utility.yul\":3543:3548   */\n      0x00\n        /* \"#utility.yul\":3581:3587   */\n      dup2\n        /* \"#utility.yul\":3568:3588   */\n      calldataload\n        /* \"#utility.yul\":3559:3588   */\n      swap1\n      pop\n        /* \"#utility.yul\":3597:3628   */\n      tag_233\n        /* \"#utility.yul\":3622:3627   */\n      dup2\n        /* \"#utility.yul\":3597:3628   */\n      tag_180\n      jump\t// in\n    tag_233:\n        /* \"#utility.yul\":3499:3634   */\n      swap3\n      swap2\n      pop\n      pop\n      jump\t// out\n        /* \"#utility.yul\":3640:3760   */\n    tag_182:\n        /* \"#utility.yul\":3712:3735   */\n      tag_235\n        /* \"#utility.yul\":3729:3734   */\n      dup2\n        /* \"#utility.yul\":3712:3735   */\n      tag_172\n      jump\t// in\n    tag_235:\n        /* \"#utility.yul\":3705:3710   */\n      dup2\n        /* \"#utility.yul\":3702:3736   */\n      eq\n        /* \"#utility.yul\":3692:3754   */\n      tag_236\n      jumpi\n        /* \"#utility.yul\":3750:3751   */\n      0x00\n        /* \"#utility.yul\":3747:3748   */\n      dup1\n        /* \"#utility.yul\":3740:3752   */\n      revert\n        /* \"#utility.yul\":3692:3754   */\n    tag_236:\n        /* \"#utility.yul\":3640:3760   */\n      pop\n      jump\t// out\n        /* \"#utility.yul\":3766:3903   */\n    tag_183:\n        /* \"#utility.yul\":3811:3816   */\n      0x00\n        /* \"#utility.yul\":3849:3855   */\n      dup2\n        /* \"#utility.yul\":3836:3856   */\n      calldataload\n        /* \"#utility.yul\":3827:3856   */\n      swap1\n      pop\n        /* \"#utility.yul\":3865:3897   */\n      tag_238\n        /* \"#utility.yul\":3891:3896   */\n      dup2\n        /* \"#utility.yul\":3865:3897   */\n      tag_182\n      jump\t// in\n    tag_238:\n        /* \"#utility.yul\":3766:3903   */\n      swap3\n      swap2\n      pop\n      pop\n      jump\t// out\n        /* \"#utility.yul\":3909:4377   */\n    tag_49:\n        /* \"#utility.yul\":3974:3980   */\n      0x00\n        /* \"#utility.yul\":3982:3988   */\n      dup1\n        /* \"#utility.yul\":4031:4033   */\n      0x40\n        /* \"#utility.yul\":4019:4028   */\n      dup4\n        /* \"#utility.yul\":4010:4017   */\n      dup6\n        /* \"#utility.yul\":4006:4029   */\n      sub\n        /* \"#utility.yul\":4002:4034   */\n      slt\n        /* \"#utility.yul\":3999:4118   */\n      iszero\n      tag_240\n      jumpi\n        /* \"#utility.yul\":4037:4116   */\n      tag_241\n      tag_165\n      jump\t// in\n    tag_241:\n        /* \"#utility.yul\":3999:4118   */\n    tag_240:\n        /* \"#utility.yul\":4157:4158   */\n      0x00\n        /* \"#utility.yul\":4182:4233   */\n      tag_242\n        /* \"#utility.yul\":4225:4232   */\n      dup6\n        /* \"#utility.yul\":4216:4222   */\n      dup3\n        /* \"#utility.yul\":4205:4214   */\n      dup7\n        /* \"#utility.yul\":4201:4223   */\n      add\n        /* \"#utility.yul\":4182:4233   */\n      tag_181\n      jump\t// in\n    tag_242:\n        /* \"#utility.yul\":4172:4233   */\n      swap3\n      pop\n        /* \"#utility.yul\":4128:4243   */\n      pop\n        /* \"#utility.yul\":4282:4284   */\n      0x20\n        /* \"#utility.yul\":4308:4360   */\n      tag_243\n        /* \"#utility.yul\":4352:4359   */\n      dup6\n        /* \"#utility.yul\":4343:4349   */\n      dup3\n        /* \"#utility.yul\":4332:4341   */\n      dup7\n        /* \"#utility.yul\":4328:4350   */\n      add\n        /* \"#utility.yul\":4308:4360   */\n      tag_183\n      jump\t// in\n    tag_243:\n        /* \"#utility.yul\":4298:4360   */\n      swap2\n      pop\n        /* \"#utility.yul\":4253:4370   */\n      pop\n        /* \"#utility.yul\":3909:4377   */\n      swap3\n      pop\n      swap3\n      swap1\n      pop\n      jump\t// out\n        /* \"#utility.yul\":4383:4563   */\n    tag_184:\n        /* \"#utility.yul\":4431:4508   */\n      0x4e487b7100000000000000000000000000000000000000000000000000000000\n        /* \"#utility.yul\":4428:4429   */\n      0x00\n        /* \"#utility.yul\":4421:4509   */\n      mstore\n        /* \"#utility.yul\":4528:4532   */\n      0x12\n        /* \"#utility.yul\":4525:4526   */\n      0x04\n        /* \"#utility.yul\":4518:4533   */\n      mstore\n        /* \"#utility.yul\":4552:4556   */\n      0x24\n        /* \"#utility.yul\":4549:4550   */\n      0x00\n        /* \"#utility.yul\":4542:4557   */\n      revert\n        /* \"#utility.yul\":4569:4749   */\n    tag_185:\n        /* \"#utility.yul\":4617:4694   */\n      0x4e487b7100000000000000000000000000000000000000000000000000000000\n        /* \"#utility.yul\":4614:4615   */\n      0x00\n        /* \"#utility.yul\":4607:4695   */\n      mstore\n        /* \"#utility.yul\":4714:4718   */\n      0x11\n        /* \"#utility.yul\":4711:4712   */\n      0x04\n        /* \"#utility.yul\":4704:4719   */\n      mstore\n        /* \"#utility.yul\":4738:4742   */\n      0x24\n        /* \"#utility.yul\":4735:4736   */\n      0x00\n        /* \"#utility.yul\":4728:4743   */\n      revert\n        /* \"#utility.yul\":4755:4940   */\n    tag_58:\n        /* \"#utility.yul\":4795:4796   */\n      0x00\n        /* \"#utility.yul\":4812:4832   */\n      tag_247\n        /* \"#utility.yul\":4830:4831   */\n      dup3\n        /* \"#utility.yul\":4812:4832   */\n      tag_167\n      jump\t// in\n    tag_247:\n        /* \"#utility.yul\":4807:4832   */\n      swap2\n      pop\n        /* \"#utility.yul\":4846:4866   */\n      tag_248\n        /* \"#utility.yul\":4864:4865   */\n      dup4\n        /* \"#utility.yul\":4846:4866   */\n      tag_167\n      jump\t// in\n    tag_248:\n        /* \"#utility.yul\":4841:4866   */\n      swap3\n      pop\n        /* \"#utility.yul\":4885:4886   */\n      dup3\n        /* \"#utility.yul\":4875:4910   */\n      tag_249\n      jumpi\n        /* \"#utility.yul\":4890:4908   */\n      tag_250\n      tag_184\n      jump\t// in\n    tag_250:\n        /* \"#utility.yul\":4875:4910   */\n    tag_249:\n        /* \"#utility.yul\":4932:4933   */\n      dup3\n        /* \"#utility.yul\":4929:4930   */\n      dup3\n        /* \"#utility.yul\":4925:4934   */\n      div\n        /* \"#utility.yul\":4920:4934   */\n      swap1\n      pop\n        /* \"#utility.yul\":4755:4940   */\n      swap3\n      swap2\n      pop\n      pop\n      jump\t// out\n        /* \"#utility.yul\":4946:5122   */\n    tag_61:\n        /* \"#utility.yul\":4978:4979   */\n      0x00\n        /* \"#utility.yul\":4995:5015   */\n      tag_252\n        /* \"#utility.yul\":5013:5014   */\n      dup3\n        /* \"#utility.yul\":4995:5015   */\n      tag_167\n      jump\t// in\n    tag_252:\n        /* \"#utility.yul\":4990:5015   */\n      swap2\n      pop\n        /* \"#utility.yul\":5029:5049   */\n      tag_253\n        /* \"#utility.yul\":5047:5048   */\n      dup4\n        /* \"#utility.yul\":5029:5049   */\n      tag_167\n      jump\t// in\n    tag_253:\n        /* \"#utility.yul\":5024:5049   */\n      swap3\n      pop\n        /* \"#utility.yul\":5068:5069   */\n      dup3\n        /* \"#utility.yul\":5058:5093   */\n      tag_254\n      jumpi\n        /* \"#utility.yul\":5073:5091   */\n      tag_255\n      tag_184\n      jump\t// in\n    tag_255:\n        /* \"#utility.yul\":5058:5093   */\n    tag_254:\n        /* \"#utility.yul\":5114:5115   */\n      dup3\n        /* \"#utility.yul\":5111:5112   */\n      dup3\n        /* \"#utility.yul\":5107:5116   */\n      mod\n        /* \"#utility.yul\":5102:5116   */\n      swap1\n      pop\n        /* \"#utility.yul\":4946:5122   */\n      swap3\n      swap2\n      pop\n      pop\n      jump\t// out\n        /* \"#utility.yul\":5128:5319   */\n    tag_70:\n        /* \"#utility.yul\":5168:5171   */\n      0x00\n        /* \"#utility.yul\":5187:5207   */\n      tag_257\n        /* \"#utility.yul\":5205:5206   */\n      dup3\n        /* \"#utility.yul\":5187:5207   */\n      tag_167\n      jump\t// in\n    tag_257:\n        /* \"#utility.yul\":5182:5207   */\n      swap2\n      pop\n        /* \"#utility.yul\":5221:5241   */\n      tag_258\n        /* \"#utility.yul\":5239:5240   */\n      dup4\n        /* \"#utility.yul\":5221:5241   */\n      tag_167\n      jump\t// in\n    tag_258:\n        /* \"#utility.yul\":5216:5241   */\n      swap3\n      pop\n        /* \"#utility.yul\":5264:5265   */\n      dup3\n        /* \"#utility.yul\":5261:5262   */\n      dup3\n        /* \"#utility.yul\":5257:5266   */\n      add\n        /* \"#utility.yul\":5250:5266   */\n      swap1\n      pop\n        /* \"#utility.yul\":5285:5288   */\n      dup1\n        /* \"#utility.yul\":5282:5283   */\n      dup3\n        /* \"#utility.yul\":5279:5289   */\n      gt\n        /* \"#utility.yul\":5276:5312   */\n      iszero\n      tag_259\n      jumpi\n        /* \"#utility.yul\":5292:5310   */\n      tag_260\n      tag_185\n      jump\t// in\n    tag_260:\n        /* \"#utility.yul\":5276:5312   */\n    tag_259:\n        /* \"#utility.yul\":5128:5319   */\n      swap3\n      swap2\n      pop\n      pop\n      jump\t// out\n        /* \"#utility.yul\":5325:5519   */\n    tag_74:\n        /* \"#utility.yul\":5365:5369   */\n      0x00\n        /* \"#utility.yul\":5385:5405   */\n      tag_262\n        /* \"#utility.yul\":5403:5404   */\n      dup3\n        /* \"#utility.yul\":5385:5405   */\n      tag_167\n      jump\t// in\n    tag_262:\n        /* \"#utility.yul\":5380:5405   */\n      swap2\n      pop\n        /* \"#utility.yul\":5419:5439   */\n      tag_263\n        /* \"#utility.yul\":5437:5438   */\n      dup4\n        /* \"#utility.yul\":5419:5439   */\n      tag_167\n      jump\t// in\n    tag_263:\n        /* \"#utility.yul\":5414:5439   */\n      swap3\n      pop\n        /* \"#utility.yul\":5463:5464   */\n      dup3\n        /* \"#utility.yul\":5460:5461   */\n      dup3\n        /* \"#utility.yul\":5456:5465   */\n      sub\n        /* \"#utility.yul\":5448:5465   */\n      swap1\n      pop\n        /* \"#utility.yul\":5487:5488   */\n      dup2\n        /* \"#utility.yul\":5481:5485   */\n      dup2\n        /* \"#utility.yul\":5478:5489   */\n      gt\n        /* \"#utility.yul\":5475:5512   */\n      iszero\n      tag_264\n      jumpi\n        /* \"#utility.yul\":5492:5510   */\n      tag_265\n      tag_185\n      jump\t// in\n    tag_265:\n        /* \"#utility.yul\":5475:5512   */\n    tag_264:\n        /* \"#utility.yul\":5325:5519   */\n      swap3\n      swap2\n      pop\n      pop\n      jump\t// out\n        /* \"#utility.yul\":5525:5935   */\n    tag_76:\n        /* \"#utility.yul\":5565:5572   */\n      0x00\n        /* \"#utility.yul\":5588:5608   */\n      tag_267\n        /* \"#utility.yul\":5606:5607   */\n      dup3\n        /* \"#utility.yul\":5588:5608   */\n      tag_167\n      jump\t// in\n    tag_267:\n        /* \"#utility.yul\":5583:5608   */\n      swap2\n      pop\n        /* \"#utility.yul\":5622:5642   */\n      tag_268\n        /* \"#utility.yul\":5640:5641   */\n      dup4\n        /* \"#utility.yul\":5622:5642   */\n      tag_167\n      jump\t// in\n    tag_268:\n        /* \"#utility.yul\":5617:5642   */\n      swap3\n      pop\n        /* \"#utility.yul\":5677:5678   */\n      dup3\n        /* \"#utility.yul\":5674:5675   */\n      dup3\n        /* \"#utility.yul\":5670:5679   */\n      mul\n        /* \"#utility.yul\":5699:5729   */\n      tag_269\n        /* \"#utility.yul\":5717:5728   */\n      dup2\n        /* \"#utility.yul\":5699:5729   */\n      tag_167\n      jump\t// in\n    tag_269:\n        /* \"#utility.yul\":5688:5729   */\n      swap2\n      pop\n        /* \"#utility.yul\":5878:5879   */\n      dup3\n        /* \"#utility.yul\":5869:5876   */\n      dup3\n        /* \"#utility.yul\":5865:5880   */\n      div\n        /* \"#utility.yul\":5862:5863   */\n      dup5\n        /* \"#utility.yul\":5859:5881   */\n      eq\n        /* \"#utility.yul\":5839:5840   */\n      dup4\n        /* \"#utility.yul\":5832:5841   */\n      iszero\n        /* \"#utility.yul\":5812:5895   */\n      or\n        /* \"#utility.yul\":5789:5928   */\n      tag_270\n      jumpi\n        /* \"#utility.yul\":5908:5926   */\n      tag_271\n      tag_185\n      jump\t// in\n    tag_271:\n        /* \"#utility.yul\":5789:5928   */\n    tag_270:\n        /* \"#utility.yul\":5573:5935   */\n      pop\n        /* \"#utility.yul\":5525:5935   */\n      swap3\n      swap2\n      pop\n      pop\n      jump\t// out\n        /* \"#utility.yul\":5941:6141   */\n    tag_79:\n        /* \"#utility.yul\":5980:5984   */\n      0x00\n        /* \"#utility.yul\":6000:6019   */\n      tag_273\n        /* \"#utility.yul\":6017:6018   */\n      dup3\n        /* \"#utility.yul\":6000:6019   */\n      tag_174\n      jump\t// in\n    tag_273:\n        /* \"#utility.yul\":5995:6019   */\n      swap2\n      pop\n        /* \"#utility.yul\":6033:6052   */\n      tag_274\n        /* \"#utility.yul\":6050:6051   */\n      dup4\n        /* \"#utility.yul\":6033:6052   */\n      tag_174\n      jump\t// in\n    tag_274:\n        /* \"#utility.yul\":6028:6052   */\n      swap3\n      pop\n        /* \"#utility.yul\":6076:6077   */\n      dup3\n        /* \"#utility.yul\":6073:6074   */\n      dup3\n        /* \"#utility.yul\":6069:6078   */\n      sub\n        /* \"#utility.yul\":6061:6078   */\n      swap1\n      pop\n        /* \"#utility.yul\":6100:6110   */\n      0xffffffff\n        /* \"#utility.yul\":6094:6098   */\n      dup2\n        /* \"#utility.yul\":6091:6111   */\n      gt\n        /* \"#utility.yul\":6088:6134   */\n      iszero\n      tag_275\n      jumpi\n        /* \"#utility.yul\":6114:6132   */\n      tag_276\n      tag_185\n      jump\t// in\n    tag_276:\n        /* \"#utility.yul\":6088:6134   */\n    tag_275:\n        /* \"#utility.yul\":5941:6141   */\n      swap3\n      swap2\n      pop\n      pop\n      jump\t// out\n        /* \"#utility.yul\":6147:6343   */\n    tag_87:\n        /* \"#utility.yul\":6186:6190   */\n      0x00\n        /* \"#utility.yul\":6206:6225   */\n      tag_278\n        /* \"#utility.yul\":6223:6224   */\n      dup3\n        /* \"#utility.yul\":6206:6225   */\n      tag_172\n      jump\t// in\n    tag_278:\n        /* \"#utility.yul\":6201:6225   */\n      swap2\n      pop\n        /* \"#utility.yul\":6239:6258   */\n      tag_279\n        /* \"#utility.yul\":6256:6257   */\n      dup4\n        /* \"#utility.yul\":6239:6258   */\n      tag_172\n      jump\t// in\n    tag_279:\n        /* \"#utility.yul\":6234:6258   */\n      swap3\n      pop\n        /* \"#utility.yul\":6282:6283   */\n      dup3\n        /* \"#utility.yul\":6279:6280   */\n      dup3\n        /* \"#utility.yul\":6275:6284   */\n      sub\n        /* \"#utility.yul\":6267:6284   */\n      swap1\n      pop\n        /* \"#utility.yul\":6306:6312   */\n      0xffff\n        /* \"#utility.yul\":6300:6304   */\n      dup2\n        /* \"#utility.yul\":6297:6313   */\n      gt\n        /* \"#utility.yul\":6294:6336   */\n      iszero\n      tag_280\n      jumpi\n        /* \"#utility.yul\":6316:6334   */\n      tag_281\n      tag_185\n      jump\t// in\n    tag_281:\n        /* \"#utility.yul\":6294:6336   */\n    tag_280:\n        /* \"#utility.yul\":6147:6343   */\n      swap3\n      swap2\n      pop\n      pop\n      jump\t// out\n        /* \"#utility.yul\":6349:6522   */\n    tag_95:\n        /* \"#utility.yul\":6380:6381   */\n      0x00\n        /* \"#utility.yul\":6397:6416   */\n      tag_283\n        /* \"#utility.yul\":6414:6415   */\n      dup3\n        /* \"#utility.yul\":6397:6416   */\n      tag_174\n      jump\t// in\n    tag_283:\n        /* \"#utility.yul\":6392:6416   */\n      swap2\n      pop\n        /* \"#utility.yul\":6430:6449   */\n      tag_284\n        /* \"#utility.yul\":6447:6448   */\n      dup4\n        /* \"#utility.yul\":6430:6449   */\n      tag_174\n      jump\t// in\n    tag_284:\n        /* \"#utility.yul\":6425:6449   */\n      swap3\n      pop\n        /* \"#utility.yul\":6468:6469   */\n      dup3\n        /* \"#utility.yul\":6458:6493   */\n      tag_285\n      jumpi\n        /* \"#utility.yul\":6473:6491   */\n      tag_286\n      tag_184\n      jump\t// in\n    tag_286:\n        /* \"#utility.yul\":6458:6493   */\n    tag_285:\n        /* \"#utility.yul\":6514:6515   */\n      dup3\n        /* \"#utility.yul\":6511:6512   */\n      dup3\n        /* \"#utility.yul\":6507:6516   */\n      mod\n        /* \"#utility.yul\":6502:6516   */\n      swap1\n      pop\n        /* \"#utility.yul\":6349:6522   */\n      swap3\n      swap2\n      pop\n      pop\n      jump\t// out\n        /* \"#utility.yul\":6528:6695   */\n    tag_152:\n        /* \"#utility.yul\":6565:6568   */\n      0x00\n        /* \"#utility.yul\":6588:6610   */\n      tag_288\n        /* \"#utility.yul\":6604:6609   */\n      dup3\n        /* \"#utility.yul\":6588:6610   */\n      tag_170\n      jump\t// in\n    tag_288:\n        /* \"#utility.yul\":6579:6610   */\n      swap2\n      pop\n        /* \"#utility.yul\":6632:6636   */\n      0xff\n        /* \"#utility.yul\":6625:6630   */\n      dup3\n        /* \"#utility.yul\":6622:6637   */\n      sub\n        /* \"#utility.yul\":6619:6660   */\n      tag_289\n      jumpi\n        /* \"#utility.yul\":6640:6658   */\n      tag_290\n      tag_185\n      jump\t// in\n    tag_290:\n        /* \"#utility.yul\":6619:6660   */\n    tag_289:\n        /* \"#utility.yul\":6687:6688   */\n      0x01\n        /* \"#utility.yul\":6680:6685   */\n      dup3\n        /* \"#utility.yul\":6676:6689   */\n      add\n        /* \"#utility.yul\":6669:6689   */\n      swap1\n      pop\n        /* \"#utility.yul\":6528:6695   */\n      swap2\n      swap1\n      pop\n      jump\t// out\n\n    auxdata: 0xa2646970667358221220a8b85af805d6cada7cc26e298ff96ced2c334d224826eb8a10f2fdeced1c06d664736f6c63430008110033\n}\n",
				"bytecode": {
					"linkReferences": {},
					"object": "608060405234801561001057600080fd5b50610c7e806100206000396000f3fe608060405234801561001057600080fd5b50600436106100935760003560e01c8063a01f851811610066578063a01f851814610158578063a324ad2414610188578063b1999937146101b8578063b238ad0e146101e8578063fa93f8831461021857610093565b80633e239e1a1461009857806365c72840146100c85780638aa001fc146100f857806392d6631314610128575b600080fd5b6100b260048036038101906100ad9190610819565b610248565b6040516100bf9190610862565b60405180910390f35b6100e260048036038101906100dd9190610819565b610275565b6040516100ef9190610862565b60405180910390f35b610112600480360381019061010d9190610819565b61028b565b60405161011f9190610862565b60405180910390f35b610142600480360381019061013d9190610819565b6102a1565b60405161014f919061089a565b60405180910390f35b610172600480360381019061016d91906108f1565b6103c6565b60405161017f9190610939565b60405180910390f35b6101a2600480360381019061019d9190610819565b61043b565b6040516101af9190610862565b60405180910390f35b6101d260048036038101906101cd9190610819565b610451565b6040516101df9190610963565b60405180910390f35b61020260048036038101906101fd91906109d6565b6104a5565b60405161020f9190610862565b60405180910390f35b610232600480360381019061022d9190610819565b610575565b60405161023f9190610862565b60405180910390f35b60006018603c808461025a9190610a74565b6102649190610a74565b61026e9190610aa5565b9050919050565b600061028082610596565b604001519050919050565b6000603c8261029a9190610aa5565b9050919050565b600080600090506000806301e13380856102bb9190610a74565b6107b263ffffffff166102ce9190610ad6565b91506102e16107b263ffffffff16610451565b6102ee8361ffff16610451565b6102f89190610b0a565b9050806301e2850061030a9190610b3e565b836103159190610ad6565b9250806107b28361ffff1661032a9190610b80565b63ffffffff1661033a9190610b0a565b6301e133806103499190610b3e565b836103549190610ad6565b92505b848311156103bb5761037860018361036f9190610bb8565b61ffff166103c6565b15610394576301e285008361038d9190610b0a565b92506103a7565b6301e13380836103a49190610b0a565b92505b6001826103b49190610bb8565b9150610357565b819350505050919050565b6000806004836103d69190610bee565b63ffffffff16146103ea5760009050610436565b60006064836103f99190610bee565b63ffffffff161461040d5760019050610436565b60006101908361041d9190610bee565b63ffffffff16146104315760009050610436565b600190505b919050565b600061044682610596565b602001519050919050565b60006001826104609190610b0a565b9150610190826104709190610a74565b60648361047d9190610a74565b60048461048a9190610a74565b6104949190610b0a565b61049e9190610ad6565b9050919050565b600060018360ff1614806104bc575060038360ff16145b806104ca575060058360ff16145b806104d8575060078360ff16145b806104e6575060088360ff16145b806104f45750600a8360ff16145b806105025750600c8360ff16145b1561051057601f905061056f565b60048360ff161480610525575060068360ff16145b80610533575060098360ff16145b806105415750600b8360ff16145b1561054f57601e905061056f565b61055c8261ffff166103c6565b1561056a57601d905061056f565b601c90505b92915050565b6000603c80836105859190610a74565b61058f9190610aa5565b9050919050565b61059e610795565b600080806105ab856102a1565b846000019061ffff16908161ffff16815250506105cf6107b263ffffffff16610451565b6105e0856000015161ffff16610451565b6105ea9190610b0a565b9150816301e285006105fc9190610b3e565b836106079190610ad6565b9250816107b2856000015161ffff166106209190610b80565b63ffffffff166106309190610b0a565b6301e1338061063f9190610b3e565b8361064a9190610ad6565b92506000600191505b600c8260ff16116106ca5761066c8286600001516104a5565b60ff166201518061067d9190610b3e565b905085848261068c9190610ad6565b11156106a95781856020019060ff16908160ff16815250506106ca565b80846106b59190610ad6565b935081806106c290610c1f565b925050610653565b600191505b6106e1856020015186600001516104a5565b60ff168260ff161161073e578584620151806106fd9190610ad6565b111561071a5781856040019060ff16908160ff168152505061073e565b62015180846107299190610ad6565b9350818061073690610c1f565b9250506106cf565b61074786610248565b856060019060ff16908160ff168152505061076186610575565b856080019060ff16908160ff168152505061077b8661028b565b8560a0019060ff16908160ff168152505050505050919050565b6040518060c00160405280600061ffff168152602001600060ff168152602001600060ff168152602001600060ff168152602001600060ff168152602001600060ff1681525090565b600080fd5b6000819050919050565b6107f6816107e3565b811461080157600080fd5b50565b600081359050610813816107ed565b92915050565b60006020828403121561082f5761082e6107de565b5b600061083d84828501610804565b91505092915050565b600060ff82169050919050565b61085c81610846565b82525050565b60006020820190506108776000830184610853565b92915050565b600061ffff82169050919050565b6108948161087d565b82525050565b60006020820190506108af600083018461088b565b92915050565b600063ffffffff82169050919050565b6108ce816108b5565b81146108d957600080fd5b50565b6000813590506108eb816108c5565b92915050565b600060208284031215610907576109066107de565b5b6000610915848285016108dc565b91505092915050565b60008115159050919050565b6109338161091e565b82525050565b600060208201905061094e600083018461092a565b92915050565b61095d816107e3565b82525050565b60006020820190506109786000830184610954565b92915050565b61098781610846565b811461099257600080fd5b50565b6000813590506109a48161097e565b92915050565b6109b38161087d565b81146109be57600080fd5b50565b6000813590506109d0816109aa565b92915050565b600080604083850312156109ed576109ec6107de565b5b60006109fb85828601610995565b9250506020610a0c858286016109c1565b9150509250929050565b7f4e487b7100000000000000000000000000000000000000000000000000000000600052601260045260246000fd5b7f4e487b7100000000000000000000000000000000000000000000000000000000600052601160045260246000fd5b6000610a7f826107e3565b9150610a8a836107e3565b925082610a9a57610a99610a16565b5b828204905092915050565b6000610ab0826107e3565b9150610abb836107e3565b925082610acb57610aca610a16565b5b828206905092915050565b6000610ae1826107e3565b9150610aec836107e3565b9250828201905080821115610b0457610b03610a45565b5b92915050565b6000610b15826107e3565b9150610b20836107e3565b9250828203905081811115610b3857610b37610a45565b5b92915050565b6000610b49826107e3565b9150610b54836107e3565b9250828202610b62816107e3565b91508282048414831517610b7957610b78610a45565b5b5092915050565b6000610b8b826108b5565b9150610b96836108b5565b9250828203905063ffffffff811115610bb257610bb1610a45565b5b92915050565b6000610bc38261087d565b9150610bce8361087d565b9250828203905061ffff811115610be857610be7610a45565b5b92915050565b6000610bf9826108b5565b9150610c04836108b5565b925082610c1457610c13610a16565b5b828206905092915050565b6000610c2a82610846565b915060ff8203610c3d57610c3c610a45565b5b60018201905091905056fea2646970667358221220a8b85af805d6cada7cc26e298ff96ced2c334d224826eb8a10f2fdeced1c06d664736f6c63430008110033",
					"opcodes": "PUSH1 0x80 PUSH1 0x40 MSTORE CALLVALUE DUP1 ISZERO PUSH2 0x10 JUMPI PUSH1 0x0 DUP1 REVERT JUMPDEST POP PUSH2 0xC7E DUP1 PUSH2 0x20 PUSH1 0x0 CODECOPY PUSH1 0x0 RETURN INVALID PUSH1 0x80 PUSH1 0x40 MSTORE CALLVALUE DUP1 ISZERO PUSH2 0x10 JUMPI PUSH1 0x0 DUP1 REVERT JUMPDEST POP PUSH1 0x4 CALLDATASIZE LT PUSH2 0x93 JUMPI PUSH1 0x0 CALLDATALOAD PUSH1 0xE0 SHR DUP1 PUSH4 0xA01F8518 GT PUSH2 0x66 JUMPI DUP1 PUSH4 0xA01F8518 EQ PUSH2 0x158 JUMPI DUP1 PUSH4 0xA324AD24 EQ PUSH2 0x188 JUMPI DUP1 PUSH4 0xB1999937 EQ PUSH2 0x1B8 JUMPI DUP1 PUSH4 0xB238AD0E EQ PUSH2 0x1E8 JUMPI DUP1 PUSH4 0xFA93F883 EQ PUSH2 0x218 JUMPI PUSH2 0x93 JUMP JUMPDEST DUP1 PUSH4 0x3E239E1A EQ PUSH2 0x98 JUMPI DUP1 PUSH4 0x65C72840 EQ PUSH2 0xC8 JUMPI DUP1 PUSH4 0x8AA001FC EQ PUSH2 0xF8 JUMPI DUP1 PUSH4 0x92D66313 EQ PUSH2 0x128 JUMPI JUMPDEST PUSH1 0x0 DUP1 REVERT JUMPDEST PUSH2 0xB2 PUSH1 0x4 DUP1 CALLDATASIZE SUB DUP2 ADD SWAP1 PUSH2 0xAD SWAP2 SWAP1 PUSH2 0x819 JUMP JUMPDEST PUSH2 0x248 JUMP JUMPDEST PUSH1 0x40 MLOAD PUSH2 0xBF SWAP2 SWAP1 PUSH2 0x862 JUMP JUMPDEST PUSH1 0x40 MLOAD DUP1 SWAP2 SUB SWAP1 RETURN JUMPDEST PUSH2 0xE2 PUSH1 0x4 DUP1 CALLDATASIZE SUB DUP2 ADD SWAP1 PUSH2 0xDD SWAP2 SWAP1 PUSH2 0x819 JUMP JUMPDEST PUSH2 0x275 JUMP JUMPDEST PUSH1 0x40 MLOAD PUSH2 0xEF SWAP2 SWAP1 PUSH2 0x862 JUMP JUMPDEST PUSH1 0x40 MLOAD DUP1 SWAP2 SUB SWAP1 RETURN JUMPDEST PUSH2 0x112 PUSH1 0x4 DUP1 CALLDATASIZE SUB DUP2 ADD SWAP1 PUSH2 0x10D SWAP2 SWAP1 PUSH2 0x819 JUMP JUMPDEST PUSH2 0x28B JUMP JUMPDEST PUSH1 0x40 MLOAD PUSH2 0x11F SWAP2 SWAP1 PUSH2 0x862 JUMP JUMPDEST PUSH1 0x40 MLOAD DUP1 SWAP2 SUB SWAP1 RETURN JUMPDEST PUSH2 0x142 PUSH1 0x4 DUP1 CALLDATASIZE SUB DUP2 ADD SWAP1 PUSH2 0x13D SWAP2 SWAP1 PUSH2 0x819 JUMP JUMPDEST PUSH2 0x2A1 JUMP JUMPDEST PUSH1 0x40 MLOAD PUSH2 0x14F SWAP2 SWAP1 PUSH2 0x89A JUMP JUMPDEST PUSH1 0x40 MLOAD DUP1 SWAP2 SUB SWAP1 RETURN JUMPDEST PUSH2 0x172 PUSH1 0x4 DUP1 CALLDATASIZE SUB DUP2 ADD SWAP1 PUSH2 0x16D SWAP2 SWAP1 PUSH2 0x8F1 JUMP JUMPDEST PUSH2 0x3C6 JUMP JUMPDEST PUSH1 0x40 MLOAD PUSH2 0x17F SWAP2 SWAP1 PUSH2 0x939 JUMP JUMPDEST PUSH1 0x40 MLOAD DUP1 SWAP2 SUB SWAP1 RETURN JUMPDEST PUSH2 0x1A2 PUSH1 0x4 DUP1 CALLDATASIZE SUB DUP2 ADD SWAP1 PUSH2 0x19D SWAP2 SWAP1 PUSH2 0x819 JUMP JUMPDEST PUSH2 0x43B JUMP JUMPDEST PUSH1 0x40 MLOAD PUSH2 0x1AF SWAP2 SWAP1 PUSH2 0x862 JUMP JUMPDEST PUSH1 0x40 MLOAD DUP1 SWAP2 SUB SWAP1 RETURN JUMPDEST PUSH2 0x1D2 PUSH1 0x4 DUP1 CALLDATASIZE SUB DUP2 ADD SWAP1 PUSH2 0x1CD SWAP2 SWAP1 PUSH2 0x819 JUMP JUMPDEST PUSH2 0x451 JUMP JUMPDEST PUSH1 0x40 MLOAD PUSH2 0x1DF SWAP2 SWAP1 PUSH2 0x963 JUMP JUMPDEST PUSH1 0x40 MLOAD DUP1 SWAP2 SUB SWAP1 RETURN JUMPDEST PUSH2 0x202 PUSH1 0x4 DUP1 CALLDATASIZE SUB DUP2 ADD SWAP1 PUSH2 0x1FD SWAP2 SWAP1 PUSH2 0x9D6 JUMP JUMPDEST PUSH2 0x4A5 JUMP JUMPDEST PUSH1 0x40 MLOAD PUSH2 0x20F SWAP2 SWAP1 PUSH2 0x862 JUMP JUMPDEST PUSH1 0x40 MLOAD DUP1 SWAP2 SUB SWAP1 RETURN JUMPDEST PUSH2 0x232 PUSH1 0x4 DUP1 CALLDATASIZE SUB DUP2 ADD SWAP1 PUSH2 0x22D SWAP2 SWAP1 PUSH2 0x819 JUMP JUMPDEST PUSH2 0x575 JUMP JUMPDEST PUSH1 0x40 MLOAD PUSH2 0x23F SWAP2 SWAP1 PUSH2 0x862 JUMP JUMPDEST PUSH1 0x40 MLOAD DUP1 SWAP2 SUB SWAP1 RETURN JUMPDEST PUSH1 0x0 PUSH1 0x18 PUSH1 0x3C DUP1 DUP5 PUSH2 0x25A SWAP2 SWAP1 PUSH2 0xA74 JUMP JUMPDEST PUSH2 0x264 SWAP2 SWAP1 PUSH2 0xA74 JUMP JUMPDEST PUSH2 0x26E SWAP2 SWAP1 PUSH2 0xAA5 JUMP JUMPDEST SWAP1 POP SWAP2 SWAP1 POP JUMP JUMPDEST PUSH1 0x0 PUSH2 0x280 DUP3 PUSH2 0x596 JUMP JUMPDEST PUSH1 0x40 ADD MLOAD SWAP1 POP SWAP2 SWAP1 POP JUMP JUMPDEST PUSH1 0x0 PUSH1 0x3C DUP3 PUSH2 0x29A SWAP2 SWAP1 PUSH2 0xAA5 JUMP JUMPDEST SWAP1 POP SWAP2 SWAP1 POP JUMP JUMPDEST PUSH1 0x0 DUP1 PUSH1 0x0 SWAP1 POP PUSH1 0x0 DUP1 PUSH4 0x1E13380 DUP6 PUSH2 0x2BB SWAP2 SWAP1 PUSH2 0xA74 JUMP JUMPDEST PUSH2 0x7B2 PUSH4 0xFFFFFFFF AND PUSH2 0x2CE SWAP2 SWAP1 PUSH2 0xAD6 JUMP JUMPDEST SWAP2 POP PUSH2 0x2E1 PUSH2 0x7B2 PUSH4 0xFFFFFFFF AND PUSH2 0x451 JUMP JUMPDEST PUSH2 0x2EE DUP4 PUSH2 0xFFFF AND PUSH2 0x451 JUMP JUMPDEST PUSH2 0x2F8 SWAP2 SWAP1 PUSH2 0xB0A JUMP JUMPDEST SWAP1 POP DUP1 PUSH4 0x1E28500 PUSH2 0x30A SWAP2 SWAP1 PUSH2 0xB3E JUMP JUMPDEST DUP4 PUSH2 0x315 SWAP2 SWAP1 PUSH2 0xAD6 JUMP JUMPDEST SWAP3 POP DUP1 PUSH2 0x7B2 DUP4 PUSH2 0xFFFF AND PUSH2 0x32A SWAP2 SWAP1 PUSH2 0xB80 JUMP JUMPDEST PUSH4 0xFFFFFFFF AND PUSH2 0x33A SWAP2 SWAP1 PUSH2 0xB0A JUMP JUMPDEST PUSH4 0x1E13380 PUSH2 0x349 SWAP2 SWAP1 PUSH2 0xB3E JUMP JUMPDEST DUP4 PUSH2 0x354 SWAP2 SWAP1 PUSH2 0xAD6 JUMP JUMPDEST SWAP3 POP JUMPDEST DUP5 DUP4 GT ISZERO PUSH2 0x3BB JUMPI PUSH2 0x378 PUSH1 0x1 DUP4 PUSH2 0x36F SWAP2 SWAP1 PUSH2 0xBB8 JUMP JUMPDEST PUSH2 0xFFFF AND PUSH2 0x3C6 JUMP JUMPDEST ISZERO PUSH2 0x394 JUMPI PUSH4 0x1E28500 DUP4 PUSH2 0x38D SWAP2 SWAP1 PUSH2 0xB0A JUMP JUMPDEST SWAP3 POP PUSH2 0x3A7 JUMP JUMPDEST PUSH4 0x1E13380 DUP4 PUSH2 0x3A4 SWAP2 SWAP1 PUSH2 0xB0A JUMP JUMPDEST SWAP3 POP JUMPDEST PUSH1 0x1 DUP3 PUSH2 0x3B4 SWAP2 SWAP1 PUSH2 0xBB8 JUMP JUMPDEST SWAP2 POP PUSH2 0x357 JUMP JUMPDEST DUP2 SWAP4 POP POP POP POP SWAP2 SWAP1 POP JUMP JUMPDEST PUSH1 0x0 DUP1 PUSH1 0x4 DUP4 PUSH2 0x3D6 SWAP2 SWAP1 PUSH2 0xBEE JUMP JUMPDEST PUSH4 0xFFFFFFFF AND EQ PUSH2 0x3EA JUMPI PUSH1 0x0 SWAP1 POP PUSH2 0x436 JUMP JUMPDEST PUSH1 0x0 PUSH1 0x64 DUP4 PUSH2 0x3F9 SWAP2 SWAP1 PUSH2 0xBEE JUMP JUMPDEST PUSH4 0xFFFFFFFF AND EQ PUSH2 0x40D JUMPI PUSH1 0x1 SWAP1 POP PUSH2 0x436 JUMP JUMPDEST PUSH1 0x0 PUSH2 0x190 DUP4 PUSH2 0x41D SWAP2 SWAP1 PUSH2 0xBEE JUMP JUMPDEST PUSH4 0xFFFFFFFF AND EQ PUSH2 0x431 JUMPI PUSH1 0x0 SWAP1 POP PUSH2 0x436 JUMP JUMPDEST PUSH1 0x1 SWAP1 POP JUMPDEST SWAP2 SWAP1 POP JUMP JUMPDEST PUSH1 0x0 PUSH2 0x446 DUP3 PUSH2 0x596 JUMP JUMPDEST PUSH1 0x20 ADD MLOAD SWAP1 POP SWAP2 SWAP1 POP JUMP JUMPDEST PUSH1 0x0 PUSH1 0x1 DUP3 PUSH2 0x460 SWAP2 SWAP1 PUSH2 0xB0A JUMP JUMPDEST SWAP2 POP PUSH2 0x190 DUP3 PUSH2 0x470 SWAP2 SWAP1 PUSH2 0xA74 JUMP JUMPDEST PUSH1 0x64 DUP4 PUSH2 0x47D SWAP2 SWAP1 PUSH2 0xA74 JUMP JUMPDEST PUSH1 0x4 DUP5 PUSH2 0x48A SWAP2 SWAP1 PUSH2 0xA74 JUMP JUMPDEST PUSH2 0x494 SWAP2 SWAP1 PUSH2 0xB0A JUMP JUMPDEST PUSH2 0x49E SWAP2 SWAP1 PUSH2 0xAD6 JUMP JUMPDEST SWAP1 POP SWAP2 SWAP1 POP JUMP JUMPDEST PUSH1 0x0 PUSH1 0x1 DUP4 PUSH1 0xFF AND EQ DUP1 PUSH2 0x4BC JUMPI POP PUSH1 0x3 DUP4 PUSH1 0xFF AND EQ JUMPDEST DUP1 PUSH2 0x4CA JUMPI POP PUSH1 0x5 DUP4 PUSH1 0xFF AND EQ JUMPDEST DUP1 PUSH2 0x4D8 JUMPI POP PUSH1 0x7 DUP4 PUSH1 0xFF AND EQ JUMPDEST DUP1 PUSH2 0x4E6 JUMPI POP PUSH1 0x8 DUP4 PUSH1 0xFF AND EQ JUMPDEST DUP1 PUSH2 0x4F4 JUMPI POP PUSH1 0xA DUP4 PUSH1 0xFF AND EQ JUMPDEST DUP1 PUSH2 0x502 JUMPI POP PUSH1 0xC DUP4 PUSH1 0xFF AND EQ JUMPDEST ISZERO PUSH2 0x510 JUMPI PUSH1 0x1F SWAP1 POP PUSH2 0x56F JUMP JUMPDEST PUSH1 0x4 DUP4 PUSH1 0xFF AND EQ DUP1 PUSH2 0x525 JUMPI POP PUSH1 0x6 DUP4 PUSH1 0xFF AND EQ JUMPDEST DUP1 PUSH2 0x533 JUMPI POP PUSH1 0x9 DUP4 PUSH1 0xFF AND EQ JUMPDEST DUP1 PUSH2 0x541 JUMPI POP PUSH1 0xB DUP4 PUSH1 0xFF AND EQ JUMPDEST ISZERO PUSH2 0x54F JUMPI PUSH1 0x1E SWAP1 POP PUSH2 0x56F JUMP JUMPDEST PUSH2 0x55C DUP3 PUSH2 0xFFFF AND PUSH2 0x3C6 JUMP JUMPDEST ISZERO PUSH2 0x56A JUMPI PUSH1 0x1D SWAP1 POP PUSH2 0x56F JUMP JUMPDEST PUSH1 0x1C SWAP1 POP JUMPDEST SWAP3 SWAP2 POP POP JUMP JUMPDEST PUSH1 0x0 PUSH1 0x3C DUP1 DUP4 PUSH2 0x585 SWAP2 SWAP1 PUSH2 0xA74 JUMP JUMPDEST PUSH2 0x58F SWAP2 SWAP1 PUSH2 0xAA5 JUMP JUMPDEST SWAP1 POP SWAP2 SWAP1 POP JUMP JUMPDEST PUSH2 0x59E PUSH2 0x795 JUMP JUMPDEST PUSH1 0x0 DUP1 DUP1 PUSH2 0x5AB DUP6 PUSH2 0x2A1 JUMP JUMPDEST DUP5 PUSH1 0x0 ADD SWAP1 PUSH2 0xFFFF AND SWAP1 DUP2 PUSH2 0xFFFF AND DUP2 MSTORE POP POP PUSH2 0x5CF PUSH2 0x7B2 PUSH4 0xFFFFFFFF AND PUSH2 0x451 JUMP JUMPDEST PUSH2 0x5E0 DUP6 PUSH1 0x0 ADD MLOAD PUSH2 0xFFFF AND PUSH2 0x451 JUMP JUMPDEST PUSH2 0x5EA SWAP2 SWAP1 PUSH2 0xB0A JUMP JUMPDEST SWAP2 POP DUP2 PUSH4 0x1E28500 PUSH2 0x5FC SWAP2 SWAP1 PUSH2 0xB3E JUMP JUMPDEST DUP4 PUSH2 0x607 SWAP2 SWAP1 PUSH2 0xAD6 JUMP JUMPDEST SWAP3 POP DUP2 PUSH2 0x7B2 DUP6 PUSH1 0x0 ADD MLOAD PUSH2 0xFFFF AND PUSH2 0x620 SWAP2 SWAP1 PUSH2 0xB80 JUMP JUMPDEST PUSH4 0xFFFFFFFF AND PUSH2 0x630 SWAP2 SWAP1 PUSH2 0xB0A JUMP JUMPDEST PUSH4 0x1E13380 PUSH2 0x63F SWAP2 SWAP1 PUSH2 0xB3E JUMP JUMPDEST DUP4 PUSH2 0x64A SWAP2 SWAP1 PUSH2 0xAD6 JUMP JUMPDEST SWAP3 POP PUSH1 0x0 PUSH1 0x1 SWAP2 POP JUMPDEST PUSH1 0xC DUP3 PUSH1 0xFF AND GT PUSH2 0x6CA JUMPI PUSH2 0x66C DUP3 DUP7 PUSH1 0x0 ADD MLOAD PUSH2 0x4A5 JUMP JUMPDEST PUSH1 0xFF AND PUSH3 0x15180 PUSH2 0x67D SWAP2 SWAP1 PUSH2 0xB3E JUMP JUMPDEST SWAP1 POP DUP6 DUP5 DUP3 PUSH2 0x68C SWAP2 SWAP1 PUSH2 0xAD6 JUMP JUMPDEST GT ISZERO PUSH2 0x6A9 JUMPI DUP2 DUP6 PUSH1 0x20 ADD SWAP1 PUSH1 0xFF AND SWAP1 DUP2 PUSH1 0xFF AND DUP2 MSTORE POP POP PUSH2 0x6CA JUMP JUMPDEST DUP1 DUP5 PUSH2 0x6B5 SWAP2 SWAP1 PUSH2 0xAD6 JUMP JUMPDEST SWAP4 POP DUP2 DUP1 PUSH2 0x6C2 SWAP1 PUSH2 0xC1F JUMP JUMPDEST SWAP3 POP POP PUSH2 0x653 JUMP JUMPDEST PUSH1 0x1 SWAP2 POP JUMPDEST PUSH2 0x6E1 DUP6 PUSH1 0x20 ADD MLOAD DUP7 PUSH1 0x0 ADD MLOAD PUSH2 0x4A5 JUMP JUMPDEST PUSH1 0xFF AND DUP3 PUSH1 0xFF AND GT PUSH2 0x73E JUMPI DUP6 DUP5 PUSH3 0x15180 PUSH2 0x6FD SWAP2 SWAP1 PUSH2 0xAD6 JUMP JUMPDEST GT ISZERO PUSH2 0x71A JUMPI DUP2 DUP6 PUSH1 0x40 ADD SWAP1 PUSH1 0xFF AND SWAP1 DUP2 PUSH1 0xFF AND DUP2 MSTORE POP POP PUSH2 0x73E JUMP JUMPDEST PUSH3 0x15180 DUP5 PUSH2 0x729 SWAP2 SWAP1 PUSH2 0xAD6 JUMP JUMPDEST SWAP4 POP DUP2 DUP1 PUSH2 0x736 SWAP1 PUSH2 0xC1F JUMP JUMPDEST SWAP3 POP POP PUSH2 0x6CF JUMP JUMPDEST PUSH2 0x747 DUP7 PUSH2 0x248 JUMP JUMPDEST DUP6 PUSH1 0x60 ADD SWAP1 PUSH1 0xFF AND SWAP1 DUP2 PUSH1 0xFF AND DUP2 MSTORE POP POP PUSH2 0x761 DUP7 PUSH2 0x575 JUMP JUMPDEST DUP6 PUSH1 0x80 ADD SWAP1 PUSH1 0xFF AND SWAP1 DUP2 PUSH1 0xFF AND DUP2 MSTORE POP POP PUSH2 0x77B DUP7 PUSH2 0x28B JUMP JUMPDEST DUP6 PUSH1 0xA0 ADD SWAP1 PUSH1 0xFF AND SWAP1 DUP2 PUSH1 0xFF AND DUP2 MSTORE POP POP POP POP POP POP SWAP2 SWAP1 POP JUMP JUMPDEST PUSH1 0x40 MLOAD DUP1 PUSH1 0xC0 ADD PUSH1 0x40 MSTORE DUP1 PUSH1 0x0 PUSH2 0xFFFF AND DUP2 MSTORE PUSH1 0x20 ADD PUSH1 0x0 PUSH1 0xFF AND DUP2 MSTORE PUSH1 0x20 ADD PUSH1 0x0 PUSH1 0xFF AND DUP2 MSTORE PUSH1 0x20 ADD PUSH1 0x0 PUSH1 0xFF AND DUP2 MSTORE PUSH1 0x20 ADD PUSH1 0x0 PUSH1 0xFF AND DUP2 MSTORE PUSH1 0x20 ADD PUSH1 0x0 PUSH1 0xFF AND DUP2 MSTORE POP SWAP1 JUMP JUMPDEST PUSH1 0x0 DUP1 REVERT JUMPDEST PUSH1 0x0 DUP2 SWAP1 POP SWAP2 SWAP1 POP JUMP JUMPDEST PUSH2 0x7F6 DUP2 PUSH2 0x7E3 JUMP JUMPDEST DUP2 EQ PUSH2 0x801 JUMPI PUSH1 0x0 DUP1 REVERT JUMPDEST POP JUMP JUMPDEST PUSH1 0x0 DUP2 CALLDATALOAD SWAP1 POP PUSH2 0x813 DUP2 PUSH2 0x7ED JUMP JUMPDEST SWAP3 SWAP2 POP POP JUMP JUMPDEST PUSH1 0x0 PUSH1 0x20 DUP3 DUP5 SUB SLT ISZERO PUSH2 0x82F JUMPI PUSH2 0x82E PUSH2 0x7DE JUMP JUMPDEST JUMPDEST PUSH1 0x0 PUSH2 0x83D DUP5 DUP3 DUP6 ADD PUSH2 0x804 JUMP JUMPDEST SWAP2 POP POP SWAP3 SWAP2 POP POP JUMP JUMPDEST PUSH1 0x0 PUSH1 0xFF DUP3 AND SWAP1 POP SWAP2 SWAP1 POP JUMP JUMPDEST PUSH2 0x85C DUP2 PUSH2 0x846 JUMP JUMPDEST DUP3 MSTORE POP POP JUMP JUMPDEST PUSH1 0x0 PUSH1 0x20 DUP3 ADD SWAP1 POP PUSH2 0x877 PUSH1 0x0 DUP4 ADD DUP5 PUSH2 0x853 JUMP JUMPDEST SWAP3 SWAP2 POP POP JUMP JUMPDEST PUSH1 0x0 PUSH2 0xFFFF DUP3 AND SWAP1 POP SWAP2 SWAP1 POP JUMP JUMPDEST PUSH2 0x894 DUP2 PUSH2 0x87D JUMP JUMPDEST DUP3 MSTORE POP POP JUMP JUMPDEST PUSH1 0x0 PUSH1 0x20 DUP3 ADD SWAP1 POP PUSH2 0x8AF PUSH1 0x0 DUP4 ADD DUP5 PUSH2 0x88B JUMP JUMPDEST SWAP3 SWAP2 POP POP JUMP JUMPDEST PUSH1 0x0 PUSH4 0xFFFFFFFF DUP3 AND SWAP1 POP SWAP2 SWAP1 POP JUMP JUMPDEST PUSH2 0x8CE DUP2 PUSH2 0x8B5 JUMP JUMPDEST DUP2 EQ PUSH2 0x8D9 JUMPI PUSH1 0x0 DUP1 REVERT JUMPDEST POP JUMP JUMPDEST PUSH1 0x0 DUP2 CALLDATALOAD SWAP1 POP PUSH2 0x8EB DUP2 PUSH2 0x8C5 JUMP JUMPDEST SWAP3 SWAP2 POP POP JUMP JUMPDEST PUSH1 0x0 PUSH1 0x20 DUP3 DUP5 SUB SLT ISZERO PUSH2 0x907 JUMPI PUSH2 0x906 PUSH2 0x7DE JUMP JUMPDEST JUMPDEST PUSH1 0x0 PUSH2 0x915 DUP5 DUP3 DUP6 ADD PUSH2 0x8DC JUMP JUMPDEST SWAP2 POP POP SWAP3 SWAP2 POP POP JUMP JUMPDEST PUSH1 0x0 DUP2 ISZERO ISZERO SWAP1 POP SWAP2 SWAP1 POP JUMP JUMPDEST PUSH2 0x933 DUP2 PUSH2 0x91E JUMP JUMPDEST DUP3 MSTORE POP POP JUMP JUMPDEST PUSH1 0x0 PUSH1 0x20 DUP3 ADD SWAP1 POP PUSH2 0x94E PUSH1 0x0 DUP4 ADD DUP5 PUSH2 0x92A JUMP JUMPDEST SWAP3 SWAP2 POP POP JUMP JUMPDEST PUSH2 0x95D DUP2 PUSH2 0x7E3 JUMP JUMPDEST DUP3 MSTORE POP POP JUMP JUMPDEST PUSH1 0x0 PUSH1 0x20 DUP3 ADD SWAP1 POP PUSH2 0x978 PUSH1 0x0 DUP4 ADD DUP5 PUSH2 0x954 JUMP JUMPDEST SWAP3 SWAP2 POP POP JUMP JUMPDEST PUSH2 0x987 DUP2 PUSH2 0x846 JUMP JUMPDEST DUP2 EQ PUSH2 0x992 JUMPI PUSH1 0x0 DUP1 REVERT JUMPDEST POP JUMP JUMPDEST PUSH1 0x0 DUP2 CALLDATALOAD SWAP1 POP PUSH2 0x9A4 DUP2 PUSH2 0x97E JUMP JUMPDEST SWAP3 SWAP2 POP POP JUMP JUMPDEST PUSH2 0x9B3 DUP2 PUSH2 0x87D JUMP JUMPDEST DUP2 EQ PUSH2 0x9BE JUMPI PUSH1 0x0 DUP1 REVERT JUMPDEST POP JUMP JUMPDEST PUSH1 0x0 DUP2 CALLDATALOAD SWAP1 POP PUSH2 0x9D0 DUP2 PUSH2 0x9AA JUMP JUMPDEST SWAP3 SWAP2 POP POP JUMP JUMPDEST PUSH1 0x0 DUP1 PUSH1 0x40 DUP4 DUP6 SUB SLT ISZERO PUSH2 0x9ED JUMPI PUSH2 0x9EC PUSH2 0x7DE JUMP JUMPDEST JUMPDEST PUSH1 0x0 PUSH2 0x9FB DUP6 DUP3 DUP7 ADD PUSH2 0x995 JUMP JUMPDEST SWAP3 POP POP PUSH1 0x20 PUSH2 0xA0C DUP6 DUP3 DUP7 ADD PUSH2 0x9C1 JUMP JUMPDEST SWAP2 POP POP SWAP3 POP SWAP3 SWAP1 POP JUMP JUMPDEST PUSH32 0x4E487B7100000000000000000000000000000000000000000000000000000000 PUSH1 0x0 MSTORE PUSH1 0x12 PUSH1 0x4 MSTORE PUSH1 0x24 PUSH1 0x0 REVERT JUMPDEST PUSH32 0x4E487B7100000000000000000000000000000000000000000000000000000000 PUSH1 0x0 MSTORE PUSH1 0x11 PUSH1 0x4 MSTORE PUSH1 0x24 PUSH1 0x0 REVERT JUMPDEST PUSH1 0x0 PUSH2 0xA7F DUP3 PUSH2 0x7E3 JUMP JUMPDEST SWAP2 POP PUSH2 0xA8A DUP4 PUSH2 0x7E3 JUMP JUMPDEST SWAP3 POP DUP3 PUSH2 0xA9A JUMPI PUSH2 0xA99 PUSH2 0xA16 JUMP JUMPDEST JUMPDEST DUP3 DUP3 DIV SWAP1 POP SWAP3 SWAP2 POP POP JUMP JUMPDEST PUSH1 0x0 PUSH2 0xAB0 DUP3 PUSH2 0x7E3 JUMP JUMPDEST SWAP2 POP PUSH2 0xABB DUP4 PUSH2 0x7E3 JUMP JUMPDEST SWAP3 POP DUP3 PUSH2 0xACB JUMPI PUSH2 0xACA PUSH2 0xA16 JUMP JUMPDEST JUMPDEST DUP3 DUP3 MOD SWAP1 POP SWAP3 SWAP2 POP POP JUMP JUMPDEST PUSH1 0x0 PUSH2 0xAE1 DUP3 PUSH2 0x7E3 JUMP JUMPDEST SWAP2 POP PUSH2 0xAEC DUP4 PUSH2 0x7E3 JUMP JUMPDEST SWAP3 POP DUP3 DUP3 ADD SWAP1 POP DUP1 DUP3 GT ISZERO PUSH2 0xB04 JUMPI PUSH2 0xB03 PUSH2 0xA45 JUMP JUMPDEST JUMPDEST SWAP3 SWAP2 POP POP JUMP JUMPDEST PUSH1 0x0 PUSH2 0xB15 DUP3 PUSH2 0x7E3 JUMP JUMPDEST SWAP2 POP PUSH2 0xB20 DUP4 PUSH2 0x7E3 JUMP JUMPDEST SWAP3 POP DUP3 DUP3 SUB SWAP1 POP DUP2 DUP2 GT ISZERO PUSH2 0xB38 JUMPI PUSH2 0xB37 PUSH2 0xA45 JUMP JUMPDEST JUMPDEST SWAP3 SWAP2 POP POP JUMP JUMPDEST PUSH1 0x0 PUSH2 0xB49 DUP3 PUSH2 0x7E3 JUMP JUMPDEST SWAP2 POP PUSH2 0xB54 DUP4 PUSH2 0x7E3 JUMP JUMPDEST SWAP3 POP DUP3 DUP3 MUL PUSH2 0xB62 DUP2 PUSH2 0x7E3 JUMP JUMPDEST SWAP2 POP DUP3 DUP3 DIV DUP5 EQ DUP4 ISZERO OR PUSH2 0xB79 JUMPI PUSH2 0xB78 PUSH2 0xA45 JUMP JUMPDEST JUMPDEST POP SWAP3 SWAP2 POP POP JUMP JUMPDEST PUSH1 0x0 PUSH2 0xB8B DUP3 PUSH2 0x8B5 JUMP JUMPDEST SWAP2 POP PUSH2 0xB96 DUP4 PUSH2 0x8B5 JUMP JUMPDEST SWAP3 POP DUP3 DUP3 SUB SWAP1 POP PUSH4 0xFFFFFFFF DUP2 GT ISZERO PUSH2 0xBB2 JUMPI PUSH2 0xBB1 PUSH2 0xA45 JUMP JUMPDEST JUMPDEST SWAP3 SWAP2 POP POP JUMP JUMPDEST PUSH1 0x0 PUSH2 0xBC3 DUP3 PUSH2 0x87D JUMP JUMPDEST SWAP2 POP PUSH2 0xBCE DUP4 PUSH2 0x87D JUMP JUMPDEST SWAP3 POP DUP3 DUP3 SUB SWAP1 POP PUSH2 0xFFFF DUP2 GT ISZERO PUSH2 0xBE8 JUMPI PUSH2 0xBE7 PUSH2 0xA45 JUMP JUMPDEST JUMPDEST SWAP3 SWAP2 POP POP JUMP JUMPDEST PUSH1 0x0 PUSH2 0xBF9 DUP3 PUSH2 0x8B5 JUMP JUMPDEST SWAP2 POP PUSH2 0xC04 DUP4 PUSH2 0x8B5 JUMP JUMPDEST SWAP3 POP DUP3 PUSH2 0xC14 JUMPI PUSH2 0xC13 PUSH2 0xA16 JUMP JUMPDEST JUMPDEST DUP3 DUP3 MOD SWAP1 POP SWAP3 SWAP2 POP POP JUMP JUMPDEST PUSH1 0x0 PUSH2 0xC2A DUP3 PUSH2 0x846 JUMP JUMPDEST SWAP2 POP PUSH1 0xFF DUP3 SUB PUSH2 0xC3D JUMPI PUSH2 0xC3C PUSH2 0xA45 JUMP JUMPDEST JUMPDEST PUSH1 0x1 DUP3 ADD SWAP1 POP SWAP2 SWAP1 POP JUMP INVALID LOG2 PUSH5 0x6970667358 0x22 SLT KECCAK256 0xA8 0xB8 GAS 0xF8 SDIV 0xD6 0xCA 0xDA PUSH29 0xC26E298FF96CED2C334D224826EB8A10F2FDECED1C06D664736F6C6343 STOP ADDMOD GT STOP CALLER "
				},
				"gasEstimates": {
					"creation": {
						"codeDepositCost": "639600",
						"executionCost": "670",
						"totalCost": "640270"
					},
					"external": {
						"getDay(uint256)": "infinite",
						"getDaysInMonth(uint8,uint16)": "infinite",
						"getHour(uint256)": "infinite",
						"getMinute(uint256)": "infinite",
						"getMonth(uint256)": "infinite",
						"getSecond(uint256)": "infinite",
						"getYear(uint256)": "infinite",
						"isLeapYear(uint32)": "infinite",
						"leapYearsBefore(uint256)": "infinite"
					},
					"internal": {
						"parseTimestamp(uint256)": "infinite"
					}
				},
				"methodIdentifiers": {
					"getDay(uint256)": "65c72840",
					"getDaysInMonth(uint8,uint16)": "b238ad0e",
					"getHour(uint256)": "3e239e1a",
					"getMinute(uint256)": "fa93f883",
					"getMonth(uint256)": "a324ad24",
					"getSecond(uint256)": "8aa001fc",
					"getYear(uint256)": "92d66313",
					"isLeapYear(uint32)": "a01f8518",
					"leapYearsBefore(uint256)": "b1999937"
				}
			},
			"storageLayout": {
				"storage": [],
				"types": null
			},
			"userdoc": {
				"kind": "user",
				"methods": {},
				"version": 1
			}
		}
	}
}